:020000040800F2
:100000000000022005820008917700089977000817
:10001000A1770008A9770008B17700080000000068
:1000200000000000000000000000000081F1000856
:10003000B977000800000000D1F30008C777000876
:100040005582000855820008558200085582000834
:100050005582000855820008558200085582000824
:100060005582000855820008558200085582000814
:100070005582000855820008558200085582000804
:1000800055820008558200085582000855820008F4
:1000900055820008558200085582000855820008E4
:1000A00055820008558200085582000855820008D4
:1000B00055820008558200085582000855820008C4
:1000C00055820008558200085582000855820008B4
:1000D000558200085582000855820008E177000823
:1000E0005582000855820008558200085582000894
:1000F0005582000855820008F577000855820008EF
:100100005582000855820008558200085582000873
:100110005582000855820008558200085582000863
:1001200009780008558200085582000855820008A9
:100130005582000855820008558200085582000843
:100140005582000855820008558200085582000833
:100150005582000855820008558200085582000823
:100160005582000855820008558200085582000813
:1001700055820008558200085582000800000000E2
:080180005582000855820008B9
:1001900010B5054C237833B9044B13B10448AFF3C1
:1001A00000800123237010BD080200200000000021
:1001B000FC30010808B5034B1BB103490348AFF3FA
:1001C000008008BD000000000C020020FC30010887
:1001D00010F8012B11F8013B012A28BF9A42F7D0F1
:1001E000D01A70470000000000000000000000006E
:1001F00001F0FF01102A2BDB10F0070F08D010F8D8
:10020000013B013A8B422DD010F0070F42B3F6D1DB
:10021000F0B441EA012141EA014122F007047FF0F4
:1002200000070023F0E80256083C85EA010586EA4B
:10023000010685FA47F5A3FA87F586FA47F6A5FA87
:1002400087F68EB9EED1F0BC01F0FF0102F0070293
:1002500032B110F8013B013A83EA010313B1F8D13E
:100260000020704701387047002D06BF354603381F
:10027000073815F0010F07D1013015F4807F02BF58
:10028000013015F4C03F0130F0BC0138704700BFA9
:10029000034613F8012B002AFBD1181A01387047C6
:1002A00081F0004102E000BF83F0004330B54FEA27
:1002B00041044FEA430594EA050F08BF90EA020F94
:1002C0001FBF54EA000C55EA020C7FEA645C7FEA27
:1002D000655C00F0E2804FEA5454D4EB5555B8BF4A
:1002E0006D420CDD2C4480EA020281EA030382EABB
:1002F000000083EA010180EA020281EA0303362D4D
:1003000088BF30BD11F0004F4FEA01314FF4801C1F
:100310004CEA113102D0404261EB410113F0004F31
:100320004FEA03334CEA133302D0524263EB4303E8
:1003300094EA050F00F0A780A4F10104D5F1200E86
:100340000DDB02FA0EFC22FA05F2801841F10001E1
:1003500003FA0EF2801843FA05F359410EE0A5F1B5
:1003600020050EF1200E012A03FA0EFC28BF4CF0E6
:10037000020C43FA05F3C01851EBE37101F000459C
:1003800007D54FF0000EDCF1000C7EEB00006EEBA9
:100390000101B1F5801F1BD3B1F5001F0CD3490833
:1003A0005FEA30004FEA3C0C04F101044FEA44528A
:1003B00012F5800F80F09A80BCF1004F08BF5FEA11
:1003C000500C50F1000041EB045141EA050130BDF1
:1003D0005FEA4C0C404141EB0101013C28BFB1F503
:1003E000801FE9D291F0000F04BF01460020B1FA4E
:1003F00081F308BF2033A3F10B03B3F120020CDA21
:100400000C3208DD02F1140CC2F10C0201FA0CF0FE
:1004100021FA02F10CE002F11402D8BFC2F1200C63
:1004200001FA02F120FA0CFCDCBF41EA0C01904019
:10043000E41AA2BF01EB0451294330BD6FEA040462
:100440001F3C1CDA0C340EDC04F11404C4F120024D
:1004500020FA04F001FA02F340EA030021FA04F35F
:1004600045EA030130BDC4F10C04C4F1200220FAB6
:1004700002F001FA04F340EA0300294630BD21FAF4
:1004800004F0294630BD94F0000F83F4801306BFBA
:1004900081F480110134013D4EE77FEA645C18BFAE
:1004A0007FEA655C29D094EA050F08BF90EA020F45
:1004B00005D054EA000C04BF1946104630BD91EA3D
:1004C000030F1EBF0021002030BD5FEA545C05D140
:1004D0004000494128BF41F0004130BD14F580047F
:1004E0003CBF01F5801130BD01F0004545F0FE41F3
:1004F00041F470014FF0000030BD7FEA645C1ABF28
:10050000194610467FEA655C1CBF0B46024650EA5E
:10051000013406BF52EA033591EA030F41F400218A
:1005200030BD00BF90F0000F04BF0021704730B510
:100530004FF4806404F132044FF000054FF00001E5
:1005400050E700BF90F0000F04BF0021704730B5A6
:100550004FF4806404F1320410F0004548BF40427B
:100560004FF000013EE700BF42004FEAE2014FEAD0
:1005700031014FEA02701FBF12F07F4393F07F4FAB
:1005800081F06051704732F07F4208BF704793F0AE
:100590007F4F04BF41F40021704730B54FF46074C1
:1005A00001F0004521F000411CE700BF50EA0102C4
:1005B00008BF704730B54FF000050AE050EA01026D
:1005C00008BF704730B511F0004502D5404261EBDD
:1005D00041014FF4806404F132045FEA915C3FF41E
:1005E000D8AE4FF003025FEADC0C18BF03325FEABB
:1005F000DC0C18BF033202EBDC02C2F1200300FA6C
:1006000003FC20FA02F001FA03FE40EA0E0021FA90
:1006100002F11444BDE600BF70B54FF0FF0C4CF47E
:10062000E06C1CEA11541DBF1CEA135594EA0C0F30
:1006300095EA0C0F00F0DEF82C4481EA030621EA6B
:100640004C5123EA4C5350EA013518BF52EA0335A6
:1006500041F4801143F4801338D0A0FB02CE4FF058
:100660000005E1FB02E506F00042E0FB03E54FF088
:100670000006E1FB03569CF0000F18BF4EF0010E80
:10068000A4F1FF04B6F5007F64F5407404D25FEA7C
:100690004E0E6D4146EB060642EAC62141EA55512F
:1006A0004FEAC52040EA5E504FEACE2EB4F1FD0C71
:1006B00088BFBCF5E06F1ED8BEF1004F08BF5FEAEF
:1006C000500E50F1000041EB045170BD06F00046A1
:1006D00046EA010140EA020081EA0301B4EB5C044E
:1006E000C2BFD4EB0C0541EA045170BD41F4801146
:1006F0004FF0000E013C00F3AB8014F1360FDEBF6B
:10070000002001F0004170BDC4F10004203C35DA46
:100710000C341BDC04F11404C4F1200500FA05F3C9
:1007200020FA04F001FA05F240EA020001F000426A
:1007300021F0004110EBD37021FA04F642EB0601E0
:100740005EEA430E08BF20EAD37070BDC4F10C040A
:10075000C4F1200500FA04F320FA05F001FA04F2CE
:1007600040EA020001F0004110EBD37041F10001BA
:100770005EEA430E08BF20EAD37070BDC4F12005C5
:1007800000FA05F24EEA020E20FA04F301FA05F22D
:1007900043EA020321FA04F001F0004121FA04F2D5
:1007A00020EA020000EBD3705EEA430E08BF20EAA5
:1007B000D37070BD94F0000F0FD101F000464000DF
:1007C00041EB010111F4801F08BF013CF7D041EA61
:1007D000060195F0000F18BF704703F00046520065
:1007E00043EB030313F4801F08BF013DF7D043EA36
:1007F0000603704794EA0C0F0CEA135518BF95EAEC
:100800000C0F0CD050EA410618BF52EA4306D1D172
:1008100081EA030101F000414FF0000070BD50EA91
:10082000410606BF1046194652EA430619D094EA1B
:100830000C0F02D150EA013613D195EA0C0F05D105
:1008400052EA03361CBF104619460AD181EA030159
:1008500001F0004141F0FE4141F470014FF0000011
:1008600070BD41F0FE4141F4780170BD70B54FF0AC
:10087000FF0C4CF4E06C1CEA11541DBF1CEA13552C
:1008800094EA0C0F95EA0C0F00F0A7F8A4EB05040E
:1008900081EA030E52EA03354FEA013100F0888005
:1008A0004FEA03334FF0805545EA131343EA1263CE
:1008B0004FEA022245EA111545EA10654FEA002683
:1008C0000EF000419D4208BF964244F1FD0404F53C
:1008D000407402D25B084FEA3202B61A65EB030598
:1008E0005B084FEA32024FF480104FF4002CB6EB55
:1008F000020E75EB030E22BFB61A754640EA0C00D5
:100900005B084FEA3202B6EB020E75EB030E22BF14
:10091000B61A754640EA5C005B084FEA3202B6EB55
:10092000020E75EB030E22BFB61A754640EA9C0014
:100930005B084FEA3202B6EB020E75EB030E22BFE4
:10094000B61A754640EADC0055EA060E18D04FEAA2
:10095000051545EA16754FEA06164FEAC30343EA42
:1009600052734FEAC2025FEA1C1CC0D111F4801F0F
:100970000BD141EA00014FF000004FF0004CB6E708
:1009800011F4801F04BF01430020B4F1FD0C88BFA7
:10099000BCF5E06F3FF6AFAEB5EB030C04BFB6EBB2
:1009A000020C5FEA500C50F1000041EB045170BDA5
:1009B0000EF0004E4EEA113114EB5C04C2BFD4EBD2
:1009C0000C0541EA045170BD41F480114FF0000E56
:1009D000013C90E645EA060E8DE60CEA135594EAD2
:1009E0000C0F08BF95EA0C0F3FF43BAF94EA0C0FD5
:1009F0000AD150EA01347FF434AF95EA0C0F7FF44A
:100A000025AF104619462CE795EA0C0F06D152EA9D
:100A100003353FF4FDAE1046194622E750EA410681
:100A200018BF52EA43067FF4C5AE50EA41047FF492
:100A30000DAF52EA43057FF4EBAE12E74FF0FF3CF7
:100A400006E000BF4FF0010C02E000BF4FF0010CC8
:100A50004DF804CD4FEA410C7FEA6C5C4FEA430C41
:100A600018BF7FEA6C5C1BD001B050EA410C0CBF90
:100A700052EA430C91EA030F02BF90EA020F0020F2
:100A8000704710F1000F91EA030F58BF994208BF59
:100A900090422CBFD8176FEAE37040F00100704716
:100AA0004FEA410C7FEA6C5C02D150EA013C07D16D
:100AB0004FEA430C7FEA6C5CD6D152EA033CD3D0B8
:100AC0005DF8040B704700BF8446104662468C46B2
:100AD0001946634600E000BF01B5FFF7B7FF0028E5
:100AE00048BF10F1000F01BD4DF808EDFFF7F4FF0E
:100AF0000CBF012000205DF808FB00BF4DF808ED99
:100B0000FFF7EAFF34BF012000205DF808FB00BFBB
:100B10004DF808EDFFF7E0FF94BF012000205DF8DD
:100B200008FB00BF4DF808EDFFF7CEFF94BF012092
:100B300000205DF808FB00BF4DF808EDFFF7C4FF8B
:100B400034BF012000205DF808FB00BF4FEA410CD4
:100B50007FEA6C5C02D150EA013C0AD14FEA430CB7
:100B60007FEA6C5C02D152EA033C02D14FF00000F4
:100B700070474FF0010070474FEA410212F5001232
:100B800015D211D56FF47873B3EB625212D94FEAD4
:100B9000C12343F0004343EA505311F0004F23FABE
:100BA00002F018BF404270474FF00000704750EA13
:100BB000013005D111F0004008BF6FF000407047D0
:100BC0004FF00000704700BF4FEA4102B2F1E0432E
:100BD00024BFB3F5001CDCF1FE5C0DD901F0004C24
:100BE0004FEAC0024CEA5070B2F1004F40EB830074
:100BF00008BF20F00100704711F0804F21D113F1A0
:100C00003872BCBF01F00040704741F480114FEAD8
:100C10005252C2F11802C2F1200C10FA0CF320FA61
:100C200002F018BF40F001004FEAC1234FEAD3237E
:100C300003FA0CFC40EA0C0023FA02F34FEA4303E8
:100C4000CCE77FEA625307D150EA01331EBF4FF071
:100C5000FE4040F44000704701F0004040F0FE408C
:100C600040F40000704700BF80F0004002E000BF89
:100C700081F0004142001FBF5FEA410392EA030F87
:100C80007FEA226C7FEA236C6AD04FEA1262D2EBD1
:100C90001363C1BFD218414048404140B8BF5B42D6
:100CA000192B88BF704710F0004F40F4000020F06F
:100CB0007F4018BF404211F0004F41F4000121F085
:100CC0007F4118BF494292EA030F3FD0A2F10102CF
:100CD00041FA03FC10EB0C00C3F1200301FA03F10D
:100CE00000F0004302D5494260EB4000B0F5000F30
:100CF00013D3B0F1807F06D340084FEA310102F1EF
:100D00000102FE2A51D2B1F1004F40EBC25008BFA0
:100D100020F0010040EA03007047490040EB00006A
:100D2000013A28BFB0F5000FEDD2B0FA80FCACF16B
:100D3000080CB2EB0C0200FA0CF0AABF00EBC25098
:100D400052421843BCBFD0401843704792F0000F86
:100D500081F4000106BF80F400000132013BB5E7D9
:100D60004FEA41037FEA226C18BF7FEA236C21D04F
:100D700092EA030F04D092F0000F08BF08467047B4
:100D800090EA010F1CBF0020704712F07F4F04D182
:100D9000400028BF40F00040704712F100723CBF95
:100DA00000F50000704700F0004343F0FE4040F4BF
:100DB000000070477FEA226216BF08467FEA23637D
:100DC0000146420206BF5FEA412390EA010F40F468
:100DD000800070474FF0000304E000BF10F00043B4
:100DE00048BF40425FEA000C08BF704743F096439B
:100DF00001464FF000001CE050EA010208BF7047B6
:100E00004FF000030AE000BF50EA010208BF70473C
:100E100011F0004302D5404261EB41015FEA010C51
:100E200002BF84460146002043F0B64308BFA3F149
:100E30008053A3F50003BCFA8CF2083AA3EBC2532B
:100E400010DB01FA02FC634400FA02FCC2F120024A
:100E5000BCF1004F20FA02F243EB020008BF20F081
:100E60000100704702F1200201FA02FCC2F12002E7
:100E700050EA4C0021FA02F243EB020008BF20EADC
:100E8000DC70704753B94AB9002908BF00281CBF5D
:100E90004FF0FF314FF0FF3000F088B9ADF1080C92
:100EA0006DE904CE00F006F8DDF804E0DDE9022388
:100EB00004B070472DE9F047089D0F4604468C4664
:100EC000002B48D18A42164661D9B2FA82F34BB15F
:100ED000C3F1200201FA03FC20FA02F29E4042EA2A
:100EE0000C0C9C404FEA164EB7B2BCFBFEF1220C34
:100EF0000EFB11CC42EA0C4201FB07F0904209D9EB
:100F0000B21801F1FF3C80F0EE80904240F2EB809D
:100F100002393244121AA4B2B2FBFEF00EFB1022C8
:100F200044EA024400FB07F7A74209D9341900F14B
:100F3000FF3280F0DA80A74240F2D7803444023892
:100F400040EA0140E41B00211DB1DC400023C5E95B
:100F50000043BDE8F0878B4206D90DB1C5E9000119
:100F600000210846BDE8F087B3FA83F1002948D193
:100F7000BB4202D3824200F20781841A67EB03026C
:100F800001209446002DE4D0C5E9004CE1E7002A99
:100F900000F09280B2FA82F3002B40F0A8808A1A07
:100FA0004FEA164E1FFA86FC0121200CB2FBFEF719
:100FB0000EFB172240EA02420CFB07F0904207D9D1
:100FC000B21807F1FF3802D2904200F2E2804746A1
:100FD000121AA4B2B2FBFEF00EFB102244EA024445
:100FE0000CFB00FCA44507D9341900F1FF3202D2F2
:100FF000A44500F2CB801046A4EB0C0440EA074065
:10100000A2E7C1F120068B4022FA06FC4CEA030C51
:1010100007FA01F420FA06F3F7404FEA1C4923438C
:1010200000FA01F81FFA8CFEB7FBF9F01C0C09FB63
:10103000107744EA074400FB0EF7A74202FA01F2D8
:101040000AD91CEB040400F1FF3A80F09B80A74210
:1010500040F2988002386444E41B9FB2B4FBF9F379
:1010600009FB134447EA044403FB0EFEA64509D9D5
:101070001CEB040403F1FF3780F08280A6457FD982
:10108000023B644443EA0040A4EB0E04A0FB02E7E9
:10109000BC427346B94663D360D05DB1B8EB03027E
:1010A00064EB090404FA06F622FA01F31E43CC406D
:1010B000C5E9006400214CE76208480842EAC171B2
:1010C0000B0C43EA00438AB242EA0342B3FBF6F157
:1010D000E407B4463746B6461F23B0FBF6F0D21BF2
:1010E00041EA004161E7614614E7104628E7C3F191
:1010F000200120FA01F29E4027FA01F19F403A4375
:101100004FEA164E1FFA86FCB1FBFEF70EFB1710D6
:10111000110C41EA004107FB0CF8884504FA03F47E
:101120003AD9711807F1FF3001D288451FD8A1EBD9
:101130000801B1FBFEF808FB0CF70EFB181192B288
:1011400042EA0142BA422FD2B21808F1FF31C6D2A8
:10115000BA42C4D2A8F102013244C0E7F0459CD2A1
:10116000BEEB020367EB0C070138B94695E7A6EB27
:1011700008084144B81EB1FBFEF808FB0CF7DCE799
:101180003B467FE7504667E70846FBE634440238B3
:1011900032E7023F32441BE7A1EB08013846B1FBBE
:1011A000FEF808FB0CF7C8E7414698E7704700BF18
:1011B00080B485B000AFF860B9607A60FB68074A18
:1011C0001A60BB68064A1A607B6880221A6000BFFA
:1011D0001437BD465DF8047B704700BF2402002031
:1011E0007802002080B586B004AF78600B46FB70B3
:1011F0001346BB707B68002B03D07B681B68002BF9
:1012000001D1002313E07B681868FB789AB20323AE
:10121000029301230193BB1C00930123D02109F009
:1012200061F80346002B0CBF01230023DBB21846F4
:101230000837BD4680BD80B588B004AFF8607A60DD
:101240001A460B46FB7213463B81FB68002B09D004
:10125000FB681B68002B05D07B68002B02D03B8904
:10126000002B01D1002313E0FB681868FB7A9AB2C7
:10127000032302933B8901937B6800930123D021D0
:1012800009F02AF90346002B0CBF01230023DBB22F
:1012900018461037BD4680BD80B582B000AF78607B
:1012A0000B46FB70FB781B01DBB21A467F21786886
:1012B000FFF798FF034618460837BD4680BD80B546
:1012C00084B000AF786039603B68002B0CD007F128
:1012D0000C02022337217868FFF7ADFF034683F045
:1012E0000103DBB2002B01D000230AE03B7B1BB2E1
:1012F0001B021AB27B7B1BB213431AB23B681A80E3
:10130000012318461037BD4680BD80B584B000AFBC
:10131000786039600023FB737B68002B02D03B6848
:10132000002B01D100238FE07B683A681A607B684C
:101330004FF000025A6000217868FFF7ADFF0346C6
:1013400083F00103DBB2002B0AD1802206217868EA
:10135000FFF748FF034683F00103DBB2002B01D007
:10136000002371E064200DF096F800217868FFF703
:1013700093FF034683F00103DBB2002B0FD107F18B
:101380000F02012300217868FFF755FF034683F021
:101390000103DBB2002B02D1FB7BEA2B01D000233F
:1013A00052E0012206217868FFF71CFF034683F014
:1013B0000103DBB2002B15D1002207217868FFF76B
:1013C00011FF034683F00103DBB2002B0AD1002298
:1013D00005217868FFF706FF034683F00103DBB2BF
:1013E000002B01D000232FE002217868FFF754FF83
:1013F000034683F00103DBB2002B1FD11122002131
:101400007868FFF7EFFE034683F00103DBB2002BA1
:1014100014D12F2201217868FFF7E4FE034683F000
:101420000103DBB2002B09D100217868FFF734FFFC
:10143000034683F00103DBB2002B01D0002303E05D
:1014400014200DF028F8012318461037BD4680BD42
:1014500080B582B000AF786039607B68002B02D025
:101460003B68002B01D1002312E0386808F00AFF26
:1014700005200DF010F8386808F0C0FD0346002B79
:1014800001D0002304E039687868FFF73EFF034687
:1014900018460837BD4680BD2DE9B04388B000AF7F
:1014A000F8600B467A607B814FF000024FF000033A
:1014B000C7E90623FB68002B02D07B89002B01D1F2
:1014C000002339E00023FB8221E078680CF0E3FF81
:1014D00007F114031946F868FFF7F1FE034683F09D
:1014E0000103DBB2002B01D0002325E0B7F9143053
:1014F0001BB2DA171C461546D7E9062312EB04087F
:1015000043EB0509C7E90689FB8A0133FB82FA8AA6
:101510007B899A42D9D3D7E90601FFF775FC06EE1D
:10152000900A7B8907EE903AB8EE677AC6EE877A22
:10153000FB68C3ED017A012318462037BD46BDE89C
:10154000B083000080B586B000AFF86087ED020A76
:1015500079607B68002B0BD007F116031946F868F9
:10156000FFF7ADFE034683F00103DBB2002B01D091
:10157000002316E0B7F9163007EE903AB8EEE77A96
:10158000FB68D3ED017A77EE677ADFED086A87EEC4
:10159000A67AD7ED027A67EE277A7B68C3ED007AE8
:1015A000012318461837BD4680BD00BF3333834141
:1015B00080B400AF074B1B78DAB2074B1B78DBB265
:1015C0009A420CBF01230023DBB21846BD465DF8EA
:1015D000047B7047040B0020050B002080B485B00D
:1015E00000AF3B4683E80300124B1B78DBB20133AC
:1015F000DBB203F01F03FB730F4B1B78DBB2FA7BEC
:101600009A4201D100230EE00A4B1B78DBB20B4A51
:10161000DB0013443A4692E8030083E80300054ADE
:10162000FB7B1370012318461437BD465DF8047B1D
:10163000704700BF050B0020040B0020040A0020A7
:1016400090B583B000AF7860FFF7B2FF0346002B80
:1016500001D0002316E00D4B1B78DBB279680C4AF1
:101660000C46DB00134493E8030084E80300074BB7
:101670001B78DBB20133DBB203F01F03DAB2034B9A
:101680001A70012318460C37BD4690BD040B00208C
:10169000040A002080B400AF72B600BF0021064BE0
:1016A0000A461A70054B0A461A7062B600BF00BFA0
:1016B000BD465DF8047B7047050B0020040B00203D
:1016C00080B483B000AF78607B681B68054A9342A2
:1016D00002D1054B00221A7000BF0C37BD465DF8E1
:1016E000047B704700480040060B002080B500AF27
:1016F000084B1B78DBB2002B0AD1064B01221A7073
:101700000322054905480BF09EFEFFF7C3FF00E0EA
:1017100000BF80BD060B0020083601086C070020C2
:1017200080B485B000AF78600E4B5B68FB600E4BF9
:101730001B680E4AA2FB03239A0C7B6802FB03F38F
:10174000BB6000E000BF074B5A68FB68D31ABA6859
:101750009A42F7D800BF00BF1437BD465DF8047B3E
:10176000704700BF001000E02C00002083DE1B4308
:1017700080B400AF084BDB68074A43F08073D36046
:10178000064B1B68054A43F00103136000BFBD46CA
:101790005DF8047B704700BFF0ED00E0001000E052
:1017A00080B500AF06F01AFA0A4B1B6841F61F42DB
:1017B000DA63084B1B6841F61F421A64064B1B682C
:1017C00041F61F425A63044B1B6841F61F429A635D
:1017D00000BF80BD040600209406002080B483B0C2
:1017E00000AF7860074B1B687A68DA63054B1B68AB
:1017F00041F61F421A6400BF0C37BD465DF8047BFA
:10180000704700BF0406002080B483B000AF78604A
:10181000074B1B687A685A63054B1B6841F61F42E9
:101820009A6300BF0C37BD465DF8047B704700BF6C
:101830009406002080B400AF064B1B680022DA63D8
:10184000044B1B6800221A6400BFBD465DF8047B90
:10185000704700BF0406002080B400AF064B1B6831
:1018600000225A63044B1B6800229A6300BFBD46E6
:101870005DF8047B704700BF9406002080B483B0FD
:1018800000AF7860074B1B6841F61F42DA63054BD7
:101890001B687A681A6400BF0C37BD465DF8047B8C
:1018A000704700BF0406002080B483B000AF7860AA
:1018B000074B1B6841F61F425A63054B1B687A6849
:1018C0009A6300BF0C37BD465DF8047B704700BFCC
:1018D0009406002080B400AF044B1A88044B1B68A8
:1018E0009A6300BFBD465DF8047B7047240000206A
:1018F000DC06002080B400AF044B1B68F0229A6322
:1019000000BFBD465DF8047B704700BFDC060020C9
:1019100080B400AF044B1B68F0229A6300BFBD4641
:101920005DF8047B704700BFDC06002080B400AF88
:10193000044B1B686E229A6300BFBD465DF8047BB2
:10194000704700BFDC06002080B400AF044B1B686A
:101950006E229A6300BFBD465DF8047B704700BFEE
:10196000DC06002080B400AF064BA4221A80054B91
:101970001A88054B1B689A6300BFBD465DF8047B5F
:10198000704700BF24000020DC06002080B400AFB8
:10199000064B97221A80054B1A88054B1B689A63E1
:1019A00000BFBD465DF8047B704700BF24000020E7
:1019B000DC06002080B500AF104B00221A70FFF744
:1019C00099FF4FF416700CF066FDFFF7DFFF4FF440
:1019D000FA700CF060FD0A4B1B881A46094B1A601E
:1019E000074B1B881A46084B1A60084B4FF0000241
:1019F0001A60024B01221A7000BF80BD400B00200C
:101A0000240000201800002014000020440B0020B7
:101A100080B483B000AF78607B68002B01DA0023CC
:101A200007E07B68B3F5E15F02DB41F61F4300E0AE
:101A30007B6818460C37BD465DF8047B704780B460
:101A400083B000AF78607B68042B08D07B68052BDF
:101A500005D07B68062B02D07B68072B01D10123C0
:101A600000E0002303F00103DBB218460C37BD464B
:101A70005DF8047B704780B483B000AF78607B680A
:101A8000062B02D07B68072B01D1012300E0002345
:101A900003F00103DBB218460C37BD465DF8047B4A
:101AA000704780B483B000AF78607B68042B02D0AD
:101AB0007B68062B01D1012300E0002303F0010322
:101AC000DBB218460C37BD465DF8047B704700005A
:101AD00080B483B000AF78607B68052B02D07B6850
:101AE000062B02D14FF07E5300E0054B07EE903AF3
:101AF000B0EE670A0C37BD465DF8047B704700BF47
:101B0000000080BF80B582B000AF78607B68042B96
:101B100002D1FFF7EFFE10E07B68052B02D1FFF743
:101B200005FF0AE07B68062B02D1FFF7F1FE04E017
:101B30007B68072B01D1FFF707FF00BF0837BD46C1
:101B400080BD80B582B000AF78607868FFF7A9FFEC
:101B50000346002B02D0FFF719FF01E0FFF702FF59
:101B600000BF0837BD4680BD80B500AF1E4B4FF0AB
:101B700000021A6006F00EFE03461C4A13601C4B5E
:101B800000221A601B4BD3ED007A9FED1B7A67EEA3
:101B9000877AFCEEE77A17EE902A144B1B68134401
:101BA00003F2DC53154A1360154B01221A70154BD2
:101BB00093ED007A144BD3ED007A77EE677A134BEE
:101BC000C3ED007A124B4FF000021A60114B41F640
:101BD0001F421A60104B41F61F421A600F4B012240
:101BE0001A7000BF80BD00BF480B00204C0B0020C6
:101BF000500B0020000000200000A042540B0020E9
:101C0000580B0020100B0020180B0020380B002070
:101C10003C0B00200400002008000020340B0020B2
:101C200080B400AF114B4FF000021A60104B00223D
:101C30001A60104B00221A600F4B00221A600F4BE3
:101C400000221A700E4B4FF000021A600D4B41F645
:101C50001F421A600C4B41F61F421A600B4B0022C8
:101C60001A7000BFBD465DF8047B7047480B00202A
:101C70004C0B0020500B0020540B0020580B002070
:101C80003C0B00200400002008000020340B002042
:101C900080B584B000AF87ED010AD7ED017AB6EECA
:101CA000007A77EE877AFDEEE77A17EE903AC3F581
:101CB000E0531F33FB60F868FFF7AAFE034618469F
:101CC0001037BD4680BD000080B586B000AFF8601B
:101CD000B9607A60F868FFF7E4FE0346002B04D091
:101CE000BB687B617B683B6103E07B687B61BB68B1
:101CF0003B617869FFF78CFE78613869FFF788FEF1
:101D000038610E4A7B6913600D4A3B691360F868BD
:101D1000FFF7B1FE0346002B06D07869FFF7AEFD52
:101D20003869FFF7C1FD05E07869FFF757FD3869AD
:101D3000FFF76AFD00BF1837BD4680BD04000020D4
:101D40000800002080B584B000AF7860FFF728FD60
:101D50007868FFF7F6FEFFF763FF2A4B1B682A4AF5
:101D600013602A4B1B78DBB2002B3DD0284B1B683D
:101D70005B6A9AB2274B1A80274B1B685B6A9AB240
:101D8000264B1A80214B1B78DBB207EE903AF8EE17
:101D9000E77A9FED237A67EE877AB6EE007A77EEE0
:101DA000877AFDEEE77A17EE903AFB601D4B002232
:101DB0001A701D4B01221A707868FFF75CFE03460B
:101DC000002B07D0FB685B42184A1360184B0222B5
:101DD0001A7005E0154AFB681360154B01221A7052
:101DE0000A4B00221A7009E0114B00221A7006F00B
:101DF000D1FC034603F5FA730E4A136000BF103797
:101E0000BD4680BD180B00201C0B0020600B00207D
:101E100074050020080B0020BC0500200A0B0020E0
:101E2000896D93427A0B00208C0B00200C0B002054
:101E3000F6070020000A002080B584B000AF78606B
:101E40007868FEF725FAB860BB685F2B21D80023BD
:101E5000FB600BE07A68FB68134419780F4AFB6853
:101E600013440A461A70FB680133FB60FA68BB68CA
:101E70009A42EFD907220A4978680EF045FB0346DB
:101E8000002B02D1074B01221A70074B01221A7056
:101E900000E000BF1037BD4680BD00BFD00B002062
:101EA00018310108CC0B0020CD0B002080B582B08A
:101EB00000AF78607B68044A502104480EF0A2FA13
:101EC00000BF0837BD4680BD20310108480C002006
:101ED00080B500AF154B1B78002B24D0144B1B781A
:101EE000DBB2002B1FD1134A104B1046194650236A
:101EF0001A460EF00CFC0E4B01221A700D48FEF72C
:101F0000C7F903469BB21A460A490B480BF09BFAE5
:101F10000346002B03D1054B00221A7004E0044B4A
:101F200000221A7000E000BF80BD00BF480C0020F6
:101F3000060B0020980C00206C07002080B500AF35
:101F40000A4B1B68002B02DDFFF720FD08E0074B62
:101F50001B68002B02DAFFF705FD01E0FFF7BAFC72
:101F6000024B00221A6000BF80BD00BF340C00206D
:101F700080B582B000AFEFF310833B603B687B60BD
:101F800072B600BF164B00221A70164B00221A7050
:101F90007B68002B01D162B600BF134B1B78002B6E
:101FA00001D0FFF7CBFF104804F08AFF0F4B00224F
:101FB0001A700F4B00221A600E4B00221A600E4B53
:101FC00000221A600D4B00221A700D4B00221A706D
:101FD0000C4B01221A7000BF0837BD4680BD00BF00
:101FE000CD0B0020CC0B0020AC0B0020300C0020CF
:101FF000380C00203C0C0020400C0020440C002039
:10200000480C00208C0B002080B584B000AF7860B5
:1020100039602F4B1B78DBB2FB60FFF7C1FBF86820
:10202000FFF70DFD0346002B03D0F868FFF789FD8D
:1020300001E0FFF783FFFFF72DFBFFF7F1FD254BD5
:1020400000221A70244B00221A70244B00221A70AE
:10205000234B00221A60234B1B68234A1360234B37
:1020600000221A70224B00221A60224B00221A60B2
:10207000214B00221A60214B4FF000021A60204BC6
:1020800000221A601F4B4FF000021A601E4B012203
:102090001A703A6879681D4804F01FFF1C4B012232
:1020A0001A701C4B00221A701B4B00221A601B4B2B
:1020B00000221A601A4B00221A601A4B00221A7072
:1020C000034B08221A7000BF1037BD4680BD00BF09
:1020D000F60700207A0B00208D0B00208E0B0020CD
:1020E0000C0B0020180B00201C0B0020600B0020A4
:1020F0005C0B0020000A00207C0B0020800B0020DD
:10210000840B0020880B00208C0B0020AC0B0020DF
:10211000CC0B0020300C0020380C00203C0C0020A0
:10212000400C0020440C002080B590B000AF3B1D57
:1021300083E807007B68002B04D0FB68002B01DDDF
:10214000012200E00022914B1A70904B1B78DBB209
:10215000002B25D18E4B1B78002B06D0FFF720FBE0
:10216000FFF7ECFE8B4B01221A70894B00221A708C
:10217000894B00221A60894B00221A60884B41F675
:102180001F421A60874B41F61F421A60864B1B881C
:102190001A46864B1A60864B08221A700123F0E01B
:1021A000FB687E4A1360BB68002B2FD1784B1B78ED
:1021B000012B04D17A68784B1B689A4216D0FFF73E
:1021C000EFFAFFF7BBFE7B4B1B687B4A13607B4B30
:1021D00000221A707B68002B02DD6FF0004300E0E4
:1021E000774B784A13606B4B01221A70684B0122BF
:1021F0001A707B68684A13607B68002B01DD01223E
:1022000000E002226A4B1A700023BAE07B68DB0F01
:10221000DBB2BB63BB68002BCCBF01230023DBB266
:102220007B63BB68002BB8BF5B423B63BB6B002B7F
:1022300006D17B6B002B01D0042307E0052305E0CA
:102240007B6B002B01D0062300E00723FB62504B81
:102250001B78022B0FD17A684F4B1B689A420AD128
:10226000594B1B68002BCCBF01230023DBB21A465D
:102270007B6B934204D0FFF793FA464B01221A700E
:102280007B6B002B01D0F02300E06E23BB62464B3A
:102290001B881946444B1B881A46BB6A9B1A3A6B2B
:1022A00002FB03F3494A82FB03025211DB17D31AE4
:1022B0000B447B62464B1B687A6A9A63BB68424A4E
:1022C0001360FB6807EE903AB8EEE77ADFED416AFB
:1022D000C7EE267A9FED407A67EE877AC7ED0F7AD0
:1022E000D7ED0F7A9FED3D7AF4EEC77AF1EE10FA52
:1022F00001D53B4BFB63D7ED0F7A9FED377AF4EEB8
:10230000C77AF1EE10FA01DD364BFB63364B3B62C8
:10231000B7EE007AD7ED087A37EE677A3B6B07EEB7
:10232000903AF8EEE76A9FED2B6AC6EE867A67EE82
:10233000277AB7EE007A77EE677AC7ED077A97EDDE
:102340000F0AFFF7A5FCB86197ED0F7AD7ED077A72
:1023500067EE277AB0EE670AFFF79AFC7861234AA6
:10236000FB6B13607A69B969F86AFFF7ADFC084B3B
:1023700002221A707B68084A13600D4B08221A70FB
:10238000012318464037BD4680BD00BF300C0020F9
:10239000440C00208C0B0020400C00203C0C002042
:1023A0000C00002010000020240000201400002059
:1023B000F6070020180B00201C0B00207A0B0020D1
:1023C000010000800C0B0020340C00201F85EB5115
:1023D000DC0600200000C842008022450080A244A4
:1023E0000080A244008022453D0AD73E3C0B0020DD
:1023F00080B5C2B002AF002387F8FF3006F0CAF9FB
:10240000C7F8F400EFF31083C7F8D830D7F8D83006
:10241000C7F8F03072B600BF8F4B1B78DBB2002BD1
:102420001FD00023C7F8F83011E08C4AD7F8F830F5
:1024300013441B78D9B207F17402D7F8F83013446B
:102440000A461A70D7F8F8300133C7F8F830D7F8D1
:10245000F8305F2BE9D9804B00221A70012387F8EE
:10246000FF30D7F8F030002B01D162B600BFD7F8AB
:10247000F4107B4804F04AFD0346002B0CD0784B47
:102480005B6807F12400774A50210DF0BBFF07F18C
:1024900024031846FFF70AFD97F8FF30002B4CD0B5
:1024A0003A4607F174031146184604F03DFC034612
:1024B000002B42D007F58073A3F580731B78002BA7
:1024C0001AD107F58073A3F580735B68D7F8F41011
:1024D0001846FFF799FD07F58073A3F580735B68D5
:1024E00007F12400604A50210DF08CFF07F124030E
:1024F0001846FFF7DBFC20E03B46D7F8F4201946EE
:10250000574804F02FFD0346002B16D007F58073C3
:10251000A3F580735A6807F58073A3F580739B68F1
:1025200007F1240000931346504A50210DF06AFF32
:1025300007F124031846FFF7B9FC494B1B7883F0D9
:102540000103DBB2002B1BD0EFF31083C7F8D430AC
:10255000D7F8D430C7F8DC3072B600BF3E4B1B78DA
:10256000DBB2002B02D1424B00221A70D7F8DC30CC
:10257000002B01D162B600BFFFF7AAFC002365E083
:1025800007F11803D7F8F4203549184604F070FD18
:10259000FB69002BCCBF01230023DBB21A46FB6989
:1025A000DB0FDBB2D31AC7F8EC30BB69002B0AD0C3
:1025B000BB69002B01DD012200E00422D7F8EC30DA
:1025C0000133134400E00023C7F8E830D7F8E830BF
:1025D000002B2BD0274B1B68D7F8E8209A4225D038
:1025E000BB69002B0DDDD7F8EC30002B07DBD7F8EB
:1025F000EC30002B01DD204B10E0204B0EE0204B97
:102600000CE0D7F8EC30002B07DBD7F8EC30002BD0
:1026100001DD1C4B02E01C4B00E01C4BC7F8E43012
:102620003B6A1946D7F8E40005F056FA114AD7F884
:10263000E830136007F1180393E80700FFF774FD13
:10264000C7F8E000FFF744FCD7F8E030184607F57C
:102650008077BD4680BD00BFCD0B0020D00B002091
:10266000AC0B0020243101083C3101084C31010839
:10267000CC0B0020380C00205C31010864310108CB
:102680006C310108743101087C3101088431010882
:1026900080B400AF184B1B78DBB2082B26D801A200
:1026A00052F823F0C9260008CD260008D1260008DC
:1026B000D5260008D9260008DD260008E1260008F6
:1026C000E5260008E92600080C4B10E00C4B0EE054
:1026D0000C4B0CE00C4B0AE00C4B08E00C4B06E0FA
:1026E0000C4B04E00C4B02E00C4B00E00C4B18468A
:1026F000BD465DF8047B7047F60700208C31010869
:10270000943101089C310108A4310108AC31010861
:10271000B8310108C4310108CC310108D4310108B5
:10272000DC31010880B58CB000AF78607B68FB625B
:1027300009E0FB6A1B782C2B02D1FB6A20221A705D
:10274000FB6A0133FB62FB6A1B78002BF1D18F49D6
:1027500078680DF0FFFEB86205E18D49B86AFDF7B3
:1027600037FD0346002B03D18A4B01221A70FEE08D
:1027700000233B750023BB618749B86AFDF728FD3C
:102780000346002B04D10B233B750023BB61D1E032
:102790008249B86AFDF71CFD0346002B04D10C23C7
:1027A0003B750023BB61C5E07D49B86AFDF710FDAC
:1027B0000346002B04D10D233B750023BB61B9E018
:1027C0007849B86AFDF704FD0346002B04D10E23B7
:1027D0003B750023BB61ADE07349B86AFDF7F8FCB7
:1027E0000346002B04D107233B750023BB61A1E006
:1027F0006E49B86AFDF7ECFC0346002B04D10823B0
:102800003B750023BB6195E0BB6A1B78662B0ED13C
:10281000BB6A01331B78782B09D110233B75BB6A47
:10282000023318460DF046F80346BB6182E0BB6AEE
:102830001B78662B0ED1BB6A01331B78752B09D12F
:102840000F233B75BB6A023318460DF033F803467D
:10285000BB616FE0BB6A1B78662B0ED1BB6A01338C
:102860001B78722B09D103233B75BB6A02331846D0
:102870000DF020F80346BB615CE0BB6A1B78662B59
:102880000ED1BB6A01331B786C2B09D104233B7535
:10289000BB6A023318460DF00DF80346BB6149E0F0
:1028A000BB6A1B78722B0ED1BB6A01331B78722B6B
:1028B00009D105233B75BB6A023318460CF0FAFFB9
:1028C0000346BB6136E0BB6A1B78722B0ED1BB6A34
:1028D00001331B786C2B09D106233B75BB6A02338D
:1028E00018460CF0E7FF0346BB6123E0BB6A1B7888
:1028F000662B09D101233B75BB6A013318460CF0E6
:10290000D9FF0346BB6115E0BB6A1B78722B09D166
:1029100002233B75BB6A013318460CF0CBFF03461C
:10292000BB6107E0BB6A1B78732B03D109233B759E
:102930000023BB613B7D002B10D007F1140393E80B
:102940000300FEF74BFE78627B6A002B06D1184A23
:1029500007F1080307CA83E8070008E00B490020D5
:102960000DF0F8FDB862BB6A002B7FF4F6AE0A23C7
:102970003B7700233B6207F11C0393E80300FEF75B
:102980002DFE00BF3037BD4680BD00BFE0310108DD
:10299000E4310108F4070020E8310108EC310108B6
:1029A000F0310108F8310108003201080432010851
:1029B0000832010880B483B000AF0346FB71FB7995
:1029C000013B0F2B40D801A252F823F00D2A00083A
:1029D000112A0008152A0008192A00081D2A0008D3
:1029E000212A0008252A0008292A00082D2A000883
:1029F000492A0008312A0008352A0008392A000827
:102A00003D2A0008412A0008452A0008124B1CE014
:102A1000124B1AE0124B18E0124B16E0124B14E066
:102A2000124B12E0124B10E0124B0EE0124B0CE076
:102A3000124B0AE0124B08E0124B06E0124B04E086
:102A4000124B02E0124B00E0002318460C37BD4643
:102A50005DF8047B704700BF143201081C32010886
:102A6000243201082C320108C4310108CC3101089C
:102A7000343201083C320108A43101084432010813
:102A8000483201084C320108543201085C32010816
:102A90006032010880B588B000AF924B1B78DBB282
:102AA000002B04D0904B1B78DBB2002B01D100230C
:102AB00052E33B1D1846FEF7C3FD0346002B01D130
:102AC000002349E33B791846FFF774FFF861FB697F
:102AD000002B04D0BB681946F86904F0FDFF3B7970
:102AE000013B0F2B00F2368301A252F823F000BF06
:102AF0002D2D0008BF2D00082D2E00088D2E00085A
:102B0000ED2E00084D2F000811300008B3300008EA
:102B1000AD2F0008C32F0008452C0008952C000895
:102B2000A52B0008F52B0008312B0008312B0008DD
:102B30006E4B1B685B6A9AB26D4B1A806D4B1B68BB
:102B40005B6A9AB26C4B1A806C4B1B686C4A1360C0
:102B5000FEF7C0FE6B4B00221A606B4B4FF0000279
:102B60001A606A4B6FF000421A60BB68002B02DDEE
:102B7000BB689BB200E01A23654A13803B790F2B98
:102B80000CBF01230023DBB21A46624B1A70624B62
:102B900007221A70614B01221A70614B01221A70D0
:102BA0000123D9E2514B1B685B6A9AB2504B1A80E1
:102BB000504B1B685B6A9AB24F4B1A804F4B1B6895
:102BC0004F4A1360FEF786FE4E4B00221A604E4BB2
:102BD0004FF000021A604D4B6FF000421A604E4BEE
:102BE00005221A704D4B01221A704D4B01221A70AA
:102BF0000123B1E23D4B1B685B6A9AB23C4B1A80E1
:102C00003C4B1B685B6A9AB23B4B1A803B4B1B6880
:102C10003B4A1360FEF75EFE3A4B00221A603A4BC5
:102C20004FF000021A60394B6FF000421A603A4BC5
:102C300006221A70394B01221A70394B01221A7080
:102C4000012389E2294B1B685B6A9AB2284B1A80E0
:102C5000284B1B685B6A9AB2274B1A80274B1B686C
:102C6000274A1360FEF736FE2E4B00221A602E4BC9
:102C70004FF000021A60254B6FF000421A60264B9D
:102C800002221A70254B01221A70254B01221A705C
:102C9000012361E2154B1B685B6A9AB2144B1A80E0
:102CA000144B1B685B6A9AB2134B1A80134B1B6858
:102CB000134A1360FEF70EFE1A4B00221A601A4BDD
:102CC0004FF000021A60114B6FF000421A60124B75
:102CD00003221A70114B01221A70114B01221A7033
:102CE000012339E2400B00202C0B0020740500204A
:102CF000080B0020BC0500200A0B0020180B002048
:102D00001C0B00207C0B0020800B00200C0B0020F3
:102D100020000020220000207A0B0020F60700206F
:102D20008C0B0020840B0020880B0020BB683B61CB
:102D3000A64B1B685B6A9AB2A54B1A80A54B1B6811
:102D40005B6A9AB2A44B1A80A44B1B68A44A136016
:102D5000FEF7C0FD3B69002B1BDD3B6907EE903A97
:102D6000F8EEE77A9FED9F7A67EE877AB6EE007A03
:102D700077EE877AFDEEE77A17EE903AFB609A4A93
:102D8000FB681360994B00221A70994B01221A704C
:102D900010E0964B01221A70934B6FF000421A60BC
:102DA000944B00221A60944B4FF000021A60904B33
:102DB00001221A70914B01221A700123CCE1BB68E9
:102DC000002B01DDBB6800E03223BB617F4B1B6839
:102DD0005B6A9AB27E4B1A807E4B1B685B6A9AB222
:102DE0007D4B1A80BB6907EE903AF8EEE77A9FEDCB
:102DF0007D7A67EE877AB6EE007A77EE877AFDEE17
:102E0000E77A17EE903A5B427B61774A7B69136001
:102E1000724B1B68724A1360FEF75CFD744B022212
:102E20001A70764B01221A70012395E1BB68002BC2
:102E300005DBBB6807EE903AF8EEE77A06E0BB6880
:102E400007EE903AF8EEE77AF1EE677A6C4BC3ED55
:102E5000007A624B93ED007A694BD3ED007A77EEFE
:102E6000677A684BC3ED007AFEF744FD05F092FCEB
:102E700003466433644A1360644B00221A705C4B4F
:102E800004221A70FEF770FE012365E1BB68002B77
:102E900005DBBB6807EE903AF8EEE77A06E0BB6820
:102EA00007EE903AF8EEE77AF1EE677A544BC3ED0D
:102EB000007A4A4B93ED007A514BD3ED007A77EECE
:102EC000277A504BC3ED007AFEF730FD05F062FC27
:102ED000034664334C4A13604C4B00221A70444B37
:102EE00005221A70FEF740FE012335E1BB68002B76
:102EF00005DBBB6807EE903AF8EEE77A06E0BB68C0
:102F000007EE903AF8EEE77AF1EE677A3C4BC3EDC4
:102F1000007A324B93ED007A394BD3ED007A77EE9D
:102F2000277A384BC3ED007AFEF7F2FC05F032FC4D
:102F300003463233344A1360344B01221A702C4B4F
:102F400006221A70FEF710FE012305E1BB68002B74
:102F500005DBBB6807EE903AF8EEE77A06E0BB685F
:102F600007EE903AF8EEE77AF1EE677A244BC3ED7C
:102F7000007A1A4B93ED007A214BD3ED007A77EE6D
:102F8000677A204BC3ED007AFEF7DEFC05F002FC09
:102F9000034632331C4A13601C4B00221A70144B38
:102FA00007221A70FEF7E0FD0123D5E0FEF7F8FBDB
:102FB000FEF736FEFEF78EFC0D4B03221A7001233E
:102FC000CAE0FEF793FB0123C6E000BF74050020B2
:102FD000080B0020BC0500200A0B0020180B002065
:102FE0001C0B0020896D93420C0B00207A0B0020F3
:102FF000F60700207C0B0020800B00208C0B0020AB
:1030000000000020100B00205C0B0020600B002053
:10301000534B1B681846FDF7A7FA02460B46514969
:10302000C1E900234E4B1B681846FDF79DFA4FF08F
:1030300000024D4BFDF73AF902460B464B49C1E9F8
:103040000023474B1B681846FDF78EFA4FF000022D
:10305000454BFDF729F902460B4610461946FDF788
:10306000B3FD03463E4A1360414B01221A70414BA7
:1030700001221A70404B1B78DBB2012B17D03F4B5B
:103080001B685B6A9AB23E4B1A803E4B1B685B6AB8
:103090009AB23D4B1A80FEF71DFC3C4B6FF000428C
:1030A0001A603B4B00221A70334B01221A70012325
:1030B00052E02B4B1B681846FDF756FA02460B46AA
:1030C0002849C1E90023264B1B681846FDF74CFA36
:1030D0004FF00002244BFDF7E7F802460B46234968
:1030E000C1E900231E4B1B681846FDF73DFA4FF05F
:1030F00000021D4BFDF7DAF802460B461046194652
:10310000FDF762FD0346164A1360194B02221A703E
:10311000184B01221A70184B1B78DBB2012B17D009
:10312000164B1B685B6A9AB2154B1A80154B1B68CD
:103130005B6A9AB2144B1A80FEF7CCFB134B6FF00C
:1031400000421A60124B00221A700B4B01221A70B7
:10315000012301E000BF002318462037BD4680BD93
:10316000100B0020900B002000004940980B00201D
:103170008D0B00208E0B0020F60700207405002028
:10318000080B0020BC0500200A0B00200C0B0020BF
:103190007A0B002080B584B000AF87ED010AD7ED2F
:1031A000017A9FED1A7AF4EEC77AF1EE10FA01D5A2
:1031B000174B24E0DFED170A97ED010A0FF002FB31
:1031C000F0EE407A9FED147A67EE877AC7ED037AC6
:1031D000D7ED037A9FED117AF4EEC77AF1EE10FA8B
:1031E00001DD0B4B0BE0D7ED037AB2EE047AF4EE7F
:1031F000C77AF1EE10FA01D5094B00E0FB6807EE43
:10320000903AB0EE670A1037BD4680BDCDCCCC3DBC
:103210000000A042333393BF48E1DE410000A042EA
:1032200000002041B0B5B2B000AF7E4B5B6FC7F875
:10323000C43005F049FA00F02BF9FEF799FA00F0D6
:10324000F5FC00F0D3FC00F0B7FA00F00DFA00F046
:103250005FFA00F0A1FC00F0A5FB00F011FC00F00B
:10326000D5F900F02BFB00F071F900F06BFC05F0D4
:103270009DF96D4804F0F8FBD7F8C43003F0005313
:10328000002B03D0694804F073FC34E0D7F8C43055
:1032900003F08043002B03D0654804F069FC2AE06A
:1032A000D7F8C43003F08053002B03D0614804F0FA
:1032B0005FFC20E0D7F8C43003F00073002B03D08C
:1032C0005D4804F055FC16E0D7F8C43003F0806385
:1032D000002B03D0594804F04BFC0CE0D7F8C43065
:1032E00003F00063002B03D0554804F041FC02E0DA
:1032F000544804F03DFC4B4B5B6F4A4A43F08073EB
:1033000053670122504951480AF0D3F8022250492C
:10331000504805F0B3FA504B07F1A8041D460FCDF5
:103320000FC495E8070084E8070007F1A80300210F
:1033300018460BF064F80346484A1360484B07F1FF
:103340008C041D460FCD0FC495E8070084E80700E4
:1033500007F18C03002118460BF051F80346414A4F
:103360001360414B07F170041D460FCD0FC495E863
:10337000070084E8070007F17003002118460BF0EE
:103380003EF80346394A1360394B07F154041D4691
:103390000FCD0FC495E8070084E8070007F1540338
:1033A000002118460BF02BF80346324A1360324BCB
:1033B00007F138041D460FCD0FC495E8070084E8D7
:1033C000070007F13803002118460BF018F80346F0
:1033D0002A4A13602A4B07F11C041D460FCD0FC467
:1033E00095E8070084E8070007F11C030021184650
:1033F0000BF005F80346234A1360234B3C461D4659
:103400000FCD0FC495E8070084E807003B46002174
:1034100018460AF0F4FF03461C4A13600AF0E8FF5E
:1034200000BFFDE700380240240700206432010895
:10343000703201087C3201088C3201089C3201088C
:10344000A8320108B4320108F50700206C070020FB
:10345000640B002078040020CC320108B40700205F
:10346000F4320108B80700201C330108BC07002013
:1034700048330108C007002070330108C40700204A
:103480009C330108C8070020C0330108CC07002086
:1034900080B594B000AF07F1200330220021184618
:1034A0000DF02AF807F10C0300221A605A609A60A6
:1034B000DA601A610023BB60224B1B6C214A43F087
:1034C000805313641F4B1B6C03F08053BB60BB68BD
:1034D00000237B601C4B1B681B4A43F48043136032
:1034E000194B1B6803F480437B607B6802233B62BB
:1034F0000123FB6210233B630023BB6307F120031E
:10350000184607F0F7FD0346002B01D003F000FB3F
:103510000F23FB6000233B6100237B610023BB6121
:103520000023FB6107F10C030021184608F05AF84C
:103530000346002B01D003F0EBFA00BF5037BD4625
:1035400080BD00BF003802400070004080B584B0EC
:1035500000AF3B4600221A605A609A60DA60284B3E
:10356000284A1A60264B4FF440325A60244B0022FE
:103570009A60234B01221A61214B01221A76204BBB
:10358000002283F820201E4B0022DA621C4B1E4AC8
:103590009A621B4B0022DA60194B0222DA61184B47
:1035A000012283F83020164B00225A61144805F09E
:1035B00021F90346002B01D003F0AAFA0A233B604D
:1035C00001237B600723BB603B4619460C4805F08E
:1035D0007DFA0346002B01D003F09AFA0B233B60DF
:1035E00002237B603B461946054805F06FFA034607
:1035F000002B01D003F08CFA00BF1037BD4680BD10
:1036000078040020002001400100000F80B500AFC9
:10361000124B134A1A60114B124A5A600F4B002288
:103620009A600E4B0022DA600C4B4FF480421A6114
:103630000A4B00225A61094B00229A61074B002273
:10364000DA61064B00221A62044806F0D7FC0346F2
:10365000002B01D003F05CFA00BF80BD20050020E4
:1036600000580040A086010080B58CB000AF07F183
:103670000C032422002118460CF03EFF3B1D0022C3
:103680001A605A60214B4FF080421A601F4B002293
:103690005A601E4B00229A601C4B4FF6FF72DA6094
:1036A0001A4B00221A61194B00229A610323FB6016
:1036B00000233B6101237B610023BB610A23FB6183
:1036C00000233B6201237B620023BB620A23FB626F
:1036D00007F10C0319460D4808F054FC0346002B73
:1036E00001D003F015FA00237B600023BB603B1D73
:1036F0001946064809F03CFD0346002B01D003F0B3
:1037000007FA00BF3037BD4680BD00BF74050020FA
:1037100080B58CB000AF07F10C03242200211846BD
:103720000CF0EAFE3B1D00221A605A60204B214A31
:103730001A601F4B00225A601D4B00229A601C4BDE
:103740004FF6FF72DA601A4B00221A61184B002202
:103750009A610323FB6000233B6101237B6100230B
:10376000BB610A23FB6100233B6201237B620023D0
:10377000BB620A23FB6207F10C0319460C4808F0F0
:1037800001FC0346002B01D003F0C2F900237B604B
:103790000023BB603B1D1946054809F0E9FC0346C0
:1037A000002B01D003F0B4F900BF3037BD4680BD17
:1037B000BC0500200004004080B58EB000AF07F1CA
:1037C000280300221A605A609A60DA6007F1200329
:1037D00000221A605A603B1D00221A605A609A60EB
:1037E000DA601A615A619A61324B334A1A60314B7E
:1037F00000225A602F4B00229A602E4B41F61F4246
:10380000DA602C4B00221A612A4B00229A61294867
:1038100008F0C6F80346002B01D003F079F94FF405
:103820008053BB6207F128031946224808F02CFF99
:103830000346002B01D003F06BF91E4808F0FFF897
:103840000346002B01D003F063F900233B62002301
:103850007B6207F120031946164809F089FC0346EC
:10386000002B01D003F054F960237B600023BB6080
:103870000023FB6000237B613B1D082219460D4895
:1038800008F040FE0346002B01D003F041F93B1D38
:103890000C221946074808F035FE0346002B01D0DC
:1038A00003F036F9034803F063FE00BF3837BD4626
:1038B00080BD00BF040600200008004080B58AB02B
:1038C00000AF07F1180300221A605A609A60DA60AC
:1038D00007F1100300221A605A603B4600221A606A
:1038E0005A609A60DA602D4B2D4A1A602B4B0F22DA
:1038F0005A602A4B00229A60284B4FF6FF72DA601A
:10390000264B00221A61254B00225A61234B0022CC
:103910009A61224808F044F80346002B01D003F0D6
:10392000F7F84FF48053BB6107F1180319461B48A1
:1039300008F0AAFE0346002B01D003F0E9F817486F
:1039400008F09EF90346002B01D003F0E1F80023B4
:103950003B6100237B6107F1100319460F4809F012
:1039600007FC0346002B01D003F0D2F80A233B608A
:1039700001237B600023BB600023FB603B460422E5
:103980001946064808F022FD0346002B01D003F03B
:10399000BFF800BF2837BD4680BD00BF4C060020E1
:1039A0000004014080B58CB000AF07F12003002275
:1039B0001A605A609A60DA603B1D00221A605A60F1
:1039C0009A60DA601A615A619A612B4B2B4A1A602D
:1039D000294B00225A60284B00229A60264B41F660
:1039E0001F42DA60244B00221A61234B00229A61A5
:1039F000214807F0D5FF0346002B01D003F088F8DB
:103A00004FF480533B6207F1200319461A4808F02F
:103A10003BFE0346002B01D003F07AF8164808F06D
:103A20000EF80346002B01D003F072F860237B6090
:103A30000023BB600023FB6000237B613B1D002251
:103A400019460D4808F05EFD0346002B01D003F037
:103A50005FF83B1D04221946074808F053FD034652
:103A6000002B01D003F054F8034803F081FD00BFA0
:103A70003037BD4680BD00BF9406002000400140A5
:103A800080B58CB000AF07F1200300221A605A60A5
:103A90009A60DA603B1D00221A605A609A60DA6010
:103AA0001A615A619A61254B254A1A60234BA0225C
:103AB0005A60224B00229A60204B4FF47A72DA60EF
:103AC0001E4B00221A611D4B00229A611B4807F011
:103AD00067FF0346002B01D003F01AF84FF4805320
:103AE0003B6207F120031946144808F0CDFD034658
:103AF000002B01D003F00CF8104807F0A0FF03469C
:103B0000002B01D003F004F860237B600023BB602E
:103B10000023FB6000237B613B1D042219460748FC
:103B200008F0F0FC0346002B01D002F0F1FF03483F
:103B300003F01EFD00BF3037BD4680BDDC0600200F
:103B40000018004080B500AF114B124A1A60104BAC
:103B50004FF4E1325A600E4B00229A600C4B002267
:103B6000DA600B4B00221A61094B0C225A61084B98
:103B700000229A61064B0022DA61054809F088FBB1
:103B80000346002B01D002F0C3FF00BF80BD00BF81
:103B9000240700200044004080B500AF114B124ABA
:103BA0001A60104B4FF4E1325A600E4B00229A60BB
:103BB0000C4B0022DA600B4B00221A61094B0C22DD
:103BC0005A61084B00229A61064B0022DA610548CF
:103BD00009F05EFB0346002B01D002F099FF00BF05
:103BE00080BD00BF6C0700200048004080B582B057
:103BF00000AF00237B600C4B1B6B0B4A43F480032C
:103C00001363094B1B6B03F480037B607B6800220A
:103C10000521382005F0D5FA382005F0EEFA00BF6E
:103C20000837BD4680BD00BF0038024080B58AB06D
:103C300000AF07F1140300221A605A609A60DA603C
:103C40001A6100233B61484B1B6B474A43F010034A
:103C50001363454B1B6B03F010033B613B6900236F
:103C6000FB60414B1B6B404A43F0040313633E4B24
:103C70001B6B03F00403FB60FB680023BB603A4B43
:103C80001B6B394A43F001031363374B1B6B03F083
:103C90000103BB60BB6800237B60334B1B6B324A64
:103CA00043F002031363304B1B6B03F002037B6092
:103CB0007B6800233B602C4B1B6B2B4A43F00803B3
:103CC0001363294B1B6B03F008033B603B68002226
:103CD0004FF48071254806F05DF900224FF4F04161
:103CE000234806F057F900224021224806F052F9F5
:103CF0004FF480737B610123BB610023FB610023D0
:103D00003B6207F114031946184805F093FE4FF47F
:103D1000F0437B610123BB610023FB6100233B6215
:103D200007F114031946124805F084FE40237B6115
:103D30000123BB610023FB6100233B6207F11403F5
:103D400019460C4805F076FE01237B610023BB6118
:103D50000023FB6107F114031946044805F06AFECD
:103D600000BF2837BD4680BD003802400010024029
:103D7000000C02400008024080B500AF0022402144
:103D80000A4806F007F90220FDF7CAFC012240218B
:103D9000064806F0FFF80A20FDF7C2FC0022402189
:103DA000024806F0F7F800BF80BD00BF00080240DF
:103DB00080B487B000AFF860B9607A60FA68BB6819
:103DC000934238BF13467A68934238BF13467B61EB
:103DD000FA68BB68934228BF13467A68934228BFAB
:103DE00013463B61FA68BB681A447B681A447B69D6
:103DF000D21A3B69D31A18461C37BD465DF8047BBE
:103E00007047000080B584B000AF78607B681B68A5
:103E10004A4A934240F08D807B681B7F022B40F022
:103E20008880474B1B78DBB2002B17D17B681B685F
:103E300000225A627B681B681A6A7B681B6822F042
:103E4000A0021A627B681B681A6A7B681B6842F0D2
:103E500020021A623A4B01221A706BE00421786842
:103E600008F0DAFC03469AB2364B1A807B681B686E
:103E70001A6A7B681B6822F0A0021A627B681A68C3
:103E80007B681B68126A1A622D4B00221A702D4B38
:103E90001B889BB207EE903AF8EEE77A9FED2A7AFC
:103EA00067EE877AB6EE007A77EE877AFCEEE77AED
:103EB00017EE903ABB60254B1B781946244ABB6825
:103EC00042F82130214B1B78591C224BA3FB0123C4
:103ED0005A0813465B001344CA1AD2B21B4B1A701D
:103EE0001D4B1B78022B05D81B4B1B780133DAB214
:103EF000194B1A70BB68FB60174B1B78032B09D159
:103F0000134B1B68124A5168114A92681846FFF712
:103F10004FFFF860FB6807EE903AF8EE677A0F4BB8
:103F2000C3ED007A0E4AFB6813600E4B01221A7033
:103F300000E000BF1037BD4680BD00BF0004014057
:103F4000A00B0020A20B0020287E8C3CE80700205C
:103F5000DC070020ABAAAAAAE9070020D4070020AA
:103F6000D0070020D807002080B584B000AF78606B
:103F70007B681B68614A934240F0BC80604B1B78B1
:103F8000FB72FB7A0D2B02D0FB7A0A2B76D15D4BAC
:103F90001B881A465C4B002199545C4B1B78002B04
:103FA00065D1584B1B88002B61D00023FB8114E0A6
:103FB000FB89554AD35C402B0CD9FB89524AD35C10
:103FC0005A2B07D8FB89504AD25CFB892032D1B2E8
:103FD0004D4AD154FB890133FB814A4B1B88FA8936
:103FE0009A42E5D34A494848FCF7F2F80346002BC9
:103FF00003D1484B01221A7039E0434B1B786A2BDE
:1040000003D14148FDF718FF31E0434B1B78DBB289
:10401000002B2CD13F4B1B78DBB2002B27D1002388
:10402000BB8110E0BB89384AD35C3B2B04D0BB89F1
:10403000354AD35C2C2B03D1BB89334A2021D15480
:10404000BB890133BB812F4B1B88BA899A42E9D3C4
:104050002D48FEF767FB314B1B78DBB2002B06D1F6
:104060002C4B1B78DBB2002B01D1FEF713FD254B47
:1040700000221A80254B00221A7035E0234B1B7852
:10408000002B31D1FB7A1F2B02D9FB7A7E2B19D959
:10409000FB7A092B03D01D4B01221A7024E0194B27
:1040A0001B88FE2B0AD8174B1B885A1C91B2154A45
:1040B00011801946144AFB7A535415E0134B012220
:1040C0001A7011E00F4B1B88FE2B0AD80D4B1B8872
:1040D0005A1C91B20B4A118019460B4AFB7A535471
:1040E00002E00A4B01221A70012205490C4809F02E
:1040F000E0F900E000BF1037BD4680BD0048004039
:10410000F5070020F8080020F8070020FA08002032
:10411000E4310108F4070020CC0B0020F607002052
:104120006C07002080B485B000AF78607B681B68A6
:10413000354A934261D1354B1B889BB21A4640F6F3
:10414000E44302FB03F303F2FF72314BA3FB0213C0
:10415000D21A52081344DB0AFB812C4B5B889BB2BA
:104160001A4640F6E44302FB03F303F2FF72284BC6
:10417000A3FB0213D21A52081344DB0ABB81254B5E
:104180001B889BB29A00FB891344234AA2FB03239A
:104190009B089AB21F4B1A80204B1B889BB29A0037
:1041A000BB8913441C4AA2FB03239B089AB21B4BF6
:1041B0001A80164B1B889AB2194B1A80134B5B88D6
:1041C0009AB2184B1A80134B1B889BB240F21F32D5
:1041D00093428CBF01230023DBB21A46124B1A70A4
:1041E0000E4B1B889BB240F21F3293428CBF0123BF
:1041F0000023DBB21A460D4B1A7000BF1437BD46C0
:104200005DF8047B704700BF00200140640B002074
:1042100001011000760B0020CDCCCCCC780B002017
:10422000680B00206A0B0020740B0020750B002027
:1042300080B584B000AF78604123FB734FF4807188
:10424000044805F0C0FE4FF47A700AF024F900BF6C
:10425000F4E700BF0010024080B58EB002AF786076
:104260000121794805F07EFE034687F82F30774B11
:104270001B78012B11D197F82F30002B0DD1744BE7
:104280001B780133002B03F00103B8BF5B42DAB2A5
:104290006F4B1A7032200AF0FEF86C4A97F82F30F4
:1042A00013706C4B1B78DBB2002B19D16A4A0021CA
:1042B000002004F049F9694A1021002004F044F973
:1042C000674A2021002004F03FF9664A302100208F
:1042D00004F03AF903F0C0FF14200AF0DCF8B1E072
:1042E0005B4B1B78002B4DD15F4B1B681846FCF7CE
:1042F0003BF902460B4607F10C00CDE900235B4A6F
:1043000020210CF07FF807F10C031A460021002051
:1043100004F01AF9564BD3ED007AFDEEE77A07F177
:104320000C0017EE903A534A20210CF06BF807F17D
:104330000C031A461021002004F006F94E4B1A68AF
:104340004E4B1B6807F10C00009313464C4A20218A
:104350000CF058F807F10C031A462021002004F055
:10436000F3F8FEF795F9034607F10C00454A2021C2
:104370000CF048F807F10C031A463021002004F035
:10438000E3F85AE0324B1B78012B56D13E4B1B68A9
:1043900007F10C003D4A20210CF034F807F10C0322
:1043A0001A460021002004F0CFF8394B1B889BB23D
:1043B0001A46384B1B78DBB207F10C00009313460A
:1043C000354A20210CF01EF807F10C031A46102183
:1043D000002004F0B9F8314B1B889BB21A46304BD1
:1043E0001B78DBB207F10C00009313462D4A202105
:1043F0000CF008F807F10C031A462021002004F005
:10440000A3F8294BD3ED007ABDEEE77A274BD3ED25
:10441000007AFDEEE77A17EE903A07F10C00009370
:1044200017EE103A224A20210BF0ECFF07F10C03A3
:104430001A463021002004F087F803F00DFF142005
:104440000AF029F80CE700BF001002402600002007
:10445000E80C00202C0B0020DC330108F0330108AD
:104460000434010818340108180B00202C3401080A
:10447000100B00203C340108EC070020F00700205E
:104480004834010854340108D00700206034010882
:10449000760B0020740B002074340108780B002088
:1044A000750B002084340108A40B0020A80B002009
:1044B00094340108B0B5ADF5347D06AF07F52E7321
:1044C000A3F52D731860BF4B00221A70FDF7B2F9E7
:1044D000FDF7C2F90821BC4807F00AFB0C21BA48D5
:1044E00007F006FB0021B94807F002FB0421B7489A
:1044F00007F0FEFAFDF754F9322009F0CCFFB44B77
:104500001B68F0229A630421B14807F0F1FAFDF725
:1045100051FA02E0142009F0BEFFAE4B1B78DBB26B
:10452000002BF7D0FDF73CF9AB4802F0C9FCAB4BD0
:104530001B78DBB2002B00F09480EFF3108207F5BC
:104540002E73A3F5C6731A6007F52E73A3F5C67311
:104550001B68C7F8583272B600BF07F52E73A3F573
:1045600023739F4A184611464FF480731A460CF085
:10457000CEF89A4B00221A70D7F85832002B01D18E
:1045800062B600BF07F52E73A3F52373002283F8EC
:10459000FF200023C7F8B43248E007F52E73A3F5D7
:1045A0002372D7F8B43213441B78402B1CD907F57B
:1045B0002E73A3F52372D7F8B43213441B785A2B09
:1045C00012D807F52E73A3F52372D7F8B43213442B
:1045D0001B782033D9B207F52E73A3F52372D7F8D1
:1045E000B43213440A461A7007F52E73A3F52372EA
:1045F000D7F8B43213441B783B2B09D007F52E7340
:10460000A3F52372D7F8B43213441B782C2B08D1AE
:1046100007F52E73A3F52372D7F8B4321344202282
:104620001A70D7F8B4320133C7F8B43207F52E73D5
:10463000A3F52372D7F8B43213441B78002BACD106
:1046400007F12C031846FEF76DF8664B1B78DBB2BA
:10465000002B06D1644B1B78DBB2002B01D1FEF797
:1046600019FA604B1B78DBB2002B35D05D4B1B7801
:10467000DBB2032B30D004F08DF8C7F85402554B51
:104680001B78DBB2002B08D0584B1B68D7F854229C
:10469000D31A642B01D9012300E0002387F8533299
:1046A00097F8533203F0010387F85332494B1B78D4
:1046B000DBB2002B03D097F85332002B0CD097F8C5
:1046C0005332002B01D04A4B00E04A4B184603F00E
:1046D0004FFA454B01221A70434B1B78DBB2002B7B
:1046E00056D0404B1B78DAB207F52E73A3F5C4738E
:1046F0001A60FDF73DFC3C4B00221A703E4B002235
:104700001A703E4B00221A603D4B4FF000021A60B7
:104710003C4B00221A603C4B4FF000021A603B4BAE
:1047200000221A703A4B00221A70FDF739F8394B03
:1047300000221A6007F52E73A3F5C4731868FDF7FD
:104740007EF90346002B07D007F52E73A3F5C4733B
:104750001868FDF7F6F901E0FDF7BCF82E4B0022D2
:104760001A60FCF797FF1F4B00221A702B4B002298
:104770001A602B4B00221A70FDF752FA2948FDF7F8
:1047800095FBFDF7A5FB052009F085FE01F08FBE26
:10479000FDF72EFE0346002B04D0052009F07BFE1A
:1047A00001F085BE0F4B1B78DBB2072B01F364864B
:1047B000042B81F27984022B36DC002B39DC01F0EA
:1047C0005BBE00BF400B00200406002094060020C2
:1047D000DC0600202C0B0020AC0B0020FC09002084
:1047E000FC080020F6070020F4070020300B002012
:1047F000A8340108B43401087A0B00207C0B002097
:10480000800B0020840B0020880B00208D0B0020E3
:104810008E0B0020000A00200C0B00205C0B0020F7
:10482000600B0020C4340108032B01F0188601F04E
:1048300023BE884BC7F82032864BC7F81C324FF096
:104840000003C7F81832844B1B685B6AA7F816325E
:10485000824B1B685B6AA7F81432814B1B78DBB272
:10486000022B02D14FF0FF3300E00123C7F81032D2
:1048700003F090FFC7F80C027A4B1B78002B0AD08C
:10488000794B1B78DBB2002B05D1784B1B68D7F82E
:1048900010229A422BD0764AB7F816321380754A06
:1048A000B7F814321380744B00221A60734B002245
:1048B0001A606E4AD7F8103213606A4B01221A70E0
:1048C0006F4B4FF000021A606E4AD7F80C3213603B
:1048D0006D4AD7F80C3213606C4B6D4A1A606D4A02
:1048E000D7F80C3213606C4B00221A6020E0604B4A
:1048F0001B88B7F81622D31A9BB21BB21A465E4B1E
:104900001B6813445C4A13605C4B1B68594A12884D
:10491000B7F814128A1A92B212B29B1A574A13604D
:10492000534AB7F816321380524AB7F8143213803C
:10493000544B1B68D7F80C22D31AC7F80832514AD7
:10494000D7F80C321360D7F80832322B02D9322351
:10495000C7F80832484B1A68484B1B681344DA0FF3
:1049600013445B10C7F804324B4B1B68D7F8042282
:10497000D31AC7F80032D7F80032032B04DCD7F87B
:10498000003213F1030F07DA434AD7F804321360F9
:10499000404AD7F80C321360D7F81032002B07DDED
:1049A0003E4B1A68D7F80432D31AC7F8B03206E083
:1049B0003A4B1B68D7F80422D31AC7F8B032D7F89D
:1049C000B032002B02DA0023C7F8B032002387F898
:1049D000AF32324B1B68002B0ADB304B1B68D7F819
:1049E00004229A42ACBF0123002387F8AF3209E0CA
:1049F0002A4B1B68D7F804229A42D4BF0123002314
:104A000087F8AF32002387F8AE32154B1B78DBB244
:104A1000012B40F02881224B1B78DBB2002B00F0E9
:104A200022811F4B1B78DBB2013B062B00F2F48086
:104A300001A252F823F000BF414B0008C94B000807
:104A4000DD4B0008194C0008F14B0008054C00082C
:104A5000A54A0008A69B443B74050020BC05002025
:104A6000F6070020E90C00208C0B0020EC0C002045
:104A7000F00C0020F20C0020F40C0020F80C0020B8
:104A8000FC0C0020000D0020040D00202800002058
:104A900000007041080D00200C0D00200C0B0020C0
:104AA0007A0B00205E4B1B889BB21A465D4B1B683D
:104AB0009A422CBF0123002387F8AE32594B1B6862
:104AC000142B00F2AB80584B1B78DBB2002B00F0AC
:104AD000A580564B1B78DBB2002B15D1514B1B68C0
:104AE00007F10C00524A20210BF08CFCC7F8FC01A6
:104AF0004E4B01221A70D7F8FC319AB207F10C0321
:104B000019464C4808F09FFC4B4B1B684B4A1360FE
:104B1000FCF7E0FE4A4B04221A704A4B4A4A1A60DC
:104B20004A4B00221A604A4B00221A60002387F881
:104B3000AE32484B01221A70474B02221A706DE0C8
:104B4000384B1B681A2B94BF0123002387F8AE3221
:104B5000344B1B68142B00F28580344B1B78DBB27E
:104B6000002B15D12F4B1B6807F10C00304A202178
:104B70000BF048FCC7F8F8012C4B01221A70D7F84B
:104B8000F8319AB207F10C0319462A4808F05BFC89
:104B9000294B1B68294A1360FCF79CFE284B042212
:104BA0001A70284B284A1A60284B00221A60284B9A
:104BB00000221A60002387F8AE32264B01221A70B9
:104BC000254B02221A704DE0244B1B78DBB2002BE0
:104BD0000CBF0123002387F8AE3244E0204B1B7842
:104BE000DBB2002B0CBF0123002387F8AE323AE082
:104BF0001A4B1B78DBB2012B0CBF0123002387F873
:104C0000AE3230E0164B1B78DBB2012B0CBF012318
:104C1000002387F8AE3226E000BF24E000BF22E088
:104C200020000020D007002022000020060B0020DA
:104C3000CC3401086C070020100B00201C0B002056
:104C40007A0B00200C0B002001000080100D0020CA
:104C5000140D00208C0B0020F6070020750B00209F
:104C6000740B002000BF664B1B78DBB2022B0CD10B
:104C7000644B1B78DBB2042B07D1634B1B68132BEF
:104C80008CBF0123002387F8AE3297F8AE32002B99
:104C90003BD05C4B1B78DBB2012B04D0594B1B780B
:104CA000DBB2072B31D1594B1B6807EE903AB8EEB7
:104CB000E77ADFED576AC7EE267A564BC3ED007AE6
:104CC000554B1B78DBB2002B1FD1524B1B6818468B
:104CD000FBF74AFC02460B464B49096807F10C00FA
:104CE0000291CDE900234D4A20210BF08BFBC7F840
:104CF000F401494B01221A70D7F8F4319AB207F146
:104D00000C031946464808F09EFB97F8AE32002B7C
:104D100038D03C4B1B78DBB2022B04D0394B1B78CC
:104D2000DBB2032B2ED13F4B1B6807EE903AB8EE57
:104D3000E77ADFED376AC7EE267A3B4BC3ED007AA0
:104D4000354B1B78DBB2002B1CD1374B1B68184648
:104D5000FBF70AFC02460B4607F10C00CDE90023E5
:104D6000324A20210BF04EFBC7F8F0012A4B0122FA
:104D70001A70D7F8F0319AB207F10C031946284897
:104D800008F061FB97F8AF32002B03D197F8AE32F1
:104D9000002B61D0FCF704FD254B41F61F421A6041
:104DA000244B41F61F421A60FCF794FD224B1B88EE
:104DB0001A46224B1A60204B1B881A46204B1A6059
:104DC000204B4FF000021A6003F0E4FC034603F5A9
:104DD00096731D4A13600B4B00221A701B4B002266
:104DE0001A601B4B00221A60054B00221A7003F058
:104DF000D1FC034603F5FA73164A136001F054BB65
:104E0000F60700207A0B0020D00700207C0B002042
:104E1000896D9342800B0020060B0020D8340108D6
:104E20006C070020840B0020880B0020E43401086C
:104E30000C0000201000002024000020140000209E
:104E400018000020440B0020140B0020100D00203F
:104E5000140D0020000A002003F09CFCC7F8EC01B0
:104E6000C24B1B68002B0BD1C04AD7F8EC31136042
:104E7000BF4AB7F816321380BE4AB7F8143213800F
:104E8000BD4B1B78DBB2002B24D0B94AB7F81632E1
:104E90001380B84AB7F814321380B44AD7F8EC310B
:104EA0001360B54B00221A70B44B4FF000021A6029
:104EB000B34B4FF000021A60B24B00221A60B24BA3
:104EC00000221A60B14B4FF000021A60B04B4FF055
:104ED00000021A60A64B1B88B7F81622D31A9BB2A1
:104EE000A7F8EA31A34B1B88B7F81422D31A9BB258
:104EF000A7F8E831B7F8E8315B429BB2A7F8E83190
:104F0000A44B1B78DBB2012B1AD1A34B1B78DBB26D
:104F1000012B04D0A04B1B78DBB2072B10D1B7F9C3
:104F2000EA21B7F9E8311344DA0F13445B10C7F8EC
:104F3000E4319A4B1A68D7F8E4311344974A136066
:104F4000944B1B78DBB2012B1AD1934B1B78DBB24D
:104F5000022B04D0904B1B78DBB2032B10D1B7F996
:104F6000EA21B7F9E8311344DA0F13445B10C7F8AC
:104F7000E0318B4B1A68D7F8E0311344884A13604C
:104F80007A4B1B68D7F8EC21D31AC7F8A832D7F8A8
:104F9000A832002B02D10123C7F8A832B7F9EA31B1
:104FA0004FF47A7203FB02F2D7F8A83292FBF3F3C4
:104FB000C7F8DC31B7F9E8314FF47A7203FB02F23B
:104FC000D7F8A83292FBF3F3C7F8D831D7F8A83254
:104FD00007EE903AB8EE677ADFED726AC7EE267A8E
:104FE000C7ED757AD7ED757A9FED6F7A37EE877AD0
:104FF000D7ED756AC6EE877AC7ED747AD7F8DC31DB
:1050000007EE903AB8EEE77A5C4BD3ED007A37EED4
:10501000677AD7ED747A27EE277A584BD3ED007A6A
:1050200077EE277A554BC3ED007AD7F8D83107EEE3
:10503000903AB8EEE77A524BD3ED007A37EE677AC2
:10504000D7ED747A27EE277A4D4BD3ED007A77EEC1
:10505000277A4B4BC3ED007A454AB7F816321380D6
:10506000444AB7F814321380404AD7F8EC31136041
:10507000424B93ED007A424BD3ED007A77EE677A9C
:10508000FDEEE77A17EE903AC7F8CC31474B93ED37
:10509000007A474BD3ED007A77EE677A454BC3ED44
:1050A000007AD7F8CC31C7F8C831364B1A68D7F830
:1050B000C8311344334A136046F2A813C7F8C43109
:1050C000304B1B68D7F8C4219A4203DA2D4AD7F82F
:1050D000C4311360D7F8C4315A422A4B1B689A4234
:1050E00004DDD7F8C4315B42264A1360264B1B68A7
:1050F000D7F8C821D31AC7F8C031234AD7F8C83126
:105100001360D7F8C83107EE903AB8EEE77AD7EDDA
:10511000887A27EE277A1B4B1B6807EE903AF8EE49
:10512000E76AD7ED877A66EEA77A37EE277AD7F85F
:10513000C03107EE903AF8EEE76AD7ED867A66EE70
:10514000A77A77EE277AC7ED6F7AD7ED6F7AFDEE03
:10515000E77A17EE903AC7F8A4320E4B1B78DBB211
:10516000022B0CBF0123002326E000BF180D0020F6
:105170001C0D00201E0D00208C0B0020200D002097
:10518000240D0020100D0020140D0020280D0020FB
:105190002C0D0020F60700207A0B00207C0B00204D
:1051A000840B002000007A44CDCC4C3D1C0B002029
:1051B000180B0020200B002087F8BB31B84B1B7860
:1051C000002B05D0B74B1B78012B01D1012300E048
:1051D000002387F8BA3197F8BA3103F0010387F852
:1051E000BA3197F8BA31002B06D0AF4B1B6807EEE7
:1051F000903AF8EEE77A01E0DFEDAC7A07F52E732E
:10520000A3F58273C3ED007A97F8BA3183F00103F6
:10521000DBB2002B11D0A64B1B78DBB2002B0CD1DC
:10522000A44B1B686FF00042934206D0A14B1B6851
:10523000A14A934201D0012200E0002207F52E731B
:10524000A3F205131A701A7802F001021A7007F51A
:105250002E73A3F582731B68C7F8A03207F52E736F
:10526000A3F205131B78002B00F09E8107F52E7327
:10527000A3F58673914A1A6007F52E73A3F5887318
:105280008F4A1A60D7F8B03207EE903AF8EEE77A14
:1052900007F52E73A3F5867393ED007AB4EEE77AE3
:1052A000F1EE10FA40F3258107F52E73A3F58A730A
:1052B000D7F8B02207EE902AF8EEE77AC3ED007A2D
:1052C00007F52E73A3F58A7207F52E73A3F588737D
:1052D00092ED007AD3ED007AB4EEE77AF1EE10FAAF
:1052E0006AD8784B1B68D7F80C22D31A952B1AD999
:1052F000754BD3ED007AB0EE087A77EE877A724B71
:10530000C3ED007A704BD3ED007AB3EE087AF4EE79
:10531000C77AF1EE10FA02DD6B4B6C4A1A60694AEB
:10532000D7F80C32136007F52E73A3F58873D3ED0D
:10533000007AF5EEC07AF1EE10FA0EDD07F52E7365
:10534000A3F58A7207F52E73A3F58873D2ED006A70
:1053500093ED007AC6EE877A01E0DFED5D7AC7ED66
:10536000A67AD7EDA67AF5EEC07AF1EE10FA03D55B
:105370004FF00003C7F89832D7EDA67AB7EE007A5F
:10538000F4EEC77AF1EE10FA03DD4FF07E53C7F862
:1053900098324D4BD3ED007AB3EE047A37EE677A4C
:1053A000D7EDA67A27EE277A474BD3ED007A77EE32
:1053B000277AC7EDA77A5DE007F52E73A3F58C7306
:1053C00007F52E72A2F5867107F52E72A2F5887286
:1053D00091ED007AD2ED007A77EE677AC3ED007A2C
:1053E00007F52E73A3F58C73D3ED007AF5EEC07A32
:1053F000F1EE10FA16DD07F52E73A3F58A7207F5A4
:105400002E73A3F5887392ED007AD3ED007A77EED0
:10541000676A07F52E73A3F58C7393ED007AC6EED9
:10542000877A01E0DFED2A7AC7EDA57AD7EDA57A74
:10543000F5EEC07AF1EE10FA03D54FF00003C7F88D
:105440009432D7EDA57AB7EE007AF4EEC77AF1EE92
:1054500010FA03DD4FF07E53C7F89432D7EDA57AEA
:105460009FED1C7A67EE877AB3EE047A77EE877A3F
:10547000C7EDA77A07F52E73A3F58A7207F52E7389
:10548000A3F5887392ED007AD3ED007AB4EEE77A53
:10549000F1EE10FA20D8D7F89C32C7F8A03228E0F5
:1054A000AC0B0020440C00203C0C00200000C84243
:1054B0007A0B00200C0B002001000080EB48B84460
:1054C000EB48B843080D0020280000200000C04130
:1054D000000000000000A04297EDA77AD7EDA87A5F
:1054E000B4EEE77AF1EE10FA03D5D7F89C32C7F89C
:1054F000A032D14B1A6807F52E73A3F58E73D7F837
:105500000C128A1A1A6007F52E73A3F58E731B68A6
:1055100007EE903AB8EE677ADFEDC86AC7EE267AF2
:10552000C7EDA47AD7EDA47AF5EEC07AF1EE10FAC1
:1055300003D54FF00003C7F89032D7EDA47AB7EE49
:10554000007AF4EEC77AF1EE10FA03DD4FF07E53E5
:10555000C7F89032D7EDA47A9FEDB97A67EE877AD3
:1055600007F52E73A3F5907397EDA47A67EE277A6B
:10557000C3ED007A07F52E73A3F5907397EDA87A23
:10558000D3ED007AB4EEE77AF1EE10FA04D5AD4A25
:10559000D7F8A03213600EE0AA4A07F52E73A3F5E0
:1055A00090731B68136006E0A64A07F52E73A3F5F7
:1055B00082731B681360A34BD3ED007AF5EEC07ABB
:1055C000F1EE10FA03D59F4B4FF000021A609D4B8D
:1055D000D3ED007A9FED9A7AF4EEC77AF1EE10FAE5
:1055E00002DD984B984A1A60964BD3ED007AB6EEDE
:1055F000007A77EE877A07F52E73A3F59273FDEEA6
:10560000E77A17EE902A1A6097F8BB31002B01D089
:105610008E4A00E08E4A07F52E73A3F594731A6044
:1056200007F52E73A3F596734FF07E521A6007F5B7
:105630002E73A3F59473D3ED007A9FED867A67EE0F
:10564000877AB6EE007A77EE877AFDEEE77A07F58D
:105650002E73A3F5987417EE900AFCF7D9F9206021
:1056600007F52E73A3F59673D3ED007A9FED797A43
:1056700067EE877AB6EE007A77EE877AFDEEE77A04
:1056800007F52E73A3F59A7417EE900AFCF7C0F98C
:10569000206007F52E73A3F598731B68C3F5E053DC
:1056A0001F3307F52E72A2F59272126802FB03F304
:1056B000694A82FB03125211DB179B1A03F5E05370
:1056C0001F33C7F88C3207F52E73A3F59A731B6846
:1056D000C3F5E0531F3307F52E72A2F592721268DC
:1056E00002FB03F35C4A82FB03125211DB179B1A85
:1056F00007F52E72A2F59C7203F5E0531F33136079
:1057000007F52E73A3F205131B78002B63D097F8CF
:10571000BB3183F00103DBB2002B5CD0464B1B682E
:10572000002B58D0444B1A6807F52E73A3F59E73CF
:10573000D7F80C128A1A1A6007F52E73A3F59E7318
:105740001B68B3F52F7F46D207F52E73A3F59E7322
:105750001B6807EE903AB8EE677ADFED406AC7EE55
:10576000267AB7EE007A77EE677AC7EDA27AD7EDA0
:10577000A27AF5EEC07AF1EE10FA03D54FF00003ED
:10578000C7F88832D7EDA27AB7EE007AF4EEC77A7E
:10579000F1EE10FA03DD4FF07E53C7F88832D7EDF3
:1057A000A27A9FED2F7A67EE877A07F52E73A3F51D
:1057B000A074B0EE670A0DF06DF8206007F52E7347
:1057C000A3F5A073D7F88C221B6813441846FCF786
:1057D0001FF9C7F88C0207F52E73A3F592731B68A7
:1057E000632B10DC07F52E73A3F59272D7F8A43261
:1057F000126802FB03F3184A82FB03125211DB17F3
:10580000D31AC7F8A43297F8BB3183F00103DBB297
:10581000002B27D0D7F88C22D7F8A4321344C7F82E
:10582000843207F52E73A3F59C731A68D7F8A43257
:10583000D31AC7F8803226E0040D00200000AF43E1
:105840000000C842FC0C00200000C84248E17A3F3A
:10585000E17A943F00806D451F85EB5100002F4495
:1058600000004842D7F88C22D7F8A432D31AC7F8E0
:10587000843207F52E73A3F59C731A68D7F8A43207
:105880001344C7F88032D7F88402FCF7C1F8C7F890
:105890008402D7F88002FCF7BBF8C7F88002CA4A36
:1058A000D7F884321360C94AD7F880321360C84BE6
:1058B00093ED007AC74BD3ED007A77EE677AC64B4B
:1058C000C3ED007AC44B1B68C7F87C32D7ED9F7AD2
:1058D000F0EEE77A9FEDC17AF4EEC77AF1EE10FAB6
:1058E00003D54FF00003C7F87C3297ED9F7AD7EDD0
:1058F000757A27EE277ABA4BD3ED007A77EE277ABE
:10590000B74BC3ED007A07F52E73A3F5A273B54A22
:105910001A60B34BD3ED007A07F52E73A3F5A2738B
:1059200093ED007AB4EEE77AF1EE10FA07D5AC4ABF
:1059300007F52E73A3F5A2731B6813601AE007F531
:105940002E73A3F5A273D3ED007AB1EE677AA44B60
:10595000D3ED007AB4EEE77AF1EE10FA0ADD07F53E
:105960002E73A3F5A273D3ED007AF1EE677A9C4B08
:10597000C3ED007A07F52E73A3F5A473D7ED9F7AD4
:10598000B3EE007A67EE877AC3ED007A944BD3EDDD
:10599000007A07F52E73A3F5A673B0EE087A67EECA
:1059A000877AC3ED007A904BD3ED007A07F52E731A
:1059B000A3F5A8739FED8D7A67EE877AC3ED007A21
:1059C00007F52E73A3F5A47207F52E73A3F5A6733E
:1059D00092ED007AD3ED007A77EE277A07F52E73F1
:1059E000A3F5A87393ED007A77EE277AC7ED9E7A38
:1059F000D7ED9F7AF5EE407AF1EE10FA16D0D7ED9A
:105A00009E7AF0EEE77AB1EE047AF4EEC77AF1EE20
:105A100010FA0BD5D7ED9E7AF5EEC07AF1EE10FABA
:105A200001DD704B00E0724BC7F87832D7ED9E7AFB
:105A30009FED707AF4EEC77AF1EE10FA03DD6E4B4B
:105A4000C7F878320BE0D7ED9E7A9FED6C7AF4EED2
:105A5000C77AF1EE10FA02D5694BC7F8783207F52C
:105A60002E73A3F5AA73D7ED757A9FED667A67EE6C
:105A7000877AC3ED007A644B93ED007A07F52E73B5
:105A8000A3F5AA73D3ED007A77EE277A97ED9E7A85
:105A9000B4EEE77AF1EE10FA0DDD5B4BD3ED007A50
:105AA00007F52E73A3F5AA7393ED007A77EE277AA4
:105AB000C7ED9E7A1EE0544B93ED007A07F52E73E6
:105AC000A3F5AA73D3ED007A77EE677A97ED9E7A05
:105AD000B4EEE77AF1EE10FA0CD54B4B93ED007A69
