:020000040800F2
:10000000000002207957000899510008A15100080A
:10001000A9510008B1510008B951000800000000C2
:1000200000000000000000000000000051C40008B3
:10003000C151000800000000A1C60008CF5100080F
:10004000C9570008C9570008C9570008C957000810
:10005000C9570008C9570008C9570008C957000800
:10006000C9570008C9570008C9570008C9570008F0
:10007000C9570008C9570008C9570008C9570008E0
:10008000C9570008C9570008C9570008C9570008D0
:10009000C9570008C9570008C9570008C9570008C0
:1000A000C9570008C9570008C9570008C9570008B0
:1000B000C9570008C9570008C9570008C9570008A0
:1000C000C9570008C9570008C9570008C957000890
:1000D000C9570008C9570008C9570008E951000866
:1000E000C9570008C9570008C9570008C957000870
:1000F000C9570008C9570008FD510008C957000832
:10010000C9570008C9570008C9570008C95700084F
:10011000C9570008C9570008C9570008C95700083F
:1001200011520008C9570008C9570008C9570008EC
:10013000C9570008C9570008C9570008C95700081F
:10014000C9570008C9570008C9570008C95700080F
:10015000C9570008C9570008C9570008C9570008FF
:10016000C9570008C9570008C9570008C9570008EF
:10017000C9570008C9570008C95700080000000007
:08018000C9570008C957000827
:1001900010B5054C237833B9044B13B10448AFF3C1
:1001A00000800123237010BDF80100200000000032
:1001B0004403010808B5034B1BB103490348AFF3DF
:1001C000008008BD00000000FC010020440301087D
:1001D00010F8012B11F8013B012A28BF9A42F7D0F1
:1001E000D01A70470000000000000000000000006E
:1001F00001F0FF01102A2BDB10F0070F08D010F8D8
:10020000013B013A8B422DD010F0070F42B3F6D1DB
:10021000F0B441EA012141EA014122F007047FF0F4
:1002200000070023F0E80256083C85EA010586EA4B
:10023000010685FA47F5A3FA87F586FA47F6A5FA87
:1002400087F68EB9EED1F0BC01F0FF0102F0070293
:1002500032B110F8013B013A83EA010313B1F8D13E
:100260000020704701387047002D06BF354603381F
:10027000073815F0010F07D1013015F4807F02BF58
:10028000013015F4C03F0130F0BC0138704700BFA9
:10029000034613F8012B002AFBD1181A01387047C6
:1002A00081F0004102E000BF83F0004330B54FEA27
:1002B00041044FEA430594EA050F08BF90EA020F94
:1002C0001FBF54EA000C55EA020C7FEA645C7FEA27
:1002D000655C00F0E2804FEA5454D4EB5555B8BF4A
:1002E0006D420CDD2C4480EA020281EA030382EABB
:1002F000000083EA010180EA020281EA0303362D4D
:1003000088BF30BD11F0004F4FEA01314FF4801C1F
:100310004CEA113102D0404261EB410113F0004F31
:100320004FEA03334CEA133302D0524263EB4303E8
:1003300094EA050F00F0A780A4F10104D5F1200E86
:100340000DDB02FA0EFC22FA05F2801841F10001E1
:1003500003FA0EF2801843FA05F359410EE0A5F1B5
:1003600020050EF1200E012A03FA0EFC28BF4CF0E6
:10037000020C43FA05F3C01851EBE37101F000459C
:1003800007D54FF0000EDCF1000C7EEB00006EEBA9
:100390000101B1F5801F1BD3B1F5001F0CD3490833
:1003A0005FEA30004FEA3C0C04F101044FEA44528A
:1003B00012F5800F80F09A80BCF1004F08BF5FEA11
:1003C000500C50F1000041EB045141EA050130BDF1
:1003D0005FEA4C0C404141EB0101013C28BFB1F503
:1003E000801FE9D291F0000F04BF01460020B1FA4E
:1003F00081F308BF2033A3F10B03B3F120020CDA21
:100400000C3208DD02F1140CC2F10C0201FA0CF0FE
:1004100021FA02F10CE002F11402D8BFC2F1200C63
:1004200001FA02F120FA0CFCDCBF41EA0C01904019
:10043000E41AA2BF01EB0451294330BD6FEA040462
:100440001F3C1CDA0C340EDC04F11404C4F120024D
:1004500020FA04F001FA02F340EA030021FA04F35F
:1004600045EA030130BDC4F10C04C4F1200220FAB6
:1004700002F001FA04F340EA0300294630BD21FAF4
:1004800004F0294630BD94F0000F83F4801306BFBA
:1004900081F480110134013D4EE77FEA645C18BFAE
:1004A0007FEA655C29D094EA050F08BF90EA020F45
:1004B00005D054EA000C04BF1946104630BD91EA3D
:1004C000030F1EBF0021002030BD5FEA545C05D140
:1004D0004000494128BF41F0004130BD14F580047F
:1004E0003CBF01F5801130BD01F0004545F0FE41F3
:1004F00041F470014FF0000030BD7FEA645C1ABF28
:10050000194610467FEA655C1CBF0B46024650EA5E
:10051000013406BF52EA033591EA030F41F400218A
:1005200030BD00BF90F0000F04BF0021704730B510
:100530004FF4806404F132044FF000054FF00001E5
:1005400050E700BF90F0000F04BF0021704730B5A6
:100550004FF4806404F1320410F0004548BF40427B
:100560004FF000013EE700BF42004FEAE2014FEAD0
:1005700031014FEA02701FBF12F07F4393F07F4FAB
:1005800081F06051704732F07F4208BF704793F0AE
:100590007F4F04BF41F40021704730B54FF46074C1
:1005A00001F0004521F000411CE700BF50EA0102C4
:1005B00008BF704730B54FF000050AE050EA01026D
:1005C00008BF704730B511F0004502D5404261EBDD
:1005D00041014FF4806404F132045FEA915C3FF41E
:1005E000D8AE4FF003025FEADC0C18BF03325FEABB
:1005F000DC0C18BF033202EBDC02C2F1200300FA6C
:1006000003FC20FA02F001FA03FE40EA0E0021FA90
:1006100002F11444BDE600BF70B54FF0FF0C4CF47E
:10062000E06C1CEA11541DBF1CEA135594EA0C0F30
:1006300095EA0C0F00F0DEF82C4481EA030621EA6B
:100640004C5123EA4C5350EA013518BF52EA0335A6
:1006500041F4801143F4801338D0A0FB02CE4FF058
:100660000005E1FB02E506F00042E0FB03E54FF088
:100670000006E1FB03569CF0000F18BF4EF0010E80
:10068000A4F1FF04B6F5007F64F5407404D25FEA7C
:100690004E0E6D4146EB060642EAC62141EA55512F
:1006A0004FEAC52040EA5E504FEACE2EB4F1FD0C71
:1006B00088BFBCF5E06F1ED8BEF1004F08BF5FEAEF
:1006C000500E50F1000041EB045170BD06F00046A1
:1006D00046EA010140EA020081EA0301B4EB5C044E
:1006E000C2BFD4EB0C0541EA045170BD41F4801146
:1006F0004FF0000E013C00F3AB8014F1360FDEBF6B
:10070000002001F0004170BDC4F10004203C35DA46
:100710000C341BDC04F11404C4F1200500FA05F3C9
:1007200020FA04F001FA05F240EA020001F000426A
:1007300021F0004110EBD37021FA04F642EB0601E0
:100740005EEA430E08BF20EAD37070BDC4F10C040A
:10075000C4F1200500FA04F320FA05F001FA04F2CE
:1007600040EA020001F0004110EBD37041F10001BA
:100770005EEA430E08BF20EAD37070BDC4F12005C5
:1007800000FA05F24EEA020E20FA04F301FA05F22D
:1007900043EA020321FA04F001F0004121FA04F2D5
:1007A00020EA020000EBD3705EEA430E08BF20EAA5
:1007B000D37070BD94F0000F0FD101F000464000DF
:1007C00041EB010111F4801F08BF013CF7D041EA61
:1007D000060195F0000F18BF704703F00046520065
:1007E00043EB030313F4801F08BF013DF7D043EA36
:1007F0000603704794EA0C0F0CEA135518BF95EAEC
:100800000C0F0CD050EA410618BF52EA4306D1D172
:1008100081EA030101F000414FF0000070BD50EA91
:10082000410606BF1046194652EA430619D094EA1B
:100830000C0F02D150EA013613D195EA0C0F05D105
:1008400052EA03361CBF104619460AD181EA030159
:1008500001F0004141F0FE4141F470014FF0000011
:1008600070BD41F0FE4141F4780170BD70B54FF0AC
:10087000FF0C4CF4E06C1CEA11541DBF1CEA13552C
:1008800094EA0C0F95EA0C0F00F0A7F8A4EB05040E
:1008900081EA030E52EA03354FEA013100F0888005
:1008A0004FEA03334FF0805545EA131343EA1263CE
:1008B0004FEA022245EA111545EA10654FEA002683
:1008C0000EF000419D4208BF964244F1FD0404F53C
:1008D000407402D25B084FEA3202B61A65EB030598
:1008E0005B084FEA32024FF480104FF4002CB6EB55
:1008F000020E75EB030E22BFB61A754640EA0C00D5
:100900005B084FEA3202B6EB020E75EB030E22BF14
:10091000B61A754640EA5C005B084FEA3202B6EB55
:10092000020E75EB030E22BFB61A754640EA9C0014
:100930005B084FEA3202B6EB020E75EB030E22BFE4
:10094000B61A754640EADC0055EA060E18D04FEAA2
:10095000051545EA16754FEA06164FEAC30343EA42
:1009600052734FEAC2025FEA1C1CC0D111F4801F0F
:100970000BD141EA00014FF000004FF0004CB6E708
:1009800011F4801F04BF01430020B4F1FD0C88BFA7
:10099000BCF5E06F3FF6AFAEB5EB030C04BFB6EBB2
:1009A000020C5FEA500C50F1000041EB045170BDA5
:1009B0000EF0004E4EEA113114EB5C04C2BFD4EBD2
:1009C0000C0541EA045170BD41F480114FF0000E56
:1009D000013C90E645EA060E8DE60CEA135594EAD2
:1009E0000C0F08BF95EA0C0F3FF43BAF94EA0C0FD5
:1009F0000AD150EA01347FF434AF95EA0C0F7FF44A
:100A000025AF104619462CE795EA0C0F06D152EA9D
:100A100003353FF4FDAE1046194622E750EA410681
:100A200018BF52EA43067FF4C5AE50EA41047FF492
:100A30000DAF52EA43057FF4EBAE12E74FF0FF3CF7
:100A400006E000BF4FF0010C02E000BF4FF0010CC8
:100A50004DF804CD4FEA410C7FEA6C5C4FEA430C41
:100A600018BF7FEA6C5C1BD001B050EA410C0CBF90
:100A700052EA430C91EA030F02BF90EA020F0020F2
:100A8000704710F1000F91EA030F58BF994208BF59
:100A900090422CBFD8176FEAE37040F00100704716
:100AA0004FEA410C7FEA6C5C02D150EA013C07D16D
:100AB0004FEA430C7FEA6C5CD6D152EA033CD3D0B8
:100AC0005DF8040B704700BF8446104662468C46B2
:100AD0001946634600E000BF01B5FFF7B7FF0028E5
:100AE00048BF10F1000F01BD4DF808EDFFF7F4FF0E
:100AF0000CBF012000205DF808FB00BF4DF808ED99
:100B0000FFF7EAFF34BF012000205DF808FB00BFBB
:100B10004DF808EDFFF7E0FF94BF012000205DF8DD
:100B200008FB00BF4DF808EDFFF7CEFF94BF012092
:100B300000205DF808FB00BF4DF808EDFFF7C4FF8B
:100B400034BF012000205DF808FB00BF4FEA410CD4
:100B50007FEA6C5C02D150EA013C0AD14FEA430CB7
:100B60007FEA6C5C02D152EA033C02D14FF00000F4
:100B700070474FF0010070474FEA410212F5001232
:100B800015D211D56FF47873B3EB625212D94FEAD4
:100B9000C12343F0004343EA505311F0004F23FABE
:100BA00002F018BF404270474FF00000704750EA13
:100BB000013005D111F0004008BF6FF000407047D0
:100BC0004FF00000704700BF4FEA4102B2F1E0432E
:100BD00024BFB3F5001CDCF1FE5C0DD901F0004C24
:100BE0004FEAC0024CEA5070B2F1004F40EB830074
:100BF00008BF20F00100704711F0804F21D113F1A0
:100C00003872BCBF01F00040704741F480114FEAD8
:100C10005252C2F11802C2F1200C10FA0CF320FA61
:100C200002F018BF40F001004FEAC1234FEAD3237E
:100C300003FA0CFC40EA0C0023FA02F34FEA4303E8
:100C4000CCE77FEA625307D150EA01331EBF4FF071
:100C5000FE4040F44000704701F0004040F0FE408C
:100C600040F40000704700BF53B94AB9002908BFDB
:100C700000281CBF4FF0FF314FF0FF3000F088B963
:100C8000ADF1080C6DE904CE00F006F8DDF804E0E3
:100C9000DDE9022304B070472DE9F047089D0F46B7
:100CA00004468C46002B48D18A42164661D9B2FAD6
:100CB00082F34BB1C3F1200201FA03FC20FA02F2E5
:100CC0009E4042EA0C0C9C404FEA164EB7B2BCFB69
:100CD000FEF1220C0EFB11CC42EA0C4201FB07F0A4
:100CE000904209D9B21801F1FF3C80F0EE809042A9
:100CF00040F2EB8002393244121AA4B2B2FBFEF089
:100D00000EFB102244EA024400FB07F7A74209D970
:100D1000341900F1FF3280F0DA80A74240F2D78028
:100D20003444023840EA0140E41B00211DB1DC409C
:100D30000023C5E90043BDE8F0878B4206D90DB119
:100D4000C5E9000100210846BDE8F087B3FA83F148
:100D5000002948D1BB4202D3824200F20781841AA3
:100D600067EB030201209446002DE4D0C5E9004C56
:100D7000E1E7002A00F09280B2FA82F3002B40F003
:100D8000A8808A1A4FEA164E1FFA86FC0121200C11
:100D9000B2FBFEF70EFB172240EA02420CFB07F003
:100DA000904207D9B21807F1FF3802D2904200F200
:100DB000E2804746121AA4B2B2FBFEF00EFB1022EC
:100DC00044EA02440CFB00FCA44507D9341900F1A5
:100DD000FF3202D2A44500F2CB801046A4EB0C04F3
:100DE00040EA0740A2E7C1F120068B4022FA06FC48
:100DF0004CEA030C07FA01F420FA06F3F7404FEA35
:100E00001C49234300FA01F81FFA8CFEB7FBF9F0E6
:100E10001C0C09FB107744EA074400FB0EF7A742BD
:100E200002FA01F20AD91CEB040400F1FF3A80F047
:100E30009B80A74240F2988002386444E41B9FB232
:100E4000B4FBF9F309FB134447EA044403FB0EFE29
:100E5000A64509D91CEB040403F1FF3780F082801A
:100E6000A6457FD9023B644443EA0040A4EB0E044C
:100E7000A0FB02E7BC427346B94663D360D05DB1C4
:100E8000B8EB030264EB090404FA06F622FA01F354
:100E90001E43CC40C5E9006400214CE762084808C5
:100EA00042EAC1710B0C43EA00438AB242EA0342B0
:100EB000B3FBF6F1E407B4463746B6461F23B0FB52
:100EC000F6F0D21B41EA004161E7614614E71046A3
:100ED00028E7C3F1200120FA01F29E4027FA01F130
:100EE0009F403A434FEA164E1FFA86FCB1FBFEF7CD
:100EF0000EFB1710110C41EA004107FB0CF8884566
:100F000004FA03F43AD9711807F1FF3001D2884589
:100F10001FD8A1EB0801B1FBFEF808FB0CF70EFB94
:100F2000181192B242EA0142BA422FD2B21808F125
:100F3000FF31C6D2BA42C4D2A8F102013244C0E79E
:100F4000F0459CD2BEEB020367EB0C070138B946B3
:100F500095E7A6EB08084144B81EB1FBFEF808FB74
:100F60000CF7DCE73B467FE7504667E70846FBE6C1
:100F70003444023832E7023F32441BE7A1EB080158
:100F80003846B1FBFEF808FB0CF7C8E7414698E786
:100F9000704700BF80B485B000AFF860B9607A6078
:100FA000FB68074A1A60BB68064A1A607B688022A1
:100FB0001A6000BF1437BD465DF8047B704700BF60
:100FC000140200206802002080B400AF074B1B7899
:100FD000DAB2074B1B78DBB29A420CBF0123002325
:100FE000DBB21846BD465DF8047B7047F00900206F
:100FF000F109002080B485B000AF3B4683E80300D0
:10100000124B1B78DBB20133DBB203F01F03FB731F
:101010000F4B1B78DBB2FA7B9A4201D100230EE022
:101020000A4B1B78DBB20B4ADB0013443A4692E8CA
:10103000030083E80300054AFB7B13700123184675
:101040001437BD465DF8047B704700BFF1090020EE
:10105000F0090020F008002090B583B000AF786060
:10106000FFF7B2FF0346002B01D0002316E00D4B23
:101070001B78DBB279680C4A0C46DB00134493E81A
:10108000030084E80300074B1B78DBB20133DBB2BB
:1010900003F01F03DAB2034B1A70012318460C3712
:1010A000BD4690BDF0090020F008002080B400AFDC
:1010B00072B600BF0021064B0A461A70054B0A465D
:1010C0001A7062B600BF00BFBD465DF8047B704772
:1010D000F1090020F009002080B483B000AF7860EF
:1010E0007B681B68054A934202D1054B00221A70A7
:1010F00000BF0C37BD465DF8047B704700480040D8
:10110000F209002080B500AF084B1B78DBB2002B42
:101110000AD1064B01221A7003220549054809F03D
:10112000F6FAFFF7C3FF00E000BF80BDF209002020
:10113000480601085C07002080B584B002AF034672
:101140003960FB710E4AFB7913700E4B1B785B0004
:1011500099B20A2300930123094A0B4806F050FA7A
:10116000084B1B785B0099B21423009302233A6862
:10117000054806F043FB00BF0837BD4680BD00BFF1
:101180000C0A0020040000201005002080B584B067
:1011900002AF03460A46FB711346BB710A4AFB794C
:1011A0001370094ABB795370084B1B785B0099B2E6
:1011B000142300930223044A054806F021FA00BFD5
:1011C0000837BD4680BD00BF0C0A00200400002087
:1011D0001005002080B500AF00210620FFF7D6FFE4
:1011E0000A200AF0BCFA80210320FFF7CFFF0A2073
:1011F0000AF0B5FA07210720FFF7C8FF0A200AF016
:10120000AEFA01210620FFF7C1FF0A200AF0A7FA73
:1012100020217F20FFF7BAFF0A200AF0A0FA2F2131
:101220000120FFF7B3FF0A200AF099FA11210020EC
:10123000FFF7ACFF0A200AF092FA00217F20FFF7A7
:10124000A5FF0A200AF08BFA00210720FFF79EFF76
:101250000A200AF084FA00210520FFF797FF0A20F0
:101260000AF07DFA01210620FFF790FF0A200AF01C
:1012700076FA00BF80BD000080B485B000AF786012
:101280000E4B5B68FB600E4B1B680E4AA2FB0323F0
:101290009A0C7B6802FB03F3BB6000E000BF074BC6
:1012A0005A68FB68D31ABA689A42F7D800BF00BFE1
:1012B0001437BD465DF8047B704700BF001000E0A6
:1012C0001C00002083DE1B4380B400AF084BDB68AA
:1012D000074A43F08073D360064B1B68054A43F00E
:1012E0000103136000BFBD465DF8047B704700BF7B
:1012F000F0ED00E0001000E080B400AF0C4B1B6884
:1013000041F61F42DA630A4B1B6841F61F421A641A
:10131000084B1B6841F61F425A63064B1B6841F697
:101320001F429A6300BFBD465DF8047B704700BF53
:10133000F40500208406002080B483B000AF7860FC
:10134000074B1B687A68DA63054B1B6841F61F423E
:101350001A6400BF0C37BD465DF8047B704700BFC0
:10136000F405002080B483B000AF7860074B1B68A1
:101370007A685A63054B1B6841F61F429A6300BFA7
:101380000C37BD465DF8047B704700BF8406002023
:1013900080B483B000AF7860074B1B6841F61F42F2
:1013A000DA63054B1B687A681A6400BF0C37BD46C8
:1013B0005DF8047B704700BFF405002080B483B063
:1013C00000AF7860074B1B6841F61F425A63054B1C
:1013D0001B687A689A6300BF0C37BD465DF8047BD2
:1013E000704700BF8406002080B400AF044B1A8809
:1013F000044B1B689A6300BFBD465DF8047B7047D1
:1014000018000020CC06002080B400AF044B1B68FD
:10141000F0229A6300BFBD465DF8047B704700BFB1
:10142000CC06002080B400AF044B1B68F0229A6306
:1014300000BFBD465DF8047B704700BFCC060020AE
:1014400080B400AF044B1B686E229A6300BFBD4698
:101450005DF8047B704700BFCC06002080B400AF6D
:10146000044B1B686E229A6300BFBD465DF8047B87
:10147000704700BFCC06002080B400AF064BA52209
:101480001A80054B1A88054B1B689A6300BFBD463E
:101490005DF8047B704700BF18000020CC060020D8
:1014A00080B400AF064B9C221A80054B1A88054B6E
:1014B0001B689A6300BFBD465DF8047B704700BFA0
:1014C00018000020CC06002080B483B000AF786004
:1014D0007B68002B01DA002307E07B68B3F5E15F4E
:1014E00002DB41F61F4300E07B6818460C37BD461F
:1014F0005DF8047B704780B483B000AF78607B6890
:10150000042B08D07B68052B05D07B68062B02D006
:101510007B68072B01D1012300E0002303F00103C6
:10152000DBB218460C37BD465DF8047B704780B4CB
:1015300083B000AF78607B68062B02D07B68072BF6
:1015400001D1012300E0002303F00103DBB21846C0
:101550000C37BD465DF8047B704780B483B000AFA4
:1015600078607B68042B02D07B68062B01D10123B5
:1015700000E0002303F00103DBB218460C37BD4640
:101580005DF8047B7047000080B483B000AF7860E2
:101590007B68052B02D07B68062B02D14FF07E536F
:1015A00000E0054B07EE903AB0EE670A0C37BD46F7
:1015B0005DF8047B704700BF000080BF80B582B03B
:1015C00000AF78607B68042B02D1FFF71DFF10E0AD
:1015D0007B68052B02D1FFF733FF0AE07B68062BFF
:1015E00002D1FFF71FFF04E07B68072B01D1FFF753
:1015F00035FF00BF0837BD4680BD80B582B000AF63
:1016000078607868FFF7A9FF0346002B02D0FFF748
:1016100047FF01E0FFF730FF00BF0837BD4680BD40
:1016200080B500AF1E4B4FF000021A6004F06CFB57
:1016300003461C4A13601C4B00221A601B4BD3ED5F
:10164000007A9FED1B7A67EE877AFCEEE77A17EE59
:10165000902A144B1B68134403F57A73154A1360E0
:10166000154B01221A70154B93ED007A144BD3EDF4
:10167000007A77EE677A134BC3ED007A124B4FF086
:1016800000021A60114B41F61F421A60104B41F6DE
:101690001F421A600F4B01221A7000BF80BD00BFAD
:1016A000340A0020380A00203C0A002000000020F4
:1016B00000004842400A0020440A0020FC090020A3
:1016C000000A00202C0A0020300A00200800002018
:1016D0000C000020280A002080B400AF114B4FF00E
:1016E00000021A60104B00221A60104B00221A6090
:1016F0000F4B00221A600F4B00221A700E4B4FF056
:1017000000021A600D4B41F61F421A600C4B41F665
:101710001F421A600B4B00221A7000BFBD465DF8D5
:10172000047B7047340A0020380A00203C0A00205D
:10173000400A0020440A0020300A0020080000204F
:101740000C000020280A002080B584B000AF87ED8F
:10175000010AD7ED017AB6EE007A77EE877AFDEED0
:10176000E77A17EE903AC3F5E0531F33FB60F86851
:10177000FFF7AAFE034618461037BD4680BD00009D
:1017800080B586B000AFF860B9607A60F868FFF79E
:10179000E4FE0346002B04D0BB687B617B683B61A1
:1017A00003E07B687B61BB683B617869FFF78CFE77
:1017B00078613869FFF788FE38610E4A7B691360EB
:1017C0000D4A3B691360F868FFF7B1FE0346002B32
:1017D00006D07869FFF7DCFD3869FFF7EFFD05E01B
:1017E0007869FFF7A9FD3869FFF7BCFD00BF18371E
:1017F000BD4680BD080000200C00002080B584B0EC
:1018000000AF7860FFF778FD7868FFF7F6FEFFF726
:1018100063FF294B1B68294A1360294B1B78DBB2F5
:10182000002B3DD0274B1B685B6A9AB2264B1A806F
:10183000264B1B685B6A9AB2254B1A80204B1B789B
:10184000DBB207EE903AF8EEE77A9FED227A67EE88
:10185000877AB6EE007A77EE877AFDEEE77A17EEB2
:10186000903AFB601C4B00221A701C4B01221A702C
:101870007868FFF75CFE0346002B07D0FB685B42ED
:10188000174A1360174B02221A7005E0144AFB68CE
:101890001360144B01221A70094B00221A7007E0E2
:1018A000104B00221A7004F02FFA03460E4A136000
:1018B00000BF1037BD4680BD000A0020040A00208A
:1018C0004C0A002064050020F4090020AC0500202B
:1018D000F6090020896D9342660A0020780A0020EC
:1018E000F8090020E6070020EC08002080B400AFD3
:1018F000164B1B78DBB2072B22D801A252F823F03B
:101900002119000825190008291900082D190008B7
:101910003119000835190008391900083D19000867
:101920000B4B0EE00B4B0CE00B4B0AE00B4B08E0B3
:101930000B4B06E00B4B04E00B4B02E00B4B00E0C3
:101940000B4B1846BD465DF8047B7047E607002048
:1019500060030108680301087003010878030108A7
:10196000800301088C03010898030108A003010803
:10197000A803010880B58CB000AF78607B68FB627B
:1019800009E0FB6A1B782C2B02D1FB6A20221A701B
:10199000FB6A0133FB62FB6A1B78002BF1D18F4994
:1019A00078680BF02DFFB86205E18D49B86AFEF743
:1019B0000FFC0346002B03D18A4B01221A70FEE074
:1019C00000233B750023BB618749B86AFEF700FC22
:1019D0000346002B04D10B233B750023BB61D1E0F0
:1019E0008249B86AFEF7F4FB0346002B04D10C23AE
:1019F0003B750023BB61C5E07D49B86AFEF7E8FB93
:101A00000346002B04D10D233B750023BB61B9E0D5
:101A10007849B86AFEF7DCFB0346002B04D10E239D
:101A20003B750023BB61ADE07349B86AFEF7D0FB9C
:101A30000346002B04D107233B750023BB61A1E0C3
:101A40006E49B86AFEF7C4FB0346002B04D1082395
:101A50003B750023BB6195E0BB6A1B78662B0ED1FA
:101A6000BB6A01331B78782B09D110233B75BB6A05
:101A7000023318460BF086F80346BB6182E0BB6A6E
:101A80001B78662B0ED1BB6A01331B78752B09D1ED
:101A90000F233B75BB6A023318460BF073F80346FD
:101AA000BB616FE0BB6A1B78662B0ED1BB6A01334A
:101AB0001B78722B09D103233B75BB6A023318468E
:101AC0000BF060F80346BB615CE0BB6A1B78662BD9
:101AD0000ED1BB6A01331B786C2B09D104233B75F3
:101AE000BB6A023318460BF04DF80346BB6149E070
:101AF000BB6A1B78722B0ED1BB6A01331B78722B29
:101B000009D105233B75BB6A023318460BF03AF83E
:101B10000346BB6136E0BB6A1B78722B0ED1BB6AF1
:101B200001331B786C2B09D106233B75BB6A02334A
:101B300018460BF027F80346BB6123E0BB6A1B780D
:101B4000662B09D101233B75BB6A013318460BF0A4
:101B500019F80346BB6115E0BB6A1B78722B09D1EB
:101B600002233B75BB6A013318460BF00BF80346A2
:101B7000BB6107E0BB6A1B78732B03D109233B755C
:101B80000023BB613B7D002B10D007F1140393E8C9
:101B90000300FFF72FFA78627B6A002B06D1184A00
:101BA00007F1080307CA83E8070008E00B49002093
:101BB0000BF026FEB862BB6A002B7FF4F6AE0A2358
:101BC0003B7700233B6207F11C0393E80300FFF718
:101BD00011FA00BF3037BD4680BD00BFAC0301081D
:101BE000B0030108E4070020B4030108B8030108AA
:101BF000BC030108C4030108CC030108D003010899
:101C0000D403010880B483B000AF0346FB71FB79B5
:101C1000013B0F2B40D801A252F823F05D1C0008B5
:101C2000611C0008651C0008691C00086D1C000888
:101C3000711C0008751C0008791C00087D1C000838
:101C4000991C0008811C0008851C0008891C0008DC
:101C50008D1C0008911C0008951C0008124B1CE00C
:101C6000124B1AE0124B18E0124B16E0124B14E024
:101C7000124B12E0124B10E0124B0EE0124B0CE034
:101C8000124B0AE0124B08E0124B06E0124B04E044
:101C9000124B02E0124B00E0002318460C37BD4601
:101CA0005DF8047B704700BFE0030108E80301080A
:101CB000F0030108F803010898030108A0030108D4
:101CC0000004010808040108780301081004010851
:101CD000140401081804010820040108280401085C
:101CE0002C04010880B588B000AF3B1D1846FFF7F3
:101CF000B3F90346002B01D1002348E33B79184692
:101D0000FFF780FFF861FB69002B04D0BB68194620
:101D1000F86903F087FB3B79013B0F2B00F2358319
:101D200001A252F823F000BF1D1F0008AF1F0008DA
:101D30005B200008BB2000081B2100087B21000855
:101D4000F9210008E9220008DB210008F121000840
:101D50007D1E0008CD1E0008DD1D00082D1E000898
:101D6000691D0008691D0008934B1B685B6A9AB2E5
:101D7000924B1A80924B1B685B6A9AB2914B1A8005
:101D8000914B1B68914A1360FFF72EFB904B00228A
:101D90001A60904B4FF000021A608F4B6FF00042B8
:101DA0001A60BB68002B02DDBB689BB200E01A23FF
:101DB0008A4A13803B790F2B0CBF01230023DBB22F
:101DC0001A46874B1A70874B07221A70864B0122DE
:101DD0001A70864B01221A700123D8E2764B1B68D9
:101DE0005B6A9AB2754B1A80754B1B685B6A9AB234
:101DF000744B1A80744B1B68744A1360FFF7F4FA33
:101E0000734B00221A60734B4FF000021A60724B42
:101E10006FF000421A60734B05221A70724B012258
:101E20001A70724B01221A700123B0E2624B1B68D8
:101E30005B6A9AB2614B1A80614B1B685B6A9AB20B
:101E4000604B1A80604B1B68604A1360FFF7CCFA46
:101E50005F4B00221A605F4B4FF000021A605E4B2E
:101E60006FF000421A605F4B06221A705E4B01222F
:101E70001A705E4B01221A70012388E24E4B1B68D8
:101E80005B6A9AB24D4B1A804D4B1B685B6A9AB2E3
:101E90004C4B1A804C4B1B684C4A1360FFF7A4FA5A
:101EA000534B00221A60534B4FF000021A604A4B0A
:101EB0006FF000421A604B4B02221A704A4B01220B
:101EC0001A704A4B01221A70012360E23A4B1B68D8
:101ED0005B6A9AB2394B1A80394B1B685B6A9AB2BB
:101EE000384B1A80384B1B68384A1360FFF77CFA6E
:101EF0003F4B00221A603F4B4FF000021A60364BF6
:101F00006FF000421A60374B03221A70364B0122E1
:101F10001A70364B01221A70012338E2BB683B610C
:101F2000254B1B685B6A9AB2244B1A80244B1B68B2
:101F30005B6A9AB2234B1A80234B1B68234A1360B7
:101F4000FFF752FA3B69002B1BDD3B6907EE903A25
:101F5000F8EEE77A9FED287A67EE877AB6EE007A98
:101F600077EE877AFDEEE77A17EE903AFB601A4A31
:101F7000FB6813601B4B00221A701B4B01221A7066
:101F800010E0184B01221A70134B6FF000421A60D8
:101F90000F4B00221A600F4B4FF000021A60124BD9
:101FA00001221A70114B01221A700123EFE1BB6864
:101FB000002B23DDBB6822E064050020F40900202B
:101FC000AC050020F6090020000A0020040A0020C9
:101FD000680A00206C0A0020F80900201400002084
:101FE00016000020660A0020E6070020780A00207C
:101FF000700A0020740A0020896D93423223BB616D
:10200000A64B1B685B6A9AB2A54B1A80A54B1B684E
:102010005B6A9AB2A44B1A80BB6907EE903AF8EE5D
:10202000E77A9FEDA27A67EE877AB6EE007A77EECE
:10203000877AFDEEE77A17EE903A5B427B619C4A25
:102040007B6913609B4B1B689B4A1360FFF7CCF9BD
:102050009A4B02221A70012399E1BB68002B05DB21
:10206000BB6807EE903AF8EEE77A06E0BB6807EE49
:10207000903AF8EEE77AF1EE677A914BC3ED007A89
:102080008C4B93ED007A8E4BD3ED007A77EE677A26
:102090008C4BC3ED007AFFF7B7F903F035FE03462A
:1020A0006433894A1360894B00221A70834B0422DF
:1020B0001A70FFF7B5FA012369E1BB68002B05DB55
:1020C000BB6807EE903AF8EEE77A06E0BB6807EEE9
:1020D000903AF8EEE77AF1EE677A794BC3ED007A41
:1020E000744B93ED007A764BD3ED007A77EE277A36
:1020F000744BC3ED007AFFF7A3F903F005FE034626
:102100006433714A1360714B00221A706B4B0522C5
:102110001A70FFF785FA012339E1BB68002B05DB54
:10212000BB6807EE903AF8EEE77A06E0BB6807EE88
:10213000903AF8EEE77AF1EE677A614BC3ED007AF8
:102140005C4B93ED007A5E4BD3ED007A77EE277A05
:102150005C4BC3ED007AFFF765F903F0D5FD03464C
:102160003233594A1360594B01221A70534B0622DD
:102170001A70FFF755FA012309E1BB68002B05DB54
:10218000BB6807EE903AF8EEE77A06E0BB6807EE28
:10219000903AF8EEE77AF1EE677A494BC3ED007AB0
:1021A000444B93ED007A464BD3ED007A77EE677A95
:1021B000444BC3ED007AFFF751F903F0A5FD034648
:1021C0003233414A1360414B00221A703B4B0722C5
:1021D0001A70FFF725FA0123D9E0FFF78DF8FFF712
:1021E0007BFAFFF701F9354B03221A700123CEE089
:1021F000FEF788FF0123CAE0324B1B681846FEF742
:10220000B3F902460B463249C1E900232D4B1B6846
:102210001846FEF7A9F94FF000022E4BFEF746F8DC
:1022200002460B462C49C1E90023264B1B68184681
:10223000FEF79AF94FF00002264BFEF735F80246FA
:102240000B4610461946FEF7BFFC03461D4A1360B5
:10225000224B01221A70224B01221A70174B1B7855
:10226000DBB2012B17D00D4B1B685B6A9AB20C4B8B
:102270001A800C4B1B685B6A9AB20B4B1A80FFF7F3
:10228000B3F80B4B6FF000421A60164B00221A7025
:102290000A4B01221A70012379E000BF6405002077
:1022A000F4090020AC050020F6090020896D934256
:1022B000F8090020000A0020040A0020E607002098
:1022C00000000020FC090020480A00204C0A0020E1
:1022D000800A002000004940880A0020790A002076
:1022E0007A0A0020660A00202B4B1B681846FEF76E
:1022F0003BF902460B462949C1E90023264B1B68DE
:102300001846FEF731F94FF00002254BFDF7CCFFE0
:1023100002460B462349C1E900231F4B1B681846A0
:10232000FEF722F94FF000021D4BFDF7BFFF0246FA
:102330000B4610461946FEF747FC0346164A136043
:10234000194B02221A70194B01221A70184B1B7874
:10235000DBB2012B17D0174B1B685B6A9AB2164B86
:102360001A80164B1B685B6A9AB2154B1A80FFF7EE
:102370003BF8144B6FF000421A60134B00221A70A6
:102380000B4B01221A70012301E000BF0023184605
:102390002037BD4680BD00BFFC090020800A002018
:1023A00000004940880A0020790A00207A0A0020AB
:1023B000E607002064050020F4090020AC05002099
:1023C000F6090020F8090020660A002080B584B0D4
:1023D00000AF87ED010AD7ED017A9FED1A7AF4EE8E
:1023E000C77AF1EE10FA01D5174B24E0DFED170A9A
:1023F00097ED010A0DF03EFBF0EE407A9FED147A66
:1024000067EE877AC7ED037AD7ED037A9FED117AED
:10241000F4EEC77AF1EE10FA01DD0B4B0BE0D7EDCD
:10242000037AB2EE047AF4EEC77AF1EE10FA01D52F
:10243000094B00E0FB6807EE903AB0EE670A1037F0
:10244000BD4680BDCDCCCC3D0000A042333393BF10
:1024500048E1DE410000A04200002041B0B5B2B02A
:1024600000AF03F0EBFB00F0D7F8FEF72DFF00F014
:10247000A1FC00F07FFC00F063FA00F0B9F900F075
:102480000BFA00F04DFC00F051FB00F0BDFB00F03A
:1024900081F900F0D7FA00F01DF900F017FC03F005
:1024A0003FFB4A4802F096FF01224949494808F09B
:1024B00064F902224849494803F09AFC484B07F165
:1024C000AC041D460FCD0FC495E8070084E8070053
:1024D00007F1AC030021184609F0F5F80346414A1C
:1024E0001360414B07F190041D460FCD0FC495E8D2
:1024F000070084E8070007F190030021184609F05F
:10250000E2F80346394A1360394B07F174041D465B
:102510000FCD0FC495E8070084E8070007F17403A6
:102520000021184609F0CFF80346324A1360324BB7
:1025300007F158041D460FCD0FC495E8070084E845
:10254000070007F158030021184609F0BCF80346BC
:102550002A4A13602A4B07F13C041D460FCD0FC4D5
:1025600095E8070084E8070007F13C0300211846BE
:1025700009F0A9F80346234A1360234B07F120040E
:102580001D460FCD0FC495E8070084E8070007F14A
:1025900020030021184609F096F803461B4A1360F1
:1025A0001B4B3C1D1D460FCD0FC495E8070084E86A
:1025B00007003B1D0021184609F085F80346154A1F
:1025C000136009F079F800BFFDE700BF1407002091
:1025D000E50700205C070020500A00206804002066
:1025E0003C040108A407002064040108A807002097
:1025F0008C040108AC070020B8040108B0070020D3
:10260000E0040108B40700200C050108B807002009
:1026100030050108BC07002080B594B000AF07F179
:1026200020033022002118460BF0CEF807F10C03EE
:1026300000221A605A609A60DA601A610023BB6057
:10264000224B1B6C214A43F0805313641F4B1B6CBD
:1026500003F08053BB60BB6800237B601C4B1B688E
:102660001B4A43F480431360194B1B6803F48043F7
:102670007B607B6802233B620123FB6210233B6388
:102680000023BB6307F12003184605F097FE0346BD
:10269000002B01D002F052FA0F23FB6000233B61B4
:1026A00000237B610023BB610023FB6107F10C0366
:1026B0000021184606F0FAF80346002B01D002F07C
:1026C0003DFA00BF5037BD4680BD00BF0038024014
:1026D0000070004080B584B000AF3B4600221A6015
:1026E0005A609A60DA60284B284A1A60264B4FF4E9
:1026F00040325A60244B00229A60234B01221A6117
:10270000214B01221A76204B002283F820201E4BF9
:102710000022DA621C4B1E4A9A621B4B0022DA60CE
:10272000194B0222DA61184B012283F83020164B34
:1027300000225A61144803F017FB0346002B01D016
:1027400002F0FCF90A233B6001237B600723BB6096
:102750003B4619460C4803F073FC0346002B01D09E
:1027600002F0ECF90B233B6002237B603B461946E9
:10277000054803F065FC0346002B01D002F0DEF9AA
:1027800000BF1037BD4680BD680400200020014016
:102790000100000F80B500AF124B134A1A60114BB5
:1027A000124A5A600F4B00229A600E4B0022DA60E8
:1027B0000C4B4FF480421A610A4B00225A61094BBC
:1027C00000229A61074B0022DA61064B00221A624E
:1027D000044804F0D1FD0346002B01D002F0AEF90D
:1027E00000BF80BD1005002000580040A0860100F9
:1027F00080B58CB000AF07F10C03242200211846ED
:102800000AF0E2FF3B1D00221A605A60214B4FF094
:1028100080421A601F4B00225A601E4B00229A60B1
:102820001C4B4FF6FF72DA601A4B00221A61194BEB
:1028300000229A610323FB6000233B6101237B613B
:102840000023BB610A23FB6100233B6201237B62FF
:102850000023BB620A23FB6207F10C0319460D48F3
:1028600006F0F4FC0346002B01D002F067F90023C8
:102870007B600023BB603B1D1946064807F0DCFD6A
:102880000346002B01D002F059F900BF3037BD4696
:1028900080BD00BF6405002080B58CB000AF07F19B
:1028A0000C032422002118460AF08EFF3B1D002253
:1028B0001A605A60204B214A1A601F4B00225A604E
:1028C0001D4B00229A601C4B4FF6FF72DA601A4BC8
:1028D00000221A61184B00229A610323FB60002337
:1028E0003B6101237B610023BB610A23FB61002361
:1028F0003B6201237B620023BB620A23FB6207F178
:102900000C0319460C4806F0A1FC0346002B01D02D
:1029100002F014F900237B600023BB603B1D1946C5
:10292000054807F089FD0346002B01D002F006F9A7
:1029300000BF3037BD4680BDAC050020000400401C
:1029400080B58EB000AF07F1280300221A605A60EC
:102950009A60DA6007F1200300221A605A603B1D7A
:1029600000221A605A609A60DA601A615A619A61AC
:10297000324B334A1A60314B00225A602F4B0022EF
:102980009A602E4B41F61F42DA602C4B00221A61EE
:102990002A4B00229A61294806F066F90346002B6B
:1029A00001D002F0CBF84FF48053BB6207F128034B
:1029B0001946224806F0CCFF0346002B01D002F056
:1029C000BDF81E4806F09FF90346002B01D002F027
:1029D000B5F800233B6200237B6207F12003194610
:1029E000164807F029FD0346002B01D002F0A6F897
:1029F00060237B600023BB600023FB6000237B61BE
:102A00003B1D082219460D4806F0E0FE0346002B48
:102A100001D002F093F83B1D0C221946074806F03E
:102A2000D5FE0346002B01D002F088F8034802F0DF
:102A3000A3FA00BF3837BD4680BD00BFF4050020B3
:102A40000008004080B58AB000AF07F118030022EB
:102A50001A605A609A60DA6007F1100300221A6067
:102A60005A603B4600221A605A609A60DA602D4B29
:102A70002D4A1A602B4B0F225A602A4B00229A6073
:102A8000284B4FF6FF72DA60264B00221A61254B65
:102A900000225A61234B00229A61224806F0E4F892
:102AA0000346002B01D002F049F84FF48053BB617C
:102AB00007F1180319461B4806F04AFF0346002B8E
:102AC00001D002F03BF8174806F03EFA0346002B0F
:102AD00001D002F033F800233B6100237B6107F152
:102AE000100319460F4807F0A7FC0346002B01D03E
:102AF00002F024F80A233B6001237B600023BB60C3
:102B00000023FB603B4604221946064806F0C2FD3E
:102B10000346002B01D002F011F800BF2837BD4654
:102B200080BD00BF3C0600200004014080B58CB091
:102B300000AF07F1200300221A605A609A60DA6041
:102B40003B1D00221A605A609A60DA601A615A616D
:102B50009A612B4B2B4A1A60294B00225A60284B52
:102B600000229A60264B41F61F42DA60244B002275
:102B70001A61234B00229A61214806F075F803463A
:102B8000002B01D001F0DAFF4FF480533B6207F1D4
:102B9000200319461A4806F0DBFE0346002B01D03D
:102BA00001F0CCFF164806F0AEF80346002B01D02A
:102BB00001F0C4FF60237B600023BB600023FB6047
:102BC00000237B613B1D002219460D4806F0FEFDE7
:102BD0000346002B01D001F0B1FF3B1D0422194632
:102BE000074806F0F3FD0346002B01D001F0A6FFD5
:102BF000034802F0C1F900BF3037BD4680BD00BFB9
:102C0000840600200040014080B58CB000AF07F181
:102C1000200300221A605A609A60DA603B1D00228D
:102C20001A605A609A60DA601A615A619A61254B9B
:102C3000254A1A60234BA0225A60224B00229A6038
:102C4000204B4FF47A72DA601E4B00221A611D4B42
:102C500000229A611B4806F007F80346002B01D0BA
:102C600001F06CFF4FF480533B6207F120031946DB
:102C7000144806F06DFE0346002B01D001F05EFF04
:102C8000104806F040F80346002B01D001F056FF33
:102C900060237B600023BB600023FB6000237B611B
:102CA0003B1D04221946074806F090FD0346002B01
:102CB00001D001F043FF034802F05EF900BF303756
:102CC000BD4680BDCC0600200018004080B500AF96
:102CD000114B124A1A60104B4FF4E1325A600E4BFE
:102CE00000229A600C4B0022DA600B4B00221A6122
:102CF000094B0C225A61084B00229A61064B0022B4
:102D0000DA61054807F028FC0346002B01D001F0EA
:102D100015FF00BF80BD00BF140700200044004025
:102D200080B500AF114B124A1A60104B4FF4E132DC
:102D30005A600E4B00229A600C4B0022DA600B4B5B
:102D400000221A61094B0C225A61084B00229A6139
:102D5000064B0022DA61054807F0FEFB0346002B14
:102D600001D001F0EBFE00BF80BD00BF5C0700207A
:102D70000048004080B582B000AF00237B600C4B60
:102D80001B6B0B4A43F480031363094B1B6B03F467
:102D900080037B607B6800220521382003F0CBFC98
:102DA000382003F0E4FC00BF0837BD4680BD00BFFB
:102DB0000038024080B58AB000AF07F1140300224A
:102DC0001A605A609A60DA601A6100233B61484BCE
:102DD0001B6B474A43F010031363454B1B6B03F017
:102DE00010033B613B690023FB60414B1B6B404A76
:102DF00043F0040313633E4B1B6B03F00403FB60BF
:102E0000FB680023BB603A4B1B6B394A43F001035C
:102E10001363374B1B6B03F00103BB60BB680023DC
:102E20007B60334B1B6B324A43F002031363304B1E
:102E30001B6B03F002037B607B6800233B602C4B21
:102E40001B6B2B4A43F008031363294B1B6B03F0E6
:102E500008033B603B6800224FF48071254804F072
:102E600057FA00224FF4F041234804F051FA0022AF
:102E70004021224804F04CFA4FF480737B61012317
:102E8000BB610023FB6100233B6207F11403194679
:102E9000184804F089F84FF4F0437B610123BB61CB
:102EA0000023FB6100233B6207F11403194612481B
:102EB00004F07AF840237B610123BB610023FB61AE
:102EC00000233B6207F1140319460C4804F06CF828
:102ED00001237B610023BB610023FB6107F1140325
:102EE0001946044804F060F800BF2837BD4680BD8D
:102EF0000038024000100240000C0240000802406E
:102F000080B500AF002240210A4804F001FA0220F7
:102F1000FEF7B2F901224021064804F0F9F90A202F
:102F2000FEF7AAF900224021024804F0F1F900BF9F
:102F300080BD00BF0008024080B487B000AFF860D9
:102F4000B9607A60FA68BB68934238BF13467A6802
:102F5000934238BF13467B61FA68BB68934228BF2F
:102F600013467A68934228BF13463B61FA68BB68F0
:102F70001A447B681A447B69D21A3B69D31A1846F3
:102F80001C37BD465DF8047B7047000080B584B0F7
:102F900000AF78607B681B684A4A934240F08D809E
:102FA0007B681B7F022B40F08880474B1B78DBB28D
:102FB000002B17D17B681B6800225A627B681B6854
:102FC0001A6A7B681B6822F0A0021A627B681B6881
:102FD0001A6A7B681B6842F020021A623A4B01228F
:102FE0001A706BE00421786806F07AFD03469AB205
:102FF000364B1A807B681B681A6A7B681B6822F054
:10300000A0021A627B681A687B681B68126A1A62DF
:103010002D4B00221A702D4B1B889BB207EE903A65
:10302000F8EEE77A9FED2A7A67EE877AB6EE007AB5
:1030300077EE877AFCEEE77A17EE903ABB60254B85
:103040001B781946244ABB6842F82130214B1B7873
:10305000591C224BA3FB01235A0813465B0013445F
:10306000CA1AD2B21B4B1A701D4B1B78022B05D803
:103070001B4B1B780133DAB2194B1A70BB68FB602B
:10308000174B1B78032B09D1134B1B68124A51684D
:10309000114A92681846FFF74FFFF860FB6807EE89
:1030A000903AF8EE677A0F4BC3ED007A0E4AFB6850
:1030B00013600E4B01221A7000E000BF1037BD46AE
:1030C00080BD00BF00040140900A0020920A002049
:1030D000287E8C3CD8070020CC070020ABAAAAAAE7
:1030E000D9070020C4070020C0070020C80700201F
:1030F00080B584B000AF78607B681B68344A934227
:1031000062D1344B1B78BB73BB7B0D2B02D0BB7BD6
:103110000A2B42D1304B1B781A46304B0021995470
:103120002D4B1B78002B34D00023FB7322E0FB7B5C
:103130002A4AD35C402B0CD9FB7B284AD35C5A2B00
:1031400007D8FB7B254AD25CFB7B2032D1B2234AD5
:10315000D154FB7B214AD35C3B2B04D0FB7B1F4A21
:10316000D35C2C2B03D1FB7B1C4A2021D154FB7B4D
:103170000133FB73184B1B78FA7B9A42D7D317485D
:10318000FEF7F8FB164B1B78DBB2002B01D1FEF7E4
:10319000A9FD114B00221A7011E00F4B1B78FF2B79
:1031A0000AD00D4B1B785A1CD1B20B4A117019462C
:1031B0000A4ABB7B535402E0074B00221A700122DB
:1031C0000449084807F0D9FA00BF1037BD4680BD52
:1031D00000480040E5070020E8080020E80700203C
:1031E000E60700205C07002080B485B000AF78605F
:1031F0007B681B68354A934261D1354B1B889BB273
:103200001A4640F6E44302FB03F303F2FF72314B2C
:10321000A3FB0213D21A52081344DB0AFB812C4B86
:103220005B889BB21A4640F6E44302FB03F303F2C9
:10323000FF72284BA3FB0213D21A52081344DB0A75
:10324000BB81254B1B889BB29A00FB891344234A00
:10325000A2FB03239B089AB21F4B1A80204B1B88AA
:103260009BB29A00BB8913441C4AA2FB03239B0810
:103270009AB21B4B1A80164B1B889AB2194B1A80B4
:10328000134B5B889AB2184B1A80134B1B889BB266
:1032900040F21F3293428CBF01230023DBB21A4657
:1032A000124B1A700E4B1B889BB240F21F32934296
:1032B0008CBF01230023DBB21A460D4B1A7000BFEE
:1032C0001437BD465DF8047B704700BF0020014005
:1032D000500A002001011000620A0020CDCCCCCCA5
:1032E000640A0020540A0020560A0020600A0020C8
:1032F000610A002080B584B000AF78604123FB7381
:103300004FF48071044804F01CF84FF47A7008F010
:1033100026FA00BFF4E700BF0010024080B58EB06F
:1033200002AF78600121684803F0DAFF034687F8AE
:103330002F30664B1B78012B11D197F82F30002BC3
:103340000DD1634B1B780133002B03F00103B8BF91
:103350005B42DAB25E4B1A70322008F000FA5B4A28
:1033600097F82F3013705A4B1B78002B4BD1594BC9
:10337000D3ED007AFDEEE77A07F10C0017EE903AF4
:10338000554A20210AF0A6F907F10C031A4600213C
:10339000002002F093FB514BD3ED007AFDEEE77A6B
:1033A00007F10C0017EE903A4D4A20210AF092F9ED
:1033B00007F10C031A461021002002F07FFB494B55
:1033C0001A68494B1B6807F10C0000931346474AE3
:1033D00020210AF07FF907F10C031A462021002072
:1033E00002F06CFBFEF782FA034607F10C00404A3C
:1033F00020210AF06FF907F10C031A463021002052
:1034000002F05CFB5AE0324B1B78012B56D1394B52
:103410001B6807F10C00384A20210AF05BF907F11C
:103420000C031A460021002002F048FB334B1B8896
:103430009BB21A46324B1B78DBB207F10C000093AB
:103440001346304A20210AF045F907F10C031A46C9
:103450001021002002F032FB2B4B1B889BB21A4636
:103460002A4B1B78DBB207F10C0000931346284A65
:1034700020210AF02FF907F10C031A462021002021
:1034800002F01CFB234BD3ED007ABDEEE77A224B12
:10349000D3ED007AFDEEE77A17EE903A07F10C00D3
:1034A000009317EE103A1D4A20210AF013F907F194
:1034B0000C031A463021002002F000FB02F086F9CE
:1034C000142008F04CF92DE7001002401A000020EB
:1034D0009C0A0020000A00204C050108FC0900207D
:1034E00058050108DC070020E007002064050108FA
:1034F00070050108C00700207C050108620A002051
:10350000600A002090050108640A0020610A00207A
:10351000A0050108940A0020980A0020B0050108BF
:10352000B0B5CEB004AF07F59473A3F592731860ED
:103530000421AB4805F040FCFDF756FF0821A948DF
:1035400005F03AFC0C21A74805F036FC0021A648FE
:1035500005F032FC0421A44805F02EFCFDF7CCFE5A
:10356000A24B1B78DBB2002B62D0A14B1B78DBB2E5
:103570003B639E4B00221A709E4B00221A709E4B9A
:1035800000221A609D4B4FF000021A609C4B0022F3
:103590001A609C4B4FF000021A609B4B00221A707D
:1035A0009A4B00221A70FDF7A7FE994B00221A6071
:1035B000386BFDF7A0FF0346002B03D0386BFEF7F6
:1035C0001CF801E0FDF710FF924B00221A60FDF796
:1035D0006DFD874B00221A708F4B00221A608F4BB3
:1035E00000221A70FEF778F807F59473A3F580733C
:1035F0008B4A92E80300186004331980894B1B78CA
:10360000DBB2002B0FD1874B01221A7007F1280380
:1036100005221946844807F07AF80346002B02D0A9
:10362000804B00221A70052008F099F801F019B8B3
:103630006F4B1B78DBB2072B00F3F887042B80F26B
:103640001A86022B03DC002B06DC00F0EFBF032BF5
:1036500000F0DF8700F0EABF744BC7F8D430734B3B
:10366000C7F8D0304FF00003C7F8CC30704B1B6860
:103670005B6AA7F8CA306F4B1B685B6AA7F8C83053
:103680006D4B1B889BB2B7F8CA20D31A9BB21BB2F2
:10369000C7F8C430694B1B889BB2B7F8C820D31A4F
:1036A0009BB21BB25B42C7F8C030D7F8C420D7F832
:1036B000C0301344DA0F13445B10C7F8BC3000234A
:1036C00087F82731534B1B68002B0ADB514B1B68D3
:1036D000D7F8BC209A42ACBF0123002387F82731DA
:1036E00009E04C4B1B68D7F8BC209A42D4BF012399
:1036F000002387F82731002387F826313C4B1B78BD
:10370000DBB2012B40F020813A4B1B78DBB2002B5F
:1037100000F01A81374B1B78DBB2013B062B00F21D
:103720000E8101A252F823F069380008EF38000832
:10373000033900083F390008173900082B39000801
:10374000453700083E4B1B889BB21A463D4B1B6811
:103750009A422CBF0123002387F82631394B1B687E
:10376000142B00F2EE80384B1B78DBB2002B00F0FC
:10377000E8802C4B1B78DBB2002B15D1314B1B683A
:1037800007F10800314A202109F0A4FFC7F8B8006A
:10379000244B01221A70D7F8B8309AB207F1080307
:1037A0001946214806F0B3FF294B1B68294A1360CC
:1037B000FDF71AFE0F4B04221A70164B264A1A60A8
:1037C000264B00221A60264B00221A60002387F83D
:1037D0002631244B01221A70054B02221A70B0E0E8
:1037E000CC060020F405002084060020E407002019
:1037F000E6070020660A0020680A00206C0A002004
:10380000700A0020740A0020790A00207A0A002039
:10381000EC080020F8090020480A00204C0A00208B
:10382000E4050108F20900205C070020A69B443B48
:1038300064050020AC050020F4090020F6090020F2
:1038400014000020C007002016000020C405010855
:10385000FC090020040A002001000080A00A0020CA
:10386000A40A0020780A00208D4B1B681A2B94BFF5
:103870000123002387F82631894B1B68142B62D85B
:10388000884B1B78DBB2002B15D1854B1B6807F1E9
:103890000800854A202109F01DFFC7F8B400814BBC
:1038A00001221A70D7F8B4309AB207F1080319460A
:1038B0007E4806F02CFF7E4B1B687E4A1360FDF7A6
:1038C00093FD7D4B04221A707C4B7D4A1A607D4B20
:1038D00000221A607C4B00221A60002387F82631F0
:1038E0007A4B01221A707A4B02221A702BE0794B24
:1038F0001B78DBB2002B0CBF0123002387F8263195
:1039000022E0754B1B78DBB2002B0CBF0123002398
:1039100087F8263118E06F4B1B78DBB2012B0CBF08
:103920000123002387F826310EE06B4B1B78DBB2B6
:10393000012B0CBF0123002387F8263104E000BFD0
:1039400002E000BF00E000BF614B1B78DBB2022B3E
:103950000CD1594B1B78DBB2042B07D1504B1B68A1
:10396000132B8CBF0123002387F8263197F82631CB
:10397000002B3BD0504B1B78DBB2012B04D04E4BBD
:103980001B78DBB2072B31D1544B1B6807EE903A02
:10399000B8EEE77ADFED526AC7EE267A514BC3EDF7
:1039A000007A404B1B78DBB2002B1FD14D4B1B68BC
:1039B0001846FCF7D9FD02460B463949096807F15C
:1039C00008000291CDE90023474A202109F082FE38
:1039D000C7F8B000334B01221A70D7F8B0309AB252
:1039E00007F108031946314806F091FE97F8263191
:1039F000002B38D0304B1B78DBB2022B04D02E4B7F
:103A00001B78DBB2032B2ED1384B1B6807EE903AA4
:103A1000B8EEE77ADFED326AC7EE267A344BC3EDB3
:103A2000007A204B1B78DBB2002B1CD1304B1B687B
:103A30001846FCF799FD02460B4607F10800CDE950
:103A400000232C4A202109F045FEC7F8AC00154B95
:103A500001221A70D7F8AC309AB207F10803194660
:103A6000124806F054FE97F82731002B03D197F83F
:103A70002631002B42D0FDF73FFC0F4B00221A707D
:103A8000104B00221A60104B00221A60104B0022CB
:103A90001A7002F039F90346174A136000F0DEBDD0
:103AA000C0070020F2090020C40501085C070020BF
:103AB000FC090020040A0020660A0020F809002002
:103AC00001000080A00A0020A40A0020780A00203B
:103AD000E6070020610A0020600A0020680A002032
:103AE000896D93426C0A0020D0050108700A0020FD
:103AF000740A0020DC050108EC08002002F004F93B
:103B0000C7F8A800C24B1B68002B0BD1C04AD7F8DE
:103B1000A8301360BF4AB7F8CA301380BE4AB7F85E
:103B2000C8301380BD4B1B78DBB2002B14D0B94AD0
:103B3000B7F8CA301380B84AB7F8C8301380B44A0F
:103B4000D7F8A8301360B54B00221A70B44B00228E
:103B50001A60B44B00221A60AE4B1B88B7F8CA201B
:103B6000D31A9BB2A7F8A630AB4B1B88B7F8C82076
:103B7000D31A9BB2A7F8A430B7F8A4305B429BB22B
:103B8000A7F8A430A84B1B78DBB2012B1AD1A74BA6
:103B90001B78DBB2012B04D0A44B1B78DBB2072BC4
:103BA00010D1B7F9A620B7F9A4301344DA0F1344A3
:103BB0005B10C7F8A0309E4B1A68D7F8A0301344AA
:103BC0009B4A1360984B1B78DBB2012B1AD1974BA1
:103BD0001B78DBB2022B04D0944B1B78DBB2032B97
:103BE00010D1B7F9A620B7F9A4301344DA0F134463
:103BF0005B10C7F89C308F4B1A68D7F89C30134481
:103C00008C4A1360824B1B68D7F8A820D31AC7F8D8
:103C10002031D7F82031002B02D10123C7F8203101
:103C2000B7F9A6304FF47A7203FB02F2D7F82031CD
:103C300092FBF3F3C7F89830B7F9A4304FF47A72D7
:103C400003FB02F2D7F8203192FBF3F3C7F894306C
:103C5000D7F8203107EE903AB8EE677ADFED766A52
:103C6000C7EE267AC7ED247AD7ED247A9FED737AD2
:103C700037EE877AD7ED246AC6EE877AC7ED237AC6
:103C8000D7F8983007EE903AB8EEE77A6C4BD3ED60
:103C9000007A37EE677AD7ED237A27EE277A684BDA
:103CA000D3ED007A77EE277A654BC3ED007AD7F82B
:103CB000943007EE903AB8EEE77A624BD3ED007A93
:103CC00037EE677AD7ED237A27EE277A5D4BD3ED6F
:103CD000007A77EE277A5B4BC3ED007A4D4AB7F84E
:103CE000CA3013804C4AB7F8C8301380484AD7F816
:103CF000A8301360524B93ED007A524BD3ED007A0B
:103D000077EE677AFDEEE77A17EE903AC7F88830DB
:103D10004D4B93ED007A4D4BD3ED007A77EE677AF9
:103D20004B4BC3ED007A4B4BC7F88430484B93EDB7
:103D3000007AD7ED217A67EE277AFDEEE77A17EE63
:103D4000903AC7F88030D7F88820D7F880301344ED
:103D5000FB67334B1A68FB6F1344314A1360314BD6
:103D60001B68FA6FD31ABB672E4AFB6F1360FB6F99
:103D700007EE903AB8EEE77AD7ED357A27EE277A54
:103D8000274B1B6807EE903AF8EEE76AD7ED347AD6
:103D900066EEA77A37EE277ABB6F07EE903AF8EE19
:103DA000E76AD7ED337A66EEA77A77EE277AC7ED22
:103DB0001D7AD7ED1D7AFDEEE77A17EE903A3B6754
:103DC00040F6D863FB664FF07E53BB664FF07E53E0
:103DD0007B66F86EFCF7B6FB0BA3D3E90023FCF778
:103DE0001BFC02460B4610461946FCF7C5FE03466F
:103DF0003B66FB6EFB650C4B1B78DBB2012B4ED197
:103E00002AE000BFAFF300808FC2F5285C8FF23F3D
:103E1000A80A0020AC0A0020AE0A0020780A002080
:103E2000A00A0020A40A0020E6070020660A00205D
:103E3000680A0020700A002000007A44CDCC4C3D76
:103E4000B00A0020B40A0020040A0020000A002062
:103E5000080A0020000070413A6E3B6F134407EEE1
:103E6000903AB8EEE77AD7ED1A7A67EE277AFDEE48
:103E7000E77A17EE903AC7F81C31FA6D3B6FD31A08
:103E800007EE903AB8EEE77AD7ED197A67EE277A1F
:103E9000FDEEE77A17EE903AC7F8183121E03A6E56
:103EA0003B6FD31A07EE903AB8EEE77AD7ED1A7A5D
:103EB00067EE277AFDEEE77A17EE903AC7F81C31E5
:103EC000FA6D3B6F134407EE903AB8EEE77AD7ED00
:103ED000197A67EE277AFDEEE77A17EE903AC7F87F
:103EE0001831D7F81C01FDF7EFFAC7F81C01D7F815
:103EF0001801FDF7E9FAC7F81801AF4B93ED007A06
:103F0000AE4BD3ED007A77EE677AAD4BC3ED007A16
:103F10004FF07E53BB65AA4B1B68C7F81431D7ED31
:103F2000457AF0EEE77A9FEDA77AF4EEC77AF1EEE4
:103F300010FA03D54FF00003C7F8143197ED167A45
:103F4000D7ED457A67EE277AFDEEE77A17EE903ADD
:103F50007B659D4B1B88C7F810319C4B1B78DBB2EF
:103F6000012B06D1D7F810217B6DD31AC7F8103179
:103F700005E0D7F810217B6D1344C7F81031D7F84E
:103F800010316D2B02DC6E23C7F81031D7F81031D9
:103F9000F02B02DDF023C7F810318D4B1B78DBB21C
:103FA000002B00F029818B4B1B78DBB2012B4ED10B
:103FB000874B1B78DBB2012B01D1F52200E0642294
:103FC000854B1B689A63824B1B78DBB2012B0CD1AB
:103FD00041F28833BB6341F664137B63B86BFDF732
:103FE000ABF9786BFDF7BEF90BE041F288333B6427
:103FF00041F66413FB63386CFDF7B4F9F86BFDF719
:104000009BF9734B1B78DBB2012B0AD16B4B93ED01
:10401000007A724BD3ED007AB4EEE77AF1EE10FA43
:1040200011D96B4B1B78DBB2022B40F0EA80634B5B
:1040300093ED007A694BD3ED007AB4EEE77AF1EEB6
:1040400010FAC0F2DE80634B02221A70D9E0614B95
:104050001B78DBB2022B40F0A8805D4B1B78DBB2F3
:10406000012B01D1642200E0F5225B4B1B689A63AF
:10407000574B1B78DBB2012B0CD141F28833BB6468
:1040800041F664137B64B86CFDF76CF9786CFDF74E
:1040900053F90BE041F288333B6541F66413FB644E
:1040A000386DFDF749F9F86CFDF75CF94C4BD3E935
:1040B000002310461946FCF787FD0346474A136064
:1040C000434B1B78DBB2012B19D13C4B1B681846C4
:1040D000FCF74AFA04460D46404B1B681846FCF7AD
:1040E00043FA4FF000023F4BFCF7DEF802460B4666
:1040F00020462946FCF716FD0346002B1ED1344B03
:104100001B78DBB2022B7CD12C4B1B681846FCF7CA
:104110002BFA04460D46314B1B681846FCF724FA6F
:104120004FF000022F4BFCF7C1F802460B46204629
:104130002946FCF7EDFC0346002B62D0244B0022FD
:104140001A70244B00221A70254BD3E90023104625
:104150001946FCF739FD0346204A13601E4B1B68C5
:10416000D7F810219A631A4B1B78DBB2012B01D1CF
:10417000FDF796F9164B1B78DBB2022B01D1FDF748
:104180007BF9FDF7B9F8184B00221A70174B002283
:104190001A60174B00221A600C4B00221A7001F0B3
:1041A000B3FD0346134A13602BE00B4B1B68D7F893
:1041B00010219A6325E000BF040A0020000A0020B5
:1041C000080A00209A99993E18000020E60700206E
:1041D000790A00207A0A0020CC060020FC09002081
:1041E000800A002000001440660A0020A00A002077
:1041F000A40A0020EC080020984B1B68D7F8102177
:104200009A63974B1B78DBB2012B19D1954B1B7826
:10421000DBB2002B14D1944B1B68D7F81C21DA6356
:10422000914B1B6841F61F421A64904B1B68D7F8EC
:1042300018215A638D4B1B6841F61F429A6308E2AE
:10424000874B1B78DBB2022B40F00382864B1B6846
:1042500041F61F42DA63844B1B68D7F81C211A64AD
:10426000824B1B6841F61F425A63804B1B68D7F88C
:1042700018219A63EDE17A4B1B78DBB2C7F8003165
:1042800001F042FDC7F8FC00794B1B68002B0CD0F5
:10429000774B1B68D7F8FC20D31A002B05DBFDF702
:1042A0002BF8744B01221A70D8E1734B1B68002B5A
:1042B00015D0714B1B68D7F8FC20D31A002B0EDAEF
:1042C000FDF71AF86D4B4FF000021A606C4B41F687
:1042D0001F421A606B4B41F61F421A60BEE1664BEB
:1042E00000221A60684B1B78DBB2002B01D1FDF76E
:1042F00097F9D7F80001FDF747F987ED3E0A634BC0
:1043000093ED007A624BD3ED007A77EE677AC7EDD2
:104310003D7A97ED3E7AD7ED3D7A67EE277AC7ED85
:104320003C7A5C4BD3ED007A97ED3E7A67EE277AC4
:10433000C7ED3B7A584AD7F8F4301360524B1B78DC
:10434000DBB2022B4BD1FCF7D7FF4C4B4FF00002F6
:104350001A604B4B41F61F421A604A4B41F61F420E
:104360001A604E4B1B68D7F8FC20D31A002BC0F202
:104370007281D7ED3D7AF0EEE77AB7EE007AF4EE8F
:10438000C77AF1EE10FA0AD9D7ED3C7AF5EEC07A89
:10439000F1EE10FA03D9424B1B78022B04D9D7F85F
:1043A0000001FDF72BFA59E13D4B1B780133DAB2DE
:1043B0003B4B1A703B4B4FF000021A603A4AD7F859
:1043C000FC301360304B01221A70D7F80001FDF762
:1043D000F5F8D7F8FC305033274A13603EE1D7EDAB
:1043E0003B7AF5EEC07AF1EE10FA02DDD7F8EC3048
:1043F00001E04FF00003C7F8E830D7ED3A7A9FEDBF
:104400002B7A67EE877AB7EE007A77EE877AC7ED78
:10441000397A97ED3C7AD7ED397AB4EEE77AF1EE56
:1044200010FA45D8FCF768FFD7F80001FDF7E5F86A
:10443000124B4FF000021A60114B41F61F421A60F6
:10444000104B41F61F421A600F4B02221A70D7F828
:10445000FC309633114A136000E100BFCC06002007
:10446000E6070020790A0020F405002084060020D9
:10447000400A0020E4070020480A0020300A0020FB
:10448000080000200C000020280A0020FC09002061
:10449000000A0020240A00202C0A00203C0A0020E8
:1044A000440A0020340A0020380A0020295C0F3D0D
:1044B0006D4B1B68D7F8FC20D31A07EE903AF8EE44
:1044C000677A9FED6A7A67EE877AC7ED437AD7ED10
:1044D000437A9FED667AF4EEC77AF1EE10FA02D5D0
:1044E000634BC7F80C31D7ED437A9FED627AF4EE57
:1044F000C77AF1EE10FA02DD5F4BC7F80C315A4A69
:10450000D7F8FC30136097ED3C7AD7ED437A27EE6D
:10451000277A5A4BD3ED007A77EE277AC7ED427AA5
:10452000D7ED427A9FED567AF4EEC77AF1EE10FAA3
:1045300002DD544BC7F80831D7ED427A9FED527A2D
:10454000F4EEC77AF1EE10FA02D5504BC7F80831F5
:10455000D7ED3C7AB3EE097A27EE877AD7ED427A27
:10456000DFED4B6A67EEA67A37EE277AD7ED3B7A16
:1045700077EEA77A77EE677AC7ED417AD7ED417A81
:104580009FED447AF4EEC77AF1EE10FA03D53B4A78
:10459000D7F808311360D7ED417A9FED3E7AF4EEFB
:1045A000C77AF1EE10FA02DD3B4BC7F80431D7EDC4
:1045B000417A9FED3A7AF4EEC77AF1EE10FA02D51D
:1045C000374BC7F80431D7F80001FCF7C6FF354B6D
:1045D000C7F8E03097ED410AFDF7B6F8C7F8DC0000
:1045E00097ED417AD7ED387A67EE277AB0EE670A11
:1045F000FDF7AAF8C7F8D8002B4AD7F804311360A2
:10460000D7F8D820D7F8DC10D7F80001FDF7B8F8B4
:1046100024E0FCF771FE254B00221A7001F074FBB8
:10462000034603F5AF73224A136017E0FCF7CCFC96
:104630000346002B09D101F067FB02461C4B1B68A7
:104640009A420AD3FDF74EFB07E0194B00221A608D
:1046500003E000BF02E000BF00E000BF052007F05C
:104660007EF8FEF77DBF00BF380A00206F12833A44
:104670006F12833ACDCC4C3DCDCC4C3D340A00205A
:104680000000704200007042000070C2000070C262
:104690000000000000C0004500C00045008022442A
:1046A000008022443D0AD73E300A0020E607002061
:1046B000EC080020F0B52DED068B87B000AF7860D8
:1046C0003C21414804F068FE3C21404804F064FE6F
:1046D0003D4B1B685B6AFB823C4B1B685B6ABB8281
:1046E00001F012FB386101F00FFB02463B69D31A5F
:1046F000132B65D9344B1B685B6AFB81FA89FB8AF3
:10470000D31A9BB21BB21A46314B1A60FB89FB824B
:104710002E4B1B685B6ABB81BA89BB8AD31A9BB2DA
:104720001BB21A462B4B1A602A4B1B685B42294A64
:104730001360BB89BB823B6914333B61244B1B680C
:1047400018B2244B1B6819B2234B1B78DBB2002B29
:1047500001D0012300E000231A4600F0A5FE1F4B04
:1047600093ED008A1E4BD3ED008A1E4B93ED009A09
:104770001D4BD3ED009A1D4B93ED00AA1C4B1C68FA
:104780001C4B1D681C4B1B78DEB2134B1B78DBB235
:104790001846FCF7B0FE0346002B01D0012300E0D1
:1047A0000023324629462046B0EE4A2AF0EE691A26
:1047B000B0EE491AF0EE680AB0EE480A00F054FF75
:1047C000012006F0CCFF8EE764050020AC05002038
:1047D000DC070020E0070020E6070020000A002098
:1047E000FC090020240A00202C0A0020300A0020A6
:1047F000080000200C000020280A002080B58CB0A2
:1048000000AF7860FCF7E6FC0023BB810023FB824D
:104810004FF00003FB620023BB621FE00A2006F09A
:104820009EFF07F10C0319463720FCF785FC3B7B04
:104830001BB21B021AB27B7B1BB21343FB82B7F97C
:10484000163007EE903AF8EEE77A97ED0B7A77EEAE
:10485000277AC7ED0B7ABB6A0133BB62BB6AC72BF1
:10486000DCDD97ED0B7ADFED416AC7EE267AC7ED06
:104870000B7A97ED0B7ADFED3E6AC7EE267A3D4B59
:10488000C3ED007A01F040FA78624FF000033B621A
:104890000A2006F064FF07F10C0319463720FCF7E5
:1048A0004BFC3B7B1BB21B021AB27B7B1BB213433C
:1048B000FB8201F029FA38613A697B6AD31A07EE64
:1048C000903AF8EE677A9FED2C7A67EE877AC7ED1B
:1048D000077A3B697B62D7ED077A9FED287AF4EE81
:1048E000C77AF1EE10FA01DD254BFB61B7F91630FE
:1048F00007EE903AB8EEE77AD7ED0B7A77EE677A63
:10490000DFED1B6A87EEA67A1E4BD3ED007A67EEC9
:10491000277AC7ED067AD7ED067AF0EEE77AB6EE9B
:10492000007AF4EEC77AF1EE10FA02D54FF00003E8
:10493000BB6197ED087AD7ED067A77EE277AB6EE67
:10494000007A27EE877AD7ED077A27EE277A0E4B83
:10495000D3ED007A77EE277A0B4BC3ED007ABB6973
:104960003B620A4ABB69136092E700BF00004843FC
:1049700033338341200A00206F12833ACDCC4C3D63
:10498000CDCC4C3D10000020000A0020240A00205D
:1049900080B582B000AF786004210C4804F02EFB93
:1049A000FEF7AEFA0A4B00221A7002E0012006F070
:1049B000D6FE074B1B78DBB283F00103DBB2002B82
:1049C000F4D13C2006F0CBFEEAE700BF3C06002015
:1049D000C807002080B588B000AF78604A4B7B6183
:1049E0004FF00003FB614FF00003BB61474B1B8896
:1049F0007B82464B5B883B827B8A07EE903AF8EEDF
:104A0000677A9FED437A27EE877ADFED426AC7EE39
:104A1000267AC7ED037A3B8A07EE903AF8EE677A7A
:104A20009FED3B7A27EE877ADFED3A6AC7EE267A6A
:104A3000C7ED027AB7EE007AD7ED057A37EE677ADE
:104A4000D7ED077A27EE277AD7ED056AD7ED037AF7
:104A500066EEA77A77EE277AC7ED077AB7EE007A87
:104A6000D7ED057A37EE677AD7ED067A27EE277A03
:104A7000D7ED056AD7ED027A66EEA77A77EE277A48
:104A8000C7ED067A244A7B8A1380244A3B8A138026
:104A9000234AFB691360234ABB69136097ED070A39
:104AA000FDF794FCF0EE407A1F4BC3ED007A97EDD2
:104AB000060AFDF78BFCF0EE407A1C4BC3ED007A42
:104AC000D7ED077A9FED1A7AF4EEC77AF1EE10FA75
:104AD000ACBF01230023DBB21A46164B1A70D7ED88
:104AE000067A9FED137AF4EEC77AF1EE10FAACBFB6
:104AF00001230023DBB21A460F4B1A700A2006F07E
:104B00002EFE00BF72E700BFCDCC4C3E500A002005
:104B10003333534000F07F45540A0020560A0020EA
:104B2000580A00205C0A0020940A0020980A0020FD
:104B3000CDCC4C3F600A0020610A002080B400AF59
:104B400072B600BF00BFFDE780B582B000AF0023A2
:104B50007B60124B5B6C114A43F4804353640F4BF0
:104B60005B6C03F480437B607B6800233B600B4BF2
:104B70001B6C0A4A43F080531364084B1B6C03F010
:104B800080533B603B6800220F216FF0010001F071
:104B9000D2FD00BF0837BD4680BD00BF00380240CF
:104BA00080B58AB000AF786007F1140300221A6064
:104BB0005A609A60DA601A617B681B682F4A9342D8
:104BC00057D100233B612E4B5B6C2D4A43F480731D
:104BD00053642B4B5B6C03F480733B613B69002394
:104BE000FB60274B1B6B264A43F004031363244BE3
:104BF0001B6B03F00403FB60FB6803237B6103234F
:104C0000BB610023FB6107F1140319461D4802F044
:104C1000CBF91D4B1D4A1A601B4B00225A601A4BE0
:104C200000229A60184B0022DA60174B4FF4806222
:104C30001A61154B4FF400625A61134B4FF4005246
:104C40009A61114B4FF48072DA610F4B00221A62A5
:104C50000D4B00225A620C4801F0A4FD0346002BC4
:104C600001D0FFF76BFF7B68074A9A63064A7B68AF
:104C7000936300BF2837BD4680BD00BF00200140C0
:104C80000038024000080240B004002010640240D6
:104C900080B58AB000AF786007F1140300221A6073
:104CA0005A609A60DA601A617B681B68194A9342FD
:104CB0002CD100233B61184B1B6B174A43F00203B6
:104CC0001363154B1B6B03F002033B613B694FF40D
:104CD00040637B611223BB610023FB6103233B62C2
:104CE00004237B6207F1140319460C4802F05CF9B7
:104CF0000023FB60084B1B6C074A43F480031364DA
:104D0000054B1B6C03F48003FB60FB6800BF283776
:104D1000BD4680BD005800400038024000040240FB
:104D200080B58CB000AF786007F11C0300221A60D8
:104D30005A609A60DA601A617B681B68B3F1804F31
:104D40004BD10023BB613F4B1B6C3E4A43F0010338
:104D500013643C4B1B6C03F00103BB61BB69002374
:104D60007B61384B1B6B374A43F001031363354BB0
:104D70001B6B03F001037B617B6900233B61314BBB
:104D80001B6B304A43F0020313632E4B1B6B03F083
:104D900002033B613B694FF40043FB6102233B622A
:104DA00000237B620023BB620123FB6207F11C032B
:104DB0001946254802F0F8F80823FB6102233B62FC
:104DC00000237B620023BB620123FB6207F11C030B
:104DD00019461E4802F0E8F830E07B681B681C4A60
:104DE00093422BD10023FB60164B1B6C154A43F0FA
:104DF00002031364134B1B6C03F00203FB60FB689C
:104E00000023BB600F4B1B6B0E4A43F0020313637E
:104E10000C4B1B6B03F00203BB60BB683023FB61D0
:104E200002233B6200237B620023BB620223FB62FE
:104E300007F11C031946054802F0B6F800BF3037E9
:104E4000BD4680BD00380240000002400004024020
:104E50000004004080B58CB000AF786007F11C03FF
:104E600000221A605A609A60DA601A617B681B68D7
:104E70003B4A93420ED10023BB613A4B1B6C394A2B
:104E800043F004031364374B1B6C03F00403BB6152
:104E9000BB6960E07B681B68334A934234D10023CE
:104EA0007B61304B5B6C2F4A43F0020353642D4B04
:104EB0005B6C03F002037B617B6900233B61294B40
:104EC0001B6B284A43F004031363264B1B6B03F050
:104ED00004033B613B698023FB6102233B620023A7
:104EE0007B620023BB620323FB6207F11C031946AC
:104EF0001E4802F059F8002205212E2001F01BFC6B
:104F00002E2001F034FC26E07B681B68184A93428F
:104F10000ED10023FB60134B5B6C124A43F48033C9
:104F20005364104B5B6C03F48033FB60FB6812E04E
:104F30007B681B680F4A93420DD10023BB60094B6D
:104F40001B6C084A43F040031364064B1B6C03F0D0
:104F50004003BB60BB6800BF3037BD4680BD00BFAB
:104F600000080040003802400004014000080240F0
:104F7000004001400018004080B58AB000AF786062
:104F800007F1140300221A605A609A60DA601A610D
:104F90007B681B68374A93421FD100233B61364B25
:104FA0001B6B354A43F002031363334B1B6B03F057
:104FB00002033B613B694FF440737B610223BB6199
:104FC0000023FB6100233B6202237B6207F1140391
:104FD00019462A4801F0E8FF47E07B681B68284A29
:104FE00093421ED10023FB60234B1B6B224A43F0EC
:104FF00010031363204B1B6B03F01003FB60FB6873
:1050000060237B610223BB610023FB6100233B62C1
:1050100003237B6207F1140319461A4801F0C4FF09
:1050200023E07B681B68184A93421ED10023BB60B3
:10503000114B1B6B104A43F0020313630E4B1B6BA7
:1050400003F00203BB60BB684FF400437B610223A3
:10505000BB610023FB6100233B6209237B6207F1F4
:1050600014031946054801F09FFF00BF2837BD46CD
:1050700080BD00BF0008004000380240000402402C
:1050800000400140001002400018004080B58CB084
:1050900000AF786007F11C0300221A605A609A6022
:1050A000DA601A617B681B68364A93422CD1002370
:1050B000BB61354B1B6C344A43F400331364324BF1
:1050C0001B6C03F40033BB61BB6900237B612E4B77
:1050D0001B6B2D4A43F0010313632B4B1B6B03F037
:1050E00001037B617B690C23FB6102233B6200238C
:1050F0007B620323BB620723FB6207F11C03194693
:10510000224801F051FF39E07B681B68204A934236
:1051100034D100233B611C4B1B6C1B4A43F480239E
:105120001364194B1B6C03F480233B613B69002320
:10513000FB60154B1B6B144A43F008031363124BBF
:105140001B6B03F00803FB60FB684FF44073FB61CB
:1051500002233B6200237B620323BB620723FB62C3
:1051600007F11C0319460B4801F01EFF0022052120
:10517000272001F0E0FA272001F0F9FA00BF3037CC
:10518000BD4680BD0044004000380240000002409F
:1051900000480040000C024080B400AF00BFFDE7B3
:1051A00080B400AF00BFFDE780B400AF00BFFDE7F3
:1051B00080B400AF00BFFDE780B400AF00BFFDE7E3
:1051C00080B400AF00BFBD465DF8047B704780B57A
:1051D00000AF00F085FD07F051F80346012B01D028
:1051E00007F092FA00BF80BD80B500AF024805F01D
:1051F000E9FA00BF80BD00BF5C07002080B500AFAA
:10520000024804F057F900BF80BD00BF3C060020F3
:1052100080B500AF024801F05DFC00BF80BD00BF5B
:10522000B004002080B400AF01231846BD465DF8ED
:10523000047B704780B582B000AF7860396008F0B9
:105240008FFB034616221A604FF0FF3318460837CB
:10525000BD4680BD80B582B000AF78604FF0FF31B1
:105260007868FFF7E7FF00BFFDE780B586B000AFC5
:10527000F860B9607A6000237B610AE0AFF30080D8
:105280000146BB685A1CBA60CAB21A707B69013306
:105290007B617A697B689A42F0DB7B681846183735
:1052A000BD4680BD80B586B000AFF860B9607A6059
:1052B00000237B6109E0BB685A1CBA601B78184662
:1052C000AFF300807B6901337B617A697B689A4226
:1052D000F1DB7B6818461837BD4680BD80B483B0CB
:1052E00000AF78604FF0FF3318460C37BD465DF8CD
:1052F000047B704780B483B000AF786039603B684E
:105300004FF400525A60002318460C37BD465DF832
:10531000047B704780B483B000AF786001231846E7
:105320000C37BD465DF8047B704780B485B000AF94
:10533000F860B9607A60002318461437BD465DF8FE
:10534000047B704780B586B000AF7860144A154B77
:10535000D31A7B617B693B61134B1B68002B02D125
:10536000114B124A1A60104B1A687B6813443A6951
:105370009A4207D208F0F4FA03460C221A604FF062
:10538000FF3309E0084B1B68FB60074B1A687B681A
:105390001344054A1360FB6818461837BD4680BDA4
:1053A0000000022000040000B80A0020884D002000
:1053B00080B400AF064BD3F88830054A43F470033D
:1053C000C2F8883000BFBD465DF8047B704700BF5F
:1053D00000ED00E080B483B000AF78600B4A7B68DA
:1053E00013600B4B00221A600A4B00221A700A4B02
:1053F00000221A70094B00221A60094B00221A6021
:1054000000BF0C37BD465DF8047B7047BC0A002026
:10541000C00A0020C40A0020C80A0020D80A0020C0
:10542000DC0A002090B589B000AF786039607B68F5
:10543000002B2BD007F108030F227968184608F0DB
:10544000CBF90023FB75EFF31083BB61BB69FB61F4
:1054500072B600BF0F4B1B6801330E4A136000F099
:1054600053FC03460C4A13600C4A3B6813600C4B18
:105470001C4607F108030FCB84E80F00094B0122FB
:105480001A70FB69002B02D162B600E000BF24371E
:10549000BD4690BDC00A0020DC0A0020D80A0020CA
:1054A000C80A0020C40A002090B5B5B004AF034676
:1054B000FB800B46BB801346FB70494B1B68002BDF
:1054C00000F08A80002387F8BF300023C7F8B83087
:1054D0000023C7F8B430EFF31083C7F89C30D7F837
:1054E0009C30C7F8AC3072B600BF3E4B1B68C7F8A3
:1054F000A8303D4B1B78DBB2002B13D0012387F87B
:10550000BF303A4B1B68C7F8B830394B1B68C7F837
:10551000B430384B07F18C040FCB84E80F00324BCA
:1055200000221A70D7F8AC30002B01D162B600BF50
:1055300097F8BF30002B20D007F10C00D7F8B4301B
:10554000029307F18C030193D7F8B8300093D7F892
:10555000A830294A402108F0BDF8C7F8A400D7F8C0
:10556000A430002B09DD1E4B1868D7F8A4309AB27E
:1055700007F10C010A2305F03FF8FB78002B04D05B
:10558000D7F8A830C7F8B03002E00023C7F8B03031
:1055900000F0BAFB0146B7F90630B7F9042007F16D
:1055A0004C0002920193D7F8B03000930B46134A97
:1055B000402108F08FF8C7F8A000D7F8A030002BE2
:1055C0000BDD074B1868D7F8A0309AB207F14C01F1
:1055D0000A2305F011F800E000BFC437BD4690BDB6
:1055E000BC0A0020C00A0020C40A0020DC0A0020F7
:1055F000D80A0020C80A0020EC05010800060108AE
:1056000080B485B000AF87ED010AD7ED017A9FED38
:10561000157A67EE877AC7ED037AD7ED037AF5EE50
:10562000C07AF1EE10FA08DBD7ED037AB6EE007A15
:1056300077EE877AC7ED037A07E0D7ED037AB6EE07
:10564000007A77EEC77AC7ED037AD7ED037AFDEEDD
:10565000E77A17EE903A18461437BD465DF8047B9A
:10566000704700BF00007A442DE9F041BEB00AAF98
:1056700087ED070AC7ED060A87ED051AC7ED041A7C
:1056800087ED032AB860796011461A460B46FB7015
:105690001346BB70354B1B68002B61D0BB78002BC9
:1056A0005ED0EFF31083C7F8C030D7F8C030C7F82A
:1056B000CC3072B600BF2E4B1B68C7F8C830D7F885
:1056C000CC30002B01D162B600BF00F01DFB80463C
:1056D00097ED070AFFF794FF044697ED060AFFF7D8
:1056E0008FFF054697ED050AFFF78AFF064697EDFF
:1056F000040AFFF785FF0246D7ED037AB6EE007A7B
:1057000077EE877AFDEEE77A17EE901AFB7807F1CD
:10571000200008937B680793BB6806930591049269
:10572000039602950194D7F8C83000934346114A76
:10573000A02107F0CFFFC7F8C400D7F8C430002B72
:105740000FDDD7F8C4309F2B0BDC084B1868D7F857
:10575000C4309AB207F120010A2304F04DFF00E0A3
:1057600000BFD037BD46BDE8F08100BFBC0A0020B5
:10577000C00A002014060108DFF834D0FFF718FE35
:105780000C480D490D4A002302E0D458C45004339C
:10579000C4188C42F9D30A4A0A4C002301E0136072
:1057A0000432A242FBD308F0E1F8FCF757FE704741
:1057B0000000022000000020F4010020A8140108CD
:1057C000F8010020844D0020FEE7000080B582B083
:1057D00000AF0023FB7126E0FB79503BDBB20021D8
:1057E000184600F02BF80021002000F027F80021D7
:1057F000102000F023F80023BB710DE0BA79FB798B
:105800000D49D2000A4413441B780121184600F0C8
:1058100015F8BB790133BB7197F90630002BEDDA2F
:10582000FB790133FB71FB79072BD5D900BF00BF92
:105830000837BD4680BD00BFE00A002080B584B0B7
:1058400000AF03460A46FB711346BB71BB79002BC0
:1058500006D001224FF400611E4801F059FD05E019
:1058600000224FF400611B4801F052FD0023FB733E
:1058700022E000224FF48041164801F049FD97F9DB
:105880000730002B06DA01224FF40051114801F0D5
:105890003FFD05E000224FF400510E4801F038FDB5
:1058A00001224FF480410B4801F032FDFB795B008F
:1058B000FB71FB7B0133FB73FB7B072BD9D90122E7
:1058C0004FF40061034801F023FD00BF1037BD46CF
:1058D00080BD00BF000C024080B582B000AF002345
:1058E000FB7114E00023BB710AE0BA79FB790C4923
:1058F000D2000A44134400221A70BB790133BB71F1
:1059000097F90630002BF0DAFB790133FB71FB7954
:10591000072BE7D9FFF75AFF00BF0837BD4680BD08
:10592000E00A002080B485B000AF0346FB710B464F
:10593000BB7113467B710023FB7397F90730002B73
:1059400041DBBB793F2B3ED8BB79DB08DBB2C3F12F
:105950000703BB73BB7903F007037B737B7BC3F146
:105960000703012202FA03F3FB737B79002B12D0A9
:10597000FA79BB7B1749D2000A4413441878FA79A4
:10598000BB7BF97B0143C8B21249D2000A441344DD
:1059900002461A7018E0FA79BB7B0E49D2000A441D
:1059A00013441B785AB297F90F30DB435BB21340B4
:1059B00059B2FA79BB7BC8B20649D2000A441344F3
:1059C00002461A7000E000BF1437BD465DF8047B44
:1059D000704700BFE00A002090B585B000AF0446D4
:1059E000084611461A462346FB710346BB710B4617
:1059F0007B7113463B71BB793B737B79203B7B7199
:105A00000023BB734DE03B790C2B0BD17A79B97B2A
:105A1000284813465B0013449B0003440B441B7847
:105A2000FB7307E07A79BB7B234912010A441344D4
:105A30001B78FB7300237B732DE097F90F30002B4D
:105A400007DA97F82020B979FB791846FFF76AFF43
:105A50000CE097F82030002B0CBF01230023DBB2B1
:105A60001A46B979FB791846FFF75CFFFB7B5B00B0
:105A7000FB73BB790133BB71BA793B7BD21A3B799B
:105A80009A4205D13B7BBB71FB790133FB7105E089
:105A90007B7B01337B737B7B072BCED9BB7B0133B5
:105AA000BB73BA7B3B799A42ADD300BF00BF1437BA
:105AB000BD4690BD64060108D80A010880B584B0CF
:105AC00002AF03463A60FB710B46BB711FE0FB79E6
:105AD0007A2B04D90023FB71BB791033BB71BB79DE
