:020000040800F2
:1000000000000220E1890008757D00087D7D000860
:10001000857D00088D7D0008957D000800000000AA
:1000200000000000000000000000000061F900086E
:100030009D7D000800000000B1FB0008AB7D0008BA
:10004000318A0008318A0008318A0008318A0008A4
:10005000318A0008318A0008318A0008318A000894
:10006000318A0008318A0008318A0008318A000884
:10007000318A0008318A0008318A0008318A000874
:10008000318A0008318A0008318A0008318A000864
:10009000318A0008318A0008318A0008318A000854
:1000A000318A0008318A0008318A0008318A000844
:1000B000318A0008318A0008318A0008318A000834
:1000C000318A0008318A0008318A0008318A000824
:1000D000318A0008318A0008318A0008C57D00088D
:1000E000318A0008318A0008318A0008318A000804
:1000F000318A0008318A0008D97D0008318A000859
:10010000318A0008318A0008318A0008318A0008E3
:10011000318A0008318A0008318A0008318A0008D3
:10012000ED7D0008318A0008318A0008318A000814
:10013000318A0008318A0008318A0008318A0008B3
:10014000318A0008318A0008318A0008318A0008A3
:10015000318A0008318A0008318A0008318A000893
:10016000318A0008318A0008318A0008318A000883
:10017000318A0008318A0008318A00080000000036
:08018000318A0008318A0008F1
:1001900010B5054C237833B9044B13B10448AFF3C1
:1001A00000800123237010BD080200200000000021
:1001B000DC38010808B5034B1BB103490348AFF312
:1001C000008008BD000000000C020020DC3801089F
:1001D00010F8012B11F8013B012A28BF9A42F7D0F1
:1001E000D01A70470000000000000000000000006E
:1001F00001F0FF01102A2BDB10F0070F08D010F8D8
:10020000013B013A8B422DD010F0070F42B3F6D1DB
:10021000F0B441EA012141EA014122F007047FF0F4
:1002200000070023F0E80256083C85EA010586EA4B
:10023000010685FA47F5A3FA87F586FA47F6A5FA87
:1002400087F68EB9EED1F0BC01F0FF0102F0070293
:1002500032B110F8013B013A83EA010313B1F8D13E
:100260000020704701387047002D06BF354603381F
:10027000073815F0010F07D1013015F4807F02BF58
:10028000013015F4C03F0130F0BC0138704700BFA9
:10029000034613F8012B002AFBD1181A01387047C6
:1002A00081F0004102E000BF83F0004330B54FEA27
:1002B00041044FEA430594EA050F08BF90EA020F94
:1002C0001FBF54EA000C55EA020C7FEA645C7FEA27
:1002D000655C00F0E2804FEA5454D4EB5555B8BF4A
:1002E0006D420CDD2C4480EA020281EA030382EABB
:1002F000000083EA010180EA020281EA0303362D4D
:1003000088BF30BD11F0004F4FEA01314FF4801C1F
:100310004CEA113102D0404261EB410113F0004F31
:100320004FEA03334CEA133302D0524263EB4303E8
:1003300094EA050F00F0A780A4F10104D5F1200E86
:100340000DDB02FA0EFC22FA05F2801841F10001E1
:1003500003FA0EF2801843FA05F359410EE0A5F1B5
:1003600020050EF1200E012A03FA0EFC28BF4CF0E6
:10037000020C43FA05F3C01851EBE37101F000459C
:1003800007D54FF0000EDCF1000C7EEB00006EEBA9
:100390000101B1F5801F1BD3B1F5001F0CD3490833
:1003A0005FEA30004FEA3C0C04F101044FEA44528A
:1003B00012F5800F80F09A80BCF1004F08BF5FEA11
:1003C000500C50F1000041EB045141EA050130BDF1
:1003D0005FEA4C0C404141EB0101013C28BFB1F503
:1003E000801FE9D291F0000F04BF01460020B1FA4E
:1003F00081F308BF2033A3F10B03B3F120020CDA21
:100400000C3208DD02F1140CC2F10C0201FA0CF0FE
:1004100021FA02F10CE002F11402D8BFC2F1200C63
:1004200001FA02F120FA0CFCDCBF41EA0C01904019
:10043000E41AA2BF01EB0451294330BD6FEA040462
:100440001F3C1CDA0C340EDC04F11404C4F120024D
:1004500020FA04F001FA02F340EA030021FA04F35F
:1004600045EA030130BDC4F10C04C4F1200220FAB6
:1004700002F001FA04F340EA0300294630BD21FAF4
:1004800004F0294630BD94F0000F83F4801306BFBA
:1004900081F480110134013D4EE77FEA645C18BFAE
:1004A0007FEA655C29D094EA050F08BF90EA020F45
:1004B00005D054EA000C04BF1946104630BD91EA3D
:1004C000030F1EBF0021002030BD5FEA545C05D140
:1004D0004000494128BF41F0004130BD14F580047F
:1004E0003CBF01F5801130BD01F0004545F0FE41F3
:1004F00041F470014FF0000030BD7FEA645C1ABF28
:10050000194610467FEA655C1CBF0B46024650EA5E
:10051000013406BF52EA033591EA030F41F400218A
:1005200030BD00BF90F0000F04BF0021704730B510
:100530004FF4806404F132044FF000054FF00001E5
:1005400050E700BF90F0000F04BF0021704730B5A6
:100550004FF4806404F1320410F0004548BF40427B
:100560004FF000013EE700BF42004FEAE2014FEAD0
:1005700031014FEA02701FBF12F07F4393F07F4FAB
:1005800081F06051704732F07F4208BF704793F0AE
:100590007F4F04BF41F40021704730B54FF46074C1
:1005A00001F0004521F000411CE700BF50EA0102C4
:1005B00008BF704730B54FF000050AE050EA01026D
:1005C00008BF704730B511F0004502D5404261EBDD
:1005D00041014FF4806404F132045FEA915C3FF41E
:1005E000D8AE4FF003025FEADC0C18BF03325FEABB
:1005F000DC0C18BF033202EBDC02C2F1200300FA6C
:1006000003FC20FA02F001FA03FE40EA0E0021FA90
:1006100002F11444BDE600BF70B54FF0FF0C4CF47E
:10062000E06C1CEA11541DBF1CEA135594EA0C0F30
:1006300095EA0C0F00F0DEF82C4481EA030621EA6B
:100640004C5123EA4C5350EA013518BF52EA0335A6
:1006500041F4801143F4801338D0A0FB02CE4FF058
:100660000005E1FB02E506F00042E0FB03E54FF088
:100670000006E1FB03569CF0000F18BF4EF0010E80
:10068000A4F1FF04B6F5007F64F5407404D25FEA7C
:100690004E0E6D4146EB060642EAC62141EA55512F
:1006A0004FEAC52040EA5E504FEACE2EB4F1FD0C71
:1006B00088BFBCF5E06F1ED8BEF1004F08BF5FEAEF
:1006C000500E50F1000041EB045170BD06F00046A1
:1006D00046EA010140EA020081EA0301B4EB5C044E
:1006E000C2BFD4EB0C0541EA045170BD41F4801146
:1006F0004FF0000E013C00F3AB8014F1360FDEBF6B
:10070000002001F0004170BDC4F10004203C35DA46
:100710000C341BDC04F11404C4F1200500FA05F3C9
:1007200020FA04F001FA05F240EA020001F000426A
:1007300021F0004110EBD37021FA04F642EB0601E0
:100740005EEA430E08BF20EAD37070BDC4F10C040A
:10075000C4F1200500FA04F320FA05F001FA04F2CE
:1007600040EA020001F0004110EBD37041F10001BA
:100770005EEA430E08BF20EAD37070BDC4F12005C5
:1007800000FA05F24EEA020E20FA04F301FA05F22D
:1007900043EA020321FA04F001F0004121FA04F2D5
:1007A00020EA020000EBD3705EEA430E08BF20EAA5
:1007B000D37070BD94F0000F0FD101F000464000DF
:1007C00041EB010111F4801F08BF013CF7D041EA61
:1007D000060195F0000F18BF704703F00046520065
:1007E00043EB030313F4801F08BF013DF7D043EA36
:1007F0000603704794EA0C0F0CEA135518BF95EAEC
:100800000C0F0CD050EA410618BF52EA4306D1D172
:1008100081EA030101F000414FF0000070BD50EA91
:10082000410606BF1046194652EA430619D094EA1B
:100830000C0F02D150EA013613D195EA0C0F05D105
:1008400052EA03361CBF104619460AD181EA030159
:1008500001F0004141F0FE4141F470014FF0000011
:1008600070BD41F0FE4141F4780170BD70B54FF0AC
:10087000FF0C4CF4E06C1CEA11541DBF1CEA13552C
:1008800094EA0C0F95EA0C0F00F0A7F8A4EB05040E
:1008900081EA030E52EA03354FEA013100F0888005
:1008A0004FEA03334FF0805545EA131343EA1263CE
:1008B0004FEA022245EA111545EA10654FEA002683
:1008C0000EF000419D4208BF964244F1FD0404F53C
:1008D000407402D25B084FEA3202B61A65EB030598
:1008E0005B084FEA32024FF480104FF4002CB6EB55
:1008F000020E75EB030E22BFB61A754640EA0C00D5
:100900005B084FEA3202B6EB020E75EB030E22BF14
:10091000B61A754640EA5C005B084FEA3202B6EB55
:10092000020E75EB030E22BFB61A754640EA9C0014
:100930005B084FEA3202B6EB020E75EB030E22BFE4
:10094000B61A754640EADC0055EA060E18D04FEAA2
:10095000051545EA16754FEA06164FEAC30343EA42
:1009600052734FEAC2025FEA1C1CC0D111F4801F0F
:100970000BD141EA00014FF000004FF0004CB6E708
:1009800011F4801F04BF01430020B4F1FD0C88BFA7
:10099000BCF5E06F3FF6AFAEB5EB030C04BFB6EBB2
:1009A000020C5FEA500C50F1000041EB045170BDA5
:1009B0000EF0004E4EEA113114EB5C04C2BFD4EBD2
:1009C0000C0541EA045170BD41F480114FF0000E56
:1009D000013C90E645EA060E8DE60CEA135594EAD2
:1009E0000C0F08BF95EA0C0F3FF43BAF94EA0C0FD5
:1009F0000AD150EA01347FF434AF95EA0C0F7FF44A
:100A000025AF104619462CE795EA0C0F06D152EA9D
:100A100003353FF4FDAE1046194622E750EA410681
:100A200018BF52EA43067FF4C5AE50EA41047FF492
:100A30000DAF52EA43057FF4EBAE12E74FF0FF3CF7
:100A400006E000BF4FF0010C02E000BF4FF0010CC8
:100A50004DF804CD4FEA410C7FEA6C5C4FEA430C41
:100A600018BF7FEA6C5C1BD001B050EA410C0CBF90
:100A700052EA430C91EA030F02BF90EA020F0020F2
:100A8000704710F1000F91EA030F58BF994208BF59
:100A900090422CBFD8176FEAE37040F00100704716
:100AA0004FEA410C7FEA6C5C02D150EA013C07D16D
:100AB0004FEA430C7FEA6C5CD6D152EA033CD3D0B8
:100AC0005DF8040B704700BF8446104662468C46B2
:100AD0001946634600E000BF01B5FFF7B7FF0028E5
:100AE00048BF10F1000F01BD4DF808EDFFF7F4FF0E
:100AF0000CBF012000205DF808FB00BF4DF808ED99
:100B0000FFF7EAFF34BF012000205DF808FB00BFBB
:100B10004DF808EDFFF7E0FF94BF012000205DF8DD
:100B200008FB00BF4DF808EDFFF7CEFF94BF012092
:100B300000205DF808FB00BF4DF808EDFFF7C4FF8B
:100B400034BF012000205DF808FB00BF4FEA410CD4
:100B50007FEA6C5C02D150EA013C0AD14FEA430CB7
:100B60007FEA6C5C02D152EA033C02D14FF00000F4
:100B700070474FF0010070474FEA410212F5001232
:100B800015D211D56FF47873B3EB625212D94FEAD4
:100B9000C12343F0004343EA505311F0004F23FABE
:100BA00002F018BF404270474FF00000704750EA13
:100BB000013005D111F0004008BF6FF000407047D0
:100BC0004FF00000704700BF4FEA4102B2F1E0432E
:100BD00024BFB3F5001CDCF1FE5C0DD901F0004C24
:100BE0004FEAC0024CEA5070B2F1004F40EB830074
:100BF00008BF20F00100704711F0804F21D113F1A0
:100C00003872BCBF01F00040704741F480114FEAD8
:100C10005252C2F11802C2F1200C10FA0CF320FA61
:100C200002F018BF40F001004FEAC1234FEAD3237E
:100C300003FA0CFC40EA0C0023FA02F34FEA4303E8
:100C4000CCE77FEA625307D150EA01331EBF4FF071
:100C5000FE4040F44000704701F0004040F0FE408C
:100C600040F40000704700BF80F0004002E000BF89
:100C700081F0004142001FBF5FEA410392EA030F87
:100C80007FEA226C7FEA236C6AD04FEA1262D2EBD1
:100C90001363C1BFD218414048404140B8BF5B42D6
:100CA000192B88BF704710F0004F40F4000020F06F
:100CB0007F4018BF404211F0004F41F4000121F085
:100CC0007F4118BF494292EA030F3FD0A2F10102CF
:100CD00041FA03FC10EB0C00C3F1200301FA03F10D
:100CE00000F0004302D5494260EB4000B0F5000F30
:100CF00013D3B0F1807F06D340084FEA310102F1EF
:100D00000102FE2A51D2B1F1004F40EBC25008BFA0
:100D100020F0010040EA03007047490040EB00006A
:100D2000013A28BFB0F5000FEDD2B0FA80FCACF16B
:100D3000080CB2EB0C0200FA0CF0AABF00EBC25098
:100D400052421843BCBFD0401843704792F0000F86
:100D500081F4000106BF80F400000132013BB5E7D9
:100D60004FEA41037FEA226C18BF7FEA236C21D04F
:100D700092EA030F04D092F0000F08BF08467047B4
:100D800090EA010F1CBF0020704712F07F4F04D182
:100D9000400028BF40F00040704712F100723CBF95
:100DA00000F50000704700F0004343F0FE4040F4BF
:100DB000000070477FEA226216BF08467FEA23637D
:100DC0000146420206BF5FEA412390EA010F40F468
:100DD000800070474FF0000304E000BF10F00043B4
:100DE00048BF40425FEA000C08BF704743F096439B
:100DF00001464FF000001CE050EA010208BF7047B6
:100E00004FF000030AE000BF50EA010208BF70473C
:100E100011F0004302D5404261EB41015FEA010C51
:100E200002BF84460146002043F0B64308BFA3F149
:100E30008053A3F50003BCFA8CF2083AA3EBC2532B
:100E400010DB01FA02FC634400FA02FCC2F120024A
:100E5000BCF1004F20FA02F243EB020008BF20F081
:100E60000100704702F1200201FA02FCC2F12002E7
:100E700050EA4C0021FA02F243EB020008BF20EADC
:100E8000DC70704753B94AB9002908BF00281CBF5D
:100E90004FF0FF314FF0FF3000F088B9ADF1080C92
:100EA0006DE904CE00F006F8DDF804E0DDE9022388
:100EB00004B070472DE9F047089D0F4604468C4664
:100EC000002B48D18A42164661D9B2FA82F34BB15F
:100ED000C3F1200201FA03FC20FA02F29E4042EA2A
:100EE0000C0C9C404FEA164EB7B2BCFBFEF1220C34
:100EF0000EFB11CC42EA0C4201FB07F0904209D9EB
:100F0000B21801F1FF3C80F0EE80904240F2EB809D
:100F100002393244121AA4B2B2FBFEF00EFB1022C8
:100F200044EA024400FB07F7A74209D9341900F14B
:100F3000FF3280F0DA80A74240F2D7803444023892
:100F400040EA0140E41B00211DB1DC400023C5E95B
:100F50000043BDE8F0878B4206D90DB1C5E9000119
:100F600000210846BDE8F087B3FA83F1002948D193
:100F7000BB4202D3824200F20781841A67EB03026C
:100F800001209446002DE4D0C5E9004CE1E7002A99
:100F900000F09280B2FA82F3002B40F0A8808A1A07
:100FA0004FEA164E1FFA86FC0121200CB2FBFEF719
:100FB0000EFB172240EA02420CFB07F0904207D9D1
:100FC000B21807F1FF3802D2904200F2E2804746A1
:100FD000121AA4B2B2FBFEF00EFB102244EA024445
:100FE0000CFB00FCA44507D9341900F1FF3202D2F2
:100FF000A44500F2CB801046A4EB0C0440EA074065
:10100000A2E7C1F120068B4022FA06FC4CEA030C51
:1010100007FA01F420FA06F3F7404FEA1C4923438C
:1010200000FA01F81FFA8CFEB7FBF9F01C0C09FB63
:10103000107744EA074400FB0EF7A74202FA01F2D8
:101040000AD91CEB040400F1FF3A80F09B80A74210
:1010500040F2988002386444E41B9FB2B4FBF9F379
:1010600009FB134447EA044403FB0EFEA64509D9D5
:101070001CEB040403F1FF3780F08280A6457FD982
:10108000023B644443EA0040A4EB0E04A0FB02E7E9
:10109000BC427346B94663D360D05DB1B8EB03027E
:1010A00064EB090404FA06F622FA01F31E43CC406D
:1010B000C5E9006400214CE76208480842EAC171B2
:1010C0000B0C43EA00438AB242EA0342B3FBF6F157
:1010D000E407B4463746B6461F23B0FBF6F0D21BF2
:1010E00041EA004161E7614614E7104628E7C3F191
:1010F000200120FA01F29E4027FA01F19F403A4375
:101100004FEA164E1FFA86FCB1FBFEF70EFB1710D6
:10111000110C41EA004107FB0CF8884504FA03F47E
:101120003AD9711807F1FF3001D288451FD8A1EBD9
:101130000801B1FBFEF808FB0CF70EFB181192B288
:1011400042EA0142BA422FD2B21808F1FF31C6D2A8
:10115000BA42C4D2A8F102013244C0E7F0459CD2A1
:10116000BEEB020367EB0C070138B94695E7A6EB27
:1011700008084144B81EB1FBFEF808FB0CF7DCE799
:101180003B467FE7504667E70846FBE634440238B3
:1011900032E7023F32441BE7A1EB08013846B1FBBE
:1011A000FEF808FB0CF7C8E7414698E7704700BF18
:1011B00080B485B000AFF860B9607A60FB68074A18
:1011C0001A60BB68064A1A607B6880221A6000BFFA
:1011D0001437BD465DF8047B704700BF2402002031
:1011E0007802002080B485B000AF4FF47003FB603C
:1011F0004FF42003BB604FF47F437B604FF4884380
:101200003B60134B1B6B03F00203002B16D0114BFA
:101210001A68FB681340BA689A420FD10D4B5B689D
:1012200003F44063B3F5406F08D10A4B5A6A7B68F8
:1012300013403A689A4201D1012300E0002303F0F1
:101240000103DBB218461437BD465DF8047B7047D6
:10125000003802400004024080B584B000AF03466D
:10126000FB8007F085FEF8600BE007F081FE024688
:10127000FB68D31A042B01D900230BE001200DF0E9
:10128000F8FCFB881946054809F05AFA0346012B79
:10129000EBD1012318461037BD4680BD0004024043
:1012A00080B588B000AF3B1D00221A605A609A607A
:1012B000DA601A610023FB7700233B605D4B1B6BF8
:1012C0005C4A43F0020313635A4B1B6B03F00203A7
:1012D0003B603B6801224FF44061574809F048FAEF
:1012E0004FF440637B601123BB600023FB6000234D
:1012F0003B613B1D1946504808F08AFF02200DF063
:10130000B8FC4FF48060FFF7A7FF034683F00103AA
:10131000DBB2002B7CD10023BB611EE000224FF426
:101320008061454809F024FA02200DF0A2FC012258
:101330004FF48061404809F01BFA4FF48060FFF7DA
:101340008BFF034683F00103DBB2002B62D1022046
:101350000DF08FFCBB690133BB61BB69082B07D85B
:101360004FF40061344809F0EBF90346002BD5D067
:101370004FF40060FFF770FF034683F00103DBB218
:10138000002B49D100224FF480612B4809F0F0F97D
:1013900002200DF06EFC00224FF40061264809F097
:1013A000E7F902200DF065FC01224FF4806122482C
:1013B00009F0DEF94FF48060FFF74EFF034683F03B
:1013C0000103DBB2002B29D102200DF052FC0122D7
:1013D0004FF40061184809F0CBF902200DF049FCE8
:1013E0004FF40060FFF738FF0346002B09D04FF49D
:1013F0008061114809F0A4F90346012B01D10123B2
:1014000000E00023FB77FB7F03F00103FB7706E09E
:1014100000BF04E000BF02E000BF00E000BF012207
:101420004FF44061044809F0A3F9FB7F18462037C8
:10143000BD4680BD003802400004024080B586B041
:1014400004AF78600B46FB701346BB707B68002BC3
:1014500003D07B681B68002B01D1002313E07B685D
:101460001868FB789AB20323029301230193BB1CF3
:1014700000930123D02109F023FB0346002B0CBF6E
:1014800001230023DBB218460837BD4680BD80B576
:1014900088B004AFF8607A601A460B46FB721346B8
:1014A0003B81FB68002B09D0FB681B68002B05D033
:1014B0007B68002B02D03B89002B01D1002313E075
:1014C000FB681868FB7A9AB2032302933B89019365
:1014D0007B6800930123D02109F0ECFB0346002B2D
:1014E0000CBF01230023DBB218461037BD4680BD78
:1014F00080B582B000AF78600B46FB70FB781B01B3
:10150000DBB21A467F217868FFF798FF034618463A
:101510000837BD4680BD80B584B000AF78603960C3
:101520003B68002B0CD007F10C02022337217868AE
:10153000FFF7ADFF034683F00103DBB2002B01D0C0
:1015400000230AE03B7B1BB21B021AB27B7B1BB25F
:1015500013431AB23B681A80012318461037BD4660
:1015600080BD80B584B000AF786039600023FB7324
:101570007B68002B02D03B68002B01D100238FE059
:101580007B683A681A607B684FF000025A6000215D
:101590007868FFF7ADFF034683F00103DBB2002B51
:1015A0000AD1802206217868FFF748FF034683F0BE
:1015B0000103DBB2002B01D0002371E064200DF0A9
:1015C00058FB00217868FFF793FF034683F001037F
:1015D000DBB2002B0FD107F10F0201230021786845
:1015E000FFF755FF034683F00103DBB2002B02D166
:1015F000FB7BEA2B01D0002352E001220621786810
:10160000FFF71CFF034683F00103DBB2002B15D16B
:10161000002207217868FFF711FF034683F00103DA
:10162000DBB2002B0AD1002205217868FFF706FF04
:10163000034683F00103DBB2002B01D000232FE02F
:1016400002217868FFF754FF034683F00103DBB201
:10165000002B1FD1112200217868FFF7EFFE03460F
:1016600083F00103DBB2002B14D12F220121786813
:10167000FFF7E4FE034683F00103DBB2002B09D140
:1016800000217868FFF734FF034683F00103DBB2E3
:10169000002B01D0002303E014200DF0EAFA01230F
:1016A00018461037BD4680BD80B584B000AF786065
:1016B00039607B68002B07D03B68002B04D03B6867
:1016C0001B682A4A934201D000234AE0FFF78AFDB3
:1016D000034683F00103DBB2002B01D0002340E07E
:1016E000386809F0BDF90346002B01D0002338E02B
:1016F000FFF7D6FD0346FB730023BB601C4B1B6C3E
:101700001B4A43F480031364194B1B6C03F48003DE
:10171000BB60BB68164B1B6A154A43F48003136217
:1017200001200DF0A6FA124B1B6A114A23F4800324
:10173000136201200DF09DFA386809F04DF8034658
:10174000002B01D000230CE0FB7B83F00103DBB214
:10175000002B01D0002304E039687868FFF701FF0F
:10176000034618461037BD4680BD00BF00580040F4
:10177000003802402DE9B04388B000AFF8600B4656
:101780007A607B814FF000024FF00003C7E9062327
:10179000FB68002B02D07B89002B01D1002339E0AC
:1017A0000023FB8221E078680DF063FA07F114034F
:1017B0001946F868FFF7AFFE034683F00103DBB27A
:1017C000002B01D0002325E0B7F914301BB2DA1743
:1017D0001C461546D7E9062312EB040843EB05091E
:1017E000C7E90689FB8A0133FB82FA8A7B899A4220
:1017F000D9D3D7E90601FFF707FB06EE900A7B89EC
:1018000007EE903AB8EE677AC6EE877AFB68C3EDCA
:10181000017A012318462037BD46BDE8B083000099
:1018200080B586B000AFF86087ED020A79607B680A
:10183000002B0BD007F116031946F868FFF76BFE73
:10184000034683F00103DBB2002B01D0002316E036
:10185000B7F9163007EE903AB8EEE77AFB68D3EDA9
:10186000017A77EE677ADFED086A87EEA67AD7ED20
:10187000027A67EE277A7B68C3ED007A0123184667
:101880001837BD4680BD00BF3333834180B400AFFD
:10189000074B1B78DAB2074B1B78DBB29A420CBFBE
:1018A00001230023DBB21846BD465DF8047B704778
:1018B000040B0020050B002080B485B000AF3B4630
:1018C00083E80300124B1B78DBB20133DBB203F079
:1018D0001F03FB730F4B1B78DBB2FA7B9A4201D1DB
:1018E00000230EE00A4B1B78DBB20B4ADB001344EB
:1018F0003A4692E8030083E80300054AFB7B137035
:10190000012318461437BD465DF8047B704700BFBD
:10191000050B0020040B0020040A002090B583B0C2
:1019200000AF7860FFF7B2FF0346002B01D0002321
:1019300016E00D4B1B78DBB279680C4A0C46DB00D5
:10194000134493E8030084E80300074B1B78DBB2E1
:101950000133DBB203F01F03DAB2034B1A70012329
:1019600018460C37BD4690BD040B0020040A002029
:1019700080B400AF72B600BF0021064B0A461A7051
:10198000054B0A461A7062B600BF00BFBD465DF83F
:10199000047B7047050B0020040B002080B483B04B
:1019A00000AF78607B681B68054A934202D1054B03
:1019B00000221A7000BF0C37BD465DF8047B7047EB
:1019C00000480040060B002080B500AF084B1B7894
:1019D000DBB2002B0AD1064B01221A700322054903
:1019E00005480CF01EF9FFF7C3FF00E000BF80BD03
:1019F000060B0020143E01086C07002080B485B05F
:101A000000AF78600E4B5B68FB600E4B1B680E4AA4
:101A1000A2FB03239A0C7B6802FB03F3BB6000E08C
:101A200000BF074B5A68FB68D31ABA689A42F7D8C6
:101A300000BF00BF1437BD465DF8047B704700BF90
:101A4000001000E02C00002083DE1B4380B400AFB8
:101A5000084BDB68074A43F08073D360064B1B6872
:101A6000054A43F00103136000BFBD465DF8047BE7
:101A7000704700BFF0ED00E0001000E080B500AF5F
:101A800006F0E4FB0A4B1B6841F61F42DA63084B81
:101A90001B6841F61F421A64064B1B6841F61F4241
:101AA0005A63044B1B6841F61F429A6300BF80BD16
:101AB000040600209406002080B483B000AF786054
:101AC000074B1B687A68DA63054B1B6841F61F42B7
:101AD0001A6400BF0C37BD465DF8047B704700BF39
:101AE0000406002080B483B000AF7860074B1B6809
:101AF0007A685A63054B1B6841F61F429A6300BF20
:101B00000C37BD465DF8047B704700BF940600208B
:101B100080B400AF064B1B680022DA63044B1B68DD
:101B200000221A6400BFBD465DF8047B704700BF09
:101B30000406002080B400AF064B1B6800225A63E5
:101B4000044B1B6800229A6300BFBD465DF8047B0E
:101B5000704700BF9406002080B483B000AF786067
:101B6000074B1B6841F61F42DA63054B1B687A6816
:101B70001A6400BF0C37BD465DF8047B704700BF98
:101B80000406002080B483B000AF7860074B1B6868
:101B900041F61F425A63054B1B687A689A6300BF7F
:101BA0000C37BD465DF8047B704700BF94060020EB
:101BB00080B400AF044B1A88044B1B689A6300BFC3
:101BC000BD465DF8047B704724000020DC06002041
:101BD00080B400AF044B1B68F0229A6300BFBD467F
:101BE0005DF8047B704700BFDC06002080B400AFC6
:101BF000044B1B68F0229A6300BFBD465DF8047B6E
:101C0000704700BFDC06002080B400AF044B1B68A7
:101C10006E229A6300BFBD465DF8047B704700BF2B
:101C2000DC06002080B400AF044B1B686E229A6370
:101C300000BFBD465DF8047B704700BFDC06002096
:101C400080B400AF074B01221A70074BA2221A8002
:101C5000054B1A88054B1B689A6300BFBD465DF8AB
:101C6000047B7047BC0B002024000020DC06002011
:101C700080B400AF074B00221A70074B96221A80DF
:101C8000054B1A88054B1B689A6300BFBD465DF87B
:101C9000047B7047BC0B002024000020DC060020E1
:101CA00080B400AF064B1B78DBB2002B01D0A2231F
:101CB00000E097231846BD465DF8047B704700BFDF
:101CC000BC0B002080B500AF104B00221A70FFF74C
:101CD0007FFF4FF416700CF0CCFFFFF7C9FF4FF4F5
:101CE000FA700CF0C6FF0A4B1B881A46094B1A60A3
:101CF000074B1B881A46084B1A60084B4FF000022E
:101D00001A60024B01221A7000BF80BD400B0020F8
:101D1000240000201800002014000020440B0020A4
:101D200080B483B000AF78607B68002B01DA0023B9
:101D300007E07B68B3F5E15F02DB41F61F4300E09B
:101D40007B6818460C37BD465DF8047B704780B44D
:101D500083B000AF78607B68042B08D07B68052BCC
:101D600005D07B68062B02D07B68072B01D10123AD
:101D700000E0002303F00103DBB218460C37BD4638
:101D80005DF8047B704780B483B000AF78607B68F7
:101D9000062B02D07B68072B01D1012300E0002332
:101DA00003F00103DBB218460C37BD465DF8047B37
:101DB000704780B483B000AF78607B68042B02D09A
:101DC0007B68062B01D1012300E0002303F001030F
:101DD000DBB218460C37BD465DF8047B7047000047
:101DE00080B483B000AF78607B68052B02D07B683D
:101DF000062B02D14FF07E5300E0054B07EE903AE0
:101E0000B0EE670A0C37BD465DF8047B704700BF33
:101E1000000080BF80B582B000AF78607B68042B83
:101E200002D1FFF7D5FE10E07B68052B02D1FFF74A
:101E3000EBFE0AE07B68062B02D1FFF7D7FE04E039
:101E40007B68072B01D1FFF7EDFE00BF0837BD46C9
:101E500080BD80B582B000AF78607868FFF7A9FFD9
:101E60000346002B02D0FFF703FF01E0FFF7E8FE77
:101E700000BF0837BD4680BD80B500AF1E4B4FF098
:101E800000021A6007F074F803461C4A13601C4BEA
:101E900000221A601B4BD3ED007A9FED1B7A67EE90
:101EA000877AFCEEE77A17EE902A144B1B681344EE
:101EB00003F2DC53154A1360154B01221A70154BBF
:101EC00093ED007A144BD3ED007A77EE677A134BDB
:101ED000C3ED007A124B4FF000021A60114B41F62D
:101EE0001F421A60104B41F61F421A600F4B01222D
:101EF0001A7000BF80BD00BF580B00205C0B002093
:101F0000600B0020000000200000A042640B0020B5
:101F1000680B0020100B0020180B0020380B00204D
:101F20003C0B00200400002008000020340B00209F
:101F300080B400AF114B4FF000021A60104B00222A
:101F40001A60104B00221A600F4B00221A600F4BD0
:101F500000221A700E4B4FF000021A600D4B41F632
:101F60001F421A600C4B41F61F421A600B4B0022B5
:101F70001A7000BFBD465DF8047B7047580B002007
:101F80005C0B0020600B0020640B0020680B00201D
:101F90003C0B00200400002008000020340B00202F
:101FA00080B584B000AF87ED010AD7ED017AB6EEB7
:101FB000007A77EE877AFDEEE77A17EE903AC3F56E
:101FC000E0531F33FB60F868FFF7AAFE034618468C
:101FD0001037BD4680BD000080B586B000AFF86008
:101FE000B9607A60F868FFF7E4FE0346002B04D07E
:101FF000BB687B617B683B6103E07B687B61BB689E
:102000003B617869FFF78CFE78613869FFF788FEDD
:1020100038610E4A7B6913600D4A3B691360F868AA
:10202000FFF7B1FE0346002B06D07869FFF794FD59
:102030003869FFF7A7FD05E07869FFF73DFD3869CE
:10204000FFF750FD00BF1837BD4680BD04000020DB
:102050000800002080B584B000AF7860FFF70EFD67
:102060007868FFF7F6FEFFF763FF2A4B1B682A4AE2
:1020700013602A4B1B78DBB2002B3DD0284B1B682A
:102080005B6A9AB2274B1A80274B1B685B6A9AB22D
:10209000264B1A80214B1B78DBB207EE903AF8EE04
:1020A000E77A9FED237A67EE877AB6EE007A77EECD
:1020B000877AFDEEE77A17EE903AFB601D4B00221F
:1020C0001A701D4B01221A707868FFF75CFE0346F8
:1020D000002B07D0FB685B42184A1360184B0222A2
:1020E0001A7005E0154AFB681360154B01221A703F
:1020F0000A4B00221A7009E0114B00221A7006F0F8
:1021000037FF034603F596730E4A136000BF10377E
:10211000BD4680BD180B00201C0B0020700B00205A
:1021200074050020080B0020BC0500200A0B0020CD
:10213000896D93428A0B00209C0B00200C0B002021
:10214000F6070020000A002080B584B000AF786058
:102150007868FEF79DF8B860BB685F2B21D8002334
:10216000FB600BE07A68FB68134419780F4AFB6840
:1021700013440A461A70FB680133FB60FA68BB68B7
:102180009A42EFD907220A4978680EF0ADFD03465E
:10219000002B02D1074B01221A70074B01221A7043
:1021A00000E000BF1037BD4680BD00BFE40B00203B
:1021B000F8380108E00B0020E10B002080B582B068
:1021C00000AF78607B68044A502104480EF00AFD95
:1021D00000BF0837BD4680BD003901085C0C0020F7
:1021E00080B500AF154B1B78002B24D0144B1B7807
:1021F000DBB2002B1FD1134A104B10461946502357
:102200001A460EF074FE0E4B01221A700D48FEF7AE
:102210003FF803469BB21A460A490B480BF001FDF2
:102220000346002B03D1054B00221A7004E0044B37
:1022300000221A7000E000BF80BD00BF5C0C0020CF
:10224000060B0020AC0C00206C07002080B500AF0E
:102250000A4B1B68002B02DDFFF70AFD08E0074B65
:102260001B68002B02DAFFF7EBFC01E0FFF7A0FC94
:10227000024B00221A6000BF80BD00BF480C002046
:1022800080B582B000AFEFF310833B603B687B60AA
:1022900072B600BF164B00221A70164B00221A703D
:1022A0007B68002B01D162B600BF134B1B78002B5B
:1022B00001D0FFF7CBFF104805F0F4F80F4B0022D8
:1022C0001A700F4B00221A600E4B00221A600E4B40
:1022D00000221A600D4B00221A700D4B00221A705A
:1022E0000C4B01221A7000BF0837BD4680BD00BFED
:1022F000E10B0020E00B0020C00B0020440C00206C
:102300004C0C0020500C0020540C0020580C0020D5
:102310005C0C00209C0B002080B584B000AF78607E
:1023200039602F4B1B78DBB2FB60FFF7A7FBF86827
:10233000FFF70DFD0346002B03D0F868FFF789FD7A
:1023400001E0FFF783FFFFF713FBFFF7F1FD254BDC
:1023500000221A70244B00221A70244B00221A709B
:10236000234B00221A60234B1B68234A1360234B24
:1023700000221A70224B00221A60224B00221A609F
:10238000214B00221A60214B4FF000021A60204BB3
:1023900000221A601F4B4FF000021A601E4B0122F0
:1023A0001A703A6879681D4805F089F81C4B0122BB
:1023B0001A701C4B00221A701B4B00221A601B4B18
:1023C00000221A601A4B00221A601A4B00221A705F
:1023D000034B08221A7000BF1037BD4680BD00BFF6
:1023E000F60700208A0B00209D0B00209E0B00208A
:1023F0000C0B0020180B00201C0B0020700B002081
:102400006C0B0020000A00208C0B0020900B002099
:10241000940B0020980B00209C0B0020C00B002088
:10242000E00B0020440C00204C0C0020500C00203D
:10243000540C0020580C002080B590B000AF3B1D1C
:1024400083E807007B68002B04D0FB68002B01DDCC
:10245000012200E00022934B1A70924B1B78DBB2F2
:10246000002B25D1904B1B78002B06D0FFF706FBE5
:10247000FFF7ECFE8D4B01221A708B4B00221A7075
:102480008B4B00221A608B4B00221A608A4B41F65C
:102490001F421A60894B41F61F421A60884B1B8805
:1024A0001A46884B1A60884B08221A700123F5E0FF
:1024B000FB68804A1360BB68002B2FD17A4B1B78D6
:1024C000012B04D17A687A4B1B689A4216D0FFF729
:1024D000D5FAFFF7BBFE7D4B1B687D4A13607D4B31
:1024E00000221A707B68002B02DD6FF0004300E0D1
:1024F000794B7A4A13606D4B01221A706A4B0122A4
:102500001A707B686A4A13607B68002B01DD012228
:1025100000E002226C4B1A700023BFE07B68DB0FE7
:10252000DBB2BB63BB68002BCCBF01230023DBB253
:102530007B63BB68002BB8BF5B423B63BB6B002B6C
:1025400006D17B6B002B01D0042307E0052305E0B7
:102550007B6B002B01D0062300E00723FB62524B6C
:102560001B78022B0FD17A68514B1B689A420AD113
:102570005B4B1B68002BCCBF01230023DBB21A4648
:102580007B6B934204D0FFF779FA484B01221A7013
:102590007B6B002B01D0F02300E06E23BB62484B25
:1025A0001B881946464B1B881A46BB6A9B1A3A6B16
:1025B00002FB03F34B4A82FB03025211DB17D31ACF
:1025C0000B447B62484B1B687A6A9A63BB68444A37
:1025D0001360FB6807EE903AB8EEE77ADFED436AE6
:1025E000C7EE267A9FED427A67EE877AC7ED0F7ABB
:1025F000D7ED0F7A9FED3F7AF4EEC77AF1EE10FA3D
:1026000001D53D4BFB63D7ED0F7A9FED397AF4EEA0
:10261000C77AF1EE10FA01DD384BFB637B6B002BC0
:1026200001D0374B00E0374B3B62B7EE007AD7ED75
:10263000087A37EE677A3B6B07EE903AF8EEE76A76
:102640009FED2A6AC6EE867A67EE277AB7EE007AA1
:1026500077EE677AC7ED077A97ED0F0AFFF7A0FCD0
:10266000B86197ED0F7AD7ED077A67EE277AB0EE6B
:10267000670AFFF795FC7861234AFB6B13607A6960
:10268000B969F86AFFF7A8FC074B02221A707B6849
:10269000074A13600C4B08221A7001231846403772
:1026A000BD4680BD440C0020580C00209C0B00202F
:1026B000540C0020500C00200C00002010000020C2
:1026C0002400002014000020F6070020180B002032
:1026D0001C0B00208A0B0020010000800C0B002046
:1026E000480C00201F85EB51DC0600200000C8428A
:1026F00000409C4500007A4400007A4400409C451C
:10270000CDCC4C3E3D0AD73E3C0B002080B5C2B03C
:1027100002AF002387F8FF3006F02AFCC7F8F40068
:10272000EFF31083C7F8D830D7F8D830C7F8F030B7
:1027300072B600BF8F4B1B78DBB2002B1FD000237B
:10274000C7F8F83011E08C4AD7F8F83013441B78FA
:10275000D9B207F17402D7F8F83013440A461A7058
:10276000D7F8F8300133C7F8F830D7F8F8305F2BD6
:10277000E9D9804B00221A70012387F8FF30D7F87F
:10278000F030002B01D162B600BFD7F8F4107B48BF
:1027900004F0AEFE0346002B0CD0784B5B6807F1CB
:1027A0002400774A50210EF01DFA07F12403184641
:1027B000FFF704FD97F8FF30002B4CD03A4607F1A5
:1027C00074031146184604F0A1FD0346002B42D0C5
:1027D00007F58073A3F580731B78002B1AD107F5DA
:1027E0008073A3F580735B68D7F8F4101846FFF781
:1027F00093FD07F58073A3F580735B6807F12400F0
:10280000604A50210EF0EEF907F124031846FFF755
:10281000D5FC20E03B46D7F8F4201946574804F091
:1028200093FE0346002B16D007F58073A3F5807343
:102830005A6807F58073A3F580739B6807F124003D
:1028400000931346504A50210EF0CCF907F12403AF
:102850001846FFF7B3FC494B1B7883F00103DBB24A
:10286000002B1BD0EFF31083C7F8D430D7F8D43047
:10287000C7F8DC3072B600BF3E4B1B78DBB2002BD2
:1028800002D1424B00221A70D7F8DC30002B01D164
:1028900062B600BFFFF7A4FC002365E007F1180350
:1028A000D7F8F4203549184604F0D4FEFB69002B14
:1028B000CCBF01230023DBB21A46FB69DB0FDBB27E
:1028C000D31AC7F8EC30BB69002B0AD0BB69002BC8
:1028D00001DD012200E00422D7F8EC30013313447B
:1028E00000E00023C7F8E830D7F8E830002B2BD001
:1028F000274B1B68D7F8E8209A4225D0BB69002BEC
:102900000DDDD7F8EC30002B07DBD7F8EC30002BCF
:1029100001DD204B10E0204B0EE0204B0CE0D7F8FF
:10292000EC30002B07DBD7F8EC30002B01DD1C4B23
:1029300002E01C4B00E01C4BC7F8E4303B6A194630
:10294000D7F8E40005F000FC114AD7F8E83013602E
:1029500007F1180393E80700FFF76EFDC7F8E000E2
:10296000FFF73EFCD7F8E030184607F58077BD4604
:1029700080BD00BFE10B0020E40B0020C00B002055
:10298000043901081C3901082C390108E00B00202A
:102990004C0C00203C390108443901084C3901082D
:1029A000543901085C3901086439010880B400AF6A
:1029B000184B1B78DBB2082B26D801A252F823F063
:1029C000E5290008E9290008ED290008F129000897
:1029D000F5290008F9290008FD290008012A000846
:1029E000052A00080C4B10E00C4B0EE00C4B0CE0E1
:1029F0000C4B0AE00C4B08E00C4B06E00C4B04E0DF
:102A00000C4B02E00C4B00E00C4B1846BD465DF849
:102A1000047B7047F60700206C39010874390108FF
:102A20007C390108843901088C390108983901087A
:102A3000A4390108AC390108B4390108BC390108CE
:102A400080B58CB000AF78607B68FB6209E0FB6A00
:102A50001B782C2B02D1FB6A20221A70FB6A0133EF
:102A6000FB62FB6A1B78002BF1D18F4978680EF06E
:102A700061F9B86205E18D49B86AFDF7A9FB034623
:102A8000002B03D18A4B01221A70FEE000233B7514
:102A90000023BB618749B86AFDF79AFB0346002B08
:102AA00004D10B233B750023BB61D1E08249B86A96
:102AB000FDF78EFB0346002B04D10C233B7500234E
:102AC000BB61C5E07D49B86AFDF782FB0346002B78
:102AD00004D10D233B750023BB61B9E07849B86A86
:102AE000FDF776FB0346002B04D10E233B75002334
:102AF000BB61ADE07349B86AFDF76AFB0346002B82
:102B000004D107233B750023BB61A1E06E49B86A7D
:102B1000FDF75EFB0346002B04D108233B75002321
:102B2000BB6195E0BB6A1B78662B0ED1BB6A013393
:102B30001B78782B09D110233B75BB6A02331846EA
:102B40000DF0A8FA0346BB6182E0BB6A1B78662BD6
:102B50000ED1BB6A01331B78752B09D10F233B754E
:102B6000BB6A023318460DF095FA0346BB616FE06D
:102B7000BB6A1B78662B0ED1BB6A01331B78722BA4
:102B800009D103233B75BB6A023318460DF082FA64
:102B90000346BB615CE0BB6A1B78662B0ED1BB6A47
:102BA00001331B786C2B09D104233B75BB6A0233BC
:102BB00018460DF06FFA0346BB6149E0BB6A1B780B
:102BC000722B0ED1BB6A01331B78722B09D10523FE
:102BD0003B75BB6A023318460DF05CFA0346BB61D5
:102BE00036E0BB6A1B78722B0ED1BB6A01331B78AF
:102BF0006C2B09D106233B75BB6A023318460DF0D6
:102C000049FA0346BB6123E0BB6A1B78662B09D1F6
:102C100001233B75BB6A013318460DF03BFA0346AE
:102C2000BB6115E0BB6A1B78722B09D102233B758F
:102C3000BB6A013318460DF02DFA0346BB6107E06D
:102C4000BB6A1B78732B03D109233B750023BB613F
:102C50003B7D002B10D007F1140393E80300FEF72F
:102C60002BFE78627B6A002B06D1184A07F1080315
:102C700007CA83E8070008E00B4900200EF05AF865
:102C8000B862BB6A002B7FF4F6AE0A233B770023C1
:102C90003B6207F11C0393E80300FEF70DFE00BF43
:102CA0003037BD4680BD00BFC0390108C4390108B6
:102CB000F4070020C8390108CC390108D0390108CF
:102CC000D8390108E0390108E4390108E839010878
:102CD00080B483B000AF0346FB71FB79013B0F2B3F
:102CE00040D801A252F823F0292D00082D2D00080C
:102CF000312D0008352D0008392D00083D2D000824
:102D0000412D0008452D0008492D0008652D0008BB
:102D10004D2D0008512D0008552D0008592D000893
:102D20005D2D0008612D0008124B1CE0124B1AE0CB
:102D3000124B18E0124B16E0124B14E0124B12E04B
:102D4000124B10E0124B0EE0124B0CE0124B0AE05B
:102D5000124B08E0124B06E0124B04E0124B02E06B
:102D6000124B00E0002318460C37BD465DF8047B8B
:102D7000704700BFF4390108FC390108043A010822
:102D80000C3A0108A4390108AC390108143A0108C9
:102D90001C3A010884390108243A0108283A01083C
:102DA0002C3A0108343A01083C3A0108403A01083B
:102DB00080B588B000AF9C4B1B78DBB2002B04D0F1
:102DC0009A4B1B78DBB2002B01D1002366E33B1D3D
:102DD0001846FEF7A3FD0346002B01D100235DE357
:102DE0003B791846FFF774FFF861FB69002B18D098
:102DF0003B79022B08D1B7EE001AF0EE080AB3EEC9
:102E0000060A05F071F907E0B7EE001AF1EE040AC0
:102E1000B3EE080A05F068F9BB681946F86905F0D1
:102E200093F93B79013B0F2B00F2368301A252F854
:102E300023F000BF71300008033100087131000831
:102E4000D1310008313200089132000855330008B2
:102E5000F7330008F132000807330008892F000813
:102E6000D92F0008E92E0008392F0008752E000818
:102E7000752E00086E4B1B685B6A9AB26D4B1A8008
:102E80006D4B1B685B6A9AB26C4B1A806C4B1B686B
:102E90006C4A1360FEF78CFE6B4B00221A606B4B82
:102EA0004FF000021A606A4B6FF000421A60BB6874
:102EB000002B02DDBB689BB200E01A23654A138039
:102EC0003B790F2B0CBF01230023DBB21A46624B68
:102ED0001A70624B07221A70614B01221A70614B03
:102EE00001221A700123D9E2514B1B685B6A9AB226
:102EF000504B1A80504B1B685B6A9AB24F4B1A803A
:102F00004F4B1B684F4A1360FEF752FE4E4B002298
:102F10001A604E4B4FF000021A604D4B6FF00042AA
:102F20001A604E4B05221A704D4B01221A704D4B00
:102F300001221A700123B1E23D4B1B685B6A9AB211
:102F40003C4B1A803C4B1B685B6A9AB23B4B1A8025
:102F50003B4B1B683B4A1360FEF72AFE3A4B0022AC
:102F60001A603A4B4FF000021A60394B6FF0004282
:102F70001A603A4B06221A70394B01221A70394BEB
:102F800001221A70012389E2294B1B685B6A9AB2FD
:102F9000284B1A80284B1B685B6A9AB2274B1A8011
:102FA000274B1B68274A1360FEF702FE2E4B0022B8
:102FB0001A602E4B4FF000021A60254B6FF0004252
:102FC0001A60264B02221A70254B01221A70254BDB
:102FD00001221A70012361E2154B1B685B6A9AB2E9
:102FE000144B1A80144B1B685B6A9AB2134B1A80FD
:102FF000134B1B68134A1360FEF7DAFD1A4B0022CD
:103000001A601A4B4FF000021A60114B6FF0004229
:103010001A60124B03221A70114B01221A70114BC5
:1030200001221A70012339E2400B00202C0B0020F2
:1030300074050020080B0020BC0500200A0B0020AE
:10304000180B00201C0B00208C0B0020900B002084
:103050000C0B002020000020220000208A0B002002
:10306000F60700209C0B0020940B0020980B0020FA
:10307000BB683B61A64B1B685B6A9AB2A54B1A8082
:10308000A54B1B685B6A9AB2A44B1A80A44B1B68C1
:10309000A44A1360FEF78CFD3B69002B1BDD3B69E6
:1030A00007EE903AF8EEE77A9FED9F7A67EE877A1F
:1030B000B6EE007A77EE877AFDEEE77A17EE903A71
:1030C000FB609A4AFB681360994B00221A70994B77
:1030D00001221A7010E0964B01221A70934B6FF088
:1030E00000421A60944B00221A60944B4FF0000289
:1030F0001A60904B01221A70914B01221A70012321
:10310000CCE1BB68002B01DDBB6800E03223BB6172
:103110007F4B1B685B6A9AB27E4B1A807E4B1B68A2
:103120005B6A9AB27D4B1A80BB6907EE903AF8EE63
:10313000E77A9FED7D7A67EE877AB6EE007A77EED2
:10314000877AFDEEE77A17EE903A5B427B61774A29
:103150007B691360724B1B68724A1360FEF728FD8F
:10316000744B02221A70764B01221A70012395E1EA
:10317000BB68002B05DBBB6807EE903AF8EEE77AF8
:1031800006E0BB6807EE903AF8EEE77AF1EE677A70
:103190006C4BC3ED007A624B93ED007A694BD3ED33
:1031A000007A77EE677A684BC3ED007AFEF710FD80
:1031B00005F0DEFE03466433644A1360644B00226C
:1031C0001A705C4B04221A70FEF756FE012365E16B
:1031D000BB68002B05DBBB6807EE903AF8EEE77A98
:1031E00006E0BB6807EE903AF8EEE77AF1EE677A10
:1031F000544BC3ED007A4A4B93ED007A514BD3ED1B
:10320000007A77EE277A504BC3ED007AFEF7FCFC8C
:1032100005F0AEFE034664334C4A13604C4B00226B
:103220001A70444B05221A70FEF726FE012335E181
:10323000BB68002B05DBBB6807EE903AF8EEE77A37
:1032400006E0BB6807EE903AF8EEE77AF1EE677AAF
:103250003C4BC3ED007A324B93ED007A394BD3ED02
:10326000007A77EE277A384BC3ED007AFEF7BEFC82
:1032700005F07EFE03463233344A1360344B01229C
:103280001A702C4B06221A70FEF7F6FD012305E199
:10329000BB68002B05DBBB6807EE903AF8EEE77AD7
:1032A00006E0BB6807EE903AF8EEE77AF1EE677A4F
:1032B000244BC3ED007A1A4B93ED007A214BD3EDEA
:1032C000007A77EE677A204BC3ED007AFEF7AAFC0E
:1032D00005F04EFE034632331C4A13601C4B00229D
:1032E0001A70144B07221A70FEF7C6FD0123D5E0B1
:1032F000FEF7C4FBFEF71CFEFEF75AFC0D4B032243
:103300001A700123CAE0FEF75FFB0123C6E000BF8D
:1033100074050020080B0020BC0500200A0B0020CB
:10332000180B00201C0B0020896D93420C0B002011
:103330008A0B0020F60700208C0B0020900B002049
:103340009C0B002000000020100B00206C0B0020C4
:10335000700B0020534B1B681846FDF705F9024619
:103360000B465149C1E900234E4B1B681846FDF737
:10337000FBF84FF000024D4BFCF798FF02460B465E
:103380004B49C1E90023474B1B681846FDF7ECF891
:103390004FF00002454BFCF787FF02460B461046F4
:1033A0001946FDF711FC03463E4A1360414B0122CA
:1033B0001A70414B01221A70404B1B78DBB2012B73
:1033C00017D03F4B1B685B6A9AB23E4B1A803E4B4C
:1033D0001B685B6A9AB23D4B1A80FEF7E9FB3C4BD7
:1033E0006FF000421A603B4B00221A70334B0122EF
:1033F0001A70012352E02B4B1B681846FDF7B4F8F6
:1034000002460B462849C1E90023264B1B68184693
:10341000FDF7AAF84FF00002244BFCF745FF0246E7
:103420000B462349C1E900231E4B1B681846FDF7D4
:103430009BF84FF000021D4BFCF738FF02460B468D
:1034400010461946FDF7C0FB0346164A1360194B98
:1034500002221A70184B01221A70184B1B78DBB22B
:10346000012B17D0164B1B685B6A9AB2154B1A805A
:10347000154B1B685B6A9AB2144B1A80FEF798FBD7
:10348000134B6FF000421A60124B00221A700B4B64
:1034900001221A70012301E000BF002318462037E3
:1034A000BD4680BD100B0020A00B0020000049404D
:1034B000A80B00209D0B00209E0B0020F60700208B
:1034C00074050020080B0020BC0500200A0B00201A
:1034D0000C0B00208A0B002080B584B000AF87ED74
:1034E000010AD7ED017A9FED1A7AF4EEC77AF1EE70
:1034F00010FA01D5174B24E0DFED170A97ED010A0A
:103500000FF050FDF0EE407A9FED147A67EE877A67
:10351000C7ED037AD7ED037A9FED117AF4EEC77AFF
:10352000F1EE10FA01DD0B4B0BE0D7ED037AB2EEB2
:10353000047AF4EEC77AF1EE10FA01D5094B00E0F7
:10354000FB6807EE903AB0EE670A1037BD4680BDC3
:10355000CDCCCC3D0000A042333393BF48E1DE41E7
:103560000000A04200002041B0B5B2B000AF824BD5
:103570005B6FC7F8C43005F095FC00F033F9FEF737
:1035800065FA00F0FDFC00F0DBFC00F0BFFA00F093
:1035900015FA00F067FA00F0A9FC00F0ADFB00F0AE
:1035A00019FC00F0DDF900F033FB00F079F900F0D0
:1035B00073FC05F0E9FB714804F048FDB7EE001A12
:1035C000F1EE040AB3EE080A04F08EFDD7F8C43019
:1035D00003F00053002B03D0694804F001FE34E0EF
:1035E000D7F8C43003F08043002B03D0654804F0C3
:1035F000F7FD2AE0D7F8C43003F08053002B03D046
:10360000614804F0EDFD20E0D7F8C43003F000730A
:10361000002B03D05D4804F0E3FD16E0D7F8C4307A
:1036200003F08063002B03D0594804F0D9FD0CE06F
:10363000D7F8C43003F00063002B03D0554804F0E2
:10364000CFFD02E0544804F0CBFD4B4B5B6F4A4A80
:1036500043F0807353670122504951480AF017FB29
:1036600002225049504805F0F7FC504B07F1A804DE
:103670001D460FCD0FC495E8070084E8070007F149
:10368000A803002118460BF0A8FA0346484A136025
:10369000484B07F18C041D460FCD0FC495E8070079
:1036A00084E8070007F18C03002118460BF095FA17
:1036B0000346414A1360414B07F170041D460FCD8C
:1036C0000FC495E8070084E8070007F170030021A4
:1036D00018460BF082FA0346394A1360394B07F15A
:1036E00054041D460FCD0FC495E8070084E8070079
:1036F00007F15403002118460BF06FFA0346324AD3
:103700001360324B07F138041D460FCD0FC495E806
:10371000070084E8070007F13803002118460BF082
:103720005CFA03462A4A13602A4B07F11C041D4623
:103730000FCD0FC495E8070084E8070007F11C03CC
:10374000002118460BF049FA0346234A1360234B25
:103750003C461D460FCD0FC495E8070084E80700DE
:103760003B46002118460BF038FA03461C4A13600A
:103770000BF02CFA00BFFDE70038024024070020C0
:10378000443A0108503A01085C3A01086C3A0108D1
:103790007C3A0108883A0108943A0108F5070020AC
:1037A0006C070020740B002078040020AC3A01085C
:1037B000B4070020D43A0108B8070020FC3A0108F9
:1037C000BC070020283B0108C0070020503B01082F
:1037D000C40700207C3B0108C8070020A03B01086B
:1037E000CC07002080B594B000AF07F12003302251
:1037F000002118460DF070FA07F10C0300221A6040
:103800005A609A60DA601A610023BB60224B1B6C1D
:10381000214A43F0805313641F4B1B6C03F0805309
:10382000BB60BB6800237B601C4B1B681B4A43F4D6
:1038300080431360194B1B6803F480437B607B68F3
:1038400002233B620123FB6210233B630023BB6323
:1038500007F12003184608F03BF80346002B01D07F
:1038600003F048FC0F23FB6000233B6100237B61D6
:103870000023BB610023FB6107F10C030021184604
:1038800008F09EFA0346002B01D003F033FC00BF82
:103890005037BD4680BD00BF003802400070004078
:1038A00080B584B000AF3B4600221A605A609A602F
:1038B000DA60284B284A1A60264B4FF440325A608F
:1038C000244B00229A60234B01221A61214B0122D2
:1038D0001A76204B002283F820201E4B0022DA6249
:1038E0001C4B1E4A9A621B4B0022DA60194B0222C3
:1038F000DA61184B012283F83020164B00225A61FE
:10390000144805F065FB0346002B01D003F0F2FBE1
:103910000A233B6001237B600723BB603B461946BB
:103920000C4805F0C1FC0346002B01D003F0E2FB7C
:103930000B233B6002237B603B461946054805F09C
:10394000B3FC0346002B01D003F0D4FB00BF1037BB
:10395000BD4680BD78040020002001400100000F1A
:1039600080B500AF124B134A1A60114B124A5A60CD
:103970000F4B00229A600E4B0022DA600C4B4FF482
:1039800080421A610A4B00225A61094B00229A6157
:10399000074B0022DA61064B00221A62044806F047
:1039A0001BFF0346002B01D003F0A4FB00BF80BD2A
:1039B0002005002000580040A086010080B58CB092
:1039C00000AF07F10C032422002118460DF084F902
:1039D0003B1D00221A605A60214B4FF080421A6052
:1039E0001F4B00225A601E4B00229A601C4B4FF660
:1039F000FF72DA601A4B00221A61194B00229A6199
:103A00000323FB6000233B6101237B610023BB6137
:103A10000A23FB6100233B6201237B620023BB621C
:103A20000A23FB6207F10C0319460D4808F098FEC3
:103A30000346002B01D003F05DFB00237B600023D5
:103A4000BB603B1D1946064809F080FF0346002B6A
:103A500001D003F04FFB00BF3037BD4680BD00BF33
:103A60007405002080B58CB000AF07F10C03242250
:103A7000002118460DF030F93B1D00221A605A60F3
:103A8000204B214A1A601F4B00225A601D4B002216
:103A90009A601C4B4FF6FF72DA601A4B00221A61D3
:103AA000184B00229A610323FB6000233B61012332
:103AB0007B610023BB610A23FB6100233B6201237E
:103AC0007B620023BB620A23FB6207F10C031946E9
:103AD0000C4808F045FE0346002B01D003F00AFB1A
:103AE00000237B600023BB603B1D1946054809F09D
:103AF0002DFF0346002B01D003F0FCFA00BF303746
:103B0000BD4680BDBC0500200004004080B58EB0DD
:103B100000AF07F1280300221A605A609A60DA6049
:103B200007F1200300221A605A603B1D00221A6030
:103B30005A609A60DA601A615A619A61324B334A6C
:103B40001A60314B00225A602F4B00229A602E4B94
:103B500041F61F42DA602C4B00221A612A4B0022E8
:103B60009A61294808F00AFB0346002B01D003F0B4
:103B7000C1FA4FF48053BB6207F12803194622486B
:103B800009F070F90346002B01D003F0B3FA1E4888
:103B900008F043FB0346002B01D003F0ABFA0023EF
:103BA0003B6200237B6207F120031946164809F0A7
:103BB000CDFE0346002B01D003F09CFA60237B600E
:103BC0000023BB600023FB6000237B613B1D0822B8
:103BD00019460D4809F084F80346002B01D003F084
:103BE00089FA3B1D0C221946074809F079F803466B
:103BF000002B01D003F07EFA034803F0ABFF00BFB7
:103C00003837BD4680BD00BF0406002000080040D4
:103C100080B58AB000AF07F1180300221A605A601D
:103C20009A60DA6007F1100300221A605A603B467E
:103C300000221A605A609A60DA602D4B2D4A1A6091
:103C40002B4B0F225A602A4B00229A60284B4FF6CA
:103C5000FF72DA60264B00221A61254B00225A615E
:103C6000234B00229A61224808F088FA0346002B71
:103C700001D003F03FFA4FF48053BB6107F1180302
:103C800019461B4809F0EEF80346002B01D003F05B
:103C900031FA174808F0E2FB0346002B01D003F08D
:103CA00029FA00233B6100237B6107F110031946C9
:103CB0000F4809F04BFE0346002B01D003F01AFA1F
:103CC0000A233B6001237B600023BB600023FB6071
:103CD0003B4604221946064808F066FF0346002BBF
:103CE00001D003F007FA00BF2837BD4680BD00BFF2
:103CF0004C0600200004014080B58CB000AF07F1F5
:103D0000200300221A605A609A60DA603B1D00228C
:103D10001A605A609A60DA601A615A619A612B4B94
:103D20002B4A1A60294B00225A60284B00229A60C5
:103D3000264B41F61F42DA60244B00221A61234BC6
:103D400000229A61214808F019FA0346002B01D09D
:103D500003F0D0F94FF480533B6207F1200319467A
:103D60001A4809F07FF80346002B01D003F0C2F98E
:103D7000164808F052FA0346002B01D003F0BAF9B6
:103D800060237B600023BB600023FB6000237B611A
:103D90003B1D002219460D4808F0A2FF0346002BE8
:103DA00001D003F0A7F93B1D04221946074808F08B
:103DB00097FF0346002B01D003F09CF9034803F062
:103DC000C9FE00BF3037BD4680BD00BF940600204D
:103DD0000040014080B58CB000AF07F12003002205
:103DE0001A605A609A60DA603B1D00221A605A60BD
:103DF0009A60DA601A615A619A61254B254A1A6005
:103E0000234BA0225A60224B00229A60204B4FF491
:103E10007A72DA601E4B00221A611D4B00229A61F1
:103E20001B4808F0ABF90346002B01D003F062F900
:103E30004FF480533B6207F120031946144809F000
:103E400011F80346002B01D003F054F9104808F094
:103E5000E4F90346002B01D003F04CF960237B60AA
:103E60000023BB600023FB6000237B613B1D042219
:103E70001946074808F034FF0346002B01D003F031
:103E800039F9034803F066FE00BF3037BD4680BDF8
:103E9000DC0600200018004080B500AF114B124A2C
:103EA0001A60104B4FF4E1325A600E4B00229A60B8
:103EB0000C4B0022DA600B4B00221A61094B0C22DA
:103EC0005A61084B00229A61064B0022DA610548CC
:103ED00009F0CCFD0346002B01D003F00BF900BF25
:103EE00080BD00BF240700200044004080B500AF23
:103EF000114B124A1A60104B4FF4E1325A600E4BCC
:103F000000229A600C4B0022DA600B4B00221A61EF
:103F1000094B0C225A61084B00229A61064B002281
:103F2000DA61054809F0A2FD0346002B01D003F039
:103F3000E1F800BF80BD00BF6C07002000480040D2
:103F400080B582B000AF00237B600C4B1B6B0B4A2B
:103F500043F480031363094B1B6B03F480037B6002
:103F60007B6800220521382005F019FD382005F076
:103F700032FD00BF0837BD4680BD00BF003802409B
:103F800080B58AB000AF07F1140300221A605A60AE
:103F90009A60DA601A6100233B61484B1B6B474A09
:103FA00043F010031363454B1B6B03F010033B619D
:103FB0003B690023FB60414B1B6B404A43F0040309
:103FC00013633E4B1B6B03F00403FB60FB68002391
:103FD000BB603A4B1B6B394A43F001031363374B09
:103FE0001B6B03F00103BB60BB6800237B60334B9A
:103FF0001B6B324A43F002031363304B1B6B03F01D
:1040000002037B607B6800233B602C4B1B6B2B4ABD
:1040100043F008031363294B1B6B03F008033B6059
:104020003B6800224FF48071254806F0A1FB002276
:104030004FF4F041234806F09BFB00224021224828
:1040400006F096FB4FF480737B610123BB61002374
:10405000FB6100233B6207F114031946184806F080
:10406000D7F84FF4F0437B610123BB610023FB6170
:1040700000233B6207F114031946124806F0C8F802
:1040800040237B610123BB610023FB6100233B6272
:1040900007F1140319460C4806F0BAF801237B61B6
:1040A0000023BB610023FB6107F114031946044898
:1040B00006F0AEF800BF2837BD4680BD003802408C
:1040C00000100240000C02400008024080B500AF22
:1040D000002240210A4806F04BFB0220FDF78EFC2F
:1040E00001224021064806F043FB0A20FDF786FC2A
:1040F00000224021024806F03BFB00BF80BD00BF0C
:104100000008024080B487B000AFF860B9607A6000
:10411000FA68BB68934238BF13467A68934238BF47
:1041200013467B61FA68BB68934228BF13467A68DE
:10413000934228BF13463B61FA68BB681A447B6808
:104140001A447B69D21A3B69D31A18461C37BD46FC
:104150005DF8047B7047000080B584B000AF7860E4
:104160007B681B684A4A934240F08D807B681B7FC6
:10417000022B40F08880474B1B78DBB2002B17D115
:104180007B681B6800225A627B681B681A6A7B681E
:104190001B6822F0A0021A627B681B681A6A7B689F
:1041A0001B6842F020021A623A4B01221A706BE03F
:1041B0000421786808F01EFF03469AB2364B1A8035
:1041C0007B681B681A6A7B681B6822F0A0021A626F
:1041D0007B681A687B681B68126A1A622D4B002282
:1041E0001A702D4B1B889BB207EE903AF8EEE77AD7
:1041F0009FED2A7A67EE877AB6EE007A77EE877AB5
:10420000FCEEE77A17EE903ABB60254B1B78194617
:10421000244ABB6842F82130214B1B78591C224BA1
:10422000A3FB01235A0813465B001344CA1AD2B2F7
:104230001B4B1A701D4B1B78022B05D81B4B1B7890
:104240000133DAB2194B1A70BB68FB60174B1B784D
:10425000032B09D1134B1B68124A5168114A92680B
:104260001846FFF74FFFF860FB6807EE903AF8EE4C
:10427000677A0F4BC3ED007A0E4AFB6813600E4B52
:1042800001221A7000E000BF1037BD4680BD00BF9C
:1042900000040140B00B0020B20B0020287E8C3CB3
:1042A000E8070020DC070020ABAAAAAAE907002043
:1042B000D4070020D0070020D807002080B584B0A4
:1042C00000AF78607B681B68614A934240F0BC8015
:1042D000604B1B78FB72FB7A0D2B02D0FB7A0A2B0A
:1042E00076D15D4B1B881A465C4B002199545C4B80
:1042F0001B78002B65D1584B1B88002B61D0002305
:10430000FB8114E0FB89554AD35C402B0CD9FB8917
:10431000524AD35C5A2B07D8FB89504AD25CFB899E
:104320002032D1B24D4AD154FB890133FB814A4B33
:104330001B88FA899A42E5D34A494848FBF748FF67
:104340000346002B03D1484B01221A7039E0434B3E
:104350001B786A2B03D14148FDF7F6FE31E0434B51
:104360001B78DBB2002B2CD13F4B1B78DBB2002B30
:1043700027D10023BB8110E0BB89384AD35C3B2B9B
:1043800004D0BB89354AD35C2C2B03D1BB89334A7B
:104390002021D154BB890133BB812F4B1B88BA89A3
:1043A0009A42E9D32D48FEF74BFB314B1B78DBB229
:1043B000002B06D12C4B1B78DBB2002B01D1FEF772
:1043C000F7FC254B00221A80254B00221A7035E09D
:1043D000234B1B78002B31D1FB7A1F2B02D9FB7AA0
:1043E0007E2B19D9FB7A092B03D01D4B01221A70A1
:1043F00024E0194B1B88FE2B0AD8174B1B885A1C2C
:1044000091B2154A11801946144AFB7A535415E0AB
:10441000134B01221A7011E00F4B1B88FE2B0AD898
:104420000D4B1B885A1C91B20B4A118019460B4A3E
:10443000FB7A535402E00A4B01221A70012205490B
:104440000C4809F024FC00E000BF1037BD4680BDD9
:1044500000480040F5070020F8080020F807002079
:10446000FA080020C4390108F4070020E00B0020FE
:10447000F60700206C07002080B485B000AF78609C
:104480007B681B68354A934261D1354B1B889BB2D0
:104490001A4640F6E44302FB03F303F2FF72314B8A
:1044A000A3FB0213D21A52081344DB0AFB812C4BE4
:1044B0005B889BB21A4640F6E44302FB03F303F227
:1044C000FF72284BA3FB0213D21A52081344DB0AD3
:1044D000BB81254B1B889BB29A00FB891344234A5E
:1044E000A2FB03239B089AB21F4B1A80204B1B8808
:1044F0009BB29A00BB8913441C4AA2FB03239B086E
:104500009AB21B4B1A80164B1B889AB2194B1A8011
:10451000134B5B889AB2184B1A80134B1B889BB2C3
:1045200040F21F3293428CBF01230023DBB21A46B4
:10453000124B1A700E4B1B889BB240F21F329342F3
:104540008CBF01230023DBB21A460D4B1A7000BF4B
:104550001437BD465DF8047B704700BF0020014062
:10456000740B002001011000860B0020CDCCCCCCB8
:10457000880B0020780B00207A0B0020840B002091
:10458000850B002080B584B000AF78604123FB73B9
:104590004FF48071044806F004F94FF47A700AF081
:1045A00068FB00BFF4E700BF0010024080B58EB08A
:1045B00002AF78600121794806F0C2F8034687F817
:1045C0002F30774B1B78012B11D197F82F30002B10
:1045D0000DD1744B1B780133002B03F00103B8BFDE
:1045E0005B42DAB26F4B1A7032200AF042FB6C4A1F
:1045F00097F82F3013706C4B1B78DBB2002B19D15E
:104600006A4A0021002004F08DFB694A1021002035
:1046100004F088FB674A2021002004F083FB664AEF
:104620003021002004F07EFB04F004FA14200AF08C
:1046300020FBB1E05B4B1B78002B4DD15F4B1B681F
:104640001846FBF791FF02460B4607F10C00CDE937
:1046500000235B4A20210CF0C5FA07F10C031A462F
:104660000021002004F05EFB564BD3ED007AFDEEF6
:10467000E77A07F10C0017EE903A534A20210CF02C
:10468000B1FA07F10C031A461021002004F04AFB8E
:104690004E4B1A684E4B1B6807F10C0000931346F3
:1046A0004C4A20210CF09EFA07F10C031A462021F7
:1046B000002004F037FBFEF779F9034607F10C0000
:1046C000454A20210CF08EFA07F10C031A463021DE
:1046D000002004F027FB5AE0324B1B78012B56D107
:1046E0003E4B1B6807F10C003D4A20210CF07AFA82
:1046F00007F10C031A460021002004F013FB394B8C
:104700001B889BB21A46384B1B78DBB207F10C00B2
:1047100000931346354A20210CF064FA07F10C038C
:104720001A461021002004F0FDFA314B1B889BB281
:104730001A46304B1B78DBB207F10C00009313468E
:104740002D4A20210CF04EFA07F10C031A462021C5
:10475000002004F0E7FA294BD3ED007ABDEEE77AAA
:10476000274BD3ED007AFDEEE77A17EE903A07F18A
:104770000C00009317EE103A224A20210CF032FA76
:1047800007F10C031A463021002004F0CBFA04F0A4
:1047900051F914200AF06DFA0CE700BF0010024036
:1047A00026000020FC0C00202C0B0020BC3B010844
:1047B000D03B0108E43B0108F83B0108180B00203E
:1047C0000C3C0108100B00201C3C0108EC070020E9
:1047D000F0070020283C0108343C0108D0070020E5
:1047E000403C0108860B0020840B0020543C01084B
:1047F000880B0020850B0020643C0108B40B0020CE
:10480000B80B0020743C0108B0B5ADF53C7D06AF97
:1048100007F53673A3F535731860BF4B00221A7085
:10482000FDF776F9FDF786F90821BC4807F04EFD43
:104830000C21BA4807F04AFD0021B94807F046FDAF
:104840000421B74807F042FDFDF718F932200AF0BD
:1048500010FAB44B1B68F0229A630421B14807F0A8
:1048600035FDFDF72FFA02E014200AF002FAAE4BF4
:104870001B78DBB2002BF7D0FDF700F9AB4802F054
:1048800011FEAB4B1B78DBB2002B00F09480EFF3F2
:10489000108207F53673A3F5D6731A6007F53673E1
:1048A000A3F5D6731B68C7F8783272B600BF07F558
:1048B0003673A3F52B739F4A184611464FF4807345
:1048C0001A460CF014FB9A4B00221A70D7F8783273
:1048D000002B01D162B600BF07F53673A3F52B7329
:1048E000002283F8FF200023C7F8D43248E007F500
:1048F0003673A3F52B72D7F8D43213441B78402BB0
:104900001CD907F53673A3F52B72D7F8D4321344AC
:104910001B785A2B12D807F53673A3F52B72D7F8EC
:10492000D43213441B782033D9B207F53673A3F57C
:104930002B72D7F8D43213440A461A7007F536732F
:10494000A3F52B72D7F8D43213441B783B2B09D034
:1049500007F53673A3F52B72D7F8D43213441B78BE
:104960002C2B08D107F53673A3F52B72D7F8D43268
:10497000134420221A70D7F8D4320133C7F8D43246
:1049800007F53673A3F52B72D7F8D43213441B788E
:10499000002BACD107F12C031846FEF751F8664BFB
:1049A0001B78DBB2002B06D1644B1B78DBB2002BEB
:1049B00001D1FEF7FDF9604B1B78DBB2002B35D03F
:1049C0005D4B1B78DBB2032B30D004F0D1FAC7F873
:1049D0007402554B1B78DBB2002B08D0584B1B6878
:1049E000D7F87422D31A642B01D9012300E00023E5
:1049F00087F8733297F8733203F0010387F8733244
:104A0000494B1B78DBB2002B03D097F87332002B95
:104A10000CD097F87332002B01D04A4B00E04A4B80
:104A2000184603F0DDFB454B01221A70434B1B78FF
:104A3000DBB2002B56D0404B1B78DAB207F5367349
:104A4000A3F5D4731A60FDF71BFC3C4B00221A70CF
:104A50003E4B00221A703E4B00221A603D4B4FF035
:104A600000021A603C4B00221A603C4B4FF00002DF
:104A70001A603B4B00221A703A4B00221A70FCF766
:104A8000FDFF394B00221A6007F53673A3F5D47386
:104A90001868FDF75CF90346002B07D007F536735D
:104AA000A3F5D4731868FDF7D4F901E0FDF780F899
:104AB0002E4B00221A60FCF75BFF1F4B00221A707E
:104AC0002B4B00221A602B4B00221A70FDF730FA94
:104AD0002948FDF773FBFDF783FB05200AF0C9F8B1
:104AE00001F0C6BFFDF712FE0346002B04D00520DF
:104AF0000AF0BFF801F0BCBF0F4B1B78DBB2072BED
:104B000001F39B87042B81F2B785022B36DC002B47
:104B100039DC01F092BF00BF400B002004060020EA
:104B200094060020DC0600202C0B0020C00B002087
:104B3000FC090020FC080020F6070020F4070020F4
:104B4000300B0020883C0108943C01088A0B0020AF
:104B50008C0B0020900B0020940B0020980B002061
:104B60009D0B00209E0B0020000A00200C0B002053
:104B70006C0B0020700B0020A43C0108032B01F0FB
:104B80004F8701F05ABF4FF07A53C7F84032864B37
:104B9000C7F83C32844BC7F83832844B1B685B6AD9
:104BA000A7F83632824B1B685B6AA7F83432814B18
:104BB0001B78DBB2022B02D14FF0FF3300E0012360
:104BC000C7F8303204F0D4F9C7F82C027A4B1B78BE
:104BD000002B0AD0794B1B78DBB2002B05D1784B28
:104BE0001B68D7F830229A422BD0764AB7F8363273
:104BF0001380754AB7F834321380744B00221A6060
:104C0000734B00221A606E4AD7F8303213606A4B39
:104C100001221A706F4B4FF000021A606E4AD7F8EB
:104C20002C3213606D4AD7F82C3213606C4B6D4AEE
:104C30001A606D4AD7F82C3213606C4B00221A6050
:104C400020E0604B1B88B7F83622D31A9BB21BB208
:104C50001A465E4B1B6813445C4A13605C4B1B682E
:104C6000594A1288B7F834128A1A92B212B29B1AB1
:104C7000574A1360534AB7F836321380524AB7F88E
:104C800034321380544B1B68D7F82C22D31AC7F840
:104C90002832514AD7F82C321360D7F82832322BF9
:104CA00002D93223C7F82832484B1A68484B1B6890
:104CB0001344DA0F13445B10C7F824324B4B1B68C4
:104CC000D7F82422D31AC7F82032D7F82032032B82
:104CD00004DCD7F8203213F1030F07DA434AD7F880
:104CE00024321360404AD7F82C321360D7F83032A0
:104CF000002B07DD3E4B1A68D7F82432D31AC7F8C9
:104D0000D03206E03A4B1B68D7F82422D31AC7F8F2
:104D1000D032D7F8D032002B02DA0023C7F8D032D5
:104D2000002387F8CF32324B1B68002B0ADB304B55
:104D30001B68D7F824229A42ACBF0123002387F8CE
:104D4000CF3209E02A4B1B68D7F824229A42D4BFFD
:104D50000123002387F8CF32002387F8CE32154B8A
:104D60001B78DBB2012B40F02881224B1B78DBB291
:104D7000002B00F022811F4B1B78DBB2013B062B7E
:104D800000F2F48001A252F823F000BF954E000813
:104D90001D4F0008314F00086D4F0008454F0008B7
:104DA000594F0008F94D00080AD7233C740500202C
:104DB000BC050020F6070020FD0C00209C0B002005
:104DC000000D0020040D0020060D0020080D00201D
:104DD0000C0D0020100D0020140D0020180D0020D7
:104DE00028000020000070411C0D0020200D002034
:104DF0000C0B00208A0B00205E4B1B889BB21A46CE
:104E00005D4B1B689A422CBF0123002387F8CE32EA
:104E1000594B1B68142B00F2AB80584B1B78DBB24C
:104E2000002B00F0A580564B1B78DBB2002B15D170
:104E3000514B1B6807F10C00524A20210BF0D2FEA7
:104E4000C7F81C024E4B01221A70D7F81C329AB2D6
:104E500007F10C0319464C4808F0E3FE4B4B1B6866
:104E60004B4A1360FCF7A4FE4A4B04221A704A4BCB
:104E70004A4A1A604A4B00221A604A4B00221A60C2
:104E8000002387F8CE32484B01221A70474B02228A
:104E90001A706DE0384B1B681A2B94BF0123002356
:104EA00087F8CE32344B1B68142B00F28580344BCC
:104EB0001B78DBB2002B15D12F4B1B6807F10C00C0
:104EC000304A20210BF08EFEC7F818022C4B01222D
:104ED0001A70D7F818329AB207F10C0319462A480B
:104EE00008F09FFE294B1B68294A1360FCF760FEFF
:104EF000284B04221A70284B284A1A60284B00229B
:104F00001A60284B00221A60002387F8CE32264B05
:104F100001221A70254B02221A704DE0244B1B7897
:104F2000DBB2002B0CBF0123002387F8CE3244E014
:104F3000204B1B78DBB2002B0CBF0123002387F82A
:104F4000CE323AE01A4B1B78DBB2012B0CBF0123A7
:104F5000002387F8CE3230E0164B1B78DBB2012BF2
:104F60000CBF0123002387F8CE3226E000BF24E0E7
:104F700000BF22E020000020D007002022000020F7
:104F8000060B0020AC3C01086C070020100B002031
:104F90001C0B00208A0B00200C0B0020010000805D
:104FA000240D0020280D00209C0B0020F607002077
:104FB000850B0020840B002000BF6E4B1B78DBB2FA
:104FC000022B0CD16C4B1B78DBB2042B07D16B4B43
:104FD0001B68132B8CBF0123002387F8CE3297F870
:104FE000CE32002B3BD0644B1B78DBB2012B04D0BC
:104FF000614B1B78DBB2072B31D1614B1B6807EE8D
:10500000903AB8EEE77ADFED5F6AC7EE267A5E4B3C
:10501000C3ED007A5D4B1B78DBB2002B1FD15A4BDE
:105020001B681846FBF7A0FA02460B46534909686D
:1050300007F10C000291CDE90023554A20210BF025
:10504000D1FDC7F81402514B01221A70D7F814325F
:105050009AB207F10C0319464E4808F0E2FD97F8A2
:10506000CE32002B38D0444B1B78DBB2022B04D05D
:10507000414B1B78DBB2032B2ED1474B1B6807EE4D
:10508000903AB8EEE77ADFED3F6AC7EE267A434BF7
:10509000C3ED007A3D4B1B78DBB2002B1CD13F4B9C
:1050A0001B681846FBF760FA02460B4607F10C0036
:1050B000CDE900233A4A20210BF094FDC7F81002F5
:1050C000324B01221A70D7F810329AB207F10C0352
:1050D0001946304808F0A5FD97F8CF32002B03D1D0
:1050E00097F8CE32002B79D0FCF7C8FC2D4B41F657
:1050F0001F421A602C4B41F61F421A60FCF758FD04
:105100002A4B1B881A462A4B1A60284B1B881A46C2
:10511000284B1A60284B4FF000021A60274B4FF0C3
:1051200000021A60264B4FF000021A60254B4FF028
:1051300000021A60244B4FF000021A6003F018FFBF
:10514000034603F59673214A13600B4B00221A7035
:105150001F4B00221A601F4B00221A60054B0022D1
:105160001A7003F005FF034603F596731A4A13609D
:1051700001F07BBCF60700208A0B0020D00700203E
:105180008C0B0020896D9342900B0020060B0020B1
:10519000B83C01086C070020940B0020980B0020FD
:1051A000C43C01080C000020100000202400002056
:1051B0001400002018000020440B0020480B0020A1
:1051C0004C0B0020500B0020540B0020140B00202F
:1051D000240D0020280D0020000A002003F0C8FE46
:1051E000C7F80C02BE4B1B68002B0BD1BC4AD7F88A
:1051F0000C321360BB4AB7F836321380BA4AB7F89C
:1052000034321380B94B1B78DBB2002B3FD0B54A48
:10521000B7F836321380B44AB7F834321380B04A44
:10522000D7F80C321360B14B00221A70B04B4FF01C
:1052300000021A60AF4B4FF000021A60AE4B002222
:105240001A60AE4B00221A60AD4B4FF000021A609C
:10525000AC4B4FF000021A60AB4B00221A70AB4B04
:105260004FF000021A60AA4B4FF000021A60A94BDF
:105270004FF000021A60A84B4FF000021A60A74BD3
:105280004FF000021A60A64B4FF000021A60954BD7
:105290001B88B7F83622D31A9BB2A7F80A32924B72
:1052A0001B88B7F83422D31A9BB2A7F80832B7F894
:1052B00008325B429BB2A7F808329A4B1B78DBB2EC
:1052C000012B1AD1984B1B78DBB2012B04D0964BE3
:1052D0001B78DBB2072B10D1B7F90A22B7F90832D5
:1052E0001344DA0F13445B10C7F804328F4B1A686B
:1052F000D7F8043213448D4A13608A4B1B78DBB213
:10530000012B1AD1884B1B78DBB2022B04D0864BC1
:105310001B78DBB2032B10D1B7F90A22B7F9083298
:105320001344DA0F13445B10C7F80032804B1A683D
:10533000D7F8003213447E4A1360694B1B68D7F8D4
:105340000C22D31AC7F8C832D7F8C832002B02D1C2
:105350000123C7F8C832B7F90A324FF47A7203FB57
:1053600002F2D7F8C83292FBF3F3C7F8FC31B7F971
:1053700008324FF47A7203FB02F2D7F8C83292FB7C
:10538000F3F3C7F8F831D7F8C83207EE903AB8EE21
:10539000677ADFED686AC7EE267AC7ED7D7AD7EDCA
:1053A0007D7A9FED657A37EE877AD7ED7D6AC6EE16
:1053B000877AC7ED7C7AD7F8FC3107EE903AB8EEE1
:1053C000E77A4B4BD3ED007A37EE677AD7ED7C7AEC
:1053D00027EE277A464BD3ED007A77EE277A444BB7
:1053E000C3ED007AD7F8F83107EE903AB8EEE77AD5
:1053F000404BD3ED007A37EE677AD7ED7C7A27EE13
:10540000277A3C4BD3ED007A77EE277A394BC3ED00
:10541000007A344AB7F836321380334AB7F8343258
:1054200013802F4AD7F80C321360314B93ED007A7A
:10543000304BD3ED007A77EE677AFDEEE77A17EE20
:10544000903AC7F8EC313D4B93ED007A3C4BD3EDED
:10545000007A77EE677A3B4BC3ED007AD7F8EC31F0
:10546000C7F8E831244B1A68D7F8E8311344224AC8
:10547000136049F64043C7F8E4311F4B1B68D7F867
:10548000E4219A4203DA1C4AD7F8E4311360D7F8D2
:10549000E4315A42184B1B689A4204DDD7F8E431D4
:1054A0005B42154A1360154B1B68D7F8E821D31AE5
:1054B000C7F8E031114AD7F8E8311360D7F8E8317E
:1054C00007EE903AB8EEE77AD7ED907A27EE277A92
:1054D000094B1B6807EE903AF8EEE76A34E000BF2C
:1054E0002C0D0020300D0020320D00209C0B0020E0
:1054F000340D0020380D0020240D0020280D002040
:105500003C0D0020400D0020440D0020480D0020DF
:105510004C0D0020480B00204C0B0020500B0020AD
:10552000540B0020F60700208A0B00208C0B002073
:10553000940B002000007A44CDCC4C3D1C0B002085
:10554000180B0020200B0020D7ED8F7A66EEA77A8B
:1055500037EE277AD7F8E03107EE903AF8EEE76AAF
:10556000D7ED8E7A66EEA77A77EE277AC7ED777A4F
:10557000D7ED777AFDEEE77A17EE903AC7F8C432A6
:10558000CE4B1B78DBB2022B0CBF0123002387F824
:10559000DB31CB4B1B78002B05D0CA4B1B78012B82
:1055A00001D1012300E0002387F8DA3197F8DA31DE
:1055B00003F0010387F8DA3197F8DA31002B06D0CF
:1055C000C14B1B6807EE903AF8EEE77A01E0DFED99
:1055D000BF7A07F53673A3F58273C3ED007A97F8A7
:1055E000DA3183F00103DBB2002B11D0B84B1B780A
:1055F000DBB2002B0CD1B74B1B686FF0004293421B
:1056000006D0B44B1B68B44A934201D0012200E09B
:10561000002207F53673A3F205131A701A7802F008
:1056200001021A7007F53673A3F582731B68C7F879
:10563000C03207F53673A3F5837300221A7007F59D
:105640003673A3F205131B78002B00F0BD8107F51C
:105650003673A3F58673A14A1A6007F53673A3F56E
:1056600088739F4A1A60D7F8D03207EE903AF8EE66
:10567000E77A07F53673A3F5867393ED007AB4EEF7
:10568000E77AF1EE10FA40F3448107F53673A3F59B
:10569000837301221A7007F53673A3F58A73D7F85E
:1056A000D02207EE902AF8EEE77AC3ED007A07F5EC
:1056B0003673A3F58A7207F53673A3F5887392EDF6
:1056C000007AD3ED007AB4EEE77AF1EE10FA6AD8F8
:1056D000844B1B68D7F82C22D31A952B1AD9824BEE
:1056E000D3ED007AB0EE087A77EE877A7E4BC3ED81
:1056F000007A7D4BD3ED007AB3EE087AF4EEC77AE8
:10570000F1EE10FA02DD784B784A1A60754AD7F844
:105710002C32136007F53673A3F58873D3ED007A46
:10572000F5EEC07AF1EE10FA0EDD07F53673A3F54B
:105730008A7207F53673A3F58873D2ED006A93ED8C
:10574000007AC6EE877A01E0DFED697AC7EDAE7ABE
:10575000D7EDAE7AF5EEC07AF1EE10FA03D54FF040
:105760000003C7F8B832D7EDAE7AB7EE007AF4EEA0
:10577000C77AF1EE10FA03DD4FF07E53C7F8B83266
:10578000594BD3ED007AB3EE0E7A37EE677AD7ED48
:10579000AE7A27EE277A544BD3ED007A77EE277A4C
:1057A000C7EDAF7A73E007F53673A3F58C7307F591
:1057B0003672A2F5867107F53672A2F5887291ED00
:1057C000007AD2ED007A77EE677AC3ED007A07F5BA
:1057D0003673A3F58C73D3ED007AF5EEC07AF1EE53
:1057E00010FA16DD07F53673A3F58A7207F53673DE
:1057F000A3F5887392ED007AD3ED007A77EE676AAD
:1058000007F53673A3F58C7393ED007AC6EE877AAD
:1058100001E0DFED377AC7EDAD7AD7EDAD7AF5EE81
:10582000C07AF1EE10FA03D54FF00003C7F8B43296
:10583000D7EDAD7AB7EE007AF4EEC77AF1EE10FA52
:1058400003DD4FF07E53C7F8B43207F53673A3F586
:105850008E73B7EE007AD7EDAD7A77EE677AC3ED47
:10586000007A07F53673A3F58E73F0EE000A93ED18
:10587000000A0DF097FBF0EE407A9FED1E7A67EE7E
:10588000877A9FED127A77EE677AC7EDAF7A07F5E0
:105890003673A3F58A7207F53673A3F5887392ED14
:1058A000007AD3ED007AB4EEE77AF1EE10FA23D85D
:1058B000D7F8BC32C7F8C0322BE000BFF607002093
:1058C000C00B0020580C0020500C00200000C842E3
:1058D0008A0B00200C0B002001000080D8FF004440
:1058E000EB48B8431C0D0020280000200000C041F8
:1058F0000000000000008C4297EDAF7AD7EDB07A3F
:10590000B4EEE77AF1EE10FA03D5D7F8BC32C7F857
:10591000C032D14B1A6807F53673A3F59073D7F8E8
:105920002C128A1A1A6007F53673A3F590731B6858
:1059300007EE903AB8EE677ADFEDC86AC7EE267ACE
:10594000C7EDAC7AD7EDAC7AF5EEC07AF1EE10FA8D
:1059500003D54FF00003C7F8B032D7EDAC7AB7EEFD
:10596000007AF4EEC77AF1EE10FA03DD4FF07E53C1
:10597000C7F8B032D7EDAC7A9FEDB97A67EE877A87
:1059800007F53673A3F5927397EDAC7A67EE277A35
:10599000C3ED007A07F53673A3F5927397EDB07AED
:1059A000D3ED007AB4EEE77AF1EE10FA04D5AD4A01
:1059B000D7F8C03213600EE0AA4A07F53673A3F594
:1059C00092731B68136006E0A64A07F53673A3F5C9
:1059D00082731B681360A34BD3ED007AF5EEC07A97
:1059E000F1EE10FA03D59F4B4FF000021A609D4B69
:1059F000D3ED007A9FED9A7AF4EEC77AF1EE10FAC1
:105A000002DD984B984A1A60964BD3ED007AB6EEB9
:105A1000007A77EE877A07F53673A3F59473FDEE77
:105A2000E77A17EE902A1A6097F8DB31002B01D045
:105A30008E4A00E08E4A07F53673A3F596731A6016
:105A400007F53673A3F598734FF07E521A6007F589
:105A50003673A3F59673D3ED007A9FED867A67EEE1
:105A6000877AB6EE007A77EE877AFDEEE77A07F569
:105A70003673A3F59A7417EE900AFCF751F920607B
:105A800007F53673A3F59873D3ED007A9FED797A15
:105A900067EE877AB6EE007A77EE877AFDEEE77AE0
:105AA00007F53673A3F59C7417EE900AFCF738F9E6
:105AB000206007F53673A3F59A731B68C3F5E053AE
:105AC0001F3307F53672A2F59472126802FB03F3D6
:105AD000694A82FB03125211DB179B1A03F5E0534C
