:020000040800F2
:10000000000002201D8E0008B1810008B98100089F
:10001000C1810008C9810008D181000800000000EA
:10002000000000000000000000000000A1FD00082A
:10003000D981000800000000F1FF0008E7810008F6
:100040006D8E00086D8E00086D8E00086D8E0008A4
:100050006D8E00086D8E00086D8E00086D8E000894
:100060006D8E00086D8E00086D8E00086D8E000884
:100070006D8E00086D8E00086D8E00086D8E000874
:100080006D8E00086D8E00086D8E00086D8E000864
:100090006D8E00086D8E00086D8E00086D8E000854
:1000A0006D8E00086D8E00086D8E00086D8E000844
:1000B0006D8E00086D8E00086D8E00086D8E000834
:1000C0006D8E00086D8E00086D8E00086D8E000824
:1000D0006D8E00086D8E00086D8E0008018200088C
:1000E0006D8E00086D8E00086D8E00086D8E000804
:1000F0006D8E00086D8E0008158200086D8E000858
:100100006D8E00086D8E00086D8E00086D8E0008E3
:100110006D8E00086D8E00086D8E00086D8E0008D3
:10012000298200086D8E00086D8E00086D8E000813
:100130006D8E00086D8E00086D8E00086D8E0008B3
:100140006D8E00086D8E00086D8E00086D8E0008A3
:100150006D8E00086D8E00086D8E00086D8E000893
:100160006D8E00086D8E00086D8E00086D8E000883
:100170006D8E00086D8E00086D8E00080000000076
:080180006D8E00086D8E000871
:1001900010B5054C237833B9044B13B10448AFF3C1
:1001A00000800123237010BD080200200000000021
:1001B0001C3D010808B5034B1BB103490348AFF3CD
:1001C000008008BD000000000C0200201C3D01085A
:1001D00010F8012B11F8013B012A28BF9A42F7D0F1
:1001E000D01A70470000000000000000000000006E
:1001F00001F0FF01102A2BDB10F0070F08D010F8D8
:10020000013B013A8B422DD010F0070F42B3F6D1DB
:10021000F0B441EA012141EA014122F007047FF0F4
:1002200000070023F0E80256083C85EA010586EA4B
:10023000010685FA47F5A3FA87F586FA47F6A5FA87
:1002400087F68EB9EED1F0BC01F0FF0102F0070293
:1002500032B110F8013B013A83EA010313B1F8D13E
:100260000020704701387047002D06BF354603381F
:10027000073815F0010F07D1013015F4807F02BF58
:10028000013015F4C03F0130F0BC0138704700BFA9
:10029000034613F8012B002AFBD1181A01387047C6
:1002A00081F0004102E000BF83F0004330B54FEA27
:1002B00041044FEA430594EA050F08BF90EA020F94
:1002C0001FBF54EA000C55EA020C7FEA645C7FEA27
:1002D000655C00F0E2804FEA5454D4EB5555B8BF4A
:1002E0006D420CDD2C4480EA020281EA030382EABB
:1002F000000083EA010180EA020281EA0303362D4D
:1003000088BF30BD11F0004F4FEA01314FF4801C1F
:100310004CEA113102D0404261EB410113F0004F31
:100320004FEA03334CEA133302D0524263EB4303E8
:1003300094EA050F00F0A780A4F10104D5F1200E86
:100340000DDB02FA0EFC22FA05F2801841F10001E1
:1003500003FA0EF2801843FA05F359410EE0A5F1B5
:1003600020050EF1200E012A03FA0EFC28BF4CF0E6
:10037000020C43FA05F3C01851EBE37101F000459C
:1003800007D54FF0000EDCF1000C7EEB00006EEBA9
:100390000101B1F5801F1BD3B1F5001F0CD3490833
:1003A0005FEA30004FEA3C0C04F101044FEA44528A
:1003B00012F5800F80F09A80BCF1004F08BF5FEA11
:1003C000500C50F1000041EB045141EA050130BDF1
:1003D0005FEA4C0C404141EB0101013C28BFB1F503
:1003E000801FE9D291F0000F04BF01460020B1FA4E
:1003F00081F308BF2033A3F10B03B3F120020CDA21
:100400000C3208DD02F1140CC2F10C0201FA0CF0FE
:1004100021FA02F10CE002F11402D8BFC2F1200C63
:1004200001FA02F120FA0CFCDCBF41EA0C01904019
:10043000E41AA2BF01EB0451294330BD6FEA040462
:100440001F3C1CDA0C340EDC04F11404C4F120024D
:1004500020FA04F001FA02F340EA030021FA04F35F
:1004600045EA030130BDC4F10C04C4F1200220FAB6
:1004700002F001FA04F340EA0300294630BD21FAF4
:1004800004F0294630BD94F0000F83F4801306BFBA
:1004900081F480110134013D4EE77FEA645C18BFAE
:1004A0007FEA655C29D094EA050F08BF90EA020F45
:1004B00005D054EA000C04BF1946104630BD91EA3D
:1004C000030F1EBF0021002030BD5FEA545C05D140
:1004D0004000494128BF41F0004130BD14F580047F
:1004E0003CBF01F5801130BD01F0004545F0FE41F3
:1004F00041F470014FF0000030BD7FEA645C1ABF28
:10050000194610467FEA655C1CBF0B46024650EA5E
:10051000013406BF52EA033591EA030F41F400218A
:1005200030BD00BF90F0000F04BF0021704730B510
:100530004FF4806404F132044FF000054FF00001E5
:1005400050E700BF90F0000F04BF0021704730B5A6
:100550004FF4806404F1320410F0004548BF40427B
:100560004FF000013EE700BF42004FEAE2014FEAD0
:1005700031014FEA02701FBF12F07F4393F07F4FAB
:1005800081F06051704732F07F4208BF704793F0AE
:100590007F4F04BF41F40021704730B54FF46074C1
:1005A00001F0004521F000411CE700BF50EA0102C4
:1005B00008BF704730B54FF000050AE050EA01026D
:1005C00008BF704730B511F0004502D5404261EBDD
:1005D00041014FF4806404F132045FEA915C3FF41E
:1005E000D8AE4FF003025FEADC0C18BF03325FEABB
:1005F000DC0C18BF033202EBDC02C2F1200300FA6C
:1006000003FC20FA02F001FA03FE40EA0E0021FA90
:1006100002F11444BDE600BF70B54FF0FF0C4CF47E
:10062000E06C1CEA11541DBF1CEA135594EA0C0F30
:1006300095EA0C0F00F0DEF82C4481EA030621EA6B
:100640004C5123EA4C5350EA013518BF52EA0335A6
:1006500041F4801143F4801338D0A0FB02CE4FF058
:100660000005E1FB02E506F00042E0FB03E54FF088
:100670000006E1FB03569CF0000F18BF4EF0010E80
:10068000A4F1FF04B6F5007F64F5407404D25FEA7C
:100690004E0E6D4146EB060642EAC62141EA55512F
:1006A0004FEAC52040EA5E504FEACE2EB4F1FD0C71
:1006B00088BFBCF5E06F1ED8BEF1004F08BF5FEAEF
:1006C000500E50F1000041EB045170BD06F00046A1
:1006D00046EA010140EA020081EA0301B4EB5C044E
:1006E000C2BFD4EB0C0541EA045170BD41F4801146
:1006F0004FF0000E013C00F3AB8014F1360FDEBF6B
:10070000002001F0004170BDC4F10004203C35DA46
:100710000C341BDC04F11404C4F1200500FA05F3C9
:1007200020FA04F001FA05F240EA020001F000426A
:1007300021F0004110EBD37021FA04F642EB0601E0
:100740005EEA430E08BF20EAD37070BDC4F10C040A
:10075000C4F1200500FA04F320FA05F001FA04F2CE
:1007600040EA020001F0004110EBD37041F10001BA
:100770005EEA430E08BF20EAD37070BDC4F12005C5
:1007800000FA05F24EEA020E20FA04F301FA05F22D
:1007900043EA020321FA04F001F0004121FA04F2D5
:1007A00020EA020000EBD3705EEA430E08BF20EAA5
:1007B000D37070BD94F0000F0FD101F000464000DF
:1007C00041EB010111F4801F08BF013CF7D041EA61
:1007D000060195F0000F18BF704703F00046520065
:1007E00043EB030313F4801F08BF013DF7D043EA36
:1007F0000603704794EA0C0F0CEA135518BF95EAEC
:100800000C0F0CD050EA410618BF52EA4306D1D172
:1008100081EA030101F000414FF0000070BD50EA91
:10082000410606BF1046194652EA430619D094EA1B
:100830000C0F02D150EA013613D195EA0C0F05D105
:1008400052EA03361CBF104619460AD181EA030159
:1008500001F0004141F0FE4141F470014FF0000011
:1008600070BD41F0FE4141F4780170BD70B54FF0AC
:10087000FF0C4CF4E06C1CEA11541DBF1CEA13552C
:1008800094EA0C0F95EA0C0F00F0A7F8A4EB05040E
:1008900081EA030E52EA03354FEA013100F0888005
:1008A0004FEA03334FF0805545EA131343EA1263CE
:1008B0004FEA022245EA111545EA10654FEA002683
:1008C0000EF000419D4208BF964244F1FD0404F53C
:1008D000407402D25B084FEA3202B61A65EB030598
:1008E0005B084FEA32024FF480104FF4002CB6EB55
:1008F000020E75EB030E22BFB61A754640EA0C00D5
:100900005B084FEA3202B6EB020E75EB030E22BF14
:10091000B61A754640EA5C005B084FEA3202B6EB55
:10092000020E75EB030E22BFB61A754640EA9C0014
:100930005B084FEA3202B6EB020E75EB030E22BFE4
:10094000B61A754640EADC0055EA060E18D04FEAA2
:10095000051545EA16754FEA06164FEAC30343EA42
:1009600052734FEAC2025FEA1C1CC0D111F4801F0F
:100970000BD141EA00014FF000004FF0004CB6E708
:1009800011F4801F04BF01430020B4F1FD0C88BFA7
:10099000BCF5E06F3FF6AFAEB5EB030C04BFB6EBB2
:1009A000020C5FEA500C50F1000041EB045170BDA5
:1009B0000EF0004E4EEA113114EB5C04C2BFD4EBD2
:1009C0000C0541EA045170BD41F480114FF0000E56
:1009D000013C90E645EA060E8DE60CEA135594EAD2
:1009E0000C0F08BF95EA0C0F3FF43BAF94EA0C0FD5
:1009F0000AD150EA01347FF434AF95EA0C0F7FF44A
:100A000025AF104619462CE795EA0C0F06D152EA9D
:100A100003353FF4FDAE1046194622E750EA410681
:100A200018BF52EA43067FF4C5AE50EA41047FF492
:100A30000DAF52EA43057FF4EBAE12E74FF0FF3CF7
:100A400006E000BF4FF0010C02E000BF4FF0010CC8
:100A50004DF804CD4FEA410C7FEA6C5C4FEA430C41
:100A600018BF7FEA6C5C1BD001B050EA410C0CBF90
:100A700052EA430C91EA030F02BF90EA020F0020F2
:100A8000704710F1000F91EA030F58BF994208BF59
:100A900090422CBFD8176FEAE37040F00100704716
:100AA0004FEA410C7FEA6C5C02D150EA013C07D16D
:100AB0004FEA430C7FEA6C5CD6D152EA033CD3D0B8
:100AC0005DF8040B704700BF8446104662468C46B2
:100AD0001946634600E000BF01B5FFF7B7FF0028E5
:100AE00048BF10F1000F01BD4DF808EDFFF7F4FF0E
:100AF0000CBF012000205DF808FB00BF4DF808ED99
:100B0000FFF7EAFF34BF012000205DF808FB00BFBB
:100B10004DF808EDFFF7E0FF94BF012000205DF8DD
:100B200008FB00BF4DF808EDFFF7CEFF94BF012092
:100B300000205DF808FB00BF4DF808EDFFF7C4FF8B
:100B400034BF012000205DF808FB00BF4FEA410CD4
:100B50007FEA6C5C02D150EA013C0AD14FEA430CB7
:100B60007FEA6C5C02D152EA033C02D14FF00000F4
:100B700070474FF0010070474FEA410212F5001232
:100B800015D211D56FF47873B3EB625212D94FEAD4
:100B9000C12343F0004343EA505311F0004F23FABE
:100BA00002F018BF404270474FF00000704750EA13
:100BB000013005D111F0004008BF6FF000407047D0
:100BC0004FF00000704700BF4FEA4102B2F1E0432E
:100BD00024BFB3F5001CDCF1FE5C0DD901F0004C24
:100BE0004FEAC0024CEA5070B2F1004F40EB830074
:100BF00008BF20F00100704711F0804F21D113F1A0
:100C00003872BCBF01F00040704741F480114FEAD8
:100C10005252C2F11802C2F1200C10FA0CF320FA61
:100C200002F018BF40F001004FEAC1234FEAD3237E
:100C300003FA0CFC40EA0C0023FA02F34FEA4303E8
:100C4000CCE77FEA625307D150EA01331EBF4FF071
:100C5000FE4040F44000704701F0004040F0FE408C
:100C600040F40000704700BF80F0004002E000BF89
:100C700081F0004142001FBF5FEA410392EA030F87
:100C80007FEA226C7FEA236C6AD04FEA1262D2EBD1
:100C90001363C1BFD218414048404140B8BF5B42D6
:100CA000192B88BF704710F0004F40F4000020F06F
:100CB0007F4018BF404211F0004F41F4000121F085
:100CC0007F4118BF494292EA030F3FD0A2F10102CF
:100CD00041FA03FC10EB0C00C3F1200301FA03F10D
:100CE00000F0004302D5494260EB4000B0F5000F30
:100CF00013D3B0F1807F06D340084FEA310102F1EF
:100D00000102FE2A51D2B1F1004F40EBC25008BFA0
:100D100020F0010040EA03007047490040EB00006A
:100D2000013A28BFB0F5000FEDD2B0FA80FCACF16B
:100D3000080CB2EB0C0200FA0CF0AABF00EBC25098
:100D400052421843BCBFD0401843704792F0000F86
:100D500081F4000106BF80F400000132013BB5E7D9
:100D60004FEA41037FEA226C18BF7FEA236C21D04F
:100D700092EA030F04D092F0000F08BF08467047B4
:100D800090EA010F1CBF0020704712F07F4F04D182
:100D9000400028BF40F00040704712F100723CBF95
:100DA00000F50000704700F0004343F0FE4040F4BF
:100DB000000070477FEA226216BF08467FEA23637D
:100DC0000146420206BF5FEA412390EA010F40F468
:100DD000800070474FF0000304E000BF10F00043B4
:100DE00048BF40425FEA000C08BF704743F096439B
:100DF00001464FF000001CE050EA010208BF7047B6
:100E00004FF000030AE000BF50EA010208BF70473C
:100E100011F0004302D5404261EB41015FEA010C51
:100E200002BF84460146002043F0B64308BFA3F149
:100E30008053A3F50003BCFA8CF2083AA3EBC2532B
:100E400010DB01FA02FC634400FA02FCC2F120024A
:100E5000BCF1004F20FA02F243EB020008BF20F081
:100E60000100704702F1200201FA02FCC2F12002E7
:100E700050EA4C0021FA02F243EB020008BF20EADC
:100E8000DC70704753B94AB9002908BF00281CBF5D
:100E90004FF0FF314FF0FF3000F088B9ADF1080C92
:100EA0006DE904CE00F006F8DDF804E0DDE9022388
:100EB00004B070472DE9F047089D0F4604468C4664
:100EC000002B48D18A42164661D9B2FA82F34BB15F
:100ED000C3F1200201FA03FC20FA02F29E4042EA2A
:100EE0000C0C9C404FEA164EB7B2BCFBFEF1220C34
:100EF0000EFB11CC42EA0C4201FB07F0904209D9EB
:100F0000B21801F1FF3C80F0EE80904240F2EB809D
:100F100002393244121AA4B2B2FBFEF00EFB1022C8
:100F200044EA024400FB07F7A74209D9341900F14B
:100F3000FF3280F0DA80A74240F2D7803444023892
:100F400040EA0140E41B00211DB1DC400023C5E95B
:100F50000043BDE8F0878B4206D90DB1C5E9000119
:100F600000210846BDE8F087B3FA83F1002948D193
:100F7000BB4202D3824200F20781841A67EB03026C
:100F800001209446002DE4D0C5E9004CE1E7002A99
:100F900000F09280B2FA82F3002B40F0A8808A1A07
:100FA0004FEA164E1FFA86FC0121200CB2FBFEF719
:100FB0000EFB172240EA02420CFB07F0904207D9D1
:100FC000B21807F1FF3802D2904200F2E2804746A1
:100FD000121AA4B2B2FBFEF00EFB102244EA024445
:100FE0000CFB00FCA44507D9341900F1FF3202D2F2
:100FF000A44500F2CB801046A4EB0C0440EA074065
:10100000A2E7C1F120068B4022FA06FC4CEA030C51
:1010100007FA01F420FA06F3F7404FEA1C4923438C
:1010200000FA01F81FFA8CFEB7FBF9F01C0C09FB63
:10103000107744EA074400FB0EF7A74202FA01F2D8
:101040000AD91CEB040400F1FF3A80F09B80A74210
:1010500040F2988002386444E41B9FB2B4FBF9F379
:1010600009FB134447EA044403FB0EFEA64509D9D5
:101070001CEB040403F1FF3780F08280A6457FD982
:10108000023B644443EA0040A4EB0E04A0FB02E7E9
:10109000BC427346B94663D360D05DB1B8EB03027E
:1010A00064EB090404FA06F622FA01F31E43CC406D
:1010B000C5E9006400214CE76208480842EAC171B2
:1010C0000B0C43EA00438AB242EA0342B3FBF6F157
:1010D000E407B4463746B6461F23B0FBF6F0D21BF2
:1010E00041EA004161E7614614E7104628E7C3F191
:1010F000200120FA01F29E4027FA01F19F403A4375
:101100004FEA164E1FFA86FCB1FBFEF70EFB1710D6
:10111000110C41EA004107FB0CF8884504FA03F47E
:101120003AD9711807F1FF3001D288451FD8A1EBD9
:101130000801B1FBFEF808FB0CF70EFB181192B288
:1011400042EA0142BA422FD2B21808F1FF31C6D2A8
:10115000BA42C4D2A8F102013244C0E7F0459CD2A1
:10116000BEEB020367EB0C070138B94695E7A6EB27
:1011700008084144B81EB1FBFEF808FB0CF7DCE799
:101180003B467FE7504667E70846FBE634440238B3
:1011900032E7023F32441BE7A1EB08013846B1FBBE
:1011A000FEF808FB0CF7C8E7414698E7704700BF18
:1011B00080B485B000AFF860B9607A60FB68074A18
:1011C0001A60BB68064A1A607B6880221A6000BFFA
:1011D0001437BD465DF8047B704700BF2402002031
:1011E0007802002080B485B000AF4FF47003FB603C
:1011F0004FF42003BB604FF47F437B604FF4884380
:101200003B60134B1B6B03F00203002B16D0114BFA
:101210001A68FB681340BA689A420FD10D4B5B689D
:1012200003F44063B3F5406F08D10A4B5A6A7B68F8
:1012300013403A689A4201D1012300E0002303F0F1
:101240000103DBB218461437BD465DF8047B7047D6
:10125000003802400004024080B584B000AF03466D
:10126000FB8008F0A3F8F8600BE008F09FF8024656
:10127000FB68D31A042B01D900230BE001200DF0E9
:1012800016FFFB881946054809F078FC0346012B38
:10129000EBD1012318461037BD4680BD0004024043
:1012A00080B588B000AF3B1D00221A605A609A607A
:1012B000DA601A610023FB7700233B605D4B1B6BF8
:1012C0005C4A43F0020313635A4B1B6B03F00203A7
:1012D0003B603B6801224FF44061574809F066FCCF
:1012E0004FF440637B601123BB600023FB6000234D
:1012F0003B613B1D1946504809F0A8F902200DF04A
:10130000D6FE4FF48060FFF7A7FF034683F001038A
:10131000DBB2002B7CD10023BB611EE000224FF426
:101320008061454809F042FC02200DF0C0FE012218
:101330004FF48061404809F039FC4FF48060FFF7BA
:101340008BFF034683F00103DBB2002B62D1022046
:101350000DF0ADFEBB690133BB61BB69082B07D83B
:101360004FF40061344809F009FC0346002BD5D046
:101370004FF40060FFF770FF034683F00103DBB218
:10138000002B49D100224FF480612B4809F00EFC5C
:1013900002200DF08CFE00224FF40061264809F077
:1013A00005FC02200DF083FE01224FF480612248EB
:1013B00009F0FCFB4FF48060FFF74EFF034683F01B
:1013C0000103DBB2002B29D102200DF070FE0122B7
:1013D0004FF40061184809F0E9FB02200DF067FEA8
:1013E0004FF40060FFF738FF0346002B09D04FF49D
:1013F0008061114809F0C2FB0346012B01D1012392
:1014000000E00023FB77FB7F03F00103FB7706E09E
:1014100000BF04E000BF02E000BF00E000BF012207
:101420004FF44061044809F0C1FBFB7F18462037A8
:10143000BD4680BD003802400004024080B586B041
:1014400004AF78600B46FB701346BB707B68002BC3
:1014500003D07B681B68002B01D1002313E07B685D
:101460001868FB789AB20323029301230193BB1CF3
:1014700000930123D02109F041FD0346002B0CBF4E
:1014800001230023DBB218460837BD4680BD80B576
:1014900088B004AFF8607A601A460B46FB721346B8
:1014A0003B81FB68002B09D0FB681B68002B05D033
:1014B0007B68002B02D03B89002B01D1002313E075
:1014C000FB681868FB7A9AB2032302933B89019365
:1014D0007B6800930123D02109F00AFE0346002B0C
:1014E0000CBF01230023DBB218461037BD4680BD78
:1014F00080B582B000AF78600B46FB70FB781B01B3
:10150000DBB21A467F217868FFF798FF034618463A
:101510000837BD4680BD80B584B000AF78603960C3
:101520003B68002B0CD007F10C02022337217868AE
:10153000FFF7ADFF034683F00103DBB2002B01D0C0
:1015400000230AE03B7B1BB21B021AB27B7B1BB25F
:1015500013431AB23B681A80012318461037BD4660
:1015600080BD80B584B000AF786039600023FB7324
:101570007B68002B02D03B68002B01D100238FE059
:101580007B683A681A607B684FF000025A6000215D
:101590007868FFF7ADFF034683F00103DBB2002B51
:1015A0000AD1802206217868FFF748FF034683F0BE
:1015B0000103DBB2002B01D0002371E064200DF0A9
:1015C00076FD00217868FFF793FF034683F001035F
:1015D000DBB2002B0FD107F10F0201230021786845
:1015E000FFF755FF034683F00103DBB2002B02D166
:1015F000FB7BEA2B01D0002352E001220621786810
:10160000FFF71CFF034683F00103DBB2002B15D16B
:10161000002207217868FFF711FF034683F00103DA
:10162000DBB2002B0AD1002205217868FFF706FF04
:10163000034683F00103DBB2002B01D000232FE02F
:1016400002217868FFF754FF034683F00103DBB201
:10165000002B1FD1112200217868FFF7EFFE03460F
:1016600083F00103DBB2002B14D12F220121786813
:10167000FFF7E4FE034683F00103DBB2002B09D140
:1016800000217868FFF734FF034683F00103DBB2E3
:10169000002B01D0002303E014200DF008FD0123EE
:1016A00018461037BD4680BD80B584B000AF786065
:1016B00039607B68002B07D03B68002B04D03B6867
:1016C0001B682A4A934201D000234AE0FFF78AFDB3
:1016D000034683F00103DBB2002B01D0002340E07E
:1016E000386809F0DBFB0346002B01D0002338E00B
:1016F000FFF7D6FD0346FB730023BB601C4B1B6C3E
:101700001B4A43F480031364194B1B6C03F48003DE
:10171000BB60BB68164B1B6A154A43F48003136217
:1017200001200DF0C4FC124B1B6A114A23F4800304
:10173000136201200DF0BBFC386809F06BFA034618
:10174000002B01D000230CE0FB7B83F00103DBB214
:10175000002B01D0002304E039687868FFF701FF0F
:10176000034618461037BD4680BD00BF00580040F4
:10177000003802402DE9B04388B000AFF8600B4656
:101780007A607B814FF000024FF00003C7E9062327
:10179000FB68002B02D07B89002B01D1002339E0AC
:1017A0000023FB8221E078680DF081FC07F114032F
:1017B0001946F868FFF7AFFE034683F00103DBB27A
:1017C000002B01D0002325E0B7F914301BB2DA1743
:1017D0001C461546D7E9062312EB040843EB05091E
:1017E000C7E90689FB8A0133FB82FA8A7B899A4220
:1017F000D9D3D7E90601FFF707FB06EE900A7B89EC
:1018000007EE903AB8EE677AC6EE877AFB68C3EDCA
:10181000017A012318462037BD46BDE8B083000099
:1018200080B586B000AFF86087ED020A79607B680A
:10183000002B0BD007F116031946F868FFF76BFE73
:10184000034683F00103DBB2002B01D0002316E036
:10185000B7F9163007EE903AB8EEE77AFB68D3EDA9
:10186000017A77EE677ADFED086A87EEA67AD7ED20
:10187000027A67EE277A7B68C3ED007A0123184667
:101880001837BD4680BD00BF3333834180B400AFFD
:10189000074B1B78DAB2074B1B78DBB29A420CBFBE
:1018A00001230023DBB21846BD465DF8047B704778
:1018B000040B0020050B002080B485B000AF3B4630
:1018C00083E80300124B1B78DBB20133DBB203F079
:1018D0001F03FB730F4B1B78DBB2FA7B9A4201D1DB
:1018E00000230EE00A4B1B78DBB20B4ADB001344EB
:1018F0003A4692E8030083E80300054AFB7B137035
:10190000012318461437BD465DF8047B704700BFBD
:10191000050B0020040B0020040A002090B583B0C2
:1019200000AF7860FFF7B2FF0346002B01D0002321
:1019300016E00D4B1B78DBB279680C4A0C46DB00D5
:10194000134493E8030084E80300074B1B78DBB2E1
:101950000133DBB203F01F03DAB2034B1A70012329
:1019600018460C37BD4690BD040B0020040A002029
:1019700080B400AF72B600BF0021064B0A461A7051
:10198000054B0A461A7062B600BF00BFBD465DF83F
:10199000047B7047050B0020040B002080B483B04B
:1019A00000AF78607B681B68054A934202D1054B03
:1019B00000221A7000BF0C37BD465DF8047B7047EB
:1019C00000480040060B002080B500AF084B1B7894
:1019D000DBB2002B0AD1064B01221A700322054903
:1019E00005480CF03CFBFFF7C3FF00E000BF80BDE3
:1019F000060B0020544201086C07002080B485B01B
:101A000000AF78600E4B5B68FB600E4B1B680E4AA4
:101A1000A2FB03239A0C7B6802FB03F3BB6000E08C
:101A200000BF074B5A68FB68D31ABA689A42F7D8C6
:101A300000BF00BF1437BD465DF8047B704700BF90
:101A4000001000E02C00002083DE1B4380B400AFB8
:101A5000084BDB68074A43F08073D360064B1B6872
:101A6000054A43F00103136000BFBD465DF8047BE7
:101A7000704700BFF0ED00E0001000E080B500AF5F
:101A800006F002FE0A4B1B6841F61F42DA63084B60
:101A90001B6841F61F421A64064B1B6841F61F4241
:101AA0005A63044B1B6841F61F429A6300BF80BD16
:101AB000040600209406002080B483B000AF786054
:101AC000074B1B687A68DA63054B1B6841F61F42B7
:101AD0001A6400BF0C37BD465DF8047B704700BF39
:101AE0000406002080B483B000AF7860074B1B6809
:101AF0007A685A63054B1B6841F61F429A6300BF20
:101B00000C37BD465DF8047B704700BF940600208B
:101B100080B400AF064B1B680022DA63044B1B68DD
:101B200000221A6400BFBD465DF8047B704700BF09
:101B30000406002080B400AF064B1B6800225A63E5
:101B4000044B1B6800229A6300BFBD465DF8047B0E
:101B5000704700BF9406002080B483B000AF786067
:101B6000074B1B6841F61F42DA63054B1B687A6816
:101B70001A6400BF0C37BD465DF8047B704700BF98
:101B80000406002080B483B000AF7860074B1B6868
:101B900041F61F425A63054B1B687A689A6300BF7F
:101BA0000C37BD465DF8047B704700BF94060020EB
:101BB00080B400AF044B1A88044B1B689A6300BFC3
:101BC000BD465DF8047B704724000020DC06002041
:101BD00080B400AF044B1B68F0229A6300BFBD467F
:101BE0005DF8047B704700BFDC06002080B400AFC6
:101BF000044B1B68F0229A6300BFBD465DF8047B6E
:101C0000704700BFDC06002080B400AF044B1B68A7
:101C10006E229A6300BFBD465DF8047B704700BF2B
:101C2000DC06002080B400AF044B1B686E229A6370
:101C300000BFBD465DF8047B704700BFDC06002096
:101C400080B400AF074B01221A70074BA2221A8002
:101C5000054B1A88054B1B689A6300BFBD465DF8AB
:101C6000047B7047BC0B002024000020DC06002011
:101C700080B400AF074B00221A70074B96221A80DF
:101C8000054B1A88054B1B689A6300BFBD465DF87B
:101C9000047B7047BC0B002024000020DC060020E1
:101CA00080B400AF064B1B78DBB2002B01D0A2231F
:101CB00000E097231846BD465DF8047B704700BFDF
:101CC000BC0B002080B500AF104B00221A70FFF74C
:101CD0007FFF4FF416700DF0EAF9FFF7C9FF4FF4DC
:101CE000FA700DF0E4F90A4B1B881A46094B1A608A
:101CF000074B1B881A46084B1A60084B4FF000022E
:101D00001A60024B01221A7000BF80BD400B0020F8
:101D1000240000201800002014000020440B0020A4
:101D200080B582B000AF154B1B687B60144B1B68FD
:101D30003B603B68013B7A689A4202DAFFF780FF1A
:101D400009E03B6801337A689A4202DDFFF790FFB1
:101D500001E0FFF72DFF0B4B1B881A46084B1A605A
:101D6000084B1B881A46054B1A60074B4FF00002C0
:101D70001A6000BF0837BD4680BD00BF14000020B8
:101D80001800002024000020440B002080B483B001
:101D900000AF78607B68002B01DA002307E07B68E6
:101DA000B3F5E15F02DB41F61F4300E07B681846B4
:101DB0000C37BD465DF8047B704780B483B000AF3C
:101DC00078607B68042B08D07B68052B05D07B6886
:101DD000062B02D07B68072B01D1012300E00023F2
:101DE00003F00103DBB218460C37BD465DF8047BF7
:101DF000704780B483B000AF78607B68062B02D058
:101E00007B68072B01D1012300E0002303F00103CD
:101E1000DBB218460C37BD465DF8047B704780B4D2
:101E200083B000AF78607B68042B02D07B68062B00
:101E300001D1012300E0002303F00103DBB21846C7
:101E40000C37BD465DF8047B7047000080B483B05A
:101E500000AF78607B68052B02D07B68062B02D12F
:101E60004FF07E5300E0054B07EE903AB0EE670A64
:101E70000C37BD465DF8047B704700BF000080BF93
:101E800080B582B000AF78607B68042B02D1FFF789
:101E90009FFE10E07B68052B02D1FFF7B5FE0AE03C
:101EA0007B68062B02D1FFF7A1FE04E07B68072BBD
:101EB00001D1FFF7B7FE00BF0837BD4680BD80B532
:101EC00082B000AF78607868FFF7A9FF0346002B67
:101ED00002D0FFF7CDFE01E0FFF7B2FE00BF0837EA
:101EE000BD4680BD80B500AF1E4B4FF000021A60AA
:101EF00007F05CFA03461C4A13601C4B00221A6070
:101F00001B4BD3ED007A9FED1B7A67EE877AFCEED0
:101F1000E77A17EE902A144B1B68134403F2DC5344
:101F2000154A1360154B01221A70154B93ED007A78
:101F3000144BD3ED007A77EE677A134BC3ED007A3A
:101F4000124B4FF000021A60114B41F61F421A600B
:101F5000104B41F61F421A600F4B01221A7000BF4E
:101F600080BD00BF580B00205C0B0020600B0020E0
:101F7000000000200000A042640B0020680B00203D
:101F8000100B0020180B0020380B00203C0B002009
:101F90000400002008000020340B002080B400AFB3
:101FA000114B4FF000021A60104B00221A60104BC8
:101FB00000221A600F4B00221A600F4B00221A7089
:101FC0000E4B4FF000021A600D4B41F61F421A6093
:101FD0000C4B41F61F421A600B4B00221A7000BFD7
:101FE000BD465DF8047B7047580B00205C0B002059
:101FF000600B0020640B0020680B00203C0B0020CD
:102000000400002008000020340B002080B584B0BC
:1020100000AF87ED010AD7ED017AB6EE007A77EED0
:10202000877AFDEEE77A17EE903AC3F5E0531F3357
:10203000FB60F868FFF7AAFE034618461037BD4656
:1020400080BD000080B586B000AFF860B9607A60EE
:10205000F868FFF7E4FE0346002B04D0BB687B6101
:102060007B683B6103E07B687B61BB683B617869AF
:10207000FFF78CFE78613869FFF788FE38610E4AF9
:102080007B6913600D4A3B691360F868FFF7B1FE86
:102090000346002B06D07869FFF75EFD3869FFF72D
:1020A00071FD05E07869FFF707FD3869FFF71AFD54
:1020B00000BF1837BD4680BD040000200800002086
:1020C00080B584B000AF7860FFF7D8FC7868FFF780
:1020D000F6FEFFF763FF2A4B1B682A4A13602A4B60
:1020E0001B78DBB2002B3DD0284B1B685B6A9AB291
:1020F000274B1A80274B1B685B6A9AB2264B1A80C3
:10210000214B1B78DBB207EE903AF8EEE77A9FEDB1
:10211000237A67EE877AB6EE007A77EE877AFDEE5D
:10212000E77A17EE903AFB601D4B00221A701D4BA8
:1021300001221A707868FFF75CFE0346002B07D077
:10214000FB685B42184A1360184B02221A7005E0C4
:10215000154AFB681360154B01221A700A4B0022C6
:102160001A7009E0114B00221A7007F01FF903469C
:1021700003F596730E4A136000BF1037BD4680BD4D
:10218000180B00201C0B0020700B00207405002091
:10219000080B0020BC0500200A0B0020896D93422B
:1021A0008A0B00209C0B00200C0B0020F60700205F
:1021B000000A002080B584B000AF78607868FEF730
:1021C00067F8B860BB685F2B21D80023FB600BE089
:1021D0007A68FB68134419780F4AFB6813440A466F
:1021E0001A70FB680133FB60FA68BB689A42EFD94A
:1021F00007220A4978680EF097FF0346002B02D1A8
:10220000074B01221A70074B01221A7000E000BF31
:102210001037BD4680BD00BFE40B0020383D0108EB
:10222000E00B0020E10B002080B582B000AF7860A9
:102230007B68044A502104480EF0F4FE00BF0837C2
:10224000BD4680BD403D01085C0C002080B500AF5C
:10225000154B1B78002B24D0144B1B78DBB2002BC2
:102260001FD1134A104B1046194650231A460FF03F
:102270005EF80E4B01221A700D48FEF709F803466E
:102280009BB21A460A490B480BF0E9FE0346002BA5
:1022900003D1054B00221A7004E0044B00221A708F
:1022A00000E000BF80BD00BF5C0C0020060B0020DA
:1022B000AC0C00206C07002080B500AF0A4B1B68F7
:1022C000002B02DDFFF7D4FC08E0074B1B68002B56
:1022D00002DAFFF7B5FC01E0FFF76AFC024B0022CF
:1022E0001A6000BF80BD00BF480C002080B582B0DE
:1022F00000AFEFF310833B603B687B6072B600BFBA
:10230000164B00221A70164B00221A707B68002BA5
:1023100001D162B600BF134B1B78002B01D0FFF731
:10232000CBFF104805F0DCFA0F4B00221A700F4B60
:1023300000221A600E4B00221A600E4B00221A6017
:102340000D4B00221A700D4B00221A700C4B01220B
:102350001A7000BF0837BD4680BD00BFE10B0020EA
:10236000E00B0020C00B0020440C00204C0C00208F
:10237000500C0020540C0020580C00205C0C002055
:102380009C0B002080B584B000AF786039602F4B83
:102390001B78DBB2FB60FFF771FBF868FFF70DFD00
:1023A0000346002B03D0F868FFF789FD01E0FFF733
:1023B00083FFFFF7DDFAFFF7F1FD254B00221A70CE
:1023C000244B00221A70244B00221A70234B002247
:1023D0001A60234B1B68234A1360234B00221A7098
:1023E000224B00221A60224B00221A60214B00224D
:1023F0001A60214B4FF000021A60204B00221A6035
:102400001F4B4FF000021A601E4B01221A703A68EF
:1024100079681D4805F071FA1C4B01221A701C4B9B
:1024200000221A701B4B00221A601B4B00221A60FC
:102430001A4B00221A601A4B00221A70034B082212
:102440001A7000BF1037BD4680BD00BFF6070020E0
:102450008A0B00209D0B00209E0B00200C0B0020FF
:10246000180B00201C0B0020700B00206C0B0020B0
:10247000000A00208C0B0020900B0020940B002001
:10248000980B00209C0B0020C00B0020E00B0020CC
:10249000440C00204C0C0020500C0020540C002058
:1024A000580C002080B590B000AF3B1D83E80700BA
:1024B0007B68002B04D0FB68002B01DD012200E0CB
:1024C0000022934B1A70924B1B78DBB2002B25D164
:1024D000904B1B78002B06D0FFF7D0FAFFF7ECFEED
:1024E0008D4B01221A708B4B00221A708B4B0022ED
:1024F0001A608B4B00221A608A4B41F61F421A6009
:10250000894B41F61F421A60884B1B881A46884B3C
:102510001A60884B08221A700123F5E0FB68804A94
:102520001360BB68002B2FD17A4B1B78012B04D191
:102530007A687A4B1B689A4216D0FFF79FFAFFF72A
:10254000BBFE7D4B1B687D4A13607D4B00221A70D9
:102550007B68002B02DD6FF0004300E0794B7A4A84
:1025600013606D4B01221A706A4B01221A707B684E
:102570006A4A13607B68002B01DD012200E0022221
:102580006C4B1A700023BFE07B68DB0FDBB2BB63D0
:10259000BB68002BCCBF01230023DBB27B63BB688D
:1025A000002BB8BF5B423B63BB6B002B06D17B6B40
:1025B000002B01D0042307E0052305E07B6B002BF3
:1025C00001D0062300E00723FB62524B1B78022B4D
:1025D0000FD17A68514B1B689A420AD15B4B1B683A
:1025E000002BCCBF01230023DBB21A467B6B934246
:1025F00004D0FFF743FA484B01221A707B6B002B83
:1026000001D0F02300E06E23BB62484B1B881946C3
:10261000464B1B881A46BB6A9B1A3A6B02FB03F3B4
:102620004B4A82FB03025211DB17D31A0B447B6225
:10263000484B1B687A6A9A63BB68444A1360FB681C
:1026400007EE903AB8EEE77ADFED436AC7EE267AF6
:102650009FED427A67EE877AC7ED0F7AD7ED0F7A52
:102660009FED3F7AF4EEC77AF1EE10FA01D53D4BBB
:10267000FB63D7ED0F7A9FED397AF4EEC77AF1EE6E
:1026800010FA01DD384BFB637B6B002B01D0374B1D
:1026900000E0374B3B62B7EE007AD7ED087A37EEB1
:1026A000677A3B6B07EE903AF8EEE76A9FED2A6A8D
:1026B000C6EE867A67EE277AB7EE007A77EE677A0B
:1026C000C7ED077A97ED0F0AFFF7A0FCB86197ED09
:1026D0000F7AD7ED077A67EE277AB0EE670AFFF731
:1026E00095FC7861234AFB6B13607A69B969F86AD3
:1026F000FFF7A8FC074B02221A707B68074A136099
:102700000C4B08221A70012318464037BD4680BD85
:10271000440C0020580C00209C0B0020540C00207E
:10272000500C00200C00002010000020240000208D
:1027300014000020F6070020180B00201C0B0020BE
:102740008A0B0020010000800C0B0020480C0020A8
:102750001F85EB51DC0600200000C84200409C456C
:1027600000007A4400007A4400409C45CDCC4C3EA9
:102770003D0AD73E3C0B002080B5C2B002AF00231B
:1027800087F8FF3006F012FEC7F8F400EFF310836D
:10279000C7F8D830D7F8D830C7F8F03072B600BFD5
:1027A0008F4B1B78DBB2002B1FD00023C7F8F8300B
:1027B00011E08C4AD7F8F83013441B78D9B207F1EE
:1027C0007402D7F8F83013440A461A70D7F8F83074
:1027D0000133C7F8F830D7F8F8305F2BE9D9804BD0
:1027E00000221A70012387F8FF30D7F8F030002B51
:1027F00001D162B600BFD7F8F4107B4805F096F817
:102800000346002B0CD0784B5B6807F12400774A15
:1028100050210EF007FC07F124031846FFF704FDD2
:1028200097F8FF30002B4CD03A4607F1740311465D
:10283000184604F089FF0346002B42D007F5807349
:10284000A3F580731B78002B1AD107F58073A3F5CD
:1028500080735B68D7F8F4101846FFF793FD07F50F
:102860008073A3F580735B6807F12400604A5021F0
:102870000EF0D8FB07F124031846FFF7D5FC20E043
:102880003B46D7F8F4201946574805F07BF8034635
:10289000002B16D007F58073A3F580735A6807F5EF
:1028A0008073A3F580739B6807F12400009313469F
:1028B000504A50210EF0B6FB07F124031846FFF7EB
:1028C000B3FC494B1B7883F00103DBB2002B1BD018
:1028D000EFF31083C7F8D430D7F8D430C7F8DC3022
:1028E00072B600BF3E4B1B78DBB2002B02D1424BCD
:1028F00000221A70D7F8DC30002B01D162B600BF7D
:10290000FFF7A4FC002365E007F11803D7F8F420D3
:102910003549184605F0BCF8FB69002BCCBF0123F4
:102920000023DBB21A46FB69DB0FDBB2D31AC7F810
:10293000EC30BB69002B0AD0BB69002B01DD012202
:1029400000E00422D7F8EC300133134400E0002308
:10295000C7F8E830D7F8E830002B2BD0274B1B689E
:10296000D7F8E8209A4225D0BB69002B0DDDD7F8B7
:10297000EC30002B07DBD7F8EC30002B01DD204BCF
:1029800010E0204B0EE0204B0CE0D7F8EC30002B91
:1029900007DBD7F8EC30002B01DD1C4B02E01C4BB1
:1029A00000E01C4BC7F8E4303B6A1946D7F8E40056
:1029B00005F0E8FD114AD7F8E830136007F1180375
:1029C00093E80700FFF76EFDC7F8E000FFF73EFC55
:1029D000D7F8E030184607F58077BD4680BD00BFC8
:1029E000E10B0020E40B0020C00B0020443D010857
:1029F0005C3D01086C3D0108E00B00204C0C002000
:102A00007C3D0108843D01088C3D0108943D01088E
:102A10009C3D0108A43D010880B400AF184B1B7811
:102A2000DBB2082B26D801A252F823F0512A000865
:102A3000552A0008592A00085D2A0008612A000862
:102A4000652A0008692A00086D2A0008712A000812
:102A50000C4B10E00C4B0EE00C4B0CE00C4B0AE066
:102A60000C4B08E00C4B06E00C4B04E00C4B02E076
:102A70000C4B00E00C4B1846BD465DF8047B7047DC
:102A8000F6070020AC3D0108B43D0108BC3D01083B
:102A9000C43D0108CC3D0108D83D0108E43D0108D2
:102AA000EC3D0108F43D0108FC3D010880B58CB007
:102AB00000AF78607B68FB6209E0FB6A1B782C2B17
:102AC00002D1FB6A20221A70FB6A0133FB62FB6AA7
:102AD0001B78002BF1D18F4978680EF04BFBB86260
:102AE00005E18D49B86AFDF773FB0346002B03D15E
:102AF0008A4B01221A70FEE000233B750023BB6164
:102B00008749B86AFDF764FB0346002B04D10B2309
:102B10003B750023BB61D1E08249B86AFDF758FBE1
:102B20000346002B04D10C233B750023BB61C5E099
:102B30007D49B86AFDF74CFB0346002B04D10D23F9
:102B40003B750023BB61B9E07849B86AFDF740FBEB
:102B50000346002B04D10E233B750023BB61ADE07F
:102B60007349B86AFDF734FB0346002B04D10723F1
:102B70003B750023BB61A1E06E49B86AFDF728FBF5
:102B80000346002B04D108233B750023BB6195E06D
:102B9000BB6A1B78662B0ED1BB6A01331B78782B7E
:102BA00009D110233B75BB6A023318460DF092FC25
:102BB0000346BB6182E0BB6A1B78662B0ED1BB6A01
:102BC00001331B78752B09D10F233B75BB6A023388
:102BD00018460DF07FFC0346BB616FE0BB6A1B78B3
:102BE000662B0ED1BB6A01331B78722B09D10323EC
:102BF0003B75BB6A023318460DF06CFC0346BB61A3
:102C00005CE0BB6A1B78662B0ED1BB6A01331B7874
:102C10006C2B09D104233B75BB6A023318460DF0B7
:102C200059FC0346BB6149E0BB6A1B78722B0ED18D
:102C3000BB6A01331B78722B09D105233B75BB6A34
:102C4000023318460DF046FC0346BB6136E0BB6A12
:102C50001B78722B0ED1BB6A01331B786C2B09D108
:102C600006233B75BB6A023318460DF033FC03465E
:102C7000BB6123E0BB6A1B78662B09D101233B753E
:102C8000BB6A013318460DF025FC0346BB6115E015
:102C9000BB6A1B78722B09D102233B75BB6A0133D7
:102CA00018460DF017FC0346BB6107E0BB6A1B78B2
:102CB000732B03D109233B750023BB613B7D002BA4
:102CC00010D007F1140393E80300FEF7F5FD7862D6
:102CD0007B6A002B06D1184A07F1080307CA83E86C
:102CE000070008E00B4900200EF044FAB862BB6A06
:102CF000002B7FF4F6AE0A233B7700233B6207F1FB
:102D00001C0393E80300FEF7D7FD00BF3037BD4634
:102D100080BD00BF003E0108043E0108F40700200A
:102D2000083E01080C3E0108103E0108183E01084B
:102D3000203E0108243E0108283E010880B483B0EB
:102D400000AF0346FB71FB79013B0F2B40D801A27A
:102D500052F823F0952D0008992D00089D2D0008AC
:102D6000A12D0008A52D0008A92D0008AD2D0008F3
:102D7000B12D0008B52D0008D12D0008B92D00088F
:102D8000BD2D0008C12D0008C52D0008C92D000863
:102D9000CD2D0008124B1CE0124B1AE0124B18E02C
:102DA000124B16E0124B14E0124B12E0124B10E0E3
:102DB000124B0EE0124B0CE0124B0AE0124B08E0F3
:102DC000124B06E0124B04E0124B02E0124B00E003
:102DD000002318460C37BD465DF8047B704700BFE2
:102DE000343E01083C3E0108443E01084C3E0108C7
:102DF000E43D0108EC3D0108543E01085C3E010839
:102E0000C43D0108643E0108683E01086C3E0108AB
:102E1000743E01087C3E0108803E010880B588B000
:102E200000AF9C4B1B78DBB2002B04D09A4B1B7875
:102E3000DBB2002B01D1002366E33B1D1846FEF7F1
:102E40006DFD0346002B01D100235DE33B7918465D
:102E5000FFF774FFF861FB69002B18D03B79022B58
:102E600008D1B7EE001AF7EE080AB1EE0C0A05F029
:102E700059FB07E0B7EE001AF7EE080AB2EE000AB7
:102E800005F050FBBB681946F86905F07BFB3B7900
:102E9000013B0F2B00F2368301A252F823F000BF52
:102EA000DD3000086F310008DD3100083D320008D8
:102EB0009D320008FD320008C13300086334000869
:102EC0005D33000873330008F52F00084530000813
:102ED000552F0008A52F0008E12E0008E12E00085C
:102EE0006E4B1B685B6A9AB26D4B1A806D4B1B6808
:102EF0005B6A9AB26C4B1A806C4B1B686C4A13600D
:102F0000FEF756FE6B4B00221A606B4B4FF000022F
:102F10001A606A4B6FF000421A60BB68002B02DD3A
:102F2000BB689BB200E01A23654A13803B790F2BE4
:102F30000CBF01230023DBB21A46624B1A70624BAE
:102F400007221A70614B01221A70614B01221A701C
:102F50000123D9E2514B1B685B6A9AB2504B1A802D
:102F6000504B1B685B6A9AB24F4B1A804F4B1B68E1
:102F70004F4A1360FEF71CFE4E4B00221A604E4B68
:102F80004FF000021A604D4B6FF000421A604E4B3A
:102F900005221A704D4B01221A704D4B01221A70F6
:102FA0000123B1E23D4B1B685B6A9AB23C4B1A802D
:102FB0003C4B1B685B6A9AB23B4B1A803B4B1B68CD
:102FC0003B4A1360FEF7F4FD3A4B00221A603A4B7D
:102FD0004FF000021A60394B6FF000421A603A4B12
:102FE00006221A70394B01221A70394B01221A70CD
:102FF000012389E2294B1B685B6A9AB2284B1A802D
:10300000284B1B685B6A9AB2274B1A80274B1B68B8
:10301000274A1360FEF7CCFD2E4B00221A602E4B80
:103020004FF000021A60254B6FF000421A60264BE9
:1030300002221A70254B01221A70254B01221A70A8
:10304000012361E2154B1B685B6A9AB2144B1A802C
:10305000144B1B685B6A9AB2134B1A80134B1B68A4
:10306000134A1360FEF7A4FD1A4B00221A601A4B94
:103070004FF000021A60114B6FF000421A60124BC1
:1030800003221A70114B01221A70114B01221A707F
:10309000012339E2400B00202C0B00207405002096
:1030A000080B0020BC0500200A0B0020180B002094
:1030B0001C0B00208C0B0020900B00200C0B002020
:1030C00020000020220000208A0B0020F6070020AC
:1030D0009C0B0020940B0020980B0020BB683B61E8
:1030E000A64B1B685B6A9AB2A54B1A80A54B1B685E
:1030F0005B6A9AB2A44B1A80A44B1B68A44A136063
:10310000FEF756FD3B69002B1BDD3B6907EE903A4D
:10311000F8EEE77A9FED9F7A67EE877AB6EE007A4F
:1031200077EE877AFDEEE77A17EE903AFB609A4ADF
:10313000FB681360994B00221A70994B01221A7098
:1031400010E0964B01221A70934B6FF000421A6008
:10315000944B00221A60944B4FF000021A60904B7F
:1031600001221A70914B01221A700123CCE1BB6835
:10317000002B01DDBB6800E03223BB617F4B1B6885
:103180005B6A9AB27E4B1A807E4B1B685B6A9AB26E
:103190007D4B1A80BB6907EE903AF8EEE77A9FED17
:1031A0007D7A67EE877AB6EE007A77EE877AFDEE63
:1031B000E77A17EE903A5B427B61774A7B6913604E
:1031C000724B1B68724A1360FEF7F2FC744B0222CA
:1031D0001A70764B01221A70012395E1BB68002B0F
:1031E00005DBBB6807EE903AF8EEE77A06E0BB68CD
:1031F00007EE903AF8EEE77AF1EE677A6C4BC3EDA2
:10320000007A624B93ED007A694BD3ED007A77EE4A
:10321000677A684BC3ED007AFEF7DAFC06F0C6F871
:1032200003466433644A1360644B00221A705C4B9B
:1032300004221A70FEF756FE012365E1BB68002BDD
:1032400005DBBB6807EE903AF8EEE77A06E0BB686C
:1032500007EE903AF8EEE77AF1EE677A544BC3ED59
:10326000007A4A4B93ED007A514BD3ED007A77EE1A
:10327000277A504BC3ED007AFEF7C6FC06F096F8AD
:10328000034664334C4A13604C4B00221A70444B83
:1032900005221A70FEF726FE012335E1BB68002BDC
:1032A00005DBBB6807EE903AF8EEE77A06E0BB680C
:1032B00007EE903AF8EEE77AF1EE677A3C4BC3ED11
:1032C000007A324B93ED007A394BD3ED007A77EEEA
:1032D000277A384BC3ED007AFEF788FC06F066F8D3
:1032E00003463233344A1360344B01221A702C4B9C
:1032F00006221A70FEF7F6FD012305E1BB68002BDC
:1033000005DBBB6807EE903AF8EEE77A06E0BB68AB
:1033100007EE903AF8EEE77AF1EE677A244BC3EDC8
:10332000007A1A4B93ED007A214BD3ED007A77EEB9
:10333000677A204BC3ED007AFEF774FC06F036F88E
:10334000034632331C4A13601C4B00221A70144B84
:1033500007221A70FEF7C6FD0123D5E0FEF78EFBAB
:10336000FEF71CFEFEF724FC0D4B03221A7001230E
:10337000CAE0FEF729FB0123C6E000BF7405002068
:10338000080B0020BC0500200A0B0020180B0020B1
:103390001C0B0020896D93420C0B00208A0B00202F
:1033A000F60700208C0B0020900B00209C0B0020C7
:1033B00000000020100B00206C0B0020700B002080
:1033C000534B1B681846FDF7CFF802460B46514990
:1033D000C1E900234E4B1B681846FDF7C5F84FF0B6
:1033E00000024D4BFCF762FF02460B464B49C1E918
:1033F0000023474B1B681846FDF7B6F84FF0000254
:10340000454BFCF751FF02460B4610461946FDF7A7
:10341000DBFB03463E4A1360414B01221A70414BCD
:1034200001221A70404B1B78DBB2012B17D03F4BA7
:103430001B685B6A9AB23E4B1A803E4B1B685B6A04
:103440009AB23D4B1A80FEF7B3FB3C4B6FF0004243
:103450001A603B4B00221A70334B01221A70012371
:1034600052E02B4B1B681846FDF77EF802460B46D0
:103470002849C1E90023264B1B681846FDF774F85C
:103480004FF00002244BFCF70FFF02460B46234986
:10349000C1E900231E4B1B681846FDF765F84FF085
:1034A00000021D4BFCF702FF02460B461046194670
:1034B000FDF78AFB0346164A1360194B02221A7065
:1034C000184B01221A70184B1B78DBB2012B17D056
:1034D000164B1B685B6A9AB2154B1A80154B1B681A
:1034E0005B6A9AB2144B1A80FEF762FB134B6FF0C3
:1034F00000421A60124B00221A700B4B01221A7004
:10350000012301E000BF002318462037BD4680BDDF
:10351000100B0020A00B002000004940A80B002049
:103520009D0B00209E0B0020F60700207405002054
:10353000080B0020BC0500200A0B00200C0B00200B
:103540008A0B002080B584B000AF87ED010AD7ED6B
:10355000017A9FED1A7AF4EEC77AF1EE10FA01D5EE
:10356000174B24E0DFED170A97ED010A0FF03AFF41
:10357000F0EE407A9FED147A67EE877AC7ED037A12
:10358000D7ED037A9FED117AF4EEC77AF1EE10FAD7
:1035900001DD0B4B0BE0D7ED037AB2EE047AF4EECB
:1035A000C77AF1EE10FA01D5094B00E0FB6807EE8F
:1035B000903AB0EE670A1037BD4680BDCDCCCC3D09
:1035C0000000A042333393BF48E1DE410000A04237
:1035D00000002041B0B5B2B000AF824B5B6FC7F8BE
:1035E000C43005F07DFE00F033F9FEF72FFA00F04D
:1035F000FDFC00F0DBFC00F0BFFA00F015FA00F073
:1036000067FA00F0A9FC00F0ADFB00F019FC00F037
:10361000DDF900F033FB00F079F900F073FC05F000
:10362000D1FD714804F030FFB7EE001AF7EE080A3A
:10363000B2EE000A04F076FFD7F8C43003F000536E
:10364000002B03D0694804F0E9FF34E0D7F8C43018
:1036500003F08043002B03D0654804F0DFFF2AE02D
:10366000D7F8C43003F08053002B03D0614804F036
:10367000D5FF20E0D7F8C43003F00073002B03D04F
:103680005D4804F0CBFF16E0D7F8C43003F0806348
:10369000002B03D0594804F0C1FF0CE0D7F8C43028
:1036A00003F00063002B03D0554804F0B7FF02E09D
:1036B000544804F0B3FF4B4B5B6F4A4A43F08073AE
:1036C00053670122504951480AF0FFFC0222504939
:1036D000504805F0DFFE504B07F1A8041D460FCD02
:1036E0000FC495E8070084E8070007F1A80300214C
:1036F00018460BF090FC0346484A1360484B07F10C
:103700008C041D460FCD0FC495E8070084E8070020
:1037100007F18C03002118460BF07DFC0346414A5B
:103720001360414B07F170041D460FCD0FC495E89F
:10373000070084E8070007F17003002118460BF02A
:103740006AFC0346394A1360394B07F154041D469D
:103750000FCD0FC495E8070084E8070007F1540374
:10376000002118460BF057FC0346324A1360324BD7
:1037700007F138041D460FCD0FC495E8070084E813
:10378000070007F13803002118460BF044FC0346FC
:103790002A4A13602A4B07F11C041D460FCD0FC4A3
:1037A00095E8070084E8070007F11C03002118468C
:1037B0000BF031FC0346234A1360234B3C461D4665
:1037C0000FCD0FC495E8070084E807003B460021B1
:1037D00018460BF020FC03461C4A13600BF014FC47
:1037E00000BFFDE70038024024070020843E0108A6
:1037F000903E01089C3E0108AC3E0108BC3E010819
:10380000C83E0108D43E0108F50700206C070020DF
:10381000740B002078040020EC3E0108B40700205F
:10382000143F0108B80700203C3F0108BC070020F6
:10383000683F0108C0070020903F0108C40700202E
:10384000BC3F0108C8070020E03F0108CC0700206A
:1038500080B594B000AF07F1200330220021184654
:103860000DF05AFC07F10C0300221A605A609A60AE
:10387000DA601A610023BB60224B1B6C214A43F0C3
:10388000805313641F4B1B6C03F08053BB60BB68F9
:1038900000237B601C4B1B681B4A43F4804313606E
:1038A000194B1B6803F480437B607B6802233B62F7
:1038B0000123FB6210233B630023BB6307F120035A
:1038C000184608F023FA0346002B01D003F030FE1F
:1038D0000F23FB6000233B6100237B610023BB615E
:1038E0000023FB6107F10C030021184608F086FC59
:1038F0000346002B01D003F01BFE00BF5037BD462E
:1039000080BD00BF003802400070004080B584B028
:1039100000AF3B4600221A605A609A60DA60284B7A
:10392000284A1A60264B4FF440325A60244B00223A
:103930009A60234B01221A61214B01221A76204BF7
:10394000002283F820201E4B0022DA621C4B1E4A04
:103950009A621B4B0022DA60194B0222DA61184B83
:10396000012283F83020164B00225A61144805F0DA
:103970004DFD0346002B01D003F0DAFD0A233B6026
:1039800001237B600723BB603B4619460C4805F0CA
:10399000A9FE0346002B01D003F0CAFD0B233B60B8
:1039A00002237B603B461946054805F09BFE034613
:1039B000002B01D003F0BCFD00BF1037BD4680BD19
:1039C00078040020002001400100000F80B500AF06
:1039D000124B134A1A60114B124A5A600F4B0022C5
:1039E0009A600E4B0022DA600C4B4FF480421A6151
:1039F0000A4B00225A61094B00229A61074B0022B0
:103A0000DA61064B00221A62044807F003F9034604
:103A1000002B01D003F08CFD00BF80BD20050020ED
:103A200000580040A086010080B58CB000AF07F1BF
:103A30000C032422002118460DF06EFB3B1D0022D2
:103A40001A605A60214B4FF080421A601F4B0022CF
:103A50005A601E4B00229A601C4B4FF6FF72DA60D0
:103A60001A4B00221A61194B00229A610323FB6052
:103A700000233B6101237B610023BB610A23FB61BF
:103A800000233B6201237B620023BB620A23FB62AB
:103A900007F10C0319460D4809F080F80346002B86
:103AA00001D003F045FD00237B600023BB603B1D7C
:103AB000194606480AF068F90346002B01D003F0C6
:103AC00037FD00BF3037BD4680BD00BF7405002004
:103AD00080B58CB000AF07F10C03242200211846FA
:103AE0000DF01AFB3B1D00221A605A60204B214A40
:103AF0001A601F4B00225A601D4B00229A601C4B1B
:103B00004FF6FF72DA601A4B00221A61184B00223E
:103B10009A610323FB6000233B6101237B61002347
:103B2000BB610A23FB6100233B6201237B6200230C
:103B3000BB620A23FB6207F10C0319460C4809F02B
:103B40002DF80346002B01D003F0F2FC00237B602C
:103B50000023BB603B1D194605480AF015F90346D2
:103B6000002B01D003F0E4FC00BF3037BD4680BD20
:103B7000BC0500200004004080B58EB000AF07F106
:103B8000280300221A605A609A60DA6007F1200365
:103B900000221A605A603B1D00221A605A609A6027
:103BA000DA601A615A619A61324B334A1A60314BBA
:103BB00000225A602F4B00229A602E4B41F61F4282
:103BC000DA602C4B00221A612A4B00229A612948A4
:103BD00008F0F2FC0346002B01D003F0A9FC4FF4DF
:103BE0008053BB6207F128031946224809F058FBAD
:103BF0000346002B01D003F09BFC1E4808F02BFD70
:103C00000346002B01D003F093FC00233B6200230A
:103C10007B6207F12003194616480AF0B5F80346FF
:103C2000002B01D003F084FC60237B600023BB6089
:103C30000023FB6000237B613B1D082219460D48D1
:103C400009F06CFA0346002B01D003F071FC3B1D18
:103C50000C221946074809F061FA0346002B01D0EF
:103C600003F066FC034804F093F900BF3837BD4603
:103C700080BD00BF040600200008004080B58AB067
:103C800000AF07F1180300221A605A609A60DA60E8
:103C900007F1100300221A605A603B4600221A60A6
:103CA0005A609A60DA602D4B2D4A1A602B4B0F2216
:103CB0005A602A4B00229A60284B4FF6FF72DA6056
:103CC000264B00221A61254B00225A61234B002209
:103CD0009A61224808F070FC0346002B01D003F0E3
:103CE00027FC4FF48053BB6107F1180319461B48AA
:103CF00009F0D6FA0346002B01D003F019FC17484F
:103D000008F0CAFD0346002B01D003F011FC00238C
:103D10003B6100237B6107F1100319460F480AF04D
:103D200033F80346002B01D003F002FC0A233B606A
:103D300001237B600023BB600023FB603B46042221
:103D40001946064809F04EF90346002B01D003F04E
:103D5000EFFB00BF2837BD4680BD00BF4C060020EA
:103D60000004014080B58CB000AF07F120030022B1
:103D70001A605A609A60DA603B1D00221A605A602D
:103D80009A60DA601A615A619A612B4B2B4A1A6069
:103D9000294B00225A60284B00229A60264B41F69C
:103DA0001F42DA60244B00221A61234B00229A61E1
:103DB000214808F001FC0346002B01D003F0B8FBBA
:103DC0004FF480533B6207F1200319461A4809F06B
:103DD00067FA0346002B01D003F0AAFB164808F04F
:103DE0003AFC0346002B01D003F0A2FB60237B606A
:103DF0000023BB600023FB6000237B613B1D00228E
:103E000019460D4809F08AF90346002B01D003F04A
:103E10008FFB3B1D04221946074809F07FF9034632
:103E2000002B01D003F084FB034804F0B1F800BF7D
:103E30003037BD4680BD00BF9406002000400140E1
:103E400080B58CB000AF07F1200300221A605A60E1
:103E50009A60DA603B1D00221A605A609A60DA604C
:103E60001A615A619A61254B254A1A60234BA02298
:103E70005A60224B00229A60204B4FF47A72DA602B
:103E80001E4B00221A611D4B00229A611B4808F04C
:103E900093FB0346002B01D003F04AFB4FF4805301
:103EA0003B6207F120031946144809F0F9F903466B
:103EB000002B01D003F03CFB104808F0CCFB03467C
:103EC000002B01D003F034FB60237B600023BB6038
:103ED0000023FB6000237B613B1D04221946074839
:103EE00009F01CF90346002B01D003F021FB034825
:103EF00004F04EF800BF3037BD4680BDDC06002020
:103F00000018004080B500AF114B124A1A60104BE8
:103F10004FF4E1325A600E4B00229A600C4B0022A3
:103F2000DA600B4B00221A61094B0C225A61084BD4
:103F300000229A61064B0022DA61054809F0B4FFBD
:103F40000346002B01D003F0F3FA00BF80BD00BF91
:103F5000240700200044004080B500AF114B124AF6
:103F60001A60104B4FF4E1325A600E4B00229A60F7
:103F70000C4B0022DA600B4B00221A61094B0C2219
:103F80005A61084B00229A61064B0022DA6105480B
:103F900009F08AFF0346002B01D003F0C9FA00BFE5
:103FA00080BD00BF6C0700200048004080B582B093
:103FB00000AF00237B600C4B1B6B0B4A43F4800368
:103FC0001363094B1B6B03F480037B607B68002247
:103FD0000521382005F001FF382005F01AFF00BF49
:103FE0000837BD4680BD00BF0038024080B58AB0AA
:103FF00000AF07F1140300221A605A609A60DA6079
:104000001A6100233B61484B1B6B474A43F0100386
:104010001363454B1B6B03F010033B613B690023AB
:10402000FB60414B1B6B404A43F0040313633E4B60
:104030001B6B03F00403FB60FB680023BB603A4B7F
:104040001B6B394A43F001031363374B1B6B03F0BF
:104050000103BB60BB6800237B60334B1B6B324AA0
:1040600043F002031363304B1B6B03F002037B60CE
:104070007B6800233B602C4B1B6B2B4A43F00803EF
:104080001363294B1B6B03F008033B603B68002262
:104090004FF48071254806F089FD00224FF4F0416D
:1040A000234806F083FD00224021224806F07EFDD1
:1040B0004FF480737B610123BB610023FB6100230C
:1040C0003B6207F114031946184806F0BFFA4FF493
:1040D000F0437B610123BB610023FB6100233B6252
:1040E00007F114031946124806F0B0FA40237B6129
:1040F0000123BB610023FB6100233B6207F1140332
:1041000019460C4806F0A2FA01237B610023BB612B
:104110000023FB6107F114031946044806F096FAE0
:1041200000BF2837BD4680BD003802400010024065
:10413000000C02400008024080B500AF0022402180
:104140000A4806F033FD0220FDF758FC0122402109
:10415000064806F02BFD0A20FDF750FC0022402106
:10416000024806F023FD00BF80BD00BF00080240EA
:1041700080B487B000AFF860B9607A60FA68BB6855
:10418000934238BF13467A68934238BF13467B6127
:10419000FA68BB68934228BF13467A68934228BFE7
:1041A00013463B61FA68BB681A447B681A447B6912
:1041B000D21A3B69D31A18461C37BD465DF8047BFA
:1041C0007047000080B584B000AF78607B681B68E2
:1041D0004A4A934240F08D807B681B7F022B40F05F
:1041E0008880474B1B78DBB2002B17D17B681B689C
:1041F00000225A627B681B681A6A7B681B6822F07F
:10420000A0021A627B681B681A6A7B681B6842F00E
:1042100020021A623A4B01221A706BE0042178687E
:1042200009F006F903469AB2364B1A807B681B6880
:104230001A6A7B681B6822F0A0021A627B681A68FF
:104240007B681B68126A1A622D4B00221A702D4B74
:104250001B889BB207EE903AF8EEE77A9FED2A7A38
:1042600067EE877AB6EE007A77EE877AFCEEE77A29
:1042700017EE903ABB60254B1B781946244ABB6861
:1042800042F82130214B1B78591C224BA3FB012300
:104290005A0813465B001344CA1AD2B21B4B1A7059
:1042A0001D4B1B78022B05D81B4B1B780133DAB250
:1042B000194B1A70BB68FB60174B1B78032B09D195
:1042C000134B1B68124A5168114A92681846FFF74F
:1042D0004FFFF860FB6807EE903AF8EE677A0F4BF5
:1042E000C3ED007A0E4AFB6813600E4B01221A7070
:1042F00000E000BF1037BD4680BD00BF0004014094
:10430000B00B0020B20B0020287E8C3CE807002078
:10431000DC070020ABAAAAAAE9070020D4070020E6
:10432000D0070020D807002080B584B000AF7860A7
:104330007B681B68614A934240F0BC80604B1B78ED
:10434000FB72FB7A0D2B02D0FB7A0A2B76D15D4BE8
:104350001B881A465C4B002199545C4B1B78002B40
:1043600065D1584B1B88002B61D00023FB8114E0E2
:10437000FB89554AD35C402B0CD9FB89524AD35C4C
:104380005A2B07D8FB89504AD25CFB892032D1B224
:104390004D4AD154FB890133FB814A4B1B88FA8972
:1043A0009A42E5D34A494848FBF712FF0346002BDF
:1043B00003D1484B01221A7039E0434B1B786A2B1A
:1043C00003D14148FDF7F6FE31E0434B1B78DBB2E9
:1043D000002B2CD13F4B1B78DBB2002B27D10023C5
:1043E000BB8110E0BB89384AD35C3B2B04D0BB892E
:1043F000354AD35C2C2B03D1BB89334A2021D154BD
:10440000BB890133BB812F4B1B88BA899A42E9D300
:104410002D48FEF74BFB314B1B78DBB2002B06D14E
:104420002C4B1B78DBB2002B01D1FEF7F7FC254BA0
:1044300000221A80254B00221A7035E0234B1B788E
:10444000002B31D1FB7A1F2B02D9FB7A7E2B19D995
:10445000FB7A092B03D01D4B01221A7024E0194B63
:104460001B88FE2B0AD8174B1B885A1C91B2154A81
:1044700011801946144AFB7A535415E0134B01225C
:104480001A7011E00F4B1B88FE2B0AD80D4B1B88AE
:104490005A1C91B20B4A118019460B4AFB7A5354AD
:1044A00002E00A4B01221A70012205490C4809F06A
:1044B0000CFE00E000BF1037BD4680BD0048004044
:1044C000F5070020F8080020F8070020FA0800206F
:1044D000043E0108F4070020E00B0020F60700204E
:1044E0006C07002080B485B000AF78607B681B68E3
:1044F000354A934261D1354B1B889BB21A4640F630
:10450000E44302FB03F303F2FF72314BA3FB0213FC
:10451000D21A52081344DB0AFB812C4B5B889BB2F6
:104520001A4640F6E44302FB03F303F2FF72284B02
:10453000A3FB0213D21A52081344DB0ABB81254B9A
:104540001B889BB29A00FB891344234AA2FB0323D6
:104550009B089AB21F4B1A80204B1B889BB29A0073
:10456000BB8913441C4AA2FB03239B089AB21B4B32
:104570001A80164B1B889AB2194B1A80134B5B8812
:104580009AB2184B1A80134B1B889BB240F21F3211
:1045900093428CBF01230023DBB21A46124B1A70E0
:1045A0000E4B1B889BB240F21F3293428CBF0123FB
:1045B0000023DBB21A460D4B1A7000BF1437BD46FC
:1045C0005DF8047B704700BF00200140740B0020A1
:1045D00001011000860B0020CDCCCCCC880B002034
:1045E000780B00207A0B0020840B0020850B002024
:1045F00080B584B000AF78604123FB734FF48071C5
:10460000044806F0ECFA4FF47A700AF050FD00BF4F
:10461000F4E700BF0010024080B58EB002AF7860B2
:104620000121794806F0AAFA034687F82F30774B24
:104630001B78012B11D197F82F30002B0DD1744B23
:104640001B780133002B03F00103B8BF5B42DAB2E1
:104650006F4B1A7032200AF02AFD6C4A97F82F30FF
:1046600013706C4B1B78DBB2002B19D16A4A002106
:10467000002004F075FD694A1021002004F070FD4F
:10468000674A2021002004F06BFD664A302100209B
:1046900004F066FD04F0ECFB14200AF008FDB1E024
:1046A0005B4B1B78002B4DD15F4B1B681846FBF70B
:1046B0005BFF02460B4607F10C00CDE900235B4A85
:1046C00020210CF0AFFC07F10C031A46002100205A
:1046D00004F046FD564BD3ED007AFDEEE77A07F184
:1046E0000C0017EE903A534A20210CF09BFC07F186
:1046F0000C031A461021002004F032FD4E4B1A68BC
:104700004E4B1B6807F10C00009313464C4A2021C6
:104710000CF088FC07F10C031A462021002004F05D
:104720001FFDFEF779F9034607F10C00454A2021E9
:104730000CF078FC07F10C031A463021002004F03D
:104740000FFD5AE0324B1B78012B56D13E4B1B68B4
:1047500007F10C003D4A20210CF064FC07F10C032A
:104760001A460021002004F0FBFC394B1B889BB249
:104770001A46384B1B78DBB207F10C000093134646
:10478000354A20210CF04EFC07F10C031A4610218B
:10479000002004F0E5FC314B1B889BB21A46304BDD
:1047A0001B78DBB207F10C00009313462D4A202141
:1047B0000CF038FC07F10C031A462021002004F00D
:1047C000CFFC294BD3ED007ABDEEE77A274BD3ED32
:1047D000007AFDEEE77A17EE903A07F10C000093AD
:1047E00017EE103A224A20210CF01CFC07F10C03B2
:1047F0001A463021002004F0B3FC04F039FB1420E9
:104800000AF055FC0CE700BF001002402600002013
:10481000FC0C00202C0B0020FC3F0108104001087C
:104820002440010838400108180B00204C400108C2
:10483000100B00205C400108EC070020F00700206E
:104840006840010874400108D0070020804001083A
:10485000860B0020840B002094400108880B002068
:10486000850B0020A4400108B40B0020B80B0020E9
:10487000B4400108B0B52DED028BADF5467D06AF15
:1048800007F54073A3F53F731860BF4B00221A7001
:10489000FDF73EF9FDF74EF90821BC4807F034FF5B
:1048A0000C21BA4807F030FF0021B94807F02CFF6F
:1048B0000421B74807F028FFFDF7E0F832200AF09E
:1048C000F6FBB44B1B68F0229A630421B14807F051
:1048D0001BFFFDF7F7F902E014200AF0E8FBAE4BEE
:1048E0001B78DBB2002BF7D0FDF7C8F8AB4802F01D
:1048F000F7FFAB4B1B78DBB2002B00F09480EFF39B
:10490000108207F54073A3F5EC731A6007F5407346
:10491000A3F5EC731B68C7F8783272B600BF07F5D1
:104920004073A3F536739F4A184611464FF48073BF
:104930001A460CF0FCFC9A4B00221A70D7F8783219
:10494000002B01D162B600BF07F54073A3F53673A3
:10495000002283F8FF200023C7F8FC3248E007F567
:104960004073A3F53672D7F8FC3213441B78402B02
:104970001CD907F54073A3F53672D7F8FC321344FF
:104980001B785A2B12D807F54073A3F53672D7F867
:10499000FC3213441B782033D9B207F54073A3F5DA
:1049A0003672D7F8FC3213440A461A7007F5407382
:1049B000A3F53672D7F8FC3213441B783B2B09D091
:1049C00007F54073A3F53672D7F8FC3213441B7811
:1049D0002C2B08D107F54073A3F53672D7F8FC32BB
:1049E000134420221A70D7F8FC320133C7F8FC3286
:1049F00007F54073A3F53672D7F8FC3213441B78E1
:104A0000002BACD107F128031846FEF74FF8664B90
:104A10001B78DBB2002B06D1644B1B78DBB2002B7A
:104A200001D1FEF7FBF9604B1B78DBB2002B35D0D0
:104A30005D4B1B78DBB2032B30D004F0B7FCC7F81A
:104A40007402554B1B78DBB2002B08D0584B1B6807
:104A5000D7F87422D31A642B01D9012300E0002374
:104A600087F8733297F8733203F0010387F87332D3
:104A7000494B1B78DBB2002B03D097F87332002B25
:104A80000CD097F87332002B01D04A4B00E04A4B10
:104A9000184603F0C3FD454B01221A70434B1B78A7
:104AA000DBB2002B56D0404B1B78DAB207F54073CF
:104AB000A3F5EA731A60FDF719FC3C4B00221A704B
:104AC0003E4B00221A703E4B00221A603D4B4FF0C5
:104AD00000021A603C4B00221A603C4B4FF000026F
:104AE0001A603B4B00221A703A4B00221A70FCF7F6
:104AF000C5FF394B00221A6007F54073A3F5EA732E
:104B00001868FDF75AF90346002B07D007F54073E4
:104B1000A3F5EA731868FDF7D2F901E0FDF748F84C
:104B20002E4B00221A60FCF723FF1F4B00221A7045
:104B30002B4B00221A602B4B00221A70FDF72EFA25
:104B40002948FDF771FBFDF781FB05200AF0AFFA5C
:104B500002F0A4B9FDF710FE0346002B04D0052097
:104B60000AF0A5FA02F09AB90F4B1B78DBB2072BBB
:104B700002F37981042B81F28787022B36DC002B2C
:104B800039DC02F070B900BF400B002004060020A1
:104B900094060020DC0600202C0B0020C00B002017
:104BA000FC090020FC080020F6070020F407002084
:104BB000300B0020C8400108D44001088A0B0020B7
:104BC0008C0B0020900B0020940B0020980B0020F1
:104BD0009D0B00209E0B0020000A00200C0B0020E3
:104BE0006C0B0020700B0020E4400108032B02F046
:104BF0002D8102F038B94FF07A53C7F84032864B16
:104C0000C7F83C32844BC7F83832844B1B685B6A68
:104C1000A7F83632824B1B685B6AA7F83432814BA7
:104C20001B78DBB2022B02D14FF0FF3300E00123EF
:104C3000C7F8303204F0BAFBC7F82C027A4B1B7865
:104C4000002B0AD0794B1B78DBB2002B05D1784BB7
:104C50001B68D7F830229A422BD0764AB7F8363202
:104C60001380754AB7F834321380744B00221A60EF
:104C7000734B00221A606E4AD7F8303213606A4BC9
:104C800001221A706F4B4FF000021A606E4AD7F87B
:104C90002C3213606D4AD7F82C3213606C4B6D4A7E
:104CA0001A606D4AD7F82C3213606C4B00221A60E0
:104CB00020E0604B1B88B7F83622D31A9BB21BB298
:104CC0001A465E4B1B6813445C4A13605C4B1B68BE
:104CD000594A1288B7F834128A1A92B212B29B1A41
:104CE000574A1360534AB7F836321380524AB7F81E
:104CF00034321380544B1B68D7F82C22D31AC7F8D0
:104D00002832514AD7F82C321360D7F82832322B88
:104D100002D93223C7F82832484B1A68484B1B681F
:104D20001344DA0F13445B10C7F824324B4B1B6853
:104D3000D7F82422D31AC7F82032D7F82032032B11
:104D400004DCD7F8203213F1030F07DA434AD7F80F
:104D500024321360404AD7F82C321360D7F830322F
:104D6000002B07DD3E4B1A68D7F82432D31AC7F858
:104D7000F83206E03A4B1B68D7F82422D31AC7F85A
:104D8000F832D7F8F832002B02DA0023C7F8F832ED
:104D9000002387F8F732324B1B68002B0ADB304BBD
:104DA0001B68D7F824229A42ACBF0123002387F85E
:104DB000F73209E02A4B1B68D7F824229A42D4BF65
:104DC0000123002387F8F732002387F8F632154BCA
:104DD0001B78DBB2012B40F02881224B1B78DBB221
:104DE000002B00F022811F4B1B78DBB2013B062B0E
:104DF00000F2F48001A252F823F000BF054F000832
:104E00008D4F0008A14F0008DD4F0008B54F000886
:104E1000C94F0008694E00080AD7233C74050020DA
:104E2000BC050020F6070020FD0C00209C0B002094
:104E3000000D0020040D0020060D0020080D0020AC
:104E40000C0D0020100D0020140D0020180D002066
:104E5000280000200000A0401C0D0020200D002094
:104E60000C0B00208A0B00205E4B1B889BB21A465D
:104E70005D4B1B689A422CBF0123002387F8F63252
:104E8000594B1B68142B00F2AB80584B1B78DBB2DC
:104E9000002B00F0A580564B1B78DBB2002B15D100
:104EA000514B1B6807F10800524A20210CF0BAF858
:104EB000C7F81C024E4B01221A70D7F81C329AB266
:104EC00007F1080319464C4809F0C9F84B4B1B6819
:104ED0004B4A1360FCF76CFE4A4B04221A704A4B93
:104EE0004A4A1A604A4B00221A604A4B00221A6052
:104EF000002387F8F632484B01221A70474B0222F2
:104F00001A706DE0384B1B681A2B94BF01230023E5
:104F100087F8F632344B1B68142B00F28580344B33
:104F20001B78DBB2002B15D12F4B1B6807F1080053
:104F3000304A20210CF076F8C7F818022C4B0122D9
:104F40001A70D7F818329AB207F1080319462A489E
:104F500009F085F8294B1B68294A1360FCF728FEE5
:104F6000284B04221A70284B284A1A60284B00222A
:104F70001A60284B00221A60002387F8F632264B6D
:104F800001221A70254B02221A704DE0244B1B7827
:104F9000DBB2002B0CBF0123002387F8F63244E07C
:104FA000204B1B78DBB2002B0CBF0123002387F8BA
:104FB000F6323AE01A4B1B78DBB2012B0CBF01230F
:104FC000002387F8F63230E0164B1B78DBB2012B5A
:104FD0000CBF0123002387F8F63226E000BF24E04F
:104FE00000BF22E020000020D00700202200002087
:104FF000060B0020EC4001086C070020100B00207D
:105000001C0B00208A0B00200C0B002001000080EC
:10501000240D0020280D00209C0B0020F607002006
:10502000850B0020840B002000BF674B1B78DBB290
:10503000022B0CD1654B1B78DBB2042B07D1644BE0
:105040001B68132B8CBF0123002387F8F63297F8D7
:10505000F632002B3BD05D4B1B78DBB2012B04D02A
:105060005A4B1B78DBB2072B31D15A4B1B6807EE2A
:10507000903AB8EEE77ADFED586AC7EE267A574BDA
:10508000C3ED007A564B1B78DBB2002B1FD1534B7C
:105090001B681846FBF768FA02460B464C4909683C
:1050A00007F108000291CDE900234E4A20210BF0C0
:1050B000B9FFC7F814024A4B01221A70D7F814320C
:1050C0009AB207F108031946474808F0C8FF97F855
:1050D000F632002B38D03D4B1B78DBB2022B04D0CC
:1050E0003A4B1B78DBB2032B2ED1404B1B6807EEEB
:1050F000903AB8EEE77ADFED386AC7EE267A3C4B95
:10510000C3ED007A364B1B78DBB2002B1CD1384B39
:105110001B681846FBF728FA02460B4607F1080001
:10512000CDE90023334A20210BF07CFFC7F81002A1
:105130002B4B01221A70D7F810329AB207F10803EC
:105140001946294808F08BFF97F8F732002B03D156
:1051500097F8F632002B63D0FCF790FC264B41F613
:105160001F421A60254B41F61F421A60FCF7D8FD1A
:10517000234B4FF000021A60224B4FF000021A60DE
:10518000214B4FF000021A60204B4FF000021A60D2
:1051900004F00CF9034603F596731D4A13600B4B9C
:1051A00000221A701B4B00221A601B4B00221A604F
:1051B000054B00221A7004F0F9F8034603F59673C4
:1051C000164A136001F067BEF60700208A0B002024
:1051D000D00700208C0B0020896D9342900B00209B
:1051E000060B0020F84001086C070020940B0020FB
:1051F000980B0020044101080C0000201000002042
:10520000480B00204C0B0020500B0020540B0020BA
:10521000140B0020240D0020280D0020000A00207F
:1052200004F0C4F8C7F80C02C14B1B68002B0BD16B
:10523000BF4AD7F80C321360BE4AB7F83632138033
:10524000BD4AB7F834321380BC4B1B78DBB2002B5D
:105250003FD0B84AB7F836321380B74AB7F834327D
:105260001380B34AD7F80C321360B44B00221A7083
:10527000B34B4FF000021A60B24B4FF000021A60BD
:10528000B14B00221A60B14B00221A60B04B4FF0B4
:1052900000021A60AF4B4FF000021A60AE4B0022C2
:1052A0001A70AE4B4FF000021A60AD4B4FF0000287
:1052B0001A60AC4B4FF000021A60AB4B4FF000028B
:1052C0001A60AA4B4FF000021A60A94B4FF000027F
:1052D0001A60984B1B88B7F83622D31A9BB2A7F8EE
:1052E0000A32954B1B88B7F83422D31A9BB2A7F821
:1052F0000832B7F808325B429BB2A7F808329D4BE0
:105300001B78DBB2012B1AD19B4B1B78DBB2012B34
:1053100004D0994B1B78DBB2072B10D1B7F90A22C6
:10532000B7F908321344DA0F13445B10C7F804329C
:10533000924B1A68D7F804321344904A13608D4B8D
:105340001B78DBB2012B20D18B4B1B78DBB2022BFD
:1053500004D0894B1B78DBB2032B16D1B7F90A2294
:10536000B7F90832134407F54072A2F58072D90FDD
:105370000B445B101360824B1A6807F54073A3F56A
:1053800080731B6813447E4A1360694B1B68D7F80F
:105390000C22D31AC7F8F032D7F8F032002B02D122
:1053A0000123C7F8F032B7F90A324FF47A7202FBE0
:1053B00003F1D7F8F02207F54073A3F5827391FB50
:1053C000F2F21A60B7F908324FF47A7202FB03F175
:1053D000D7F8F02207F54073A3F5847391FBF2F23E
:1053E0001A60D7F8F03207EE903AB8EE677A07F510
:1053F0004073A3F58673DFED636AC7EE267AC3EDCB
:10540000007A07F54073A3F58673D3ED007A9FED1C
:105410005E7A37EE877A07F54073A3F5887307F550
:105420004072A2F58672D2ED006AC6EE877AC3EDAD
:10543000007A07F54073A3F582731B6807EE903A74
:10544000B8EEE77A3E4BD3ED007A37EE677A07F590
:105450004073A3F58873D3ED007A27EE277A384B93
:10546000D3ED007A77EE277A354BC3ED007A07F556
:105470004073A3F584731B6807EE903AB8EEE77AA1
:10548000304BD3ED007A37EE677A07F54073A3F51A
:105490008873D3ED007A27EE277A2A4BD3ED007A72
:1054A00077EE277A274BC3ED007A224AB7F83632D7
:1054B0001380214AB7F8343213801D4AD7F80C32D2
:1054C00013601F4B93ED007A1E4BD3ED007A77EEFD
:1054D000677A07F54073A3F58A73FDEEE77A17EE56
:1054E000902A1A60294B93ED007A294BD3ED007A6C
:1054F00077EE677A274BC3ED007A07F54073A3F583
:105500008C7307F54072A2F58A7212681A600E4B0E
:105510001A6807F54073A3F58C731B6813440A4A95
:10552000136007F54073A3F58E7349F6404233E0EC
:105530002C0D0020300D0020320D00209C0B00208F
:10554000340D0020380D0020240D0020280D0020EF
:105550003C0D0020400D0020440D0020480D00208F
:105560004C0D0020480B00204C0B0020500B00205D
:10557000540B0020F60700208A0B00208C0B002023
:10558000940B002000007A44CDCC4C3D1C0B002035
:10559000180B0020200B00201A60614B1B6807F5D8
:1055A0004072A2F58E7212689A4206DA5C4A07F5DA
:1055B0004073A3F58E731B68136007F54073A3F562
:1055C0008E731B685A42564B1B689A4207DD07F5DB
:1055D0004073A3F58E731B685B42514A1360514BB5
:1055E0001A6807F54073A3F5907307F54071A1F5AC
:1055F0008C7109688A1A1A604A4A07F54073A3F544
:105600008C731B68136007F54073A3F58C731B68DC
:1056100007EE903AB8EEE77AD7ED907A27EE277A40
:105620003F4B1B6807EE903AF8EEE76AD7ED8F7AAA
:1056300066EEA77A37EE277A07F54073A3F59073E5
:105640001B6807EE903AF8EEE76AD7ED8E7A66EEC1
:10565000A77A07F54073A3F5927377EE277AC3ED27
:10566000007A07F54073A3F59273D3ED007AFDEE4F
:10567000E77A17EE903AC7F8EC322B4B1B78DAB288
:1056800007F54073A3F22513022A0CBF0122002262
:105690001A70264B1B78002B05D0254B1B78012B4D
:1056A00001D1012200E0002207F54073A3F59373B6
:1056B0001A701A7802F001021A7007F54073A3F508
:1056C00093731B78002B06D01A4B1B6807EE903A99
:1056D000F8EEE77A01E0DFED187A07F54073A3F5FD
:1056E0009673C3ED007A07F54073A3F593731B78A7
:1056F00083F00103DBB2002B26D0104B1B78DBB20A
:10570000002B21D10E4B1B686FF0004293421BD03F
:105710000B4B1B680B4A934216D0012215E000BFC9
:10572000240D0020280D0020F6070020C00B0020CB
:10573000580C0020500C00200000C8428A0B0020AA
:105740000C0B002001000080002207F54073A3F23B
:105750002D131A701A7802F001021A7007F54073BF
:10576000A3F596731B68C7F8E83207F54073A3F5F5
:10577000977300221A70002387F8E7324FF0000376
:10578000C7F8E03207F54073A3F22D131B78002B06
:1057900000F0CA82CF4B1B6807EE903AF8EEE77A2A
:1057A00007F54073A3F59A73F0EEE77AC3ED007A3C
:1057B000D7F8F83207EE903AF8EEE77A07F540733B
:1057C000A3F59A7393ED007A77EE677AC7EDB77A0F
:1057D000D7EDB77AF5EEC07AF1EE10FA03D54FF0B7
:1057E0000003C7F8DC3207F54073A3F59A7397ED11
:1057F000B77AD3ED007AB4EEE77AF1EE10FA06DD6F
:1058000007F54073A3F59A731B68C7F8DC3207F5F8
:105810004073A3F59A73D3ED007AB6EE007A67EE83
:10582000877AC7EDB67A07F54073A3F59C73AA4A49
:105830001A6007F54073A3F59C7397EDB67AD3ED24
:10584000007AB4EEE77AF1EE10FA06D507F5407368
:10585000A3F59C731B68C7F8D83207F54073A3F50E
:105860009A7397EDB67AD3ED007AB4EEE77AF1EE5B
:1058700010FA06DD07F54073A3F59A731B68C7F8A5
:10588000D83207F54073A3F59E7307F54072A2F571
:105890009A7292ED007AD7EDB67A77EE677AC3ED19
:1058A000007A07F54073A3F5A073D7EDB67A9FEDA4
:1058B0008B7A67EE877AC3ED007A07F54073A3F51C
:1058C0009A73D3ED007A9FED867A67EE877AC7EDFB
:1058D000B57A07F54073A3F59E7397EDB57AD3EDCE
:1058E000007AB4EEE77AF1EE10FA06DD07F54073C0
:1058F000A3F59E731B68C7F8D43207F54073A3F570
:10590000A27307F54072A2F59E7292ED007AD7ED70
:10591000B57A77EE677AC3ED007A724BC7F8D0326A
:1059200007F54073A3F5A27397EDB47AD3ED007A2F
:10593000B4EEE77AF1EE10FA06DD07F54073A3F551
:10594000A2731B68C7F8D032D7EDB47AF5EEC07AEF
:10595000F1EE10FA03D54FF00003C7F8D032D7EDBF
:10596000B57AF5EEC07AF1EE10FA44DD07F5407332
:10597000A3F5A27397EDB77AD3ED007AB4EEE77A88
:10598000F1EE10FA37DB07F54073A3F59E7397ED40
:10599000B77AD3ED007AB4EEE77AF1EE10FA2AD5B1
:1059A000012387F8E73207F54073A3F5A27397ED5B
:1059B000B77AD3ED007A77EE676A97EDB57AC6EEDF
:1059C000877AC7EDB87AD7EDB87AF5EEC07AF1EEFE
:1059D00010FA03D54FF00003C7F8E032D7EDB87ADC
:1059E000B7EE007AF4EEC77AF1EE10FA03DD4FF06D
:1059F0007E53C7F8E032D7F8F83207EE903AF8EE67
:105A0000E77A97EDB67AB4EEE77AF1EE10FAC0F2E3
:105A10003B8107F54073A3F5977301221A7007F5D0
:105A20004073A3F5A473D7F8F82207EE902AF8EE96
:105A3000E77AC3ED007A07F54073A3F5A47207F582
:105A40004073A3F5A07392ED007AD3ED007AB4EE23
:105A5000E77AF1EE10FA00F28480234B1B68D7F846
:105A60002C22D31A952B1AD9204BD3ED007AB0EE05
:105A7000087A77EE877A1D4BC3ED007A1B4BD3ED86
:105A8000007AB3EE087AF4EEC77AF1EE10FA02DD8E
:105A9000164B174A1A60144AD7F82C32136007F5D0
:105AA0004073A3F5A073D3ED007AF5EEC07AF1EE62
:105AB00010FA21DD07F54073A3F5A47207F54073D2
:105AC000A3F5A073D2ED006A93ED007AC6EE877A53
:105AD00014E000BF0C0B0020896D13449A99993E85
