:020000040800F2
:100000000000022089700008BD680008C56800086B
:10001000CD680008D5680008DD6800080000000011
:1000200000000000000000000000000011E00008D7
:10003000E56800080000000061E20008F3680008BD
:10004000D9700008D9700008D9700008D97000086C
:10005000D9700008D9700008D9700008D97000085C
:10006000D9700008D9700008D9700008D97000084C
:10007000D9700008D9700008D9700008D97000083C
:10008000D9700008D9700008D9700008D97000082C
:10009000D9700008D9700008D9700008D97000081C
:1000A000D9700008D9700008D9700008D97000080C
:1000B000D9700008D9700008D9700008D9700008FC
:1000C000D9700008D9700008D9700008D9700008EC
:1000D000D9700008D9700008D97000080D690008AF
:1000E000D9700008D9700008D9700008D9700008CC
:1000F000D9700008D970000821690008D97000087B
:10010000D9700008D9700008D9700008D9700008AB
:10011000D9700008D9700008D9700008D97000089B
:1001200035690008D9700008D9700008D970000836
:10013000D9700008D9700008D9700008D97000087B
:10014000D9700008D9700008D9700008D97000086B
:10015000D9700008D9700008D9700008D97000085B
:10016000D9700008D9700008D9700008D97000084B
:10017000D9700008D9700008D9700008000000008C
:08018000D9700008D9700008D5
:1001900010B5054C237833B9044B13B10448AFF3C1
:1001A00000800123237010BD000200200000000029
:1001B000241F010808B5034B1BB103490348AFF3E3
:1001C000008008BD0000000004020020241F010878
:1001D00010F8012B11F8013B012A28BF9A42F7D0F1
:1001E000D01A70470000000000000000000000006E
:1001F00001F0FF01102A2BDB10F0070F08D010F8D8
:10020000013B013A8B422DD010F0070F42B3F6D1DB
:10021000F0B441EA012141EA014122F007047FF0F4
:1002200000070023F0E80256083C85EA010586EA4B
:10023000010685FA47F5A3FA87F586FA47F6A5FA87
:1002400087F68EB9EED1F0BC01F0FF0102F0070293
:1002500032B110F8013B013A83EA010313B1F8D13E
:100260000020704701387047002D06BF354603381F
:10027000073815F0010F07D1013015F4807F02BF58
:10028000013015F4C03F0130F0BC0138704700BFA9
:10029000034613F8012B002AFBD1181A01387047C6
:1002A00081F0004102E000BF83F0004330B54FEA27
:1002B00041044FEA430594EA050F08BF90EA020F94
:1002C0001FBF54EA000C55EA020C7FEA645C7FEA27
:1002D000655C00F0E2804FEA5454D4EB5555B8BF4A
:1002E0006D420CDD2C4480EA020281EA030382EABB
:1002F000000083EA010180EA020281EA0303362D4D
:1003000088BF30BD11F0004F4FEA01314FF4801C1F
:100310004CEA113102D0404261EB410113F0004F31
:100320004FEA03334CEA133302D0524263EB4303E8
:1003300094EA050F00F0A780A4F10104D5F1200E86
:100340000DDB02FA0EFC22FA05F2801841F10001E1
:1003500003FA0EF2801843FA05F359410EE0A5F1B5
:1003600020050EF1200E012A03FA0EFC28BF4CF0E6
:10037000020C43FA05F3C01851EBE37101F000459C
:1003800007D54FF0000EDCF1000C7EEB00006EEBA9
:100390000101B1F5801F1BD3B1F5001F0CD3490833
:1003A0005FEA30004FEA3C0C04F101044FEA44528A
:1003B00012F5800F80F09A80BCF1004F08BF5FEA11
:1003C000500C50F1000041EB045141EA050130BDF1
:1003D0005FEA4C0C404141EB0101013C28BFB1F503
:1003E000801FE9D291F0000F04BF01460020B1FA4E
:1003F00081F308BF2033A3F10B03B3F120020CDA21
:100400000C3208DD02F1140CC2F10C0201FA0CF0FE
:1004100021FA02F10CE002F11402D8BFC2F1200C63
:1004200001FA02F120FA0CFCDCBF41EA0C01904019
:10043000E41AA2BF01EB0451294330BD6FEA040462
:100440001F3C1CDA0C340EDC04F11404C4F120024D
:1004500020FA04F001FA02F340EA030021FA04F35F
:1004600045EA030130BDC4F10C04C4F1200220FAB6
:1004700002F001FA04F340EA0300294630BD21FAF4
:1004800004F0294630BD94F0000F83F4801306BFBA
:1004900081F480110134013D4EE77FEA645C18BFAE
:1004A0007FEA655C29D094EA050F08BF90EA020F45
:1004B00005D054EA000C04BF1946104630BD91EA3D
:1004C000030F1EBF0021002030BD5FEA545C05D140
:1004D0004000494128BF41F0004130BD14F580047F
:1004E0003CBF01F5801130BD01F0004545F0FE41F3
:1004F00041F470014FF0000030BD7FEA645C1ABF28
:10050000194610467FEA655C1CBF0B46024650EA5E
:10051000013406BF52EA033591EA030F41F400218A
:1005200030BD00BF90F0000F04BF0021704730B510
:100530004FF4806404F132044FF000054FF00001E5
:1005400050E700BF90F0000F04BF0021704730B5A6
:100550004FF4806404F1320410F0004548BF40427B
:100560004FF000013EE700BF42004FEAE2014FEAD0
:1005700031014FEA02701FBF12F07F4393F07F4FAB
:1005800081F06051704732F07F4208BF704793F0AE
:100590007F4F04BF41F40021704730B54FF46074C1
:1005A00001F0004521F000411CE700BF50EA0102C4
:1005B00008BF704730B54FF000050AE050EA01026D
:1005C00008BF704730B511F0004502D5404261EBDD
:1005D00041014FF4806404F132045FEA915C3FF41E
:1005E000D8AE4FF003025FEADC0C18BF03325FEABB
:1005F000DC0C18BF033202EBDC02C2F1200300FA6C
:1006000003FC20FA02F001FA03FE40EA0E0021FA90
:1006100002F11444BDE600BF70B54FF0FF0C4CF47E
:10062000E06C1CEA11541DBF1CEA135594EA0C0F30
:1006300095EA0C0F00F0DEF82C4481EA030621EA6B
:100640004C5123EA4C5350EA013518BF52EA0335A6
:1006500041F4801143F4801338D0A0FB02CE4FF058
:100660000005E1FB02E506F00042E0FB03E54FF088
:100670000006E1FB03569CF0000F18BF4EF0010E80
:10068000A4F1FF04B6F5007F64F5407404D25FEA7C
:100690004E0E6D4146EB060642EAC62141EA55512F
:1006A0004FEAC52040EA5E504FEACE2EB4F1FD0C71
:1006B00088BFBCF5E06F1ED8BEF1004F08BF5FEAEF
:1006C000500E50F1000041EB045170BD06F00046A1
:1006D00046EA010140EA020081EA0301B4EB5C044E
:1006E000C2BFD4EB0C0541EA045170BD41F4801146
:1006F0004FF0000E013C00F3AB8014F1360FDEBF6B
:10070000002001F0004170BDC4F10004203C35DA46
:100710000C341BDC04F11404C4F1200500FA05F3C9
:1007200020FA04F001FA05F240EA020001F000426A
:1007300021F0004110EBD37021FA04F642EB0601E0
:100740005EEA430E08BF20EAD37070BDC4F10C040A
:10075000C4F1200500FA04F320FA05F001FA04F2CE
:1007600040EA020001F0004110EBD37041F10001BA
:100770005EEA430E08BF20EAD37070BDC4F12005C5
:1007800000FA05F24EEA020E20FA04F301FA05F22D
:1007900043EA020321FA04F001F0004121FA04F2D5
:1007A00020EA020000EBD3705EEA430E08BF20EAA5
:1007B000D37070BD94F0000F0FD101F000464000DF
:1007C00041EB010111F4801F08BF013CF7D041EA61
:1007D000060195F0000F18BF704703F00046520065
:1007E00043EB030313F4801F08BF013DF7D043EA36
:1007F0000603704794EA0C0F0CEA135518BF95EAEC
:100800000C0F0CD050EA410618BF52EA4306D1D172
:1008100081EA030101F000414FF0000070BD50EA91
:10082000410606BF1046194652EA430619D094EA1B
:100830000C0F02D150EA013613D195EA0C0F05D105
:1008400052EA03361CBF104619460AD181EA030159
:1008500001F0004141F0FE4141F470014FF0000011
:1008600070BD41F0FE4141F4780170BD70B54FF0AC
:10087000FF0C4CF4E06C1CEA11541DBF1CEA13552C
:1008800094EA0C0F95EA0C0F00F0A7F8A4EB05040E
:1008900081EA030E52EA03354FEA013100F0888005
:1008A0004FEA03334FF0805545EA131343EA1263CE
:1008B0004FEA022245EA111545EA10654FEA002683
:1008C0000EF000419D4208BF964244F1FD0404F53C
:1008D000407402D25B084FEA3202B61A65EB030598
:1008E0005B084FEA32024FF480104FF4002CB6EB55
:1008F000020E75EB030E22BFB61A754640EA0C00D5
:100900005B084FEA3202B6EB020E75EB030E22BF14
:10091000B61A754640EA5C005B084FEA3202B6EB55
:10092000020E75EB030E22BFB61A754640EA9C0014
:100930005B084FEA3202B6EB020E75EB030E22BFE4
:10094000B61A754640EADC0055EA060E18D04FEAA2
:10095000051545EA16754FEA06164FEAC30343EA42
:1009600052734FEAC2025FEA1C1CC0D111F4801F0F
:100970000BD141EA00014FF000004FF0004CB6E708
:1009800011F4801F04BF01430020B4F1FD0C88BFA7
:10099000BCF5E06F3FF6AFAEB5EB030C04BFB6EBB2
:1009A000020C5FEA500C50F1000041EB045170BDA5
:1009B0000EF0004E4EEA113114EB5C04C2BFD4EBD2
:1009C0000C0541EA045170BD41F480114FF0000E56
:1009D000013C90E645EA060E8DE60CEA135594EAD2
:1009E0000C0F08BF95EA0C0F3FF43BAF94EA0C0FD5
:1009F0000AD150EA01347FF434AF95EA0C0F7FF44A
:100A000025AF104619462CE795EA0C0F06D152EA9D
:100A100003353FF4FDAE1046194622E750EA410681
:100A200018BF52EA43067FF4C5AE50EA41047FF492
:100A30000DAF52EA43057FF4EBAE12E74FF0FF3CF7
:100A400006E000BF4FF0010C02E000BF4FF0010CC8
:100A50004DF804CD4FEA410C7FEA6C5C4FEA430C41
:100A600018BF7FEA6C5C1BD001B050EA410C0CBF90
:100A700052EA430C91EA030F02BF90EA020F0020F2
:100A8000704710F1000F91EA030F58BF994208BF59
:100A900090422CBFD8176FEAE37040F00100704716
:100AA0004FEA410C7FEA6C5C02D150EA013C07D16D
:100AB0004FEA430C7FEA6C5CD6D152EA033CD3D0B8
:100AC0005DF8040B704700BF8446104662468C46B2
:100AD0001946634600E000BF01B5FFF7B7FF0028E5
:100AE00048BF10F1000F01BD4DF808EDFFF7F4FF0E
:100AF0000CBF012000205DF808FB00BF4DF808ED99
:100B0000FFF7EAFF34BF012000205DF808FB00BFBB
:100B10004DF808EDFFF7E0FF94BF012000205DF8DD
:100B200008FB00BF4DF808EDFFF7CEFF94BF012092
:100B300000205DF808FB00BF4DF808EDFFF7C4FF8B
:100B400034BF012000205DF808FB00BF4FEA410CD4
:100B50007FEA6C5C02D150EA013C0AD14FEA430CB7
:100B60007FEA6C5C02D152EA033C02D14FF00000F4
:100B700070474FF0010070474FEA410212F5001232
:100B800015D211D56FF47873B3EB625212D94FEAD4
:100B9000C12343F0004343EA505311F0004F23FABE
:100BA00002F018BF404270474FF00000704750EA13
:100BB000013005D111F0004008BF6FF000407047D0
:100BC0004FF00000704700BF4FEA4102B2F1E0432E
:100BD00024BFB3F5001CDCF1FE5C0DD901F0004C24
:100BE0004FEAC0024CEA5070B2F1004F40EB830074
:100BF00008BF20F00100704711F0804F21D113F1A0
:100C00003872BCBF01F00040704741F480114FEAD8
:100C10005252C2F11802C2F1200C10FA0CF320FA61
:100C200002F018BF40F001004FEAC1234FEAD3237E
:100C300003FA0CFC40EA0C0023FA02F34FEA4303E8
:100C4000CCE77FEA625307D150EA01331EBF4FF071
:100C5000FE4040F44000704701F0004040F0FE408C
:100C600040F40000704700BF80F0004002E000BF89
:100C700081F0004142001FBF5FEA410392EA030F87
:100C80007FEA226C7FEA236C6AD04FEA1262D2EBD1
:100C90001363C1BFD218414048404140B8BF5B42D6
:100CA000192B88BF704710F0004F40F4000020F06F
:100CB0007F4018BF404211F0004F41F4000121F085
:100CC0007F4118BF494292EA030F3FD0A2F10102CF
:100CD00041FA03FC10EB0C00C3F1200301FA03F10D
:100CE00000F0004302D5494260EB4000B0F5000F30
:100CF00013D3B0F1807F06D340084FEA310102F1EF
:100D00000102FE2A51D2B1F1004F40EBC25008BFA0
:100D100020F0010040EA03007047490040EB00006A
:100D2000013A28BFB0F5000FEDD2B0FA80FCACF16B
:100D3000080CB2EB0C0200FA0CF0AABF00EBC25098
:100D400052421843BCBFD0401843704792F0000F86
:100D500081F4000106BF80F400000132013BB5E7D9
:100D60004FEA41037FEA226C18BF7FEA236C21D04F
:100D700092EA030F04D092F0000F08BF08467047B4
:100D800090EA010F1CBF0020704712F07F4F04D182
:100D9000400028BF40F00040704712F100723CBF95
:100DA00000F50000704700F0004343F0FE4040F4BF
:100DB000000070477FEA226216BF08467FEA23637D
:100DC0000146420206BF5FEA412390EA010F40F468
:100DD000800070474FF0000304E000BF10F00043B4
:100DE00048BF40425FEA000C08BF704743F096439B
:100DF00001464FF000001CE050EA010208BF7047B6
:100E00004FF000030AE000BF50EA010208BF70473C
:100E100011F0004302D5404261EB41015FEA010C51
:100E200002BF84460146002043F0B64308BFA3F149
:100E30008053A3F50003BCFA8CF2083AA3EBC2532B
:100E400010DB01FA02FC634400FA02FCC2F120024A
:100E5000BCF1004F20FA02F243EB020008BF20F081
:100E60000100704702F1200201FA02FCC2F12002E7
:100E700050EA4C0021FA02F243EB020008BF20EADC
:100E8000DC70704753B94AB9002908BF00281CBF5D
:100E90004FF0FF314FF0FF3000F088B9ADF1080C92
:100EA0006DE904CE00F006F8DDF804E0DDE9022388
:100EB00004B070472DE9F047089D0F4604468C4664
:100EC000002B48D18A42164661D9B2FA82F34BB15F
:100ED000C3F1200201FA03FC20FA02F29E4042EA2A
:100EE0000C0C9C404FEA164EB7B2BCFBFEF1220C34
:100EF0000EFB11CC42EA0C4201FB07F0904209D9EB
:100F0000B21801F1FF3C80F0EE80904240F2EB809D
:100F100002393244121AA4B2B2FBFEF00EFB1022C8
:100F200044EA024400FB07F7A74209D9341900F14B
:100F3000FF3280F0DA80A74240F2D7803444023892
:100F400040EA0140E41B00211DB1DC400023C5E95B
:100F50000043BDE8F0878B4206D90DB1C5E9000119
:100F600000210846BDE8F087B3FA83F1002948D193
:100F7000BB4202D3824200F20781841A67EB03026C
:100F800001209446002DE4D0C5E9004CE1E7002A99
:100F900000F09280B2FA82F3002B40F0A8808A1A07
:100FA0004FEA164E1FFA86FC0121200CB2FBFEF719
:100FB0000EFB172240EA02420CFB07F0904207D9D1
:100FC000B21807F1FF3802D2904200F2E2804746A1
:100FD000121AA4B2B2FBFEF00EFB102244EA024445
:100FE0000CFB00FCA44507D9341900F1FF3202D2F2
:100FF000A44500F2CB801046A4EB0C0440EA074065
:10100000A2E7C1F120068B4022FA06FC4CEA030C51
:1010100007FA01F420FA06F3F7404FEA1C4923438C
:1010200000FA01F81FFA8CFEB7FBF9F01C0C09FB63
:10103000107744EA074400FB0EF7A74202FA01F2D8
:101040000AD91CEB040400F1FF3A80F09B80A74210
:1010500040F2988002386444E41B9FB2B4FBF9F379
:1010600009FB134447EA044403FB0EFEA64509D9D5
:101070001CEB040403F1FF3780F08280A6457FD982
:10108000023B644443EA0040A4EB0E04A0FB02E7E9
:10109000BC427346B94663D360D05DB1B8EB03027E
:1010A00064EB090404FA06F622FA01F31E43CC406D
:1010B000C5E9006400214CE76208480842EAC171B2
:1010C0000B0C43EA00438AB242EA0342B3FBF6F157
:1010D000E407B4463746B6461F23B0FBF6F0D21BF2
:1010E00041EA004161E7614614E7104628E7C3F191
:1010F000200120FA01F29E4027FA01F19F403A4375
:101100004FEA164E1FFA86FCB1FBFEF70EFB1710D6
:10111000110C41EA004107FB0CF8884504FA03F47E
:101120003AD9711807F1FF3001D288451FD8A1EBD9
:101130000801B1FBFEF808FB0CF70EFB181192B288
:1011400042EA0142BA422FD2B21808F1FF31C6D2A8
:10115000BA42C4D2A8F102013244C0E7F0459CD2A1
:10116000BEEB020367EB0C070138B94695E7A6EB27
:1011700008084144B81EB1FBFEF808FB0CF7DCE799
:101180003B467FE7504667E70846FBE634440238B3
:1011900032E7023F32441BE7A1EB08013846B1FBBE
:1011A000FEF808FB0CF7C8E7414698E7704700BF18
:1011B00080B485B000AFF860B9607A60FB68074A18
:1011C0001A60BB68064A1A607B6880221A6000BFFA
:1011D0001437BD465DF8047B704700BF1C02002039
:1011E0007002002080B586B004AF78600B46FB70BB
:1011F0001346BB707B68002B03D07B681B68002BF9
:1012000001D1002313E07B681868FB789AB20323AE
:10121000029301230193BB1C00930123D02107F00B
:10122000A3FF0346002B0CBF01230023DBB21846AB
:101230000837BD4680BD80B588B004AFF8607A60DD
:101240001A460B46FB7213463B81FB68002B09D004
:10125000FB681B68002B05D07B68002B02D03B8904
:10126000002B01D1002313E0FB681868FB7A9AB2C7
:10127000032302933B8901937B6800930123D021D0
:1012800008F06CF80346002B0CBF01230023DBB2EF
:1012900018461037BD4680BD80B582B000AF78607B
:1012A0000B46FB70FB781B01DBB21A467F21786886
:1012B000FFF798FF034618460837BD4680BD80B546
:1012C00084B000AF786039603B68002B0CD007F128
:1012D0000C02022337217868FFF7ADFF034683F045
:1012E0000103DBB2002B01D000230AE03B7B1BB2E1
:1012F0001B021AB27B7B1BB213431AB23B681A80E3
:10130000012318461037BD4680BD80B584B000AFBC
:10131000786039600023FB737B68002B02D03B6848
:10132000002B01D100238FE07B683A681A607B684C
:101330004FF000025A6000217868FFF7ADFF0346C6
:1013400083F00103DBB2002B0AD1802206217868EA
:10135000FFF748FF034683F00103DBB2002B01D007
:10136000002371E064200BF0D8FF00217868FFF7BC
:1013700093FF034683F00103DBB2002B0FD107F18B
:101380000F02012300217868FFF755FF034683F021
:101390000103DBB2002B02D1FB7BEA2B01D000233F
:1013A00052E0012206217868FFF71CFF034683F014
:1013B0000103DBB2002B15D1002207217868FFF76B
:1013C00011FF034683F00103DBB2002B0AD1002298
:1013D00005217868FFF706FF034683F00103DBB2BF
:1013E000002B01D000232FE002217868FFF754FF83
:1013F000034683F00103DBB2002B1FD11122002131
:101400007868FFF7EFFE034683F00103DBB2002BA1
:1014100014D12F2201217868FFF7E4FE034683F000
:101420000103DBB2002B09D100217868FFF734FFFC
:10143000034683F00103DBB2002B01D0002303E05D
:1014400014200BF06AFF012318461037BD4680BDFB
:1014500080B582B000AF786039607B68002B02D025
:101460003B68002B01D1002312E0386807F04CFEE6
:1014700005200BF052FF386807F002FD0346002BF1
:1014800001D0002304E039687868FFF73EFF034687
:1014900018460837BD4680BD2DE9B04388B000AF7F
:1014A000F8600B467A607B814FF000024FF000033A
:1014B000C7E90623FB68002B02D07B89002B01D1F2
:1014C000002339E00023FB8221E078680BF025FF40
:1014D00007F114031946F868FFF7F1FE034683F09D
:1014E0000103DBB2002B01D0002325E0B7F9143053
:1014F0001BB2DA171C461546D7E9062312EB04087F
:1015000043EB0509C7E90689FB8A0133FB82FA8AA6
:101510007B899A42D9D3D7E90601FFF775FC06EE1D
:10152000900A7B8907EE903AB8EE677AC6EE877A22
:10153000FB68C3ED017A012318462037BD46BDE89C
:10154000B083000080B586B000AFF86087ED020A76
:1015500079607B68002B0BD007F116031946F868F9
:10156000FFF7ADFE034683F00103DBB2002B01D091
:10157000002316E0B7F9163007EE903AB8EEE77A96
:10158000FB68D3ED017A77EE677ADFED086A87EEC4
:10159000A67AD7ED027A67EE277A7B68C3ED007AE8
:1015A000012318461837BD4680BD00BF3333834141
:1015B00080B400AF074B1B78DAB2074B1B78DBB265
:1015C0009A420CBF01230023DBB21846BD465DF8EA
:1015D000047B7047FC0A0020FD0A002080B485B01F
:1015E00000AF3B4683E80300124B1B78DBB20133AC
:1015F000DBB203F01F03FB730F4B1B78DBB2FA7BEC
:101600009A4201D100230EE00A4B1B78DBB20B4A51
:10161000DB0013443A4692E8030083E80300054ADE
:10162000FB7B1370012318461437BD465DF8047B1D
:10163000704700BFFD0A0020FC0A0020FC090020C2
:1016400090B583B000AF7860FFF7B2FF0346002B80
:1016500001D0002316E00D4B1B78DBB279680C4AF1
:101660000C46DB00134493E8030084E80300074BB7
:101670001B78DBB20133DBB203F01F03DAB2034B9A
:101680001A70012318460C37BD4690BDFC0A002095
:10169000FC09002080B400AF72B600BF0021064BE9
:1016A0000A461A70054B0A461A7062B600BF00BFA0
:1016B000BD465DF8047B7047FD0A0020FC0A00204F
:1016C00080B483B000AF78607B681B68054A9342A2
:1016D00002D1054B00221A7000BF0C37BD465DF8E1
:1016E000047B704700480040FE0A002080B500AF30
:1016F000084B1B78DBB2002B0AD1064B01221A7073
:101700000322054905480AF0E0FDFFF7C3FF00E0AA
:1017100000BF80BDFE0A0020F023010864070020FE
:1017200080B485B000AF78600E4B5B68FB600E4BF9
:101730001B680E4AA2FB03239A0C7B6802FB03F38F
:10174000BB6000E000BF074B5A68FB68D31ABA6859
:101750009A42F7D800BF00BF1437BD465DF8047B3E
:10176000704700BF001000E02400002083DE1B4310
:1017700080B400AF084BDB68074A43F08073D36046
:10178000064B1B68054A43F00103136000BFBD46CA
:101790005DF8047B704700BFF0ED00E0001000E052
:1017A00080B400AF0C4B1B6841F61F42DA630A4B52
:1017B0001B6841F61F421A64084B1B6841F61F4222
:1017C0005A63064B1B6841F61F429A6300BFBD4631
:1017D0005DF8047B704700BFFC0500208C060020EC
:1017E00080B483B000AF7860074B1B687A68DA6317
:1017F000054B1B6841F61F421A6400BF0C37BD46FB
:101800005DF8047B704700BFFC05002080B483B006
:1018100000AF7860074B1B687A685A63054B1B68FA
:1018200041F61F429A6300BF0C37BD465DF8047B4A
:10183000704700BF8C06002080B483B000AF786092
:10184000074B1B6841F61F42DA63054B1B687A6839
:101850001A6400BF0C37BD465DF8047B704700BFBB
:10186000FC05002080B483B000AF7860074B1B6894
:1018700041F61F425A63054B1B687A689A6300BFA2
:101880000C37BD465DF8047B704700BF8C06002016
:1018900080B400AF044B1A88044B1B689A6300BFE6
:1018A000BD465DF8047B704720000020D406002070
:1018B00080B400AF044B1B68F0229A6300BFBD46A2
:1018C0005DF8047B704700BFD406002080B400AFF1
:1018D000044B1B68F0229A6300BFBD465DF8047B91
:1018E000704700BFD406002080B400AF044B1B68D3
:1018F0006E229A6300BFBD465DF8047B704700BF4F
:10190000D406002080B400AF044B1B686E229A639B
:1019100000BFBD465DF8047B704700BFD4060020C1
:1019200080B400AF064BA4221A80054B1A88054BE1
:101930001B689A6300BFBD465DF8047B704700BF1B
:1019400020000020D406002080B400AF064B972270
:101950001A80054B1A88054B1B689A6300BFBD4669
:101960005DF8047B704700BF20000020D4060020F3
:1019700080B483B000AF78607B68002B01DA00236D
:1019800007E07B68B3F5E15F02DB41F61F4300E04F
:101990007B6818460C37BD465DF8047B704780B401
:1019A00083B000AF78607B68042B08D07B68052B80
:1019B00005D07B68062B02D07B68072B01D1012361
:1019C00000E0002303F00103DBB218460C37BD46EC
:1019D0005DF8047B704780B483B000AF78607B68AB
:1019E000062B02D07B68072B01D1012300E00023E6
:1019F00003F00103DBB218460C37BD465DF8047BEB
:101A0000704780B483B000AF78607B68042B02D04D
:101A10007B68062B01D1012300E0002303F00103C2
:101A2000DBB218460C37BD465DF8047B70470000FA
:101A300080B483B000AF78607B68052B02D07B68F0
:101A4000062B02D14FF07E5300E0054B07EE903A93
:101A5000B0EE670A0C37BD465DF8047B704700BFE7
:101A6000000080BF80B582B000AF78607B68042B37
:101A700002D1FFF71DFF10E07B68052B02D1FFF7B5
:101A800033FF0AE07B68062B02D1FFF71FFF04E05B
:101A90007B68072B01D1FFF735FF00BF0837BD4634
:101AA00080BD80B582B000AF78607868FFF7A9FF8D
:101AB0000346002B02D0FFF747FF01E0FFF730FF9E
:101AC00000BF0837BD4680BD80B500AF1E4B4FF04C
:101AD00000021A6005F0A0FD03461C4A13601C4B6F
:101AE00000221A601B4BD3ED007A9FED1B7A67EE44
:101AF000877AFCEEE77A17EE902A144B1B681344A2
:101B000003F2DC53154A1360154B01221A70154B72
:101B100093ED007A144BD3ED007A77EE677A134B8E
:101B2000C3ED007A124B4FF000021A60114B41F6E0
:101B30001F421A60104B41F61F421A600F4B0122E0
:101B40001A7000BF80BD00BF340B0020380B00208E
:101B50003C0B0020000000200000A042400B0020B1
:101B6000440B0020080B00200C0B00202C0B002045
:101B7000300B00200400002008000020280B00206B
:101B800080B400AF114B4FF000021A60104B0022DE
:101B90001A60104B00221A600F4B00221A600F4B84
:101BA00000221A700E4B4FF000021A600D4B41F6E6
:101BB0001F421A600C4B41F61F421A600B4B002269
:101BC0001A7000BFBD465DF8047B7047340B0020DF
:101BD000380B00203C0B0020400B0020440B002061
:101BE000300B00200400002008000020280B0020FB
:101BF00080B584B000AF87ED010AD7ED017AB6EE6B
:101C0000007A77EE877AFDEEE77A17EE903AC3F521
:101C1000E0531F33FB60F868FFF7AAFE034618463F
:101C20001037BD4680BD000080B586B000AFF860BB
:101C3000B9607A60F868FFF7E4FE0346002B04D031
:101C4000BB687B617B683B6103E07B687B61BB6851
:101C50003B617869FFF78CFE78613869FFF788FE91
:101C600038610E4A7B6913600D4A3B691360F8685E
:101C7000FFF7B1FE0346002B06D07869FFF7DCFDC5
:101C80003869FFF7EFFD05E07869FFF7A9FD3869CE
:101C9000FFF7BCFD00BF1837BD4680BD0400002023
:101CA0000800002080B584B000AF7860FFF778FDB1
:101CB0007868FFF7F6FEFFF763FF2A4B1B682A4A96
:101CC00013602A4B1B78DBB2002B3DD0284B1B68DE
:101CD0005B6A9AB2274B1A80274B1B685B6A9AB2E1
:101CE000264B1A80214B1B78DBB207EE903AF8EEB8
:101CF000E77A9FED237A67EE877AB6EE007A77EE81
:101D0000877AFDEEE77A17EE903AFB601D4B0022D2
:101D10001A701D4B01221A707868FFF75CFE0346AB
:101D2000002B07D0FB685B42184A1360184B022255
:101D30001A7005E0154AFB681360154B01221A70F2
:101D40000A4B00221A7009E0114B00221A7005F0AC
:101D500063FC034603F5FA730E4A136000BF1037A5
:101D6000BD4680BD0C0B0020100B00204C0B00204A
:101D70006C050020000B0020B4050020020B0020A1
:101D8000896D9342660B0020780B0020040B002025
:101D9000EE070020F809002080B584B000AF78601D
:101DA0007868FEF775FAB860BB685F2B21D800230E
:101DB000FB600BE07A68FB68134419780F4AFB68F4
:101DC00013440A461A70FB680133FB60FA68BB686B
:101DD0009A42EFD907220A4978680DF0DDFA0346E6
:101DE000002B02D1074B01221A70074B01221A70F7
:101DF00000E000BF1037BD4680BD00BFC40B00200F
:101E0000401F0108C00B0020C10B002080B582B02C
:101E100000AF78607B68044A502104480DF03AFA1C
:101E200000BF0837BD4680BD481F0108300C0020A8
:101E300080B500AF154B1B78002B24D0144B1B78BA
:101E4000DBB2002B1FD1134A104B1046194650230A
:101E50001A460DF0A4FB0E4B01221A700D48FEF736
:101E600017FA03469BB21A460A490B480AF02DFAA4
:101E70000346002B03D1054B00221A7004E0044BEB
:101E800000221A7000E000BF80BD00BF300C0020AF
:101E9000FE0A0020800C00206407002080B500AFFF
:101EA0000A4B1B68002B02DDFFF74EFD08E0074BD5
:101EB0001B68002B02DAFFF733FD01E0FFF7E8FCB7
:101EC000024B00221A6000BF80BD00BF280C00201A
:101ED00080B582B000AFEFF310833B603B687B605E
:101EE00072B600BF114B00221A70114B00221A70FB
:101EF0007B68002B01D162B600BF0E4B1B78002B14
:101F000001D0FFF7CBFF0B4804F074F80A4B002216
:101F10001A700A4B00221A60094B00221A70094BF2
:101F200001221A7000BF0837BD4680BDC10B0020DA
:101F3000C00B00209C0B0020240C00202C0C002047
:101F4000300C0020780B002080B584B000AF7860A2
:101F500039602A4B1B78DBB2FB60FFF721FCF86885
:101F6000FFF71DFD0346002B03D0F868FFF799FD2E
:101F700001E0FFF793FFFFF78DFBFFF701FE204B1A
:101F800000221A701F4B00221A701F4B00221A7079
:101F90001E4B00221A601E4B1B681E4A13601E4B0C
:101FA00000221A701D4B00221A601D4B00221A607D
:101FB0001C4B00221A601C4B4FF000021A601B4B96
:101FC00000221A601A4B4FF000021A60194B0122CE
:101FD0001A703A687968184804F019F8174B01220A
:101FE0001A70174B00221A70164B00221A60034B0E
:101FF00008221A7000BF1037BD4680BDEE070020D2
:10200000660B0020790B00207A0B0020040B0020C7
:102010000C0B0020100B00204C0B0020480B002064
:10202000F8090020680B00206C0B0020700B0020CA
:10203000740B0020780B00209C0B0020C00B0020AC
:10204000240C00202C0C002090B589B000AF3C4639
:1020500084E80F007B68002B02D1FFF71FFF2AE006
:102060003A4B5B69DB0FDBB2FB617B68002B01DD68
:10207000F02300E06E23BB617B68002BB8BF5B429E
:102080007B61334B1B881946314B1B881A46BB6951
:102090009B1A7A6902FB03F32E4A82FB0302521158
:1020A000DB17D31A0B443B612B4B1B683A699A63CD
:1020B0007B682A4A13603B68002B01D0012200E0B4
:1020C0000022274B1A703B68002B1ADDBB6807EE15
:1020D000903AF8EEE77AB0EE670AFFF789FD03461B
:1020E0001846FFF77DFBFB6807EE903AF8EEE77ABB
:1020F000B0EE670AFFF77CFD03461846FFF786FB44
:102100001FE03B68002B1ADABB6807EE903AF8EE46
:10211000E77AB0EE670AFFF76BFD03461846FFF754
:102120008BFBFB6807EE903AF8EEE77AB0EE670AB1
:10213000FFF75EFD03461846FFF794FB01E0FFF74B
:102140002FFB00BF2437BD4690BD00BF9C0B002075
:10215000200000201F85EB51D4060020280C002011
:10216000240C002090B5C9B002AF002387F81731C6
:1021700005F052FAC7F80C01EFF31083C7F8F030FE
:10218000D7F8F030C7F8083172B600BF944B1B780F
:10219000DBB2002B1FD00023C7F8103111E0914AA9
:1021A000D7F8103113441B78D9B207F17C02D7F865
:1021B000103113440A461A70D7F810310133C7F8AA
:1021C0001031D7F810315F2BE9D9854B00221A70F6
:1021D000012387F81731D7F80831002B01D162B6F7
:1021E00000BFD7F80C11804803F02AFF0346002BEC
:1021F0000CD07D4B5B6807F12C007C4A50210DF020
:1022000049F807F12C031846FFF700FE97F817313D
:10221000002B4CD03A4607F17C031146184603F0D8
:1022200009FE0346002B42D007F58C73A3F58C738F
:102230001B78002B1AD107F58C73A3F58C735B68A0
:10224000D7F80C111846FFF77FFE07F58C73A3F53E
:102250008C735B6807F12C00654A50210DF01AF869
:1022600007F12C031846FFF7D1FD20E03B46D7F8D5
:102270000C2119465C4803F00DFF0346002B16D0D5
:1022800007F58C73A3F58C735A6807F58C73A3F567
:102290008C739B6807F12C0000931346554A50211C
:1022A0000CF0F8FF07F12C031846FFF7AFFD4E4B7B
:1022B0001B7883F00103DBB2002B1BD0EFF31083FC
:1022C000C7F8EC30D7F8EC30C7F8F43072B600BF7E
:1022D000434B1B78DBB2002B02D1474B00221A7014
:1022E000D7F8F430002B01D162B600BFFFF7A0FD94
:1022F00000236FE03C4B07F11C0414330FCB84E840
:102300000F003B6A002BCCBF01230023DBB21A462F
:102310003B6ADB0FDBB2D31AC7F80431FB69002B31
:102320000AD0FB69002B01DD012200E00422D7F86E
:1023300004310133134400E00023C7F80031D7F81B
:102340000031002B32D02D4B1B68D7F800219A4268
:102350002CD0FB69002B0DDDD7F80431002B07DBF7
:10236000D7F80431002B01DD254B10E0254B0EE0A2
:10237000254B0CE0D7F80431002B07DBD7F80431EC
:10238000002B01DD214B02E0214B00E0214BC7F87F
:10239000FC30BA6A7B6A9342B8BF1346C7F8F8307C
:1023A000D7F8F810D7F8FC0004F01CFC134AD7F853
:1023B0000031136007F1DC03D7F80C210A491846F5
:1023C00003F0EEFE07F1DC030FCBFFF73DFEFFF756
:1023D0002FFD0123184607F58E77BD4690BD00BF3F
:1023E000C10B0020C40B00209C0B00204C1F0108D7
:1023F000641F0108741F0108C00B00202C0C002072
:10240000841F01088C1F0108941F01089C1F0108EC
:10241000A41F0108AC1F010880B400AF184B1B7843
:10242000DBB2082B26D801A252F823F05124000871
:1024300055240008592400085D2400086124000880
:1024400065240008692400086D2400087124000830
:102450000C4B10E00C4B0EE00C4B0CE00C4B0AE06C
:102460000C4B08E00C4B06E00C4B04E00C4B02E07C
:102470000C4B00E00C4B1846BD465DF8047B7047E2
:10248000EE070020B41F0108BC1F0108C41F01088B
:10249000CC1F0108D41F0108E01F0108EC1F010830
:1024A000F41F0108FC1F01080420010880B58CB04E
:1024B00000AF78607B68FB6209E0FB6A1B782C2B1D
:1024C00002D1FB6A20221A70FB6A0133FB62FB6AAD
:1024D0001B78002BF1D18F4978680CF083FFB8622C
:1024E00005E18D49B86AFDF773FE0346002B03D161
:1024F0008A4B01221A70FEE000233B750023BB616A
:102500008749B86AFDF764FE0346002B04D10B230C
:102510003B750023BB61D1E08249B86AFDF758FEE4
:102520000346002B04D10C233B750023BB61C5E09F
:102530007D49B86AFDF74CFE0346002B04D10D23FC
:102540003B750023BB61B9E07849B86AFDF740FEEE
:102550000346002B04D10E233B750023BB61ADE085
:102560007349B86AFDF734FE0346002B04D10723F4
:102570003B750023BB61A1E06E49B86AFDF728FEF8
:102580000346002B04D108233B750023BB6195E073
:10259000BB6A1B78662B0ED1BB6A01331B78782B84
:1025A00009D110233B75BB6A023318460CF0CAF8F8
:1025B0000346BB6182E0BB6A1B78662B0ED1BB6A07
:1025C00001331B78752B09D10F233B75BB6A02338E
:1025D00018460CF0B7F80346BB616FE0BB6A1B7886
:1025E000662B0ED1BB6A01331B78722B09D10323F2
:1025F0003B75BB6A023318460CF0A4F80346BB6176
:102600005CE0BB6A1B78662B0ED1BB6A01331B787A
:102610006C2B09D104233B75BB6A023318460CF0BE
:1026200091F80346BB6149E0BB6A1B78722B0ED15F
:10263000BB6A01331B78722B09D105233B75BB6A3A
:10264000023318460CF07EF80346BB6136E0BB6AE5
:102650001B78722B0ED1BB6A01331B786C2B09D10E
:1026600006233B75BB6A023318460CF06BF8034631
:10267000BB6123E0BB6A1B78662B09D101233B7544
:10268000BB6A013318460CF05DF80346BB6115E0E8
:10269000BB6A1B78722B09D102233B75BB6A0133DD
:1026A00018460CF04FF80346BB6107E0BB6A1B7885
:1026B000732B03D109233B750023BB613B7D002BAA
:1026C00010D007F1140393E80300FEF787FF786248
:1026D0007B6A002B06D1184A07F1080307CA83E872
:1026E000070008E00B4900200CF07CFEB862BB6AD2
:1026F000002B7FF4F6AE0A233B7700233B6207F101
:102700001C0393E80300FEF769FF00BF3037BD46A6
:1027100080BD00BF082001080C200108EC07002044
:1027200010200108142001081820010820200108A9
:10273000282001082C2001083020010880B483B033
:1027400000AF0346FB71FB79013B0F2B40D801A280
:1027500052F823F095270008992700089D270008C4
:10276000A1270008A5270008A9270008AD27000811
:10277000B1270008B5270008D1270008B9270008AD
:10278000BD270008C1270008C5270008C927000881
:10279000CD270008124B1CE0124B1AE0124B18E038
:1027A000124B16E0124B14E0124B12E0124B10E0E9
:1027B000124B0EE0124B0CE0124B0AE0124B08E0F9
:1027C000124B06E0124B04E0124B02E0124B00E009
:1027D000002318460C37BD465DF8047B704700BFE8
:1027E0003C200108442001084C2001085420010825
:1027F000EC1F0108F41F01085C2001086420010897
:10280000CC1F01086C200108702001087420010809
:102810007C200108842001088820010880B588B048
:1028200000AF3B1D1846FEF70BFF0346002B01D1FE
:1028300000234CE33B791846FFF780FFF861FB6902
:10284000002B04D0BB681946F86904F0CBF93B793A
:10285000013B0F2B00F2398301A252F823F000BF95
:10286000552A0008E72A0008992B0008F92B0008D0
:10287000592C0008B92C0008372D0008292E000813
:10288000192D00082F2D0008B5290008052A000879
:102890001529000865290008A1280008A1280008BA
:1028A000934B1B685B6A9AB2924B1A80924B1B68DF
:1028B0005B6A9AB2914B1A80914B1B68914A1360E4
:1028C000FEF7E6FF904B00221A60904B4FF000029B
:1028D0001A608F4B6FF000421A60BB68002B02DD5C
:1028E000BB689BB200E01A238A4A13803B790F2B06
:1028F0000CBF01230023DBB21A46874B1A70874BAB
:1029000007221A70864B01221A70864B01221A7018
:102910000123DCE2764B1B685B6A9AB2754B1A8026
:10292000754B1B685B6A9AB2744B1A80744B1B68B8
:10293000744A1360FEF7ACFF734B00221A60734BAE
:102940004FF000021A60724B6FF000421A60734B36
:1029500005221A70724B01221A70724B01221A70F2
:102960000123B4E2624B1B685B6A9AB2614B1A8026
:10297000614B1B685B6A9AB2604B1A80604B1B68A4
:10298000604A1360FEF784FF5F4B00221A605F4BC2
:102990004FF000021A605E4B6FF000421A605F4B0E
:1029A00006221A705E4B01221A705E4B01221A70C9
:1029B00001238CE24E4B1B685B6A9AB24D4B1A8026
:1029C0004D4B1B685B6A9AB24C4B1A804C4B1B6890
:1029D0004C4A1360FEF75CFF534B00221A60534BC6
:1029E0004FF000021A604A4B6FF000421A604B4BE6
:1029F00002221A704A4B01221A704A4B01221A70A5
:102A0000012364E23A4B1B685B6A9AB2394B1A8025
:102A1000394B1B685B6A9AB2384B1A80384B1B687B
:102A2000384A1360FEF734FF3F4B00221A603F4BD9
:102A30004FF000021A60364B6FF000421A60374BBD
:102A400003221A70364B01221A70364B01221A707B
:102A500001233CE2BB683B61254B1B685B6A9AB271
:102A6000244B1A80244B1B685B6A9AB2234B1A8052
:102A7000234B1B68234A1360FEF70AFF3B69002BB8
:102A80001BDD3B6907EE903AF8EEE77A9FED287A76
:102A900067EE877AB6EE007A77EE877AFDEEE77A10
:102AA00017EE903AFB601A4AFB6813601B4B00223A
:102AB0001A701B4B01221A7010E0184B01221A7079
:102AC000134B6FF000421A600F4B00221A600F4B3D
:102AD0004FF000021A60124B01221A70114B0122B2
:102AE0001A700123F3E1BB68002B23DDBB6822E0F1
:102AF0006C050020000B0020B4050020020B002014
:102B00000C0B0020100B0020680B00206C0B002029
:102B1000040B00201C0000201E000020660B00207B
:102B2000EE070020780B0020700B0020740B0020B3
:102B3000896D93423223BB61A74B1B685B6A9AB2D3
:102B4000A64B1A80A64B1B685B6A9AB2A54B1A80EB
:102B5000BB6907EE903AF8EEE77A9FEDA37A67EE4D
:102B6000877AB6EE007A77EE877AFDEEE77A17EE8F
:102B7000903A5B427B619D4A7B6913609C4B1B686A
:102B80009C4A1360FEF784FE9B4B02221A709B4BFB
:102B900001221A7001239AE1BB68002B05DBBB6898
:102BA00007EE903AF8EEE77A06E0BB6807EE903A57
:102BB000F8EEE77AF1EE677A914BC3ED007A8C4B31
:102BC00093ED007A8E4BD3ED007A77EE677A8D4BDA
:102BD000C3ED007AFEF76CFE04F01EFD034664337D
:102BE000894A1360894B00221A70834B04221A70A1
:102BF000FEF76AFF01236AE1BB68002B05DBBB68B7
:102C000007EE903AF8EEE77A06E0BB6807EE903AF6
:102C1000F8EEE77AF1EE677A794BC3ED007A744B00
:102C200093ED007A764BD3ED007A77EE277A754BE9
:102C3000C3ED007AFEF758FE04F0EEFC0346643361
:102C4000714A1360714B00221A706B4B05221A7087
:102C5000FEF73AFF01233AE1BB68002B05DBBB68B6
:102C600007EE903AF8EEE77A06E0BB6807EE903A96
:102C7000F8EEE77AF1EE677A614BC3ED007A5C4BD0
:102C800093ED007A5E4BD3ED007A77EE277A5D4BB9
:102C9000C3ED007AFEF71AFE04F0BEFC03463233A1
:102CA000594A1360594B01221A70534B06221A706D
:102CB000FEF70AFF01230AE1BB68002B05DBBB68B6
:102CC00007EE903AF8EEE77A06E0BB6807EE903A36
:102CD000F8EEE77AF1EE677A494BC3ED007A444BA0
:102CE00093ED007A464BD3ED007A77EE677A454B49
:102CF000C3ED007AFEF706FE04F08EFC0346323385
:102D0000414A1360414B00221A703B4B07221A7054
:102D1000FEF7DAFE0123DAE0FEF742FDFEF730FFB0
:102D2000FEF7B6FD344B03221A700123CFE0FEF705
:102D3000DDFC0123CBE0334B1B681846FDF714FC88
:102D400002460B463249C1E900232E4B1B68184648
:102D5000FDF70AFC4FF000022E4BFDF7A7FA0246E2
:102D60000B462D49C1E90023264B1B681846FDF789
:102D7000FBFB4FF00002274BFDF796FA02460B468D
:102D800010461946FDF720FF03461E4A1360234BE9
:102D900001221A70224B01221A70174B1B78DBB2EA
:102DA000012B17D00C4B1B685B6A9AB20B4B1A8035
:102DB0000B4B1B685B6A9AB20A4B1A80FEF768FDE0
:102DC0000A4B6FF000421A60164B00221A700A4B31
:102DD00001221A7001237AE06C050020000B00200C
:102DE000B4050020020B0020896D9342040B0020E3
:102DF0000C0B0020100B0020EE070020780B0020A9
:102E000000000020080B0020480B00204C0B002085
:102E1000800B002000004940880B0020790B002027
:102E20007A0B0020660B00202B4B1B681846FDF721
:102E30009BFB02460B462949C1E90023264B1B6830
:102E40001846FDF791FB4FF00002254BFDF72CFAD9
:102E500002460B462349C1E900231F4B1B68184655
:102E6000FDF782FB4FF000021D4BFDF71FFA0246F3
:102E70000B4610461946FDF7A7FE0346164A136097
:102E8000194B02221A70194B01221A70184B1B7829
:102E9000DBB2012B17D0174B1B685B6A9AB2164B3B
:102EA0001A80164B1B685B6A9AB2154B1A80FEF7A4
:102EB000EFFC144B6FF000421A60134B00221A70A3
:102EC0000B4B01221A70012301E000BF00231846BA
:102ED0002037BD4680BD00BF080B0020800B0020BE
:102EE00000004940880B0020790B00207A0B00205D
:102EF000EE0700206C050020000B0020B405002028
:102F0000020B0020040B0020660B002080B584B06B
:102F100000AF87ED010AD7ED017A9FED1A7AF4EE42
:102F2000C77AF1EE10FA01D5174B24E0DFED170A4E
:102F300097ED010A0EF08EFBF0EE407A9FED147AC9
:102F400067EE877AC7ED037AD7ED037A9FED117AA2
:102F5000F4EEC77AF1EE10FA01DD0B4B0BE0D7ED82
:102F6000037AB2EE047AF4EEC77AF1EE10FA01D5E4
:102F7000094B00E0FB6807EE903AB0EE670A1037A5
:102F8000BD4680BDCDCCCC3D0000A042333393BFC5
:102F900048E1DE410000A04200002041B0B5B2B0DF
:102FA00000AF7E4B5B6FC7F8C43004F0CFFA00F07F
:102FB0002BF9FEF7DDFB00F0F5FC00F0D3FC00F090
:102FC000B7FA00F00DFA00F05FFA00F0A1FC00F093
:102FD000A5FB00F011FC00F0D5F900F02BFB00F090
:102FE00071F900F06BFC04F023FA6D4803F0D2FD98
:102FF000D7F8C43003F00053002B03D0694803F026
:1030000033FE34E0D7F8C43003F08043002B03D004
:10301000654803F029FE2AE0D7F8C43003F0805356
:10302000002B03D0614803F01FFE20E0D7F8C43026
:1030300003F00073002B03D05D4803F015FE16E08B
:10304000D7F8C43003F08063002B03D0594803F055
:103050000BFE0CE0D7F8C43003F00063002B03D064
:10306000554803F001FE02E0544803F0FDFD4B4BD0
:103070005B6F4A4A43F080735367012250495148BD
:1030800009F059F902225049504804F039FB504BDD
:1030900007F1A8041D460FCD0FC495E8070084E88A
:1030A000070007F1A803002118460AF0EAF80346D2
:1030B000484A1360484B07F18C041D460FCD0FC4DE
:1030C00095E8070084E8070007F18C030021184603
:1030D0000AF0D7F80346414A1360414B07F17004E8
:1030E0001D460FCD0FC495E8070084E8070007F1DF
:1030F0007003002118460AF0C4F80346394A1360E9
:10310000394B07F154041D460FCD0FC495E8070055
:1031100084E8070007F15403002118460AF0B1F8CB
:103120000346324A1360324B07F138041D460FCD77
:103130000FC495E8070084E8070007F13803002171
:1031400018460AF09EF803462A4A13602A4B07F1F4
:103150001C041D460FCD0FC495E8070084E8070046
:1031600007F11C03002118460AF08BF80346234A96
:103170001360234B3C461D460FCD0FC495E8070056
:1031800084E807003B46002118460AF07AF8034617
:103190001C4A13600AF06EF800BFFDE700380240D9
:1031A0001C0700208C20010898200108A420010899
:1031B000B4200108C4200108D0200108DC20010847
:1031C000ED07002064070020500B00207004002051
:1031D000F4200108AC0700201C210108B0070020E2
:1031E00044210108B407002070210108B80700201D
:1031F00098210108BC070020C4210108C007002055
:10320000E8210108C407002080B594B000AF07F1A1
:1032100020033022002118460CF0B6F807F10C0309
:1032200000221A605A609A60DA601A610023BB605B
:10323000224B1B6C214A43F0805313641F4B1B6CC1
:1032400003F08053BB60BB6800237B601C4B1B6892
:103250001B4A43F480431360194B1B6803F48043FB
:103260007B607B6802233B620123FB6210233B638C
:103270000023BB6307F12003184606F07DFE0346DA
:10328000002B01D002F0B8FC0F23FB6000233B6150
:1032900000237B610023BB610023FB6107F10C036A
:1032A0000021184607F0E0F80346002B01D002F099
:1032B000A3FC00BF5037BD4680BD00BF00380240B0
:1032C0000070004080B584B000AF3B4600221A6019
:1032D0005A609A60DA60284B284A1A60264B4FF4ED
:1032E00040325A60244B00229A60234B01221A611B
:1032F000214B01221A76204B002283F820201E4BFE
:103300000022DA621C4B1E4A9A621B4B0022DA60D2
:10331000194B0222DA61184B012283F83020164B38
:1033200000225A61144804F0A7F90346002B01D08B
:1033300002F062FC0A233B6001237B600723BB6031
:103340003B4619460C4804F003FB0346002B01D012
:1033500002F052FC0B233B6002237B603B46194684
:10336000054804F0F5FA0346002B01D002F044FCB6
:1033700000BF1037BD4680BD700400200020014012
:103380000100000F80B500AF124B134A1A60114BB9
:10339000124A5A600F4B00229A600E4B0022DA60EC
:1033A0000C4B4FF480421A610A4B00225A61094BC0
:1033B00000229A61074B0022DA61064B00221A6252
:1033C000044805F05DFD0346002B01D002F014FC1B
:1033D00000BF80BD1805002000580040A0860100F5
:1033E00080B58CB000AF07F10C03242200211846F1
:1033F0000BF0CAFF3B1D00221A605A60214B4FF0B0
:1034000080421A601F4B00225A601E4B00229A60B5
:103410001C4B4FF6FF72DA601A4B00221A61194BEF
:1034200000229A610323FB6000233B6101237B613F
:103430000023BB610A23FB6100233B6201237B6203
:103440000023BB620A23FB6207F10C0319460D48F7
:1034500007F0DAFC0346002B01D002F0CDFB00237D
:103460007B600023BB603B1D1946064808F0C2FD87
:103470000346002B01D002F0BFFB00BF3037BD4632
:1034800080BD00BF6C05002080B58CB000AF07F197
:103490000C032422002118460BF076FF3B1D00226E
:1034A0001A605A60204B214A1A601F4B00225A6052
:1034B0001D4B00229A601C4B4FF6FF72DA601A4BCC
:1034C00000221A61184B00229A610323FB6000233B
:1034D0003B6101237B610023BB610A23FB61002365
:1034E0003B6201237B620023BB620A23FB6207F17C
:1034F0000C0319460C4807F087FC0346002B01D04B
:1035000002F07AFB00237B600023BB603B1D194661
:10351000054808F06FFD0346002B01D002F06CFB5C
:1035200000BF3037BD4680BDB40500200004004018
:1035300080B58EB000AF07F1280300221A605A60F0
:103540009A60DA6007F1200300221A605A603B1D7E
:1035500000221A605A609A60DA601A615A619A61B0
:10356000324B334A1A60314B00225A602F4B0022F3
:103570009A602E4B41F61F42DA602C4B00221A61F2
:103580002A4B00229A61294807F04CF90346002B88
:1035900001D002F031FB4FF48053BB6207F12803E6
:1035A0001946224807F0B2FF0346002B01D002F073
:1035B00023FB1E4807F085F90346002B01D002F0DB
:1035C0001BFB00233B6200237B6207F120031946AB
:1035D000164808F00FFD0346002B01D002F00CFB4B
:1035E00060237B600023BB600023FB6000237B61C2
:1035F0003B1D082219460D4807F0C6FE0346002B66
:1036000001D002F0F9FA3B1D0C221946074807F0D9
:10361000BBFE0346002B01D002F0EEFA034803F094
:103620003DF800BF3837BD4680BD00BFFC05002017
:103630000008004080B58AB000AF07F118030022EF
:103640001A605A609A60DA6007F1100300221A606B
:103650005A603B4600221A605A609A60DA602D4B2D
:103660002D4A1A602B4B0F225A602A4B00229A6077
:10367000284B4FF6FF72DA60264B00221A61254B69
:1036800000225A61234B00229A61224807F0CAF8AF
:103690000346002B01D002F0AFFA4FF48053BB6118
:1036A00007F1180319461B4807F030FF0346002BAB
:1036B00001D002F0A1FA174807F024FA0346002BC4
:1036C00001D002F099FA00233B6100237B6107F1EE
:1036D000100319460F4808F08DFC0346002B01D05B
:1036E00002F08AFA0A233B6001237B600023BB605F
:1036F0000023FB603B4604221946064807F0A8FD5C
:103700000346002B01D002F077FA00BF2837BD46F0
:1037100080BD00BF440600200004014080B58CB08D
:1037200000AF07F1200300221A605A609A60DA6045
:103730003B1D00221A605A609A60DA601A615A6171
:103740009A612B4B2B4A1A60294B00225A60284B56
:1037500000229A60264B41F61F42DA60244B002279
:103760001A61234B00229A61214807F05BF8034657
:10377000002B01D002F040FA4FF480533B6207F176
:10378000200319461A4807F0C1FE0346002B01D05A
:1037900002F032FA164807F094F80346002B01D0E5
:1037A00002F02AFA60237B600023BB600023FB60E9
:1037B00000237B613B1D002219460D4807F0E4FD04
:1037C0000346002B01D002F017FA3B1D04221946D4
:1037D000074807F0D9FD0346002B01D002F00CFA90
:1037E000034802F05BFF00BF3037BD4680BD00BF1D
:1037F0008C0600200040014080B58CB000AF07F17E
:10380000200300221A605A609A60DA603B1D002291
:103810001A605A609A60DA601A615A619A61254B9F
:10382000254A1A60234BA0225A60224B00229A603C
:10383000204B4FF47A72DA601E4B00221A611D4B46
:1038400000229A611B4806F0EDFF0346002B01D0D1
:1038500002F0D2F94FF480533B6207F1200319467E
:10386000144807F053FE0346002B01D002F0C4F9C0
:10387000104807F026F80346002B01D002F0BCF9EF
:1038800060237B600023BB600023FB6000237B611F
:103890003B1D04221946074807F076FD0346002B1E
:1038A00001D002F0A9F9034802F0F8FE00BF30375A
:1038B000BD4680BDD40600200018004080B500AF92
:1038C000114B124A1A60104B4FF4E1325A600E4B02
:1038D00000229A600C4B0022DA600B4B00221A6126
:1038E000094B0C225A61084B00229A61064B0022B8
:1038F000DA61054808F00EFC0346002B01D002F007
:103900007BF900BF80BD00BF1C07002000440040C1
:1039100080B500AF114B124A1A60104B4FF4E132E0
:103920005A600E4B00229A600C4B0022DA600B4B5F
:1039300000221A61094B0C225A61084B00229A613D
:10394000064B0022DA61054808F0E4FB0346002B31
:1039500001D002F051F900BF80BD00BF6407002014
:103960000048004080B582B000AF00237B600C4B64
:103970001B6B0B4A43F480031363094B1B6B03F46B
:1039800080037B607B6800220521382004F05BFB0C
:10399000382004F074FB00BF0837BD4680BD00BF6F
:1039A0000038024080B58AB000AF07F1140300224E
:1039B0001A605A609A60DA601A6100233B61484BD2
:1039C0001B6B474A43F010031363454B1B6B03F01B
:1039D00010033B613B690023FB60414B1B6B404A7A
:1039E00043F0040313633E4B1B6B03F00403FB60C3
:1039F000FB680023BB603A4B1B6B394A43F0010361
:103A00001363374B1B6B03F00103BB60BB680023E0
:103A10007B60334B1B6B324A43F002031363304B22
:103A20001B6B03F002037B607B6800233B602C4B25
:103A30001B6B2B4A43F008031363294B1B6B03F0EA
:103A400008033B603B6800224FF48071254805F075
:103A5000E3F900224FF4F041234805F0DDF900229C
:103A60004021224805F0D8F94FF480737B6101238F
:103A7000BB610023FB6100233B6207F1140319467D
:103A8000184804F019FF4FF4F0437B610123BB6138
:103A90000023FB6100233B6207F11403194612481F
:103AA00004F00AFF40237B610123BB610023FB611B
:103AB00000233B6207F1140319460C4804F0FCFE96
:103AC00001237B610023BB610023FB6107F1140329
:103AD0001946044804F0F0FE00BF2837BD4680BDFB
:103AE0000038024000100240000C02400008024072
:103AF00080B500AF002240210A4805F08DF9022070
:103B0000FDF70EFE01224021064805F085F90A2046
:103B1000FDF706FE00224021024805F07DF900BFB6
:103B200080BD00BF0008024080B487B000AFF860DD
:103B3000B9607A60FA68BB68934238BF13467A6806
:103B4000934238BF13467B61FA68BB68934228BF33
:103B500013467A68934228BF13463B61FA68BB68F4
:103B60001A447B681A447B69D21A3B69D31A1846F7
:103B70001C37BD465DF8047B7047000080B584B0FB
:103B800000AF78607B681B684A4A934240F08D80A2
:103B90007B681B7F022B40F08880474B1B78DBB291
:103BA000002B17D17B681B6800225A627B681B6858
:103BB0001A6A7B681B6822F0A0021A627B681B6885
:103BC0001A6A7B681B6842F020021A623A4B012293
:103BD0001A706BE00421786807F060FD03469AB222
:103BE000364B1A807B681B681A6A7B681B6822F058
:103BF000A0021A627B681A687B681B68126A1A62E4
:103C00002D4B00221A702D4B1B889BB207EE903A69
:103C1000F8EEE77A9FED2A7A67EE877AB6EE007AB9
:103C200077EE877AFCEEE77A17EE903ABB60254B89
:103C30001B781946244ABB6842F82130214B1B7877
:103C4000591C224BA3FB01235A0813465B00134463
:103C5000CA1AD2B21B4B1A701D4B1B78022B05D807
:103C60001B4B1B780133DAB2194B1A70BB68FB602F
:103C7000174B1B78032B09D1134B1B68124A516851
:103C8000114A92681846FFF74FFFF860FB6807EE8D
:103C9000903AF8EE677A0F4BC3ED007A0E4AFB6854
:103CA00013600E4B01221A7000E000BF1037BD46B2
:103CB00080BD00BF00040140900B0020920B00204B
:103CC000287E8C3CE0070020D4070020ABAAAAAADB
:103CD000E1070020CC070020C8070020D007002003
:103CE00080B584B000AF78607B681B68614A9342FE
:103CF00040F0BC80604B1B78FB72FB7A0D2B02D02E
:103D0000FB7A0A2B76D15D4B1B881A465C4B00214F
:103D100099545C4B1B78002B65D1584B1B88002BAA
:103D200061D00023FB8114E0FB89554AD35C402B12
:103D30000CD9FB89524AD35C5A2B07D8FB89504ACD
:103D4000D25CFB892032D1B24D4AD154FB89013378
:103D5000FB814A4B1B88FA899A42E5D34A49484875
:103D6000FCF736FA0346002B03D1484B01221A70A8
:103D700039E0434B1B786A2B03D14148FEF70CF81E
:103D800031E0434B1B78DBB2002B2CD13F4B1B782F
:103D9000DBB2002B27D10023BB8110E0BB89384A5E
:103DA000D35C3B2B04D0BB89354AD35C2C2B03D18D
:103DB000BB89334A2021D154BB890133BB812F4BAE
:103DC0001B88BA899A42E9D32D48FEF76FFB314B25
:103DD0001B78DBB2002B06D12C4B1B78DBB2002BFF
:103DE00001D1FEF71BFD254B00221A80254B002236
:103DF0001A7035E0234B1B78002B31D1FB7A1F2B37
:103E000002D9FB7A7E2B19D9FB7A092B03D01D4BE3
:103E100001221A7024E0194B1B88FE2B0AD8174B7D
:103E20001B885A1C91B2154A11801946144AFB7A14
:103E3000535415E0134B01221A7011E00F4B1B88ED
:103E4000FE2B0AD80D4B1B885A1C91B20B4A1180CD
:103E500019460B4AFB7A535402E00A4B01221A70AE
:103E6000012205490C4808F066FA00E000BF10374F
:103E7000BD4680BD00480040ED070020F00800204E
:103E8000F0070020F20800200C200108EC070020B9
:103E9000C00B0020EE0700206407002080B485B02E
:103EA00000AF78607B681B68354A934261D1354B1F
:103EB0001B889BB21A4640F6E44302FB03F303F26D
:103EC000FF72314BA3FB0213D21A52081344DB0AD0
:103ED000FB812C4B5B889BB21A4640F6E44302FB05
:103EE00003F303F2FF72284BA3FB0213D21A52080A
:103EF0001344DB0ABB81254B1B889BB29A00FB89CC
:103F00001344234AA2FB03239B089AB21F4B1A8037
:103F1000204B1B889BB29A00BB8913441C4AA2FB0E
:103F200003239B089AB21B4B1A80164B1B889AB22C
:103F3000194B1A80134B5B889AB2184B1A80134B9B
:103F40001B889BB240F21F3293428CBF0123002397
:103F5000DBB21A46124B1A700E4B1B889BB240F212
:103F60001F3293428CBF01230023DBB21A460D4B54
:103F70001A7000BF1437BD465DF8047B704700BF60
:103F800000200140500B002001011000620B0020B6
:103F9000CDCCCCCC640B0020540B0020560B002061
:103FA000600B0020610B002080B584B000AF78600A
:103FB0004123FB734FF48071044804F046FF4FF433
:103FC0007A7009F0AAF900BFF4E700BF00100240C0
:103FD00080B58EB002AF78600121794804F004FF0B
:103FE000034687F82F30774B1B78012B11D197F8B8
:103FF0002F30002B0DD1744B1B780133002B03F0B5
:104000000103B8BF5B42DAB26F4B1A70322009F07D
:1040100084F96C4A97F82F3013706C4B1B78DBB225
:10402000002B19D16A4A0021002003F0CFF9694A18
:104030001021002003F0CAF9674A2021002003F074
:10404000C5F9664A3021002003F0C0F903F046F8B4
:10405000142009F062F9B1E05B4B1B78002B4DD1C5
:104060005F4B1B681846FCF77FFA02460B4607F1C8
:104070000C00CDE900235B4A20210BF00BF907F17E
:104080000C031A460021002003F0A0F9564BD3ED93
:10409000007AFDEEE77A07F10C0017EE903A534AEA
:1040A00020210BF0F7F807F10C031A46102100202D
:1040B00003F08CF94E4B1A684E4B1B6807F10C004D
:1040C000009313464C4A20210BF0E4F807F10C034F
:1040D0001A462021002003F079F9FEF79DF90346E6
:1040E00007F10C00454A20210BF0D4F807F10C032E
:1040F0001A463021002003F069F95AE0324B1B7850
:10410000012B56D13E4B1B6807F10C003D4A202184
:104110000BF0C0F807F10C031A460021002003F051
:1041200055F9394B1B889BB21A46384B1B78DBB2CA
:1041300007F10C0000931346354A20210BF0AAF832
:1041400007F10C031A461021002003F03FF9314B10
:104150001B889BB21A46304B1B78DBB207F10C0070
:10416000009313462D4A20210BF094F807F10C031D
:104170001A462021002003F029F9294BD3ED007ABB
:10418000BDEEE77A274BD3ED007AFDEEE77A17EE26
:10419000903A07F10C00009317EE103A224A2021C2
:1041A0000BF078F807F10C031A463021002003F0D9
:1041B0000DF902F093FF142009F0AFF80CE700BFEF
:1041C0000010024022000020D00C0020200B002014
:1041D00004220108182201082C22010840220108AB
:1041E0000C0B002054220108080B00206422010857
:1041F000E4070020E8070020702201087C22010863
:10420000C807002088220108620B0020600B0020F4
:104210009C220108640B0020610B0020AC220108E5
:10422000940B0020980B0020BC220108B0B5ADF51E
:10423000147D04AF07F51073A3F50F731860042104
:10424000B44806F097FBFDF723FB0821B24806F0BF
:1042500091FB0C21B04806F08DFB0021AF4806F021
:1042600089FB0421AD4806F085FBAD4801F0C2FE94
:10427000FDF796FAAB4B1B78DBB2002B00F0948075
:10428000EFF3108207F51073A3F58A731A6007F530
:104290001073A3F58A731B68C7F8143272B600BF97
:1042A00007F51073A3F505739F4A184611464FF49E
:1042B00080731A460BF073F99A4B00221A70D7F8E4
:1042C0001432002B01D162B600BF07F51073A3F5BD
:1042D0000573002283F8FF200023C7F83C3248E032
:1042E00007F51073A3F50572D7F83C3213441B7819
:1042F000402B1CD907F51073A3F50572D7F83C3293
:1043000013441B785A2B12D807F51073A3F50572C6
:10431000D7F83C3213441B782033D9B207F5107319
:10432000A3F50572D7F83C3213440A461A7007F514
:104330001073A3F50572D7F83C3213441B783B2B5E
:1043400009D007F51073A3F50572D7F83C32134472
:104350001B782C2B08D107F51073A3F50572D7F83D
:104360003C32134420221A70D7F83C320133C7F88C
:104370003C3207F51073A3F50572D7F83C321344AD
:104380001B78002BACD107F12C031846FEF78EF8F2
:10439000664B1B78DBB2002B06D1654B1B78DBB27A
:1043A000002B01D1FEF73AFA604B1B78DBB2002BF1
:1043B00035D05E4B1B78DBB2032B30D003F02CF9E9
:1043C000C7F810025B4B1B78DBB2002B08D05A4BAE
:1043D0001B68D7F81022D31A642B01D9012300E0FF
:1043E000002387F80F3297F80F3203F0010387F8A4
:1043F0000F32504B1B78DBB2002B03D097F80F32F3
:10440000002B0CD097F80F32002B01D04B4B00E063
:104410004B4B184602F028FC454B01221A70444BC6
:104420001B78DBB2002B56D0404B1B78DAB207F575
:104430001073A3F588731A60FDF74AFD3C4B002208
:104440001A70404B00221A703F4B00221A603F4BFB
:104450004FF000021A603E4B00221A603D4B4FF0B5
:1044600000021A603C4B00221A703C4B00221A706A
:10447000FDF796F93A4B00221A6007F51073A3F581
:1044800088731868FDF78BFA0346002B07D007F5F1
:104490001073A3F588731868FDF703FB01E0FDF7BF
:1044A000F7F9304B00221A60FDF7F4F81F4B002299
:1044B0001A702D4B00221A602C4B00221A70FDF747
:1044C0005FFB2B48FDF7A2FCFDF7B2FC052008F0CE
:1044D00024FF01F0D1B8FDF745FE0346002B04D0C0
:1044E000052008F01AFF01F0C7B8104B1B78DBB2AB
:1044F000072B01F36780042B80F28686022B03DCF6
:10450000002B37DC01F05EB8032B01F04E8001F088
:1045100059B800BFD4060020FC0500208C060020FE
:104520009C0B0020F4090020F4080020EE07002076
:10453000EC070020200B0020240B0020D0220108D3
:10454000DC220108660B0020680B00206C0B0020A9
:10455000700B0020740B0020790B00207A0B0020D8
:10456000F8090020040B0020480B00204C0B002011
:10457000EC220108994BC7F8DC31984BC7F8D831C9
:104580004FF00003C7F8D431954B1B685B6AA7F85E
:10459000D231944B1B685B6AA7F8D031924B1B88D1
:1045A0009BB2B7F8D221D31A9BB21BB2C7F8CC3159
:1045B0008E4B1B889BB2B7F8D021D31A9BB21BB28B
:1045C0005B42C7F8C831D7F8CC21D7F8C8311344BB
:1045D000DA0F13445B10C7F8C431002387F83B326D
:1045E000834B1B68002B0ADB814B1B68D7F8C42167
:1045F0009A42ACBF0123002387F83B3209E07C4B91
:104600001B68D7F8C4219A42D4BF0123002387F83E
:104610003B32002387F83A32764B1B78DBB2012B12
:1046200040F00981744B1B78DBB2002B00F0038152
:10463000714B1B78DBB2013B062B00F2CB8001A251
:1046400052F823F0FD460008854700089947000806
:10465000D5470008AD470008C1470008614600087B
:10466000664B1B889BB21A46654B1B689A422CBF4F
:104670000123002387F83A32614B1B68142B00F2A8
:10468000AB80604B1B78DBB2002B00F0A5805E4B4B
:104690001B78DBB2002B15D1594B1B6807F10C00BE
:1046A0005A4A20210AF0F6FDC7F8C001564B0122F4
:1046B0001A70D7F8C0319AB207F10C031946544862
:1046C00007F003FE534B1B68534A1360FDF7E0F8F5
:1046D000494B04221A70464B504A1A60504B002234
:1046E0001A60504B00221A60002387F83A324E4B72
:1046F00001221A703F4B02221A706DE0404B1B687A
:104700001A2B94BF0123002387F83A323C4B1B68D5
:10471000142B00F28F803C4B1B78DBB2002B15D1A1
:10472000374B1B6807F10C00384A20210AF0B2FD14
:10473000C7F8BC01344B01221A70D7F8BC319AB2C9
:1047400007F10C031946324807F0BFFD314B1B68D7
:10475000314A1360FDF79CF8274B04221A70244B52
:104760002E4A1A602E4B00221A602E4B00221A602D
:10477000002387F83A322C4B01221A701D4B02227B
:104780001A7057E0294B1B78DBB2002B0CBF0123BA
:10479000002387F83A324EE0254B1B78DBB2002B22
:1047A0000CBF0123002387F83A3244E01F4B1B78EB
:1047B000DBB2012B0CBF0123002387F83A323AE029
:1047C0001B4B1B78DBB2012B0CBF0123002387F8A6
:1047D0003A3230E000BF2EE000BF2CE0A69B443B05
:1047E0006C050020B4050020000B0020020B002007
:1047F000040B0020EE070020660B00201C000020A8
:10480000C80700201E000020FE0A0020F422010834
:1048100064070020080B0020100B0020010000801E
:10482000D40C0020D80C0020780B0020610B002055
:10483000600B002000BF574B1B78DBB2022B0CD162
:10484000554B1B78DBB2042B07D1544B1B68132B41
:104850008CBF0123002387F83A3297F83A32002BB5
:104860003BD04D4B1B78DBB2012B04D04A4B1B785D
:10487000DBB2072B31D14A4B1B6807EE903AB8EEFA
:10488000E77ADFED486AC7EE267A474BC3ED007A38
:10489000464B1B78DBB2002B1FD1434B1B681846DD
:1048A000FBF762FE02460B463C49096807F10C0023
:1048B0000291CDE900233E4A20210AF0EBFCC7F823
:1048C000B8013A4B01221A70D7F8B8319AB207F101
:1048D0000C031946374807F0F8FC97F83A32002BDA
:1048E00038D02D4B1B78DBB2022B04D02A4B1B781F
:1048F000DBB2032B2ED1304B1B6807EE903AB8EE9B
:10490000E77ADFED286AC7EE267A2C4BC3ED007AF2
:10491000264B1B78DBB2002B1CD1284B1B6818469A
:10492000FBF722FE02460B4607F10C00CDE90023FF
:10493000234A20210AF0AEFCC7F8B4011B4B012228
:104940001A70D7F8B4319AB207F10C031946194816
:1049500007F0BBFC97F83B32002B03D197F83A32B3
:10496000002B35D0FCF71CFF0B4B00221A70154BA7
:1049700000221A60144B00221A60064B00221A70A3
:1049800002F04AFE034603F5FA73104A136000F082
:1049900070BE00BFEE070020660B0020C807002095
:1049A000680B0020896D93426C0B0020FE0A0020EA
:1049B0000023010864070020700B0020740B002006
:1049C0000C230108D40C0020D80C0020F80900208A
:1049D00002F022FEC7F8B001C34B1B68002B0BD1BD
:1049E000C14AD7F8B0311360C04AB7F8D23113804A
:1049F000BF4AB7F8D0311380BE4B1B78DBB2002B17
:104A00001CD0BA4AB7F8D2311380B94AB7F8D031BE
:104A10001380B54AD7F8B0311360B64B00221A7034
:104A2000B54B4FF000021A60B44B4FF000021A6011
:104A3000B34B00221A60B34B00221A60AB4B1B88A9
:104A4000B7F8D221D31A9BB2A7F8AE31A84B1B8876
:104A5000B7F8D021D31A9BB2A7F8AC31B7F8AC3174
:104A60005B429BB2A7F8AC31A74B1B78DBB2012BA2
:104A70001AD1A64B1B78DBB2012B04D0A34B1B78B9
:104A8000DBB2072B10D1B7F9AE21B7F9AC31134423
:104A9000DA0F13445B10C7F8A8319D4B1A68D7F89A
:104AA000A83113449A4A1360974B1B78DBB2012B51
:104AB0001AD1964B1B78DBB2022B04D0934B1B7898
:104AC000DBB2032B10D1B7F9AE21B7F9AC311344E7
:104AD000DA0F13445B10C7F8A4318E4B1A68D7F86D
:104AE000A43113448B4A13607F4B1B68D7F8B02165
:104AF000D31AC7F83432D7F83432002B02D101234D
:104B0000C7F83432B7F9AE314FF47A7203FB02F2D0
:104B1000D7F8343292FBF3F3C7F8A031B7F9AC31D0
:104B20004FF47A7203FB02F2D7F8343292FBF3F3BC
:104B3000C7F89C31D7F8343207EE903AB8EE677A6E
:104B4000DFED756AC7EE267AC7ED667AD7ED667A2D
:104B50009FED727A37EE877AD7ED666AC6EE877A6E
:104B6000C7ED657AD7F8A03107EE903AB8EEE77A4C
:104B7000614BD3ED007A37EE677AD7ED657A27EE91
:104B8000277A5D4BD3ED007A77EE277A5A4BC3ED47
:104B9000007AD7F89C3107EE903AB8EEE77A574B97
:104BA000D3ED007A37EE677AD7ED657A27EE277A6C
:104BB000524BD3ED007A77EE277A504BC3ED007A53
:104BC0004A4AB7F8D2311380494AB7F8D031138036
:104BD000454AD7F8B0311360474B93ED007A474B05
:104BE000D3ED007A77EE677AFDEEE77A17EE903A2A
:104BF000C7F890314A4B93ED007A4A4BD3ED007AD7
:104C000077EE677A484BC3ED007AD7F89031C7F852
:104C10008C313B4B1A68D7F88C311344384A1360F7
:104C200046F2A813C7F88831354B1B68D7F888219E
:104C30009A4203DA324AD7F888311360D7F88831BC
:104C40005A422F4B1B689A4204DDD7F888315B42E9
:104C50002B4A13602B4B1B68D7F88C21D31AC7F84B
:104C60008431284AD7F88C311360D7F88C3107EE9D
:104C7000903AB8EEE77AD7ED777A27EE277A204B8D
:104C80001B6807EE903AF8EEE76AD7ED767A66EEA3
:104C9000A77A37EE277AD7F8843107EE903AF8EE04
:104CA000E76AD7ED757A66EEA77A77EE277AC7EDD1
:104CB000607AD7ED607AFDEEE77A17EE903AC7F8A2
:104CC0007C3140F6D863C7F878310F4B1B78DBB2E4
:104CD000022B0CBF0123002387F8773197F8773137
:104CE000002B25D022E000BFDC0C0020E00C0020CF
:104CF000E20C0020780B0020E40C0020E80C0020DF
:104D0000D40C0020D80C0020EE070020660B0020F9
:104D1000680B0020700B002000007A44CDCC4C3D85
:104D2000100B00200C0B0020140B0020BB4B00E0EC
:104D3000BB4BC7F870314FF07E53C7F86C31D7F8D2
:104D4000783107EE903AB8EEE77AD7ED5C7A67EE05
:104D5000277AB6EE007A77EE877AFDEEE77A17EEDD
:104D6000903AC7F86831D7F8783107EE903AB8EE44
:104D7000E77AD7ED5B7A67EE277AB6EE007A77EEC0
:104D8000877AFDEEE77A17EE903AC7F8643197F824
:104D9000773183F00103DBB2002B0ED0D7F8682106
:104DA000D7F87C311344C7F83032D7F86421D7F8EC
:104DB0007C31D31AC7F82C320DE0D7F86821D7F828
:104DC0007C31D31AC7F83032D7F86421D7F87C3158
:104DD0001344C7F82C32D7F83002FCF7C9FDC7F8E6
:104DE0003002D7F82C02FCF7C3FDC7F82C028D4B1C
:104DF00093ED007A8C4BD3ED007A77EE677A8B4B8C
:104E0000C3ED007A4FF07F53C7F86031874B1B68C2
:104E1000C7F82832D7ED8A7AF0EEE77A9FED847AE8
:104E2000F4EEC77AF1EE10FA03D54FF00003C7F89D
:104E3000283297ED587AD7ED8A7A67EE277AC7ED50
:104E4000577AD7ED577AF5EEC07AF1EE10FA08DB13
:104E5000D7ED577AB6EE007A77EE877AFDEEE77AED
:104E600007E0D7ED577AB6EE007A77EEC77AFDEE17
:104E7000E77AC7ED567A6F4B1B88C7F824326E4B22
:104E80001B78DBB2012B07D1D7F82422D7F8583191
:104E9000D31AC7F8243206E0D7F82422D7F85831BD
:104EA0001344C7F82432D7F824326D2B02DC6E236A
:104EB000C7F82432D7F82432F02B02DDF023C7F8EC
:104EC00024325E4AD7F8303213605D4AD7F82C326C
:104ED00013605C4AD7F8243213605B4B1B78DBB25B
:104EE000002B00F05281594B1B78DBB2012B6ED1A5
:104EF000554B1B78DBB2012B01D1F52200E0642277
:104F0000534B1B689A63504B1B78DBB2012B1CD1AF
:104F100007F51073A3F5847341F288321A6007F520
:104F20001073A3F5867341F664121A6007F51073C7
:104F3000A3F584731868FCF753FC07F51073A3F509
:104F400086731868FCF762FC1BE007F51073A3F585
:104F5000807341F288321A6007F51073A3F58273EB
:104F600041F664121A6007F51073A3F58073186890
:104F7000FCF74CFC07F51073A3F582731868FCF777
:104F80002FFC314B1B78DBB2012B0AD1264B93ED62
:104F9000007A304BD3ED007AB4EEE77AF1EE10FAF6
:104FA00011D9294B1B78DBB2022B40F0F3801E4B4A
:104FB00093ED007A274BD3ED007AB4EEE77AF1EE69
:104FC00010FAC0F2E780214B02221A70E2E01F4B78
:104FD0001B78DBB2022B40F0D2801B4B1B78DBB27C
:104FE000012B01D1642200E0F522194B1B689A6362
:104FF000154B1B78DBB2012B2ED141F28833C7F859
:105000004C3141F66413C7F84831D7F84C01FCF72E
:10501000FDFBD7F84801FCF7E3FB2DE048E17A3FC0
:1050200014AE873F100B00200C0B0020140B002047
:105030009A99993E20000020EE0700200C000020E5
:105040001000002014000020790B00207A0B0020B3
:10505000D4060020080B002041F28833C7F85431F1
:1050600041F66413C7F85031D7F85401FCF7B8FB88
:10507000D7F85001FCF7CAFB7F4BD3E90023104659
:105080001946FBF7A1FD03467C4A13607C4B1B7855
:10509000DBB2012B19D17B4B1B681846FBF764FA76
:1050A00004460D46754B1B681846FBF75DFA4FF03A
:1050B0000002754BFBF7F8F802460B4620462946DE
:1050C000FBF730FD0346002B1ED16D4B1B78DBB286
:1050D000022B5FD16B4B1B681846FBF745FA044661
:1050E0000D46664B1B681846FBF73EFA4FF0000270
:1050F000654BFBF7DBF802460B4620462946FBF7DB
:1051000007FD0346002B45D05D4B1B7887F84731E0
:105110005B4B00221A705D4B00221A70564BD3E98C
:10512000002310461946FBF74FFD0346534A136010
:10513000574B1B68D7F824229A6397F84731012B05
:1051400001D1FCF701FC97F84731022B01D1FCF7A4
:10515000E7FBFCF725FB4F4B00221A704E4B002259
:105160001A604E4B00221A604D4B00221A7002F05A
:1051700053FA034603F5FA734A4A13600AE0444BB4
:105180001B68D7F824229A6304E0414B1B68D7F8C8
:1051900024229A63424B1B78DBB2012B19D1384B86
:1051A0001B78DBB2002B14D13F4B1B68D7F83022A1
:1051B000DA633D4B1B6841F61F421A643B4B1B6888
:1051C000D7F82C225A63394B1B6841F61F429A6369
:1051D0000BE2334B1B78DBB2022B40F00682324BE2
:1051E0001B6841F61F42DA632F4B1B68D7F8302249
:1051F0001A642E4B1B6841F61F425A632B4B1B68E7
:10520000D7F82C229A63F0E1254B1B78DBB2C7F864
:10521000083202F001FAC7F80402254B1B68002B84
:105220000FD0234B1B68D7F80422D31A002B08DBBE
:10523000FCF7B6FA1F4801F017FD1F4B01221A7048
:1052400017E21E4B1B68002B40D01C4B1B68D7F885
:105250000422D31A002B39DAFCF7A2FA184B4FF0CC
:1052600000021A60174B41F61F421A60164B41F6B6
:105270001F421A60FDE100BF800B0020080B0020D8
:10528000790B00200C0B0020000014407A0B00204A
:10529000D4060020660B0020D40C0020D80C00207F
:1052A000EE070020F8090020FC0500208C060020F5
:1052B000400B002014230108EC070020480B0020BD
:1052C000300B00200400002008000020C84B002202
:1052D0001A60C84B1B78DBB2002B01D1FCF7F4FB42
:1052E000D7F80802FCF7A4FB87ED800AC24B93EDC8
:1052F000007AC24BD3ED007A77EE677AC7ED7F7AFA
:1053000097ED807AD7ED7F7A67EE277AC7ED7E7AC0
:10531000BB4BD3ED007A97ED807A67EE277AC7ED25
:105320007D7AB84AD7F8FC311360B24B1B78DBB2F8
:10533000022B4BD1FCF734FAB34B4FF000021A604A
:10534000B24B41F61F421A60B14B41F61F421A6040
:10535000B04B1B68D7F80422D31A002BC0F2868109
:10536000D7ED7F7AF0EEE77AB6EE007AF4EEC77A00
:10537000F1EE10FA0AD9D7ED7E7AF5EEC07AF1EEA9
:1053800010FA03D9A44B1B78022B04D9D7F80802D2
:10539000FCF788FC6DE1A04B1B780133DAB29E4B21
:1053A0001A709E4B4FF000021A609D4AD7F80432E3
:1053B0001360904B01221A70D7F80802FCF752FBD9
:1053C000D7F8043250338A4A136052E1D7ED7D7A20
:1053D000F5EEC07AF1EE10FA02DDD7F8F43101E013
:1053E0004FF00003C7F8F031D7ED7C7A9FED8D7A4E
:1053F00067EE877AB6EE007A77EE877AC7ED7B7A2A
:1054000097ED7E7AD7ED7B7AB4EEE77AF1EE10FA7B
:105410001AD8FCF7C5F9D7F80802FCF742FB7A4B1B
:105420004FF000021A60794B41F61F421A60784B28
:1054300041F61F421A606F4B02221A70D7F80432ED
:105440009633744A136014E1754B1B68D7F8042235
:10545000D31A07EE903AF8EE677A9FED737A67EE0B
:10546000877AC7ED887AD7ED887A9FED6F7AF4EE68
:10547000C77AF1EE10FA02D56C4BC7F82032D7ED9F
:10548000887A9FED6B7AF4EEC77AF1EE10FA02DDBE
:10549000684BC7F82032624AD7F80432136097EDA0
:1054A0007E7AD7ED887A27EE277A5C4BD3ED007AA7
:1054B00077EE277AC7ED877AD7ED877A9FED5E7A08
:1054C000F4EEC77AF1EE10FA02DD5C4BC7F81C323D
:1054D000D7ED877A9FED5A7AF4EEC77AF1EE10FA9B
:1054E00002D5584BC7F81C32D7ED7E7A9FED567A1D
:1054F00027EE877AD7ED877ADFED546A67EEA67AD2
:1055000037EE277AD7ED7D7A77EEA77A77EE677A4E
:10551000C7ED867AD7ED867A9FED4D7AF4EEC77A9D
:10552000F1EE10FA03D53D4AD7F81C321360D7EDDF
:10553000867A9FED477AF4EEC77AF1EE10FA02DD33
:10554000444BC7F81832D7ED867A9FED437AF4EED4
:10555000C77AF1EE10FA02D5404BC7F81832D7F8E7
:105560000802FCF74EFA3E4BC7F8E83197ED860A81
:10557000FCF73EFBC7F8E40197ED867AD7ED7A7A1F
:1055800067EE277AB0EE670AFCF732FBC7F8E00156
:105590001D4AD7F818321360D7F8E021D7F8E41184
:1055A000D7F80802FCF740FB63E0FCF7F9F82D4B55
:1055B00000221A7002F030F8034603F5AF732A4A4E
:1055C000136056E0FBF7F4FF0346002B09D102F00D
:1055D00023F80246244B1B689A4249D3FDF71EF973
:1055E00046E0214B00221A6042E000BF41E000BFCC
:1055F000480B0020280B0020080B00200C0B00207B
:105600001C0B00202C0B0020300B0020040000207D
:10561000080000203C0B0020440B0020340B00202D
:10562000380B00204260E53B6F12833A6F12833AD9
:10563000CDCC4C3DCDCC4C3D0000704200007042C2
:10564000000070C2000070C20000004200000000B4
:1056500000C0004500C00045008022440080224474
:105660003D0AD73EEE070020F809002000BF00E009
:1056700000BF052007F051FEFEF7FCBDF0B52DED93
:10568000068B89B000AF78603C21624805F062FC6F
:105690003C21614805F05EFC5E4B1B685B6AFB8346
:1056A0005D4B1B685B6ABB8301F0B6FFB86101F01C
:1056B000B3FF78617A69BB69D31A132B40F2A680D5
:1056C0007A69BB69D31A3B613B69B3F5803F02D26B
:1056D0003B699BB201E04FF6FF73FB814D4B1B68AA
:1056E0005B6ABB81BA89FB8BD31A9BB21BB21A4689
:1056F0004A4B1A60BB89FB83474B1B685B6A7B8103
:105700007A89BB8BD31A9BB21BB21A46444B1A60E0
:10571000434B1B685B42424A13607B89BB837B69B6
:10572000BB613E4B1B6818B23D4B1B6819B2FB892D
:10573000DAB23C4B1B78DBB2082B03D13A4B1B7817
:10574000DBB207E0374B1B78DBB2002B01D0012323
:1057500000E0002301F0BEFA344B93ED008A344B95
:10576000D3ED008A334B93ED009A334BD3ED009A7F
:10577000324B93ED00AA324B1C68324B1D68324B02
:105780001B78DEB2274B1B78DBB21846FCF707F913
:105790000346002B01D0012300E0002332462946B6
:1057A0002046B0EE4A2AF0EE691AB0EE491AF0EE41
:1057B000680AB0EE480A01F07DFB1C4BD3ED007A7D
:1057C000224B93ED007A1B4BD3ED006A204B93EDF7
:1057D000006A204B1868204B1968204B1A68114B3F
:1057E0001B78DBB2012B04D00E4B1B78DBB2022BF3
:1057F00001D1012300E00023F0EE461AB0EE661A54
:10580000F0EE470AB0EE670A01F0D2FB012007F084
:1058100084FD4CE76C050020B4050020E40700205F
:10582000E8070020EE070020240C00200C0B0020CD
:10583000080B00201C0B00202C0B0020300B00203C
:105840000400002008000020280B0020100B00207E
:10585000140B0020140000200C0000201000002079
:1058600080B58AB000AF786007F10C0300221A609F
:105870005A60664B00221A70654B4FF000021A60A6
:1058800007F10C0363491846FBF7E2FD034683F07A
:105890000103DBB2002B07D05F4801F0E5F94FF4BC
:1058A0007A7007F03AFDB0E007F10C030A22C82134
:1058B0001846FBF7F1FD034683F00103DBB2002B32
:1058C00007D0564801F0D0F94FF47A7007F025FD63
:1058D0009BE097ED047ADFED526AC7EE267A514BD2
:1058E000C3ED007A504B4FF000021A604F4B4FF05F
:1058F00000021A604E4B4FF000021A6001F08CFE5D
:1059000078624FF000033B620023FB77494A7B6AD1
:1059100013603E4B01221A700A2007F0FEFC464B32
:10592000D3ED007A07F1080207F10C031146B0EE3F
:10593000670A1846FBF706FE034683F00103DBB255
:10594000002B14D0FB7F0133FB77FB7F022B5AD94E
:105950002E4B00221A702E4B4FF000021A6037486F
:1059600001F082F94FF47A7007F0D7FC81E7002349
:10597000FB7701F051FE78617A697B6AD31A07EEF2
:10598000903AF8EE677A9FED2E7A67EE877AC7ED48
:10599000067A7B697B62274A7B691360D7ED067ABA
:1059A0009FED287AF4EEC77AF1EE10FA01DD264B6E
:1059B000BB61D7ED027AF0EEE77AB6EE007AF4EE4C
:1059C000C77AF1EE10FA02D54FF00003BB6097EDF5
:1059D000027AD7ED087A77EE277AB6EE007A27EECC
:1059E000877AD7ED067A27EE277A0F4BD3ED007A28
:1059F00077EE277A0C4BC3ED007ABB683B62BB683D
:105A0000034A136088E700BF86E732E7200B0020D7
:105A10001C0B002018050020242301083023010856
:105A200033338341180B00200C0B0020100B002097
:105A3000080B0020240B0020180000203C23010844
:105A40006F12833ACDCC4C3DCDCC4C3D80B582B06D
:105A500000AF786004210C4805F0AEF8FEF748F876
:105A60000A4B00221A7002E0012007F056FC074B97
:105A70001B78DBB283F00103DBB2002BF4D13C20B6
:105A800007F04BFCEAE700BF44060020D0070020E7
:105A900080B588B000AF78604A4B7B614FF000035F
:105AA000FB614FF00003BB61474B1B887B82464B79
:105AB0005B883B827B8A07EE903AF8EE677A9FED2F
:105AC000437A27EE877ADFED426AC7EE267AC7ED82
:105AD000037A3B8A07EE903AF8EE677A9FED3B7ABD
