:020000040800F2
:10000000000002208D620008C15A0008C95A000889
:10001000D15A0008D95A0008E15A0008000000002F
:1000200000000000000000000000000011D20008E5
:10003000E95A00080000000061D40008F75A0008DF
:10004000DD620008DD620008DD620008DD62000894
:10005000DD620008DD620008DD620008DD62000884
:10006000DD620008DD620008DD620008DD62000874
:10007000DD620008DD620008DD620008DD62000864
:10008000DD620008DD620008DD620008DD62000854
:10009000DD620008DD620008DD620008DD62000844
:1000A000DD620008DD620008DD620008DD62000834
:1000B000DD620008DD620008DD620008DD62000824
:1000C000DD620008DD620008DD620008DD62000814
:1000D000DD620008DD620008DD620008115B0008D7
:1000E000DD620008DD620008DD620008DD620008F4
:1000F000DD620008DD620008255B0008DD620008A3
:10010000DD620008DD620008DD620008DD620008D3
:10011000DD620008DD620008DD620008DD620008C3
:10012000395B0008DD620008DD620008DD6200085E
:10013000DD620008DD620008DD620008DD620008A3
:10014000DD620008DD620008DD620008DD62000893
:10015000DD620008DD620008DD620008DD62000883
:10016000DD620008DD620008DD620008DD62000873
:10017000DD620008DD620008DD62000800000000AA
:08018000DD620008DD620008E9
:1001900010B5054C237833B9044B13B10448AFF3C1
:1001A00000800123237010BD000200200000000029
:1001B0000411010808B5034B1BB103490348AFF311
:1001C000008008BD000000000402002004110108A6
:1001D00010F8012B11F8013B012A28BF9A42F7D0F1
:1001E000D01A70470000000000000000000000006E
:1001F00001F0FF01102A2BDB10F0070F08D010F8D8
:10020000013B013A8B422DD010F0070F42B3F6D1DB
:10021000F0B441EA012141EA014122F007047FF0F4
:1002200000070023F0E80256083C85EA010586EA4B
:10023000010685FA47F5A3FA87F586FA47F6A5FA87
:1002400087F68EB9EED1F0BC01F0FF0102F0070293
:1002500032B110F8013B013A83EA010313B1F8D13E
:100260000020704701387047002D06BF354603381F
:10027000073815F0010F07D1013015F4807F02BF58
:10028000013015F4C03F0130F0BC0138704700BFA9
:10029000034613F8012B002AFBD1181A01387047C6
:1002A00081F0004102E000BF83F0004330B54FEA27
:1002B00041044FEA430594EA050F08BF90EA020F94
:1002C0001FBF54EA000C55EA020C7FEA645C7FEA27
:1002D000655C00F0E2804FEA5454D4EB5555B8BF4A
:1002E0006D420CDD2C4480EA020281EA030382EABB
:1002F000000083EA010180EA020281EA0303362D4D
:1003000088BF30BD11F0004F4FEA01314FF4801C1F
:100310004CEA113102D0404261EB410113F0004F31
:100320004FEA03334CEA133302D0524263EB4303E8
:1003300094EA050F00F0A780A4F10104D5F1200E86
:100340000DDB02FA0EFC22FA05F2801841F10001E1
:1003500003FA0EF2801843FA05F359410EE0A5F1B5
:1003600020050EF1200E012A03FA0EFC28BF4CF0E6
:10037000020C43FA05F3C01851EBE37101F000459C
:1003800007D54FF0000EDCF1000C7EEB00006EEBA9
:100390000101B1F5801F1BD3B1F5001F0CD3490833
:1003A0005FEA30004FEA3C0C04F101044FEA44528A
:1003B00012F5800F80F09A80BCF1004F08BF5FEA11
:1003C000500C50F1000041EB045141EA050130BDF1
:1003D0005FEA4C0C404141EB0101013C28BFB1F503
:1003E000801FE9D291F0000F04BF01460020B1FA4E
:1003F00081F308BF2033A3F10B03B3F120020CDA21
:100400000C3208DD02F1140CC2F10C0201FA0CF0FE
:1004100021FA02F10CE002F11402D8BFC2F1200C63
:1004200001FA02F120FA0CFCDCBF41EA0C01904019
:10043000E41AA2BF01EB0451294330BD6FEA040462
:100440001F3C1CDA0C340EDC04F11404C4F120024D
:1004500020FA04F001FA02F340EA030021FA04F35F
:1004600045EA030130BDC4F10C04C4F1200220FAB6
:1004700002F001FA04F340EA0300294630BD21FAF4
:1004800004F0294630BD94F0000F83F4801306BFBA
:1004900081F480110134013D4EE77FEA645C18BFAE
:1004A0007FEA655C29D094EA050F08BF90EA020F45
:1004B00005D054EA000C04BF1946104630BD91EA3D
:1004C000030F1EBF0021002030BD5FEA545C05D140
:1004D0004000494128BF41F0004130BD14F580047F
:1004E0003CBF01F5801130BD01F0004545F0FE41F3
:1004F00041F470014FF0000030BD7FEA645C1ABF28
:10050000194610467FEA655C1CBF0B46024650EA5E
:10051000013406BF52EA033591EA030F41F400218A
:1005200030BD00BF90F0000F04BF0021704730B510
:100530004FF4806404F132044FF000054FF00001E5
:1005400050E700BF90F0000F04BF0021704730B5A6
:100550004FF4806404F1320410F0004548BF40427B
:100560004FF000013EE700BF42004FEAE2014FEAD0
:1005700031014FEA02701FBF12F07F4393F07F4FAB
:1005800081F06051704732F07F4208BF704793F0AE
:100590007F4F04BF41F40021704730B54FF46074C1
:1005A00001F0004521F000411CE700BF50EA0102C4
:1005B00008BF704730B54FF000050AE050EA01026D
:1005C00008BF704730B511F0004502D5404261EBDD
:1005D00041014FF4806404F132045FEA915C3FF41E
:1005E000D8AE4FF003025FEADC0C18BF03325FEABB
:1005F000DC0C18BF033202EBDC02C2F1200300FA6C
:1006000003FC20FA02F001FA03FE40EA0E0021FA90
:1006100002F11444BDE600BF70B54FF0FF0C4CF47E
:10062000E06C1CEA11541DBF1CEA135594EA0C0F30
:1006300095EA0C0F00F0DEF82C4481EA030621EA6B
:100640004C5123EA4C5350EA013518BF52EA0335A6
:1006500041F4801143F4801338D0A0FB02CE4FF058
:100660000005E1FB02E506F00042E0FB03E54FF088
:100670000006E1FB03569CF0000F18BF4EF0010E80
:10068000A4F1FF04B6F5007F64F5407404D25FEA7C
:100690004E0E6D4146EB060642EAC62141EA55512F
:1006A0004FEAC52040EA5E504FEACE2EB4F1FD0C71
:1006B00088BFBCF5E06F1ED8BEF1004F08BF5FEAEF
:1006C000500E50F1000041EB045170BD06F00046A1
:1006D00046EA010140EA020081EA0301B4EB5C044E
:1006E000C2BFD4EB0C0541EA045170BD41F4801146
:1006F0004FF0000E013C00F3AB8014F1360FDEBF6B
:10070000002001F0004170BDC4F10004203C35DA46
:100710000C341BDC04F11404C4F1200500FA05F3C9
:1007200020FA04F001FA05F240EA020001F000426A
:1007300021F0004110EBD37021FA04F642EB0601E0
:100740005EEA430E08BF20EAD37070BDC4F10C040A
:10075000C4F1200500FA04F320FA05F001FA04F2CE
:1007600040EA020001F0004110EBD37041F10001BA
:100770005EEA430E08BF20EAD37070BDC4F12005C5
:1007800000FA05F24EEA020E20FA04F301FA05F22D
:1007900043EA020321FA04F001F0004121FA04F2D5
:1007A00020EA020000EBD3705EEA430E08BF20EAA5
:1007B000D37070BD94F0000F0FD101F000464000DF
:1007C00041EB010111F4801F08BF013CF7D041EA61
:1007D000060195F0000F18BF704703F00046520065
:1007E00043EB030313F4801F08BF013DF7D043EA36
:1007F0000603704794EA0C0F0CEA135518BF95EAEC
:100800000C0F0CD050EA410618BF52EA4306D1D172
:1008100081EA030101F000414FF0000070BD50EA91
:10082000410606BF1046194652EA430619D094EA1B
:100830000C0F02D150EA013613D195EA0C0F05D105
:1008400052EA03361CBF104619460AD181EA030159
:1008500001F0004141F0FE4141F470014FF0000011
:1008600070BD41F0FE4141F4780170BD70B54FF0AC
:10087000FF0C4CF4E06C1CEA11541DBF1CEA13552C
:1008800094EA0C0F95EA0C0F00F0A7F8A4EB05040E
:1008900081EA030E52EA03354FEA013100F0888005
:1008A0004FEA03334FF0805545EA131343EA1263CE
:1008B0004FEA022245EA111545EA10654FEA002683
:1008C0000EF000419D4208BF964244F1FD0404F53C
:1008D000407402D25B084FEA3202B61A65EB030598
:1008E0005B084FEA32024FF480104FF4002CB6EB55
:1008F000020E75EB030E22BFB61A754640EA0C00D5
:100900005B084FEA3202B6EB020E75EB030E22BF14
:10091000B61A754640EA5C005B084FEA3202B6EB55
:10092000020E75EB030E22BFB61A754640EA9C0014
:100930005B084FEA3202B6EB020E75EB030E22BFE4
:10094000B61A754640EADC0055EA060E18D04FEAA2
:10095000051545EA16754FEA06164FEAC30343EA42
:1009600052734FEAC2025FEA1C1CC0D111F4801F0F
:100970000BD141EA00014FF000004FF0004CB6E708
:1009800011F4801F04BF01430020B4F1FD0C88BFA7
:10099000BCF5E06F3FF6AFAEB5EB030C04BFB6EBB2
:1009A000020C5FEA500C50F1000041EB045170BDA5
:1009B0000EF0004E4EEA113114EB5C04C2BFD4EBD2
:1009C0000C0541EA045170BD41F480114FF0000E56
:1009D000013C90E645EA060E8DE60CEA135594EAD2
:1009E0000C0F08BF95EA0C0F3FF43BAF94EA0C0FD5
:1009F0000AD150EA01347FF434AF95EA0C0F7FF44A
:100A000025AF104619462CE795EA0C0F06D152EA9D
:100A100003353FF4FDAE1046194622E750EA410681
:100A200018BF52EA43067FF4C5AE50EA41047FF492
:100A30000DAF52EA43057FF4EBAE12E74FF0FF3CF7
:100A400006E000BF4FF0010C02E000BF4FF0010CC8
:100A50004DF804CD4FEA410C7FEA6C5C4FEA430C41
:100A600018BF7FEA6C5C1BD001B050EA410C0CBF90
:100A700052EA430C91EA030F02BF90EA020F0020F2
:100A8000704710F1000F91EA030F58BF994208BF59
:100A900090422CBFD8176FEAE37040F00100704716
:100AA0004FEA410C7FEA6C5C02D150EA013C07D16D
:100AB0004FEA430C7FEA6C5CD6D152EA033CD3D0B8
:100AC0005DF8040B704700BF8446104662468C46B2
:100AD0001946634600E000BF01B5FFF7B7FF0028E5
:100AE00048BF10F1000F01BD4DF808EDFFF7F4FF0E
:100AF0000CBF012000205DF808FB00BF4DF808ED99
:100B0000FFF7EAFF34BF012000205DF808FB00BFBB
:100B10004DF808EDFFF7E0FF94BF012000205DF8DD
:100B200008FB00BF4DF808EDFFF7CEFF94BF012092
:100B300000205DF808FB00BF4DF808EDFFF7C4FF8B
:100B400034BF012000205DF808FB00BF4FEA410CD4
:100B50007FEA6C5C02D150EA013C0AD14FEA430CB7
:100B60007FEA6C5C02D152EA033C02D14FF00000F4
:100B700070474FF0010070474FEA410212F5001232
:100B800015D211D56FF47873B3EB625212D94FEAD4
:100B9000C12343F0004343EA505311F0004F23FABE
:100BA00002F018BF404270474FF00000704750EA13
:100BB000013005D111F0004008BF6FF000407047D0
:100BC0004FF00000704700BF4FEA4102B2F1E0432E
:100BD00024BFB3F5001CDCF1FE5C0DD901F0004C24
:100BE0004FEAC0024CEA5070B2F1004F40EB830074
:100BF00008BF20F00100704711F0804F21D113F1A0
:100C00003872BCBF01F00040704741F480114FEAD8
:100C10005252C2F11802C2F1200C10FA0CF320FA61
:100C200002F018BF40F001004FEAC1234FEAD3237E
:100C300003FA0CFC40EA0C0023FA02F34FEA4303E8
:100C4000CCE77FEA625307D150EA01331EBF4FF071
:100C5000FE4040F44000704701F0004040F0FE408C
:100C600040F40000704700BF80F0004002E000BF89
:100C700081F0004142001FBF5FEA410392EA030F87
:100C80007FEA226C7FEA236C6AD04FEA1262D2EBD1
:100C90001363C1BFD218414048404140B8BF5B42D6
:100CA000192B88BF704710F0004F40F4000020F06F
:100CB0007F4018BF404211F0004F41F4000121F085
:100CC0007F4118BF494292EA030F3FD0A2F10102CF
:100CD00041FA03FC10EB0C00C3F1200301FA03F10D
:100CE00000F0004302D5494260EB4000B0F5000F30
:100CF00013D3B0F1807F06D340084FEA310102F1EF
:100D00000102FE2A51D2B1F1004F40EBC25008BFA0
:100D100020F0010040EA03007047490040EB00006A
:100D2000013A28BFB0F5000FEDD2B0FA80FCACF16B
:100D3000080CB2EB0C0200FA0CF0AABF00EBC25098
:100D400052421843BCBFD0401843704792F0000F86
:100D500081F4000106BF80F400000132013BB5E7D9
:100D60004FEA41037FEA226C18BF7FEA236C21D04F
:100D700092EA030F04D092F0000F08BF08467047B4
:100D800090EA010F1CBF0020704712F07F4F04D182
:100D9000400028BF40F00040704712F100723CBF95
:100DA00000F50000704700F0004343F0FE4040F4BF
:100DB000000070477FEA226216BF08467FEA23637D
:100DC0000146420206BF5FEA412390EA010F40F468
:100DD000800070474FF0000304E000BF10F00043B4
:100DE00048BF40425FEA000C08BF704743F096439B
:100DF00001464FF000001CE050EA010208BF7047B6
:100E00004FF000030AE000BF50EA010208BF70473C
:100E100011F0004302D5404261EB41015FEA010C51
:100E200002BF84460146002043F0B64308BFA3F149
:100E30008053A3F50003BCFA8CF2083AA3EBC2532B
:100E400010DB01FA02FC634400FA02FCC2F120024A
:100E5000BCF1004F20FA02F243EB020008BF20F081
:100E60000100704702F1200201FA02FCC2F12002E7
:100E700050EA4C0021FA02F243EB020008BF20EADC
:100E8000DC70704753B94AB9002908BF00281CBF5D
:100E90004FF0FF314FF0FF3000F088B9ADF1080C92
:100EA0006DE904CE00F006F8DDF804E0DDE9022388
:100EB00004B070472DE9F047089D0F4604468C4664
:100EC000002B48D18A42164661D9B2FA82F34BB15F
:100ED000C3F1200201FA03FC20FA02F29E4042EA2A
:100EE0000C0C9C404FEA164EB7B2BCFBFEF1220C34
:100EF0000EFB11CC42EA0C4201FB07F0904209D9EB
:100F0000B21801F1FF3C80F0EE80904240F2EB809D
:100F100002393244121AA4B2B2FBFEF00EFB1022C8
:100F200044EA024400FB07F7A74209D9341900F14B
:100F3000FF3280F0DA80A74240F2D7803444023892
:100F400040EA0140E41B00211DB1DC400023C5E95B
:100F50000043BDE8F0878B4206D90DB1C5E9000119
:100F600000210846BDE8F087B3FA83F1002948D193
:100F7000BB4202D3824200F20781841A67EB03026C
:100F800001209446002DE4D0C5E9004CE1E7002A99
:100F900000F09280B2FA82F3002B40F0A8808A1A07
:100FA0004FEA164E1FFA86FC0121200CB2FBFEF719
:100FB0000EFB172240EA02420CFB07F0904207D9D1
:100FC000B21807F1FF3802D2904200F2E2804746A1
:100FD000121AA4B2B2FBFEF00EFB102244EA024445
:100FE0000CFB00FCA44507D9341900F1FF3202D2F2
:100FF000A44500F2CB801046A4EB0C0440EA074065
:10100000A2E7C1F120068B4022FA06FC4CEA030C51
:1010100007FA01F420FA06F3F7404FEA1C4923438C
:1010200000FA01F81FFA8CFEB7FBF9F01C0C09FB63
:10103000107744EA074400FB0EF7A74202FA01F2D8
:101040000AD91CEB040400F1FF3A80F09B80A74210
:1010500040F2988002386444E41B9FB2B4FBF9F379
:1010600009FB134447EA044403FB0EFEA64509D9D5
:101070001CEB040403F1FF3780F08280A6457FD982
:10108000023B644443EA0040A4EB0E04A0FB02E7E9
:10109000BC427346B94663D360D05DB1B8EB03027E
:1010A00064EB090404FA06F622FA01F31E43CC406D
:1010B000C5E9006400214CE76208480842EAC171B2
:1010C0000B0C43EA00438AB242EA0342B3FBF6F157
:1010D000E407B4463746B6461F23B0FBF6F0D21BF2
:1010E00041EA004161E7614614E7104628E7C3F191
:1010F000200120FA01F29E4027FA01F19F403A4375
:101100004FEA164E1FFA86FCB1FBFEF70EFB1710D6
:10111000110C41EA004107FB0CF8884504FA03F47E
:101120003AD9711807F1FF3001D288451FD8A1EBD9
:101130000801B1FBFEF808FB0CF70EFB181192B288
:1011400042EA0142BA422FD2B21808F1FF31C6D2A8
:10115000BA42C4D2A8F102013244C0E7F0459CD2A1
:10116000BEEB020367EB0C070138B94695E7A6EB27
:1011700008084144B81EB1FBFEF808FB0CF7DCE799
:101180003B467FE7504667E70846FBE634440238B3
:1011900032E7023F32441BE7A1EB08013846B1FBBE
:1011A000FEF808FB0CF7C8E7414698E7704700BF18
:1011B00080B485B000AFF860B9607A60FB68074A18
:1011C0001A60BB68064A1A607B6880221A6000BFFA
:1011D0001437BD465DF8047B704700BF1C02002039
:1011E0007002002080B586B004AF78600B46FB70BB
:1011F0001346BB707B68002B03D07B681B68002BF9
:1012000001D1002313E07B681868FB789AB20323AE
:10121000029301230193BB1C00930123D02107F00B
:10122000A5F80346002B0CBF01230023DBB21846B0
:101230000837BD4680BD80B588B004AFF8607A60DD
:101240001A460B46FB7213463B81FB68002B09D004
:10125000FB681B68002B05D07B68002B02D03B8904
:10126000002B01D1002313E0FB681868FB7A9AB2C7
:10127000032302933B8901937B6800930123D021D0
:1012800007F06EF90346002B0CBF01230023DBB2ED
:1012900018461037BD4680BD80B582B000AF78607B
:1012A0000B46FB70FB781B01DBB21A467F21786886
:1012B000FFF798FF034618460837BD4680BD80B546
:1012C00084B000AF786039603B68002B0CD007F128
:1012D0000C02022337217868FFF7ADFF034683F045
:1012E0000103DBB2002B01D000230AE03B7B1BB2E1
:1012F0001B021AB27B7B1BB213431AB23B681A80E3
:10130000012318461037BD4680BD80B584B000AFBC
:10131000786039600023FB737B68002B02D03B6848
:10132000002B01D100238FE07B683A681A607B684C
:101330004FF000025A6000217868FFF7ADFF0346C6
:1013400083F00103DBB2002B0AD1802206217868EA
:10135000FFF748FF034683F00103DBB2002B01D007
:10136000002371E064200BF0DAF800217868FFF7C1
:1013700093FF034683F00103DBB2002B0FD107F18B
:101380000F02012300217868FFF755FF034683F021
:101390000103DBB2002B02D1FB7BEA2B01D000233F
:1013A00052E0012206217868FFF71CFF034683F014
:1013B0000103DBB2002B15D1002207217868FFF76B
:1013C00011FF034683F00103DBB2002B0AD1002298
:1013D00005217868FFF706FF034683F00103DBB2BF
:1013E000002B01D000232FE002217868FFF754FF83
:1013F000034683F00103DBB2002B1FD11122002131
:101400007868FFF7EFFE034683F00103DBB2002BA1
:1014100014D12F2201217868FFF7E4FE034683F000
:101420000103DBB2002B09D100217868FFF734FFFC
:10143000034683F00103DBB2002B01D0002303E05D
:1014400014200BF06CF8012318461037BD4680BD00
:1014500080B582B000AF786039607B68002B02D025
:101460003B68002B01D1002312E0386806F04EFFE4
:1014700005200BF054F8386806F004FE0346002BF4
:1014800001D0002304E039687868FFF73EFF034687
:1014900018460837BD4680BD2DE9B04388B000AF7F
:1014A000F8600B467A607B814FF000024FF000033A
:1014B000C7E90623FB68002B02D07B89002B01D1F2
:1014C000002339E00023FB8221E078680BF027F845
:1014D00007F114031946F868FFF7F1FE034683F09D
:1014E0000103DBB2002B01D0002325E0B7F9143053
:1014F0001BB2DA171C461546D7E9062312EB04087F
:1015000043EB0509C7E90689FB8A0133FB82FA8AA6
:101510007B899A42D9D3D7E90601FFF775FC06EE1D
:10152000900A7B8907EE903AB8EE677AC6EE877A22
:10153000FB68C3ED017A012318462037BD46BDE89C
:10154000B083000080B586B000AFF86087ED020A76
:1015500079607B68002B0BD007F116031946F868F9
:10156000FFF7ADFE034683F00103DBB2002B01D091
:10157000002316E0B7F9163007EE903AB8EEE77A96
:10158000FB68D3ED017A77EE677ADFED086A87EEC4
:10159000A67AD7ED027A67EE277A7B68C3ED007AE8
:1015A000012318461837BD4680BD00BF3333834141
:1015B00080B400AF074B1B78DAB2074B1B78DBB265
:1015C0009A420CBF01230023DBB21846BD465DF8EA
:1015D000047B7047FC0A0020FD0A002080B485B01F
:1015E00000AF3B4683E80300124B1B78DBB20133AC
:1015F000DBB203F01F03FB730F4B1B78DBB2FA7BEC
:101600009A4201D100230EE00A4B1B78DBB20B4A51
:10161000DB0013443A4692E8030083E80300054ADE
:10162000FB7B1370012318461437BD465DF8047B1D
:10163000704700BFFD0A0020FC0A0020FC090020C2
:1016400090B583B000AF7860FFF7B2FF0346002B80
:1016500001D0002316E00D4B1B78DBB279680C4AF1
:101660000C46DB00134493E8030084E80300074BB7
:101670001B78DBB20133DBB203F01F03DAB2034B9A
:101680001A70012318460C37BD4690BDFC0A002095
:10169000FC09002080B400AF72B600BF0021064BE9
:1016A0000A461A70054B0A461A7062B600BF00BFA0
:1016B000BD465DF8047B7047FD0A0020FC0A00204F
:1016C00080B483B000AF78607B681B68054A9342A2
:1016D00002D1054B00221A7000BF0C37BD465DF8E1
:1016E000047B704700480040FE0A002080B500AF30
:1016F000084B1B78DBB2002B0AD1064B01221A7073
:1017000003220549054809F0E2FEFFF7C3FF00E0A8
:1017100000BF80BDFE0A00204415010864070020B8
:1017200080B485B000AF78600E4B5B68FB600E4BF9
:101730001B680E4AA2FB03239A0C7B6802FB03F38F
:10174000BB6000E000BF074B5A68FB68D31ABA6859
:101750009A42F7D800BF00BF1437BD465DF8047B3E
:10176000704700BF001000E02400002083DE1B4310
:1017700080B400AF084BDB68074A43F08073D36046
:10178000064B1B68054A43F00103136000BFBD46CA
:101790005DF8047B704700BFF0ED00E0001000E052
:1017A00080B400AF0C4B1B6841F61F42DA630A4B52
:1017B0001B6841F61F421A64084B1B6841F61F4222
:1017C0005A63064B1B6841F61F429A6300BFBD4631
:1017D0005DF8047B704700BFFC0500208C060020EC
:1017E00080B483B000AF7860074B1B687A68DA6317
:1017F000054B1B6841F61F421A6400BF0C37BD46FB
:101800005DF8047B704700BFFC05002080B483B006
:1018100000AF7860074B1B687A685A63054B1B68FA
:1018200041F61F429A6300BF0C37BD465DF8047B4A
:10183000704700BF8C06002080B483B000AF786092
:10184000074B1B6841F61F42DA63054B1B687A6839
:101850001A6400BF0C37BD465DF8047B704700BFBB
:10186000FC05002080B483B000AF7860074B1B6894
:1018700041F61F425A63054B1B687A689A6300BFA2
:101880000C37BD465DF8047B704700BF8C06002016
:1018900080B400AF044B1A88044B1B689A6300BFE6
:1018A000BD465DF8047B704720000020D406002070
:1018B00080B400AF044B1B68F0229A6300BFBD46A2
:1018C0005DF8047B704700BFD406002080B400AFF1
:1018D000044B1B68F0229A6300BFBD465DF8047B91
:1018E000704700BFD406002080B400AF044B1B68D3
:1018F0006E229A6300BFBD465DF8047B704700BF4F
:10190000D406002080B400AF044B1B686E229A639B
:1019100000BFBD465DF8047B704700BFD4060020C1
:1019200080B400AF064BA4221A80054B1A88054BE1
:101930001B689A6300BFBD465DF8047B704700BF1B
:1019400020000020D406002080B400AF064B972270
:101950001A80054B1A88054B1B689A6300BFBD4669
:101960005DF8047B704700BF20000020D4060020F3
:1019700080B483B000AF78607B68002B01DA00236D
:1019800007E07B68B3F5E15F02DB41F61F4300E04F
:101990007B6818460C37BD465DF8047B704780B401
:1019A00083B000AF78607B68042B08D07B68052B80
:1019B00005D07B68062B02D07B68072B01D1012361
:1019C00000E0002303F00103DBB218460C37BD46EC
:1019D0005DF8047B704780B483B000AF78607B68AB
:1019E000062B02D07B68072B01D1012300E00023E6
:1019F00003F00103DBB218460C37BD465DF8047BEB
:101A0000704780B483B000AF78607B68042B02D04D
:101A10007B68062B01D1012300E0002303F00103C2
:101A2000DBB218460C37BD465DF8047B70470000FA
:101A300080B483B000AF78607B68052B02D07B68F0
:101A4000062B02D14FF07E5300E0054B07EE903A93
:101A5000B0EE670A0C37BD465DF8047B704700BFE7
:101A6000000080BF80B582B000AF78607B68042B37
:101A700002D1FFF71DFF10E07B68052B02D1FFF7B5
:101A800033FF0AE07B68062B02D1FFF71FFF04E05B
:101A90007B68072B01D1FFF735FF00BF0837BD4634
:101AA00080BD80B582B000AF78607868FFF7A9FF8D
:101AB0000346002B02D0FFF747FF01E0FFF730FF9E
:101AC00000BF0837BD4680BD80B500AF1E4B4FF04C
:101AD00000021A6004F0A2FE03461C4A13601C4B6D
:101AE00000221A601B4BD3ED007A9FED1B7A67EE44
:101AF000877AFCEEE77A17EE902A144B1B681344A2
:101B000003F2DC53154A1360154B01221A70154B72
:101B100093ED007A144BD3ED007A77EE677A134B8E
:101B2000C3ED007A124B4FF000021A60114B41F6E0
:101B30001F421A60104B41F61F421A600F4B0122E0
:101B40001A7000BF80BD00BF340B0020380B00208E
:101B50003C0B0020000000200000A042400B0020B1
:101B6000440B0020080B00200C0B00202C0B002045
:101B7000300B00200400002008000020280B00206B
:101B800080B400AF114B4FF000021A60104B0022DE
:101B90001A60104B00221A600F4B00221A600F4B84
:101BA00000221A700E4B4FF000021A600D4B41F6E6
:101BB0001F421A600C4B41F61F421A600B4B002269
:101BC0001A7000BFBD465DF8047B7047340B0020DF
:101BD000380B00203C0B0020400B0020440B002061
:101BE000300B00200400002008000020280B0020FB
:101BF00080B584B000AF87ED010AD7ED017AB6EE6B
:101C0000007A77EE877AFDEEE77A17EE903AC3F521
:101C1000E0531F33FB60F868FFF7AAFE034618463F
:101C20001037BD4680BD000080B586B000AFF860BB
:101C3000B9607A60F868FFF7E4FE0346002B04D031
:101C4000BB687B617B683B6103E07B687B61BB6851
:101C50003B617869FFF78CFE78613869FFF788FE91
:101C600038610E4A7B6913600D4A3B691360F8685E
:101C7000FFF7B1FE0346002B06D07869FFF7DCFDC5
:101C80003869FFF7EFFD05E07869FFF7A9FD3869CE
:101C9000FFF7BCFD00BF1837BD4680BD0400002023
:101CA0000800002080B584B000AF7860FFF778FDB1
:101CB0007868FFF7F6FEFFF763FF294B1B68294A98
:101CC0001360294B1B78DBB2002B3DD0274B1B68E0
:101CD0005B6A9AB2264B1A80264B1B685B6A9AB2E3
:101CE000254B1A80204B1B78DBB207EE903AF8EEBA
:101CF000E77A9FED227A67EE877AB6EE007A77EE82
:101D0000877AFDEEE77A17EE903AFB601C4B0022D3
:101D10001A701C4B01221A707868FFF75CFE0346AC
:101D2000002B07D0FB685B42174A1360174B022257
:101D30001A7005E0144AFB681360144B01221A70F4
:101D4000094B00221A7007E0104B00221A7004F0B1
:101D500065FD03460E4A136000BF1037BD4680BDC7
:101D60000C0B0020100B00204C0B00206C050020F9
:101D7000000B0020B4050020020B0020896D934267
:101D8000660B0020780B0020040B0020EE070020DB
:101D9000F809002080B400AF164B1B78DBB2072B8C
:101DA00022D801A252F823F0C91D0008CD1D000859
:101DB000D11D0008D51D0008D91D0008DD1D000833
:101DC000E11D0008E51D00080B4B0EE00B4B0CE07D
:101DD0000B4B0AE00B4B08E00B4B06E00B4B04E00F
:101DE0000B4B02E00B4B00E00B4B1846BD465DF879
:101DF000047B7047EE07002020110108281101081C
:101E00003011010838110108401101084C11010876
:101E100058110108601101086811010880B58CB0E3
:101E200000AF78607B68FB6209E0FB6A1B782C2BB3
:101E300002D1FB6A20221A70FB6A0133FB62FB6A43
:101E40001B78002BF1D18F4978680CF0B9FBB86290
:101E500005E18D49B86AFEF7BBF90346002B03D1B3
:101E60008A4B01221A70FEE000233B750023BB6100
:101E70008749B86AFEF7ACF90346002B04D10B235F
:101E80003B750023BB61D1E08249B86AFEF7A0F937
:101E90000346002B04D10C233B750023BB61C5E036
:101EA0007D49B86AFEF794F90346002B04D10D234F
:101EB0003B750023BB61B9E07849B86AFEF788F941
:101EC0000346002B04D10E233B750023BB61ADE01C
:101ED0007349B86AFEF77CF90346002B04D1072347
:101EE0003B750023BB61A1E06E49B86AFEF770F94B
:101EF0000346002B04D108233B750023BB6195E00A
:101F0000BB6A1B78662B0ED1BB6A01331B78782B1A
:101F100009D110233B75BB6A023318460BF012FD42
:101F20000346BB6182E0BB6A1B78662B0ED1BB6A9D
:101F300001331B78752B09D10F233B75BB6A023324
:101F400018460BF0FFFC0346BB616FE0BB6A1B78D1
:101F5000662B0ED1BB6A01331B78722B09D1032388
:101F60003B75BB6A023318460BF0ECFC0346BB61C1
:101F70005CE0BB6A1B78662B0ED1BB6A01331B7811
:101F80006C2B09D104233B75BB6A023318460BF056
:101F9000D9FC0346BB6149E0BB6A1B78722B0ED1AA
:101FA000BB6A01331B78722B09D105233B75BB6AD1
:101FB000023318460BF0C6FC0346BB6136E0BB6A31
:101FC0001B78722B0ED1BB6A01331B786C2B09D1A5
:101FD00006233B75BB6A023318460BF0B3FC03467D
:101FE000BB6123E0BB6A1B78662B09D101233B75DB
:101FF000BB6A013318460BF0A5FC0346BB6115E034
:10200000BB6A1B78722B09D102233B75BB6A013373
:1020100018460BF097FC0346BB6107E0BB6A1B78D0
:10202000732B03D109233B750023BB613B7D002B40
:1020300010D007F1140393E80300FFF7CFFA78629A
:102040007B6A002B06D1184A07F1080307CA83E808
:10205000070008E00B4900200CF0B2FAB862BB6A36
:10206000002B7FF4F6AE0A233B7700233B6207F197
:102070001C0393E80300FFF7B1FA00BF3037BD46F9
:1020800080BD00BF6C11010870110108EC07002031
:1020900074110108781101087C11010884110108EC
:1020A0008C110108901101089411010880B483B0CB
:1020B00000AF0346FB71FB79013B0F2B40D801A217
:1020C00052F823F005210008092100080D2100081D
:1020D0001121000815210008192100081D21000800
:1020E000212100082521000841210008292100089C
:1020F0002D21000831210008352100083921000870
:102100003D210008124B1CE0124B1AE0124B18E064
:10211000124B16E0124B14E0124B12E0124B10E07F
:10212000124B0EE0124B0CE0124B0AE0124B08E08F
:10213000124B06E0124B04E0124B02E0124B00E09F
:10214000002318460C37BD465DF8047B704700BF7E
:10215000A0110108A8110108B0110108B811010867
:102160005811010860110108C0110108C8110108C7
:1021700038110108D0110108D4110108D811010843
:10218000E0110108E8110108EC11010880B588B0E0
:1021900000AF3B1D1846FFF753FA0346002B01D151
:1021A00000234CE33B791846FFF780FFF861FB6999
:1021B000002B04D0BB681946F86903F015FE3B7983
:1021C000013B0F2B00F2398301A252F823F000BF2C
:1021D000C5230008572400080925000869250008C0
:1021E000C925000829260008A72600089927000805
:1021F000892600089F26000825230008752300086B
:1022000085220008D52200081122000811220008AA
:10221000934B1B685B6A9AB2924B1A80924B1B6875
:102220005B6A9AB2914B1A80914B1B68914A13607A
:10223000FFF72EFB904B00221A60904B4FF00002EC
:102240001A608F4B6FF000421A60BB68002B02DDF2
:10225000BB689BB200E01A238A4A13803B790F2B9C
:102260000CBF01230023DBB21A46874B1A70874B41
:1022700007221A70864B01221A70864B01221A70AF
:102280000123DCE2764B1B685B6A9AB2754B1A80BD
:10229000754B1B685B6A9AB2744B1A80744B1B684F
:1022A000744A1360FFF7F4FA734B00221A60734B01
:1022B0004FF000021A60724B6FF000421A60734BCD
:1022C00005221A70724B01221A70724B01221A7089
:1022D0000123B4E2624B1B685B6A9AB2614B1A80BD
:1022E000614B1B685B6A9AB2604B1A80604B1B683B
:1022F000604A1360FFF7CCFA5F4B00221A605F4B15
:102300004FF000021A605E4B6FF000421A605F4BA4
:1023100006221A705E4B01221A705E4B01221A705F
:1023200001238CE24E4B1B685B6A9AB24D4B1A80BC
:102330004D4B1B685B6A9AB24C4B1A804C4B1B6826
:102340004C4A1360FFF7A4FA534B00221A60534B18
:102350004FF000021A604A4B6FF000421A604B4B7C
:1023600002221A704A4B01221A704A4B01221A703B
:10237000012364E23A4B1B685B6A9AB2394B1A80BC
:10238000394B1B685B6A9AB2384B1A80384B1B6812
:10239000384A1360FFF77CFA3F4B00221A603F4B2C
:1023A0004FF000021A60364B6FF000421A60374B54
:1023B00003221A70364B01221A70364B01221A7012
:1023C00001233CE2BB683B61254B1B685B6A9AB208
:1023D000244B1A80244B1B685B6A9AB2234B1A80E9
:1023E000234B1B68234A1360FFF752FA3B69002B0B
:1023F0001BDD3B6907EE903AF8EEE77A9FED287A0D
:1024000067EE877AB6EE007A77EE877AFDEEE77AA6
:1024100017EE903AFB601A4AFB6813601B4B0022D0
:102420001A701B4B01221A7010E0184B01221A700F
:10243000134B6FF000421A600F4B00221A600F4BD3
:102440004FF000021A60124B01221A70114B012248
:102450001A700123F3E1BB68002B23DDBB6822E087
:102460006C050020000B0020B4050020020B0020AA
:102470000C0B0020100B0020680B00206C0B0020C0
:10248000040B00201C0000201E000020660B002012
:10249000EE070020780B0020700B0020740B00204A
:1024A000896D93423223BB61A74B1B685B6A9AB26A
:1024B000A64B1A80A64B1B685B6A9AB2A54B1A8082
:1024C000BB6907EE903AF8EEE77A9FEDA37A67EEE4
:1024D000877AB6EE007A77EE877AFDEEE77A17EE26
:1024E000903A5B427B619D4A7B6913609C4B1B6801
:1024F0009C4A1360FFF7CCF99B4B02221A709B4B4E
:1025000001221A7001239AE1BB68002B05DBBB682E
:1025100007EE903AF8EEE77A06E0BB6807EE903AED
:10252000F8EEE77AF1EE677A914BC3ED007A8C4BC7
:1025300093ED007A8E4BD3ED007A77EE677A8D4B70
:10254000C3ED007AFFF7B4F904F068F90346643389
:10255000894A1360894B00221A70834B04221A7037
:10256000FFF7B2FA01236AE1BB68002B05DBBB6809
:1025700007EE903AF8EEE77A06E0BB6807EE903A8D
:10258000F8EEE77AF1EE677A794BC3ED007A744B97
:1025900093ED007A764BD3ED007A77EE277A754B80
:1025A000C3ED007AFFF7A0F904F038F9034664336D
:1025B000714A1360714B00221A706B4B05221A701E
:1025C000FFF782FA01233AE1BB68002B05DBBB6809
:1025D00007EE903AF8EEE77A06E0BB6807EE903A2D
:1025E000F8EEE77AF1EE677A614BC3ED007A5C4B67
:1025F00093ED007A5E4BD3ED007A77EE277A5D4B50
:10260000C3ED007AFFF762F904F008F903463233AC
:10261000594A1360594B01221A70534B06221A7003
:10262000FFF752FA01230AE1BB68002B05DBBB6808
:1026300007EE903AF8EEE77A06E0BB6807EE903ACC
:10264000F8EEE77AF1EE677A494BC3ED007A444B36
:1026500093ED007A464BD3ED007A77EE677A454BDF
:10266000C3ED007AFFF74EF904F0D8F80346323391
:10267000414A1360414B00221A703B4B07221A70EB
:10268000FFF722FA0123DAE0FFF78AF8FFF778FA7A
:10269000FFF7FEF8344B03221A700123CFE0FFF757
:1026A00025F80123CBE0334B1B681846FDF75CFF90
:1026B00002460B463249C1E900232E4B1B681846DF
:1026C000FDF752FF4FF000022E4BFDF7EFFD0246E3
:1026D0000B462D49C1E90023264B1B681846FDF720
:1026E00043FF4FF00002274BFDF7DEFD02460B468D
:1026F00010461946FEF768FA03461E4A1360234B3C
:1027000001221A70224B01221A70174B1B78DBB280
:10271000012B17D00C4B1B685B6A9AB20B4B1A80CB
:102720000B4B1B685B6A9AB20A4B1A80FFF7B0F832
:102730000A4B6FF000421A60164B00221A700A4BC7
:1027400001221A7001237AE06C050020000B0020A2
:10275000B4050020020B0020896D9342040B002079
:102760000C0B0020100B0020EE070020780B00203F
:1027700000000020080B0020480B00204C0B00201C
:10278000800B002000004940880B0020790B0020BE
:102790007A0B0020660B00202B4B1B681846FDF7B8
:1027A000E3FE02460B462949C1E90023264B1B687C
:1027B0001846FDF7D9FE4FF00002254BFDF774FDDA
:1027C00002460B462349C1E900231F4B1B681846EC
:1027D000FDF7CAFE4FF000021D4BFDF767FD0246F4
:1027E0000B4610461946FEF7EFF90346164A1360EA
:1027F000194B02221A70194B01221A70184B1B78C0
:10280000DBB2012B17D0174B1B685B6A9AB2164BD1
:102810001A80164B1B685B6A9AB2154B1A80FFF739
:1028200037F8144B6FF000421A60134B00221A70F5
:102830000B4B01221A70012301E000BF0023184650
:102840002037BD4680BD00BF080B0020800B002054
:1028500000004940880B0020790B00207A0B0020F3
:10286000EE0700206C050020000B0020B4050020BE
:10287000020B0020040B0020660B002080B584B002
:1028800000AF87ED010AD7ED017A9FED1A7AF4EED9
:10289000C77AF1EE10FA01D5174B24E0DFED170AE5
:1028A00097ED010A0DF0C6FFF0EE407A9FED147A25
:1028B00067EE877AC7ED037AD7ED037A9FED117A39
:1028C000F4EEC77AF1EE10FA01DD0B4B0BE0D7ED19
:1028D000037AB2EE047AF4EEC77AF1EE10FA01D57B
:1028E000094B00E0FB6807EE903AB0EE670A10373C
:1028F000BD4680BDCDCCCC3D0000A042333393BF5C
:1029000048E1DE410000A04200002041B0B5B2B075
:1029100000AF7E4B5B6FC7F8C43003F019FF00F0C7
:102920002BF9FEF725FF00F0F5FC00F0D3FC00F0DA
:10293000B7FA00F00DFA00F05FFA00F0A1FC00F029
:10294000A5FB00F011FC00F0D5F900F02BFB00F026
:1029500071F900F06BFC03F06DFE6D4803F01CFA9A
:10296000D7F8C43003F00053002B03D0694803F0BC
:102970007DFA34E0D7F8C43003F08043002B03D055
:10298000654803F073FA2AE0D7F8C43003F08053A7
:10299000002B03D0614803F069FA20E0D7F8C43077
:1029A00003F00073002B03D05D4803F05FFA16E0DC
:1029B000D7F8C43003F08063002B03D0594803F0EC
:1029C00055FA0CE0D7F8C43003F00063002B03D0B5
:1029D000554803F04BFA02E0544803F047FA4B4BDA
:1029E0005B6F4A4A43F08073536701225049514854
:1029F00008F0A3FD02225049504803F083FF504BDA
:102A000007F1A8041D460FCD0FC495E8070084E820
:102A1000070007F1A8030021184609F034FD03461A
:102A2000484A1360484B07F18C041D460FCD0FC474
:102A300095E8070084E8070007F18C030021184699
:102A400009F021FD0346414A1360414B07F1700430
:102A50001D460FCD0FC495E8070084E8070007F175
:102A600070030021184609F00EFD0346394A136031
:102A7000394B07F154041D460FCD0FC495E80700EC
:102A800084E8070007F154030021184609F0FBFC15
:102A90000346324A1360324B07F138041D460FCD0E
:102AA0000FC495E8070084E8070007F13803002108
:102AB000184609F0E8FC03462A4A13602A4B07F13E
:102AC0001C041D460FCD0FC495E8070084E80700DD
:102AD00007F11C030021184609F0D5FC0346234AE0
:102AE0001360234B3C461D460FCD0FC495E80700ED
:102AF00084E807003B460021184609F0C4FC034661
:102B00001C4A136009F0B8FC00BFFDE70038024022
:102B10001C070020F0110108FC110108081201082F
:102B20001812010828120108341201084012010885
:102B3000ED07002064070020500B002070040020E7
:102B400058120108AC07002080120108B0070020CD
:102B5000A8120108B4070020D4120108B807002009
:102B6000FC120108BC07002028130108C007002040
:102B70004C130108C407002080B594B000AF07F1E2
:102B800020033022002118460BF0FEFC07F10C0355
:102B900000221A605A609A60DA601A610023BB60F2
:102BA000224B1B6C214A43F0805313641F4B1B6C58
:102BB00003F08053BB60BB6800237B601C4B1B6829
:102BC0001B4A43F480431360194B1B6803F4804392
:102BD0007B607B6802233B620123FB6210233B6323
:102BE0000023BB6307F12003184606F0C7FA03462B
:102BF000002B01D002F012FC0F23FB6000233B618D
:102C000000237B610023BB610023FB6107F10C0300
:102C10000021184606F02AFD0346002B01D002F0E1
:102C2000FDFB00BF5037BD4680BD00BF00380240ED
:102C30000070004080B584B000AF3B4600221A60AF
:102C40005A609A60DA60284B284A1A60264B4FF483
:102C500040325A60244B00229A60234B01221A61B1
:102C6000214B01221A76204B002283F820201E4B94
:102C70000022DA621C4B1E4A9A621B4B0022DA6069
:102C8000194B0222DA61184B012283F83020164BCF
:102C900000225A61144803F0F1FD0346002B01D0D5
:102CA00002F0BCFB0A233B6001237B600723BB606F
:102CB0003B4619460C4803F04DFF0346002B01D05C
:102CC00002F0ACFB0B233B6002237B603B461946C2
:102CD000054803F03FFF0346002B01D002F09EFBA6
:102CE00000BF1037BD4680BD7004002000200140A9
:102CF0000100000F80B500AF124B134A1A60114B50
:102D0000124A5A600F4B00229A600E4B0022DA6082
:102D10000C4B4FF480421A610A4B00225A61094B56
:102D200000229A61074B0022DA61064B00221A62E8
:102D3000044805F0A7F90346002B01D002F06EFB12
:102D400000BF80BD1805002000580040A08601008B
:102D500080B58CB000AF07F10C0324220021184687
:102D60000BF012FC3B1D00221A605A60214B4FF001
:102D700080421A601F4B00225A601E4B00229A604C
:102D80001C4B4FF6FF72DA601A4B00221A61194B86
:102D900000229A610323FB6000233B6101237B61D6
:102DA0000023BB610A23FB6100233B6201237B629A
:102DB0000023BB620A23FB6207F10C0319460D488E
:102DC00007F024F90346002B01D002F027FB002373
:102DD0007B600023BB603B1D1946064808F00CFAD7
:102DE0000346002B01D002F019FB00BF3037BD466F
:102DF00080BD00BF6C05002080B58CB000AF07F12E
:102E00000C032422002118460BF0BEFB3B1D0022C0
:102E10001A605A60204B214A1A601F4B00225A60E8
:102E20001D4B00229A601C4B4FF6FF72DA601A4B62
:102E300000221A61184B00229A610323FB600023D1
:102E40003B6101237B610023BB610A23FB610023FB
:102E50003B6201237B620023BB620A23FB6207F112
:102E60000C0319460C4807F0D1F80346002B01D09B
:102E700002F0D4FA00237B600023BB603B1D19469F
:102E8000054808F0B9F90346002B01D002F0C6FA54
:102E900000BF3037BD4680BDB405002000040040AF
:102EA00080B58EB000AF07F1280300221A605A6087
:102EB0009A60DA6007F1200300221A605A603B1D15
:102EC00000221A605A609A60DA601A615A619A6147
:102ED000324B334A1A60314B00225A602F4B00228A
:102EE0009A602E4B41F61F42DA602C4B00221A6189
:102EF0002A4B00229A61294806F096FD0346002BD2
:102F000001D002F08BFA4FF48053BB6207F1280323
:102F10001946224807F0FCFB0346002B01D002F0C3
:102F20007DFA1E4806F0CFFD0346002B01D002F0CB
:102F300075FA00233B6200237B6207F120031946E8
:102F4000164808F059F90346002B01D002F066FA42
:102F500060237B600023BB600023FB6000237B6158
:102F60003B1D082219460D4807F010FB0346002BB5
:102F700001D002F053FA3B1D0C221946074807F016
:102F800005FB0346002B01D002F048FA034802F08B
:102F900087FC00BF3837BD4680BD00BFFC05002060
:102FA0000008004080B58AB000AF07F11803002286
:102FB0001A605A609A60DA6007F1100300221A6002
:102FC0005A603B4600221A605A609A60DA602D4BC4
:102FD0002D4A1A602B4B0F225A602A4B00229A600E
:102FE000284B4FF6FF72DA60264B00221A61254B00
:102FF00000225A61234B00229A61224806F014FDF8
:103000000346002B01D002F009FA4FF48053BB6154
:1030100007F1180319461B4807F07AFB0346002BFB
:1030200001D002F0FBF9174806F06EFE0346002BB4
:1030300001D002F0F3F900233B6100237B6107F12B
:10304000100319460F4808F0D7F80346002B01D0AB
:1030500002F0E4F90A233B6001237B600023BB609C
:103060000023FB603B4604221946064807F0F2F9AC
:103070000346002B01D002F0D1F900BF2837BD462E
:1030800080BD00BF440600200004014080B58CB024
:1030900000AF07F1200300221A605A609A60DA60DC
:1030A0003B1D00221A605A609A60DA601A615A6108
:1030B0009A612B4B2B4A1A60294B00225A60284BED
:1030C00000229A60264B41F61F42DA60244B002210
:1030D0001A61234B00229A61214806F0A5FC0346A1
:1030E000002B01D002F09AF94FF480533B6207F1B4
:1030F000200319461A4807F00BFB0346002B01D0AA
:1031000002F08CF9164806F0DEFC0346002B01D0D5
:1031100002F084F960237B600023BB600023FB6026
:1031200000237B613B1D002219460D4807F02EFA53
:103130000346002B01D002F071F93B1D0422194611
:10314000074807F023FA0346002B01D002F066F986
:10315000034802F0A5FB00BF3037BD4680BD00BF6D
:103160008C0600200040014080B58CB000AF07F114
:10317000200300221A605A609A60DA603B1D002228
:103180001A605A609A60DA601A615A619A61254B36
:10319000254A1A60234BA0225A60224B00229A60D3
:1031A000204B4FF47A72DA601E4B00221A611D4BDD
:1031B00000229A611B4806F037FC0346002B01D021
:1031C00002F02CF94FF480533B6207F120031946BB
:1031D000144807F09DFA0346002B01D002F01EF9B7
:1031E000104806F070FC0346002B01D002F016F9DF
:1031F00060237B600023BB600023FB6000237B61B6
:103200003B1D04221946074807F0C0F90346002B6E
:1032100001D002F003F9034802F042FB00BF30374F
:10322000BD4680BDD40600200018004080B500AF28
:10323000114B124A1A60104B4FF4E1325A600E4B98
:1032400000229A600C4B0022DA600B4B00221A61BC
:10325000094B0C225A61084B00229A61064B00224E
:10326000DA61054808F058F80346002B01D002F057
:10327000D5F800BF80BD00BF1C07002000440040FF
:1032800080B500AF114B124A1A60104B4FF4E13277
:103290005A600E4B00229A600C4B0022DA600B4BF6
:1032A00000221A61094B0C225A61084B00229A61D4
:1032B000064B0022DA61054808F02EF80346002B81
:1032C00001D002F0ABF800BF80BD00BF6407002052
:1032D0000048004080B582B000AF00237B600C4BFB
:1032E0001B6B0B4A43F480031363094B1B6B03F402
:1032F00080037B607B6800220521382003F0A5FF56
:10330000382003F0BEFF00BF0837BD4680BD00BFB8
:103310000038024080B58AB000AF07F114030022E4
:103320001A605A609A60DA601A6100233B61484B68
:103330001B6B474A43F010031363454B1B6B03F0B1
:1033400010033B613B690023FB60414B1B6B404A10
:1033500043F0040313633E4B1B6B03F00403FB6059
:10336000FB680023BB603A4B1B6B394A43F00103F7
:103370001363374B1B6B03F00103BB60BB68002377
:103380007B60334B1B6B324A43F002031363304BB9
:103390001B6B03F002037B607B6800233B602C4BBC
:1033A0001B6B2B4A43F008031363294B1B6B03F081
:1033B00008033B603B6800224FF48071254804F00D
:1033C0002DFE00224FF4F041234804F027FE002296
:1033D0004021224804F022FE4FF480737B610123D8
:1033E000BB610023FB6100233B6207F11403194614
:1033F000184804F063FB4FF4F0437B610123BB6189
:103400000023FB6100233B6207F1140319461248B5
:1034100004F054FB40237B610123BB610023FB616B
:1034200000233B6207F1140319460C4804F046FBE5
:1034300001237B610023BB610023FB6107F11403BF
:103440001946044804F03AFB00BF2837BD4680BD4A
:103450000038024000100240000C02400008024008
:1034600080B500AF002240210A4804F0D7FD0220B9
:10347000FEF756F901224021064804F0CFFD0A204C
:10348000FEF74EF900224021024804F0C7FD00BFBC
:1034900080BD00BF0008024080B487B000AFF86074
:1034A000B9607A60FA68BB68934238BF13467A689D
:1034B000934238BF13467B61FA68BB68934228BFCA
:1034C00013467A68934228BF13463B61FA68BB688B
:1034D0001A447B681A447B69D21A3B69D31A18468E
:1034E0001C37BD465DF8047B7047000080B584B092
:1034F00000AF78607B681B684A4A934240F08D8039
:103500007B681B7F022B40F08880474B1B78DBB227
:10351000002B17D17B681B6800225A627B681B68EE
:103520001A6A7B681B6822F0A0021A627B681B681B
:103530001A6A7B681B6842F020021A623A4B012229
:103540001A706BE00421786807F0AAF903469AB272
:10355000364B1A807B681B681A6A7B681B6822F0EE
:10356000A0021A627B681A687B681B68126A1A627A
:103570002D4B00221A702D4B1B889BB207EE903A00
:10358000F8EEE77A9FED2A7A67EE877AB6EE007A50
:1035900077EE877AFCEEE77A17EE903ABB60254B20
:1035A0001B781946244ABB6842F82130214B1B780E
:1035B000591C224BA3FB01235A0813465B001344FA
:1035C000CA1AD2B21B4B1A701D4B1B78022B05D89E
:1035D0001B4B1B780133DAB2194B1A70BB68FB60C6
:1035E000174B1B78032B09D1134B1B68124A5168E8
:1035F000114A92681846FFF74FFFF860FB6807EE24
:10360000903AF8EE677A0F4BC3ED007A0E4AFB68EA
:1036100013600E4B01221A7000E000BF1037BD4648
:1036200080BD00BF00040140900B0020920B0020E1
:10363000287E8C3CE0070020D4070020ABAAAAAA71
:10364000E1070020CC070020C8070020D007002099
:1036500080B584B000AF78607B681B68224A9342D3
:103660003DD1224B1B78FB73FB7B0D2B02D0FB7BE8
:103670000A2B1DD11E4B1B78002B15D01D4B1B7820
:10368000DBB2002B10D11A4B1B781A461A4B0021C3
:103690009954174B1B7801331A46174917480BF0FA
:1036A0006CF8144B01221A70114B00221A7011E0B1
:1036B0000F4B1B78FF2B0AD00D4B1B785A1CD1B235
:1036C0000B4A117019460C4AFB7B535402E0084B1D
:1036D00000221A7001220549094807F02EFF00BF99
:1036E0001037BD4680BD00BF00480040ED070020F8
:1036F000F0080020F4090020F0070020F408002062
:103700006407002080B485B000AF78607B681B68D8
:10371000354A934261D1354B1B889BB21A4640F61D
:10372000E44302FB03F303F2FF72314BA3FB0213EA
:10373000D21A52081344DB0AFB812C4B5B889BB2E4
:103740001A4640F6E44302FB03F303F2FF72284BF0
:10375000A3FB0213D21A52081344DB0ABB81254B88
:103760001B889BB29A00FB891344234AA2FB0323C4
:103770009B089AB21F4B1A80204B1B889BB29A0061
:10378000BB8913441C4AA2FB03239B089AB21B4B20
:103790001A80164B1B889AB2194B1A80134B5B8800
:1037A0009AB2184B1A80134B1B889BB240F21F32FF
:1037B00093428CBF01230023DBB21A46124B1A70CE
:1037C0000E4B1B889BB240F21F3293428CBF0123E9
:1037D0000023DBB21A460D4B1A7000BF1437BD46EA
:1037E0005DF8047B704700BF00200140500B0020B3
:1037F00001011000620B0020CDCCCCCC640B00206A
:10380000540B0020560B0020600B0020610B0020A1
:1038100080B584B000AF78604123FB734FF48071B2
:10382000044804F014FC4FF47A7008F078FE00BFEE
:10383000F4E700BF0010024080B58EB002AF7860A0
:103840000121784804F0D2FB034687F82F30764BED
:103850001B78012B11D197F82F30002B0DD1734B12
:103860001B780133002B03F00103B8BF5B42DAB2CF
:103870006E4B1A70322008F052FE6B4A97F82F30C8
:1038800013706B4B1B78DBB2002B19D1694A0021F6
:10389000002002F09DFE684A1021002002F098FEF0
:1038A000664A2021002002F093FE654A3021002064
:1038B00002F08EFE02F014FD142008F030FEAFE09E
:1038C0005A4B1B78002B4BD15E4BD3ED007AFDEEAB
:1038D000E77A07F10C0017EE903A5B4A20210AF0D4
:1038E000D9FD07F10C031A460021002002F070FEFA
:1038F000564BD3ED007AFDEEE77A07F10C0017EE98
:10390000903A534A20210AF0C5FD07F10C031A46EC
:103910001021002002F05CFE4E4B1A684E4B1B68D3
:1039200007F10C00009313464C4A20210AF0B2FD27
:1039300007F10C031A462021002002F049FEFEF791
:1039400029FA034607F10C00454A20210AF0A2FD9E
:1039500007F10C031A463021002002F039FE5AE02C
:10396000324B1B78012B56D13E4B1B6807F10C00E4
:103970003D4A20210AF08EFD07F10C031A46002172
:10398000002002F025FE394B1B889BB21A46384BAB
:103990001B78DBB207F10C0000931346354A202157
:1039A0000AF078FD07F10C031A461021002002F0FE
:1039B0000FFE314B1B889BB21A46304B1B78DBB293
:1039C00007F10C00009313462D4A20210AF062FDF6
:1039D00007F10C031A462021002002F0F9FD294BC3
:1039E000D3ED007ABDEEE77A274BD3ED007AFDEEFA
:1039F000E77A17EE903A07F10C00009317EE103AB1
:103A0000224A20210AF046FD07F10C031A46302114
:103A1000002002F0DDFD02F063FC142008F07FFDC1
:103A20000EE700BF00100240220000209C0B002087
:103A3000200B0020681301087C1301089013010873
:103A4000A41301080C0B0020B8130108080B002078
:103A5000C4130108E4070020E8070020D013010880
:103A6000DC130108C8070020E8130108620B0020DE
:103A7000600B0020FC130108640B0020610B002088
:103A80000C140108940B0020980B00201C14010852
:103A9000B0B5ADF5147D04AF07F51073A3F50F7342
:103AA00018600421B94806F067F8FDF7F1FE082117
:103AB000B74806F061F80C21B54806F05DF8002122
:103AC000B44806F059F80421B24806F055F8FDF75D
:103AD00067FEB14B1B78DBB2002B00F09480EFF354
:103AE000108207F51073A3F588731A6007F5107339
:103AF000A3F588731B68C7F8143272B600BF07F5C8
:103B00001073A3F50473A54A184611464FF4807349
:103B10001A460AF032FEA04B00221A70D7F814326F
:103B2000002B01D162B600BF07F51073A3F5047333
:103B3000002283F8FF200023C7F83C3248E007F555
:103B40001073A3F50472D7F83C3213441B78402B52
:103B50001CD907F51073A3F50472D7F83C3213444F
:103B60001B785A2B12D807F51073A3F50472D7F8F7
:103B70003C3213441B782033D9B207F51073A3F5F8
:103B80000472D7F83C3213440A461A7007F51073D2
:103B9000A3F50472D7F83C3213441B783B2B09D0B1
:103BA00007F51073A3F50472D7F83C3213441B7861
:103BB0002C2B08D107F51073A3F50472D7F83C320B
:103BC000134420221A70D7F83C320133C7F83C3234
:103BD00007F51073A3F50472D7F83C3213441B7831
:103BE000002BACD107F130031846FEF717F96C4BE8
:103BF0001B78DBB2002B06D16A4B1B78DBB2002BA3
:103C000001D1FEF7C3FA664B1B78DBB2002B35D02F
:103C1000634B1B78DBB2032B30D002F0FFFDC7F8FB
:103C20001002614B1B78DBB2002B08D05F4B1B6886
:103C3000D7F81022D31A642B01D9012300E0002306
:103C400087F80F3297F80F3203F0010387F80F322D
:103C5000554B1B78DBB2002B03D097F80F32002BAB
:103C60000CD097F80F32002B01D0514B00E0514B94
:103C7000184602F0FBF84B4B01221A70494B1B7897
:103C8000DBB2002B6ED0464B1B78DAB207F510730F
:103C9000A3F586731A60434B00221A70464B00222C
:103CA0001A70464B00221A60454B4FF000021A6012
:103CB000444B00221A60444B4FF000021A60434B01
:103CC00000221A70424B00221A70FDF769FD414B29
:103CD00000221A6007F51073A3F586731868FDF7C4
:103CE0005EFE0346002B07D007F51073A3F586731D
:103CF0001868FDF7D6FE01E0FDF7CAFD364B00223D
:103D00001A60FDF7C7FC264B00221A70334B0022C5
:103D10001A60334B00221A70FDF732FF07F510735B
:103D2000A3F506732F4A92E8030018600433198044
:103D30002D4B1B78DBB2002B0FD12B4B01221A70BD
:103D400007F1280305221946284807F0C0FB03465F
:103D5000002B02D0244B00221A70052008F0DFFB54
:103D600001F0A8B80E4B1B78DBB2072B01F348809B
:103D7000042B80F26786022B03DC002B38DC01F079
:103D80003FB8032B01F02F8001F03AB8D406002091
:103D9000FC0500208C060020F4090020F408002017
:103DA000EE070020EC070020200B0020240B002051
:103DB000301401083C140108660B0020680B002039
:103DC0006C0B0020700B0020740B0020790B00207E
:103DD0007A0B0020F8090020040B0020480B00207B
:103DE0004C0B00207C140108FE0A00206407002010
:103DF000994BC7F8DC31984BC7F8D8314FF0000326
:103E0000C7F8D431954B1B685B6AA7F8D231944B45
:103E10001B685B6AA7F8D031924B1B889BB2B7F83E
:103E2000D221D31A9BB21BB2C7F8CC318E4B1B8860
:103E30009BB2B7F8D021D31A9BB21BB25B42C7F832
:103E4000C831D7F8CC21D7F8C8311344DA0F13445E
:103E50005B10C7F8C431002387F83B32834B1B68E3
:103E6000002B0ADB814B1B68D7F8C4219A42ACBFF8
:103E70000123002387F83B3209E07C4B1B68D7F80D
:103E8000C4219A42D4BF0123002387F83B32002388
:103E900087F83A32764B1B78DBB2012B40F0098170
:103EA000744B1B78DBB2002B00F00381714B1B7845
:103EB000DBB2013B062B00F2CB8001A252F823F0CB
:103EC000793F0008014000081540000851400008F3
:103ED000294000083D400008DD3E0008664B1B8875
:103EE0009BB21A46654B1B689A422CBF01230023E4
:103EF00087F83A32614B1B68142B00F2AB80604BA1
:103F00001B78DBB2002B00F0A5805E4B1B78DBB288
:103F1000002B15D1594B1B6807F108005A4A202184
:103F20000AF0B8FAC7F8C001564B01221A70D7F848
:103F3000C0319AB207F108031946544807F0C7FA8E
:103F4000534B1B68534A1360FDF7A2FC494B0422F4
:103F50001A70464B504A1A60504B00221A60504B60
:103F600000221A60002387F83A324E4B01221A7061
:103F70003F4B02221A706DE0404B1B681A2B94BF16
:103F80000123002387F83A323C4B1B68142B00F2C4
:103F90008F803C4B1B78DBB2002B15D1374B1B6855
:103FA00007F10800384A20210AF074FAC7F8BC016A
:103FB000344B01221A70D7F8BC319AB207F10803CA
:103FC0001946324807F083FA314B1B68314A1360B7
:103FD000FDF75EFC274B04221A70244B2E4A1A6010
:103FE0002E4B00221A602E4B00221A60002387F805
:103FF0003A322C4B01221A701D4B02221A7057E0E4
:10400000294B1B78DBB2002B0CBF0123002387F860
:104010003A324EE0254B1B78DBB2002B0CBF01235C
:10402000002387F83A3244E01F4B1B78DBB2012BA8
:104030000CBF0123002387F83A323AE01B4B1B7870
:10404000DBB2012B0CBF0123002387F83A3230E0AA
:1040500000BF2EE000BF2CE0A69B443B6C05002077
:10406000B4050020000B0020020B0020040B0020F0
:10407000EE070020660B00201C000020C80700206F
:104080001E000020FE0A00204C14010864070020D6
:10409000080B0020100B002001000080A00B002066
:1040A000A40B0020780B0020610B0020600B002087
:1040B00000BF564B1B78DBB2022B0CD1544B1B7844
:1040C000DBB2042B07D1534B1B68132B8CBF01238E
:1040D000002387F83A3297F83A32002B3BD04C4B0A
:1040E0001B78DBB2012B04D0494B1B78DBB2072BCA
:1040F00031D1494B1B6807EE903AB8EEE77ADFED15
:10410000476AC7EE267A464BC3ED007A454B1B78CB
:10411000DBB2002B1FD1424B1B681846FCF724FA78
:1041200002460B463B49096807F108000291CDE9B8
:1041300000233D4A20210AF0ADF9C7F8B801394BF8
:1041400001221A70D7F8B8319AB207F1080319465C
:10415000364807F0BCF997F83A32002B38D02C4B90
:104160001B78DBB2022B04D0294B1B78DBB2032B6C
:104170002ED12F4B1B6807EE903AB8EEE77ADFEDB1
:10418000276AC7EE267A2B4BC3ED007A254B1B78A6
:10419000DBB2002B1CD1274B1B681846FCF7E4F957
:1041A00002460B4607F10800CDE90023224A2021F0
:1041B0000AF070F9C7F8B4011A4B01221A70D7F847
:1041C000B4319AB207F108031946184807F07FF98D
:1041D00097F83B32002B03D197F83A32002B33D0BB
:1041E000FDF7DEFA0A4B00221A70144B00221A6007
:1041F000134B00221A60054B00221A7002F00EFBCE
:104200000346104A136000F052BE00BFEE070020C4
:10421000660B0020C8070020680B0020896D9342C0
:104220006C0B0020FE0A00205814010864070020CF
:10423000700B0020740B002064140108A00B0020F8
:10424000A40B0020F809002002F0E8FAC7F8B0013A
:10425000C34B1B68002B0BD1C14AD7F8B031136098
:10426000C04AB7F8D2311380BF4AB7F8D0311380B3
:10427000BE4B1B78DBB2002B1CD0BA4AB7F8D23148
:104280001380B94AB7F8D0311380B54AD7F8B031A6
:104290001360B64B00221A70B54B00221A60B54B62
:1042A00000221A60B44B4FF000021A60B34B4FF07B
:1042B00000021A60AB4B1B88B7F8D221D31A9BB20D
:1042C000A7F8AE31A84B1B88B7F8D021D31A9BB200
:1042D000A7F8AC31B7F8AC315B429BB2A7F8AC3170
:1042E000A74B1B78DBB2012B1AD1A64B1B78DBB294
:1042F000012B04D0A34B1B78DBB2072B10D1B7F9ED
:10430000AE21B7F9AC311344DA0F13445B10C7F890
:10431000A8319D4B1A68D7F8A83113449A4A136004
:10432000974B1B78DBB2012B1AD1964B1B78DBB273
:10433000022B04D0934B1B78DBB2032B10D1B7F9BF
:10434000AE21B7F9AC311344DA0F13445B10C7F850
:10435000A4318E4B1A68D7F8A43113448B4A1360EA
:104360007F4B1B68D7F8B021D31AC7F83432D7F87F
:104370003432002B02D10123C7F83432B7F9AE3101
:104380004FF47A7203FB02F2D7F8343292FBF3F364
:10439000C7F8A031B7F9AC314FF47A7203FB02F2DF
:1043A000D7F8343292FBF3F3C7F89C31D7F83432A4
:1043B00007EE903AB8EE677ADFED756AC7EE267AB7
:1043C000C7ED667AD7ED667A9FED727A37EE877A17
:1043D000D7ED666AC6EE877AC7ED657AD7F8A03161
:1043E00007EE903AB8EEE77A634BD3ED007A37EEFA
:1043F000677AD7ED657A27EE277A5F4BD3ED007A9F
:1044000077EE277A5C4BC3ED007AD7F89C3107EE44
:10441000903AB8EEE77A594BD3ED007A37EE677AE7
:10442000D7ED657A27EE277A544BD3ED007A77EEF5
:10443000277A524BC3ED007A4A4AB7F8D23113803B
:10444000494AB7F8D0311380454AD7F8B0311360E4
:10445000494B93ED007A494BD3ED007A77EE677ABA
:10446000FDEEE77A17EE903AC7F890314A4B93ED9C
:10447000007A4A4BD3ED007A77EE677A484BC3ED6A
:10448000007AD7F89031C7F88C31394B1A68D7F8D1
:104490008C311344364A136046F2A813C7F88831AA
:1044A000334B1B68D7F888219A4203DA304AD7F891
:1044B00088311360D7F888315A422D4B1B689A42D5
:1044C00004DDD7F888315B42294A1360294B1B6809
:1044D000D7F88C21D31AC7F88431264AD7F88C3103
:1044E0001360D7F88C3107EE903AB8EEE77AD7ED43
:1044F000777A27EE277A1E4B1B6807EE903AF8EE84
:10450000E76AD7ED767A66EEA77A37EE277AD7F89C
:10451000843107EE903AF8EEE76AD7ED757A66EEE9
:10452000A77A77EE277AC7ED607AD7ED607AFDEE4D
:10453000E77A17EE903AC7F87C3140F6D863C7F8AF
:1045400078310F4B1B78DBB2022B0CBF0123002309
:1045500087F8773197F87731002B25D022E000BF1C
:10456000A80B0020AC0B0020AE0B0020780B002025
:10457000A00B0020A40B0020B00B0020B40B0020E7
:10458000EE070020660B0020680B0020700B002057
:1045900000007A44CDCC4C3D100B00200C0B0020C9
:1045A000140B0020AD4B00E0AD4BC7F870314FF05D
:1045B0007E53C7F86C31D7F8783107EE903AB8EEF1
:1045C000E77AD7ED5C7A67EE277AB6EE007A77EE77
:1045D000877AFDEEE77A17EE903AC7F86831D7F898
:1045E000783107EE903AB8EEE77AD7ED5B7A67EE6E
:1045F000277AB6EE007A77EE877AFDEEE77A17EE45
:10460000903AC7F8643197F8773183F00103DBB251
:10461000002B0ED0D7F86821D7F87C311344C7F8A7
:104620003032D7F86421D7F87C31D31AC7F82C324E
:104630000DE0D7F86821D7F87C31D31AC7F83032AB
:10464000D7F86421D7F87C311344C7F82C32D7F857
:104650003002FDF78DF9C7F83002D7F82C02FDF7CC
:1046600087F9C7F82C027F4B93ED007A7E4BD3ED90
:10467000007A77EE677A7D4BC3ED007A4FF07E5378
:10468000C7F86031794B1B68C7F82832D7ED8A7AB2
:10469000F0EEE77A9FED767AF4EEC77AF1EE10FA53
:1046A00003D54FF00003C7F8283297ED587AD7EDBD
:1046B0008A7A67EE277AFDEEE77A17EE903AC7F826
:1046C0005C316C4B1B88C7F824326B4B1B78DBB218
:1046D000012B07D1D7F82422D7F85C31D31AC7F8B9
:1046E000243206E0D7F82422D7F85C311344C7F807
:1046F0002432D7F824326D2B02DC6E23C7F8243223
:10470000D7F82432F02B02DDF023C7F824325B4ABD
:10471000D7F8303213605A4AD7F82C321360594A0E
:10472000D7F824321360584B1B78DBB2002B00F013
:104730004A81564B1B78DBB2012B68D1524B1B7858
:10474000DBB2012B01D1F52200E06422504B1B6843
:104750009A634D4B1B78DBB2012B1CD107F510730C
:10476000A3F5827341F288321A6007F51073A3F53E
:10477000847341F664121A6007F51073A3F582730F
:104780001868FDF72DF807F51073A3F58473186802
:10479000FDF73CF815E041F28833C7F8443107F5DE
:1047A0001073A3F5807341F664121A60D7F84401C0
:1047B000FDF72CF807F51073A3F580731868FDF763
:1047C0000FF8314B1B78DBB2012B0AD1264B93ED4E
:1047D000007A304BD3ED007AB4EEE77AF1EE10FABE
:1047E00011D9294B1B78DBB2022B40F0F1801E4B14
:1047F00093ED007A274BD3ED007AB4EEE77AF1EE31
:1048000010FAC0F2E580214B02221A70E0E01F4B43
:104810001B78DBB2022B40F0D0801B4B1B78DBB245
:10482000012B01D1642200E0F522194B1B689A6329
:10483000154B1B78DBB2012B2ED141F28833C7F820
:10484000503141F66413C7F84C31D7F85001FCF7EA
:10485000DDFFD7F84C01FCF7C3FF2DE048E17A3FBC
:10486000D9CE873F100B00200C0B0020140B00202A
:104870009A99993E20000020EE0700200C000020AD
:104880001000002014000020790B00207A0B00207B
:10489000D4060020080B002041F28833C7F85831B5
:1048A00041F66413C7F85431D7F85801FCF798FF64
:1048B000D7F85401FCF7AAFF7E4BD3E9002310463A
:1048C0001946FCF781F903467B4A13607B4B1B7842
:1048D000DBB2012B19D17A4B1B681846FBF744FE5B
:1048E00004460D46744B1B681846FBF73DFE4FF01F
:1048F0000002744BFBF7D8FC02460B4620462946C3
:10490000FCF710F90346002B1ED16C4B1B78DBB271
:10491000022B5DD16A4B1B681846FBF725FE044647
:104920000D46654B1B681846FBF71EFE4FF0000254
:10493000644BFBF7BBFC02460B4620462946FCF7BE
:10494000E7F80346002B43D05C4B1B7887F84B31CC
:104950005A4B00221A705C4B00221A70554BD3E957
:10496000002310461946FCF72FF90346524A1360FC
:10497000564B1B68D7F824229A6397F84B31012BCA
:1049800001D1FCF7E1FF97F84B31022B01D1FCF785
:10499000C7FFFCF705FF4E4B00221A704D4B00225B
:1049A0001A604D4B00221A604C4B00221A7001F025
:1049B00035FF03464A4A13600AE0444B1B68D7F8A8
:1049C00024229A6304E0414B1B68D7F824229A639F
:1049D000424B1B78DBB2012B19D1384B1B78DBB271
:1049E000002B14D13F4B1B68D7F83022DA633D4BC4
:1049F0001B6841F61F421A643B4B1B68D7F82C22F8
:104A00005A63394B1B6841F61F429A630BE2334BE2
:104A10001B78DBB2022B40F00682324B1B6841F65A
:104A20001F42DA632F4B1B68D7F830221A642E4BD3
:104A30001B6841F61F425A632B4B1B68D7F82C2288
:104A40009A63F0E1254B1B78DBB2C7F8083201F01E
:104A5000E5FEC7F80402254B1B68002B0FD0234B43
:104A60001B68D7F80422D31A002B08DBFCF798FE4A
:104A70001F4801F0FBF91F4B01221A7017E21E4B71
:104A80001B68002B40D01C4B1B68D7F80422D31A9C
:104A9000002B39DAFCF784FE184B4FF000021A6045
:104AA000174B41F61F421A60164B41F61F421A601F
:104AB000FDE100BF800B0020080B0020790B0020D7
:104AC0000C0B0020000014407A0B0020D4060020BC
:104AD000660B0020A00B0020A40B0020EE07002096
:104AE000F8090020FC0500208C060020400B002067
:104AF0006C140108EC070020480B0020300B00204C
:104B00000400002008000020C84B00221A60C84B97
:104B10001B78DBB2002B01D1FCF7D6FFD7F80802D7
:104B2000FCF786FF87ED800AC24B93ED007AC24BFB
:104B3000D3ED007A77EE677AC7ED7F7A97ED807ACA
:104B4000D7ED7F7A67EE277AC7ED7E7ABB4BD3ED40
:104B5000007A97ED807A67EE277AC7ED7D7AB84ABA
:104B6000D7F8FC311360B24B1B78DBB2022B4BD170
:104B7000FCF716FEB34B4FF000021A60B24B41F641
:104B80001F421A60B14B41F61F421A60B04B1B68BE
:104B9000D7F80422D31A002BC0F28681D7ED7F7A92
:104BA000F0EEE77AB7EE007AF4EEC77AF1EE10FA9B
:104BB0000AD9D7ED7E7AF5EEC07AF1EE10FA03D974
:104BC000A44B1B78022B04D9D7F80802FDF76AF82A
:104BD0006DE1A04B1B780133DAB29E4B1A709E4BED
:104BE0004FF000021A609D4AD7F804321360904BD0
:104BF00001221A70D7F80802FCF734FFD7F8043204
:104C000050338A4A136052E1D7ED7D7AF5EEC07ACF
:104C1000F1EE10FA02DDD7F8F43101E04FF00003B5
:104C2000C7F8F031D7ED7C7A9FED8D7A67EE877A01
:104C3000B7EE007A77EE877AC7ED7B7A97ED7E7ACA
:104C4000D7ED7B7AB4EEE77AF1EE10FA1AD8FCF7DA
:104C5000A7FDD7F80802FCF724FF7A4B4FF00002BB
:104C60001A60794B41F61F421A60784B41F61F4299
:104C70001A606F4B02221A70D7F804329633744AC6
:104C8000136014E1754B1B68D7F80422D31A07EEA2
:104C9000903AF8EE677A9FED737A67EE877AC7ED00
:104CA000887AD7ED887A9FED6F7AF4EEC77AF1EEC5
:104CB00010FA02D56C4BC7F82032D7ED887A9FEDF9
:104CC0006B7AF4EEC77AF1EE10FA02DD684BC7F8A2
:104CD0002032624AD7F80432136097ED7E7AD7ED1E
:104CE000887A27EE277A5C4BD3ED007A77EE277A25
:104CF000C7ED877AD7ED877A9FED5E7AF4EEC77AB3
:104D0000F1EE10FA02DD5C4BC7F81C32D7ED877A62
:104D10009FED5A7AF4EEC77AF1EE10FA02D5584BAD
:104D2000C7F81C32D7ED7E7A9FED567A27EE877A48
:104D3000D7ED877ADFED546A67EEA67A37EE277AE9
:104D4000D7ED7D7A77EEA77A77EE677AC7ED867A28
:104D5000D7ED867A9FED4D7AF4EEC77AF1EE10FA30
:104D600003D53D4AD7F81C321360D7ED867A9FED04
:104D7000477AF4EEC77AF1EE10FA02DD444BC7F839
:104D80001832D7ED867A9FED437AF4EEC77AF1EECA
:104D900010FA02D5404BC7F81832D7F80802FCF7D2
:104DA00030FE3E4BC7F8E83197ED860AFCF720FF4E
:104DB000C7F8E40197ED867AD7ED7A7A67EE277A1D
:104DC000B0EE670AFCF714FFC7F8E0011D4AD7F8F8
:104DD00018321360D7F8E021D7F8E411D7F80802A9
:104DE000FCF722FF63E0FCF7DBFC2D4B00221A707E
:104DF00001F014FD034603F5AF732A4A136056E031
:104E0000FCF7D6FB0346002B09D101F007FD024653
:104E1000244B1B689A4249D3FDF7B8F946E0214B71
:104E200000221A6042E000BF41E000BF480B0020B2
:104E3000280B0020080B00200C0B00201C0B00206E
:104E40002C0B0020300B0020040000200800002064
:104E50003C0B0020440B0020340B0020380B0020BA
:104E6000295C0F3D6F12833A6F12833ACDCC4C3DD3
:104E7000CDCC4C3D0000704200007042000070C27A
:104E8000000070C2000000420000000000C00045A9
:104E900000C0004500802244008022443D0AD73EE5
:104EA000EE070020F809002000BF00E000BF052049
:104EB00007F035FBFEF70DBEF0B52DED068B89B082
:104EC00000AF78603C215D4805F046F93C215C4824
:104ED00005F042F9594B1B685B6AFB83584B1B6812
:104EE0005B6ABB8301F09AFCB86101F097FC7861C2
:104EF0007A69BB69D31A132B40F29C807A69BB692B
:104F0000D31A3B613B69B3F5803F02D23B699BB248
:104F100001E04FF6FF73FB81484B1B685B6ABB8166
:104F2000BA89FB8BD31A9BB21BB21A46454B1A6047
:104F3000BB89FB83424B1B685B6A7B817A89BB8B95
:104F4000D31A9BB21BB21A463F4B1A603E4B1B68EA
:104F50005B423D4A13607B89BB837B69BB61394BF4
:104F60001B6818B2384B1B6819B2384B1B78DBB280
:104F7000002B01D0012200E00022FB8900F0ACFFF1
:104F8000334B93ED008A334BD3ED008A324B93EDD4
:104F9000009A324BD3ED009A314B93ED00AA314B7E
:104FA0001C68314B1D68314B1B78DEB2274B1B78D8
:104FB000DBB21846FCF7F3FC0346002B01D00123BB
:104FC00000E00023324629462046B0EE4A2AF0EEA1
:104FD000691AB0EE491AF0EE680AB0EE480A01F01C
:104FE0006BF81B4BD3ED007A214B93ED007A1A4BF3
:104FF000D3ED006A1F4B93ED006A1F4B18681F4BDF
:1050000019681F4B1A68114B1B78DBB2012B04D0B7
:105010000E4B1B78DBB2022B01D1012300E00023F1
:10502000F0EE461AB0EE661AF0EE470AB0EE670AE6
:1050300001F0C0F8012007F072FA56E76C05002075
:10504000B4050020E4070020E8070020EE07002058
:105050000C0B0020080B00201C0B00202C0B002048
:10506000300B00200400002008000020280B002046
:10507000100B0020140B0020140000200C00002056
:105080001000002080B58AB000AF786007F10C03F3
:1050900000221A605A60664B00221A70654B4FF06E
:1050A00000021A6007F10C0363491846FCF7D0F9B7
:1050B000034683F00103DBB2002B07D05F4800F00A
:1050C000D5FE4FF47A7007F02AFAB0E007F10C032E
:1050D0000A22C8211846FCF7DFF9034683F00103D2
:1050E000DBB2002B07D0564800F0C0FE4FF47A70B8
:1050F00007F015FA9BE097ED047ADFED526AC7EEF0
:10510000267A514BC3ED007A504B4FF000021A60E3
:105110004F4B4FF000021A604E4B4FF000021A60E6
:1051200001F07CFB78624FF000033B620023FB77C9
:10513000494A7B6A13603E4B01221A700A2007F02D
:10514000EEF9464BD3ED007A07F1080207F10C03A4
:105150001146B0EE670A1846FCF7F4F9034683F0EF
:105160000103DBB2002B14D0FB7F0133FB77FB7F05
:10517000022B5AD92E4B00221A702E4B4FF00002F0
:105180001A60374800F072FE4FF47A7007F0C7F9E2
:1051900081E70023FB7701F041FB78617A697B6A44
:1051A000D31A07EE903AF8EE677A9FED2E7A67EE03
:1051B000877AC7ED067A7B697B62274A7B69136031
:1051C000D7ED067A9FED287AF4EEC77AF1EE10FA61
:1051D00001DD264BBB61D7ED027AF0EEE77AB6EE41
:1051E000007AF4EEC77AF1EE10FA02D54FF0000320
:1051F000BB6097ED027AD7ED087A77EE277AB6EEA4
:10520000007A27EE877AD7ED067A27EE277A0F4BBA
:10521000D3ED007A77EE277A0C4BC3ED007ABB68AA
:105220003B62BB68034A136088E700BF86E732E74A
:10523000200B00201C0B00201805002084140108FE
:105240009014010833338341180B00200C0B00200D
:10525000100B0020080B0020240B00201800002059
:105260009C1401086F12833ACDCC4C3DCDCC4C3D03
:1052700080B582B000AF786004210C4804F09EFD38
:10528000FEF7EEF80A4B00221A7002E0012007F048
:1052900046F9074B1B78DBB283F00103DBB2002B2E
:1052A000F4D13C2007F03BF9EAE700BF44060020B8
:1052B000D007002080B588B000AF78604A4B7B6192
:1052C0004FF00003FB614FF00003BB61474B1B88AD
:1052D0007B82464B5B883B827B8A07EE903AF8EEF6
:1052E000677A9FED437A27EE877ADFED426AC7EE51
:1052F000267AC7ED037A3B8A07EE903AF8EE677A92
:105300009FED3B7A27EE877ADFED3A6AC7EE267A81
:10531000C7ED027AB7EE007AD7ED057A37EE677AF5
:10532000D7ED077A27EE277AD7ED056AD7ED037A0E
:1053300066EEA77A77EE277AC7ED077AB7EE007A9E
:10534000D7ED057A37EE677AD7ED067A27EE277A1A
:10535000D7ED056AD7ED027A66EEA77A77EE277A5F
:10536000C7ED067A244A7B8A1380244A3B8A13803D
:10537000234AFB691360234ABB69136097ED070A50
:10538000FDF77CFAF0EE407A1F4BC3ED007A97ED03
:10539000060AFDF773FAF0EE407A1C4BC3ED007A73
:1053A000D7ED077A9FED1A7AF4EEC77AF1EE10FA8C
:1053B000ACBF01230023DBB21A46164B1A70D7ED9F
:1053C000067A9FED137AF4EEC77AF1EE10FAACBFCD
:1053D00001230023DBB21A460F4B1A700A2007F094
:1053E0009EF800BF72E700BFCDCC4C3E500B0020B2
:1053F0003333534000F07F45540B0020560B002000
:10540000580B00205C0B0020940B0020980B002010
:10541000CDCC4C3F600B0020610B002080B400AF6E
:1054200072B600BF00BFFDE780B582B000AF0023B9
:105430007B60124B5B6C114A43F4804353640F4B07
:105440005B6C03F480437B607B6800233B600B4B09
:105450001B6C0A4A43F080531364084B1B6C03F027
:1054600080533B603B6800220F216FF0010001F088
:10547000ECFE00BF0837BD4680BD00BF00380240CB
:1054800080B58AB000AF786007F1140300221A607B
:105490005A609A60DA601A617B681B682F4A9342EF
:1054A00057D100233B612E4B5B6C2D4A43F4807334
:1054B00053642B4B5B6C03F480733B613B690023AB
:1054C000FB60274B1B6B264A43F004031363244BFA
:1054D0001B6B03F00403FB60FB6803237B61032366
:1054E000BB610023FB6107F1140319461D4802F05C
:1054F000E5FA1D4B1D4A1A601B4B00225A601A4BDD
:1055000000229A60184B0022DA60174B4FF4806239
:105510001A61154B4FF400625A61134B4FF400525D
:105520009A61114B4FF48072DA610F4B00221A62BC
:105530000D4B00225A620C4801F0BEFE0346002BC0
:1055400001D0FFF76BFF7B68074A9A63064A7B68C6
:10555000936300BF2837BD4680BD00BF00200140D7
:105560000038024000080240B804002010640240E5
:1055700080B58AB000AF786007F1140300221A608A
:105580005A609A60DA601A617B681B68194A934214
:105590002CD100233B61184B1B6B174A43F00203CD
:1055A0001363154B1B6B03F002033B613B694FF424
:1055B00040637B611223BB610023FB6103233B62D9
:1055C00004237B6207F1140319460C4802F076FAB3
:1055D0000023FB60084B1B6C074A43F480031364F1
:1055E000054B1B6C03F48003FB60FB6800BF28378E
:1055F000BD4680BD00580040003802400004024013
:1056000080B582B000AF78607B681B680B4A93421C
:105610000FD10B4B1B6C0A4A23F4800313644FF425
:105620008061084802F0E6FB4FF40061054802F093
:10563000E1FB00BF0837BD4680BD00BF00580040F9
:10564000003802400004024080B58CB000AF7860A2
:1056500007F11C0300221A605A609A60DA601A612E
:105660007B681B68B3F1804F4BD10023BB613F4B7C
:105670001B6C3E4A43F0010313643C4B1B6C03F06C
:105680000103BB61BB6900237B61384B1B6B374A4D
:1056900043F001031363354B1B6B03F001037B6184
:1056A0007B6900233B61314B1B6B304A43F00203A3
:1056B00013632E4B1B6B03F002033B613B694FF4FA
:1056C0000043FB6102233B6200237B620023BB6239
:1056D0000123FB6207F11C031946254802F0EEF98D
:1056E0000823FB6102233B6200237B620023BB6231
:1056F0000123FB6207F11C0319461E4802F0DEF984
:1057000030E07B681B681C4A93422BD10023FB606E
:10571000164B1B6C154A43F002031364134B1B6CAE
:1057200003F00203FB60FB680023BB600F4B1B6BA5
:105730000E4A43F0020313630C4B1B6B03F002038E
:10574000BB60BB683023FB6102233B6200237B62AA
:105750000023BB620223FB6207F11C0319460548C4
:1057600002F0ACF900BF3037BD4680BD00380240C2
:1057700000000240000402400004004080B58CB0EC
:1057800000AF786007F11C0300221A605A609A602B
:10579000DA601A617B681B683B4A93420ED1002392
:1057A000BB613A4B1B6C394A43F004031364374B1B
:1057B0001B6C03F00403BB61BB6960E07B681B6882
:1057C000334A934234D100237B61304B5B6C2F4AC8
:1057D00043F0020353642D4B5B6C03F002037B61C7
:1057E0007B6900233B61294B1B6B284A43F0040370
:1057F0001363264B1B6B03F004033B613B6980235F
:10580000FB6102233B6200237B620023BB62032314
:10581000FB6207F11C0319461E4802F04FF90022F3
:1058200005212E2001F011FD2E2001F02AFD26E099
:105830007B681B68184A93420ED10023FB60134B10
:105840005B6C124A43F480335364104B5B6C03F47B
:105850008033FB60FB6812E07B681B680F4A934251
:105860000DD10023BB60094B1B6C084A43F0400379
:105870001364064B1B6C03F04003BB60BB6800BFA6
:105880003037BD4680BD00BF0008004000380240F0
:1058900000040140000802400040014000180040A0
:1058A00080B58AB000AF786007F1140300221A6057
:1058B0005A609A60DA601A617B681B68374A9342C3
:1058C0001FD100233B61364B1B6B354A43F002036B
:1058D0001363334B1B6B03F002033B613B694FF4D3
:1058E00040737B610223BB610023FB6100233B62A9
:1058F00002237B6207F1140319462A4802F0DEF8FE
:1059000047E07B681B68284A93421ED10023FB6056
:10591000234B1B6B224A43F010031363204B1B6B7A
:1059200003F01003FB60FB6860237B610223BB6113
:105930000023FB6100233B6203237B6207F1140316
:1059400019461A4802F0BAF823E07B681B68184A27
:1059500093421ED10023BB60114B1B6B104A43F0D6
:10596000020313630E4B1B6B03F00203BB60BB68A7
:105970004FF400437B610223BB610023FB610023E2
:105980003B6209237B6207F114031946054802F0C4
:1059900095F800BF2837BD4680BD00BF0008004015
:1059A0000038024000040240004001400010024064
:1059B0000018004080B58CB000AF786007F11C0380
:1059C00000221A605A609A60DA601A617B681B686C
:1059D000364A93422CD10023BB61354B1B6C344AB1
:1059E00043F400331364324B1B6C03F40033BB618C
:1059F000BB6900237B612E4B1B6B2D4A43F00103D7
:105A000013632B4B1B6B03F001037B617B690C233E
:105A1000FB6102233B6200237B620323BB620723FB
:105A2000FB6207F11C031946224802F047F839E0EF
:105A30007B681B68204A934234D100233B611C4B96
:105A40001B6C1B4A43F480231364194B1B6C03F437
:105A500080233B613B690023FB60154B1B6B144AA1
:105A600043F008031363124B1B6B03F00803FB6046
:105A7000FB684FF44073FB6102233B6200237B62AF
:105A80000323BB620723FB6207F11C0319460B4883
:105A900002F014F800220521272001F0D6FB272070
:105AA00001F0EFFB00BF3037BD4680BD0044004031
:105AB000003802400000024000480040000C024054
:105AC00080B400AF00BFFDE780B400AF00BFFDE7CA
:105AD00080B400AF00BFFDE780B400AF00BFFDE7BA
