:020000040800F2
:100000000000022039860008C57B0008CD7B00086F
:10001000D57B0008DD7B0008E57B000800000000C0
:10002000000000000000000000000000C1F5000812
:10003000ED7B00080000000011F80008FB7B0008C1
:100040008986000889860008898600088986000854
:100050008986000889860008898600088986000844
:100060008986000889860008898600088986000834
:100070008986000889860008898600088986000824
:100080008986000889860008898600088986000814
:100090008986000889860008898600088986000804
:1000A00089860008898600088986000889860008F4
:1000B00089860008898600088986000889860008E4
:1000C00089860008898600088986000889860008D4
:1000D000898600088986000889860008157C000842
:1000E00089860008898600088986000889860008B4
:1000F0008986000889860008297C0008898600080E
:100100008986000889860008898600088986000893
:100110008986000889860008898600088986000883
:100120003D7C0008898600088986000889860008C9
:100130008986000889860008898600088986000863
:100140008986000889860008898600088986000853
:100150008986000889860008898600088986000843
:100160008986000889860008898600088986000833
:10017000898600088986000889860008000000003A
:08018000898600088986000849
:1001900010B5054C237833B9044B13B10448AFF3C1
:1001A00000800123237010BD080200200000000021
:1001B0003C35010808B5034B1BB103490348AFF3B5
:1001C000008008BD000000000C0200203C35010842
:1001D00010F8012B11F8013B012A28BF9A42F7D0F1
:1001E000D01A70470000000000000000000000006E
:1001F00001F0FF01102A2BDB10F0070F08D010F8D8
:10020000013B013A8B422DD010F0070F42B3F6D1DB
:10021000F0B441EA012141EA014122F007047FF0F4
:1002200000070023F0E80256083C85EA010586EA4B
:10023000010685FA47F5A3FA87F586FA47F6A5FA87
:1002400087F68EB9EED1F0BC01F0FF0102F0070293
:1002500032B110F8013B013A83EA010313B1F8D13E
:100260000020704701387047002D06BF354603381F
:10027000073815F0010F07D1013015F4807F02BF58
:10028000013015F4C03F0130F0BC0138704700BFA9
:10029000034613F8012B002AFBD1181A01387047C6
:1002A00081F0004102E000BF83F0004330B54FEA27
:1002B00041044FEA430594EA050F08BF90EA020F94
:1002C0001FBF54EA000C55EA020C7FEA645C7FEA27
:1002D000655C00F0E2804FEA5454D4EB5555B8BF4A
:1002E0006D420CDD2C4480EA020281EA030382EABB
:1002F000000083EA010180EA020281EA0303362D4D
:1003000088BF30BD11F0004F4FEA01314FF4801C1F
:100310004CEA113102D0404261EB410113F0004F31
:100320004FEA03334CEA133302D0524263EB4303E8
:1003300094EA050F00F0A780A4F10104D5F1200E86
:100340000DDB02FA0EFC22FA05F2801841F10001E1
:1003500003FA0EF2801843FA05F359410EE0A5F1B5
:1003600020050EF1200E012A03FA0EFC28BF4CF0E6
:10037000020C43FA05F3C01851EBE37101F000459C
:1003800007D54FF0000EDCF1000C7EEB00006EEBA9
:100390000101B1F5801F1BD3B1F5001F0CD3490833
:1003A0005FEA30004FEA3C0C04F101044FEA44528A
:1003B00012F5800F80F09A80BCF1004F08BF5FEA11
:1003C000500C50F1000041EB045141EA050130BDF1
:1003D0005FEA4C0C404141EB0101013C28BFB1F503
:1003E000801FE9D291F0000F04BF01460020B1FA4E
:1003F00081F308BF2033A3F10B03B3F120020CDA21
:100400000C3208DD02F1140CC2F10C0201FA0CF0FE
:1004100021FA02F10CE002F11402D8BFC2F1200C63
:1004200001FA02F120FA0CFCDCBF41EA0C01904019
:10043000E41AA2BF01EB0451294330BD6FEA040462
:100440001F3C1CDA0C340EDC04F11404C4F120024D
:1004500020FA04F001FA02F340EA030021FA04F35F
:1004600045EA030130BDC4F10C04C4F1200220FAB6
:1004700002F001FA04F340EA0300294630BD21FAF4
:1004800004F0294630BD94F0000F83F4801306BFBA
:1004900081F480110134013D4EE77FEA645C18BFAE
:1004A0007FEA655C29D094EA050F08BF90EA020F45
:1004B00005D054EA000C04BF1946104630BD91EA3D
:1004C000030F1EBF0021002030BD5FEA545C05D140
:1004D0004000494128BF41F0004130BD14F580047F
:1004E0003CBF01F5801130BD01F0004545F0FE41F3
:1004F00041F470014FF0000030BD7FEA645C1ABF28
:10050000194610467FEA655C1CBF0B46024650EA5E
:10051000013406BF52EA033591EA030F41F400218A
:1005200030BD00BF90F0000F04BF0021704730B510
:100530004FF4806404F132044FF000054FF00001E5
:1005400050E700BF90F0000F04BF0021704730B5A6
:100550004FF4806404F1320410F0004548BF40427B
:100560004FF000013EE700BF42004FEAE2014FEAD0
:1005700031014FEA02701FBF12F07F4393F07F4FAB
:1005800081F06051704732F07F4208BF704793F0AE
:100590007F4F04BF41F40021704730B54FF46074C1
:1005A00001F0004521F000411CE700BF50EA0102C4
:1005B00008BF704730B54FF000050AE050EA01026D
:1005C00008BF704730B511F0004502D5404261EBDD
:1005D00041014FF4806404F132045FEA915C3FF41E
:1005E000D8AE4FF003025FEADC0C18BF03325FEABB
:1005F000DC0C18BF033202EBDC02C2F1200300FA6C
:1006000003FC20FA02F001FA03FE40EA0E0021FA90
:1006100002F11444BDE600BF70B54FF0FF0C4CF47E
:10062000E06C1CEA11541DBF1CEA135594EA0C0F30
:1006300095EA0C0F00F0DEF82C4481EA030621EA6B
:100640004C5123EA4C5350EA013518BF52EA0335A6
:1006500041F4801143F4801338D0A0FB02CE4FF058
:100660000005E1FB02E506F00042E0FB03E54FF088
:100670000006E1FB03569CF0000F18BF4EF0010E80
:10068000A4F1FF04B6F5007F64F5407404D25FEA7C
:100690004E0E6D4146EB060642EAC62141EA55512F
:1006A0004FEAC52040EA5E504FEACE2EB4F1FD0C71
:1006B00088BFBCF5E06F1ED8BEF1004F08BF5FEAEF
:1006C000500E50F1000041EB045170BD06F00046A1
:1006D00046EA010140EA020081EA0301B4EB5C044E
:1006E000C2BFD4EB0C0541EA045170BD41F4801146
:1006F0004FF0000E013C00F3AB8014F1360FDEBF6B
:10070000002001F0004170BDC4F10004203C35DA46
:100710000C341BDC04F11404C4F1200500FA05F3C9
:1007200020FA04F001FA05F240EA020001F000426A
:1007300021F0004110EBD37021FA04F642EB0601E0
:100740005EEA430E08BF20EAD37070BDC4F10C040A
:10075000C4F1200500FA04F320FA05F001FA04F2CE
:1007600040EA020001F0004110EBD37041F10001BA
:100770005EEA430E08BF20EAD37070BDC4F12005C5
:1007800000FA05F24EEA020E20FA04F301FA05F22D
:1007900043EA020321FA04F001F0004121FA04F2D5
:1007A00020EA020000EBD3705EEA430E08BF20EAA5
:1007B000D37070BD94F0000F0FD101F000464000DF
:1007C00041EB010111F4801F08BF013CF7D041EA61
:1007D000060195F0000F18BF704703F00046520065
:1007E00043EB030313F4801F08BF013DF7D043EA36
:1007F0000603704794EA0C0F0CEA135518BF95EAEC
:100800000C0F0CD050EA410618BF52EA4306D1D172
:1008100081EA030101F000414FF0000070BD50EA91
:10082000410606BF1046194652EA430619D094EA1B
:100830000C0F02D150EA013613D195EA0C0F05D105
:1008400052EA03361CBF104619460AD181EA030159
:1008500001F0004141F0FE4141F470014FF0000011
:1008600070BD41F0FE4141F4780170BD70B54FF0AC
:10087000FF0C4CF4E06C1CEA11541DBF1CEA13552C
:1008800094EA0C0F95EA0C0F00F0A7F8A4EB05040E
:1008900081EA030E52EA03354FEA013100F0888005
:1008A0004FEA03334FF0805545EA131343EA1263CE
:1008B0004FEA022245EA111545EA10654FEA002683
:1008C0000EF000419D4208BF964244F1FD0404F53C
:1008D000407402D25B084FEA3202B61A65EB030598
:1008E0005B084FEA32024FF480104FF4002CB6EB55
:1008F000020E75EB030E22BFB61A754640EA0C00D5
:100900005B084FEA3202B6EB020E75EB030E22BF14
:10091000B61A754640EA5C005B084FEA3202B6EB55
:10092000020E75EB030E22BFB61A754640EA9C0014
:100930005B084FEA3202B6EB020E75EB030E22BFE4
:10094000B61A754640EADC0055EA060E18D04FEAA2
:10095000051545EA16754FEA06164FEAC30343EA42
:1009600052734FEAC2025FEA1C1CC0D111F4801F0F
:100970000BD141EA00014FF000004FF0004CB6E708
:1009800011F4801F04BF01430020B4F1FD0C88BFA7
:10099000BCF5E06F3FF6AFAEB5EB030C04BFB6EBB2
:1009A000020C5FEA500C50F1000041EB045170BDA5
:1009B0000EF0004E4EEA113114EB5C04C2BFD4EBD2
:1009C0000C0541EA045170BD41F480114FF0000E56
:1009D000013C90E645EA060E8DE60CEA135594EAD2
:1009E0000C0F08BF95EA0C0F3FF43BAF94EA0C0FD5
:1009F0000AD150EA01347FF434AF95EA0C0F7FF44A
:100A000025AF104619462CE795EA0C0F06D152EA9D
:100A100003353FF4FDAE1046194622E750EA410681
:100A200018BF52EA43067FF4C5AE50EA41047FF492
:100A30000DAF52EA43057FF4EBAE12E74FF0FF3CF7
:100A400006E000BF4FF0010C02E000BF4FF0010CC8
:100A50004DF804CD4FEA410C7FEA6C5C4FEA430C41
:100A600018BF7FEA6C5C1BD001B050EA410C0CBF90
:100A700052EA430C91EA030F02BF90EA020F0020F2
:100A8000704710F1000F91EA030F58BF994208BF59
:100A900090422CBFD8176FEAE37040F00100704716
:100AA0004FEA410C7FEA6C5C02D150EA013C07D16D
:100AB0004FEA430C7FEA6C5CD6D152EA033CD3D0B8
:100AC0005DF8040B704700BF8446104662468C46B2
:100AD0001946634600E000BF01B5FFF7B7FF0028E5
:100AE00048BF10F1000F01BD4DF808EDFFF7F4FF0E
:100AF0000CBF012000205DF808FB00BF4DF808ED99
:100B0000FFF7EAFF34BF012000205DF808FB00BFBB
:100B10004DF808EDFFF7E0FF94BF012000205DF8DD
:100B200008FB00BF4DF808EDFFF7CEFF94BF012092
:100B300000205DF808FB00BF4DF808EDFFF7C4FF8B
:100B400034BF012000205DF808FB00BF4FEA410CD4
:100B50007FEA6C5C02D150EA013C0AD14FEA430CB7
:100B60007FEA6C5C02D152EA033C02D14FF00000F4
:100B700070474FF0010070474FEA410212F5001232
:100B800015D211D56FF47873B3EB625212D94FEAD4
:100B9000C12343F0004343EA505311F0004F23FABE
:100BA00002F018BF404270474FF00000704750EA13
:100BB000013005D111F0004008BF6FF000407047D0
:100BC0004FF00000704700BF4FEA4102B2F1E0432E
:100BD00024BFB3F5001CDCF1FE5C0DD901F0004C24
:100BE0004FEAC0024CEA5070B2F1004F40EB830074
:100BF00008BF20F00100704711F0804F21D113F1A0
:100C00003872BCBF01F00040704741F480114FEAD8
:100C10005252C2F11802C2F1200C10FA0CF320FA61
:100C200002F018BF40F001004FEAC1234FEAD3237E
:100C300003FA0CFC40EA0C0023FA02F34FEA4303E8
:100C4000CCE77FEA625307D150EA01331EBF4FF071
:100C5000FE4040F44000704701F0004040F0FE408C
:100C600040F40000704700BF80F0004002E000BF89
:100C700081F0004142001FBF5FEA410392EA030F87
:100C80007FEA226C7FEA236C6AD04FEA1262D2EBD1
:100C90001363C1BFD218414048404140B8BF5B42D6
:100CA000192B88BF704710F0004F40F4000020F06F
:100CB0007F4018BF404211F0004F41F4000121F085
:100CC0007F4118BF494292EA030F3FD0A2F10102CF
:100CD00041FA03FC10EB0C00C3F1200301FA03F10D
:100CE00000F0004302D5494260EB4000B0F5000F30
:100CF00013D3B0F1807F06D340084FEA310102F1EF
:100D00000102FE2A51D2B1F1004F40EBC25008BFA0
:100D100020F0010040EA03007047490040EB00006A
:100D2000013A28BFB0F5000FEDD2B0FA80FCACF16B
:100D3000080CB2EB0C0200FA0CF0AABF00EBC25098
:100D400052421843BCBFD0401843704792F0000F86
:100D500081F4000106BF80F400000132013BB5E7D9
:100D60004FEA41037FEA226C18BF7FEA236C21D04F
:100D700092EA030F04D092F0000F08BF08467047B4
:100D800090EA010F1CBF0020704712F07F4F04D182
:100D9000400028BF40F00040704712F100723CBF95
:100DA00000F50000704700F0004343F0FE4040F4BF
:100DB000000070477FEA226216BF08467FEA23637D
:100DC0000146420206BF5FEA412390EA010F40F468
:100DD000800070474FF0000304E000BF10F00043B4
:100DE00048BF40425FEA000C08BF704743F096439B
:100DF00001464FF000001CE050EA010208BF7047B6
:100E00004FF000030AE000BF50EA010208BF70473C
:100E100011F0004302D5404261EB41015FEA010C51
:100E200002BF84460146002043F0B64308BFA3F149
:100E30008053A3F50003BCFA8CF2083AA3EBC2532B
:100E400010DB01FA02FC634400FA02FCC2F120024A
:100E5000BCF1004F20FA02F243EB020008BF20F081
:100E60000100704702F1200201FA02FCC2F12002E7
:100E700050EA4C0021FA02F243EB020008BF20EADC
:100E8000DC70704753B94AB9002908BF00281CBF5D
:100E90004FF0FF314FF0FF3000F088B9ADF1080C92
:100EA0006DE904CE00F006F8DDF804E0DDE9022388
:100EB00004B070472DE9F047089D0F4604468C4664
:100EC000002B48D18A42164661D9B2FA82F34BB15F
:100ED000C3F1200201FA03FC20FA02F29E4042EA2A
:100EE0000C0C9C404FEA164EB7B2BCFBFEF1220C34
:100EF0000EFB11CC42EA0C4201FB07F0904209D9EB
:100F0000B21801F1FF3C80F0EE80904240F2EB809D
:100F100002393244121AA4B2B2FBFEF00EFB1022C8
:100F200044EA024400FB07F7A74209D9341900F14B
:100F3000FF3280F0DA80A74240F2D7803444023892
:100F400040EA0140E41B00211DB1DC400023C5E95B
:100F50000043BDE8F0878B4206D90DB1C5E9000119
:100F600000210846BDE8F087B3FA83F1002948D193
:100F7000BB4202D3824200F20781841A67EB03026C
:100F800001209446002DE4D0C5E9004CE1E7002A99
:100F900000F09280B2FA82F3002B40F0A8808A1A07
:100FA0004FEA164E1FFA86FC0121200CB2FBFEF719
:100FB0000EFB172240EA02420CFB07F0904207D9D1
:100FC000B21807F1FF3802D2904200F2E2804746A1
:100FD000121AA4B2B2FBFEF00EFB102244EA024445
:100FE0000CFB00FCA44507D9341900F1FF3202D2F2
:100FF000A44500F2CB801046A4EB0C0440EA074065
:10100000A2E7C1F120068B4022FA06FC4CEA030C51
:1010100007FA01F420FA06F3F7404FEA1C4923438C
:1010200000FA01F81FFA8CFEB7FBF9F01C0C09FB63
:10103000107744EA074400FB0EF7A74202FA01F2D8
:101040000AD91CEB040400F1FF3A80F09B80A74210
:1010500040F2988002386444E41B9FB2B4FBF9F379
:1010600009FB134447EA044403FB0EFEA64509D9D5
:101070001CEB040403F1FF3780F08280A6457FD982
:10108000023B644443EA0040A4EB0E04A0FB02E7E9
:10109000BC427346B94663D360D05DB1B8EB03027E
:1010A00064EB090404FA06F622FA01F31E43CC406D
:1010B000C5E9006400214CE76208480842EAC171B2
:1010C0000B0C43EA00438AB242EA0342B3FBF6F157
:1010D000E407B4463746B6461F23B0FBF6F0D21BF2
:1010E00041EA004161E7614614E7104628E7C3F191
:1010F000200120FA01F29E4027FA01F19F403A4375
:101100004FEA164E1FFA86FCB1FBFEF70EFB1710D6
:10111000110C41EA004107FB0CF8884504FA03F47E
:101120003AD9711807F1FF3001D288451FD8A1EBD9
:101130000801B1FBFEF808FB0CF70EFB181192B288
:1011400042EA0142BA422FD2B21808F1FF31C6D2A8
:10115000BA42C4D2A8F102013244C0E7F0459CD2A1
:10116000BEEB020367EB0C070138B94695E7A6EB27
:1011700008084144B81EB1FBFEF808FB0CF7DCE799
:101180003B467FE7504667E70846FBE634440238B3
:1011900032E7023F32441BE7A1EB08013846B1FBBE
:1011A000FEF808FB0CF7C8E7414698E7704700BF18
:1011B00080B485B000AFF860B9607A60FB68074A18
:1011C0001A60BB68064A1A607B6880221A6000BFFA
:1011D0001437BD465DF8047B704700BF2402002031
:1011E0007802002080B485B000AF4FF47003FB603C
:1011F0004FF42003BB604FF47F437B604FF4884380
:101200003B60134B1B6B03F00203002B16D0114BFA
:101210001A68FB681340BA689A420FD10D4B5B689D
:1012200003F44063B3F5406F08D10A4B5A6A7B68F8
:1012300013403A689A4201D1012300E0002303F0F1
:101240000103DBB218461437BD465DF8047B7047D6
:10125000003802400004024080B584B000AF03466D
:10126000FB8007F0B1FCF8600BE007F0ADFC024634
:10127000FB68D31A042B01D900230BE001200DF0E9
:1012800024FBFB881946054809F086F80346012B24
:10129000EBD1012318461037BD4680BD0004024043
:1012A00080B588B000AF3B1D00221A605A609A607A
:1012B000DA601A610023FB7700233B605D4B1B6BF8
:1012C0005C4A43F0020313635A4B1B6B03F00203A7
:1012D0003B603B6801224FF44061574809F074F8C5
:1012E0004FF440637B601123BB600023FB6000234D
:1012F0003B613B1D1946504808F0B6FD02200DF039
:10130000E4FA4FF48060FFF7A7FF034683F0010380
:10131000DBB2002B7CD10023BB611EE000224FF426
:101320008061454809F050F802200DF0CEFA012204
:101330004FF48061404809F047F84FF48060FFF7B0
:101340008BFF034683F00103DBB2002B62D1022046
:101350000DF0BBFABB690133BB61BB69082B07D831
:101360004FF40061344809F017F80346002BD5D03C
:101370004FF40060FFF770FF034683F00103DBB218
:10138000002B49D100224FF480612B4809F01CF852
:1013900002200DF09AFA00224FF40061264809F06D
:1013A00013F802200DF091FA01224FF480612248D7
:1013B00009F00AF84FF48060FFF74EFF034683F010
:1013C0000103DBB2002B29D102200DF07EFA0122AD
:1013D0004FF40061184808F0F7FF02200DF075FA8D
:1013E0004FF40060FFF738FF0346002B09D04FF49D
:1013F0008061114808F0D0FF0346012B01D1012381
:1014000000E00023FB77FB7F03F00103FB7706E09E
:1014100000BF04E000BF02E000BF00E000BF012207
:101420004FF44061044808F0CFFFFB7F1846203797
:10143000BD4680BD003802400004024080B586B041
:1014400004AF78600B46FB701346BB707B68002BC3
:1014500003D07B681B68002B01D1002313E07B685D
:101460001868FB789AB20323029301230193BB1CF3
:1014700000930123D02109F04FF90346002B0CBF44
:1014800001230023DBB218460837BD4680BD80B576
:1014900088B004AFF8607A601A460B46FB721346B8
:1014A0003B81FB68002B09D0FB681B68002B05D033
:1014B0007B68002B02D03B89002B01D1002313E075
:1014C000FB681868FB7A9AB2032302933B89019365
:1014D0007B6800930123D02109F018FA0346002B02
:1014E0000CBF01230023DBB218461037BD4680BD78
:1014F00080B582B000AF78600B46FB70FB781B01B3
:10150000DBB21A467F217868FFF798FF034618463A
:101510000837BD4680BD80B584B000AF78603960C3
:101520003B68002B0CD007F10C02022337217868AE
:10153000FFF7ADFF034683F00103DBB2002B01D0C0
:1015400000230AE03B7B1BB21B021AB27B7B1BB25F
:1015500013431AB23B681A80012318461037BD4660
:1015600080BD80B584B000AF786039600023FB7324
:101570007B68002B02D03B68002B01D100238FE059
:101580007B683A681A607B684FF000025A6000215D
:101590007868FFF7ADFF034683F00103DBB2002B51
:1015A0000AD1802206217868FFF748FF034683F0BE
:1015B0000103DBB2002B01D0002371E064200DF0A9
:1015C00084F900217868FFF793FF034683F0010355
:1015D000DBB2002B0FD107F10F0201230021786845
:1015E000FFF755FF034683F00103DBB2002B02D166
:1015F000FB7BEA2B01D0002352E001220621786810
:10160000FFF71CFF034683F00103DBB2002B15D16B
:10161000002207217868FFF711FF034683F00103DA
:10162000DBB2002B0AD1002205217868FFF706FF04
:10163000034683F00103DBB2002B01D000232FE02F
:1016400002217868FFF754FF034683F00103DBB201
:10165000002B1FD1112200217868FFF7EFFE03460F
:1016600083F00103DBB2002B14D12F220121786813
:10167000FFF7E4FE034683F00103DBB2002B09D140
:1016800000217868FFF734FF034683F00103DBB2E3
:10169000002B01D0002303E014200DF016F90123E4
:1016A00018461037BD4680BD80B584B000AF786065
:1016B00039607B68002B07D03B68002B04D03B6867
:1016C0001B682A4A934201D000234AE0FFF78AFDB3
:1016D000034683F00103DBB2002B01D0002340E07E
:1016E000386808F0E9FF0346002B01D0002338E0FA
:1016F000FFF7D6FD0346FB730023BB601C4B1B6C3E
:101700001B4A43F480031364194B1B6C03F48003DE
:10171000BB60BB68164B1B6A154A43F48003136217
:1017200001200DF0D2F8124B1B6A114A23F48003FA
:10173000136201200DF0C9F8386808F079FE0346FD
:10174000002B01D000230CE0FB7B83F00103DBB214
:10175000002B01D0002304E039687868FFF701FF0F
:10176000034618461037BD4680BD00BF00580040F4
:10177000003802402DE9B04388B000AFF8600B4656
:101780007A607B814FF000024FF00003C7E9062327
:10179000FB68002B02D07B89002B01D1002339E0AC
:1017A0000023FB8221E078680DF08FF807F1140325
:1017B0001946F868FFF7AFFE034683F00103DBB27A
:1017C000002B01D0002325E0B7F914301BB2DA1743
:1017D0001C461546D7E9062312EB040843EB05091E
:1017E000C7E90689FB8A0133FB82FA8A7B899A4220
:1017F000D9D3D7E90601FFF707FB06EE900A7B89EC
:1018000007EE903AB8EE677AC6EE877AFB68C3EDCA
:10181000017A012318462037BD46BDE8B083000099
:1018200080B586B000AFF86087ED020A79607B680A
:10183000002B0BD007F116031946F868FFF76BFE73
:10184000034683F00103DBB2002B01D0002316E036
:10185000B7F9163007EE903AB8EEE77AFB68D3EDA9
:10186000017A77EE677ADFED086A87EEA67AD7ED20
:10187000027A67EE277A7B68C3ED007A0123184667
:101880001837BD4680BD00BF3333834180B400AFFD
:10189000074B1B78DAB2074B1B78DBB29A420CBFBE
:1018A00001230023DBB21846BD465DF8047B704778
:1018B000040B0020050B002080B485B000AF3B4630
:1018C00083E80300124B1B78DBB20133DBB203F079
:1018D0001F03FB730F4B1B78DBB2FA7B9A4201D1DB
:1018E00000230EE00A4B1B78DBB20B4ADB001344EB
:1018F0003A4692E8030083E80300054AFB7B137035
:10190000012318461437BD465DF8047B704700BFBD
:10191000050B0020040B0020040A002090B583B0C2
:1019200000AF7860FFF7B2FF0346002B01D0002321
:1019300016E00D4B1B78DBB279680C4A0C46DB00D5
:10194000134493E8030084E80300074B1B78DBB2E1
:101950000133DBB203F01F03DAB2034B1A70012329
:1019600018460C37BD4690BD040B0020040A002029
:1019700080B400AF72B600BF0021064B0A461A7051
:10198000054B0A461A7062B600BF00BFBD465DF83F
:10199000047B7047050B0020040B002080B483B04B
:1019A00000AF78607B681B68054A934202D1054B03
:1019B00000221A7000BF0C37BD465DF8047B7047EB
:1019C00000480040060B002080B500AF084B1B7894
:1019D000DBB2002B0AD1064B01221A700322054903
:1019E00005480BF04AFFFFF7C3FF00E000BF80BDD2
:1019F000060B0020483A01086C07002080B485B02F
:101A000000AF78600E4B5B68FB600E4B1B680E4AA4
:101A1000A2FB03239A0C7B6802FB03F3BB6000E08C
:101A200000BF074B5A68FB68D31ABA689A42F7D8C6
:101A300000BF00BF1437BD465DF8047B704700BF90
:101A4000001000E02C00002083DE1B4380B400AFB8
:101A5000084BDB68074A43F08073D360064B1B6872
:101A6000054A43F00103136000BFBD465DF8047BE7
:101A7000704700BFF0ED00E0001000E080B500AF5F
:101A800006F0C6FA0A4B1B6841F61F42DA63084BA0
:101A90001B6841F61F421A64064B1B6841F61F4241
:101AA0005A63044B1B6841F61F429A6300BF80BD16
:101AB000040600209406002080B483B000AF786054
:101AC000074B1B687A68DA63054B1B6841F61F42B7
:101AD0001A6400BF0C37BD465DF8047B704700BF39
:101AE0000406002080B483B000AF7860074B1B6809
:101AF0007A685A63054B1B6841F61F429A6300BF20
:101B00000C37BD465DF8047B704700BF940600208B
:101B100080B400AF064B1B680022DA63044B1B68DD
:101B200000221A6400BFBD465DF8047B704700BF09
:101B30000406002080B400AF064B1B6800225A63E5
:101B4000044B1B6800229A6300BFBD465DF8047B0E
:101B5000704700BF9406002080B483B000AF786067
:101B6000074B1B6841F61F42DA63054B1B687A6816
:101B70001A6400BF0C37BD465DF8047B704700BF98
:101B80000406002080B483B000AF7860074B1B6868
:101B900041F61F425A63054B1B687A689A6300BF7F
:101BA0000C37BD465DF8047B704700BF94060020EB
:101BB00080B400AF044B1A88044B1B689A6300BFC3
:101BC000BD465DF8047B704724000020DC06002041
:101BD00080B400AF044B1B68F0229A6300BFBD467F
:101BE0005DF8047B704700BFDC06002080B400AFC6
:101BF000044B1B68F0229A6300BFBD465DF8047B6E
:101C0000704700BFDC06002080B400AF044B1B68A7
:101C10006E229A6300BFBD465DF8047B704700BF2B
:101C2000DC06002080B400AF044B1B686E229A6370
:101C300000BFBD465DF8047B704700BFDC06002096
:101C400080B400AF064BA4221A80054B1A88054BBE
:101C50001B689A6300BFBD465DF8047B704700BFF8
:101C600024000020DC06002080B400AF064B972241
:101C70001A80054B1A88054B1B689A6300BFBD4646
:101C80005DF8047B704700BF24000020DC060020C4
:101C900080B500AF104B00221A70FFF799FF4FF488
:101CA00016700CF012FEFFF7DFFF4FF4FA700CF025
:101CB0000CFE0A4B1B881A46094B1A60074B1B88FF
:101CC0001A46084B1A60084B4FF000021A60024B8C
:101CD00001221A7000BF80BD400B002024000020AC
:101CE0001800002014000020440B002080B483B0B2
:101CF00000AF78607B68002B01DA002307E07B6887
:101D0000B3F5E15F02DB41F61F4300E07B68184654
:101D10000C37BD465DF8047B704780B483B000AFDC
:101D200078607B68042B08D07B68052B05D07B6826
:101D3000062B02D07B68072B01D1012300E0002392
:101D400003F00103DBB218460C37BD465DF8047B97
:101D5000704780B483B000AF78607B68062B02D0F8
:101D60007B68072B01D1012300E0002303F001036E
:101D7000DBB218460C37BD465DF8047B704780B473
:101D800083B000AF78607B68042B02D07B68062BA1
:101D900001D1012300E0002303F00103DBB2184668
:101DA0000C37BD465DF8047B7047000080B483B0FB
:101DB00000AF78607B68052B02D07B68062B02D1D0
:101DC0004FF07E5300E0054B07EE903AB0EE670A05
:101DD0000C37BD465DF8047B704700BF000080BF34
:101DE00080B582B000AF78607B68042B02D1FFF72A
:101DF000EFFE10E07B68052B02D1FFF705FF0AE03C
:101E00007B68062B02D1FFF7F1FE04E07B68072B0D
:101E100001D1FFF707FF00BF0837BD4680BD80B581
:101E200082B000AF78607868FFF7A9FF0346002B07
:101E300002D0FFF719FF01E0FFF702FF00BF0837EC
:101E4000BD4680BD80B500AF1E4B4FF000021A604A
:101E500006F0BAFE03461C4A13601C4B00221A60AF
:101E60001B4BD3ED007A9FED1B7A67EE877AFCEE71
:101E7000E77A17EE902A144B1B68134403F2DC53E5
:101E8000154A1360154B01221A70154B93ED007A19
:101E9000144BD3ED007A77EE677A134BC3ED007ADB
:101EA000124B4FF000021A60114B41F61F421A60AC
:101EB000104B41F61F421A600F4B01221A7000BFEF
:101EC00080BD00BF480B00204C0B0020500B0020B1
:101ED000000000200000A042540B0020580B0020FE
:101EE000100B0020180B0020380B00203C0B0020AA
:101EF0000400002008000020340B002080B400AF54
:101F0000114B4FF000021A60104B00221A60104B68
:101F100000221A600F4B00221A600F4B00221A7029
:101F20000E4B4FF000021A600D4B41F61F421A6033
:101F30000C4B41F61F421A600B4B00221A7000BF77
:101F4000BD465DF8047B7047480B00204C0B002019
:101F5000500B0020540B0020580B00203C0B00209D
:101F60000400002008000020340B002080B584B05D
:101F700000AF87ED010AD7ED017AB6EE007A77EE71
:101F8000877AFDEEE77A17EE903AC3F5E0531F33F8
:101F9000FB60F868FFF7AAFE034618461037BD46F7
:101FA00080BD000080B586B000AFF860B9607A608F
:101FB000F868FFF7E4FE0346002B04D0BB687B61A2
:101FC0007B683B6103E07B687B61BB683B61786950
:101FD000FFF78CFE78613869FFF788FE38610E4A9A
:101FE0007B6913600D4A3B691360F868FFF7B1FE27
:101FF0000346002B06D07869FFF7AEFD3869FFF77E
:10200000C1FD05E07869FFF757FD3869FFF76AFD04
:1020100000BF1837BD4680BD040000200800002026
:1020200080B584B000AF7860FFF728FD7868FFF7CF
:10203000F6FEFFF763FF2A4B1B682A4A13602A4B00
:102040001B78DBB2002B3DD0284B1B685B6A9AB231
:10205000274B1A80274B1B685B6A9AB2264B1A8063
:10206000214B1B78DBB207EE903AF8EEE77A9FED52
:10207000237A67EE877AB6EE007A77EE877AFDEEFE
:10208000E77A17EE903AFB601D4B00221A701D4B49
:1020900001221A707868FFF75CFE0346002B07D018
:1020A000FB685B42184A1360184B02221A7005E065
:1020B000154AFB681360154B01221A700A4B002267
:1020C0001A7009E0114B00221A7006F07DFD0346DC
:1020D00003F5FA730E4A136000BF1037BD4680BD8A
:1020E000180B00201C0B0020600B00207405002042
:1020F000080B0020BC0500200A0B0020896D9342CC
:102100007A0B00208C0B00200C0B0020F60700201F
:10211000000A002080B584B000AF78607868FEF7D0
:10212000B7F8B860BB685F2B21D80023FB600BE0D9
:102130007A68FB68134419780F4AFB6813440A460F
:102140001A70FB680133FB60FA68BB689A42EFD9EA
:1021500007220A4978680EF0F7FB0346002B02D1EC
:10216000074B01221A70074B01221A7000E000BFD2
:102170001037BD4680BD00BFD00B00205835010888
:10218000CC0B0020CD0B002080B582B000AF786072
:102190007B68044A502104480EF054FB00BF083706
:1021A000BD4680BD60350108480C002080B500AFF9
:1021B000154B1B78002B24D0144B1B78DBB2002B63
:1021C0001FD1134A104B1046194650231A460EF0E1
:1021D000BEFC0E4B01221A700D48FEF759F803465B
:1021E0009BB21A460A490B480BF047FB0346002BEB
:1021F00003D1054B00221A7004E0044B00221A7030
:1022000000E000BF80BD00BF480C0020060B00208E
:10221000980C00206C07002080B500AF0A4B1B68AB
:10222000002B02DDFFF720FD08E0074B1B68002BA9
:1022300002DAFFF705FD01E0FFF7BAFC024B0022CE
:102240001A6000BF80BD00BF340C002080B582B092
:1022500000AFEFF310833B603B687B6072B600BF5A
:10226000164B00221A70164B00221A707B68002B46
:1022700001D162B600BF134B1B78002B01D0FFF7D2
:10228000CBFF104805F036F80F4B00221A700F4BA9
:1022900000221A600E4B00221A600E4B00221A60B8
:1022A0000D4B00221A700D4B00221A700C4B0122AC
:1022B0001A7000BF0837BD4680BD00BFCD0B00209F
:1022C000CC0B0020AC0B0020300C0020380C002080
:1022D0003C0C0020400C0020440C0020480C002046
:1022E0008C0B002080B584B000AF786039602F4B34
:1022F0001B78DBB2FB60FFF7C1FBF868FFF70DFD51
:102300000346002B03D0F868FFF789FD01E0FFF7D3
:1023100083FFFFF72DFBFFF7F1FD254B00221A701D
:10232000244B00221A70244B00221A70234B0022E7
:102330001A60234B1B68234A1360234B00221A7038
:10234000224B00221A60224B00221A60214B0022ED
:102350001A60214B4FF000021A60204B00221A60D5
:102360001F4B4FF000021A601E4B01221A703A6890
:1023700079681D4804F0CBFF1C4B01221A701C4BDE
:1023800000221A701B4B00221A601B4B00221A609D
:102390001A4B00221A601A4B00221A70034B0822B3
:1023A0001A7000BF1037BD4680BD00BFF607002081
:1023B0007A0B00208D0B00208E0B00200C0B0020D0
:1023C000180B00201C0B0020600B00205C0B002071
:1023D000000A00207C0B0020800B0020840B0020D2
:1023E000880B00208C0B0020AC0B0020CC0B0020B5
:1023F000300C0020380C00203C0C0020400C002049
:10240000440C002080B590B000AF3B1D83E807006E
:102410007B68002B04D0FB68002B01DD012200E06B
:102420000022914B1A70904B1B78DBB2002B25D108
:102430008E4B1B78002B06D0FFF720FBFFF7ECFE3E
:102440008B4B01221A70894B00221A70894B002293
:102450001A60894B00221A60884B41F61F421A60AD
:10246000874B41F61F421A60864B1B881A46864BE3
:102470001A60864B08221A700123F0E0FB687E4A3E
:102480001360BB68002B2FD1784B1B78012B04D134
:102490007A68784B1B689A4216D0FFF7EFFAFFF77D
:1024A000BBFE7B4B1B687B4A13607B4B00221A7080
:1024B0007B68002B02DD6FF0004300E0774B784A29
:1024C00013606B4B01221A70684B01221A707B68F3
:1024D000684A13607B68002B01DD012200E00222C4
:1024E0006A4B1A700023BAE07B68DB0FDBB2BB6378
:1024F000BB68002BCCBF01230023DBB27B63BB682E
:10250000002BB8BF5B423B63BB6B002B06D17B6BE0
:10251000002B01D0042307E0052305E07B6B002B93
:1025200001D0062300E00723FB62504B1B78022BEF
:102530000FD17A684F4B1B689A420AD1594B1B68DE
:10254000002BCCBF01230023DBB21A467B6B9342E6
:1025500004D0FFF793FA464B01221A707B6B002BD5
:1025600001D0F02300E06E23BB62464B1B88194666
:10257000444B1B881A46BB6A9B1A3A6B02FB03F357
:10258000494A82FB03025211DB17D31A0B447B62C8
:10259000464B1B687A6A9A63BB68424A1360FB68C1
:1025A00007EE903AB8EEE77ADFED416AC7EE267A99
:1025B0009FED407A67EE877AC7ED0F7AD7ED0F7AF5
:1025C0009FED3D7AF4EEC77AF1EE10FA01D53B4B60
:1025D000FB63D7ED0F7A9FED377AF4EEC77AF1EE11
:1025E00010FA01DD364BFB63364B3B62B7EE007AE7
:1025F000D7ED087A37EE677A3B6B07EE903AF8EE44
:10260000E76A9FED2B6AC6EE867A67EE277AB7EE09
:10261000007A77EE677AC7ED077A97ED0F0AFFF732
:10262000A5FCB86197ED0F7AD7ED077A67EE277AA8
:10263000B0EE670AFFF79AFC7861234AFB6B1360E0
:102640007A69B969F86AFFF7ADFC084B02221A7083
:102650007B68084A13600D4B08221A700123184644
:102660004037BD4680BD00BF300C0020440C002028
:102670008C0B0020400C00203C0C00200C000020A3
:10268000100000202400002014000020F607002085
:10269000180B00201C0B00207A0B0020010000808A
:1026A0000C0B0020340C00201F85EB51DC060020B1
:1026B0000000C842008022450080A2440080A2445D
:1026C000008022453D0AD73E3C0B002080B5C2B0B9
:1026D00002AF002387F8FF3006F076FAC7F8F4005F
:1026E000EFF31083C7F8D830D7F8D830C7F8F030F8
:1026F00072B600BF8F4B1B78DBB2002B1FD00023BC
:10270000C7F8F83011E08C4AD7F8F83013441B783A
:10271000D9B207F17402D7F8F83013440A461A7098
:10272000D7F8F8300133C7F8F830D7F8F8305F2B16
:10273000E9D9804B00221A70012387F8FF30D7F8BF
:10274000F030002B01D162B600BFD7F8F4107B48FF
:1027500004F0F6FD0346002B0CD0784B5B6807F1C4
:102760002400774A50210EF06DF807F12403184633
:10277000FFF70AFD97F8FF30002B4CD03A4607F1DF
:1027800074031146184604F0E9FC0346002B42D0BE
:1027900007F58073A3F580731B78002B1AD107F51A
:1027A0008073A3F580735B68D7F8F4101846FFF7C1
:1027B00099FD07F58073A3F580735B6807F124002A
:1027C000604A50210EF03EF807F124031846FFF747
:1027D000DBFC20E03B46D7F8F4201946574804F0CC
:1027E000DBFD0346002B16D007F58073A3F580733D
:1027F0005A6807F58073A3F580739B6807F124007E
:1028000000931346504A50210EF01CF807F12403A0
:102810001846FFF7B9FC494B1B7883F00103DBB284
:10282000002B1BD0EFF31083C7F8D430D7F8D43087
:10283000C7F8DC3072B600BF3E4B1B78DBB2002B12
:1028400002D1424B00221A70D7F8DC30002B01D1A4
:1028500062B600BFFFF7AAFC002365E007F118038A
:10286000D7F8F4203549184604F01CFEFB69002B0C
:10287000CCBF01230023DBB21A46FB69DB0FDBB2BE
:10288000D31AC7F8EC30BB69002B0AD0BB69002B08
:1028900001DD012200E00422D7F8EC3001331344BB
:1028A00000E00023C7F8E830D7F8E830002B2BD041
:1028B000274B1B68D7F8E8209A4225D0BB69002B2C
:1028C0000DDDD7F8EC30002B07DBD7F8EC30002B10
:1028D00001DD204B10E0204B0EE0204B0CE0D7F840
:1028E000EC30002B07DBD7F8EC30002B01DD1C4B64
:1028F00002E01C4B00E01C4BC7F8E4303B6A194671
:10290000D7F8E40005F002FB114AD7F8E83013606D
:1029100007F1180393E80700FFF774FDC7F8E0001C
:10292000FFF744FCD7F8E030184607F58077BD463E
:1029300080BD00BFCD0B0020D00B0020AC0B0020D1
:10294000643501087C3501088C350108CC0B00206A
:10295000380C00209C350108A4350108AC3501086D
:10296000B4350108BC350108C435010880B400AF96
:10297000184B1B78DBB2082B26D801A252F823F0A3
:10298000A5290008A9290008AD290008B1290008D7
:10299000B5290008B9290008BD290008C129000887
:1029A000C52900080C4B10E00C4B0EE00C4B0CE062
:1029B0000C4B0AE00C4B08E00C4B06E00C4B04E01F
:1029C0000C4B02E00C4B00E00C4B1846BD465DF88A
:1029D000047B7047F6070020CC350108D435010888
:1029E000DC350108E4350108EC350108F83501084B
:1029F000043601080C360108143601081C3601089B
:102A000080B58CB000AF78607B68FB6209E0FB6A40
:102A10001B782C2B02D1FB6A20221A70FB6A01332F
:102A2000FB62FB6A1B78002BF1D18F4978680DF0AF
:102A3000B1FFB86205E18D49B86AFDF7C9FB0346ED
:102A4000002B03D18A4B01221A70FEE000233B7554
:102A50000023BB618749B86AFDF7BAFB0346002B28
:102A600004D10B233B750023BB61D1E08249B86AD6
:102A7000FDF7AEFB0346002B04D10C233B7500236E
:102A8000BB61C5E07D49B86AFDF7A2FB0346002B98
:102A900004D10D233B750023BB61B9E07849B86AC6
:102AA000FDF796FB0346002B04D10E233B75002354
:102AB000BB61ADE07349B86AFDF78AFB0346002BA2
:102AC00004D107233B750023BB61A1E06E49B86ABE
:102AD000FDF77EFB0346002B04D108233B75002342
:102AE000BB6195E0BB6A1B78662B0ED1BB6A0133D4
:102AF0001B78782B09D110233B75BB6A023318462B
:102B00000DF0F8F80346BB6182E0BB6A1B78662BC8
:102B10000ED1BB6A01331B78752B09D10F233B758E
:102B2000BB6A023318460DF0E5F80346BB616FE05F
:102B3000BB6A1B78662B0ED1BB6A01331B78722BE4
:102B400009D103233B75BB6A023318460DF0D2F856
:102B50000346BB615CE0BB6A1B78662B0ED1BB6A87
:102B600001331B786C2B09D104233B75BB6A0233FC
:102B700018460DF0BFF80346BB6149E0BB6A1B78FD
:102B8000722B0ED1BB6A01331B78722B09D105233E
:102B90003B75BB6A023318460DF0ACF80346BB61C7
:102BA00036E0BB6A1B78722B0ED1BB6A01331B78EF
:102BB0006C2B09D106233B75BB6A023318460DF016
:102BC00099F80346BB6123E0BB6A1B78662B09D1E9
:102BD00001233B75BB6A013318460DF08BF80346A1
:102BE000BB6115E0BB6A1B78722B09D102233B75D0
:102BF000BB6A013318460DF07DF80346BB6107E060
:102C0000BB6A1B78732B03D109233B750023BB617F
:102C10003B7D002B10D007F1140393E80300FEF76F
:102C20004BFE78627B6A002B06D1184A07F1080335
:102C300007CA83E8070008E00B4900200DF0AAFE50
:102C4000B862BB6A002B7FF4F6AE0A233B77002301
:102C50003B6207F11C0393E80300FEF72DFE00BF63
:102C60003037BD4680BD00BF20360108243601083C
:102C7000F4070020283601082C36010830360108F8
:102C80003836010840360108443601084836010844
:102C900080B483B000AF0346FB71FB79013B0F2B7F
:102CA00040D801A252F823F0E92C0008ED2C0008CE
:102CB000F12C0008F52C0008F92C0008FD2C000868
:102CC000012D0008052D0008092D0008252D0008FC
:102CD0000D2D0008112D0008152D0008192D0008D4
:102CE0001D2D0008212D0008124B1CE0124B1AE08C
:102CF000124B18E0124B16E0124B14E0124B12E08C
:102D0000124B10E0124B0EE0124B0CE0124B0AE09B
:102D1000124B08E0124B06E0124B04E0124B02E0AB
:102D2000124B00E0002318460C37BD465DF8047BCB
:102D3000704700BF543601085C360108643601084C
:102D40006C360108043601080C3601087436010897
:102D50007C360108E435010884360108883601080C
:102D60008C360108943601089C360108A03601080B
:102D700080B588B000AF924B1B78DBB2002B04D03B
:102D8000904B1B78DBB2002B01D1002352E33B1D9B
:102D90001846FEF7C3FD0346002B01D1002349E38B
:102DA0003B791846FFF774FFF861FB69002B04D0EC
:102DB000BB681946F86905F0A9F83B79013B0F2B70
:102DC00000F2368301A252F823F000BF0930000858
:102DD0009B3000080931000869310008C93100083A
:102DE00029320008ED3200088F33000889320008CC
:102DF0009F320008212F0008712F0008812E000843
:102E0000D12E00080D2E00080D2E00086E4B1B68F9
:102E10005B6A9AB26D4B1A806D4B1B685B6A9AB203
:102E20006C4B1A806C4B1B686C4A1360FEF7C0FE3B
:102E30006B4B00221A606B4B4FF000021A606A4B1A
:102E40006FF000421A60BB68002B02DDBB689BB2CA
:102E500000E01A23654A13803B790F2B0CBF012336
:102E60000023DBB21A46624B1A70624B07221A70BB
:102E7000614B01221A70614B01221A700123D9E2C1
:102E8000514B1B685B6A9AB2504B1A80504B1B68BF
:102E90005B6A9AB24F4B1A804F4B1B684F4A1360C4
:102EA000FEF786FE4E4B00221A604E4B4FF000029A
:102EB0001A604D4B6FF000421A604E4B05221A709B
:102EC0004D4B01221A704D4B01221A700123B1E2C1
:102ED0003D4B1B685B6A9AB23C4B1A803C4B1B68AB
:102EE0005B6A9AB23B4B1A803B4B1B683B4A1360B0
:102EF000FEF75EFE3A4B00221A603A4B4FF000029A
:102F00001A60394B6FF000421A603A4B06221A7071
:102F1000394B01221A70394B01221A70012389E2C0
:102F2000294B1B685B6A9AB2284B1A80284B1B6896
:102F30005B6A9AB2274B1A80274B1B68274A13609B
:102F4000FEF736FE2E4B00221A602E4B4FF0000289
:102F50001A60254B6FF000421A60264B02221A704D
:102F6000254B01221A70254B01221A70012361E2C0
:102F7000154B1B685B6A9AB2144B1A80144B1B6882
:102F80005B6A9AB2134B1A80134B1B68134A136087
:102F9000FEF70EFE1A4B00221A601A4B4FF0000289
:102FA0001A60114B6FF000421A60124B03221A7024
:102FB000114B01221A70114B01221A70012339E2C0
:102FC000400B00202C0B002074050020080B002073
:102FD000BC0500200A0B0020180B00201C0B002051
:102FE0007C0B0020800B00200C0B00202000002018
:102FF000220000207A0B0020F60700208C0B002016
:10300000840B0020880B0020BB683B61A64B1B682B
:103010005B6A9AB2A54B1A80A54B1B685B6A9AB291
:10302000A44B1A80A44B1B68A44A1360FEF7C0FD92
:103030003B69002B1BDD3B6907EE903AF8EEE77A1F
:103040009FED9F7A67EE877AB6EE007A77EE877A01
:10305000FDEEE77A17EE903AFB609A4AFB68136040
:10306000994B00221A70994B01221A7010E0964B6E
:1030700001221A70934B6FF000421A60944B0022A9
:103080001A60944B4FF000021A60904B01221A70A4
:10309000914B01221A700123CCE1BB68002B01DDAA
:1030A000BB6800E03223BB617F4B1B685B6A9AB24E
:1030B0007E4B1A807E4B1B685B6A9AB27D4B1A80EE
:1030C000BB6907EE903AF8EEE77A9FED7D7A67EEFE
:1030D000877AB6EE007A77EE877AFDEEE77A17EE1A
:1030E000903A5B427B61774A7B691360724B1B6845
:1030F000724A1360FEF75CFD744B02221A70764B25
:1031000001221A70012395E1BB68002B05DBBB6827
:1031100007EE903AF8EEE77A06E0BB6807EE903AE1
:10312000F8EEE77AF1EE677A6C4BC3ED007A624B0A
:1031300093ED007A694BD3ED007A77EE677A684BAE
:10314000C3ED007AFEF744FD05F03EFD034664330F
:10315000644A1360644B00221A705C4B04221A709C
:10316000FEF770FE012365E1BB68002B05DBBB6841
:1031700007EE903AF8EEE77A06E0BB6807EE903A81
:10318000F8EEE77AF1EE677A544BC3ED007A4A4BDA
:1031900093ED007A514BD3ED007A77EE277A504BBE
:1031A000C3ED007AFEF730FD05F00EFD03466433F3
:1031B0004C4A13604C4B00221A70444B05221A7083
:1031C000FEF740FE012335E1BB68002B05DBBB6841
:1031D00007EE903AF8EEE77A06E0BB6807EE903A21
:1031E000F8EEE77AF1EE677A3C4BC3ED007A324BAA
:1031F00093ED007A394BD3ED007A77EE277A384B8E
:10320000C3ED007AFEF7F2FC05F0DEFC0346323334
:10321000344A1360344B01221A702C4B06221A7068
:10322000FEF710FE012305E1BB68002B05DBBB6840
:1032300007EE903AF8EEE77A06E0BB6807EE903AC0
:10324000F8EEE77AF1EE677A244BC3ED007A1A4B79
:1032500093ED007A214BD3ED007A77EE677A204B1D
:10326000C3ED007AFEF7DEFC05F0AEFC0346323318
:103270001C4A13601C4B00221A70144B07221A7050
:10328000FEF7E0FD0123D5E0FEF7F8FBFEF736FE82
:10329000FEF78EFC0D4B03221A700123CAE0FEF7E5
:1032A00093FB0123C6E000BF74050020080B00203B
:1032B000BC0500200A0B0020180B00201C0B00206E
:1032C000896D93420C0B00207A0B0020F60700203A
:1032D0007C0B0020800B00208C0B002000000020C5
:1032E000100B00205C0B0020600B0020534B1B6870
:1032F0001846FDF739F902460B465149C1E900234A
:103300004E4B1B681846FDF72FF94FF000024D4B4E
:10331000FCF7CCFF02460B464B49C1E90023474B63
:103320001B681846FDF720F94FF00002454BFCF7EB
:10333000BBFF02460B4610461946FDF745FC034607
:103340003E4A1360414B01221A70414B01221A7010
:10335000404B1B78DBB2012B17D03F4B1B685B6ADD
:103360009AB23E4B1A803E4B1B685B6A9AB23D4B49
:103370001A80FEF71DFC3C4B6FF000421A603B4B7D
:1033800000221A70334B01221A70012352E02B4B9A
:103390001B681846FDF7E8F802460B462849C1E9C4
:1033A0000023264B1B681846FDF7DEF84FF000029D
:1033B000244BFCF779FF02460B462349C1E9002361
:1033C0001E4B1B681846FDF7CFF84FF000021D4B4F
:1033D000FCF76CFF02460B4610461946FDF7F4FB5E
:1033E0000346164A1360194B02221A70184B012229
:1033F0001A70184B1B78DBB2012B17D0164B1B68C9
:103400005B6A9AB2154B1A80154B1B685B6A9AB2BD
:10341000144B1A80FEF7CCFB134B6FF000421A607E
:10342000124B00221A700B4B01221A70012301E08B
:1034300000BF002318462037BD4680BD100B00207A
:10344000900B002000004940980B00208D0B0020BD
:103450008E0B0020F607002074050020080B0020CA
:10346000BC0500200A0B00200C0B00207A0B00206A
:1034700080B584B000AF87ED010AD7ED017A9FEDEA
:103480001A7AF4EEC77AF1EE10FA01D5174B24E060
:10349000DFED170A97ED010A0FF0B4FBF0EE407A6A
:1034A0009FED147A67EE877AC7ED037AD7ED037A3A
:1034B0009FED117AF4EEC77AF1EE10FA01DD0B4BB5
:1034C0000BE0D7ED037AB2EE047AF4EEC77AF1EEB0
:1034D00010FA01D5094B00E0FB6807EE903AB0EE18
:1034E000670A1037BD4680BDCDCCCC3D0000A04260
:1034F000333393BF48E1DE410000A0420000204189
:10350000B0B5B2B000AF7E4B5B6FC7F8C43005F00A
:10351000F5FA00F02BF9FEF799FA00F0F5FC00F04F
:10352000D3FC00F0B7FA00F00DFA00F05FFA00F0FB
:10353000A1FC00F0A5FB00F011FC00F0D5F900F0B3
:103540002BFB00F071F900F06BFC05F049FA6D48B7
:1035500004F0A4FCD7F8C43003F00053002B03D0D0
:10356000694804F01FFD34E0D7F8C43003F080430D
:10357000002B03D0654804F015FD2AE0D7F8C430CD
:1035800003F08053002B03D0614804F00BFD20E0D2
:10359000D7F8C43003F00073002B03D05D4804F06B
:1035A00001FD16E0D7F8C43003F08063002B03D090
:1035B000594804F0F7FC0CE0D7F8C43003F000637E
:1035C000002B03D0554804F0EDFC02E0544804F011
:1035D000E9FC4B4B5B6F4A4A43F08073536701220F
:1035E000504951480AF07FF902225049504805F0ED
:1035F0005FFB504B07F1A8041D460FCD0FC495E8A3
:10360000070084E8070007F1A803002118460BF023
:1036100010F90346484A1360484B07F18C041D46D5
:103620000FCD0FC495E8070084E8070007F18C036D
:10363000002118460BF0FDF80346414A1360414B48
:1036400007F170041D460FCD0FC495E8070084E80C
:10365000070007F17003002118460BF0EAF8034653
:10366000394A1360394B07F154041D460FCD0FC47E
:1036700095E8070084E8070007F154030021184685
:103680000BF0D7F80346324A1360324B07F1380487
:103690001D460FCD0FC495E8070084E8070007F129
:1036A0003803002118460BF0C4F803462A4A136079
:1036B0002A4B07F11C041D460FCD0FC495E80700E7
:1036C00084E8070007F11C03002118460BF0B1F84D
:1036D0000346234A1360234B3C461D460FCD0FC4BF
:1036E00095E8070084E807003B46002118460BF0E8
:1036F000A0F803461C4A13600BF094F800BFFDE7E6
:103700000038024024070020A4360108B036010822
:10371000BC360108CC360108DC360108E836010861
:10372000F4360108F50700206C070020640B002028
:10373000780400200C370108B40700203437010852
:10374000B80700205C370108BC0700208837010853
:10375000C0070020B0370108C4070020DC3701088B
:10376000C807002000380108CC07002080B594B0BD
:1037700000AF07F120033022002118460DF0DCF8DD
:1037800007F10C0300221A605A609A60DA601A612D
:103790000023BB60224B1B6C214A43F0805313640F
:1037A0001F4B1B6C03F08053BB60BB6800237B6026
:1037B0001C4B1B681B4A43F480431360194B1B6866
:1037C00003F480437B607B6802233B620123FB623E
:1037D00010233B630023BB6307F12003184607F067
:1037E000A3FE0346002B01D003F0ACFB0F23FB60CC
:1037F00000233B6100237B610023BB610023FB614D
:1038000007F10C030021184608F006F90346002BC7
:1038100001D003F097FB00BF5037BD4680BD00BF0D
:10382000003802400070004080B584B000AF3B46D5
:1038300000221A605A609A60DA60284B284A1A609F
:10384000264B4FF440325A60244B00229A60234B9F
:1038500001221A61214B01221A76204B002283F8A3
:1038600020201E4B0022DA621C4B1E4A9A621B4B20
:103870000022DA60194B0222DA61184B012283F828
:103880003020164B00225A61144805F0CDF903464A
:10389000002B01D003F056FB0A233B6001237B6021
:1038A0000723BB603B4619460C4805F029FB03463D
:1038B000002B01D003F046FB0B233B6002237B600F
:1038C0003B461946054805F01BFB0346002B01D07B
:1038D00003F038FB00BF1037BD4680BD78040020E0
:1038E000002001400100000F80B500AF124B134AC9
:1038F0001A60114B124A5A600F4B00229A600E4B0D
:103900000022DA600C4B4FF480421A610A4B00220D
:103910005A61094B00229A61074B0022DA61064B7B
:1039200000221A62044806F083FD0346002B01D0F2
:1039300003F008FB00BF80BD2005002000580040B8
:10394000A086010080B58CB000AF07F10C032422E3
:10395000002118460CF0F0FF3B1D00221A605A604F
:10396000214B4FF080421A601F4B00225A601E4BC1
:1039700000229A601C4B4FF6FF72DA601A4B00224D
:103980001A61194B00229A610323FB6000233B61FB
:1039900001237B610023BB610A23FB6100233B629F
:1039A00001237B620023BB620A23FB6207F10C0345
:1039B00019460D4808F000FD0346002B01D003F026
:1039C000C1FA00237B600023BB603B1D19460648FB
:1039D00009F0E8FD0346002B01D003F0B3FA00BF65
:1039E0003037BD4680BD00BF7405002080B58CB067
:1039F00000AF07F10C032422002118460CF09CFFB5
:103A00003B1D00221A605A60204B214A1A601F4B4E
:103A100000225A601D4B00229A601C4B4FF6FF7229
:103A2000DA601A4B00221A61184B00229A610323B4
:103A3000FB6000233B6101237B610023BB610A2300
:103A4000FB6100233B6201237B620023BB620A23EC
:103A5000FB6207F10C0319460C4808F0ADFC034665
:103A6000002B01D003F06EFA00237B600023BB60C3
:103A70003B1D1946054809F095FD0346002B01D072
:103A800003F060FA00BF3037BD4680BDBC050020A2
:103A90000004004080B58EB000AF07F1280300227B
:103AA0001A605A609A60DA6007F1200300221A60F7
:103AB0005A603B1D00221A605A609A60DA601A61EF
:103AC0005A619A61324B334A1A60314B00225A6074
:103AD0002F4B00229A602E4B41F61F42DA602C4B8E
:103AE00000221A612A4B00229A61294808F072F9D3
:103AF0000346002B01D003F025FA4FF48053BB623C
:103B000007F128031946224808F0D8FF0346002B86
:103B100001D003F017FA1E4808F0ABF90346002B5A
:103B200001D003F00FFA00233B6200237B6207F110
:103B300020031946164809F035FD0346002B01D035
:103B400003F000FA60237B600023BB600023FB606E
:103B500000237B613B1D082219460D4808F0ECFE4E
:103B60000346002B01D003F0EDF93B1D0C22194652
:103B7000074808F0E1FE0346002B01D003F0E2F90C
:103B8000034803F00FFF00BF3837BD4680BD00BFBC
:103B9000040600200008004080B58AB000AF07F19D
:103BA000180300221A605A609A60DA6007F1100365
:103BB00000221A605A603B4600221A605A609A60DE
:103BC000DA602D4B2D4A1A602B4B0F225A602A4B7C
:103BD00000229A60284B4FF6FF72DA60264B0022D3
:103BE0001A61254B00225A61234B00229A61224818
:103BF00008F0F0F80346002B01D003F0A3F94FF4CE
:103C00008053BB6107F1180319461B4808F056FFA3
:103C10000346002B01D003F095F9174808F04AFA43
:103C20000346002B01D003F08DF900233B610023F4
:103C30007B6107F1100319460F4809F0B3FC0346F6
:103C4000002B01D003F07EF90A233B6001237B6047
:103C50000023BB600023FB603B4604221946064854
:103C600008F0CEFD0346002B01D003F06BF900BF36
:103C70002837BD4680BD00BF4C060020000401402F
:103C800080B58CB000AF07F1200300221A605A60A3
:103C90009A60DA603B1D00221A605A609A60DA600E
:103CA0001A615A619A612B4B2B4A1A60294B0022E8
:103CB0005A60284B00229A60264B41F61F42DA6078
:103CC000244B00221A61234B00229A61214808F0FC
:103CD00081F80346002B01D003F034F94FF48053F0
:103CE0003B6207F1200319461A4808F0E7FE034635
:103CF000002B01D003F026F9164808F0BAF8034665
:103D0000002B01D003F01EF960237B600023BB6011
:103D10000023FB6000237B613B1D002219460D48F8
:103D200008F00AFE0346002B01D003F00BF93B1DFF
:103D300004221946074808F0FFFD0346002B01D076
:103D400003F000F9034803F02DFE00BF3037BD46F5
:103D500080BD00BF940600200040014080B58CB0BB
:103D600000AF07F1200300221A605A609A60DA60FF
:103D70003B1D00221A605A609A60DA601A615A612B
:103D80009A61254B254A1A60234BA0225A60224B88
:103D900000229A60204B4FF47A72DA601E4B0022A8
:103DA0001A611D4B00229A611B4808F013F8034664
:103DB000002B01D003F0C6F84FF480533B6207F1AB
:103DC00020031946144808F079FE0346002B01D061
:103DD00003F0B8F8104808F04CF80346002B01D067
:103DE00003F0B0F860237B600023BB600023FB601E
:103DF00000237B613B1D04221946074808F09CFD07
:103E00000346002B01D003F09DF8034803F0CAFDE0
:103E100000BF3037BD4680BDDC06002000180040E2
:103E200080B500AF114B124A1A60104B4FF4E132CB
:103E30005A600E4B00229A600C4B0022DA600B4B4A
:103E400000221A61094B0C225A61084B00229A6128
:103E5000064B0022DA61054809F034FC0346002BCA
:103E600001D003F06FF800BF80BD00BF2407002021
:103E70000044004080B500AF114B124A1A60104B4D
:103E80004FF4E1325A600E4B00229A600C4B002234
:103E9000DA600B4B00221A61094B0C225A61084B65
:103EA00000229A61064B0022DA61054809F00AFCFB
:103EB0000346002B01D003F045F800BF80BD00BFD2
:103EC0006C0700200048004080B582B000AF00239E
:103ED0007B600C4B1B6B0B4A43F480031363094B51
:103EE0001B6B03F480037B607B6800220521382074
:103EF00005F081FB382005F09AFB00BF0837BD466E
:103F000080BD00BF0038024080B58AB000AF07F125
:103F1000140300221A605A609A60DA601A61002362
:103F20003B61484B1B6B474A43F010031363454BFF
:103F30001B6B03F010033B613B690023FB60414BAB
:103F40001B6B404A43F0040313633E4B1B6B03F0AF
:103F50000403FB60FB680023BB603A4B1B6B394AD0
:103F600043F001031363374B1B6B03F00103BB608A
:103F7000BB6800237B60334B1B6B324A43F0020368
:103F80001363304B1B6B03F002037B607B680023E1
:103F90003B602C4B1B6B2B4A43F008031363294BEC
:103FA0001B6B03F008033B603B6800224FF48071F9
:103FB000254806F009FA00224FF4F041234806F0A4
:103FC00003FA00224021224806F0FEF94FF48073E4
:103FD0007B610123BB610023FB6100233B6207F18E
:103FE00014031946184805F03FFF4FF4F0437B6176
:103FF0000123BB610023FB6100233B6207F1140333
:104000001946124805F030FF40237B610123BB6154
:104010000023FB6100233B6207F1140319460C489F
:1040200005F022FF01237B610023BB610023FB61BC
:1040300007F114031946044805F016FF00BF28379E
:10404000BD4680BD0038024000100240000C024016
:104050000008024080B500AF002240210A4806F067
:10406000B3F90220FDF7CAFC01224021064806F000
:10407000ABF90A20FDF7C2FC00224021024806F0FD
:10408000A3F900BF80BD00BF0008024080B487B024
:1040900000AFF860B9607A60FA68BB68934238BFD5
:1040A00013467A68934238BF13467B61FA68BB684F
:1040B000934228BF13467A68934228BF13463B6158
:1040C000FA68BB681A447B681A447B69D21A3B6958
:1040D000D31A18461C37BD465DF8047B70470000B4
:1040E00080B584B000AF78607B681B684A4A934211
:1040F00040F08D807B681B7F022B40F08880474B0F
:104100001B78DBB2002B17D17B681B6800225A6238
:104110007B681B681A6A7B681B6822F0A0021A621F
:104120007B681B681A6A7B681B6842F020021A626F
:104130003A4B01221A706BE00421786808F086FD82
:1041400003469AB2364B1A807B681B681A6A7B68F2
:104150001B6822F0A0021A627B681A687B681B68E1
:10416000126A1A622D4B00221A702D4B1B889BB2CB
:1041700007EE903AF8EEE77A9FED2A7A67EE877AB3
:10418000B6EE007A77EE877AFCEEE77A17EE903A91
:10419000BB60254B1B781946244ABB6842F8213086
:1041A000214B1B78591C224BA3FB01235A081346B1
:1041B0005B001344CA1AD2B21B4B1A701D4B1B78FA
:1041C000022B05D81B4B1B780133DAB2194B1A703E
:1041D000BB68FB60174B1B78032B09D1134B1B6883
:1041E000124A5168114A92681846FFF74FFFF8606B
:1041F000FB6807EE903AF8EE677A0F4BC3ED007A52
:104200000E4AFB6813600E4B01221A7000E000BFDB
:104210001037BD4680BD00BF00040140A00B002048
:10422000A20B0020287E8C3CE8070020DC07002041
:10423000ABAAAAAAE9070020D4070020D0070020D3
:10424000D807002080B584B000AF78607B681B6819
:10425000614A934240F0BC80604B1B78FB72FB7A52
:104260000D2B02D0FB7A0A2B76D15D4B1B881A46A8
:104270005C4B002199545C4B1B78002B65D1584B4B
:104280001B88002B61D00023FB8114E0FB89554A79
:10429000D35C402B0CD9FB89524AD35C5A2B07D8EC
:1042A000FB89504AD25CFB892032D1B24D4AD154AD
:1042B000FB890133FB814A4B1B88FA899A42E5D37B
:1042C0004A494848FBF784FF0346002B03D1484B7B
:1042D00001221A7039E0434B1B786A2B03D1414805
:1042E000FDF718FF31E0434B1B78DBB2002B2CD1DC
:1042F0003F4B1B78DBB2002B27D10023BB8110E0A2
:10430000BB89384AD35C3B2B04D0BB89354AD35C8C
:104310002C2B03D1BB89334A2021D154BB890133D3
:10432000BB812F4B1B88BA899A42E9D32D48FEF7EF
:1043300067FB314B1B78DBB2002B06D12C4B1B7873
:10434000DBB2002B01D1FEF713FD254B00221A80B2
:10435000254B00221A7035E0234B1B78002B31D1FE
:10436000FB7A1F2B02D9FB7A7E2B19D9FB7A092BFA
:1043700003D01D4B01221A7024E0194B1B88FE2B21
:104380000AD8174B1B885A1C91B2154A118019463E
:10439000144AFB7A535415E0134B01221A7011E0B2
:1043A0000F4B1B88FE2B0AD80D4B1B885A1C91B251
:1043B0000B4A118019460B4AFB7A535402E00A4B10
:1043C00001221A70012205490C4809F08CFA00E01C
:1043D00000BF1037BD4680BD00480040F5070020F3
:1043E000F8080020F8070020FA0800202436010809
:1043F000F4070020CC0B0020F60700206C070020FB
:1044000080B485B000AF78607B681B68354A934202
:1044100061D1354B1B889BB21A4640F6E44302FB40
:1044200003F303F2FF72314BA3FB0213D21A5208BB
:104430001344DB0AFB812C4B5B889BB21A4640F687
:10444000E44302FB03F303F2FF72284BA3FB0213C6
:10445000D21A52081344DB0ABB81254B1B889BB23E
:104460009A00FB891344234AA2FB03239B089AB2B8
:104470001F4B1A80204B1B889BB29A00BB891344A8
:104480001C4AA2FB03239B089AB21B4B1A80164BB3
:104490001B889AB2194B1A80134B5B889AB2184B3F
:1044A0001A80134B1B889BB240F21F3293428CBF81
:1044B00001230023DBB21A46124B1A700E4B1B88E5
:1044C0009BB240F21F3293428CBF01230023DBB228
:1044D0001A460D4B1A7000BF1437BD465DF8047BB9
:1044E000704700BF00200140640B00200101100054
:1044F000760B0020CDCCCCCC780B0020680B0020B4
:104500006A0B0020740B0020750B002080B584B06E
:1045100000AF78604123FB734FF48071044805F0CD
:104520006CFF4FF47A700AF0D0F900BFF4E700BFD7
:104530000010024080B58EB002AF7860012179484A
:1045400005F02AFF034687F82F30774B1B78012BA5
:1045500011D197F82F30002B0DD1744B1B780133FC
:10456000002B03F00103B8BF5B42DAB26F4B1A7045
:1045700032200AF0AAF96C4A97F82F3013706C4B6E
:104580001B78DBB2002B19D16A4A0021002004F00D
:10459000F5F9694A1021002004F0F0F9674A20215A
:1045A000002004F0EBF9664A3021002004F0E6F91F
:1045B00004F06CF814200AF088F9B1E05B4B1B782A
:1045C000002B4DD15F4B1B681846FBF7CDFF024611
:1045D0000B4607F10C00CDE900235B4A20210CF0CB
:1045E00031F907F10C031A460021002004F0C6F946
:1045F000564BD3ED007AFDEEE77A07F10C0017EE8B
:10460000903A534A20210CF01DF907F10C031A4689
:104610001021002004F0B2F94E4B1A684E4B1B6873
:1046200007F10C00009313464C4A20210CF00AF9C4
:1046300007F10C031A462021002004F09FF9FEF731
:1046400095F9034607F10C00454A20210CF0FAF8D1
:1046500007F10C031A463021002004F08FF95AE0CC
:10466000324B1B78012B56D13E4B1B6807F10C00D7
:104670003D4A20210CF0E6F807F10C031A46002110
:10468000002004F07BF9394B1B889BB21A46384B4B
:104690001B78DBB207F10C0000931346354A20214A
:1046A0000CF0D0F807F10C031A461021002004F09A
:1046B00065F9314B1B889BB21A46304B1B78DBB235
:1046C00007F10C00009313462D4A20210CF0BAF894
:1046D00007F10C031A462021002004F04FF9294B62
:1046E000D3ED007ABDEEE77A274BD3ED007AFDEEED
:1046F000E77A17EE903A07F10C00009317EE103AA4
:10470000224A20210CF09EF807F10C031A463021B2
:10471000002004F033F903F0B9FF14200AF0D5F8B3
:104720000CE700BF0010024026000020E80C00202B
:104730002C0B00201C3801083038010844380108CF
:1047400058380108180B00206C380108100B0020A5
:104750007C380108EC070020F007002088380108A9
:1047600094380108D0070020A0380108760B0020FB
:10477000740B0020B4380108780B0020750B002062
:10478000C4380108A40B0020A80B0020D43801086D
:10479000B0B5ADF5387D06AF07F53273A3F53173CB
:1047A0001860BF4B00221A70FDF7B2F9FDF7C2F98D
:1047B0000821BC4807F0B6FB0C21BA4807F0B2FB51
:1047C0000021B94807F0AEFB0421B74807F0AAFB67
:1047D000FDF754F932200AF078F8B44B1B68F02248
:1047E0009A630421B14807F09DFBFDF751FA02E0FE
:1047F00014200AF06AF8AE4B1B78DBB2002BF7D01E
:10480000FDF73CF9AB4802F075FDAB4B1B78DBB212
:10481000002B00F09480EFF3108207F53273A3F5BC
:10482000CE731A6007F53273A3F5CE731B68C7F811
:10483000643272B600BF07F53273A3F527739F4A3F
:10484000184611464FF480731A460CF080F99A4BC3
:1048500000221A70D7F86432002B01D162B600BF73
:1048600007F53273A3F52773002283F8FF20002396
:10487000C7F8C43248E007F53273A3F52772D7F8BA
:10488000C43213441B78402B1CD907F53273A3F5AF
:104890002772D7F8C43213441B785A2B12D807F565
:1048A0003273A3F52772D7F8C43213441B78203330
:1048B000D9B207F53273A3F52772D7F8C43213447F
:1048C0000A461A7007F53273A3F52772D7F8C43277
:1048D00013441B783B2B09D007F53273A3F52772DD
:1048E000D7F8C43213441B782C2B08D107F5327348
:1048F000A3F52772D7F8C432134420221A70D7F8D0
:10490000C4320133C7F8C43207F53273A3F52772F6
:10491000D7F8C43213441B78002BACD107F12C0319
:104920001846FEF76DF8664B1B78DBB2002B06D1FC
:10493000644B1B78DBB2002B01D1FEF719FA604BF8
:104940001B78DBB2002B35D05D4B1B78DBB2032B21
:1049500030D004F039F9C7F86002554B1B78DBB250
:10496000002B08D0584B1B68D7F86022D31A642B51
:1049700001D9012300E0002387F85F3297F85F3206
:1049800003F0010387F85F32494B1B78DBB2002B41
:1049900003D097F85F32002B0CD097F85F32002BD2
:1049A00001D04A4B00E04A4B184603F0FBFA454B56
:1049B00001221A70434B1B78DBB2002B56D0404BC0
:1049C0001B78DAB207F53273A3F5CC731A60FDF7E2
:1049D0003DFC3C4B00221A703E4B00221A703E4BAD
:1049E00000221A603D4B4FF000021A603C4B00223F
:1049F0001A603C4B4FF000021A603B4B00221A70C9
:104A00003A4B00221A70FDF739F8394B00221A6030
:104A100007F53273A3F5CC731868FDF77EF90346EA
:104A2000002B07D007F53273A3F5CC731868FDF798
:104A3000F6F901E0FDF7BCF82E4B00221A60FCF7F6
:104A400097FF1F4B00221A702B4B00221A602B4B32
:104A500000221A70FDF752FA2948FDF795FBFDF781
:104A6000A5FB052009F031FF01F03BBFFDF72EFE4D
:104A70000346002B04D0052009F027FF01F031BFC9
:104A80000F4B1B78DBB2072B01F31087042B81F24D
:104A90002585022B36DC002B39DC01F007BF00BF77
:104AA000400B00200406002094060020DC060020B5
:104AB0002C0B0020AC0B0020FC090020FC0800207F
:104AC000F6070020F4070020300B0020E83801082A
:104AD000F43801087A0B00207C0B0020800B0020AA
:104AE000840B0020880B00208D0B00208E0B0020F3
:104AF000000A00200C0B00205C0B0020600B002043
:104B000004390108032B01F0C48601F0CFBE884BA5
:104B1000C7F82C32864BC7F828324FF00003C7F88D
:104B20002432844B1B685B6AA7F82232824B1B68D5
:104B30005B6AA7F82032814B1B78DBB2022B02D1D3
:104B40004FF0FF3300E00123C7F81C3204F03CF8BB
:104B5000C7F818027A4B1B78002B0AD0794B1B78C8
:104B6000DBB2002B05D1784B1B68D7F81C229A4288
:104B70002BD0764AB7F822321380754AB7F8203224
:104B80001380744B00221A60734B00221A606E4A25
:104B9000D7F81C3213606A4B01221A706F4B4FF02A
:104BA00000021A606E4AD7F8183213606D4AD7F8BF
:104BB000183213606C4B6D4A1A606D4AD7F8183280
:104BC00013606C4B00221A6020E0604B1B88B7F822
:104BD0002222D31A9BB21BB21A465E4B1B681344A7
:104BE0005C4A13605C4B1B68594A1288B7F8201264
:104BF0008A1A92B212B29B1A574A1360534AB7F8F4
:104C000022321380524AB7F820321380544B1B686B
:104C1000D7F81822D31AC7F81432514AD7F81832E5
:104C20001360D7F81432322B02D93223C7F814326A
:104C3000484B1A68484B1B681344DA0F13445B1047
:104C4000C7F810324B4B1B68D7F81022D31AC7F89D
:104C50000C32D7F80C32032B04DCD7F80C3213F1EA
:104C6000030F07DA434AD7F810321360404AD7F8E7
:104C700018321360D7F81C32002B07DD3E4B1A6840
:104C8000D7F81032D31AC7F8C03206E03A4B1B6887
:104C9000D7F81022D31AC7F8C032D7F8C032002B89
:104CA00002DA0023C7F8C032002387F8BF32324B44
:104CB0001B68002B0ADB304B1B68D7F810229A4286
:104CC000ACBF0123002387F8BF3209E02A4B1B68E1
:104CD000D7F810229A42D4BF0123002387F8BF32AD
:104CE000002387F8BE32154B1B78DBB2012B40F056
:104CF0002881224B1B78DBB2002B00F022811F4B56
:104D00001B78DBB2013B062B00F2F48001A252F8C3
:104D100023F000BF1D4E0008A54E0008B94E000844
:104D2000F54E0008CD4E0008E14E0008814D000808
:104D3000A69B443B74050020BC050020F60700201C
:104D4000E90C00208C0B0020EC0C0020F00C002063
:104D5000F20C0020F40C0020F80C0020FC0C0020C9
:104D6000000D0020040D00202800002000007041EC
:104D7000080D00200C0D00200C0B00207A0B0020E9
:104D80005E4B1B889BB21A465D4B1B689A422CBF38
:104D90000123002387F8BE32594B1B68142B00F205
:104DA000AB80584B1B78DBB2002B00F0A580564B34
:104DB0001B78DBB2002B15D1514B1B6807F10C009F
:104DC000524A20210BF03EFDC7F808024E4B01224B
:104DD0001A70D7F808329AB207F10C0319464C48FA
:104DE00008F04BFD4B4B1B684B4A1360FCF7E0FE91
:104DF0004A4B04221A704A4B4A4A1A604A4B002214
:104E00001A604A4B00221A60002387F8BE32484BD2
:104E100001221A70474B02221A706DE0384B1B6852
:104E20001A2B94BF0123002387F8BE32344B1B6832
:104E3000142B00F28580344B1B78DBB2002B15D18C
:104E40002F4B1B6807F10C00304A20210BF0FAFCB5
:104E5000C7F804022C4B01221A70D7F804329AB218
:104E600007F10C0319462A4808F007FD294B1B6877
:104E7000294A1360FCF79CFE284B04221A70284B29
:104E8000284A1A60284B00221A60284B00221A6018
:104E9000002387F8BE32264B01221A70254B0222CE
:104EA0001A704DE0244B1B78DBB2002B0CBF0123A2
:104EB000002387F8BE3244E0204B1B78DBB2002B86
:104EC0000CBF0123002387F8BE323AE01A4B1B784F
:104ED000DBB2012B0CBF0123002387F8BE3230E088
:104EE000164B1B78DBB2012B0CBF0123002387F884
:104EF000BE3226E000BF24E000BF22E020000020F8
:104F0000D007002022000020060B00200C390108E9
:104F10006C070020100B00201C0B00207A0B0020D7
:104F20000C0B002001000080100D0020140D00204B
:104F30008C0B0020F6070020750B0020740B00205E
:104F400000BF664B1B78DBB2022B0CD1644B1B7885
:104F5000DBB2042B07D1634B1B68132B8CBF0123DF
:104F6000002387F8BE3297F8BE32002B3BD05C4B53
:104F70001B78DBB2012B04D0594B1B78DBB2072B1B
:104F800031D1594B1B6807EE903AB8EEE77ADFED66
:104F9000576AC7EE267A564BC3ED007A554B1B78FD
:104FA000DBB2002B1FD1524B1B681846FBF7DCFA13
:104FB00002460B464B49096807F10C000291CDE906
:104FC00000234D4A20210BF03DFCC7F80002494B5D
:104FD00001221A70D7F800329AB207F10C03194671
:104FE000464808F04AFC97F8BE32002B38D03C4BBC
:104FF0001B78DBB2022B04D0394B1B78DBB2032BBE
:105000002ED13F4B1B6807EE903AB8EEE77ADFED02
:10501000376AC7EE267A3B4BC3ED007A354B1B78D7
:10502000DBB2002B1CD1374B1B681846FBF79CFAF0
:1050300002460B4607F10C00CDE90023324A20213D
:105040000BF000FCC7F8FC012A4B01221A70D7F8BC
:10505000FC319AB207F10C031946284808F00DFC00
:1050600097F8BF32002B03D197F8BE32002B61D0E6
:10507000FCF704FD254B41F61F421A60244B41F614
:105080001F421A60FCF794FD224B1B881A46224BE4
:105090001A60204B1B881A46204B1A60204B4FF099
:1050A00000021A6003F090FD034603F596731D4A53
:1050B00013600B4B00221A701B4B00221A601B4B13
:1050C00000221A60054B00221A7003F07DFD034692
:1050D00003F5FA73164A136001F000BCF6070020CE
:1050E0007A0B0020D00700207C0B0020896D9342B2
:1050F000800B0020060B0020183901086C070020E7
:10510000840B0020880B0020243901080C000020AB
:1051100010000020240000201400002018000020AF
:10512000440B0020140B0020100D0020140D002053
:10513000000A002003F048FDC7F8F801C34B1B68C4
:10514000002B0BD1C14AD7F8F8311360C04AB7F829
:1051500022321380BF4AB7F820321380BE4B1B782F
:10516000DBB2002B28D0BA4AB7F822321380B94AF2
:10517000B7F820321380B54AD7F8F8311360B64B30
:1051800000221A70B54B4FF000021A60B44B4FF07A
:1051900000021A60B34B00221A60B34B00221A605F
:1051A000B24B4FF000021A60B14B4FF000021A6090
:1051B000B04B4FF000021A60A54B1B88B7F82222B3
:1051C000D31A9BB2A7F8F631A24B1B88B7F820225E
:1051D000D31A9BB2A7F8F431B7F8F4315B429BB213
:1051E000A7F8F431A44B1B78DBB2012B1AD1A34BE7
:1051F0001B78DBB2012B04D0A04B1B78DBB2072B52
:1052000010D1B7F9F621B7F9F4311344DA0F13448A
:105210005B10C7F8F0319A4B1A68D7F8F031134495
:10522000974A1360944B1B78DBB2012B1AD1934B36
:105230001B78DBB2022B04D0904B1B78DBB2032B24
:1052400010D1B7F9F621B7F9F4311344DA0F13444A
:105250005B10C7F8EC318B4B1A68D7F8EC3113446C
:10526000884A1360794B1B68D7F8F821D31AC7F81E
:10527000B832D7F8B832002B02D10123C7F8B832C0
:10528000B7F9F6314FF47A7203FB02F2D7F8B8326D
:1052900092FBF3F3C7F8E831B7F9F4314FF47A72BF
:1052A00003FB02F2D7F8B83292FBF3F3C7F8E4310C
:1052B000D7F8B83207EE903AB8EE677ADFED726A47
:1052C000C7EE267AC7ED787AD7ED787A9FED6F7AB8
:1052D00037EE877AD7ED786AC6EE877AC7ED777AA8
:1052E000D7F8E83107EE903AB8EEE77A5B4BD3EDAA
:1052F000007A37EE677AD7ED777A27EE277A574B21
:10530000D3ED007A77EE277A544BC3ED007AD7F8C5
:10531000E43107EE903AB8EEE77A514BD3ED007ADC
:1053200037EE677AD7ED777A27EE277A4C4BD3EDB5
:10533000007A77EE277A4A4BC3ED007A444AB7F8F1
:1053400022321380434AB7F8203213803F4AD7F8FD
:10535000F8311360414B93ED007A414BD3ED007A65
:1053600077EE677AFDEEE77A17EE903AC7F8D83114
:10537000474B93ED007A474BD3ED007A77EE677A8F
:10538000454BC3ED007AD7F8D831C7F8D431354B47
:105390001A68D7F8D4311344324A136049F64043AF
:1053A000C7F8D0312F4B1B68D7F8D0219A4203DAC7
:1053B0002C4AD7F8D0311360D7F8D0315A42294B54
:1053C0001B689A4204DDD7F8D0315B42254A13604E
:1053D000254B1B68D7F8D421D31AC7F8CC31224A01
:1053E000D7F8D4311360D7F8D43107EE903AB8EE3D
:1053F000E77AD7ED8B7A27EE277A1A4B1B6807EEF0
:10540000903AF8EEE76AD7ED8A7A66EEA77A37EE39
:10541000277AD7F8CC3107EE903AF8EEE76AD7ED65
:10542000897A66EEA77A07F53273A3F5807377EE73
:10543000277AC3ED007A07F53273A3F58073D3EDB5
:10544000007AFDEEE77A17EE903A27E0180D00207B
:105450001C0D00201E0D00208C0B0020200D0020B4
:10546000240D0020100D0020140D0020280D002018
:105470002C0D0020300D0020F60700207A0B0020B4
:105480007C0B0020840B002000007A44CDCC4C3DE6
:105490001C0B0020180B0020200B0020C7F8B43292
:1054A000C24B1B78DAB207F53273A3F20113022A5A
:1054B0000CBF012200221A70BD4B1B78002B05D0B7
:1054C000BC4B1B78012B01D1012200E0002207F523
:1054D0003273A3F581731A701A7802F001021A7000
:1054E00007F53273A3F581731B78002B06D0B24BFE
:1054F0001B6807EE903AF8EEE77A01E0DFEDAF7A4D
:1055000007F53273A3F58473C3ED007A07F53273A0
:10551000A3F581731B7883F00103DBB2002B11D05C
:10552000A74B1B78DBB2002B0CD1A64B1B686FF08E
:105530000042934206D0A34B1B68A34A934201D07A
:10554000012200E0002207F53273A3F209131A705A
:105550001A7802F001021A7007F53273A3F584730A
:105560001B68C7F8B03207F53273A3F209131B7832
:10557000002B00F0A18107F53273A3F58873934ADD
:105580001A6007F53273A3F58A73914A1A60D7F847
:10559000C03207EE903AF8EEE77A07F53273A3F5DA
:1055A000887393ED007AB4EEE77AF1EE10FA40F3E7
:1055B000288107F53273A3F58C73D7F8C02207EE64
:1055C000902AF8EEE77AC3ED007A07F53273A3F577
:1055D0008C7207F53273A3F58A7392ED007AD3EDDE
:1055E000007AB4EEE77AF1EE10FA6AD8794B1B68CC
:1055F000D7F81822D31A952B1AD9774BD3ED007A06
:10560000B0EE087A77EE877A734BC3ED007A724B6F
:10561000D3ED007AB3EE087AF4EEC77AF1EE10FA21
:1056200002DD6D4B6D4A1A606A4AD7F81832136072
:1056300007F53273A3F58A73D3ED007AF5EEC07ADD
:10564000F1EE10FA0EDD07F53273A3F58C7207F553
:105650003273A3F58A73D2ED006A93ED007AC6EE39
:10566000877A01E0DFED5E7AC7EDAA7AD7EDAA7AF4
:10567000F5EEC07AF1EE10FA03D54FF00003C7F84B
:10568000A832D7EDAA7AB7EE007AF4EEC77AF1EE37
:1056900010FA03DD4FF07E53C7F8A8324E4BD3ED1E
:1056A000007AB3EE047A37EE677AD7EDAA7A27EE5E
:1056B000277A494BD3ED007A77EE277AC7EDAB7A9C
:1056C0005DE007F53273A3F58E7307F53272A2F52C
:1056D000887107F53272A2F58A7291ED007AD2EDE7
:1056E000007A77EE677AC3ED007A07F53273A3F597
:1056F0008E73D3ED007AF5EEC07AF1EE10FA16DD76
:1057000007F53273A3F58C7207F53273A3F58A732C
:1057100092ED007AD3ED007A77EE676A07F532737F
:10572000A3F58E7393ED007AC6EE877A01E0DFED84
:105730002C7AC7EDA97AD7EDA97AF5EEC07AF1EE09
:1057400010FA03D54FF00003C7F8A432D7EDA97AB9
:10575000B7EE007AF4EEC77AF1EE10FA03DD4FF0FF
:105760007E53C7F8A432D7EDA97A9FED1E7A67EE73
:10577000877AB3EE047A77EE877AC7EDAB7A07F5CE
:105780003273A3F58C7207F53273A3F58A7392ED29
:10579000007AD3ED007AB4EEE77AF1EE10FA23D86E
:1057A000D7F8AC32C7F8B0322BE000BFF6070020C4
:1057B000AC0B0020440C00203C0C00200000C84230
:1057C0007A0B00200C0B002001000080EB48B8444D
:1057D000EB48B843080D0020280000200000C0411D
:1057E000000000000000A04297EDAB7AD7EDAC7A44
:1057F000B4EEE77AF1EE10FA03D5D7F8AC32C7F879
:10580000B0324A4B1A6807F53273A3F59073D7F894
:1058100018128A1A1A6007F53273A3F590731B6881
:1058200007EE903AB8EE677ADFED416AC7EE267A66
:10583000C7EDA87AD7EDA87AF5EEC07AF1EE10FAA6
:1058400003D54FF00003C7F8A032D7EDA87AB7EE22
:10585000007AF4EEC77AF1EE10FA03DD4FF07E53D2
:10586000C7F8A032D7EDA87A9FED327A67EE877A33
:1058700007F53273A3F5927397EDA87A67EE277A4E
:10588000C3ED007A07F53273A3F5927397EDAC7A06
:10589000D3ED007AB4EEE77AF1EE10FA04D5264A99
:1058A000D7F8B03213600EE0234A07F53273A3F540
:1058B00092731B68136006E01F4A07F53273A3F565
:1058C00084731B6813601C4BD3ED007AF5EEC07A2D
:1058D000F1EE10FA03D5184B4FF000021A60164B88
:1058E000D3ED007A9FED137AF4EEC77AF1EE10FA59
:1058F00002DD114B114A1A600F4BD3ED007AB6EE60
:10590000007A77EE877A07F53273A3F59473FDEE8C
:10591000E77A17EE902A1A6007F53273A3F20113A3
:105920001B78002B0ED0064A0DE000BF040D0020AE
:105930000000AF430000C842FC0C00200000C84239
:1059400048E17A3FCB4A07F53273A3F596731A60A4
:1059500007F53273A3F598734FF07E521A6007F57E
:105960003273A3F59673D3ED007A9FEDC37A67EE99
:10597000877AB6EE007A77EE877AFDEEE77A07F55A
:105980003273A3F59A7417EE900AFCF7AFF9206012
:1059900007F53273A3F59873D3ED007A9FEDB67ACD
:1059A00067EE877AB6EE007A77EE877AFDEEE77AD1
:1059B00007F53273A3F59C7417EE900AFCF796F97D
:1059C000206007F53273A3F59A731B68C3F5E053A3
:1059D0001F3307F53272A2F59472126802FB03F3CB
:1059E000A64A82FB03125211DB179B1A03F5E05300
:1059F0001F33C7F89C3207F53273A3F59C731B68FD
:105A0000C3F5E0531F3307F53272A2F594721268A2
:105A100002FB03F3994A82FB03125211DB179B1A14
:105A200007F53272A2F59E7203F5E0531F3313603F
:105A300007F53273A3F209131B78002B66D007F524
:105A40003273A3F201131B7883F00103DBB2002B46
:105A50005CD08B4B1B68002B58D0894B1A6807F51C
:105A60003273A3F5A073D7F818128A1A1A6007F5D3
:105A70003273A3F5A0731B68B3F52F7F46D207F5E9
:105A80003273A3F5A0731B6807EE903AB8EE677AFD
:105A9000DFED7C6AC7EE267AB7EE007A77EE677A9A
:105AA000C7EDA67AD7EDA67AF5EEC07AF1EE10FA38
:105AB00003D54FF00003C7F89832D7EDA67AB7EEBA
:105AC000007AF4EEC77AF1EE10FA03DD4FF07E5360
:105AD000C7F89832D7EDA67A9FED6B7A67EE877A92
