:020000040800F2
:10000000000002204578000861700008697000084F
:10001000717000087970000881700008000000000D
:10002000000000000000000000000000C1E7000820
:10003000897000080000000011EA000897700008AD
:10004000957800089578000895780008957800085C
:10005000957800089578000895780008957800084C
:10006000957800089578000895780008957800083C
:10007000957800089578000895780008957800082C
:10008000957800089578000895780008957800081C
:10009000957800089578000895780008957800080C
:1000A00095780008957800089578000895780008FC
:1000B00095780008957800089578000895780008EC
:1000C00095780008957800089578000895780008DC
:1000D000957800089578000895780008B1700008B8
:1000E00095780008957800089578000895780008BC
:1000F0009578000895780008C57000089578000884
:10010000957800089578000895780008957800089B
:10011000957800089578000895780008957800088B
:10012000D97000089578000895780008957800083F
:10013000957800089578000895780008957800086B
:10014000957800089578000895780008957800085B
:10015000957800089578000895780008957800084B
:10016000957800089578000895780008957800083B
:100170009578000895780008957800080000000040
:0801800095780008957800084D
:1001900010B5054C237833B9044B13B10448AFF3C1
:1001A00000800123237010BD000200200000000029
:1001B0003C27010808B5034B1BB103490348AFF3C3
:1001C000008008BD00000000040200203C27010858
:1001D00010F8012B11F8013B012A28BF9A42F7D0F1
:1001E000D01A70470000000000000000000000006E
:1001F00001F0FF01102A2BDB10F0070F08D010F8D8
:10020000013B013A8B422DD010F0070F42B3F6D1DB
:10021000F0B441EA012141EA014122F007047FF0F4
:1002200000070023F0E80256083C85EA010586EA4B
:10023000010685FA47F5A3FA87F586FA47F6A5FA87
:1002400087F68EB9EED1F0BC01F0FF0102F0070293
:1002500032B110F8013B013A83EA010313B1F8D13E
:100260000020704701387047002D06BF354603381F
:10027000073815F0010F07D1013015F4807F02BF58
:10028000013015F4C03F0130F0BC0138704700BFA9
:10029000034613F8012B002AFBD1181A01387047C6
:1002A00081F0004102E000BF83F0004330B54FEA27
:1002B00041044FEA430594EA050F08BF90EA020F94
:1002C0001FBF54EA000C55EA020C7FEA645C7FEA27
:1002D000655C00F0E2804FEA5454D4EB5555B8BF4A
:1002E0006D420CDD2C4480EA020281EA030382EABB
:1002F000000083EA010180EA020281EA0303362D4D
:1003000088BF30BD11F0004F4FEA01314FF4801C1F
:100310004CEA113102D0404261EB410113F0004F31
:100320004FEA03334CEA133302D0524263EB4303E8
:1003300094EA050F00F0A780A4F10104D5F1200E86
:100340000DDB02FA0EFC22FA05F2801841F10001E1
:1003500003FA0EF2801843FA05F359410EE0A5F1B5
:1003600020050EF1200E012A03FA0EFC28BF4CF0E6
:10037000020C43FA05F3C01851EBE37101F000459C
:1003800007D54FF0000EDCF1000C7EEB00006EEBA9
:100390000101B1F5801F1BD3B1F5001F0CD3490833
:1003A0005FEA30004FEA3C0C04F101044FEA44528A
:1003B00012F5800F80F09A80BCF1004F08BF5FEA11
:1003C000500C50F1000041EB045141EA050130BDF1
:1003D0005FEA4C0C404141EB0101013C28BFB1F503
:1003E000801FE9D291F0000F04BF01460020B1FA4E
:1003F00081F308BF2033A3F10B03B3F120020CDA21
:100400000C3208DD02F1140CC2F10C0201FA0CF0FE
:1004100021FA02F10CE002F11402D8BFC2F1200C63
:1004200001FA02F120FA0CFCDCBF41EA0C01904019
:10043000E41AA2BF01EB0451294330BD6FEA040462
:100440001F3C1CDA0C340EDC04F11404C4F120024D
:1004500020FA04F001FA02F340EA030021FA04F35F
:1004600045EA030130BDC4F10C04C4F1200220FAB6
:1004700002F001FA04F340EA0300294630BD21FAF4
:1004800004F0294630BD94F0000F83F4801306BFBA
:1004900081F480110134013D4EE77FEA645C18BFAE
:1004A0007FEA655C29D094EA050F08BF90EA020F45
:1004B00005D054EA000C04BF1946104630BD91EA3D
:1004C000030F1EBF0021002030BD5FEA545C05D140
:1004D0004000494128BF41F0004130BD14F580047F
:1004E0003CBF01F5801130BD01F0004545F0FE41F3
:1004F00041F470014FF0000030BD7FEA645C1ABF28
:10050000194610467FEA655C1CBF0B46024650EA5E
:10051000013406BF52EA033591EA030F41F400218A
:1005200030BD00BF90F0000F04BF0021704730B510
:100530004FF4806404F132044FF000054FF00001E5
:1005400050E700BF90F0000F04BF0021704730B5A6
:100550004FF4806404F1320410F0004548BF40427B
:100560004FF000013EE700BF42004FEAE2014FEAD0
:1005700031014FEA02701FBF12F07F4393F07F4FAB
:1005800081F06051704732F07F4208BF704793F0AE
:100590007F4F04BF41F40021704730B54FF46074C1
:1005A00001F0004521F000411CE700BF50EA0102C4
:1005B00008BF704730B54FF000050AE050EA01026D
:1005C00008BF704730B511F0004502D5404261EBDD
:1005D00041014FF4806404F132045FEA915C3FF41E
:1005E000D8AE4FF003025FEADC0C18BF03325FEABB
:1005F000DC0C18BF033202EBDC02C2F1200300FA6C
:1006000003FC20FA02F001FA03FE40EA0E0021FA90
:1006100002F11444BDE600BF70B54FF0FF0C4CF47E
:10062000E06C1CEA11541DBF1CEA135594EA0C0F30
:1006300095EA0C0F00F0DEF82C4481EA030621EA6B
:100640004C5123EA4C5350EA013518BF52EA0335A6
:1006500041F4801143F4801338D0A0FB02CE4FF058
:100660000005E1FB02E506F00042E0FB03E54FF088
:100670000006E1FB03569CF0000F18BF4EF0010E80
:10068000A4F1FF04B6F5007F64F5407404D25FEA7C
:100690004E0E6D4146EB060642EAC62141EA55512F
:1006A0004FEAC52040EA5E504FEACE2EB4F1FD0C71
:1006B00088BFBCF5E06F1ED8BEF1004F08BF5FEAEF
:1006C000500E50F1000041EB045170BD06F00046A1
:1006D00046EA010140EA020081EA0301B4EB5C044E
:1006E000C2BFD4EB0C0541EA045170BD41F4801146
:1006F0004FF0000E013C00F3AB8014F1360FDEBF6B
:10070000002001F0004170BDC4F10004203C35DA46
:100710000C341BDC04F11404C4F1200500FA05F3C9
:1007200020FA04F001FA05F240EA020001F000426A
:1007300021F0004110EBD37021FA04F642EB0601E0
:100740005EEA430E08BF20EAD37070BDC4F10C040A
:10075000C4F1200500FA04F320FA05F001FA04F2CE
:1007600040EA020001F0004110EBD37041F10001BA
:100770005EEA430E08BF20EAD37070BDC4F12005C5
:1007800000FA05F24EEA020E20FA04F301FA05F22D
:1007900043EA020321FA04F001F0004121FA04F2D5
:1007A00020EA020000EBD3705EEA430E08BF20EAA5
:1007B000D37070BD94F0000F0FD101F000464000DF
:1007C00041EB010111F4801F08BF013CF7D041EA61
:1007D000060195F0000F18BF704703F00046520065
:1007E00043EB030313F4801F08BF013DF7D043EA36
:1007F0000603704794EA0C0F0CEA135518BF95EAEC
:100800000C0F0CD050EA410618BF52EA4306D1D172
:1008100081EA030101F000414FF0000070BD50EA91
:10082000410606BF1046194652EA430619D094EA1B
:100830000C0F02D150EA013613D195EA0C0F05D105
:1008400052EA03361CBF104619460AD181EA030159
:1008500001F0004141F0FE4141F470014FF0000011
:1008600070BD41F0FE4141F4780170BD70B54FF0AC
:10087000FF0C4CF4E06C1CEA11541DBF1CEA13552C
:1008800094EA0C0F95EA0C0F00F0A7F8A4EB05040E
:1008900081EA030E52EA03354FEA013100F0888005
:1008A0004FEA03334FF0805545EA131343EA1263CE
:1008B0004FEA022245EA111545EA10654FEA002683
:1008C0000EF000419D4208BF964244F1FD0404F53C
:1008D000407402D25B084FEA3202B61A65EB030598
:1008E0005B084FEA32024FF480104FF4002CB6EB55
:1008F000020E75EB030E22BFB61A754640EA0C00D5
:100900005B084FEA3202B6EB020E75EB030E22BF14
:10091000B61A754640EA5C005B084FEA3202B6EB55
:10092000020E75EB030E22BFB61A754640EA9C0014
:100930005B084FEA3202B6EB020E75EB030E22BFE4
:10094000B61A754640EADC0055EA060E18D04FEAA2
:10095000051545EA16754FEA06164FEAC30343EA42
:1009600052734FEAC2025FEA1C1CC0D111F4801F0F
:100970000BD141EA00014FF000004FF0004CB6E708
:1009800011F4801F04BF01430020B4F1FD0C88BFA7
:10099000BCF5E06F3FF6AFAEB5EB030C04BFB6EBB2
:1009A000020C5FEA500C50F1000041EB045170BDA5
:1009B0000EF0004E4EEA113114EB5C04C2BFD4EBD2
:1009C0000C0541EA045170BD41F480114FF0000E56
:1009D000013C90E645EA060E8DE60CEA135594EAD2
:1009E0000C0F08BF95EA0C0F3FF43BAF94EA0C0FD5
:1009F0000AD150EA01347FF434AF95EA0C0F7FF44A
:100A000025AF104619462CE795EA0C0F06D152EA9D
:100A100003353FF4FDAE1046194622E750EA410681
:100A200018BF52EA43067FF4C5AE50EA41047FF492
:100A30000DAF52EA43057FF4EBAE12E74FF0FF3CF7
:100A400006E000BF4FF0010C02E000BF4FF0010CC8
:100A50004DF804CD4FEA410C7FEA6C5C4FEA430C41
:100A600018BF7FEA6C5C1BD001B050EA410C0CBF90
:100A700052EA430C91EA030F02BF90EA020F0020F2
:100A8000704710F1000F91EA030F58BF994208BF59
:100A900090422CBFD8176FEAE37040F00100704716
:100AA0004FEA410C7FEA6C5C02D150EA013C07D16D
:100AB0004FEA430C7FEA6C5CD6D152EA033CD3D0B8
:100AC0005DF8040B704700BF8446104662468C46B2
:100AD0001946634600E000BF01B5FFF7B7FF0028E5
:100AE00048BF10F1000F01BD4DF808EDFFF7F4FF0E
:100AF0000CBF012000205DF808FB00BF4DF808ED99
:100B0000FFF7EAFF34BF012000205DF808FB00BFBB
:100B10004DF808EDFFF7E0FF94BF012000205DF8DD
:100B200008FB00BF4DF808EDFFF7CEFF94BF012092
:100B300000205DF808FB00BF4DF808EDFFF7C4FF8B
:100B400034BF012000205DF808FB00BF4FEA410CD4
:100B50007FEA6C5C02D150EA013C0AD14FEA430CB7
:100B60007FEA6C5C02D152EA033C02D14FF00000F4
:100B700070474FF0010070474FEA410212F5001232
:100B800015D211D56FF47873B3EB625212D94FEAD4
:100B9000C12343F0004343EA505311F0004F23FABE
:100BA00002F018BF404270474FF00000704750EA13
:100BB000013005D111F0004008BF6FF000407047D0
:100BC0004FF00000704700BF4FEA4102B2F1E0432E
:100BD00024BFB3F5001CDCF1FE5C0DD901F0004C24
:100BE0004FEAC0024CEA5070B2F1004F40EB830074
:100BF00008BF20F00100704711F0804F21D113F1A0
:100C00003872BCBF01F00040704741F480114FEAD8
:100C10005252C2F11802C2F1200C10FA0CF320FA61
:100C200002F018BF40F001004FEAC1234FEAD3237E
:100C300003FA0CFC40EA0C0023FA02F34FEA4303E8
:100C4000CCE77FEA625307D150EA01331EBF4FF071
:100C5000FE4040F44000704701F0004040F0FE408C
:100C600040F40000704700BF80F0004002E000BF89
:100C700081F0004142001FBF5FEA410392EA030F87
:100C80007FEA226C7FEA236C6AD04FEA1262D2EBD1
:100C90001363C1BFD218414048404140B8BF5B42D6
:100CA000192B88BF704710F0004F40F4000020F06F
:100CB0007F4018BF404211F0004F41F4000121F085
:100CC0007F4118BF494292EA030F3FD0A2F10102CF
:100CD00041FA03FC10EB0C00C3F1200301FA03F10D
:100CE00000F0004302D5494260EB4000B0F5000F30
:100CF00013D3B0F1807F06D340084FEA310102F1EF
:100D00000102FE2A51D2B1F1004F40EBC25008BFA0
:100D100020F0010040EA03007047490040EB00006A
:100D2000013A28BFB0F5000FEDD2B0FA80FCACF16B
:100D3000080CB2EB0C0200FA0CF0AABF00EBC25098
:100D400052421843BCBFD0401843704792F0000F86
:100D500081F4000106BF80F400000132013BB5E7D9
:100D60004FEA41037FEA226C18BF7FEA236C21D04F
:100D700092EA030F04D092F0000F08BF08467047B4
:100D800090EA010F1CBF0020704712F07F4F04D182
:100D9000400028BF40F00040704712F100723CBF95
:100DA00000F50000704700F0004343F0FE4040F4BF
:100DB000000070477FEA226216BF08467FEA23637D
:100DC0000146420206BF5FEA412390EA010F40F468
:100DD000800070474FF0000304E000BF10F00043B4
:100DE00048BF40425FEA000C08BF704743F096439B
:100DF00001464FF000001CE050EA010208BF7047B6
:100E00004FF000030AE000BF50EA010208BF70473C
:100E100011F0004302D5404261EB41015FEA010C51
:100E200002BF84460146002043F0B64308BFA3F149
:100E30008053A3F50003BCFA8CF2083AA3EBC2532B
:100E400010DB01FA02FC634400FA02FCC2F120024A
:100E5000BCF1004F20FA02F243EB020008BF20F081
:100E60000100704702F1200201FA02FCC2F12002E7
:100E700050EA4C0021FA02F243EB020008BF20EADC
:100E8000DC70704753B94AB9002908BF00281CBF5D
:100E90004FF0FF314FF0FF3000F088B9ADF1080C92
:100EA0006DE904CE00F006F8DDF804E0DDE9022388
:100EB00004B070472DE9F047089D0F4604468C4664
:100EC000002B48D18A42164661D9B2FA82F34BB15F
:100ED000C3F1200201FA03FC20FA02F29E4042EA2A
:100EE0000C0C9C404FEA164EB7B2BCFBFEF1220C34
:100EF0000EFB11CC42EA0C4201FB07F0904209D9EB
:100F0000B21801F1FF3C80F0EE80904240F2EB809D
:100F100002393244121AA4B2B2FBFEF00EFB1022C8
:100F200044EA024400FB07F7A74209D9341900F14B
:100F3000FF3280F0DA80A74240F2D7803444023892
:100F400040EA0140E41B00211DB1DC400023C5E95B
:100F50000043BDE8F0878B4206D90DB1C5E9000119
:100F600000210846BDE8F087B3FA83F1002948D193
:100F7000BB4202D3824200F20781841A67EB03026C
:100F800001209446002DE4D0C5E9004CE1E7002A99
:100F900000F09280B2FA82F3002B40F0A8808A1A07
:100FA0004FEA164E1FFA86FC0121200CB2FBFEF719
:100FB0000EFB172240EA02420CFB07F0904207D9D1
:100FC000B21807F1FF3802D2904200F2E2804746A1
:100FD000121AA4B2B2FBFEF00EFB102244EA024445
:100FE0000CFB00FCA44507D9341900F1FF3202D2F2
:100FF000A44500F2CB801046A4EB0C0440EA074065
:10100000A2E7C1F120068B4022FA06FC4CEA030C51
:1010100007FA01F420FA06F3F7404FEA1C4923438C
:1010200000FA01F81FFA8CFEB7FBF9F01C0C09FB63
:10103000107744EA074400FB0EF7A74202FA01F2D8
:101040000AD91CEB040400F1FF3A80F09B80A74210
:1010500040F2988002386444E41B9FB2B4FBF9F379
:1010600009FB134447EA044403FB0EFEA64509D9D5
:101070001CEB040403F1FF3780F08280A6457FD982
:10108000023B644443EA0040A4EB0E04A0FB02E7E9
:10109000BC427346B94663D360D05DB1B8EB03027E
:1010A00064EB090404FA06F622FA01F31E43CC406D
:1010B000C5E9006400214CE76208480842EAC171B2
:1010C0000B0C43EA00438AB242EA0342B3FBF6F157
:1010D000E407B4463746B6461F23B0FBF6F0D21BF2
:1010E00041EA004161E7614614E7104628E7C3F191
:1010F000200120FA01F29E4027FA01F19F403A4375
:101100004FEA164E1FFA86FCB1FBFEF70EFB1710D6
:10111000110C41EA004107FB0CF8884504FA03F47E
:101120003AD9711807F1FF3001D288451FD8A1EBD9
:101130000801B1FBFEF808FB0CF70EFB181192B288
:1011400042EA0142BA422FD2B21808F1FF31C6D2A8
:10115000BA42C4D2A8F102013244C0E7F0459CD2A1
:10116000BEEB020367EB0C070138B94695E7A6EB27
:1011700008084144B81EB1FBFEF808FB0CF7DCE799
:101180003B467FE7504667E70846FBE634440238B3
:1011900032E7023F32441BE7A1EB08013846B1FBBE
:1011A000FEF808FB0CF7C8E7414698E7704700BF18
:1011B00080B485B000AFF860B9607A60FB68074A18
:1011C0001A60BB68064A1A607B6880221A6000BFFA
:1011D0001437BD465DF8047B704700BF1C02002039
:1011E0007002002080B586B004AF78600B46FB70BB
:1011F0001346BB707B68002B03D07B681B68002BF9
:1012000001D1002313E07B681868FB789AB20323AE
:10121000029301230193BB1C00930123D02108F00A
:1012200081FB0346002B0CBF01230023DBB21846D1
:101230000837BD4680BD80B588B004AFF8607A60DD
:101240001A460B46FB7213463B81FB68002B09D004
:10125000FB681B68002B05D07B68002B02D03B8904
:10126000002B01D1002313E0FB681868FB7A9AB2C7
:10127000032302933B8901937B6800930123D021D0
:1012800008F04AFC0346002B0CBF01230023DBB20D
:1012900018461037BD4680BD80B582B000AF78607B
:1012A0000B46FB70FB781B01DBB21A467F21786886
:1012B000FFF798FF034618460837BD4680BD80B546
:1012C00084B000AF786039603B68002B0CD007F128
:1012D0000C02022337217868FFF7ADFF034683F045
:1012E0000103DBB2002B01D000230AE03B7B1BB2E1
:1012F0001B021AB27B7B1BB213431AB23B681A80E3
:10130000012318461037BD4680BD80B584B000AFBC
:10131000786039600023FB737B68002B02D03B6848
:10132000002B01D100238FE07B683A681A607B684C
:101330004FF000025A6000217868FFF7ADFF0346C6
:1013400083F00103DBB2002B0AD1802206217868EA
:10135000FFF748FF034683F00103DBB2002B01D007
:10136000002371E064200CF0B6FB00217868FFF7E1
:1013700093FF034683F00103DBB2002B0FD107F18B
:101380000F02012300217868FFF755FF034683F021
:101390000103DBB2002B02D1FB7BEA2B01D000233F
:1013A00052E0012206217868FFF71CFF034683F014
:1013B0000103DBB2002B15D1002207217868FFF76B
:1013C00011FF034683F00103DBB2002B0AD1002298
:1013D00005217868FFF706FF034683F00103DBB2BF
:1013E000002B01D000232FE002217868FFF754FF83
:1013F000034683F00103DBB2002B1FD11122002131
:101400007868FFF7EFFE034683F00103DBB2002BA1
:1014100014D12F2201217868FFF7E4FE034683F000
:101420000103DBB2002B09D100217868FFF734FFFC
:10143000034683F00103DBB2002B01D0002303E05D
:1014400014200CF048FB012318461037BD4680BD20
:1014500080B582B000AF786039607B68002B02D025
:101460003B68002B01D1002312E0386808F02AFA0B
:1014700005200CF030FB386808F0E0F80346002B3C
:1014800001D0002304E039687868FFF73EFF034687
:1014900018460837BD4680BD2DE9B04388B000AF7F
:1014A000F8600B467A607B814FF000024FF000033A
:1014B000C7E90623FB68002B02D07B89002B01D1F2
:1014C000002339E00023FB8221E078680CF003FB65
:1014D00007F114031946F868FFF7F1FE034683F09D
:1014E0000103DBB2002B01D0002325E0B7F9143053
:1014F0001BB2DA171C461546D7E9062312EB04087F
:1015000043EB0509C7E90689FB8A0133FB82FA8AA6
:101510007B899A42D9D3D7E90601FFF775FC06EE1D
:10152000900A7B8907EE903AB8EE677AC6EE877A22
:10153000FB68C3ED017A012318462037BD46BDE89C
:10154000B083000080B586B000AFF86087ED020A76
:1015500079607B68002B0BD007F116031946F868F9
:10156000FFF7ADFE034683F00103DBB2002B01D091
:10157000002316E0B7F9163007EE903AB8EEE77A96
:10158000FB68D3ED017A77EE677ADFED086A87EEC4
:10159000A67AD7ED027A67EE277A7B68C3ED007AE8
:1015A000012318461837BD4680BD00BF3333834141
:1015B00080B400AF074B1B78DAB2074B1B78DBB265
:1015C0009A420CBF01230023DBB21846BD465DF8EA
:1015D000047B7047FC0A0020FD0A002080B485B01F
:1015E00000AF3B4683E80300124B1B78DBB20133AC
:1015F000DBB203F01F03FB730F4B1B78DBB2FA7BEC
:101600009A4201D100230EE00A4B1B78DBB20B4A51
:10161000DB0013443A4692E8030083E80300054ADE
:10162000FB7B1370012318461437BD465DF8047B1D
:10163000704700BFFD0A0020FC0A0020FC090020C2
:1016400090B583B000AF7860FFF7B2FF0346002B80
:1016500001D0002316E00D4B1B78DBB279680C4AF1
:101660000C46DB00134493E8030084E80300074BB7
:101670001B78DBB20133DBB203F01F03DAB2034B9A
:101680001A70012318460C37BD4690BDFC0A002095
:10169000FC09002080B400AF72B600BF0021064BE9
:1016A0000A461A70054B0A461A7062B600BF00BFA0
:1016B000BD465DF8047B7047FD0A0020FC0A00204F
:1016C00080B483B000AF78607B681B68054A9342A2
:1016D00002D1054B00221A7000BF0C37BD465DF8E1
:1016E000047B704700480040FE0A002080B500AF30
:1016F000084B1B78DBB2002B0AD1064B01221A7073
:101700000322054905480BF0BEF9FFF7C3FF00E0CF
:1017100000BF80BDFE0A0020102C010864070020D5
:1017200080B485B000AF78600E4B5B68FB600E4BF9
:101730001B680E4AA2FB03239A0C7B6802FB03F38F
:10174000BB6000E000BF074B5A68FB68D31ABA6859
:101750009A42F7D800BF00BF1437BD465DF8047B3E
:10176000704700BF001000E02800002083DE1B430C
:1017700080B400AF084BDB68074A43F08073D36046
:10178000064B1B68054A43F00103136000BFBD46CA
:101790005DF8047B704700BFF0ED00E0001000E052
:1017A00080B400AF0C4B1B6841F61F42DA630A4B52
:1017B0001B6841F61F421A64084B1B6841F61F4222
:1017C0005A63064B1B6841F61F429A6300BFBD4631
:1017D0005DF8047B704700BFFC0500208C060020EC
:1017E00080B483B000AF7860074B1B687A68DA6317
:1017F000054B1B6841F61F421A6400BF0C37BD46FB
:101800005DF8047B704700BFFC05002080B483B006
:1018100000AF7860074B1B687A685A63054B1B68FA
:1018200041F61F429A6300BF0C37BD465DF8047B4A
:10183000704700BF8C06002080B483B000AF786092
:10184000074B1B6841F61F42DA63054B1B687A6839
:101850001A6400BF0C37BD465DF8047B704700BFBB
:10186000FC05002080B483B000AF7860074B1B6894
:1018700041F61F425A63054B1B687A689A6300BFA2
:101880000C37BD465DF8047B704700BF8C06002016
:1018900080B400AF044B1A88044B1B689A6300BFE6
:1018A000BD465DF8047B704724000020D40600206C
:1018B00080B400AF044B1B68F0229A6300BFBD46A2
:1018C0005DF8047B704700BFD406002080B400AFF1
:1018D000044B1B68F0229A6300BFBD465DF8047B91
:1018E000704700BFD406002080B400AF044B1B68D3
:1018F0006E229A6300BFBD465DF8047B704700BF4F
:10190000D406002080B400AF044B1B686E229A639B
:1019100000BFBD465DF8047B704700BFD4060020C1
:1019200080B400AF064BA4221A80054B1A88054BE1
:101930001B689A6300BFBD465DF8047B704700BF1B
:1019400024000020D406002080B400AF064B97226C
:101950001A80054B1A88054B1B689A6300BFBD4669
:101960005DF8047B704700BF24000020D4060020EF
:1019700080B483B000AF78607B68002B01DA00236D
:1019800007E07B68B3F5E15F02DB41F61F4300E04F
:101990007B6818460C37BD465DF8047B704780B401
:1019A00083B000AF78607B68042B08D07B68052B80
:1019B00005D07B68062B02D07B68072B01D1012361
:1019C00000E0002303F00103DBB218460C37BD46EC
:1019D0005DF8047B704780B483B000AF78607B68AB
:1019E000062B02D07B68072B01D1012300E00023E6
:1019F00003F00103DBB218460C37BD465DF8047BEB
:101A0000704780B483B000AF78607B68042B02D04D
:101A10007B68062B01D1012300E0002303F00103C2
:101A2000DBB218460C37BD465DF8047B70470000FA
:101A300080B483B000AF78607B68052B02D07B68F0
:101A4000062B02D14FF07E5300E0054B07EE903A93
:101A5000B0EE670A0C37BD465DF8047B704700BFE7
:101A6000000080BF80B582B000AF78607B68042B37
:101A700002D1FFF71DFF10E07B68052B02D1FFF7B5
:101A800033FF0AE07B68062B02D1FFF71FFF04E05B
:101A90007B68072B01D1FFF735FF00BF0837BD4634
:101AA00080BD80B582B000AF78607868FFF7A9FF8D
:101AB0000346002B02D0FFF747FF01E0FFF730FF9E
:101AC00000BF0837BD4680BD80B500AF1E4B4FF04C
:101AD00000021A6006F07EF903461C4A13601C4B94
:101AE00000221A601B4BD3ED007A9FED1B7A67EE44
:101AF000877AFCEEE77A17EE902A144B1B681344A2
:101B000003F2DC53154A1360154B01221A70154B72
:101B100093ED007A144BD3ED007A77EE677A134B8E
:101B2000C3ED007A124B4FF000021A60114B41F6E0
:101B30001F421A60104B41F61F421A600F4B0122E0
:101B40001A7000BF80BD00BF380B00203C0B002086
:101B5000400B0020000000200000A042440B0020A9
:101B6000480B0020080B00200C0B00202C0B002041
:101B7000300B00200400002008000020280B00206B
:101B800080B400AF114B4FF000021A60104B0022DE
:101B90001A60104B00221A600F4B00221A600F4B84
:101BA00000221A700E4B4FF000021A600D4B41F6E6
:101BB0001F421A600C4B41F61F421A600B4B002269
:101BC0001A7000BFBD465DF8047B7047380B0020DB
:101BD0003C0B0020400B0020440B0020480B002051
:101BE000300B00200400002008000020280B0020FB
:101BF00080B584B000AF87ED010AD7ED017AB6EE6B
:101C0000007A77EE877AFDEEE77A17EE903AC3F521
:101C1000E0531F33FB60F868FFF7AAFE034618463F
:101C20001037BD4680BD000080B586B000AFF860BB
:101C3000B9607A60F868FFF7E4FE0346002B04D031
:101C4000BB687B617B683B6103E07B687B61BB6851
:101C50003B617869FFF78CFE78613869FFF788FE91
:101C600038610E4A7B6913600D4A3B691360F8685E
:101C7000FFF7B1FE0346002B06D07869FFF7DCFDC5
:101C80003869FFF7EFFD05E07869FFF7A9FD3869CE
:101C9000FFF7BCFD00BF1837BD4680BD0400002023
:101CA0000800002080B584B000AF7860FFF778FDB1
:101CB0007868FFF7F6FEFFF763FF2A4B1B682A4A96
:101CC00013602A4B1B78DBB2002B3DD0284B1B68DE
:101CD0005B6A9AB2274B1A80274B1B685B6A9AB2E1
:101CE000264B1A80214B1B78DBB207EE903AF8EEB8
:101CF000E77A9FED237A67EE877AB6EE007A77EE81
:101D0000877AFDEEE77A17EE903AFB601D4B0022D2
:101D10001A701D4B01221A707868FFF75CFE0346AB
:101D2000002B07D0FB685B42184A1360184B022255
:101D30001A7005E0154AFB681360154B01221A70F2
:101D40000A4B00221A7009E0114B00221A7006F0AB
:101D500041F8034603F5FA730E4A136000BF1037CB
:101D6000BD4680BD0C0B0020100B0020500B002046
:101D70006C050020000B0020B4050020020B0020A1
:101D8000896D93426A0B00207C0B0020040B00201D
:101D9000EE070020F809002080B584B000AF78601D
:101DA0007868FEF775FAB860BB685F2B21D800230E
:101DB000FB600BE07A68FB68134419780F4AFB68F4
:101DC00013440A461A70FB680133FB60FA68BB686B
:101DD0009A42EFD907220A4978680DF0B5FE03460A
:101DE000002B02D1074B01221A70074B01221A70F7
:101DF00000E000BF1037BD4680BD00BFC00B002013
:101E000058270108BC0B0020BD0B002080B582B014
:101E100000AF78607B68044A502104480DF012FE40
:101E200000BF0837BD4680BD60270108380C002080
:101E300080B500AF154B1B78002B24D0144B1B78BA
:101E4000DBB2002B1FD1134A104B1046194650230A
:101E50001A460DF07CFF0E4B01221A700D48FEF75A
:101E600017FA03469BB21A460A490B480AF00BFEC2
:101E70000346002B03D1054B00221A7004E0044BEB
:101E800000221A7000E000BF80BD00BF380C0020A7
:101E9000FE0A0020880C00206407002080B500AFF7
:101EA0000A4B1B68002B02DDFFF74EFD08E0074BD5
:101EB0001B68002B02DAFFF733FD01E0FFF7E8FCB7
:101EC000024B00221A6000BF80BD00BF240C00201E
:101ED00080B582B000AFEFF310833B603B687B605E
:101EE00072B600BF164B00221A70164B00221A70F1
:101EF0007B68002B01D162B600BF134B1B78002B0F
:101F000001D0FFF7CBFF104804F042FC0F4B00223A
:101F10001A700F4B00221A600E4B00221A600E4BF3
:101F200000221A600D4B00221A700D4B00221A700D
:101F30000C4B01221A7000BF0837BD4680BD00BFA0
:101F4000BD0B0020BC0B00209C0B0020200C0020AF
:101F5000280C00202C0C0020300C0020340C002019
:101F6000380C00207C0B002080B584B000AF786076
:101F700039602F4B1B78DBB2FB60FFF711FCF86870
:101F8000FFF70DFD0346002B03D0F868FFF789FD2E
:101F900001E0FFF783FFFFF77DFBFFF7F1FD254B26
:101FA00000221A70244B00221A70244B00221A704F
:101FB000234B00221A60234B1B68234A1360234BD8
:101FC00000221A70224B00221A60224B00221A6053
:101FD000214B00221A60214B4FF000021A60204B67
:101FE00000221A601F4B4FF000021A601E4B0122A4
:101FF0001A703A6879681D4804F0D7FB1C4B01221F
:102000001A701C4B00221A701B4B00221A601B4BCB
:1020100000221A601A4B00221A601A4B00221A7012
:10202000034B08221A7000BF1037BD4680BD00BFA9
:10203000EE0700206A0B00207D0B00207E0B0020A5
:10204000040B00200C0B0020100B0020500B002074
:102050004C0B0020F80900206C0B0020700B0020B6
:10206000740B0020780B00207C0B00209C0B0020C0
:10207000BC0B0020200C0020280C00202C0C002081
:10208000300C0020340C002080B590B000AF3B1D18
:1020900083E807007B68002B04D0FB68002B01DD80
:1020A000012200E00022914B1A70904B1B78DBB2AA
:1020B000002B25D18E4B1B78002B06D0FFF770FB31
:1020C000FFF7ECFE8B4B01221A70894B00221A702D
:1020D000894B00221A60894B00221A60884B41F616
:1020E0001F421A60874B41F61F421A60864B1B88BD
:1020F0001A46864B1A60864B08221A700123F0E0BC
:10210000FB687E4A1360BB68002B2FD1784B1B788D
:10211000012B04D17A68784B1B689A4216D0FFF7DE
:102120003FFBFFF7BBFE7B4B1B687B4A13607B4B7F
:1021300000221A707B68002B02DD6FF0004300E084
:10214000774B784A13606B4B01221A70684B01225F
:102150001A707B68684A13607B68002B01DD0122DE
:1021600000E002226A4B1A700023BAE07B68DB0FA2
:10217000DBB2BB63BB68002BCCBF01230023DBB207
:102180007B63BB68002BB8BF5B423B63BB6B002B20
:1021900006D17B6B002B01D0042307E0052305E06B
:1021A0007B6B002B01D0062300E00723FB62504B22
:1021B0001B78022B0FD17A684F4B1B689A420AD1C9
:1021C000594B1B68002BCCBF01230023DBB21A46FE
:1021D0007B6B934204D0FFF7E3FA464B01221A705F
:1021E0007B6B002B01D0F02300E06E23BB62464BDB
:1021F0001B881946444B1B881A46BB6A9B1A3A6BCC
:1022000002FB03F3494A82FB03025211DB17D31A84
:102210000B447B62464B1B687A6A9A63BB68424AEE
:102220001360FB6807EE903AB8EEE77ADFED416A9B
:10223000C7EE267A9FED407A67EE877AC7ED0F7A70
:10224000D7ED0F7A9FED3D7AF4EEC77AF1EE10FAF2
:1022500001D53B4BFB63D7ED0F7A9FED377AF4EE58
:10226000C77AF1EE10FA01DD364BFB63364B3B6269
:10227000B7EE007AD7ED087A37EE677A3B6B07EE58
:10228000903AF8EEE76A9FED2B6AC6EE867A67EE23
:10229000277AB7EE007A77EE677AC7ED077A97ED7F
:1022A0000F0AFFF7A5FCB86197ED0F7AD7ED077A13
:1022B00067EE277AB0EE670AFFF79AFC7861234A47
:1022C000FB6B13607A69B969F86AFFF7ADFC084BDC
:1022D00002221A707B68084A13600D4B08221A709C
:1022E000012318464037BD4680BD00BF200C0020AA
:1022F000340C00207C0B0020300C00202C0C002023
:102300000C000020100000202400002014000020F9
:10231000EE0700200C0B0020100B00206A0B0020A1
:1023200001000080040B0020240C00201F85EB51CD
:10233000D40600200000C84200C0004500802244AE
:102340000080224400C000453D0AD73E300B0020EB
:1023500080B5C2B002AF002387F8FF3005F03AFD28
:10236000C7F8F400EFF31083C7F8D830D7F8D830A7
:10237000C7F8F03072B600BF8F4B1B78DBB2002B72
:102380001FD00023C7F8F83011E08C4AD7F8F83096
:1023900013441B78D9B207F17402D7F8F83013440C
:1023A0000A461A70D7F8F8300133C7F8F830D7F872
:1023B000F8305F2BE9D9804B00221A70012387F88F
:1023C000FF30D7F8F030002B01D162B600BFD7F84C
:1023D000F4107B4804F002FA0346002B0CD0784B33
:1023E0005B6807F12400774A50210DF02BFB07F1C1
:1023F00024031846FFF70AFD97F8FF30002B4CD056
:102400003A4607F174031146184604F0F5F80346FE
:10241000002B42D007F58073A3F580731B78002B47
:102420001AD107F58073A3F580735B68D7F8F410B1
:102430001846FFF799FD07F58073A3F580735B6875
:1024400007F12400604A50210DF0FCFA07F1240343
:102450001846FFF7DBFC20E03B46D7F8F42019468E
:10246000574804F0E7F90346002B16D007F58073B0
:10247000A3F580735A6807F58073A3F580739B6892
:1024800007F1240000931346504A50210DF0DAFA68
:1024900007F124031846FFF7B9FC494B1B7883F07A
:1024A0000103DBB2002B1BD0EFF31083C7F8D4304D
:1024B000D7F8D430C7F8DC3072B600BF3E4B1B787B
:1024C000DBB2002B02D1424B00221A70D7F8DC306D
:1024D000002B01D162B600BFFFF7AAFC002365E024
:1024E00007F11803D7F8F4203549184604F028FA04
:1024F000FB69002BCCBF01230023DBB21A46FB692A
:10250000DB0FDBB2D31AC7F8EC30BB69002B0AD063
:10251000BB69002B01DD012200E00422D7F8EC307A
:102520000133134400E00023C7F8E830D7F8E8305F
:10253000002B2BD0274B1B68D7F8E8209A4225D0D8
:10254000BB69002B0DDDD7F8EC30002B07DBD7F88B
:10255000EC30002B01DD204B10E0204B0EE0204B37
:102560000CE0D7F8EC30002B07DBD7F8EC30002B71
:1025700001DD1C4B02E01C4B00E01C4BC7F8E430B3
:102580003B6A1946D7F8E40004F0FEFE114AD7F87A
:10259000E830136007F1180393E80700FFF774FDB4
:1025A000C7F8E000FFF744FCD7F8E030184607F51D
:1025B0008077BD4680BD00BFBD0B0020C00B002052
:1025C0009C0B0020642701087C2701088C27010848
:1025D000BC0B0020280C00209C270108A427010820
:1025E000AC270108B4270108BC270108C42701084B
:1025F00080B400AF184B1B78DBB2082B26D801A2A1
:1026000052F823F0292600082D260008312600085C
:1026100035260008392600083D2600084126000816
:1026200045260008492600080C4B10E00C4B0EE034
:102630000C4B0CE00C4B0AE00C4B08E00C4B06E09A
:102640000C4B04E00C4B02E00C4B00E00C4B18462A
:10265000BD465DF8047B7047EE070020CC270108DB
:10266000D4270108DC270108E4270108EC2701082A
:10267000F8270108042801080C280108142801087B
:102680001C28010880B58CB000AF78607B68FB62C5
:1026900009E0FB6A1B782C2B02D1FB6A20221A70FE
:1026A000FB6A0133FB62FB6A1B78002BF1D18F4977
:1026B00078680DF06FFAB86205E18D49B86AFDF7E8
:1026C00087FD0346002B03D18A4B01221A70FEE0DE
:1026D00000233B750023BB618749B86AFDF778FD8D
:1026E0000346002B04D10B233B750023BB61D1E0D3
:1026F0008249B86AFDF76CFD0346002B04D10C2318
:102700003B750023BB61C5E07D49B86AFDF760FDFC
:102710000346002B04D10D233B750023BB61B9E0B8
:102720007849B86AFDF754FD0346002B04D10E2307
:102730003B750023BB61ADE07349B86AFDF748FD06
:102740000346002B04D107233B750023BB61A1E0A6
:102750006E49B86AFDF73CFD0346002B04D10823FF
:102760003B750023BB6195E0BB6A1B78662B0ED1DD
:10277000BB6A01331B78782B09D110233B75BB6AE8
:10278000023318460CF0B6FB0346BB6182E0BB6A1D
:102790001B78662B0ED1BB6A01331B78752B09D1D0
:1027A0000F233B75BB6A023318460CF0A3FB0346AC
:1027B000BB616FE0BB6A1B78662B0ED1BB6A01332D
:1027C0001B78722B09D103233B75BB6A0233184671
:1027D0000CF090FB0346BB615CE0BB6A1B78662B88
:1027E0000ED1BB6A01331B786C2B09D104233B75D6
:1027F000BB6A023318460CF07DFB0346BB6149E01F
:10280000BB6A1B78722B0ED1BB6A01331B78722B0B
:1028100009D105233B75BB6A023318460CF06AFBED
:102820000346BB6136E0BB6A1B78722B0ED1BB6AD4
:1028300001331B786C2B09D106233B75BB6A02332D
:1028400018460CF057FB0346BB6123E0BB6A1B78BC
:10285000662B09D101233B75BB6A013318460CF086
:1028600049FB0346BB6115E0BB6A1B78722B09D19B
:1028700002233B75BB6A013318460CF03BFB034651
:10288000BB6107E0BB6A1B78732B03D109233B753F
:102890000023BB613B7D002B10D007F1140393E8AC
:1028A0000300FEF79BFE78627B6A002B06D1184A74
:1028B00007F1080307CA83E8070008E00B49002076
:1028C0000DF068F9B862BB6A002B7FF4F6AE0A23FC
:1028D0003B7700233B6207F11C0393E80300FEF7FC
:1028E0007DFE00BF3037BD4680BD00BF20280108F7
:1028F00024280108EC070020282801082C280108BA
:102900003028010838280108402801084428010817
:102910004828010880B483B000AF0346FB71FB79FF
:10292000013B0F2B40D801A252F823F06D2900087B
:102930007129000875290008792900087D290008F7
:102940008129000885290008892900088D290008A7
:10295000A92900089129000895290008992900084B
:102960009D290008A1290008A5290008124B1CE098
:10297000124B1AE0124B18E0124B16E0124B14E007
:10298000124B12E0124B10E0124B0EE0124B0CE017
:10299000124B0AE0124B08E0124B06E0124B04E027
:1029A000124B02E0124B00E0002318460C37BD46E4
:1029B0005DF8047B704700BF542801085C280108BB
:1029C000642801086C280108042801080C28010863
:1029D000742801087C280108E427010884280108DC
:1029E000882801088C280108942801089C280108DF
:1029F000A028010880B588B000AF3B1D1846FEF73F
:102A00001FFE0346002B01D100234CE33B791846FF
:102A1000FFF780FFF861FB69002B04D0BB68194603
:102A2000F86904F0B1FC3B79013B0F2B00F23983CC
:102A300001A252F823F000BF2D2C0008BF2C000883
:102A4000712D0008D12D0008312E0008912E0008AC
:102A50000F2F000801300008F12E0008072F000892
:102A60008D2B0008DD2B0008ED2A00083D2B000807
:102A7000792A0008792A0008934B1B685B6A9AB28E
:102A8000924B1A80924B1B685B6A9AB2914B1A80E8
:102A9000914B1B68914A1360FEF7FAFE904B00229F
:102AA0001A60904B4FF000021A608F4B6FF000429B
:102AB0001A60BB68002B02DDBB689BB200E01A23E2
:102AC0008A4A13803B790F2B0CBF01230023DBB212
:102AD0001A46874B1A70874B07221A70864B0122C1
:102AE0001A70864B01221A700123DCE2764B1B68B8
:102AF0005B6A9AB2754B1A80754B1B685B6A9AB217
:102B0000744B1A80744B1B68744A1360FEF7C0FE46
:102B1000734B00221A60734B4FF000021A60724B25
:102B20006FF000421A60734B05221A70724B01223B
:102B30001A70724B01221A700123B4E2624B1B68B7
:102B40005B6A9AB2614B1A80614B1B685B6A9AB2EE
:102B5000604B1A80604B1B68604A1360FEF798FE5A
:102B60005F4B00221A605F4B4FF000021A605E4B11
:102B70006FF000421A605F4B06221A705E4B012212
:102B80001A705E4B01221A7001238CE24E4B1B68B7
:102B90005B6A9AB24D4B1A804D4B1B685B6A9AB2C6
:102BA0004C4B1A804C4B1B684C4A1360FEF770FE6E
:102BB000534B00221A60534B4FF000021A604A4BED
:102BC0006FF000421A604B4B02221A704A4B0122EE
:102BD0001A704A4B01221A70012364E23A4B1B68B7
:102BE0005B6A9AB2394B1A80394B1B685B6A9AB29E
:102BF000384B1A80384B1B68384A1360FEF748FE82
:102C00003F4B00221A603F4B4FF000021A60364BD8
:102C10006FF000421A60374B03221A70364B0122C4
:102C20001A70364B01221A7001233CE2BB683B61EB
:102C3000254B1B685B6A9AB2244B1A80244B1B6895
:102C40005B6A9AB2234B1A80234B1B68234A13609A
:102C5000FEF71EFE3B69002B1BDD3B6907EE903A39
:102C6000F8EEE77A9FED287A67EE877AB6EE007A7B
:102C700077EE877AFDEEE77A17EE903AFB601A4A14
:102C8000FB6813601B4B00221A701B4B01221A7049
:102C900010E0184B01221A70134B6FF000421A60BB
:102CA0000F4B00221A600F4B4FF000021A60124BBC
:102CB00001221A70114B01221A700123F3E1BB6843
:102CC000002B23DDBB6822E06C050020000B0020F8
:102CD000B4050020020B00200C0B0020100B00207C
:102CE0006C0B0020700B0020040B00202000002043
:102CF000220000206A0B0020EE0700207C0B002041
:102D0000740B0020780B0020896D93423223BB6145
:102D1000A74B1B685B6A9AB2A64B1A80A64B1B682E
:102D20005B6A9AB2A54B1A80BB6907EE903AF8EE3F
:102D3000E77A9FEDA37A67EE877AB6EE007A77EEB0
:102D4000877AFDEEE77A17EE903A5B427B619D4A07
:102D50007B6913609C4B1B689C4A1360FEF798FDCF
:102D60009B4B02221A709B4B01221A7001239AE19D
:102D7000BB68002B05DBBB6807EE903AF8EEE77AFC
:102D800006E0BB6807EE903AF8EEE77AF1EE677A74
:102D9000914BC3ED007A8C4B93ED007A8E4BD3EDC3
:102DA000007A77EE677A8D4BC3ED007AFEF780FDEF
:102DB00005F010F803466433894A1360894B0022FA
:102DC0001A70834B04221A70FEF77EFE01236AE11B
:102DD000BB68002B05DBBB6807EE903AF8EEE77A9C
:102DE00006E0BB6807EE903AF8EEE77AF1EE677A14
:102DF000794BC3ED007A744B93ED007A764BD3EDAB
:102E0000007A77EE277A754BC3ED007AFEF76CFDFA
:102E100004F0E0FF03466433714A1360714B0022F3
:102E20001A706B4B05221A70FEF74EFE01233AE131
:102E3000BB68002B05DBBB6807EE903AF8EEE77A3B
:102E400006E0BB6807EE903AF8EEE77AF1EE677AB3
:102E5000614BC3ED007A5C4B93ED007A5E4BD3ED92
:102E6000007A77EE277A5D4BC3ED007AFEF72EFDF0
:102E700004F0B0FF03463233594A1360594B012224
:102E80001A70534B06221A70FEF71EFE01230AE148
:102E9000BB68002B05DBBB6807EE903AF8EEE77ADB
:102EA00006E0BB6807EE903AF8EEE77AF1EE677A53
:102EB000494BC3ED007A444B93ED007A464BD3ED7A
:102EC000007A77EE677A454BC3ED007AFEF71AFD7C
:102ED00004F080FF03463233414A1360414B002225
:102EE0001A703B4B07221A70FEF7EEFD0123DAE061
:102EF000FEF756FCFEF744FEFEF7CAFC344B0322F5
:102F00001A700123CFE0FEF7F1FB0123CBE0334B36
:102F10001B681846FDF728FB02460B463249C1E9FB
:102F200000232E4B1B681846FDF71EFB4FF00002D6
:102F30002E4BFDF7BBF902460B462D49C1E9002394
:102F4000264B1B681846FDF70FFB4FF00002274B7E
:102F5000FDF7AAF902460B4610461946FDF734FE66
:102F600003461E4A1360234B01221A70224B012292
:102F70001A70174B1B78DBB2012B17D00C4B1B6858
:102F80005B6A9AB20B4B1A800B4B1B685B6A9AB256
:102F90000A4B1A80FEF77CFC0A4B6FF000421A6065
:102FA000164B00221A700A4B01221A7001237AE094
:102FB0006C050020000B0020B4050020020B00204F
:102FC000896D9342040B00200C0B0020100B002095
:102FD000EE0700207C0B002000000020080B0020E2
:102FE0004C0B0020500B0020800B002000004940BB
:102FF000880B00207D0B00207E0B00206A0B002038
:103000002B4B1B681846FDF7AFFA02460B462949C1
:10301000C1E90023264B1B681846FDF7A5FA4FF0BF
:103020000002254BFDF740F902460B462349C1E952
:1030300000231F4B1B681846FDF796FA4FF000025D
:103040001D4BFDF733F902460B4610461946FDF7B6
:10305000BBFD0346164A1360194B02221A70194B26
:1030600001221A70184B1B78DBB2012B17D0174BBB
:103070001B685B6A9AB2164B1A80164B1B685B6A18
:103080009AB2154B1A80FEF703FC144B6FF0004206
:103090001A60134B00221A700B4B01221A70012385
:1030A00001E000BF002318462037BD4680BD00BFA9
:1030B000080B0020800B002000004940880B0020F6
:1030C0007D0B00207E0B0020EE0700206C05002009
:1030D000000B0020B4050020020B0020040B002090
:1030E0006A0B002080B584B000AF87ED010AD7EDF0
:1030F000017A9FED1A7AF4EEC77AF1EE10FA01D553
:10310000174B24E0DFED170A97ED010A0EF07AFE67
:10311000F0EE407A9FED147A67EE877AC7ED037A76
:10312000D7ED037A9FED117AF4EEC77AF1EE10FA3B
:1031300001DD0B4B0BE0D7ED037AB2EE047AF4EE2F
:10314000C77AF1EE10FA01D5094B00E0FB6807EEF3
:10315000903AB0EE670A1037BD4680BDCDCCCC3D6D
:103160000000A042333393BF48E1DE410000A0429B
:1031700000002041B0B5B2B000AF7E4B5B6FC7F826
:10318000C43004F0C1FD00F02BF9FEF7F1FA00F0B5
:10319000F5FC00F0D3FC00F0B7FA00F00DFA00F0F7
:1031A0005FFA00F0A1FC00F0A5FB00F011FC00F0BC
:1031B000D5F900F02BFB00F071F900F06BFC04F086
:1031C00015FD6D4804F0B8F8D7F8C43003F000538B
:1031D000002B03D0694804F019F934E0D7F8C43063
:1031E00003F08043002B03D0654804F00FF92AE078
:1031F000D7F8C43003F08053002B03D0614804F0AB
:1032000005F920E0D7F8C43003F00073002B03D099
:103210005D4804F0FBF816E0D7F8C43003F0806393
:10322000002B03D0594804F0F1F80CE0D7F8C43073
:1032300003F00063002B03D0554804F0E7F802E0E8
:10324000544804F0E3F84B4B5B6F4A4A43F08073F9
:10325000536701225049514809F04BFC0222504962
:10326000504804F02BFE504B07F1A8041D460FCD2B
:103270000FC495E8070084E8070007F1A8030021C0
:1032800018460AF0DCFB0346484A1360484B07F136
:103290008C041D460FCD0FC495E8070084E8070095
:1032A00007F18C03002118460AF0C9FB0346414A86
:1032B0001360414B07F170041D460FCD0FC495E814
:1032C000070084E8070007F17003002118460AF0A0
:1032D000B6FB0346394A1360394B07F154041D46C7
:1032E0000FCD0FC495E8070084E8070007F15403E9
:1032F000002118460AF0A3FB0346324A1360324B02
:1033000007F138041D460FCD0FC495E8070084E887
:10331000070007F13803002118460AF090FB034626
:103320002A4A13602A4B07F11C041D460FCD0FC417
:1033300095E8070084E8070007F11C030021184600
:103340000AF07DFB0346234A1360234B3C461D468F
:103350000FCD0FC495E8070084E807003B46002125
:1033600018460AF06CFB03461C4A13600AF060FB27
:1033700000BFFDE7003802401C070020A428010818
:10338000B0280108BC280108CC280108DC28010865
:10339000E8280108F4280108ED0700206407002050
:1033A000540B0020700400200C290108AC070020F9
:1033B00034290108B00700205C290108B407002067
:1033C00088290108B8070020B0290108BC0700209F
:1033D000DC290108C0070020002A0108C4070020DA
:1033E00080B594B000AF07F12003302200211846C9
:1033F0000CF0A2FB07F10C0300221A605A609A60DD
:10340000DA601A610023BB60224B1B6C214A43F037
:10341000805313641F4B1B6C03F08053BB60BB686D
:1034200000237B601C4B1B681B4A43F480431360E2
:10343000194B1B6803F480437B607B6802233B626B
:103440000123FB6210233B630023BB6307F12003CE
:10345000184607F06FF90346002B01D002F0C0FFB9
:103460000F23FB6000233B6100237B610023BB61D2
:103470000023FB6107F10C030021184607F0D2FB83
:103480000346002B01D002F0ABFF00BF5037BD4612
:1034900080BD00BF003802400070004080B584B09D
:1034A00000AF3B4600221A605A609A60DA60284BEF
:1034B000284A1A60264B4FF440325A60244B0022AF
:1034C0009A60234B01221A61214B01221A76204B6C
:1034D000002283F820201E4B0022DA621C4B1E4A79
:1034E0009A621B4B0022DA60194B0222DA61184BF8
:1034F000012283F83020164B00225A61144804F050
:1035000099FC0346002B01D002F06AFF0A233B60BE
:1035100001237B600723BB603B4619460C4804F03F
:10352000F5FD0346002B01D002F05AFF0B233B6050
:1035300002237B603B461946054804F0E7FD03463D
:10354000002B01D002F04CFF00BF1037BD4680BDFC
:1035500070040020002001400100000F80B500AF82
:10356000124B134A1A60114B124A5A600F4B002239
:103570009A600E4B0022DA600C4B4FF480421A61C5
:103580000A4B00225A61094B00229A61074B002224
:10359000DA61064B00221A62044806F04FF803462F
:1035A000002B01D002F01CFF00BF80BD18050020D9
:1035B00000580040A086010080B58CB000AF07F134
:1035C0000C032422002118460CF0B6FA3B1D002201
:1035D0001A605A60214B4FF080421A601F4B002244
:1035E0005A601E4B00229A601C4B4FF6FF72DA6045
:1035F0001A4B00221A61194B00229A610323FB60C7
:1036000000233B6101237B610023BB610A23FB6133
:1036100000233B6201237B620023BB620A23FB621F
:1036200007F10C0319460D4807F0CCFF0346002BA9
:1036300001D002F0D5FE00237B600023BB603B1D60
:103640001946064809F0B4F80346002B01D002F0F1
:10365000C7FE00BF3037BD4680BD00BF6C050020EF
:1036600080B58CB000AF07F10C032422002118466E
:103670000CF062FA3B1D00221A605A60204B214A6E
:103680001A601F4B00225A601D4B00229A601C4B8F
:103690004FF6FF72DA601A4B00221A61184B0022B3
:1036A0009A610323FB6000233B6101237B610023BC
:1036B000BB610A23FB6100233B6201237B62002381
:1036C000BB620A23FB6207F10C0319460C4807F0A2
:1036D00079FF0346002B01D002F082FE00237B60BD
:1036E0000023BB603B1D1946054809F061F80346FD
:1036F000002B01D002F074FE00BF3037BD4680BD04
:10370000B40500200004004080B58EB000AF07F182
:10371000280300221A605A609A60DA6007F12003D9
:1037200000221A605A603B1D00221A605A609A609B
:10373000DA601A615A619A61324B334A1A60314B2E
:1037400000225A602F4B00229A602E4B41F61F42F6
:10375000DA602C4B00221A612A4B00229A61294818
:1037600007F03EFC0346002B01D002F039FE4FF477
:103770008053BB6207F128031946224808F0A4FAD7
:103780000346002B01D002F02BFE1E4807F077FC09
:103790000346002B01D002F023FE00233B620023EE
:1037A0007B6207F120031946164809F001F8034629
:1037B000002B01D002F014FE60237B600023BB606D
:1037C0000023FB6000237B613B1D082219460D4846
:1037D00008F0B8F90346002B01D002F001FE3B1DB2
:1037E0000C221946074808F0ADF90346002B01D01A
:1037F00002F0F6FD034803F023FB00BF3837BD4657
:1038000080BD00BFFC0500200008004080B58AB0E4
:1038100000AF07F1180300221A605A609A60DA605C
:1038200007F1100300221A605A603B4600221A601A
:103830005A609A60DA602D4B2D4A1A602B4B0F228A
:103840005A602A4B00229A60284B4FF6FF72DA60CA
:10385000264B00221A61254B00225A61234B00227D
:103860009A61224807F0BCFB0346002B01D002F00E
:10387000B7FD4FF48053BB6107F1180319461B488D
:1038800008F022FA0346002B01D002F0A9FD1748E8
:1038900007F016FD0346002B01D002F0A1FD002326
:1038A0003B6100237B6107F1100319460F4808F0C4
:1038B0007FFF0346002B01D002F092FD0A233B60FC
:1038C00001237B600023BB600023FB603B46042296
:1038D0001946064808F09AF80346002B01D002F07A
:1038E0007FFD00BF2837BD4680BD00BF44060020D5
:1038F0000004014080B58CB000AF07F12003002226
:103900001A605A609A60DA603B1D00221A605A60A1
:103910009A60DA601A615A619A612B4B2B4A1A60DD
:10392000294B00225A60284B00229A60264B41F610
:103930001F42DA60244B00221A61234B00229A6155
:10394000214807F04DFB0346002B01D002F048FD53
:103950004FF480533B6207F1200319461A4808F0E0
:10396000B3F90346002B01D002F03AFD164807F0E8
:1039700086FB0346002B01D002F032FD60237B6002
:103980000023BB600023FB6000237B613B1D002202
:1039900019460D4808F0D6F80346002B01D002F076
:1039A0001FFD3B1D04221946074808F0CBF80346CB
:1039B000002B01D002F014FD034803F041FA00BFD0
:1039C0003037BD4680BD00BF8C060020004001405E
:1039D00080B58CB000AF07F1200300221A605A6056
:1039E0009A60DA603B1D00221A605A609A60DA60C1
:1039F0001A615A619A61254B254A1A60234BA0220D
:103A00005A60224B00229A60204B4FF47A72DA609F
:103A10001E4B00221A611D4B00229A611B4807F0C1
:103A2000DFFA0346002B01D002F0DAFC4FF480539A
:103A30003B6207F120031946144808F045F9034694
:103A4000002B01D002F0CCFC104807F018FB034615
:103A5000002B01D002F0C4FC60237B600023BB601C
:103A60000023FB6000237B613B1D042219460748AD
:103A700008F068F80346002B01D002F0B1FC0348BF
:103A800003F0DEF900BF3037BD4680BDD40600200C
:103A90000018004080B500AF114B124A1A60104B5D
:103AA0004FF4E1325A600E4B00229A600C4B002218
:103AB000DA600B4B00221A61094B0C225A61084B49
:103AC00000229A61064B0022DA61054808F000FFE7
:103AD0000346002B01D002F083FC00BF80BD00BF75
:103AE0001C0700200044004080B500AF114B124A73
:103AF0001A60104B4FF4E1325A600E4B00229A606C
:103B00000C4B0022DA600B4B00221A61094B0C228D
:103B10005A61084B00229A61064B0022DA6105487F
:103B200008F0D6FE0346002B01D002F059FC00BF7E
:103B300080BD00BF640700200048004080B582B00F
:103B400000AF00237B600C4B1B6B0B4A43F48003DC
:103B50001363094B1B6B03F480037B607B680022BB
:103B60000521382004F04DFE382004F066FE00BF29
:103B70000837BD4680BD00BF0038024080B58AB01E
:103B800000AF07F1140300221A605A609A60DA60ED
:103B90001A6100233B61484B1B6B474A43F01003FB
:103BA0001363454B1B6B03F010033B613B69002320
:103BB000FB60414B1B6B404A43F0040313633E4BD5
:103BC0001B6B03F00403FB60FB680023BB603A4BF4
:103BD0001B6B394A43F001031363374B1B6B03F034
:103BE0000103BB60BB6800237B60334B1B6B324A15
:103BF00043F002031363304B1B6B03F002037B6043
:103C00007B6800233B602C4B1B6B2B4A43F0080363
:103C10001363294B1B6B03F008033B603B680022D6
:103C20004FF48071254805F0D5FC00224FF4F04197
:103C3000234805F0CFFC00224021224805F0CAFCB1
:103C40004FF480737B610123BB610023FB61002380
:103C50003B6207F114031946184805F00BFA4FF4BC
:103C6000F0437B610123BB610023FB6100233B62C6
:103C700007F114031946124805F0FCF940237B6153
:103C80000123BB610023FB6100233B6207F11403A6
:103C900019460C4805F0EEF901237B610023BB6156
:103CA0000023FB6107F114031946044805F0E2F90B
:103CB00000BF2837BD4680BD0038024000100240DA
:103CC000000C02400008024080B500AF00224021F5
:103CD0000A4805F07FFC0220FDF722FD0122402169
:103CE000064805F077FC0A20FDF71AFD0022402166
:103CF000024805F06FFC00BF80BD00BF0008024015
:103D000080B487B000AFF860B9607A60FA68BB68C9
:103D1000934238BF13467A68934238BF13467B619B
:103D2000FA68BB68934228BF13467A68934228BF5B
:103D300013463B61FA68BB681A447B681A447B6986
:103D4000D21A3B69D31A18461C37BD465DF8047B6E
:103D50007047000080B584B000AF78607B681B6856
:103D60004A4A934240F08D807B681B7F022B40F0D3
:103D70008880474B1B78DBB2002B17D17B681B6810
:103D800000225A627B681B681A6A7B681B6822F0F3
:103D9000A0021A627B681B681A6A7B681B6842F083
:103DA00020021A623A4B01221A706BE004217868F3
:103DB00008F052F803469AB2364B1A807B681B68AB
:103DC0001A6A7B681B6822F0A0021A627B681A6874
:103DD0007B681B68126A1A622D4B00221A702D4BE9
:103DE0001B889BB207EE903AF8EEE77A9FED2A7AAD
:103DF00067EE877AB6EE007A77EE877AFCEEE77A9E
:103E000017EE903ABB60254B1B781946244ABB68D5
:103E100042F82130214B1B78591C224BA3FB012374
:103E20005A0813465B001344CA1AD2B21B4B1A70CD
:103E30001D4B1B78022B05D81B4B1B780133DAB2C4
:103E4000194B1A70BB68FB60174B1B78032B09D109
:103E5000134B1B68124A5168114A92681846FFF7C3
:103E60004FFFF860FB6807EE903AF8EE677A0F4B69
:103E7000C3ED007A0E4AFB6813600E4B01221A70E4
:103E800000E000BF1037BD4680BD00BF0004014008
:103E9000900B0020920B0020287E8C3CE007002035
:103EA000D4070020ABAAAAAAE1070020CC07002073
:103EB000C8070020D007002080B584B000AF78602C
:103EC0007B681B68614A934240F0BC80604B1B7862
:103ED000FB72FB7A0D2B02D0FB7A0A2B76D15D4B5D
:103EE0001B881A465C4B002199545C4B1B78002BB5
:103EF00065D1584B1B88002B61D00023FB8114E057
:103F0000FB89554AD35C402B0CD9FB89524AD35CC0
:103F10005A2B07D8FB89504AD25CFB892032D1B298
:103F20004D4AD154FB890133FB814A4B1B88FA89E6
:103F30009A42E5D34A494848FCF74AF90346002B20
:103F400003D1484B01221A7039E0434B1B786A2B8E
:103F500003D14148FDF720FF31E0434B1B78DBB232
:103F6000002B2CD13F4B1B78DBB2002B27D1002339
:103F7000BB8110E0BB89384AD35C3B2B04D0BB89A2
:103F8000354AD35C2C2B03D1BB89334A2021D15431
:103F9000BB890133BB812F4B1B88BA899A42E9D375
:103FA0002D48FEF76FFB314B1B78DBB2002B06D19F
:103FB0002C4B1B78DBB2002B01D1FEF71BFD254BF0
:103FC00000221A80254B00221A7035E0234B1B7803
:103FD000002B31D1FB7A1F2B02D9FB7A7E2B19D90A
:103FE000FB7A092B03D01D4B01221A7024E0194BD8
:103FF0001B88FE2B0AD8174B1B885A1C91B2154AF6
:1040000011801946144AFB7A535415E0134B0122D0
:104010001A7011E00F4B1B88FE2B0AD80D4B1B8822
:104020005A1C91B20B4A118019460B4AFB7A535421
:1040300002E00A4B01221A70012205490C4808F0DF
:1040400058FD00E000BF1037BD4680BD004800406D
:10405000ED070020F0080020F0070020F208002003
:1040600024280108EC070020BC0B0020EE070020EC
:104070006407002080B485B000AF78607B681B685F
:10408000354A934261D1354B1B889BB21A4640F6A4
:10409000E44302FB03F303F2FF72314BA3FB021371
:1040A000D21A52081344DB0AFB812C4B5B889BB26B
:1040B0001A4640F6E44302FB03F303F2FF72284B77
:1040C000A3FB0213D21A52081344DB0ABB81254B0F
:1040D0001B889BB29A00FB891344234AA2FB03234B
:1040E0009B089AB21F4B1A80204B1B889BB29A00E8
:1040F000BB8913441C4AA2FB03239B089AB21B4BA7
:104100001A80164B1B889AB2194B1A80134B5B8886
:104110009AB2184B1A80134B1B889BB240F21F3285
:1041200093428CBF01230023DBB21A46124B1A7054
:104130000E4B1B889BB240F21F3293428CBF01236F
:104140000023DBB21A460D4B1A7000BF1437BD4670
:104150005DF8047B704700BF00200140540B002035
:1041600001011000660B0020CDCCCCCC680B0020E8
:10417000580B00205A0B0020640B0020650B002018
:1041800080B584B000AF78604123FB734FF4807139
:10419000044805F038FA4FF47A7009F09CFC00BF2F
:1041A000F4E700BF0010024080B58EB002AF786027
:1041B0000121794805F0F6F9034687F82F30774B4F
:1041C0001B78012B11D197F82F30002B0DD1744B98
:1041D0001B780133002B03F00103B8BF5B42DAB256
:1041E0006F4B1A70322009F076FC6C4A97F82F302A
:1041F00013706C4B1B78DBB2002B19D16A4A00217B
:10420000002003F0C1FC694A1021002003F0BCFC2F
:10421000674A2021002003F0B7FC664A30210020C5
:1042200003F0B2FC03F038FB142009F054FCB1E0B9
:104230005B4B1B78002B4DD15F4B1B681846FCF77E
:1042400093F902460B4607F10C00CDE900235B4AC7
:1042500020210BF0F7FB07F10C031A460021002088
:1042600003F092FC564BD3ED007AFDEEE77A07F1AE
:104270000C0017EE903A534A20210BF0E3FB07F1B4
:104280000C031A461021002003F07EFC4E4B1A68E6
:104290004E4B1B6807F10C00009313464C4A20213B
:1042A0000BF0D0FB07F10C031A462021002003F08D
:1042B0006BFCFEF79DF9034607F10C00454A2021EF
:1042C0000BF0C0FB07F10C031A463021002003F06D
:1042D0005BFC5AE0324B1B78012B56D13E4B1B68DE
:1042E00007F10C003D4A20210BF0ACFB07F10C0359
:1042F0001A460021002003F047FC394B1B889BB273
:104300001A46384B1B78DBB207F10C0000931346BA
:10431000354A20210BF096FB07F10C031A461021B9
:10432000002003F031FC314B1B889BB21A46304B06
:104330001B78DBB207F10C00009313462D4A2021B5
:104340000BF080FB07F10C031A462021002003F03C
:104350001BFC294BD3ED007ABDEEE77A274BD3ED5A
:10436000007AFDEEE77A17EE903A07F10C00009321
:1043700017EE103A224A20210BF064FB07F10C03E0
:104380001A463021002003F0FFFB03F085FA1420C9
:1043900009F0A1FB0CE700BF00100240260000203E
:1043A000D80C0020200B00201C2A0108302A01080C
:1043B000442A0108582A01080C0B00206C2A010825
:1043C000080B00207C2A0108E4070020E8070020F1
:1043D000882A0108942A0108C8070020A02A010899
:1043E000660B0020640B0020B42A0108680B002033
:1043F000650B0020C42A0108940B0020980B0020B4
:10440000D42A0108B0B5ADF5227D04AF07F51E73BF
:10441000A3F51D7318600421B44806F089FEFDF76A
:1044200037FA0821B24806F083FE0C21B04806F0A6
:104430007FFE0021AF4806F07BFE0421AD4806F068
:1044400077FEAD4802F0A4F9FDF7AAF9AB4B1B7853
:10445000DBB2002B00F09480EFF3108207F51E739F
:10446000A3F5A8731A6007F51E73A3F5A8731B685C
:10447000C7F8283272B600BF07F51E73A3F5147390
:104480009F4A184611464FF480731A460BF05FFCA2
:104490009A4B00221A70D7F82832002B01D162B64D
:1044A00000BF07F51E73A3F51473002283F8FF20E5
:1044B0000023C7F8743248E007F51E73A3F51472A1
:1044C000D7F8743213441B78402B1CD907F51E73A0
:1044D000A3F51472D7F8743213441B785A2B12D8F0
:1044E00007F51E73A3F51472D7F8743213441B78C2
:1044F0002033D9B207F51E73A3F51472D7F87432BE
:1045000013440A461A7007F51E73A3F51472D7F800
:10451000743213441B783B2B09D007F51E73A3F5A7
:104520001472D7F8743213441B782C2B08D107F57A
:104530001E73A3F51472D7F87432134420221A7034
:10454000D7F874320133C7F8743207F51E73A3F538
:104550001472D7F8743213441B78002BACD107F1D6
:1045600028031846FEF78EF8664B1B78DBB2002B4B
:1045700006D1654B1B78DBB2002B01D1FEF73AFA6E
:10458000604B1B78DBB2002B35D05E4B1B78DBB267
:10459000032B30D003F01EFCC7F824025B4B1B78C2
:1045A000DBB2002B08D05A4B1B68D7F82422D31A51
:1045B000642B01D9012300E0002387F8233297F808
:1045C000233203F0010387F82332504B1B78DBB210
:1045D000002B03D097F82332002B0CD097F823320E
:1045E000002B01D04B4B00E04B4B184602F00EFF66
:1045F000454B01221A70444B1B78DBB2002B56D07E
:10460000404B1B78DAB207F51E73A3F5A6731A6048
:10461000FDF75EFC3C4B00221A70404B00221A70E2
:104620003F4B00221A603F4B4FF000021A603E4B96
:1046300000221A603D4B4FF000021A603C4B0022F2
:104640001A703C4B00221A70FDF7AAF83A4B002270
:104650001A6007F51E73A3F5A6731868FDF79FF996
:104660000346002B07D007F51E73A3F5A673186841
:10467000FDF717FA01E0FDF70BF9304B00221A6045
:10468000FDF708F81F4B00221A702D4B00221A600C
:104690002C4B00221A70FDF773FA2B48FDF7B6FB7E
:1046A000FDF7C6FB052009F016FA01F0A0BBFDF7E7
:1046B0004FFE0346002B04D0052009F00CFA01F050
:1046C00096BB104B1B78DBB2072B01F37583042BD1
:1046D00081F29381022B03DC002B37DC01F06CBBF1
:1046E000032B01F05C8301F067BB00BFD406002000
:1046F000FC0500208C0600209C0B0020F409002003
:10470000F4080020EE070020EC070020200B00201A
:10471000240B0020E82A0108F42A01086A0B002073
:104720006C0B0020700B0020740B0020780B002015
:104730007D0B00207E0B0020F8090020040B0020D8
:104740004C0B0020500B0020042B01089D4BC7F898
:10475000F0319C4BC7F8EC314FF00003C7F8E8315B
:10476000994B1B685B6AA7F8E631984B1B685B6A3C
:10477000A7F8E431964B1B78DBB2022B02D14FF045
:10478000FF3300E00123C7F8E03103F023FBC7F853
:10479000DC01904B1B78002B0AD08F4B1B78DBB2CF
:1047A000002B05D18D4B1B68D7F8E0219A4221D010
:1047B0008B4AB7F8E63113808A4AB7F8E4311380A0
:1047C000894B00221A60894B00221A60834AD7F86D
:1047D000E03113607F4B01221A70854B4FF00002CD
:1047E0001A60844AD7F8DC311360834AD7F8E03185
:1047F000136020E07A4B1B88B7F8E621D31A9BB2EE
:104800001BB21A46784B1B681344774A1360774BE8
:104810001B68744A1288B7F8E4118A1A92B212B26D
:104820009B1A724A13606E4AB7F8E63113806D4ADC
:10483000B7F8E43113806F4B1B68D7F8DC21D31A2B
:10484000C7F870326B4AD7F8DC311360D7F8703292
:10485000322B02D93223C7F87032634B1A68634B8C
:104860001B681344DA0F13445B10C7F8D831D7F82C
:10487000E031002B07DD614B1A68D7F8D831D31A25
:10488000C7F86C3206E05D4B1B68D7F8D821D31A05
:10489000C7F86C32D7F86C32002B02DA0023C7F865
:1048A0006C32002387F86B32544B1B68002B0ADBF9
:1048B000524B1B68D7F8D8219A42ACBF0123002382
:1048C00087F86B3209E04D4B1B68D7F8D8219A4224
:1048D000D4BF0123002387F86B32002387F86A32A4
:1048E0003B4B1B78DBB2012B40F01281444B1B7811
:1048F000DBB2002B00F00C81414B1B78DBB2013B9B
:10490000062B00F2008101A252F823F0314A000880
:10491000B74A0008CB4A0008074B0008DF4A0008E6
:10492000F34A000829490008364B1B889BB21A46F7
:10493000354B1B689A422CBF0123002387F86A324B
:10494000314B1B68142B00F2E080304B1B78DBB23C
:10495000002B00F0DA802E4B1B78DBB2002B15D138
:10496000294B1B6807F108002A4A20210BF06AF83E
:10497000C7F8D401264B01221A70D7F8D4319AB265
:1049800007F108031946244808F07DF8234B1B68FB
:10499000234A1360FCF77CFF194B04221A70174B53
:1049A000204A1A60204B00221A60204B00221A6015
:1049B000002387F86A32084B01221A70044B022246
:1049C0001A70A2E0A69B443B6C050020B4050020B1
:1049D000EE070020D90C00207C0B0020DC0C00200E
:1049E000E00C0020E20C0020E40C0020E80C002089
:1049F000EC0C0020F00C0020F40C0020040B002034
:104A00006A0B002020000020C807002022000020A0
:104A1000FE0A00200C2B010864070020080B002070
:104A2000100B002001000080F80C0020FC0C00207E
:104A30008E4B1B681A2B94BF0123002387F86A3220
:104A40008A4B1B68142B62D8894B1B78DBB2002B76
:104A500015D1864B1B6807F10800864A20210AF011
:104A6000F1FFC7F8D001824B01221A70D7F8D0317C
:104A70009AB207F1080319467F4808F004F87F4B03
:104A80001B687F4A1360FCF703FF7E4B04221A70F9
:104A90007D4B7E4A1A607E4B00221A607D4B0022BD
:104AA0001A60002387F86A327B4B01221A707B4B15
:104AB00002221A702BE07A4B1B78DBB2002B0CBF62
:104AC0000123002387F86A3222E0764B1B78DBB2A1
:104AD000002B0CBF0123002387F86A3218E0704BCB
:104AE0001B78DBB2012B0CBF0123002387F86A324D
:104AF0000EE06C4B1B78DBB2012B0CBF01230023B3
:104B000087F86A3204E000BF02E000BF00E000BFA7
:104B1000624B1B78DBB2022B0CD15A4B1B78DBB2F9
:104B2000042B07D1514B1B68132B8CBF012300238F
:104B300087F86A3297F86A32002B3BD0514B1B78CA
:104B4000DBB2012B04D04F4B1B78DBB2072B31D1EA
:104B5000554B1B6807EE903AB8EEE77ADFED536AE3
:104B6000C7EE267A524BC3ED007A414B1B78DBB27D
:104B7000002B1FD14E4B1B681846FBF7F5FC024675
:104B80000B463A49096807F108000291CDE9002374
:104B9000484A20210AF056FFC7F8CC01344B0122C5
:104BA0001A70D7F8CC319AB207F108031946324887
:104BB00007F069FF97F86A32002B38D0314B1B7829
:104BC000DBB2022B04D02F4B1B78DBB2032B2ED190
:104BD000394B1B6807EE903AB8EEE77ADFED336A9F
:104BE000C7EE267A354BC3ED007A214B1B78DBB23A
:104BF000002B1CD1314B1B681846FBF7B5FC024655
:104C00000B4607F10800CDE900232D4A20210AF0C8
:104C100019FFC7F8C801164B01221A70D7F8C8311E
:104C20009AB207F108031946134807F02CFF97F8CA
:104C30006B32002B03D197F86A32002B44D0FCF77B
:104C4000AFFD104B00221A70114B00221A60114B5D
:104C500000221A60114B00221A7003F0BBF80346C1
:104C600003F5FA73174A136001F0BEB8C8070020B5
:104C7000FE0A00200C2B010864070020080B00200E
:104C8000100B00206A0B0020040B002001000080A4
:104C9000F80C0020FC0C00207C0B0020EE0700200C
:104CA000650B0020640B00206C0B0020896D934283
:104CB000700B0020182B0108740B0020780B0020CB
:104CC000242B0108F809002003F084F8C7F8C40178
:104CD000C14B1B68002B0BD1BF4AD7F8C4311360FE
:104CE000BE4AB7F8E6311380BD4AB7F8E431138005
:104CF000BC4B1B78DBB2002B1CD0B84AB7F8E631AE
:104D00001380B74AB7F8E4311380B34AD7F8C431F7
:104D10001360B44B00221A70B34B4FF000021A60BC
:104D2000B24B4FF000021A60B14B00221A60B14B37
:104D300000221A60A94B1B88B7F8E621D31A9BB250
:104D4000A7F8C231A64B1B88B7F8E421D31A9BB24F
:104D5000A7F8C031B7F8C0315B429BB2A7F8C031A9
:104D6000A54B1B78DBB2012B1AD1A44B1B78DBB20D
:104D7000012B04D0A14B1B78DBB2072B10D1B7F964
:104D8000C221B7F9C0311344DA0F13445B10C7F8DE
:104D9000BC319B4B1A68D7F8BC311344984A136056
:104DA000954B1B78DBB2012B1AD1944B1B78DBB2ED
:104DB000022B04D0914B1B78DBB2032B10D1B7F937
:104DC000C221B7F9C0311344DA0F13445B10C7F89E
:104DD000B8318C4B1A68D7F8B8311344894A13603C
:104DE0007D4B1B68D7F8C421D31AC7F86432D7F8B3
:104DF0006432002B02D10123C7F86432B7F9C23103
:104E00004FF47A7203FB02F2D7F8643292FBF3F3A9
:104E1000C7F8B431B7F9C0314FF47A7203FB02F22C
:104E2000D7F8643292FBF3F3C7F8B031D7F86432A5
:104E300007EE903AB8EE677ADFED736AC7EE267A2E
:104E4000C7ED6B7AD7ED6B7A9FED707A37EE877A84
:104E5000D7ED6B6AC6EE877AC7ED6A7AD7F8B431B8
:104E600007EE903AB8EEE77A5F4BD3ED007A37EE73
:104E7000677AD7ED6A7A27EE277A5B4BD3ED007A13
:104E800077EE277A584BC3ED007AD7F8B03107EEAA
:104E9000903AB8EEE77A554BD3ED007A37EE677A61
:104EA000D7ED6A7A27EE277A504BD3ED007A77EE6A
:104EB000277A4E4BC3ED007A484AB7F8E6311380A3
:104EC000474AB7F8E4311380434AD7F8C431136036
:104ED000454B93ED007A454BD3ED007A77EE677A38
:104EE000FDEEE77A17EE903AC7F8A431484B93ED00
:104EF000007A484BD3ED007A77EE677A464BC3EDE4
:104F0000007AD7F8A431C7F8A031394B1A68D7F81E
:104F1000A0311344364A136046F2A813C7F89C31F7
:104F2000334B1B68D7F89C219A4203DA304AD7F8F2
:104F30009C311360D7F89C315A422D4B1B689A4222
:104F400004DDD7F89C315B42294A1360294B1B686A
:104F5000D7F8A021D31AC7F89831264AD7F8A0313C
:104F60001360D7F8A03107EE903AB8EEE77AD7EDA4
:104F70007C7A27EE277A1E4B1B6807EE903AF8EEF4
:104F8000E76AD7ED7B7A66EEA77A37EE277AD7F80D
:104F9000983107EE903AF8EEE76AD7ED7A7A66EE46
:104FA000A77A77EE277AC7ED657AD7ED657AFDEEB9
:104FB000E77A17EE903AC7F860320F4B1B78DBB2F6
:104FC000022B0CBF0123002387F89331134B1B786E
:104FD000002B2BD024E000BF000D0020040D00208A
:104FE000060D00207C0B0020080D00200C0D002079
:104FF000F80C0020FC0C0020EE0700206A0B0020BB
:105000006C0B0020740B002000007A44CDCC4C3D8A
:10501000100B00200C0B0020140B00209C0B002018
:10502000804B1B78012B01D1012300E0002387F87E
:10503000923197F8923103F0010387F8923197F893
:105040009231002B06D0784B1B6807EE903AF8EEB1
:10505000E77A01E0DFED757AC7ED637A97F8923170
:1050600083F00103DBB2002B11D0714B1B78DBB254
:10507000002B0CD16F4B1B686FF00042934206D09F
:105080006C4B1B686C4A934201D0012300E0002363
:1050900087F88B3197F88B3103F0010387F88B3158
:1050A000D7F88C31C7F85C3297F88B31002B00F0C1
:1050B0008580624BC7F88431D7F86C3207EE903A9E
:1050C000F8EEE77A97ED617AB4EEE77AF1EE10FA4E
:1050D0003CDDD7F86C3207EE903AF8EEE76A97EDD0
:1050E000617AC6EE877AC7ED967AD7ED967AF5EEB5
:1050F000C07AF1EE10FA03D54FF00003C7F858322A
:10510000D7ED967AB7EE007AF4EEC77AF1EE10FAA0
:1051100003DD4FF07E53C7F85832D7ED967A9FEDF6
:10512000487A67EE877AB3EE047A77EE877AC7ED2E
:10513000607A97ED607AD7ED977AB4EEE77AF1EE80
:1051400010FA03D5D7F88031C7F85C32D7F870323F
:1051500007EE903AF8EE677A9FED347A27EE877A79
:10516000DFED386AC7EE267AC7ED5F7A364BD3EDAE
:10517000007A97ED977AB4EEE77AF1EE10FA18DD3F
:10518000314B93ED007AD7ED5F7A77EE277A2E4B8D
:10519000C3ED007A2C4BD3ED007A97ED977AB4EEFD
:1051A000E77AF1EE10FA0DD5274AD7F85C32136092
:1051B00008E0254AD7F85C32136003E0224AD7F8AA
:1051C0008C311360204BD3ED007AF5EEC07AF1EE0E
:1051D00010FA03D51C4B4FF000021A601A4BD3EDA6
:1051E000007A9FED127AF4EEC77AF1EE10FA02DD42
:1051F000154B164A1A60144BD3ED007AB6EE007ABE
:1052000077EE877A07F51E73A3F58073FDEEE77AD4
:1052100017EE902A1A6097F89331002B1AD00C4A97
:1052200019E000BF340C00202C0C00200000C84204
:105230006A0B0020040B002001000080EB48B844FA
:105240000000A04200002F44EC0C00200000C842E7
:1052500048E17A3FCD4A07F51E73A3F582731A60C1
:1052600007F51E73A3F584734FF07E521A6007F59D
:105270001E73A3F58273D3ED007A9FEDC57A67EEB6
:10528000877AB6EE007A77EE877AFDEEE77A07F551
:105290001E73A3F5867417EE900AFCF769FB206075
:1052A00007F51E73A3F58473D3ED007A9FEDB87AEA
:1052B00067EE877AB6EE007A77EE877AFDEEE77AC8
:1052C00007F51E73A3F5887417EE900AFCF750FBE0
:1052D000206007F51E73A3F586731B68C3F5E053C2
:1052E0001F3307F51E72A2F58072126802FB03F3EA
:1052F000A84A82FB03125211DB179B1A07F51E7294
:10530000A2F58A7203F5E0531F33136007F51E738D
:10531000A3F588731B68C3F5E0531F3307F51E72AE
:10532000A2F58072126802FB03F39A4A82FB031211
:105330005211DB179B1A07F51E72A2F58C7203F54A
:10534000E0531F331360944B1B78002B17D007F5E5
:105350001E73A3F580731B68632B10DC07F51E73A7
:10536000A3F58072D7F86032126802FB03F3894A12
:1053700082FB03125211DB17D31AC7F8603297F879
:10538000933183F00103DBB2002B14D007F51E73B9
:10539000A3F58A731A68D7F860321344C7F85432F9
:1053A00007F51E73A3F58C731A68D7F86032D31A09
:1053B000C7F8503213E007F51E73A3F58A731A6815
:1053C000D7F86032D31AC7F8543207F51E73A3F525
:1053D0008C731A68D7F860321344C7F85032D7F884
:1053E0005402FCF7C5FAC7F85402D7F85002FCF78C
:1053F000BFFAC7F85002694AD7F854321360684AB6
:10540000D7F850321360674B93ED007A664BD3EDBB
:10541000007A77EE677A654BC3ED007A634B1B68C1
:10542000C7F84C32D7ED937AF0EEE77A9FED607AC9
:10543000F4EEC77AF1EE10FA03D54FF00003C7F887
:105440004C32D7ED937AB1EE047A67EE877AC7EDE6
:10545000927AD7ED937AF5EE407AF1EE10FA16D003
:10546000D7ED927AF0EEE77AB1EE047AF4EEC77AED
:10547000F1EE10FA0BD5D7ED927AF5EEC07AF1EE97
:1054800010FA01DD4B4B00E04B4BC7F84832D7ED2B
:10549000927A9FED4A7AF4EEC77AF1EE10FA03DDC4
:1054A000474BC7F848320BE0D7ED927A9FED457A2B
:1054B000F4EEC77AF1EE10FA02D5434BC7F8483242
:1054C000424B1B78DBB2012B06D1D7ED927AF1EE7D
:1054D000677AC7ED917A03E0D7F84832C7F84432CB
:1054E0003B4B1A8807F51E73A3F58E731A60374B72
:1054F0001B78DBB2022B06D16E23C7F84032F023B3
:10550000C7F83C3205E06E23C7F84032F023C7F8F5
:105510003C3207F51E73A3F58E731B68C7F838324B
:10552000D7ED917AF5EEC07AF1EE10FA54DD07F579
:105530001E73A3F58E73D7F83C221B68D21A07F5A9
:105540001E73A3F5927307EE902AF8EEE77AC3ED87
:10555000007A07F51E73A3F5927393ED007AD7EDE9
:10556000917A67EE277ADFED1B6A87EEA67AB0EEB6
:10557000470A0CF0AFFC024607F51E73A3F58E73C5
:105580001B681344C7F838325AE000BF14AE873F97
:1055900000806D451F85EB519C0B00200C00002006
:1055A00010000020100B00200C0B0020140B00201A
:1055B000CDCCCC3D0000A0400000A0C000008C423B
:1055C00000008C4200008CC200008CC2EE0700205C
:1055D000240000200000C842D7ED917AF5EEC07A91
:1055E000F1EE10FA2CD507F51E73A3F58E731A6829
:1055F000D7F84032D21A07F51E73A3F5907307EE61
:10560000902AF8EEE77AC3ED007A07F51E73A3F54A
:10561000907393ED007AD7ED917A67EE277A5FED7C
:10562000136A87EEA67AB0EE470A0CF053FC0246E6
:1056300007F51E73A3F58E731B681344C7F8383241
:10564000D7F83822D7F840329A4203DAD7F84032F6
:10565000C7F83832D7F83822D7F83C329A4203DDFF
:10566000D7F83C32C7F83832B54A07F51E73A3F5B0
:105670008E731B681360B34AD7F844321360B24A82
:10568000D7F838321360B14B1B78DBB2002B00F037
:105690007581AF4B1B78DBB2012B6ED1AB4B1B7806
:1056A000DBB2012B01D1F52200E06422A94B1B687B
:1056B0009A63A64B1B78DBB2012B1CD107F51E7336
:1056C000A3F5A27341F288321A6007F51E73A3F5A1
:1056D000A47341F664121A6007F51E73A3F5A27352
:1056E0001868FCF77DF807F51E73A3F5A473186816
:1056F000FCF78CF81BE007F51E73A3F59E7341F2CF
:1057000088321A6007F51E73A3F5A07341F6641280
:105710001A6007F51E73A3F59E731868FCF776F8F8
:1057200007F51E73A3F5A0731868FCF759F8874BAB
:105730001B78DBB2012B0AD1874B93ED007A874BA4
:10574000D3ED007AB4EEE77AF1EE10FA11D97F4B7F
:105750001B78DBB2022B40F016817F4B93ED007A71
:105760007E4BD3ED007AB4EEE77AF1EE10FAC0F298
:105770000A81774B02221A7005E1754B1B78DBB268
:10578000022B40F0D680714B1B78DBB2012B01D18C
:10579000642200E0F5226F4B1B689A636B4B1B7809
:1057A000DBB2012B1CD107F51E73A3F5987341F2F0
:1057B00088321A6007F51E73A3F59A7341F66412D6
:1057C0001A6007F51E73A3F598731868FCF71EF8A6
:1057D00007F51E73A3F59A731868FCF701F81BE030
:1057E00007F51E73A3F5947341F288321A6007F52A
:1057F0001E73A3F5967341F664121A6007F51E73C3
:10580000A3F594731868FBF7EBFF07F51E73A3F578
:1058100096731868FBF7FAFF514BD3E90023104643
:105820001946FBF7D1F903464C4A1360474B1B78E6
:10583000DBB2012B19D1484B1B681846FAF794FECE
:1058400004460D46454B1B681846FAF78DFE4FF08F
:105850000002444BFAF728FD02460B462046294633
:10586000FBF760F90346002B1FD1384B1B78DBB2E6
:10587000022B40F08880384B1B681846FAF774FEFC
:1058800004460D46354B1B681846FAF76DFE4FF07F
:105890000002344BFAF70AFD02460B462046294621
:1058A000FBF736F90346002B6DD007F51E73A3F204
:1058B0003513264A12781A70244B00221A70244B92
:1058C00000221A70264BD3E9002310461946FBF735
:1058D0007BF90346214A13601E4B1B68D7F8382218
:1058E0009A6307F51E73A3F235131B78012B01D1C0
:1058F000FCF72AF807F51E73A3F235131B78022B69
:1059000001D1FCF70DF8FBF74BFF174B00221A7083
:10591000164B00221A60164B00221A60154B00220B
:105920001A7002F057FA034603F5FA73124A13602D
:1059300029E0084B1B68D7F838229A6323E000BFA0
:1059400018000020340B0020140000207D0B0020E4
:105950007E0B0020D40600200C0B0020080B00203A
:10596000800B0020000014406A0B0020F80C00207F
:10597000FC0C0020EE070020F8090020994B1B6862
:10598000D7F838229A63984B1B78DBB2012B19D1D8
:10599000964B1B78DBB2002B14D1954B1B68D7F8C4
:1059A0005422DA63924B1B6841F61F421A64914BF2
:1059B0001B68D7F850225A638E4B1B6841F61F4272
:1059C0009A630CE2884B1B78DBB2022B40F0078213
:1059D000874B1B6841F61F42DA63854B1B68D7F87B
:1059E00054221A64834B1B6841F61F425A63814B51
:1059F0001B68D7F850229A63F1E17B4B1B78DBB22E
:105A0000C7F81C3202F0E6F9C7F818027A4B1B6897
:105A1000002B0FD0784B1B68D7F81822D31A002B15
:105A200008DBFBF7BDFE754801F0F0FC744B01226A
:105A30001A70D9E1734B1B68002B15D0714B1B6892
:105A4000D7F81822D31A002B0EDAFBF7A9FE6E4BFB
:105A50004FF000021A606D4B41F61F421A606C4B0A
:105A600041F61F421A60BFE1664B00221A60694B83
:105A70001B78DBB2002B01D1FCF726F8D7F81C020B
:105A8000FBF7D6FF87ED850A634B93ED007A634BF6
:105A9000D3ED007A77EE677AC7ED847A97ED857A51
:105AA000D7ED847A67EE277AC7ED837A5C4BD3ED26
:105AB000007A97ED857A67EE277AC7ED827A594AA0
:105AC000D7F810321360534B1B78DBB2022B4BD14B
:105AD000FBF766FE4C4B4FF000021A604B4B41F651
