:020000040800F2
:1000000000000220ED4E0008B14C0008B94C000879
:10001000C14C0008C94C0008D14C00080000000089
:1000200000000000000000000000000001BA00080D
:10003000D94C00080000000051BC0008E74C000843
:100040003D4F00083D4F00083D4F00083D4F000860
:100050003D4F00083D4F00083D4F00083D4F000850
:100060003D4F00083D4F00083D4F00083D4F000840
:100070003D4F00083D4F00083D4F00083D4F000830
:100080003D4F00083D4F00083D4F00083D4F000820
:100090003D4F00083D4F00083D4F00083D4F000810
:1000A0003D4F00083D4F00083D4F00083D4F000800
:1000B0003D4F00083D4F00083D4F00083D4F0008F0
:1000C0003D4F00083D4F00083D4F00083D4F0008E0
:1000D0003D4F00083D4F00083D4F0008014D00080E
:1000E0003D4F00083D4F00083D4F00083D4F0008C0
:1000F0003D4F00083D4F0008154D00083D4F0008DA
:100100003D4F00083D4F00083D4F00083D4F00089F
:100110003D4F00083D4F00083D4F00083D4F00088F
:10012000294D00083D4F00083D4F00083D4F000895
:100130003D4F00083D4F00083D4F00083D4F00086F
:100140003D4F00083D4F00083D4F00083D4F00085F
:100150003D4F00083D4F00083D4F00083D4F00084F
:100160003D4F00083D4F00083D4F00083D4F00083F
:100170003D4F00083D4F00083D4F000800000000C3
:080180003D4F00083D4F00084F
:1001900010B5054C237833B9044B13B10448AFF3C1
:1001A00000800123237010BDE80100200000000042
:1001B000CCF8000808B5034B1BB103490348AFF363
:1001C000008008BD00000000EC010020CCF8000811
:1001D00010F8012B11F8013B012A28BF9A42F7D0F1
:1001E000D01A70470000000000000000000000006E
:1001F00001F0FF01102A2BDB10F0070F08D010F8D8
:10020000013B013A8B422DD010F0070F42B3F6D1DB
:10021000F0B441EA012141EA014122F007047FF0F4
:1002200000070023F0E80256083C85EA010586EA4B
:10023000010685FA47F5A3FA87F586FA47F6A5FA87
:1002400087F68EB9EED1F0BC01F0FF0102F0070293
:1002500032B110F8013B013A83EA010313B1F8D13E
:100260000020704701387047002D06BF354603381F
:10027000073815F0010F07D1013015F4807F02BF58
:10028000013015F4C03F0130F0BC0138704700BFA9
:10029000034613F8012B002AFBD1181A01387047C6
:1002A00081F0004102E000BF83F0004330B54FEA27
:1002B00041044FEA430594EA050F08BF90EA020F94
:1002C0001FBF54EA000C55EA020C7FEA645C7FEA27
:1002D000655C00F0E2804FEA5454D4EB5555B8BF4A
:1002E0006D420CDD2C4480EA020281EA030382EABB
:1002F000000083EA010180EA020281EA0303362D4D
:1003000088BF30BD11F0004F4FEA01314FF4801C1F
:100310004CEA113102D0404261EB410113F0004F31
:100320004FEA03334CEA133302D0524263EB4303E8
:1003300094EA050F00F0A780A4F10104D5F1200E86
:100340000DDB02FA0EFC22FA05F2801841F10001E1
:1003500003FA0EF2801843FA05F359410EE0A5F1B5
:1003600020050EF1200E012A03FA0EFC28BF4CF0E6
:10037000020C43FA05F3C01851EBE37101F000459C
:1003800007D54FF0000EDCF1000C7EEB00006EEBA9
:100390000101B1F5801F1BD3B1F5001F0CD3490833
:1003A0005FEA30004FEA3C0C04F101044FEA44528A
:1003B00012F5800F80F09A80BCF1004F08BF5FEA11
:1003C000500C50F1000041EB045141EA050130BDF1
:1003D0005FEA4C0C404141EB0101013C28BFB1F503
:1003E000801FE9D291F0000F04BF01460020B1FA4E
:1003F00081F308BF2033A3F10B03B3F120020CDA21
:100400000C3208DD02F1140CC2F10C0201FA0CF0FE
:1004100021FA02F10CE002F11402D8BFC2F1200C63
:1004200001FA02F120FA0CFCDCBF41EA0C01904019
:10043000E41AA2BF01EB0451294330BD6FEA040462
:100440001F3C1CDA0C340EDC04F11404C4F120024D
:1004500020FA04F001FA02F340EA030021FA04F35F
:1004600045EA030130BDC4F10C04C4F1200220FAB6
:1004700002F001FA04F340EA0300294630BD21FAF4
:1004800004F0294630BD94F0000F83F4801306BFBA
:1004900081F480110134013D4EE77FEA645C18BFAE
:1004A0007FEA655C29D094EA050F08BF90EA020F45
:1004B00005D054EA000C04BF1946104630BD91EA3D
:1004C000030F1EBF0021002030BD5FEA545C05D140
:1004D0004000494128BF41F0004130BD14F580047F
:1004E0003CBF01F5801130BD01F0004545F0FE41F3
:1004F00041F470014FF0000030BD7FEA645C1ABF28
:10050000194610467FEA655C1CBF0B46024650EA5E
:10051000013406BF52EA033591EA030F41F400218A
:1005200030BD00BF90F0000F04BF0021704730B510
:100530004FF4806404F132044FF000054FF00001E5
:1005400050E700BF90F0000F04BF0021704730B5A6
:100550004FF4806404F1320410F0004548BF40427B
:100560004FF000013EE700BF42004FEAE2014FEAD0
:1005700031014FEA02701FBF12F07F4393F07F4FAB
:1005800081F06051704732F07F4208BF704793F0AE
:100590007F4F04BF41F40021704730B54FF46074C1
:1005A00001F0004521F000411CE700BF50EA0102C4
:1005B00008BF704730B54FF000050AE050EA01026D
:1005C00008BF704730B511F0004502D5404261EBDD
:1005D00041014FF4806404F132045FEA915C3FF41E
:1005E000D8AE4FF003025FEADC0C18BF03325FEABB
:1005F000DC0C18BF033202EBDC02C2F1200300FA6C
:1006000003FC20FA02F001FA03FE40EA0E0021FA90
:1006100002F11444BDE600BF70B54FF0FF0C4CF47E
:10062000E06C1CEA11541DBF1CEA135594EA0C0F30
:1006300095EA0C0F00F0DEF82C4481EA030621EA6B
:100640004C5123EA4C5350EA013518BF52EA0335A6
:1006500041F4801143F4801338D0A0FB02CE4FF058
:100660000005E1FB02E506F00042E0FB03E54FF088
:100670000006E1FB03569CF0000F18BF4EF0010E80
:10068000A4F1FF04B6F5007F64F5407404D25FEA7C
:100690004E0E6D4146EB060642EAC62141EA55512F
:1006A0004FEAC52040EA5E504FEACE2EB4F1FD0C71
:1006B00088BFBCF5E06F1ED8BEF1004F08BF5FEAEF
:1006C000500E50F1000041EB045170BD06F00046A1
:1006D00046EA010140EA020081EA0301B4EB5C044E
:1006E000C2BFD4EB0C0541EA045170BD41F4801146
:1006F0004FF0000E013C00F3AB8014F1360FDEBF6B
:10070000002001F0004170BDC4F10004203C35DA46
:100710000C341BDC04F11404C4F1200500FA05F3C9
:1007200020FA04F001FA05F240EA020001F000426A
:1007300021F0004110EBD37021FA04F642EB0601E0
:100740005EEA430E08BF20EAD37070BDC4F10C040A
:10075000C4F1200500FA04F320FA05F001FA04F2CE
:1007600040EA020001F0004110EBD37041F10001BA
:100770005EEA430E08BF20EAD37070BDC4F12005C5
:1007800000FA05F24EEA020E20FA04F301FA05F22D
:1007900043EA020321FA04F001F0004121FA04F2D5
:1007A00020EA020000EBD3705EEA430E08BF20EAA5
:1007B000D37070BD94F0000F0FD101F000464000DF
:1007C00041EB010111F4801F08BF013CF7D041EA61
:1007D000060195F0000F18BF704703F00046520065
:1007E00043EB030313F4801F08BF013DF7D043EA36
:1007F0000603704794EA0C0F0CEA135518BF95EAEC
:100800000C0F0CD050EA410618BF52EA4306D1D172
:1008100081EA030101F000414FF0000070BD50EA91
:10082000410606BF1046194652EA430619D094EA1B
:100830000C0F02D150EA013613D195EA0C0F05D105
:1008400052EA03361CBF104619460AD181EA030159
:1008500001F0004141F0FE4141F470014FF0000011
:1008600070BD41F0FE4141F4780170BD70B54FF0AC
:10087000FF0C4CF4E06C1CEA11541DBF1CEA13552C
:1008800094EA0C0F95EA0C0F00F0A7F8A4EB05040E
:1008900081EA030E52EA03354FEA013100F0888005
:1008A0004FEA03334FF0805545EA131343EA1263CE
:1008B0004FEA022245EA111545EA10654FEA002683
:1008C0000EF000419D4208BF964244F1FD0404F53C
:1008D000407402D25B084FEA3202B61A65EB030598
:1008E0005B084FEA32024FF480104FF4002CB6EB55
:1008F000020E75EB030E22BFB61A754640EA0C00D5
:100900005B084FEA3202B6EB020E75EB030E22BF14
:10091000B61A754640EA5C005B084FEA3202B6EB55
:10092000020E75EB030E22BFB61A754640EA9C0014
:100930005B084FEA3202B6EB020E75EB030E22BFE4
:10094000B61A754640EADC0055EA060E18D04FEAA2
:10095000051545EA16754FEA06164FEAC30343EA42
:1009600052734FEAC2025FEA1C1CC0D111F4801F0F
:100970000BD141EA00014FF000004FF0004CB6E708
:1009800011F4801F04BF01430020B4F1FD0C88BFA7
:10099000BCF5E06F3FF6AFAEB5EB030C04BFB6EBB2
:1009A000020C5FEA500C50F1000041EB045170BDA5
:1009B0000EF0004E4EEA113114EB5C04C2BFD4EBD2
:1009C0000C0541EA045170BD41F480114FF0000E56
:1009D000013C90E645EA060E8DE60CEA135594EAD2
:1009E0000C0F08BF95EA0C0F3FF43BAF94EA0C0FD5
:1009F0000AD150EA01347FF434AF95EA0C0F7FF44A
:100A000025AF104619462CE795EA0C0F06D152EA9D
:100A100003353FF4FDAE1046194622E750EA410681
:100A200018BF52EA43067FF4C5AE50EA41047FF492
:100A30000DAF52EA43057FF4EBAE12E74FF0FF3CF7
:100A400006E000BF4FF0010C02E000BF4FF0010CC8
:100A50004DF804CD4FEA410C7FEA6C5C4FEA430C41
:100A600018BF7FEA6C5C1BD001B050EA410C0CBF90
:100A700052EA430C91EA030F02BF90EA020F0020F2
:100A8000704710F1000F91EA030F58BF994208BF59
:100A900090422CBFD8176FEAE37040F00100704716
:100AA0004FEA410C7FEA6C5C02D150EA013C07D16D
:100AB0004FEA430C7FEA6C5CD6D152EA033CD3D0B8
:100AC0005DF8040B704700BF8446104662468C46B2
:100AD0001946634600E000BF01B5FFF7B7FF0028E5
:100AE00048BF10F1000F01BD4DF808EDFFF7F4FF0E
:100AF0000CBF012000205DF808FB00BF4DF808ED99
:100B0000FFF7EAFF34BF012000205DF808FB00BFBB
:100B10004DF808EDFFF7E0FF94BF012000205DF8DD
:100B200008FB00BF4DF808EDFFF7CEFF94BF012092
:100B300000205DF808FB00BF4DF808EDFFF7C4FF8B
:100B400034BF012000205DF808FB00BF4FEA410CD4
:100B50007FEA6C5C02D150EA013C0AD14FEA430CB7
:100B60007FEA6C5C02D152EA033C02D14FF00000F4
:100B700070474FF0010070474FEA410212F5001232
:100B800015D211D56FF47873B3EB625212D94FEAD4
:100B9000C12343F0004343EA505311F0004F23FABE
:100BA00002F018BF404270474FF00000704750EA13
:100BB000013005D111F0004008BF6FF000407047D0
:100BC0004FF00000704700BF4A0011D212F500122A
:100BD00011D20DD56FF47873B3EB62520ED44FEA95
:100BE000C12343F0004343EA505323FA02F0704715
:100BF0004FF00000704750EA013002D14FF0FF3053
:100C000070474FF00000704753B94AB9002908BF38
:100C100000281CBF4FF0FF314FF0FF3000F088B9C3
:100C2000ADF1080C6DE904CE00F006F8DDF804E043
:100C3000DDE9022304B070472DE9F047089D0F4617
:100C400004468C46002B48D18A42164661D9B2FA36
:100C500082F34BB1C3F1200201FA03FC20FA02F245
:100C60009E4042EA0C0C9C404FEA164EB7B2BCFBC9
:100C7000FEF1220C0EFB11CC42EA0C4201FB07F004
:100C8000904209D9B21801F1FF3C80F0EE80904209
:100C900040F2EB8002393244121AA4B2B2FBFEF0E9
:100CA0000EFB102244EA024400FB07F7A74209D9D1
:100CB000341900F1FF3280F0DA80A74240F2D78089
:100CC0003444023840EA0140E41B00211DB1DC40FD
:100CD0000023C5E90043BDE8F0878B4206D90DB17A
:100CE000C5E9000100210846BDE8F087B3FA83F1A9
:100CF000002948D1BB4202D3824200F20781841A04
:100D000067EB030201209446002DE4D0C5E9004CB6
:100D1000E1E7002A00F09280B2FA82F3002B40F063
:100D2000A8808A1A4FEA164E1FFA86FC0121200C71
:100D3000B2FBFEF70EFB172240EA02420CFB07F063
:100D4000904207D9B21807F1FF3802D2904200F260
:100D5000E2804746121AA4B2B2FBFEF00EFB10224C
:100D600044EA02440CFB00FCA44507D9341900F105
:100D7000FF3202D2A44500F2CB801046A4EB0C0453
:100D800040EA0740A2E7C1F120068B4022FA06FCA8
:100D90004CEA030C07FA01F420FA06F3F7404FEA95
:100DA0001C49234300FA01F81FFA8CFEB7FBF9F047
:100DB0001C0C09FB107744EA074400FB0EF7A7421E
:100DC00002FA01F20AD91CEB040400F1FF3A80F0A8
:100DD0009B80A74240F2988002386444E41B9FB293
:100DE000B4FBF9F309FB134447EA044403FB0EFE8A
:100DF000A64509D91CEB040403F1FF3780F082807B
:100E0000A6457FD9023B644443EA0040A4EB0E04AC
:100E1000A0FB02E7BC427346B94663D360D05DB124
:100E2000B8EB030264EB090404FA06F622FA01F3B4
:100E30001E43CC40C5E9006400214CE76208480825
:100E400042EAC1710B0C43EA00438AB242EA034210
:100E5000B3FBF6F1E407B4463746B6461F23B0FBB2
:100E6000F6F0D21B41EA004161E7614614E7104603
:100E700028E7C3F1200120FA01F29E4027FA01F190
:100E80009F403A434FEA164E1FFA86FCB1FBFEF72D
:100E90000EFB1710110C41EA004107FB0CF88845C6
:100EA00004FA03F43AD9711807F1FF3001D28845EA
:100EB0001FD8A1EB0801B1FBFEF808FB0CF70EFBF5
:100EC000181192B242EA0142BA422FD2B21808F186
:100ED000FF31C6D2BA42C4D2A8F102013244C0E7FF
:100EE000F0459CD2BEEB020367EB0C070138B94614
:100EF00095E7A6EB08084144B81EB1FBFEF808FBD5
:100F00000CF7DCE73B467FE7504667E70846FBE621
:100F10003444023832E7023F32441BE7A1EB0801B8
:100F20003846B1FBFEF808FB0CF7C8E7414698E7E6
:100F3000704700BF80B485B000AFF860B9607A60D8
:100F4000FB68074A1A60BB68064A1A607B68802201
:100F50001A6000BF1437BD465DF8047B704700BFC0
:100F6000040200205802002080B400AF074B1B7819
:100F7000DAB2074B1B78DBB29A420CBF0123002385
:100F8000DBB21846BD465DF8047B70479809002027
:100F90009909002080B485B000AF3B4683E8030088
:100FA000124B1B78DBB20133DBB203F01F03FB7380
:100FB0000F4B1B78DBB2FA7B9A4201D100230EE083
:100FC0000A4B1B78DBB20B4ADB0013443A4692E82B
:100FD000030083E80300054AFB7B137001231846D6
:100FE0001437BD465DF8047B704700BF99090020A7
:100FF000980900209808002090B583B000AF786071
:10100000FFF7B2FF0346002B01D0002316E00D4B83
:101010001B78DBB279680C4A0C46DB00134493E87A
:10102000030084E80300074B1B78DBB20133DBB21B
:1010300003F01F03DAB2034B1A70012318460C3772
:10104000BD4690BD980900209808002080B400AFEC
:1010500072B600BF0021064B0A461A70054B0A46BD
:101060001A7062B600BF00BFBD465DF8047B7047D2
:10107000990900209809002080B483B000AF7860FF
:101080007B681B68054A934202D1054B00221A7007
:1010900000BF0C37BD465DF8047B70470048004038
:1010A0009A09002080B500AF084B1B78DBB2002BFB
:1010B0000AD1064B01221A7003220549054808F09F
:1010C00055FEFFF7C3FF00E000BF80BD9A09002076
:1010D0002CFB00080407002080B584B002AF034653
:1010E0003960FB710E4AFB7913700E4B1B785B0065
:1010F00099B20A2300930123094A0B4805F03AFEEE
:10110000084B1B785B0099B21423009302233A68C2
:10111000054805F02DFF00BF0837BD4680BD00BF64
:10112000C8090020080000200005002080B584B018
:1011300002AF03460A46FB711346BB710A4AFB79AC
:101140001370094ABB795370084B1B785B0099B246
:10115000142300930223044A054805F00BFE00BF48
:101160000837BD4680BD00BFC80900200800002028
:101170000005002080B500AF00210620FFF7D6FF54
:101180000A2009F0C2FD80210320FFF7CFFF0A20CB
:1011900009F0BBFD07210720FFF7C8FF0A2009F06F
:1011A000B4FD01210620FFF7C1FF0A2009F0ADFDC3
:1011B00020217F20FFF7BAFF0A2009F0A6FD2F218A
:1011C0000120FFF7B3FF0A2009F09FFD1121002045
:1011D000FFF7ACFF0A2009F098FD00217F20FFF700
:1011E000A5FF0A2009F091FD00210720FFF79EFFCF
:1011F0000A2009F08AFD00210520FFF797FF0A2049
:1012000009F083FD01210620FFF790FF0A2009F075
:101210007CFD00BF80BD000080B485B000AF786069
:101220000E4B5B68FB600E4B1B680E4AA2FB032350
:101230009A0C7B6802FB03F3BB6000E000BF074B26
:101240005A68FB68D31ABA689A42F7D800BF00BF41
:101250001437BD465DF8047B704700BF001000E006
:101260001000002083DE1B4380B400AF084BDB6816
:10127000074A43F08073D360064B1B68054A43F06E
:101280000103136000BFBD465DF8047B704700BFDB
:10129000F0ED00E0001000E080B400AF0C4B1B68E4
:1012A00041F61F42DA630A4B1B6841F61F421A647B
:1012B000084B1B6841F61F425A63064B1B6841F6F8
:1012C0001F429A6300BFBD465DF8047B704700BFB4
:1012D000E40500207406002080B483B000AF78607D
:1012E000074B1B687A68DA63054B1B6841F61F429F
:1012F0001A6400BF0C37BD465DF8047B704700BF21
:10130000E405002080B483B000AF7860074B1B6811
:101310007A685A63054B1B6841F61F429A6300BF07
:101320000C37BD465DF8047B704700BF7406002093
:1013300080B483B000AF7860074B1B6841F61F4252
:10134000DA63054B1B687A681A6400BF0C37BD4628
:101350005DF8047B704700BFE405002080B483B0D3
:1013600000AF7860074B1B6841F61F425A63054B7C
:101370001B687A689A6300BF0C37BD465DF8047B32
:10138000704700BF7406002080B400AF044B1B6898
:101390009A229A6300BFBD465DF8047B704700BF88
:1013A000BC06002080B400AF044B1B68FA229A638D
:1013B00000BFBD465DF8047B704700BFBC0600203F
:1013C00080B400AF044B1B68FA229A6300BFBD468D
:1013D0005DF8047B704700BFBC06002080B400AFFE
:1013E000044B1B686B229A6300BFBD465DF8047B0B
:1013F000704700BFBC06002080B400AF044B1B68E0
:101400006B229A6300BFBD465DF8047B704700BF46
:10141000BC06002080B400AF044B1B689A229A637C
:1014200000BFBD465DF8047B704700BFBC060020CE
:1014300080B400AF044B1B689A229A6300BFBD467C
:101440005DF8047B704700BFBC06002080B400AF8D
:10145000164B1B78DBB2072B22D801A252F823F0DF
:101460008114000885140008891400088D140008F0
:101470009114000895140008991400089D140008A0
:101480000B4B0EE00B4B0CE00B4B0AE00B4B08E058
:101490000B4B06E00B4B04E00B4B02E00B4B00E068
:1014A0000B4B1846BD465DF8047B70478E07002045
:1014B000E8F80008F0F80008F8F8000800F900085B
:1014C00008F9000814F9000820F9000828F90008B4
:1014D00030F9000880B58CB000AF78607B68FB62A3
:1014E00009E0FB6A1B782C2B02D1FB6A20221A70C0
:1014F000FB6A0133FB62FB6A1B78002BF1D18F4939
:1015000078680BF041FCB86205E18D49B86AFEF7D6
:101510005FFE0346002B03D18A4B01221A70FEE0C6
:1015200000233B750023BB618749B86AFEF750FE74
:101530000346002B04D10B233B750023BB61D1E094
:101540008249B86AFEF744FE0346002B04D10C23FF
:101550003B750023BB61C5E07D49B86AFEF738FEE4
:101560000346002B04D10D233B750023BB61B9E07A
:101570007849B86AFEF72CFE0346002B04D10E23EF
:101580003B750023BB61ADE07349B86AFEF720FEEE
:101590000346002B04D107233B750023BB61A1E068
:1015A0006E49B86AFEF714FE0346002B04D10823E7
:1015B0003B750023BB6195E0BB6A1B78662B0ED19F
:1015C000BB6A01331B78782B09D110233B75BB6AAA
:1015D000023318460AF0AEFD0346BB6182E0BB6AE7
:1015E0001B78662B0ED1BB6A01331B78752B09D192
:1015F0000F233B75BB6A023318460AF09BFD034676
:10160000BB616FE0BB6A1B78662B0ED1BB6A0133EE
:101610001B78722B09D103233B75BB6A0233184632
:101620000AF088FD0346BB615CE0BB6A1B78662B51
:101630000ED1BB6A01331B786C2B09D104233B7597
:10164000BB6A023318460AF075FD0346BB6149E0E8
:10165000BB6A1B78722B0ED1BB6A01331B78722BCD
:1016600009D105233B75BB6A023318460AF062FDB7
:101670000346BB6136E0BB6A1B78722B0ED1BB6A96
:1016800001331B786C2B09D106233B75BB6A0233EF
:1016900018460AF04FFD0346BB6123E0BB6A1B7886
:1016A000662B09D101233B75BB6A013318460AF04A
:1016B00041FD0346BB6115E0BB6A1B78722B09D163
:1016C00002233B75BB6A013318460AF033FD03461B
:1016D000BB6107E0BB6A1B78732B03D109233B7501
:1016E0000023BB613B7D002B10D007F1140393E86E
:1016F0000300FFF74FFC78627B6A002B06D1184A83
:1017000007F1080307CA83E8070008E00B49002037
:101710000BF03AFBB862BB6A002B7FF4F6AE0A23EB
:101720003B7700233B6207F11C0393E80300FFF7BC
:1017300031FC00BF3037BD4680BD00BF34F9000822
:1017400038F900088C0700203CF9000840F900082F
:1017500044F900084CF9000854F9000858F9000849
:101760005CF9000880B586B000AF3B461846FFF72D
:1017700043FC0346002B01D1002306E33B78013BE9
:101780000F2B00F2008301A252F823F095190008F4
:101790002B1A0008DB1A0008271B0008731B00081F
:1017A000BF1B0008251C0008FD1C00080B1C0008BE
:1017B0001D1C0008ED180008411900084518000814
:1017C00099180008CD170008CD170008994B1B6821
:1017D0005B6A9AB2984B1A80984B1B685B6A9AB204
:1017E000974B1A80974BD3E900239749C1E900230F
:1017F000FFF7CAFD954B00221A60954B4FF000028F
:101800001A60944B6FF000421A607B68002B02DD77
:101810007B689BB200E01A238F4A13803B780F2B22
:101820000CBF01230023DBB21A468C4B1A708C4B81
:1018300007221A708B4B01221A708B4B01221A70EF
:101840000123A2E27B4B1B685B6A9AB27A4B1A8037
:101850007A4B1B685B6A9AB2794B1A80794BD3E951
:1018600000237949C1E90023FFF78EFD774B002261
:101870001A60774B4FF000021A60764B6FF000420F
:101880001A60774B05221A70764B01221A70764B3C
:1018900001221A70012378E2664B1B685B6A9AB2D8
:1018A000654B1A80654B1B685B6A9AB2644B1A8061
:1018B000644BD3E900236449C1E90023FFF764FDC9
:1018C000624B00221A60624B4FF000021A60614BBB
:1018D0006FF000421A60624B06221A70614B0122BF
:1018E0001A70614B01221A7001234EE2514B1B68A2
:1018F0005B6A9AB2504B1A80504B1B685B6A9AB273
:101900004F4B1A804F4BD3E900234F49C1E90023C5
:10191000FFF73AFD554B00221A60554B4FF000027D
:101920001A604C4B6FF000421A604D4B02221A7045
:101930004C4B01221A704C4B01221A70012324E2F5
:101940003C4B1B685B6A9AB23B4B1A803B4B1B6853
:101950005B6A9AB23A4B1A803A4BD3E900233A4970
:10196000C1E90023FFF710FD404B00221A60404BF5
:101970004FF000021A60374B6FF000421A60384B8C
:1019800003221A70374B01221A70374B01221A704A
:101990000123FAE17B68FB60264B1B685B6A9AB205
:1019A000254B1A80254B1B685B6A9AB2244B1A8020
:1019B000244BD3E900232449C1E90023FFF7E4FCC9
:1019C000FB68002B1BDDFB6807EE903AF8EEE77A28
:1019D0009FED287A67EE877AB6EE007A77EE877AFF
:1019E000FDEEE77A17EE903ABB601A4ABB681360C7
:1019F0001B4B00221A701B4B01221A7010E0184B6F
:101A000001221A70134B6FF000421A600F4B002234
:101A10001A600F4B4FF000021A60124B01221A702D
:101A2000114B01221A700123AFE17B68002B23DDEB
:101A30007B6822E0540500209C0900209C050020C2
:101A40009E090020B0090020B8090020FC090020F0
:101A5000000A0020A00900200A0000200C0000203D
:101A6000FA0900208E0700200C0A0020040A00203A
:101A7000080A0020896D934232237B618C4B1B68DE
:101A80005B6A9AB28B4B1A808B4B1B685B6A9AB26B
:101A90008A4B1A807B6907EE903AF8EEE77A9FED61
:101AA000887A67EE877AB6EE007A77EE877AFDEE6F
:101AB000E77A17EE903A5B423B61824A3B691360DA
:101AC000814BD3E900238149C1E90023FFF75CFC86
:101AD0007F4B02221A70012357E17B681846FEF7FC
:101AE00031FD02460B467B49C1E90023FFF75AFC52
:101AF000794BD3E90001774BD3E90023FEF7D4FB00
:101B000002460B467449C1E9002303F0B7FC0346C3
:101B10006433724A1360724B00221A706C4B0422B9
:101B20001A70012331E17B681846FEF70BFD02466F
:101B30000B466849C1E90023FFF750FC664BD3E927
:101B40000001644BD3E90023FEF7B0FB02460B46CD
:101B50006149C1E9002303F091FC034664335F4A05
:101B600013605F4B00221A70594B05221A70012333
:101B70000BE17B681846FEF7E5FC02460B4655492B
:101B8000C1E90023FFF71CFC534BD3E90001514B83
:101B9000D3E90023FEF78AFB02460B464E49C1E912
:101BA000002303F06BFC034632334C4A13604C4B6A
:101BB00001221A70464B06221A700123E5E07B6869
:101BC0001846FEF7BFFC02460B464249C1E9002316
:101BD000FFF712FC404BD3E900013E4BD3E9002351
:101BE000FEF762FB02460B463B49C1E9002303F0C6
:101BF00045FC03463233394A1360394B00221A70D0
:101C0000334B07221A700123BFE0FFF745FBFFF7B4
:101C1000BBFB2F4B03221A700123B6E0FFF742FAF9
:101C20000123B2E02C4BD3E900232E49C1E9002364
:101C3000294BD3E900014FF000022B4BFEF736FB96
:101C400002460B462949C1E90023234BD3E9000191
:101C50004FF00002244BFEF727FB02460B461E49BD
:101C6000C1E90023224B01221A70224B01221A7073
:101C7000174B1B78DBB2012B17D00D4B1B685B6A2F
:101C80009AB20C4B1A800C4B1B685B6A9AB20B4BD6
:101C90001A80FFF779FB0B4B6FF000421A60164B6E
:101CA00000221A700A4B01221A7001236DE000BF56
:101CB000540500209C0900209C0500209E0900205E
:101CC000896D9342A0090020B0090020B8090020C6
:101CD0008E07002000000020A8090020DC09002059
:101CE000E0090020100A002000004940180A0020E6
:101CF0000D0A00200E0A0020FA090020254BD3E926
:101D000000232549C1E90023224BD3E900014FF00C
:101D10000002224BFEF7C8FA02460B462049C1E9F1
:101D200000231C4BD3E900014FF000021B4BFEF7D0
:101D3000BDFA02460B461749C1E90023194B02229E
:101D40001A70194B01221A70184B1B78DBB2012B49
:101D500017D0174B1B685B6A9AB2164B1A80164B4A
:101D60001B685B6A9AB2154B1A80FFF70DFB144B88
:101D70006FF000421A60134B00221A700B4B0122C5
:101D80001A70012301E000BF002318461837BD4632
:101D900080BD00BFA8090020100A002000004940B3
:101DA000180A00200D0A00200E0A00208E070020CD
:101DB000540500209C0900209C0500209E0900205D
:101DC000A0090020FA09002080B584B000AF87ED9B
:101DD000010AD7ED017A9FED1A7AF4EEC77AF1EE97
:101DE00010FA01D5174B24E0DFED170A97ED010A31
:101DF0000DF004F9F0EE407A9FED147A67EE877AE1
:101E0000C7ED037AD7ED037A9FED117AF4EEC77A26
:101E1000F1EE10FA01DD0B4B0BE0D7ED037AB2EED9
:101E2000047AF4EEC77AF1EE10FA01D5094B00E01E
:101E3000FB6807EE903AB0EE670A1037BD4680BDEA
:101E4000CDCCCC3D0000A042333393BF48E1DE410E
:101E50000000A04200002041B0B5B2B000AF03F0D6
:101E6000A7FA00F0CFF8FFF7FFF900F06FFC00F0E1
:101E70004DFC00F05BFA00F0B1F900F003FA00F05D
:101E80001BFC00F049FB00F0B5FB00F079F900F015
:101E9000CFFA00F015F903F0FDF90122474948484F
:101EA00007F09AFF02224749474803F05BFB474B84
:101EB00007F1AC041D460FCD0FC495E8070084E878
:101EC000070007F1AC030021184608F0D2FE0346D4
:101ED0003F4A13603F4B07F190041D460FCD0FC4DE
:101EE00095E8070084E8070007F1900300211846F1
:101EF00008F0BFFE0346384A1360384B07F17404FC
:101F00001D460FCD0FC495E8070084E8070007F1D0
:101F100074030021184608F0ACFE0346304A1360F3
:101F2000304B07F158041D460FCD0FC495E807004C
:101F300084E8070007F158030021184608F099FECD
:101F40000346294A1360294B07F13C041D460FCD77
:101F50000FC495E8070084E8070007F13C0300215F
:101F6000184608F086FE0346214A1360214B07F10C
:101F700020041D460FCD0FC495E8070084E8070034
:101F800007F120030021184608F073FE03461A4AA1
:101F900013601A4B3C1D1D460FCD0FC495E807007A
:101FA00084E807003B1D0021184608F062FE034646
:101FB000134A136008F056FE00BFFDE78D070020AE
:101FC00004070020E40900205804002074F90008E8
:101FD0004C0700209CF9000850070020C4F90008B5
:101FE00054070020F0F900085807002018FA0008EC
:101FF0005C07002044FA00086007002068FA000827
:102000006407002080B594B000AF07F120033022B0
:10201000002118460AF0B0FE07F10C0300221A60F6
:102020005A609A60DA601A610023BB60224B1B6C15
:10203000214A43F0805313641F4B1B6C03F0805301
:10204000BB60BB6800237B601C4B1B681B4A43F4CE
:1020500080431360194B1B6803F480437B607B68EB
:1020600002233B620123FB6210233B630023BB631B
:1020700007F12003184605F05BFD0346002B01D055
:1020800002F01EFB0F23FB6000233B6100237B61FA
:102090000023BB610023FB6107F10C0300211846FC
:1020A00005F0BEFF0346002B01D002F009FB00BF84
:1020B0005037BD4680BD00BF003802400070004070
:1020C00080B584B000AF3B4600221A605A609A6027
:1020D000DA60284B284A1A60264B4FF440325A6087
:1020E000244B00229A60234B01221A61214B0122CA
:1020F0001A76204B002283F820201E4B0022DA6241
:102100001C4B1E4A9A621B4B0022DA60194B0222BA
:10211000DA61184B012283F83020164B00225A61F5
:10212000144803F0DBF90346002B01D002F0C8FA93
:102130000A233B6001237B600723BB603B461946B3
:102140000C4803F037FB0346002B01D002F0B8FA2D
:102150000B233B6002237B603B461946054803F096
:1021600029FB0346002B01D002F0AAFA00BF10376A
:10217000BD4680BD58040020002001400100000F32
:1021800080B500AF124B134A1A60114B124A5A60C5
:102190000F4B00229A600E4B0022DA600C4B4FF47A
:1021A00080421A610A4B00225A61094B00229A614F
:1021B000074B0022DA61064B00221A62044804F041
:1021C00095FC0346002B01D002F07AFA00BF80BDD7
:1021D0000005002000580040A086010080B58CB0AA
:1021E00000AF07F10C032422002118460AF0C4FDB9
:1021F0003B1D00221A605A60214B4FF080421A604A
:102200001F4B00225A601E4B00229A601C4B4FF657
:10221000FF72DA601A4B00221A61194B00229A6190
:102220000323FB6000233B6101237B610023BB612F
:102230000A23FB6100233B6201237B620023BB6214
:102240000A23FB6207F10C0319460D4806F0B8FBA0
:102250000346002B01D002F033FA00237B600023F9
:10226000BB603B1D1946064807F0A0FC0346002B47
:1022700001D002F025FA00BF3037BD4680BD00BF57
:102280005405002080B58CB000AF07F10C03242268
:10229000002118460AF070FD3B1D00221A605A60AA
:1022A000204B214A1A601F4B00225A601D4B00220E
:1022B0009A601C4B4FF6FF72DA601A4B00221A61CB
:1022C000184B00229A610323FB6000233B6101232A
:1022D0007B610023BB610A23FB6100233B62012376
:1022E0007B620023BB620A23FB6207F10C031946E1
:1022F0000C4806F065FB0346002B01D002F0E0F924
:1023000000237B600023BB603B1D1946054807F096
:102310004DFC0346002B01D002F0D2F900BF30374C
:10232000BD4680BD9C0500200004004080B58EB0F5
:1023300000AF07F1280300221A605A609A60DA6041
:1023400007F1200300221A605A603B1D00221A6028
:102350005A609A60DA601A615A619A61324B334A64
:102360001A60314B00225A602F4B00229A602E4B8C
:1023700041F61F42DA602C4B00221A612A4B0022E0
:102380009A61294806F02AF80346002B01D002F092
:1023900097F94FF48053BB6207F12803194622488E
:1023A00006F090FE0346002B01D002F089F91E488A
:1023B00006F063F80346002B01D002F081F90023F8
:1023C0003B6200237B6207F120031946164807F0A1
:1023D000EDFB0346002B01D002F072F960237B6015
:1023E0000023BB600023FB6000237B613B1D0822B0
:1023F00019460D4806F0A4FD0346002B01D002F05B
:102400005FF93B1D0C221946074806F099FD03466B
:10241000002B01D002F054F9034802F06FFB00BF1B
:102420003837BD4680BD00BFE405002000080040ED
:1024300080B58AB000AF07F1180300221A605A6015
:102440009A60DA6007F1100300221A605A603B4676
:1024500000221A605A609A60DA602D4B2D4A1A6089
:102460002B4B0F225A602A4B00229A60284B4FF6C2
:10247000FF72DA60264B00221A61254B00225A6156
:10248000234B00229A61224805F0A8FF0346002B47
:1024900001D002F015F94FF48053BB6107F1180326
:1024A00019461B4806F00EFE0346002B01D002F031
:1024B00007F9174806F002F90346002B01D002F095
:1024C000FFF800233B6100237B6107F110031946ED
:1024D0000F4807F06BFB0346002B01D002F0F0F829
:1024E0000A233B6001237B600023BB600C23FB605D
:1024F0003B4604221946064806F086FC0346002B9C
:1025000001D002F0DDF800BF2837BD4680BD00BF16
:102510002C0600200004014080B58CB000AF07F10C
:10252000200300221A605A609A60DA603B1D002284
:102530001A605A609A60DA601A615A619A612B4B8C
:102540002B4A1A60294B00225A60284B00229A60BD
:10255000264B41F61F42DA60244B00221A61234BBE
:1025600000229A61214805F039FF0346002B01D073
:1025700002F0A6F84FF480533B6207F1200319469E
:102580001A4806F09FFD0346002B01D002F098F890
:10259000164805F072FF0346002B01D002F090F8B8
:1025A00060237B600023BB600023FB6000237B6112
:1025B0003B1D002219460D4806F0C2FC0346002BC5
:1025C00001D002F07DF83B1D04221946074806F0B1
:1025D000B7FC0346002B01D002F072F8034802F06A
:1025E0008DFA00BF3037BD4680BD00BF74060020A5
:1025F0000040014080B58CB000AF07F120030022FD
:102600001A605A609A60DA603B1D00221A605A60B4
:102610009A60DA601A615A619A61254B254A1A60FC
:10262000234BA0225A60224B00229A60204B4FF489
:102630007A72DA601E4B00221A611D4B00229A61E9
:102640001B4805F0CBFE0346002B01D002F038F802
:102650004FF480533B6207F120031946144806F0FB
:1026600031FD0346002B01D002F02AF8104805F096
:1026700004FF0346002B01D002F022F860237B60A8
:102680000023BB600023FB6000237B613B1D042211
:102690001946074806F054FC0346002B01D002F00F
:1026A0000FF8034802F02AFA00BF3037BD4680BD5C
:1026B000BC0600200018004080B500AF114B124A44
:1026C0001A60104B4FF4E1325A600E4B00229A60B0
:1026D0000C4B0022DA600B4B00221A61094B0C22D2
:1026E0005A61084B00229A61064B0022DA610548C4
:1026F00007F0ECFA0346002B01D001F0E1FF00BF28
:1027000080BD00BF040700200048004080B582B0B3
:1027100000AF00237B600C4B1B6B0B4A43F4800320
:102720001363094B1B6B03F480037B607B680022FF
:102730000521382003F0B9FB382003F0D2FB00BF9D
:102740000837BD4680BD00BF0038024080B58AB062
:1027500000AF07F1140300221A605A609A60DA6031
:102760001A6100233B61484B1B6B474A43F010033F
:102770001363454B1B6B03F010033B613B69002364
:10278000FB60414B1B6B404A43F0040313633E4B19
:102790001B6B03F00403FB60FB680023BB603A4B38
:1027A0001B6B394A43F002031363374B1B6B03F077
:1027B0000203BB60BB6800237B60334B1B6B324A58
:1027C00043F008031363304B1B6B03F008037B607B
:1027D0007B6800233B602C4B1B6B2B4A43F00103AF
:1027E0001363294B1B6B03F001033B603B68002222
:1027F0004FF48071254804F045F900224FF4F04170
:10280000234804F03FF900224021224804F03AF91D
:102810004FF480737B610123BB610023FB610023C4
:102820003B6207F114031946184803F077FF4FF491
:10283000F0437B610123BB610023FB6100233B620A
:1028400007F114031946124803F068FF40237B6127
:102850000123BB610023FB6100233B6207F11403EA
:1028600019460C4803F05AFF01237B610023BB612A
:102870000023FB6107F114031946044803F04EFFDF
:1028800000BF2837BD4680BD00380240001002401E
:10289000000C02400008024080B500AF0022402139
:1028A0000A4804F0EFF80220FEF7B6FC01224021AE
:1028B000064804F0E7F80A20FEF7AEFC00224021AB
:1028C000024804F0DFF800BF80BD00BF00080240EE
:1028D00080B487B000AFF860B9607A60FA68BB680E
:1028E000934238BF13467A68934238BF13467B61E0
:1028F000FA68BB68934228BF13467A68934228BFA0
:1029000013463B61FA68BB681A447B681A447B69CA
:10291000D21A3B69D31A18461C37BD465DF8047BB2
:102920007047000080B584B000AF78607B681B689A
:102930004A4A934240F08D807B681B7F022B40F017
:102940008880474B1B78DBB2002B17D17B681B6854
:1029500000225A627B681B681A6A7B681B6822F037
:10296000A0021A627B681B681A6A7B681B6842F0C7
:1029700020021A623A4B01221A706BE00421786837
:1029800006F068FC03469AB2364B1A807B681B68D7
:102990001A6A7B681B6822F0A0021A627B681A68B8
:1029A0007B681B68126A1A622D4B00221A702D4B2D
:1029B0001B889BB207EE903AF8EEE77A9FED2A7AF1
:1029C00067EE877AB6EE007A77EE877AFCEEE77AE2
:1029D00017EE903ABB60254B1B781946244ABB681A
:1029E00042F82130214B1B78591C224BA3FB0123B9
:1029F0005A0813465B001344CA1AD2B21B4B1A7012
:102A00001D4B1B78022B05D81B4B1B780133DAB208
:102A1000194B1A70BB68FB60174B1B78032B09D14D
:102A2000134B1B68124A5168114A92681846FFF707
:102A30004FFFF860FB6807EE903AF8EE677A0F4BAD
:102A4000C3ED007A0E4AFB6813600E4B01221A7028
:102A500000E000BF1037BD4680BD00BF000401404C
:102A6000200A0020220A0020287E8C3C80070020BB
:102A700074070020ABAAAAAA810700206C070020D7
:102A8000680700207007002080B584B000AF786030
:102A90007B681B68344A934262D1344B1B78BB730A
:102AA000BB7B0D2B02D0BB7B0A2B42D1304B1B785A
:102AB0001A46304B002199542D4B1B78002B34D0F3
:102AC0000023FB7322E0FB7B2A4AD35C402B0CD90A
:102AD000FB7B284AD35C5A2B07D8FB7B254AD25C68
:102AE000FB7B2032D1B2234AD154FB7B214AD35CF9
:102AF0003B2B04D0FB7B1F4AD35C2C2B03D1FB7BED
:102B00001C4A2021D154FB7B0133FB73184B1B78EB
:102B1000FA7B9A42D7D31748FEF7DCFC164B1B789A
:102B2000DBB2002B01D1FEF71DFE114B00221A7003
:102B300011E00F4B1B78FF2B0AD00D4B1B785A1C52
:102B4000D1B20B4A117019460A4ABB7B535402E0BA
:102B5000074B00221A7001220449084807F03CF98B
:102B600000BF1037BD4680BD004800408D070020E3
:102B700090080020900700208E0700200407002006
:102B800080B485B000AF78607B681B68354A93429B
:102B900061D1354B1B889BB21A4640F6E44302FBD9
:102BA00003F303F2FF72314BA3FB0213D21A520854
:102BB0001344DB0AFB812C4B5B889BB21A4640F620
:102BC000E44302FB03F303F2FF72284BA3FB02135F
:102BD000D21A52081344DB0ABB81254B1B889BB2D7
:102BE0009A00FB891344234AA2FB03239B089AB251
:102BF0001F4B1A80204B1B889BB29A00BB89134441
:102C00001C4AA2FB03239B089AB21B4B1A80164B4B
:102C10001B889AB2194B1A80134B5B889AB2184BD7
:102C20001A80134B1B889BB240F21F3293428CBF19
:102C300001230023DBB21A46124B1A700E4B1B887D
:102C40009BB240F21F3293428CBF01230023DBB2C0
:102C50001A460D4B1A7000BF1437BD465DF8047B51
:102C6000704700BF00200140E4090020010110006E
:102C7000F6090020CDCCCCCCF8090020E8090020D2
:102C8000EA090020F4090020F509002080B584B08D
:102C900000AF78604123FB734FF48071044803F068
:102CA0000AFF4FF47A7008F030F800BFF4E700BF75
:102CB0000010024080B58EB002AF786001216948F3
:102CC00003F0C8FE034687F82F30674B1B78012BB3
:102CD00011D197F82F30002B0DD1644B1B780133A5
:102CE000002B03F00103B8BF5B42DAB25F4B1A70EE
:102CF000322008F00AF85C4A97F82F3013705B4BCB
:102D00001B78002B4DD15A4BD3E9002310461946AE
:102D1000FDF732FF034607F10C00564A202109F067
:102D2000B1FF07F10C031A460021002002F080FADF
:102D3000514BD3E9002310461946FDF71DFF03460A
:102D400007F10C004D4A202109F09CFF07F10C030C
:102D50001A461021002002F06BFA494B1A68494BC1
:102D60001B6807F10C0000931346474A202109F025
:102D700089FF07F10C031A462021002002F058FABF
:102D8000FEF764FB034607F10C00404A202109F0DE
:102D900079FF07F10C031A463021002002F048FAAF
:102DA0005AE0324B1B78012B56D1394B1B6807F187
:102DB0000C00384A202109F065FF07F10C031A4680
:102DC0000021002002F034FA334B1B889BB21A46D4
:102DD000324B1B78DBB207F10C0000931346304AEC
:102DE000202109F04FFF07F10C031A4610210020A3
:102DF00002F01EFA2B4B1B889BB21A462A4B1B78FB
:102E0000DBB207F10C0000931346284A202109F099
:102E100039FF07F10C031A462021002002F008FABE
:102E2000234BD3ED007ABDEEE77A224BD3ED007A47
:102E3000FDEEE77A17EE903A07F10C00009317EEDB
:102E4000103A1D4A202109F01DFF07F10C031A4614
:102E50003021002002F0ECF902F072F8642007F053
:102E600054FF2BE7001002400D0000202C0A002028
:102E7000B009002084FA0008A809002090FA000890
:102E800084070020880700209CFA0008A8FA0008A0
:102E900068070020B4FA0008F6090020F4090020B1
:102EA000C8FA0008F8090020F5090020D8FA00083F
:102EB000240A0020280A0020E8FA00080000000088
:102EC000F0B5CFB004AF07F59473A3F58E73186017
:102ED0000421A34805F02AFBFEF756FA0821A14871
:102EE00005F024FB0C219F4805F020FB00219E48A3
:102EF00005F01CFB04219C4805F018FBFEF7CCF9FB
:102F00009A4B1B78DBB2002B4BD0984B00221A70E7
:102F1000974B00221A70974B00221A60964B4FF085
:102F200000021A60954B00221A60954B4FF0000288
:102F30001A60944B00221A70934B00221A70FEF70D
:102F4000ABF9924B00221A60FEF71EFA904B00225A
:102F50001A60FEF77BF88F4B00221A708E4B00220E
:102F60001A608E4B00221A708D4A07F1300392E8E6
:102F700003001860043319808A4B1B78DBB2002BE6
:102F800001D001F09AB9874B01221A7007F1300382
:102F900005221946844806F0E9FE052007F0B5FE33
:102FA000AEE77C4B1B78DBB2013B062B01F26A815A
:102FB00001A252F823F000BFD52F0008D52F00083A
:102FC0006B420008D93B0008D93B0008073F0008C6
:102FD000073F0008754BC7F8DC30744BC7F8D83092
:102FE0004FF00003C7F8D430714B1B685B6AA7F839
:102FF000D230704B1B685B6AA7F8D0306E4B1B88D1
:103000009BB2B7F8D220D31A9BB21BB2C7F8CC3010
:103010006A4B1B889BB2B7F8D020D31A9BB21BB265
:103020005B42C7F8C830D7F8CC20D7F8C830134473
:10303000DA0F13445B10C7F8C430002387F8273138
:10304000534B1B68002B0ADB514B1B68D7F8C4207D
:103050009A42ACBF0123002387F8273109E04C4B8B
:103060001B68D7F8C4209A42D4BF0123002387F8F5
:103070002731002387F82631464B1B78DBB2012B22
:1030800040F024813A4B1B78DBB2002B00F01E810C
:10309000374B1B78DBB2013B062B00F2128101A2F9
:1030A00052F823F0E9310008733200088732000833
:1030B000C33200089B320008AF320008C13000085C
:1030C0003F4B1B889BB21A463E4B1B689A422CBF53
:1030D0000123002387F826313A4B1B68142B00F29A
:1030E000F280394B1B78DBB2002B00F0EC802D4BCB
:1030F0001B78DBB2002B15D1324B1B6807F1100097
:10310000324A202109F0BEFDC7F8C000254B01223C
:103110001A70D7F8C0309AB207F110031946224846
:1031200006F024FE2A4BD3E900232A49C1E90023F3
:10313000FEF72AF90E4B04221A70154B264A1A6024
:10314000264B00221A60264B00221A60002387F8C3
:103150002631244B01221A700E4B02221A70B2E063
:10316000BC060020E4050020740600208C07002027
:10317000FA090020FC090020000A0020040A0020AF
:10318000080A00200D0A00200E0A002094080020E2
:10319000A00900208E070020DC090020E0090020A3
:1031A0001CFB00089A09002004070020A69B443B52
:1031B000540500209C0500209C0900209E09002049
:1031C0000A000020680700200C000020FCFA00081C
:1031D000A8090020B809002001000080300A002062
:1031E000340A00200C0A00208E4B1B681A2B94BF57
:1031F0000123002387F826318A4B1B68142B64D8DF
:10320000894B1B78DBB2002B15D1864B1B6807F16D
:103210001000864A202109F035FDC7F8BC00824B1A
:1032200001221A70D7F8BC309AB207F11003194680
:103230007F4806F09BFD7F4BD3E900237E49C1E91F
:103240000023FEF7A1F87D4B04221A707C4B7D4AC7
:103250001A607D4B00221A607C4B00221A6000230A
:1032600087F826317A4B01221A707A4B02221A70A3
:103270002BE0794B1B78DBB2002B0CBF0123002322
:1032800087F8263122E0754B1B78DBB2002B0CBF90
:103290000123002387F8263118E06F4B1B78DBB23F
:1032A000012B0CBF0123002387F826310EE06B4B66
:1032B0001B78DBB2012B0CBF0123002387F82631DA
:1032C00004E000BF02E000BF00E000BF614B1B78DC
:1032D000DBB2022B0CD1594B1B78DBB2042B07D18C
:1032E000504B1B68132B8CBF0123002387F826311A
:1032F00097F82631002B3BD0504B1B78DBB2012BCB
:1033000004D04E4B1B78DBB2072B31D1544B1B68DA
:1033100007EE903AB8EEE77ADFED526AC7EE267A0A
:10332000514BC3ED007A404B1B78DBB2002B1FD111
:103330004D4B1B681846FDF717F902460B463949F5
:10334000096807F110000291CDE90023474A2021C6
:1033500009F098FCC7F8B800334B01221A70D7F86F
:10336000B8309AB207F110031946314806F0FEFC56
:1033700097F82631002B38D0304B1B78DBB2022B6C
:1033800004D02E4B1B78DBB2032B2ED1384B1B689D
:1033900007EE903AB8EEE77ADFED326AC7EE267AAA
:1033A000344BC3ED007A204B1B78DBB2002B1CD1D1
:1033B000304B1B681846FDF7D7F802460B4607F15D
:1033C0001000CDE900232C4A202109F05BFCC7F84E
:1033D000B400154B01221A70D7F8B4309AB207F135
:1033E00010031946124806F0C1FC97F82731002B4C
:1033F00003D197F82631002B42D0FDF74DFF0F4B3C
:1034000000221A70104B00221A60104B00221A6022
:10341000104B00221A7002F031F80346174A13606D
:1034200000F046BF680700209A090020FCFA000857
:1034300004070020A8090020B8090020FA0900208C
:10344000A009002001000080300A0020340A00207A
:103450000C0A00208E070020F5090020F409002046
:10346000FC090020896D9342000A002008FB000837
:10347000040A0020080A002014FB00089408002019
:1034800001F0FCFFC7F8B000C34B1B68002B0BD149
:10349000C14AD7F8B0301360C04AB7F8D2301380B1
:1034A000BF4AB7F8D0301380BE4B1B78DBB2002B7D
:1034B00014D0BA4AB7F8D2301380B94AB7F8D0302E
:1034C0001380B54AD7F8B0301360B64B00221A709B
:1034D000B54B00221A60B54B00221A60AF4B1B8817
:1034E000B7F8D220D31A9BB2A7F8AE30AC4B1B88EA
:1034F000B7F8D020D31A9BB2A7F8AC30B7F8AC30ED
:103500005B429BB2A7F8AC30A94B1B78DBB2012B16
:103510001AD1A84B1B78DBB2012B04D0A54B1B782A
:10352000DBB2072B10D1B7F9AE20B7F9AC3013449A
:10353000DA0F13445B10C7F8A8309F4B1A68D7F80E
:10354000A83013449C4A1360994B1B78DBB2012BC3
:103550001AD1984B1B78DBB2022B04D0954B1B7809
:10356000DBB2032B10D1B7F9AE20B7F9AC3013445E
:10357000DA0F13445B10C7F8A430904B1A68D7F8E1
:10358000A43013448D4A1360834B1B68D7F8B020D6
:10359000D31AC7F82031D7F82031002B02D10123EC
:1035A000C7F82031B7F9AE304FF47A7203FB02F25C
:1035B000D7F8203192FBF3F3C7F8A030B7F9AC305D
:1035C0004FF47A7203FB02F2D7F8203192FBF3F347
:1035D000C7F89C30D7F8203107EE903AB8EE677AFA
:1035E000DFED776AC7EE267AC7ED267AD7ED267A21
:1035F0009FED747A37EE877AD7ED266AC6EE877A22
:10360000C7ED257AD7F8A03007EE903AB8EEE77A02
:103610006D4BD3ED007A37EE677AD7ED257A27EE3A
:10362000277A694BD3ED007A77EE277A664BC3EDA4
:10363000007AD7F89C3007EE903AB8EEE77A634B01
:10364000D3ED007A37EE677AD7ED257A27EE277A21
:103650005E4BD3ED007A77EE277A5C4BC3ED007AB0
:103660004E4AB7F8D23013804D4AB7F8D0301380A5
:10367000494AD7F8B0301360534B93ED007A534B5F
:10368000D3ED007A77EE677AFDEEE77A17EE903A9F
:10369000C7F890304E4BD3E900014E4BD3E90023DD
:1036A000FCF702FE02460B464B49C1E900234B4B97
:1036B000C7F88C30D7F88C00FCF756FF464BD3E99F
:1036C0000023FCF7A9FF02460B4610461946FDF7FA
:1036D00053FA0346C7F88830D7F89020D7F88830D7
:1036E0001344C7F88430304B1A68D7F88430134439
:1036F0002D4A13602D4B1B68D7F88420D31AC7F8C6
:1037000080302A4AD7F884301360D7F8843007EE27
:10371000903AB8EEE77AD7ED377A27EE277A224B40
:103720001B6807EE903AF8EEE76AD7ED367A66EE58
:10373000A77A37EE277AD7F8803007EE903AF8EE7E
:10374000E76AD7ED357A66EEA77A77EE277AC7ED86
:103750001F7AD7ED1F7AFDEEE77A17EE903ABB6736
:1037600040F6D8637B674FF07E533B674FF07E5344
:10377000FB667B6FBB66BA6EBB6FD31A07EE903ADF
:10378000B8EEE77AD7ED1C7A67EE277AFDEEE77A96
:1037900017EE903A7B6623E0380A00203C0A0020AE
:1037A0003E0A00200C0A0020300A0020340A0020C3
:1037B0008E070020FA090020FC090020040A0020DE
:1037C00000007A44CDCC4C3D400A0020440A002041
:1037D000B8090020B0090020C00900200000704195
:1037E000BA6EBB6F134407EE903AB8EEE77AD7EDA6
:1037F0001B7A67EE277AFDEEE77A17EE903A3B6682
:10380000844BD3E90001844BD3E90023FCF74CFD42
:1038100002460B468149C1E900234FF07E53FB6508
:10382000F86DFCF7A1FE7D4BD3E90023FCF7F4FE15
:1038300002460B4610461946FDF79EF90346BB6546
:103840009A23C7F81C31764B1B78DBB2012B1FD1B2
:10385000724BD3E900014FF000024FF00003FDF777
:103860006BF90346002B03D09A23C7F81C3133E0D1
:103870006A4BD3E900014FF000024FF00003FDF75F
:103880003DF90346002B27D09A23C7F81C3123E0CB
:10389000634B1B78DBB2022B1ED1604BD3E90001D6
:1038A0004FF000024FF00003FDF728F90346002B0C
:1038B00003D09A23C7F81C310EE0584BD3E900011E
:1038C0004FF000024FF00003FDF736F90346002BDE
:1038D00002D09A23C7F81C31514B1B78DBB2012B65
:1038E00006D1D7F81C21BB6DD31AC7F81C3105E0EF
:1038F000D7F81C21BB6D1344C7F81C31D7F81C3115
:103900006A2B02DC6B23C7F81C31D7F81C31FA2B69
:1039100002DDFA23C7F81C31424B1B78DBB2002BC7
:1039200000F00381404B1B78DBB2012B4ED13D4BA5
:103930001B78DBB2012B01D1F52200E064223B4B66
:103940001B689A63374B1B78DBB2012B0CD141F219
:103950008833FB6341F66413BB63F86BFDF7BCFC73
:10396000B86BFDF7CFFC0BE041F288337B6441F686
:1039700064133B64786CFDF7C5FC386CFDF7ACFC58
:10398000284B1B78DBB2012B0AD1234BD3E9000172
:10399000204BD3E90023FDF7BBF80346002B11D1E0
:1039A000204B1B78DBB2022B40F0C4801A4BD3E9CA
:1039B0000001184BD3E90023FDF7B4F80346002BB0
:1039C00000F0B880184B02221A70B3E0164B1B7837
:1039D000DBB2022B40F0A380124B1B78DBB2012B31
:1039E00001D1642200E0F522104B1B689A630D4B55
:1039F0001B78DBB2012B1BD141F28833FB6441F60B
:103A00006413BB64F86CFDF77DFCB86CFDF764FCD7
:103A10001AE000BFA8090020B0090020C00900205A
:103A20008E0700200D0A00200E0A0020BC06002090
:103A300041F288337B6541F664133B65786DFDF791
:103A40004BFC386DFDF75EFC974BD3E9002397499B
:103A5000C1E90023964B1B78DBB2012B13D1934BAA
:103A6000D3E900014FF00002924BFCF71DFC024627
:103A70000B4610461946904BD3E90023FDF748F852
:103A80000346002B18D18A4B1B78DBB2022B51D195
:103A9000864BD3E900014FF00002864BFCF706FC91
:103AA00002460B4610461946834BD3E90023FDF727
:103AB00039F80346002B3DD07D4B00221A707F4B16
:103AC00000221A70784BD3E900237849C1E900231A
:103AD0007B4B1B68D7F81C219A63754B1B78DBB2B4
:103AE000012B01D1FDF7A4FC714B1B78DBB2022B3B
:103AF00001D1FDF78FFCFDF7CFFB724B00221A704E
:103B0000714B00221A60714B00221A60704B002228
:103B10001A7001F0B3FC03466E4A13600AE0684B6A
:103B20001B68D7F81C219A6304E0654B1B68D7F823
:103B30001C219A63664B1B78DBB2012B25D15C4BB1
:103B40001B78DBB2002B20D1634B1B687A6EDA63E3
:103B5000614B1B6841F61F421A64386EFCF7F2FC99
:103B60004DA3D3E90023FCF757FD02460B465B4902
:103B70000E6810461946FDF727F803467363574B46
:103B80001B6841F61F429A638FE3514B1B78DBB2EF
:103B9000022B40F08A83504B1B6841F61F42DA63C8
:103BA0004D4B1B687A6E1A644C4B1B6841F61F42E2
:103BB0005A63386EFCF7C6FC39A3D3E90023FCF73F
:103BC0002BFD02460B4645490E6810461946FCF788
:103BD000FBFF0346B36368E3414B1B68002B09D02E
:103BE00001F04CFC02463E4B1B689A4202D2FDF7A4
:103BF00053FB5DE33A4B00221A602C4BD3E90001E2
:103C00002D4BD3E90023FCF74FFB02460B46C7E9D7
:103C10003C234FF000024FF00003D7E93C01FCF7D2
:103C200081FF0346002B02D0D7E93C4505E0D7F8D9
:103C3000F040D7F8F43083F00045C7E93A45244B0B
:103C40001B78DBB2042B0AD11B4BD3E90001174BC5
:103C5000D3E90023FCF75CFF0346002B10D11C4B7B
:103C60001B78DBB2052B40F08780134BD3E90001B2
:103C70000E4BD3E90023FCF755FF0346002B7BD006
:103C8000FDF70AFB124B1B78DBB2042B2AD1FDF7A0
:103C9000CFFB29E0AFF30080666666666666EE3F9E
:103CA0007B14AE47E17AF03F100A0020A8090020FB
:103CB0000D0A002000001440B00900200E0A002068
:103CC000BC060020FA090020300A0020340A002037
:103CD0008E07002094080020E405002074060020D0
:103CE000DC090020FDF796FB4FF4967007F00DF805
:103CF000B94B1B78DBB2002B35D0B84B1B78DBB24D
:103D0000042B30D1B64B1B685B6A9AB2B54B1A8054
:103D1000B54B1B685B6A9AB2B44B1A80AE4B1B78EA
:103D2000DBB207EE903AF8EEE77A9FEDB17A67EEF4
:103D3000877AB6EE007A77EE877AFDEEE77A17EEAD
:103D4000902AAC4B1A60AC4BD3E90023AB49C1E9D4
:103D50000023AB4B00221A70A04B01221A709E4B1D
:103D600000221A70A4E29D4B00221A7001F086FB1B
:103D70000346A44A13609BE2984B1B78DBB2042BEA
:103D800060D14FF49653C7F818314FF000029E4BA4
:103D9000D7E93A01FCF7B2FE0346002B03D04FF4FB
:103DA0009653C7F818314FF00002984BD7E93A0103
:103DB000FCF7A4FE0346002B03D04FF49653C7F83C
:103DC0001831D7F8183141F27072934203DD41F295
:103DD0007073C7F81831D7F81801FCF7B3FB7CA350
:103DE000D3E90023FCF718FC02460B46104619469F
:103DF000FCF7C2FE03461846FDF76EFAD7F81831F5
:103E000007EE903AF8EEE77A9FED817A67EE877ACF
:103E1000FDEEE77A17EE903AC7F8E030D7F8E00009
:103E2000FCF790FB4FF033327A4BFCF7F5FB024680
:103E30000B4610461946FCF79FFE03461846FDF751
:103E400061FA35E24FF49653C7F814314FF000028F
:103E50006D4BD7E93A01FCF751FE0346002B03D026
:103E60004FF49653C7F814314FF00002674BD7E96F
:103E70003A01FCF743FE0346002B03D04FF4965360
:103E8000C7F81431D7F8143141F27072934203DD50
:103E900041F27073C7F81431D7F81401FCF752FBE4
:103EA0004BA3D3E90023FCF7B7FB02460B461046B1
:103EB0001946FCF761FE03461846FDF723FAD7F8CA
:103EC000143107EE903AF8EEE77A9FED517A67EEFB
:103ED000877AFDEEE77A17EE903AC7F8E430D7F824
:103EE000E400FCF72FFB4FF033324A4BFCF794FB16
:103EF00002460B4610461946FCF73EFE034618469E
:103F0000FDF7EAF9D4E1444B1B68002B09D001F01E
:103F1000B5FA0246404B1B689A4202D2FDF7BCF943
:103F2000C6E13D4B00221A603C4BD3E90001324B05
:103F3000D3E90023FCF7B8F902460B46C7E9422350
:103F40004FF000024FF00003D7E94201FCF7EAFD11
:103F50000346002B04D097ED427B87ED007B07E002
:103F6000D7F808313B60D7F80C3183F000437B6011
:103F700097ED007B87ED407B184B1B78DBB2062B5F
:103F80000AD11D4BD3E90001244BD3E90023FCF7F0
:103F9000C9FD0346002B11D1104B1B78DBB2072B58
:103FA00040F0C680144BD3E900011C4BD3E9002339
:103FB000FCF7AEFD0346002B00F0BA80FDF76CF96C
:103FC000064B1B78DBB2062B2AD1FDF731FA29E02C
:103FD0001F85EB51B81EF13FE00900208E0700203D
:103FE000540500209C0900209C0500209E0900200B
:103FF000896D9342A0090020B0090020B809002073
:10400000FA09002094080020008046400000344057
:10401000CDCC8C3F3333F33FDC090020A8090020CE
:10402000FDF7F8F94FF4967006F06FFEA84B1B7879
:10403000DBB2002B36D0A74B1B78DBB2062B31D17D
:10404000A54B1B685B6A9AB2A44B1A80A44B1B68F1
:104050005B6A9AB2A34B1A809D4B1B78DBB207EECA
:10406000903AF8EEE77A9FEDA07A67EE877AB6EE9F
:10407000007A77EE877AFDEEE77A17EE903A5B42A8
:104080009A4A13609A4BD3E900239A49C1E9002365
:10409000994B00221A708F4B02221A708C4B00220F
:1040A0001A7044E08A4B1B78DBB2002B36D0894B68
:1040B0001B78DBB2072B31D1874B1B685B6A9AB246
:1040C000864B1A80864B1B685B6A9AB2854B1A80B6
:1040D0007F4B1B78DBB207EE903AF8EEE77A9FED64
:1040E000827A67EE877AB6EE007A77EE877AFDEE0F
:1040F000E77A17EE903A5B427C4A13607C4BD3E937
:1041000000237C49C1E900237B4B00221A70714BCC
:1041100002221A706E4B00221A7008E06D4B0022CA
:104120001A7001F0ABF90346744A1360C0E0BFE0B7
:104130004FF49653C7F810314FF00002704BD7E997
:104140004001FCF7DBFC0346002B03D04FF49653F1
:10415000C7F810314FF000026A4BD7E94001FCF775
:10416000CDFC0346002B03D04FF49653C7F8103113
:10417000D7F8103141F27072934203DD41F270734F
:10418000C7F81031534B1B78DBB2062B36D1D7F86A
:104190001001FCF7D7F94CA3D3E90023FCF73CFA54
:1041A00002460B4610461946FCF7E6FC0346184645
:1041B000FDF7BEF8D7F8103107EE903AF8EEE77A3F
:1041C0009FED517A67EE877AFDEEE77A17EE903A27
:1041D000C7F8F830D7F8F800FCF7B4F94FF03332ED
:1041E0004A4BFCF719FA02460B4610461946FCF7F3
:1041F000C3FC03461846FDF7B1F859E0D7F81001A3
:10420000FCF7A0F930A3D3E90023FCF705FA024636
:104210000B4610461946FCF7AFFC03461846FDF75F
:104220009DF8D7F8103107EE903AF8EEE77A9FED57
:10423000367A67EE877AFDEEE77A17EE903AC7F89E
:10424000FC30D7F8FC00FCF77DF94FF033322F4BF0
:10425000FCF7E2F902460B4610461946FCF78CFCC7
:1042600003461846FDF764F822E0FDF715F8194BF0
:1042700000221A7001F002F9034603F5AF731F4ADA
:10428000136015E0FCF770FE0346002B09D101F026
:10429000F5F80246194B1B689A4208D3FDF762FAFB
:1042A00005E0164B00221A6001E000BF00E000BFED
:1042B000052006F02AFDFEF723BE07F59677BD46DA
:1042C000F0BD00BFAFF300801F85EB51B81EF13F7A
:1042D000E00900208E070020540500209C090020E2
:1042E0009C0500209E090020896D9342A0090020B2
:1042F000B0090020B8090020FA0900209408002025
:104300000080464000003440CDCC8C3F3333F33F37
:1043100080B58AB000AF78603C21214804F0F6FBFC
:104320003C21204804F0F2FB1D4B1B685B6AFB84B8
:104330001C4B1B685B6ABB8401F0A0F8386201F07B
:104340009DF802463B6AD31AB3F57A7F24D3144B07
:104350001B685B6AFB83FA8BFB8CD31A9BB21BB284
:104360001A46114B1A60FB8BFB840E4B1B685B6A71
:10437000BB83BA8BBB8CD31A9BB21BB21A460B4BB6
:104380001A600A4B1B685B42084A1360BB8BBB84F4
:104390003B6A03F57A733B62012006F0B6FCCEE778
:1043A000540500209C050020840700208807002079
:1043B0002DE9B0438CB000AF7860FCF7DBFE002342
:1043C000BB8100237B830023FB624FF000024FF090
:1043D0000003C7E908230023FB6122E0142006F054
:1043E00094FC07F10C0319463720FCF775FE3B7B64
:1043F0001BB21B021AB27B7B1BB213437B83B7F940
:104400001A301846FCF79EF802460B46D7E9080119
:10441000FBF74CFF02460B46C7E90823FB69013353
:10442000FB61FB69632BD9DD4FF00002364BD7E906
:104430000801FCF71BFA02460B46C7E9082301F006
:104440001DF8F862142006F060FC07F10C03194611
:104450003720FCF741FE3B7B1BB21B021AB27B7B71
:104460001BB213437B83B7F91A301846FCF76AF87E
:10447000D7E90823FBF718FF02460B46C7E90423D8
:104480003C697B6923F000454FF000021F4B20463A
:104490002946FCF751FB0346002B2DD0B7F91A3003
:1044A0001846FCF74FF8D7E90823FBF7FDFE024654
:1044B0000B469046994600F0E1FF0246FB6AD31A8C
:1044C0001846FCF72FF80EA3D3E90023FCF7CEF92A
:1044D00002460B4640464946FCF79EF802460B460C
:1044E000104619460A4BD3E90023FBF7DFFE0246CC
:1044F0000B460749C1E9002300F0C0FFF862A1E7BD
:10450000000000000004D04000005940000020409E
:10451000B009002080B582B000AF786004210C485B
:1045200004F026F9FEF7B8F90A4B00221A7002E0EF
:10453000012006F0EAFB074B1B78DBB283F0010396
:10454000DBB2002BF4D13C2006F0DFFBEAE700BF32
:104550002C0600207007002080B588B000AF78607E
:104560004A4B7B614FF00003FB614FF00003BB61DE
:10457000474B1B887B82464B5B883B827B8A07EEDE
:10458000903AF8EE677A9FED437A27EE877ADFED6F
:10459000426AC7EE267AC7ED037A3B8A07EE903A65
:1045A000F8EE677A9FED3B7A27EE877ADFED3A6A7D
:1045B000C7EE267AC7ED027AB7EE007AD7ED057A14
:1045C00037EE677AD7ED077A27EE277AD7ED056AB7
:1045D000D7ED037A66EEA77A77EE277AC7ED077AEA
:1045E000B7EE007AD7ED057A37EE677AD7ED067A1F
:1045F00027EE277AD7ED056AD7ED027A66EEA77A1D
:1046000077EE277AC7ED067A244A7B8A1380244AFC
:104610003B8A1380234AFB691360234ABB691360FA
:1046200097ED070AFDF7D0FBF0EE407A1F4BC3ED84
:10463000007A97ED060AFDF7C7FBF0EE407A1C4BB7
:10464000C3ED007AD7ED077A9FED1A7AF4EEC77AB8
:10465000F1EE10FAACBF01230023DBB21A46164B71
:104660001A70D7ED067A9FED137AF4EEC77AF1EE61
:1046700010FAACBF01230023DBB21A460F4B1A70AD
:104680000A2006F042FB00BF72E700BFCDCC4C3ED3
:10469000E40900203333534000F07F45E80900204F
:1046A000EA090020EC090020F0090020240A00207B
:1046B000280A0020CDCC4C3FF4090020F509002049
:1046C00080B400AF72B600BF00BFFDE780B582B016
:1046D00000AF00237B60124B5B6C114A43F48043B4
:1046E00053640F4B5B6C03F480437B607B68002357
:1046F0003B600B4B1B6C0A4A43F080531364084B1E
:104700001B6C03F080533B603B6800220F216FF06D
:10471000010001F0CAFB00BF0837BD4680BD00BFE5
:104720000038024080B58AB000AF786007F114030A
:1047300000221A605A609A60DA601A617B681B680E
:104740002F4A934257D100233B612E4B5B6C2D4A7D
:1047500043F4807353642B4B5B6C03F480733B61B5
:104760003B690023FB60274B1B6B264A43F0040385
:104770001363244B1B6B03F00403FB60FB680323F0
:104780007B610323BB610023FB6107F1140319461E
:104790001D4801F0C3FF1D4B1D4A1A601B4B002230
:1047A0005A601A4B00229A60184B0022DA60174BAD
:1047B0004FF480621A61154B4FF400625A61134B3B
:1047C0004FF400529A61114B4FF48072DA610F4B33
:1047D00000221A620D4B00225A620C4801F09CFB29
:1047E0000346002B01D0FFF76BFF7B68074A9A63F3
:1047F000064A7B68936300BF2837BD4680BD00BF73
:10480000002001400038024000080240A0040020BF
:104810001064024080B58AB000AF786007F11403DD
:1048200000221A605A609A60DA601A617B681B681D
:10483000194A93422CD100233B61184B1B6B174A3A
:1048400043F002031363154B1B6B03F002033B6140
:104850003B694FF440637B611223BB610023FB6122
:1048600003233B6204237B6207F1140319460C48BF
:1048700001F054FF0023FB60084B1B6C074A43F414
:1048800080031364054B1B6C03F48003FB60FB681F
:1048900000BF2837BD4680BD0058004000380240A8
:1048A0000004024080B58CB000AF786007F11C03B3
:1048B00000221A605A609A60DA601A617B681B688D
:1048C000B3F1804F4BD10023BB613F4B1B6C3E4A81
:1048D00043F0010313643C4B1B6C03F00103BB6109
:1048E000BB6900237B61384B1B6B374A43F00103E4
:1048F0001363354B1B6B03F001037B617B69002362
:104900003B61314B1B6B304A43F0020313632E4B68
:104910001B6B03F002033B613B694FF40043FB61F7
:1049200002233B6200237B620023BB620123FB6204
:1049300007F11C031946254801F0F0FE0823FB612E
:1049400002233B6200237B620023BB620123FB62E4
:1049500007F11C0319461E4801F0E0FE30E07B68B9
:104960001B681C4A93422BD10023FB60164B1B6C27
:10497000154A43F002031364134B1B6C03F002034C
:10498000FB60FB680023BB600F4B1B6B0E4A43F0C0
:10499000020313630C4B1B6B03F00203BB60BB6889
:1049A0003023FB6102233B6200237B620023BB6256
:1049B0000223FB6207F11C031946054801F0AEFE15
:1049C00000BF3037BD4680BD0038024000000240C5
:1049D000000402400004004080B58CB000AF786055
:1049E00007F11C0300221A605A609A60DA601A61AB
:1049F0007B681B683B4A93420ED10023BB613A4B54
:104A00001B6C394A43F004031364374B1B6C03F0EF
:104A10000403BB61BB6960E07B681B68334A934257
:104A200034D100237B61304B5B6C2F4A43F002038F
:104A300053642D4B5B6C03F002037B617B690023A5
:104A40003B61294B1B6B284A43F004031363264B3D
:104A50001B6B03F004033B613B698023FB61022372
:104A60003B6200237B620023BB620323FB6207F1EE
:104A70001C0319461E4801F051FE002205212E207C
:104A800001F013FA2E2001F02CFA26E07B681B6857
:104A9000184A93420ED10023FB60134B5B6C124A01
:104AA00043F480335364104B5B6C03F48033FB603E
:104AB000FB6812E07B681B680F4A93420DD100230C
:104AC000BB60094B1B6C084A43F040031364064B60
:104AD0001B6C03F04003BB60BB6800BF3037BD46B2
:104AE00080BD00BF000800400038024000040140C3
:104AF00000080240004001400018004080B58AB024
:104B000000AF786007F1140300221A605A609A60BF
:104B1000DA601A617B681B68374A93421FD1002311
:104B20003B61364B1B6B354A43F002031363334B37
:104B30001B6B03F002033B613B694FF440737B61E5
:104B40000223BB610023FB6100233B6202237B62E3
:104B500007F1140319462A4801F0E0FD47E07B689D
:104B60001B68284A93421ED10023FB60234B1B6B1A
:104B7000224A43F010031363204B1B6B03F0100316
:104B8000FB60FB6860237B610223BB610023FB6148
:104B900000233B6203237B6207F1140319461A4882
:104BA00001F0BCFD23E07B681B68184A93421ED1CC
:104BB0000023BB60114B1B6B104A43F002031363CD
:104BC0000E4B1B6B03F00203BB60BB684FF400434A
:104BD0007B610223BB610023FB6100233B6209234D
:104BE0007B6207F114031946054801F097FD00BFE9
:104BF0002837BD4680BD00BF000800400038024095
:104C00000004024000400140001002400018004033
:104C100080B58AB000AF786007F1140300221A60F3
:104C20005A609A60DA601A617B681B681D4A934279
:104C300034D100233B611C4B1B6C1B4A43F4802383
:104C40001364194B1B6C03F480233B613B69002305
:104C5000FB60154B1B6B144A43F008031363124BA4
:104C60001B6B03F00803FB60FB684FF440737B6130
:104C70000223BB610023FB6103233B6207237B62AA
:104C800007F114031946094801F048FD00220521E7
:104C9000272001F00AF9272001F023F900BF283767
:104CA000BD4680BD0048004000380240000C024074
:104CB00080B400AF00BFFDE780B400AF00BFFDE7E8
:104CC00080B400AF00BFFDE780B400AF00BFFDE7D8
:104CD00080B400AF00BFFDE780B400AF00BFBD46A9
:104CE0005DF8047B704780B500AF00F0B3FB06F0C1
:104CF0009BFD0346012B01D006F0DEFF00BF80BD07
:104D000080B500AF024805F08DF800BF80BD00BF40
:104D10000407002080B500AF024803F085FF00BF04
:104D200080BD00BF2C06002080B500AF024801F016
:104D30008BFA00BF80BD00BFA004002080B400AF8C
:104D400001231846BD465DF8047B704780B582B0EC
:104D500000AF7860396008F0C7F8034616221A6081
:104D60004FF0FF3318460837BD4680BD80B582B08E
:104D700000AF78604FF0FF317868FFF7E7FF00BFC2
:104D8000FDE780B586B000AFF860B9607A600023B7
:104D90007B610AE0AFF300800146BB685A1CBA6031
:104DA000CAB21A707B6901337B617A697B689A4267
:104DB000F0DB7B6818461837BD4680BD80B586B0ED
:104DC00000AFF860B9607A6000237B6109E0BB68DE
:104DD0005A1CBA601B781846AFF300807B69013318
:104DE0007B617A697B689A42F1DB7B6818461837E9
:104DF000BD4680BD80B483B000AF78604FF0FF3314
:104E000018460C37BD465DF8047B704780B483B00C
:104E100000AF786039603B684FF400525A6000235D
:104E200018460C37BD465DF8047B704780B483B0EC
:104E300000AF7860012318460C37BD465DF8047B4F
:104E4000704780B485B000AFF860B9607A60002325
:104E500018461437BD465DF8047B704780B586B0B0
:104E600000AF7860144A154BD31A7B617B693B61B4
:104E7000134B1B68002B02D1114B124A1A60104BC6
:104E80001A687B6813443A699A4207D208F02CF8F2
:104E900003460C221A604FF0FF3309E0084B1B68F1
:104EA000FB60074B1A687B681344054A1360FB6874
:104EB00018461837BD4680BD0000022000040000DF
:104EC000480A0020F04C002080B400AF064BD3F815
:104ED0008830054A43F47003C2F8883000BFBD46ED
:104EE0005DF8047B704700BF00ED00E0DFF834D0D0
:104EF000FFF7EAFF0C480D490D4A002302E0D458A1
:104F0000C4500433C4188C42F9D30A4A0A4C002313
:104F100001E013600432A242FBD307F0EBFFFCF781
:104F20009BFF70470000022000000020E8010020E5
:104F300090090108E8010020F04C0020FEE7000085
:104F400080B582B000AF0023FB7126E0FB79503BB7
:104F5000DBB20021184600F02BF80021002000F001
:104F600027F80021102000F023F80023BB710DE08A
:104F7000BA79FB790D49D2000A4413441B78012108
:104F8000184600F015F8BB790133BB7197F906306C
:104F9000002BEDDAFB790133FB71FB79072BD5D9B7
:104FA00000BF00BF0837BD4680BD00BF4C0A0020CF
:104FB00080B584B000AF03460A46FB711346BB714F
:104FC000BB79002B06D001224FF400611E4801F08E
:104FD00059FD05E000224FF400611B4801F052FD2D
:104FE0000023FB7322E000224FF48041164801F0B9
:104FF00049FD97F90730002B06DA01224FF40051E2
:10500000114801F03FFD05E000224FF400510E4829
:1050100001F038FD01224FF480410B4801F032FDD0
:10502000FB795B00FB71FB7B0133FB73FB7B072B85
:10503000D9D901224FF40061034801F023FD00BFDC
:105040001037BD4680BD00BF000C024080B582B065
:1050500000AF0023FB7114E00023BB710AE0BA79B2
:10506000FB790C49D2000A44134400221A70BB7920
:105070000133BB7197F90630002BF0DAFB7901336D
:10508000FB71FB79072BE7D9FFF75AFF00BF083701
:10509000BD4680BD4C0A002080B485B000AF0346F9
:1050A000FB710B46BB7113467B710023FB7397F9B1
:1050B0000730002B41DBBB793F2B3ED8BB79DB08A7
:1050C000DBB2C3F10703BB73BB7903F007037B7348
:1050D0007B7BC3F10703012202FA03F3FB737B79A5
:1050E000002B12D0FA79BB7B1749D2000A44134433
:1050F0001878FA79BB7BF97B0143C8B21249D20018
:105100000A44134402461A7018E0FA79BB7B0E4930
:10511000D2000A4413441B785AB297F90F30DB438C
:105120005BB2134059B2FA79BB7BC8B20649D200D0
:105130000A44134402461A7000E000BF1437BD460B
:105140005DF8047B704700BF4C0A002090B585B025
:1051500000AF0446084611461A462346FB71034633
:10516000BB710B467B7113463B71BB793B737B79FB
:10517000203B7B710023BB734DE03B790C2B0BD1A3
:105180007A79B97B284813465B0013449B0003449B
:105190000B441B78FB7307E07A79BB7B2349120130
:1051A0000A4413441B78FB7300237B732DE097F9AB
:1051B0000F30002B07DA97F82020B979FB791846D1
:1051C000FFF76AFF0CE097F82030002B0CBF01239B
:1051D0000023DBB21A46B979FB791846FFF75CFF6A
:1051E000FB7B5B00FB73BB790133BB71BA793B7B03
:1051F000D21A3B799A4205D13B7BBB71FB790133D3
:10520000FB7105E07B7B01337B737B7B072BCED966
:10521000BB7B0133BB73BA7B3B799A42ADD300BFF2
:1052200000BF1437BD4690BD48FB0008BCFF000816
:1052300080B584B002AF03463A60FB710B46BB7188
:105240001FE0FB797A2B04D90023FB71BB79103363
:10525000BB71BB793A2B05D90023FB71FB79BB717C
:10526000FFF7F4FE3B681A78B979F87901230093C7
:105270000C23FFF76BFFFB790833FB713B680133AD
:105280003B603B681B78002BDBD100BF00BF0837B9
:10529000BD4680BD80B500AF02F022FC424B1B6FC3
:1052A000414A23F0010313673F4B1B6F3E4A23F033
:1052B0000403136702F028FC00224FF480513B489E
:1052C00001F0E0FB642000F0E5F801224FF480518A
:1052D000364801F0D7FB0021AE20FFF769FE002120
:1052E000D520FFF765FE00215020FFF761FE002169
:1052F000A820FFF75DFE00213F20FFF759FE0021A7
:10530000D320FFF755FE00210020FFF751FE0021BA
:105310004020FFF74DFE00218D20FFF749FE0021C0
:105320001420FFF745FE00212020FFF741FE002159
:105330000220FFF73DFE0021A120FFF739FE0021EA
:10534000C020FFF735FE0021DA20FFF731FE0021F3
:105350001220FFF72DFE00218120FFF729FE0021FA
:10536000EF20FFF725FE0021D920FFF721FE0021C5
:10537000F120FFF71DFE0021DB20FFF719FE0021C1
:105380003020FFF715FE0021A420FFF711FE0021B9
:10539000A620FFF70DFE0021AF20FFF709FEFFF763
:1053A00055FE00BF80BD00BF00380240000C024027
:1053B00080B500AF0E4B1B680D4A43F400731360B9
:1053C0000B4B1B680A4A43F480631360084B1B684D
:1053D000074A43F480731360032000F05BFD0F2045
:1053E00000F008F8FFF772F90023184680BD00BFEF
:1053F000003C024080B582B000AF7860124B1A6862
:10540000124B1B7819464FF47A73B3FBF1F3B2FBDE
:10541000F3F3184600F073FD0346002B01D001237F
:105420000EE07B680F2B0AD8002279684FF0FF301E
:1054300000F03BFD064A7B681360002300E0012377
:1054400018460837BD4680BD100000201800002017
:105450001400002080B400AF064B1B781A46064BA0
:105460001B681344044A136000BFBD465DF8047B0B
:10547000704700BF180000204C0E002080B400AF21
:10548000034B1B681846BD465DF8047B704700BFA0
:105490004C0E002080B584B000AF7860FFF7EEFFBF
:1054A000B8607B68FB60FB68B3F1FF3F05D00A4B37
:1054B0001B781A46FB681344FB6000BFFFF7DEFF52
:1054C0000246BB68D31AFA689A42F7D800BF00BFF9
:1054D0001037BD4680BD00BF1800002080B584B0E5
:1054E00000AF78600023FB737B68002B01D10123A0
:1054F00033E07B681B6C002B09D17868FFF712F949
:105500007B6800225A647B68002283F83C207B6819
:105510001B6C03F01003002B18D17B681B6C23F469
:10552000885323F0020343F002027B681A64786810
:1055300000F062FA7B6800225A647B681B6C23F0DF
:10554000030343F001027B681A6401E00123FB734B
:105550007B68002283F83C20FB7B18461037BD4651
:1055600080BD000080B588B000AFF860B9607A6097
:1055700000237B610023FB77FB6893F83C30012B11
:1055800001D10223EBE0FB68012283F83C20FB6899
:105590001B689B6803F00103012B18D0FB681B6894
:1055A0009A68FB681B6842F001029A606E4B1B68A8
:1055B0006E4AA2FB03239A0C13465B0013447B61E3
:1055C00002E07B69013B7B617B69002BF9D1FB68C1
:1055D0001B689B6803F48073B3F5807F07D1FB6879
:1055E0001B689A68FB681B6822F480729A60FB68EB
:1055F0001B689B6803F00103012B40F0A380FB684C
:105600001B6C23F4E06323F0010343F48072FB6816
:105610001A64FB681B685B6803F48063002B07D087
:10562000FB681B6C23F4405343F48052FB681A64FC
:10563000FB681B6C03F48053B3F5805F06D1FB68F5
:105640005B6C23F00602FB685A6402E0FB680022F0
:105650005A64FB68002283F83C20454BBB61FB6821
:105660009B6B444ADA63FB689B6B434A1A64FB6892
:105670009B6B424ADA64FB681B686FF022021A6077
:10568000FB681B685A68FB681B6842F080625A60BE
:10569000FB681B689A68FB681B6842F480729A601A
:1056A000FB68986BFB681B684C331946BA687B68CB
:1056B00000F0E0FC0346FB77BB695B6803F01F0367
:1056C000002B2AD1FB681B682D4A934215D0FB683A
:1056D0001B682C4A934205D1254B5B6803F01F03DE
:1056E000002B0AD0FB681B68274A934236D1204B17
:1056F0005B6803F01003002B30D1FB681B689B68CC
:1057000003F04053002B29D1FB681B689A68FB68A3
:105710001B6842F080429A6020E0FB681B68184AD0
:1057200093421BD1FB681B689B6803F04053002B1E
:1057300014D1FB681B689A68FB681B6842F08042C2
:105740009A600BE0FB681B6C43F01002FB681A6464
:10575000FB685B6C43F00102FB685A64FB7F1846F0
:105760002037BD4680BD00BF1000002083DE1B43F4
:1057700000230140F15B0008AB5C0008C75C000837
:1057800000200140002101400022014080B483B08C
:1057900000AF786000BF0C37BD465DF8047B7047F2
:1057A00080B483B000AF786000BF0C37BD465DF8B1
:1057B000047B704780B485B000AF78603960002307
:1057C000BB607B6893F83C30012B01D1022305E1DB
:1057D0007B68012283F83C203B681B68092B25D994
:1057E0007B681B68D9683B681B689BB21A461346E6
:1057F0005B0013441E3B072202FA03F3DA437B6883
:105800001B680A40DA607B681B68D9683B689A6845
:105810003B681B689BB2184603465B0003441E3B73
:105820009A407B681B680A43DA6022E07B681B6849
:1058300019693B681B689BB21A4613465B00134408
:10584000072202FA03F3DA437B681B680A401A61F5
:105850007B681B6819693B689A683B681B689BB248
:10586000184603465B0003449A407B681B680A4362
:105870001A613B685B68062B24D87B681B68596BF0
:105880003B685A6813469B001344053B1F2202FAEB
:1058900003F3DA437B681B680A405A637B681B6822
:1058A000596B3B681B689BB218463B685A681346A5
:1058B0009B001344053B00FA03F27B681B680A4314
:1058C0005A634CE03B685B680C2B24D87B681B68F0
:1058D000196B3B685A6813469B001344233B1F22F5
:1058E00002FA03F3DA437B681B680A401A637B6899
:1058F0001B68196B3B681B689BB218463B685A686B
:1059000013469B001344233B00FA03F27B681B6899
:105910000A431A6323E07B681B68D96A3B685A68AC
:1059200013469B001344413B1F2202FA03F3DA4360
:105930007B681B680A40DA627B681B68D96A3B682F
:105940001B689BB218463B685A6813469B00134479
:10595000413B00FA03F27B681B680A43DA62224B80
:10596000FB607B681B68214A934209D13B681B6836
:10597000122B05D1FB685B6843F48002FB685A6018
:105980007B681B68194A934223D13B681B68102B24
:1059900003D03B681B68112B1BD1FB685B6843F489
:1059A0000002FB685A603B681B68102B11D1104B3A
:1059B0001B68104AA2FB03239A0C13469B00134456
:1059C0005B00BB6002E0BB68013BBB60BB68002BB7
:1059D000F9D17B68002283F83C2000231846143755
:1059E000BD465DF8047B7047002301400020014064
:1059F0001000002083DE1B4380B485B000AF7860C8
:105A0000794BFB60FB685B6823F44032FB685A60AB
:105A1000FB685A687B685B681A43FB685A607B685E
:105A20001B685A687B681B6822F480725A607B6826
:105A30001B6859687B681B691A027B681B680A43EC
:105A40005A607B681B685A687B681B6822F040724A
:105A50005A607B681B6859687B689A687B681B681A
:105A60000A435A607B681B689A687B681B6822F44B
:105A700000629A607B681B6899687B68DA687B685B
:105A80001B680A439A607B689B6A584A934222D0FB
:105A90007B681B689A687B681B6822F070629A605A
:105AA0007B681B6899687B689A6A7B681B680A43F5
:105AB0009A607B681B689A687B681B6822F040527A
:105AC0009A607B681B6899687B68DA6A7B681B68E8
:105AD0000A439A600FE07B681B689A687B681B68C2
