:020000040800F2
:10000000000002204D530008E54E0008ED4E0008A8
:10001000F54E0008FD4E0008054F000800000000E6
:1000200000000000000000000000000021C00008E7
:100030000D4F00080000000071C200081B4F0008AF
:100040009D5300089D5300089D5300089D530008D0
:100050009D5300089D5300089D5300089D530008C0
:100060009D5300089D5300089D5300089D530008B0
:100070009D5300089D5300089D5300089D530008A0
:100080009D5300089D5300089D5300089D53000890
:100090009D5300089D5300089D5300089D53000880
:1000A0009D5300089D5300089D5300089D53000870
:1000B0009D5300089D5300089D5300089D53000860
:1000C0009D5300089D5300089D5300089D53000850
:1000D0009D5300089D5300089D530008354F0008AC
:1000E0009D5300089D5300089D5300089D53000830
:1000F0009D5300089D530008494F00089D53000878
:100100009D5300089D5300089D5300089D5300080F
:100110009D5300089D5300089D5300089D530008FF
:100120005D4F00089D5300089D5300089D53000833
:100130009D5300089D5300089D5300089D530008DF
:100140009D5300089D5300089D5300089D530008CF
:100150009D5300089D5300089D5300089D530008BF
:100160009D5300089D5300089D5300089D530008AF
:100170009D5300089D5300089D5300080000000097
:080180009D5300089D53000887
:1001900010B5054C237833B9044B13B10448AFF3C1
:1001A00000800123237010BDE80100200000000042
:1001B00014FF000808B5034B1BB103490348AFF314
:1001C000008008BD00000000EC01002014FF0008C2
:1001D00010F8012B11F8013B012A28BF9A42F7D0F1
:1001E000D01A70470000000000000000000000006E
:1001F00001F0FF01102A2BDB10F0070F08D010F8D8
:10020000013B013A8B422DD010F0070F42B3F6D1DB
:10021000F0B441EA012141EA014122F007047FF0F4
:1002200000070023F0E80256083C85EA010586EA4B
:10023000010685FA47F5A3FA87F586FA47F6A5FA87
:1002400087F68EB9EED1F0BC01F0FF0102F0070293
:1002500032B110F8013B013A83EA010313B1F8D13E
:100260000020704701387047002D06BF354603381F
:10027000073815F0010F07D1013015F4807F02BF58
:10028000013015F4C03F0130F0BC0138704700BFA9
:10029000034613F8012B002AFBD1181A01387047C6
:1002A00081F0004102E000BF83F0004330B54FEA27
:1002B00041044FEA430594EA050F08BF90EA020F94
:1002C0001FBF54EA000C55EA020C7FEA645C7FEA27
:1002D000655C00F0E2804FEA5454D4EB5555B8BF4A
:1002E0006D420CDD2C4480EA020281EA030382EABB
:1002F000000083EA010180EA020281EA0303362D4D
:1003000088BF30BD11F0004F4FEA01314FF4801C1F
:100310004CEA113102D0404261EB410113F0004F31
:100320004FEA03334CEA133302D0524263EB4303E8
:1003300094EA050F00F0A780A4F10104D5F1200E86
:100340000DDB02FA0EFC22FA05F2801841F10001E1
:1003500003FA0EF2801843FA05F359410EE0A5F1B5
:1003600020050EF1200E012A03FA0EFC28BF4CF0E6
:10037000020C43FA05F3C01851EBE37101F000459C
:1003800007D54FF0000EDCF1000C7EEB00006EEBA9
:100390000101B1F5801F1BD3B1F5001F0CD3490833
:1003A0005FEA30004FEA3C0C04F101044FEA44528A
:1003B00012F5800F80F09A80BCF1004F08BF5FEA11
:1003C000500C50F1000041EB045141EA050130BDF1
:1003D0005FEA4C0C404141EB0101013C28BFB1F503
:1003E000801FE9D291F0000F04BF01460020B1FA4E
:1003F00081F308BF2033A3F10B03B3F120020CDA21
:100400000C3208DD02F1140CC2F10C0201FA0CF0FE
:1004100021FA02F10CE002F11402D8BFC2F1200C63
:1004200001FA02F120FA0CFCDCBF41EA0C01904019
:10043000E41AA2BF01EB0451294330BD6FEA040462
:100440001F3C1CDA0C340EDC04F11404C4F120024D
:1004500020FA04F001FA02F340EA030021FA04F35F
:1004600045EA030130BDC4F10C04C4F1200220FAB6
:1004700002F001FA04F340EA0300294630BD21FAF4
:1004800004F0294630BD94F0000F83F4801306BFBA
:1004900081F480110134013D4EE77FEA645C18BFAE
:1004A0007FEA655C29D094EA050F08BF90EA020F45
:1004B00005D054EA000C04BF1946104630BD91EA3D
:1004C000030F1EBF0021002030BD5FEA545C05D140
:1004D0004000494128BF41F0004130BD14F580047F
:1004E0003CBF01F5801130BD01F0004545F0FE41F3
:1004F00041F470014FF0000030BD7FEA645C1ABF28
:10050000194610467FEA655C1CBF0B46024650EA5E
:10051000013406BF52EA033591EA030F41F400218A
:1005200030BD00BF90F0000F04BF0021704730B510
:100530004FF4806404F132044FF000054FF00001E5
:1005400050E700BF90F0000F04BF0021704730B5A6
:100550004FF4806404F1320410F0004548BF40427B
:100560004FF000013EE700BF42004FEAE2014FEAD0
:1005700031014FEA02701FBF12F07F4393F07F4FAB
:1005800081F06051704732F07F4208BF704793F0AE
:100590007F4F04BF41F40021704730B54FF46074C1
:1005A00001F0004521F000411CE700BF50EA0102C4
:1005B00008BF704730B54FF000050AE050EA01026D
:1005C00008BF704730B511F0004502D5404261EBDD
:1005D00041014FF4806404F132045FEA915C3FF41E
:1005E000D8AE4FF003025FEADC0C18BF03325FEABB
:1005F000DC0C18BF033202EBDC02C2F1200300FA6C
:1006000003FC20FA02F001FA03FE40EA0E0021FA90
:1006100002F11444BDE600BF70B54FF0FF0C4CF47E
:10062000E06C1CEA11541DBF1CEA135594EA0C0F30
:1006300095EA0C0F00F0DEF82C4481EA030621EA6B
:100640004C5123EA4C5350EA013518BF52EA0335A6
:1006500041F4801143F4801338D0A0FB02CE4FF058
:100660000005E1FB02E506F00042E0FB03E54FF088
:100670000006E1FB03569CF0000F18BF4EF0010E80
:10068000A4F1FF04B6F5007F64F5407404D25FEA7C
:100690004E0E6D4146EB060642EAC62141EA55512F
:1006A0004FEAC52040EA5E504FEACE2EB4F1FD0C71
:1006B00088BFBCF5E06F1ED8BEF1004F08BF5FEAEF
:1006C000500E50F1000041EB045170BD06F00046A1
:1006D00046EA010140EA020081EA0301B4EB5C044E
:1006E000C2BFD4EB0C0541EA045170BD41F4801146
:1006F0004FF0000E013C00F3AB8014F1360FDEBF6B
:10070000002001F0004170BDC4F10004203C35DA46
:100710000C341BDC04F11404C4F1200500FA05F3C9
:1007200020FA04F001FA05F240EA020001F000426A
:1007300021F0004110EBD37021FA04F642EB0601E0
:100740005EEA430E08BF20EAD37070BDC4F10C040A
:10075000C4F1200500FA04F320FA05F001FA04F2CE
:1007600040EA020001F0004110EBD37041F10001BA
:100770005EEA430E08BF20EAD37070BDC4F12005C5
:1007800000FA05F24EEA020E20FA04F301FA05F22D
:1007900043EA020321FA04F001F0004121FA04F2D5
:1007A00020EA020000EBD3705EEA430E08BF20EAA5
:1007B000D37070BD94F0000F0FD101F000464000DF
:1007C00041EB010111F4801F08BF013CF7D041EA61
:1007D000060195F0000F18BF704703F00046520065
:1007E00043EB030313F4801F08BF013DF7D043EA36
:1007F0000603704794EA0C0F0CEA135518BF95EAEC
:100800000C0F0CD050EA410618BF52EA4306D1D172
:1008100081EA030101F000414FF0000070BD50EA91
:10082000410606BF1046194652EA430619D094EA1B
:100830000C0F02D150EA013613D195EA0C0F05D105
:1008400052EA03361CBF104619460AD181EA030159
:1008500001F0004141F0FE4141F470014FF0000011
:1008600070BD41F0FE4141F4780170BD70B54FF0AC
:10087000FF0C4CF4E06C1CEA11541DBF1CEA13552C
:1008800094EA0C0F95EA0C0F00F0A7F8A4EB05040E
:1008900081EA030E52EA03354FEA013100F0888005
:1008A0004FEA03334FF0805545EA131343EA1263CE
:1008B0004FEA022245EA111545EA10654FEA002683
:1008C0000EF000419D4208BF964244F1FD0404F53C
:1008D000407402D25B084FEA3202B61A65EB030598
:1008E0005B084FEA32024FF480104FF4002CB6EB55
:1008F000020E75EB030E22BFB61A754640EA0C00D5
:100900005B084FEA3202B6EB020E75EB030E22BF14
:10091000B61A754640EA5C005B084FEA3202B6EB55
:10092000020E75EB030E22BFB61A754640EA9C0014
:100930005B084FEA3202B6EB020E75EB030E22BFE4
:10094000B61A754640EADC0055EA060E18D04FEAA2
:10095000051545EA16754FEA06164FEAC30343EA42
:1009600052734FEAC2025FEA1C1CC0D111F4801F0F
:100970000BD141EA00014FF000004FF0004CB6E708
:1009800011F4801F04BF01430020B4F1FD0C88BFA7
:10099000BCF5E06F3FF6AFAEB5EB030C04BFB6EBB2
:1009A000020C5FEA500C50F1000041EB045170BDA5
:1009B0000EF0004E4EEA113114EB5C04C2BFD4EBD2
:1009C0000C0541EA045170BD41F480114FF0000E56
:1009D000013C90E645EA060E8DE60CEA135594EAD2
:1009E0000C0F08BF95EA0C0F3FF43BAF94EA0C0FD5
:1009F0000AD150EA01347FF434AF95EA0C0F7FF44A
:100A000025AF104619462CE795EA0C0F06D152EA9D
:100A100003353FF4FDAE1046194622E750EA410681
:100A200018BF52EA43067FF4C5AE50EA41047FF492
:100A30000DAF52EA43057FF4EBAE12E74FF0FF3CF7
:100A400006E000BF4FF0010C02E000BF4FF0010CC8
:100A50004DF804CD4FEA410C7FEA6C5C4FEA430C41
:100A600018BF7FEA6C5C1BD001B050EA410C0CBF90
:100A700052EA430C91EA030F02BF90EA020F0020F2
:100A8000704710F1000F91EA030F58BF994208BF59
:100A900090422CBFD8176FEAE37040F00100704716
:100AA0004FEA410C7FEA6C5C02D150EA013C07D16D
:100AB0004FEA430C7FEA6C5CD6D152EA033CD3D0B8
:100AC0005DF8040B704700BF8446104662468C46B2
:100AD0001946634600E000BF01B5FFF7B7FF0028E5
:100AE00048BF10F1000F01BD4DF808EDFFF7F4FF0E
:100AF0000CBF012000205DF808FB00BF4DF808ED99
:100B0000FFF7EAFF34BF012000205DF808FB00BFBB
:100B10004DF808EDFFF7E0FF94BF012000205DF8DD
:100B200008FB00BF4DF808EDFFF7CEFF94BF012092
:100B300000205DF808FB00BF4DF808EDFFF7C4FF8B
:100B400034BF012000205DF808FB00BF4FEA410CD4
:100B50007FEA6C5C02D150EA013C0AD14FEA430CB7
:100B60007FEA6C5C02D152EA033C02D14FF00000F4
:100B700070474FF0010070474FEA410212F5001232
:100B800015D211D56FF47873B3EB625212D94FEAD4
:100B9000C12343F0004343EA505311F0004F23FABE
:100BA00002F018BF404270474FF00000704750EA13
:100BB000013005D111F0004008BF6FF000407047D0
:100BC0004FF00000704700BF53B94AB9002908BF71
:100BD00000281CBF4FF0FF314FF0FF3000F088B904
:100BE000ADF1080C6DE904CE00F006F8DDF804E084
:100BF000DDE9022304B070472DE9F047089D0F4658
:100C000004468C46002B48D18A42164661D9B2FA76
:100C100082F34BB1C3F1200201FA03FC20FA02F285
:100C20009E4042EA0C0C9C404FEA164EB7B2BCFB09
:100C3000FEF1220C0EFB11CC42EA0C4201FB07F044
:100C4000904209D9B21801F1FF3C80F0EE80904249
:100C500040F2EB8002393244121AA4B2B2FBFEF029
:100C60000EFB102244EA024400FB07F7A74209D911
:100C7000341900F1FF3280F0DA80A74240F2D780C9
:100C80003444023840EA0140E41B00211DB1DC403D
:100C90000023C5E90043BDE8F0878B4206D90DB1BA
:100CA000C5E9000100210846BDE8F087B3FA83F1E9
:100CB000002948D1BB4202D3824200F20781841A44
:100CC00067EB030201209446002DE4D0C5E9004CF7
:100CD000E1E7002A00F09280B2FA82F3002B40F0A4
:100CE000A8808A1A4FEA164E1FFA86FC0121200CB2
:100CF000B2FBFEF70EFB172240EA02420CFB07F0A4
:100D0000904207D9B21807F1FF3802D2904200F2A0
:100D1000E2804746121AA4B2B2FBFEF00EFB10228C
:100D200044EA02440CFB00FCA44507D9341900F145
:100D3000FF3202D2A44500F2CB801046A4EB0C0493
:100D400040EA0740A2E7C1F120068B4022FA06FCE8
:100D50004CEA030C07FA01F420FA06F3F7404FEAD5
:100D60001C49234300FA01F81FFA8CFEB7FBF9F087
:100D70001C0C09FB107744EA074400FB0EF7A7425E
:100D800002FA01F20AD91CEB040400F1FF3A80F0E8
:100D90009B80A74240F2988002386444E41B9FB2D3
:100DA000B4FBF9F309FB134447EA044403FB0EFECA
:100DB000A64509D91CEB040403F1FF3780F08280BB
:100DC000A6457FD9023B644443EA0040A4EB0E04ED
:100DD000A0FB02E7BC427346B94663D360D05DB165
:100DE000B8EB030264EB090404FA06F622FA01F3F5
:100DF0001E43CC40C5E9006400214CE76208480866
:100E000042EAC1710B0C43EA00438AB242EA034250
:100E1000B3FBF6F1E407B4463746B6461F23B0FBF2
:100E2000F6F0D21B41EA004161E7614614E7104643
:100E300028E7C3F1200120FA01F29E4027FA01F1D0
:100E40009F403A434FEA164E1FFA86FCB1FBFEF76D
:100E50000EFB1710110C41EA004107FB0CF8884506
:100E600004FA03F43AD9711807F1FF3001D288452A
:100E70001FD8A1EB0801B1FBFEF808FB0CF70EFB35
:100E8000181192B242EA0142BA422FD2B21808F1C6
:100E9000FF31C6D2BA42C4D2A8F102013244C0E73F
:100EA000F0459CD2BEEB020367EB0C070138B94654
:100EB00095E7A6EB08084144B81EB1FBFEF808FB15
:100EC0000CF7DCE73B467FE7504667E70846FBE662
:100ED0003444023832E7023F32441BE7A1EB0801F9
:100EE0003846B1FBFEF808FB0CF7C8E7414698E727
:100EF000704700BF80B485B000AFF860B9607A6019
:100F0000FB68074A1A60BB68064A1A607B68802241
:100F10001A6000BF1437BD465DF8047B704700BF00
:100F2000040200205802002080B400AF074B1B7859
:100F3000DAB2074B1B78DBB29A420CBF01230023C5
:100F4000DBB21846BD465DF8047B7047E00900201F
:100F5000E109002080B485B000AF3B4683E8030080
:100F6000124B1B78DBB20133DBB203F01F03FB73C0
:100F70000F4B1B78DBB2FA7B9A4201D100230EE0C3
:100F80000A4B1B78DBB20B4ADB0013443A4692E86B
:100F9000030083E80300054AFB7B13700123184616
:100FA0001437BD465DF8047B704700BFE10900209F
:100FB000E0090020E008002090B583B000AF786021
:100FC000FFF7B2FF0346002B01D0002316E00D4BC4
:100FD0001B78DBB279680C4A0C46DB00134493E8BB
:100FE000030084E80300074B1B78DBB20133DBB25C
:100FF00003F01F03DAB2034B1A70012318460C37B3
:10100000BD4690BDE0090020E008002080B400AF9C
:1010100072B600BF0021064B0A461A70054B0A46FD
:101020001A7062B600BF00BFBD465DF8047B704712
:10103000E1090020E009002080B483B000AF7860AF
:101040007B681B68054A934202D1054B00221A7047
:1010500000BF0C37BD465DF8047B70470048004078
:10106000E209002080B500AF084B1B78DBB2002BF3
:101070000AD1064B01221A7003220549054809F0DE
:1010800030F9FFF7C3FF00E000BF80BDE209002098
:10109000F40101084C07002080B584B002AF03467C
:1010A0003960FB710E4AFB7913700E4B1B785B00A5
:1010B00099B20A2300930123094A0B4806F08AF8E3
:1010C000084B1B785B0099B21423009302233A6803
:1010D000054806F07DF900BF0837BD4680BD00BF5A
:1010E000100A0020080000200005002080B584B010
:1010F00002AF03460A46FB711346BB710A4AFB79ED
:101100001370094ABB795370084B1B785B0099B286
:10111000142300930223044A054806F05BF800BF3D
:101120000837BD4680BD00BF100A0020080000201F
:101130000005002080B500AF00210620FFF7D6FF94
:101140000A200AF0F6F880210320FFF7CFFF0A20DB
:101150000AF0EFF807210720FFF7C8FF0A200AF07E
:10116000E8F801210620FFF7C1FF0A200AF0E1F8A4
:1011700020217F20FFF7BAFF0A200AF0DAF82F219A
:101180000120FFF7B3FF0A200AF0D3F81121002055
:10119000FFF7ACFF0A200AF0CCF800217F20FFF710
:1011A000A5FF0A200AF0C5F800210720FFF79EFFDF
:1011B0000A200AF0BEF800210520FFF797FF0A2059
:1011C0000AF0B7F801210620FFF790FF0A200AF085
:1011D000B0F800BF80BD000080B485B000AF78607B
:1011E0000E4B5B68FB600E4B1B680E4AA2FB032391
:1011F0009A0C7B6802FB03F3BB6000E000BF074B67
:101200005A68FB68D31ABA689A42F7D800BF00BF81
:101210001437BD465DF8047B704700BF001000E046
:101220001000002083DE1B4380B400AF084BDB6856
:10123000074A43F08073D360064B1B68054A43F0AE
:101240000103136000BFBD465DF8047B704700BF1B
:10125000F0ED00E0001000E080B400AF0C4B1B6824
:1012600041F61F42DA630A4B1B6841F61F421A64BB
:10127000084B1B6841F61F425A63064B1B6841F638
:101280001F429A6300BFBD465DF8047B704700BFF4
:10129000E40500207406002080B483B000AF7860BD
:1012A000074B1B687A68DA63054B1B6841F61F42DF
:1012B0001A6400BF0C37BD465DF8047B704700BF61
:1012C000E405002080B483B000AF7860074B1B6852
:1012D0007A685A63054B1B6841F61F429A6300BF48
:1012E0000C37BD465DF8047B704700BF74060020D4
:1012F00080B483B000AF7860074B1B6841F61F4293
:10130000DA63054B1B687A681A6400BF0C37BD4668
:101310005DF8047B704700BFE405002080B483B013
:1013200000AF7860074B1B6841F61F425A63054BBC
:101330001B687A689A6300BF0C37BD465DF8047B72
:10134000704700BF7406002080B400AF044B1B68D8
:101350009A229A6300BFBD465DF8047B704700BFC8
:10136000BC06002080B400AF044B1B68FA229A63CD
:1013700000BFBD465DF8047B704700BFBC0600207F
:1013800080B400AF044B1B68FA229A6300BFBD46CD
:101390005DF8047B704700BFBC06002080B400AF3E
:1013A000044B1B686B229A6300BFBD465DF8047B4B
:1013B000704700BFBC06002080B400AF044B1B6820
:1013C0006B229A6300BFBD465DF8047B704700BF87
:1013D000BC06002080B400AF044B1B689A229A63BD
:1013E00000BFBD465DF8047B704700BFBC0600200F
:1013F00080B400AF044B1B689A229A6300BFBD46BD
:101400005DF8047B704700BFBC06002080B400AFCD
:10141000164B1B78DBB2072B22D801A252F823F01F
:101420004114000845140008491400084D14000830
:101430005114000855140008591400085D140008E0
:101440000B4B0EE00B4B0CE00B4B0AE00B4B08E098
:101450000B4B06E00B4B04E00B4B02E00B4B00E0A8
:101460000B4B1846BD465DF8047B7047D60700203D
:1014700030FF000838FF000840FF000848FF000860
:1014800050FF00085CFF000868FF000870FF0008BC
:1014900078FF000880B58CB000AF78607B68FB6295
:1014A00009E0FB6A1B782C2B02D1FB6A20221A7000
:1014B000FB6A0133FB62FB6A1B78002BF1D18F4979
:1014C00078680BF085FFB86205E18D49B86AFEF7D0
:1014D0007FFE0346002B03D18A4B01221A70FEE0E7
:1014E00000233B750023BB618749B86AFEF770FE95
:1014F0000346002B04D10B233B750023BB61D1E0D5
:101500008249B86AFEF764FE0346002B04D10C231F
:101510003B750023BB61C5E07D49B86AFEF758FE04
:101520000346002B04D10D233B750023BB61B9E0BA
:101530007849B86AFEF74CFE0346002B04D10E230F
:101540003B750023BB61ADE07349B86AFEF740FE0E
:101550000346002B04D107233B750023BB61A1E0A8
:101560006E49B86AFEF734FE0346002B04D1082307
:101570003B750023BB6195E0BB6A1B78662B0ED1DF
:10158000BB6A01331B78782B09D110233B75BB6AEA
:10159000023318460BF0DEF80346BB6182E0BB6AFB
:1015A0001B78662B0ED1BB6A01331B78752B09D1D2
:1015B0000F233B75BB6A023318460BF0CBF803468A
:1015C000BB616FE0BB6A1B78662B0ED1BB6A01332F
:1015D0001B78722B09D103233B75BB6A0233184673
:1015E0000BF0B8F80346BB615CE0BB6A1B78662B66
:1015F0000ED1BB6A01331B786C2B09D104233B75D8
:10160000BB6A023318460BF0A5F80346BB6149E0FC
:10161000BB6A1B78722B0ED1BB6A01331B78722B0D
:1016200009D105233B75BB6A023318460BF092F8CB
:101630000346BB6136E0BB6A1B78722B0ED1BB6AD6
:1016400001331B786C2B09D106233B75BB6A02332F
:1016500018460BF07FF80346BB6123E0BB6A1B789A
:10166000662B09D101233B75BB6A013318460BF089
:1016700071F80346BB6115E0BB6A1B78722B09D178
:1016800002233B75BB6A013318460BF063F803462F
:10169000BB6107E0BB6A1B78732B03D109233B7541
:1016A0000023BB613B7D002B10D007F1140393E8AE
:1016B0000300FFF74FFC78627B6A002B06D1184AC3
:1016C00007F1080307CA83E8070008E00B49002078
:1016D0000BF07EFEB862BB6A002B7FF4F6AE0A23E5
:1016E0003B7700233B6207F11C0393E80300FFF7FD
:1016F00031FC00BF3037BD4680BD00BF7CFF000815
:1017000080FF0008D407002084FF000888FF00083D
:101710008CFF000894FF00089CFF0008A0FF000851
:10172000A4FF000880B483B000AF0346FB71FB79CF
:10173000013B0F2B40D801A252F823F07D1700087F
:101740008117000885170008891700088D17000801
:101750009117000895170008991700089D170008B1
:10176000B9170008A1170008A5170008A917000855
:10177000AD170008B1170008B5170008124B1CE0A0
:10178000124B1AE0124B18E0124B16E0124B14E009
:10179000124B12E0124B10E0124B0EE0124B0CE019
:1017A000124B0AE0124B08E0124B06E0124B04E029
:1017B000124B02E0124B00E0002318460C37BD46E6
:1017C0005DF8047B704700BFB0FF0008B8FF000859
:1017D000C0FF0008C8FF000868FF000870FF00088D
:1017E000D0FF0008D8FF000848FF0008E0FF00080D
:1017F000E4FF0008E8FF0008F0FF0008F8FF000819
:10180000FCFF000880B588B000AF3B1D1846FFF70D
:10181000D3FB0346002B01D1002314E33B79184688
:10182000FFF780FFF861FB69002B04D0BB68194605
:10183000F86903F09DFC3B79013B0F2B00F201831B
:1018400001A252F823F000BF511A0008E71A00085D
:10185000971B0008E31B00082F1C00087B1C0008D6
:10186000E11C0008B91D0008C71C0008D91C0008AD
:10187000A9190008FD1900080119000855190008E8
:101880008918000889180008994B1B685B6A9AB28E
:10189000984B1A80984B1B685B6A9AB2974B1A80D8
:1018A000974BD3E900239749C1E90023FFF74CFD8B
:1018B000954B00221A60954B4FF000021A60944B32
:1018C0006FF000421A60BB68002B02DDBB689BB260
:1018D00000E01A238F4A13803B790F2B0CBF0123A2
:1018E0000023DBB21A468C4B1A708C4B07221A70FD
:1018F0008B4B01221A708B4B01221A700123A2E23A
:101900007B4B1B685B6A9AB27A4B1A807A4B1B68D6
:101910005B6A9AB2794B1A80794BD3E900237949F3
:10192000C1E90023FFF710FD774B00221A60774BC7
:101930004FF000021A60764B6FF000421A60774B4E
:1019400005221A70764B01221A70764B01221A700A
:10195000012378E2664B1B685B6A9AB2654B1A807A
:10196000654B1B685B6A9AB2644B1A80644BD3E97F
:1019700000236449C1E90023FFF7E6FC624B002223
:101980001A60624B4FF000021A60614B6FF0004228
:101990001A60624B06221A70614B01221A70614B69
:1019A00001221A7001234EE2514B1B685B6A9AB206
:1019B000504B1A80504B1B685B6A9AB24F4B1A808F
:1019C0004F4BD3E900234F49C1E90023FFF7BCFC8B
:1019D000554B00221A60554B4FF000021A604C4BD9
:1019E0006FF000421A604D4B02221A704C4B0122DC
:1019F0001A704C4B01221A70012324E23C4B1B68E5
:101A00005B6A9AB23B4B1A803B4B1B685B6A9AB28B
:101A10003A4B1A803A4BD3E900233A49C1E90023F3
:101A2000FFF792FC404B00221A60404B4FF000023F
:101A30001A60374B6FF000421A60384B03221A705D
:101A4000374B01221A70374B01221A700123FAE139
:101A5000BB683B61264B1B685B6A9AB2254B1A80B8
:101A6000254B1B685B6A9AB2244B1A80244BD3E93E
:101A700000232449C1E90023FFF766FC3B69002BE2
:101A80001BDD3B6907EE903AF8EEE77A9FED287A86
:101A900067EE877AB6EE007A77EE877AFDEEE77A20
:101AA00017EE903AFB601A4AFB6813601B4B00224A
:101AB0001A701B4B01221A7010E0184B01221A7089
:101AC000134B6FF000421A600F4B00221A600F4B4D
:101AD0004FF000021A60124B01221A70114B0122C2
:101AE0001A700123AFE1BB68002B23DDBB6822E045
:101AF00054050020E40900209C050020E609002090
:101B0000F8090020000A0020440A0020480A0020AA
:101B1000E80900200A0000200C000020420A0020F2
:101B2000D6070020540A00204C0A0020500A00204A
:101B3000896D93423223BB618C4B1B685B6A9AB2FE
:101B40008B4B1A808B4B1B685B6A9AB28A4B1A804C
:101B5000BB6907EE903AF8EEE77A9FED887A67EE78
:101B6000877AB6EE007A77EE877AFDEEE77A17EE9F
:101B7000903A5B427B61824A7B691360814BD3E977
:101B800000238149C1E90023FFF7DEFB7F4B0222DE
:101B90001A70012357E1BB681846FEF7D3FC0246D2
:101BA0000B467B49C1E90023FFF7DCFB794BD3E906
:101BB0000001774BD3E90023FEF776FB02460B4684
:101BC0007449C1E9002303F089FE03466433724A75
:101BD0001360724B00221A706C4B04221A7001239E
:101BE00031E1BB681846FEF7ADFC02460B4668497A
:101BF000C1E90023FFF7D2FB664BD3E90001644B38
:101C0000D3E90023FEF752FB02460B466149C1E9C6
:101C1000002303F063FE034664335F4A13605F4BA7
:101C200000221A70594B05221A7001230BE1BB6880
:101C30001846FEF787FC02460B465549C1E90023CA
:101C4000FFF79EFB534BD3E90001514BD3E900232F
:101C5000FEF72CFB02460B464E49C1E9002303F078
:101C60003DFE034632334C4A13604C4B01221A703E
:101C7000464B06221A700123E5E0BB681846FEF7C2
:101C800061FC02460B464249C1E90023FFF794FB81
:101C9000404BD3E900013E4BD3E90023FEF704FBA0
:101CA00002460B463B49C1E9002303F017FE0346F9
:101CB0003233394A1360394B00221A70334B0722F2
:101CC0001A700123BFE0FFF7C7FAFFF73DFB2F4B68
:101CD00003221A700123B6E0FFF7C4F90123B2E032
:101CE0002C4BD3E900232E49C1E90023294BD3E92A
:101CF00000014FF000022B4BFEF7D8FA02460B46CC
:101D00002949C1E90023234BD3E900014FF0000228
:101D1000244BFEF7C9FA02460B461E49C1E90023CF
:101D2000224B01221A70224B01221A70174B1B788A
:101D3000DBB2012B17D00D4B1B685B6A9AB20C4BC0
:101D40001A800C4B1B685B6A9AB20B4B1A80FFF728
:101D5000FBFA0B4B6FF000421A60164B00221A7010
:101D60000A4B01221A7001236DE000BF54050020C8
:101D7000E40900209C050020E6090020896D9342BB
:101D8000E8090020F8090020000A0020D6070020FA
:101D900000000020F0090020240A0020280A00206A
:101DA000580A002000004940600A0020550A00201F
:101DB000560A0020420A0020254BD3E9002325497A
:101DC000C1E90023224BD3E900014FF00002224B6E
:101DD000FEF76AFA02460B462049C1E900231C4B74
:101DE000D3E900014FF000021B4BFEF75FFA0246F9
:101DF0000B461749C1E90023194B02221A70194BEF
:101E000001221A70184B1B78DBB2012B17D0174B2D
:101E10001B685B6A9AB2164B1A80164B1B685B6A8A
:101E20009AB2154B1A80FFF78FFA144B6FF00042ED
:101E30001A60134B00221A700B4B01221A700123F7
:101E400001E000BF002318462037BD4680BD00BF1B
:101E5000F0090020580A002000004940600A0020D4
:101E6000550A0020560A0020D607002054050020FD
:101E7000E40900209C050020E6090020E809002074
:101E8000420A002080B584B000AF87ED010AD7ED8B
:101E9000017A9FED1A7AF4EEC77AF1EE10FA01D5C5
:101EA000174B24E0DFED170A97ED010A0DF0CAFB8E
:101EB000F0EE407A9FED147A67EE877AC7ED037AE9
:101EC000D7ED037A9FED117AF4EEC77AF1EE10FAAE
:101ED00001DD0B4B0BE0D7ED037AB2EE047AF4EEA2
:101EE000C77AF1EE10FA01D5094B00E0FB6807EE66
:101EF000903AB0EE670A1037BD4680BDCDCCCC3DE0
:101F00000000A042333393BF48E1DE410000A0420D
:101F100000002041B0B5B2B000AF03F079FC00F092
:101F2000D7F8FFF781F900F0A1FC00F07FFC00F08A
:101F300063FA00F0B9F900F00BFA00F04DFC00F084
:101F400051FB00F0BDFB00F081F900F0D7FA00F082
:101F50001DF900F017FC03F0CDFB4A4803F0E0F850
:101F600001224949494808F0F2F902224849494802
:101F700003F028FD484B07F1AC041D460FCD0FC4FC
:101F800095E8070084E8070007F1AC030021184634
:101F900009F083F90346414A1360414B07F190046D
:101FA0001D460FCD0FC495E8070084E8070007F130
:101FB00090030021184609F070F90346394A13606E
:101FC000394B07F174041D460FCD0FC495E8070087
:101FD00084E8070007F174030021184609F05DF951
:101FE0000346324A1360324B07F158041D460FCDA9
:101FF0000FC495E8070084E8070007F158030021A3
:10200000184609F04AF903462A4A13602A4B07F199
:102010003C041D460FCD0FC495E8070084E8070077
:1020200007F13C030021184609F037F90346234A1B
:102030001360234B07F120041D460FCD0FC495E814
:10204000070084E8070007F120030021184609F083
:1020500024F903461B4A13601B4B3C1D1D460FCD44
:102060000FC495E8070084E807003B1D00211846CF
:1020700009F013F90346154A136009F007F900BF88
:10208000FDE700BF04070020D50700204C07002013
:102090002C0A0020580400200C000108940700209E
:1020A00034000108980700205C0001089C0700200C
:1020B00088000108A0070020B0000108A407002044
:1020C000DC000108A807002000010108AC0700207F
:1020D00080B594B000AF07F12003302200211846EC
:1020E0000BF05AF907F10C0300221A605A609A604B
:1020F000DA601A610023BB60224B1B6C214A43F05B
:10210000805313641F4B1B6C03F08053BB60BB6890
:1021100000237B601C4B1B681B4A43F48043136005
:10212000194B1B6803F480437B607B6802233B628E
:102130000123FB6210233B630023BB6307F12003F1
:10214000184605F025FF0346002B01D002F09CFB4A
:102150000F23FB6000233B6100237B610023BB61F5
:102160000023FB6107F10C030021184606F088F9F3
:102170000346002B01D002F087FB00BF5037BD465D
:1021800080BD00BF003802400070004080B584B0C0
:1021900000AF3B4600221A605A609A60DA60284B12
:1021A000284A1A60264B4FF440325A60244B0022D2
:1021B0009A60234B01221A61214B01221A76204B8F
:1021C000002283F820201E4B0022DA621C4B1E4A9C
:1021D0009A621B4B0022DA60194B0222DA61184B1B
:1021E000012283F83020164B00225A61144803F074
:1021F000A5FB0346002B01D002F046FB0A233B60FF
:1022000001237B600723BB603B4619460C4803F063
:1022100001FD0346002B01D002F036FB0B233B608F
:1022200002237B603B461946054803F0F3FC034656
:10223000002B01D002F028FB00BF1037BD4680BD47
:1022400058040020002001400100000F80B500AFBD
:10225000124B134A1A60114B124A5A600F4B00225C
:102260009A600E4B0022DA600C4B4FF480421A61E8
:102270000A4B00225A61094B00229A61074B002247
:10228000DA61064B00221A62044804F05FFE03463E
:10229000002B01D002F0F8FA00BF80BD000500203D
:1022A00000580040A086010080B58CB000AF07F157
:1022B0000C032422002118460BF06EF83B1D00226F
:1022C0001A605A60214B4FF080421A601F4B002267
:1022D0005A601E4B00229A601C4B4FF6FF72DA6068
:1022E0001A4B00221A61194B00229A610323FB60EA
:1022F00000233B6101237B610023BB610A23FB6157
:1023000000233B6201237B620023BB620A23FB6242
:1023100007F10C0319460D4806F082FD0346002B19
:1023200001D002F0B1FA00237B600023BB603B1DAB
:102330001946064807F06AFE0346002B01D002F05A
:10234000A3FA00BF3037BD4680BD00BF5405002052
:1023500080B58CB000AF07F10C0324220021184691
:102360000BF01AF83B1D00221A605A60204B214ADC
:102370001A601F4B00225A601D4B00229A601C4BB2
:102380004FF6FF72DA601A4B00221A61184B0022D6
:102390009A610323FB6000233B6101237B610023DF
:1023A000BB610A23FB6100233B6201237B620023A4
:1023B000BB620A23FB6207F10C0319460C4806F0C6
:1023C0002FFD0346002B01D002F05EFA00237B6054
:1023D0000023BB603B1D1946054807F017FE034666
:1023E000002B01D002F050FA00BF3037BD4680BD4F
:1023F0009C0500200004004080B58EB000AF07F1BE
:10240000280300221A605A609A60DA6007F12003FC
:1024100000221A605A603B1D00221A605A609A60BE
:10242000DA601A615A619A61324B334A1A60314B51
:1024300000225A602F4B00229A602E4B41F61F4219
:10244000DA602C4B00221A612A4B00229A6129483B
:1024500006F0F4F90346002B01D002F015FA4FF410
:102460008053BB6207F128031946224807F05AF847
:102470000346002B01D002F007FA1E4806F02DFAA1
:102480000346002B01D002F0FFF900233B6200233A
:102490007B6207F120031946164807F0B7FD034693
:1024A000002B01D002F0F0F960237B600023BB60B9
:1024B0000023FB6000237B613B1D082219460D4869
:1024C00006F06EFF0346002B01D002F0DDF93B1D44
:1024D0000C221946074806F063FF0346002B01D083
:1024E00002F0D2F9034802F0EDFB00BF3837BD46D9
:1024F00080BD00BFE40500200008004080B58AB020
:1025000000AF07F1180300221A605A609A60DA607F
:1025100007F1100300221A605A603B4600221A603D
:102520005A609A60DA602D4B2D4A1A602B4B0F22AD
:102530005A602A4B00229A60284B4FF6FF72DA60ED
:10254000264B00221A61254B00225A61234B0022A0
:102550009A61224806F072F90346002B01D002F07E
:1025600093F94FF48053BB6107F1180319461B48D8
:1025700006F0D8FF0346002B01D002F085F917487A
:1025800006F0CCFA0346002B01D002F07DF90023BF
:102590003B6100237B6107F1100319460F4807F0E8
:1025A00035FD0346002B01D002F06EF90A233B6093
:1025B00001237B600023BB600023FB603B460422B9
:1025C0001946064806F050FE0346002B01D002F0E3
:1025D0005BF900BF2837BD4680BD00BF2C06002038
:1025E0000004014080B58CB000AF07F12003002249
:1025F0001A605A609A60DA603B1D00221A605A60C5
:102600009A60DA601A615A619A612B4B2B4A1A6000
:10261000294B00225A60284B00229A60264B41F633
:102620001F42DA60244B00221A61234B00229A6178
:10263000214806F003F90346002B01D002F024F9EB
:102640004FF480533B6207F1200319461A4806F005
:1026500069FF0346002B01D002F016F9164806F078
:102660003CF90346002B01D002F00EF960237B6099
:102670000023BB600023FB6000237B613B1D002225
:1026800019460D4806F08CFE0346002B01D002F0DF
:10269000FBF83B1D04221946074806F081FE03465D
:1026A000002B01D002F0F0F8034802F00BFB00BF52
:1026B0003037BD4680BD00BF740600200040014099
:1026C00080B58CB000AF07F1200300221A605A6079
:1026D0009A60DA603B1D00221A605A609A60DA60E4
:1026E0001A615A619A61254B254A1A60234BA02230
:1026F0005A60224B00229A60204B4FF47A72DA60C3
:102700001E4B00221A611D4B00229A611B4806F0E5
:1027100095F80346002B01D002F0B6F84FF4805331
:102720003B6207F120031946144806F0FBFE0346FE
:10273000002B01D002F0A8F8104806F0CEF80346AE
:10274000002B01D002F0A0F860237B600023BB6067
:102750000023FB6000237B613B1D042219460748D0
:1027600006F01EFE0346002B01D002F08DF8034850
:1027700002F0A8FA00BF3037BD4680BDBC0600207D
:102780000018004080B500AF114B124A1A60104B80
:102790004FF4E1325A600E4B00229A600C4B00223B
:1027A000DA600B4B00221A61094B0C225A61084B6C
:1027B00000229A61064B0022DA61054807F0B6FC58
:1027C0000346002B01D002F05FF800BF80BD00BFC0
:1027D000040700200044004080B500AF114B124AAE
:1027E0001A60104B4FF4E1325A600E4B00229A608F
:1027F0000C4B0022DA600B4B00221A61094B0C22B1
:102800005A61084B00229A61064B0022DA610548A2
:1028100007F08CFC0346002B01D002F035F800BF16
:1028200080BD00BF4C0700200048004080B582B04A
:1028300000AF00237B600C4B1B6B0B4A43F48003FF
:102840001363094B1B6B03F480037B607B680022DE
:102850000521382003F059FD382003F072FD00BF38
:102860000837BD4680BD00BF0038024080B58AB041
:1028700000AF07F1140300221A605A609A60DA6010
:102880001A6100233B61484B1B6B474A43F010031E
:102890001363454B1B6B03F010033B613B69002343
:1028A000FB60414B1B6B404A43F0040313633E4BF8
:1028B0001B6B03F00403FB60FB680023BB603A4B17
:1028C0001B6B394A43F001031363374B1B6B03F057
:1028D0000103BB60BB6800237B60334B1B6B324A38
:1028E00043F002031363304B1B6B03F002037B6066
:1028F0007B6800233B602C4B1B6B2B4A43F0080387
:102900001363294B1B6B03F008033B603B680022F9
:102910004FF48071254804F0E5FA00224FF4F041AD
:10292000234804F0DFFA00224021224804F0DAFABA
:102930004FF480737B610123BB610023FB610023A3
:102940003B6207F114031946184804F017F94FF4D5
:10295000F0437B610123BB610023FB6100233B62E9
:1029600007F114031946124804F008F940237B616B
:102970000123BB610023FB6100233B6207F11403C9
:1029800019460C4804F0FAF801237B610023BB616F
:102990000023FB6107F114031946044804F0EEF824
:1029A00000BF2837BD4680BD0038024000100240FD
:1029B000000C02400008024080B500AF0022402118
:1029C0000A4804F08FFA0220FEF706FC012240219B
:1029D000064804F087FA0A20FEF7FEFB0022402199
:1029E000024804F07FFA00BF80BD00BF000802402B
:1029F00080B487B000AFF860B9607A60FA68BB68ED
:102A0000934238BF13467A68934238BF13467B61BE
:102A1000FA68BB68934228BF13467A68934228BF7E
:102A200013463B61FA68BB681A447B681A447B69A9
:102A3000D21A3B69D31A18461C37BD465DF8047B91
:102A40007047000080B584B000AF78607B681B6879
:102A50004A4A934240F08D807B681B7F022B40F0F6
:102A60008880474B1B78DBB2002B17D17B681B6833
:102A700000225A627B681B681A6A7B681B6822F016
:102A8000A0021A627B681B681A6A7B681B6842F0A6
:102A900020021A623A4B01221A706BE00421786816
:102AA00006F008FE03469AB2364B1A807B681B6814
:102AB0001A6A7B681B6822F0A0021A627B681A6897
:102AC0007B681B68126A1A622D4B00221A702D4B0C
:102AD0001B889BB207EE903AF8EEE77A9FED2A7AD0
:102AE00067EE877AB6EE007A77EE877AFCEEE77AC1
:102AF00017EE903ABB60254B1B781946244ABB68F9
:102B000042F82130214B1B78591C224BA3FB012397
:102B10005A0813465B001344CA1AD2B21B4B1A70F0
:102B20001D4B1B78022B05D81B4B1B780133DAB2E7
:102B3000194B1A70BB68FB60174B1B78032B09D12C
:102B4000134B1B68124A5168114A92681846FFF7E6
:102B50004FFFF860FB6807EE903AF8EE677A0F4B8C
:102B6000C3ED007A0E4AFB6813600E4B01221A7007
:102B700000E000BF1037BD4680BD00BF000401402B
:102B8000680A00206A0A0020287E8C3CC8070020C2
:102B9000BC070020ABAAAAAAC9070020B4070020DE
:102BA000B0070020B807002080B584B000AF78607F
:102BB0007B681B68344A934262D1344B1B78BB73E9
:102BC000BB7B0D2B02D0BB7B0A2B42D1304B1B7839
:102BD0001A46304B002199542D4B1B78002B34D0D2
:102BE0000023FB7322E0FB7B2A4AD35C402B0CD9E9
:102BF000FB7B284AD35C5A2B07D8FB7B254AD25C47
:102C0000FB7B2032D1B2234AD154FB7B214AD35CD7
:102C10003B2B04D0FB7B1F4AD35C2C2B03D1FB7BCB
:102C20001C4A2021D154FB7B0133FB73184B1B78CA
:102C3000FA7B9A42D7D31748FEF72CFC164B1B7829
:102C4000DBB2002B01D1FEF7DDFD114B00221A7023
:102C500011E00F4B1B78FF2B0AD00D4B1B785A1C31
:102C6000D1B20B4A117019460A4ABB7B535402E099
:102C7000074B00221A7001220449084807F067FB3D
:102C800000BF1037BD4680BD00480040D50700207A
:102C9000D8080020D8070020D60700204C070020C5
:102CA00080B485B000AF78607B681B68354A93427A
:102CB00061D1354B1B889BB21A4640F6E44302FBB8
:102CC00003F303F2FF72314BA3FB0213D21A520833
:102CD0001344DB0AFB812C4B5B889BB21A4640F6FF
:102CE000E44302FB03F303F2FF72284BA3FB02133E
:102CF000D21A52081344DB0ABB81254B1B889BB2B6
:102D00009A00FB891344234AA2FB03239B089AB22F
:102D10001F4B1A80204B1B889BB29A00BB8913441F
:102D20001C4AA2FB03239B089AB21B4B1A80164B2A
:102D30001B889AB2194B1A80134B5B889AB2184BB6
:102D40001A80134B1B889BB240F21F3293428CBFF8
:102D500001230023DBB21A46124B1A700E4B1B885C
:102D60009BB240F21F3293428CBF01230023DBB29F
:102D70001A460D4B1A7000BF1437BD465DF8047B30
:102D8000704700BF002001402C0A00200101100004
:102D90003E0A0020CDCCCCCC400A0020300A0020D6
:102DA000320A00203C0A00203D0A002080B584B091
:102DB00000AF78604123FB734FF48071044804F046
:102DC000AAF84FF47A7008F0B4FA00BFF4E700BF35
:102DD0000010024080B58EB002AF786001216948D2
:102DE00004F068F8034687F82F30674B1B78012BF7
:102DF00011D197F82F30002B0DD1644B1B78013384
:102E0000002B03F00103B8BF5B42DAB25F4B1A70CC
:102E1000322008F08EFA5C4A97F82F3013705B4B23
:102E20001B78002B4DD15A4BD3E90023104619468D
:102E3000FDF7A2FE034607F10C00564A20210AF0D6
:102E400031FA07F10C031A460021002002F020FCA1
:102E5000514BD3E9002310461946FDF78DFE03467A
:102E600007F10C004D4A20210AF01CFA07F10C036F
:102E70001A461021002002F00BFC494B1A68494BFE
:102E80001B6807F10C0000931346474A20210AF003
:102E900009FA07F10C031A462021002002F0F8FB82
:102EA000FEF7B4FA034607F10C00404A20210AF06D
:102EB000F9F907F10C031A463021002002F0E8FB73
:102EC0005AE0324B1B78012B56D1394B1B6807F166
:102ED0000C00384A20210AF0E5F907F10C031A46E4
:102EE0000021002002F0D4FB334B1B889BB21A4612
:102EF000324B1B78DBB207F10C0000931346304ACB
:102F000020210AF0CFF907F10C031A461021002006
:102F100002F0BEFB2B4B1B889BB21A462A4B1B7838
:102F2000DBB207F10C0000931346284A20210AF077
:102F3000B9F907F10C031A462021002002F0A8FB82
:102F4000234BD3ED007ABDEEE77A224BD3ED007A26
:102F5000FDEEE77A17EE903A07F10C00009317EEBA
:102F6000103A1D4A20210AF09DF907F10C031A4678
:102F70003021002002F08CFB02F012FA642008F0ED
:102F8000D8F92BE7001002400D000020740A002041
:102F9000F80900201C010108F0090020280101089F
:102FA000CC070020D00700203401010840010108AF
:102FB000B00700204C0101083E0A00203C0A002016
:102FC00060010108400A00203D0A0020700101084C
:102FD0006C0A0020700A0020800101080000000037
:102FE000B0B5D0B004AF07F59873A3F5927318602D
:102FF0000421A34805F0CAFCFEF7A6F90821A14860
:1030000005F0C4FC0C219F4805F0C0FC00219E483F
:1030100005F0BCFC04219C4805F0B8FCFEF71CF947
:103020009A4B1B78DBB2002B4BD0984B00221A70C6
:10303000974B00221A70974B00221A60964B4FF064
:1030400000021A60954B00221A60954B4FF0000267
:103050001A60944B00221A70934B00221A70FEF7EC
:10306000FBF8924B00221A60FEF76EF9904B00229B
:103070001A60FDF7CBFF8F4B00221A708E4B002297
:103080001A608E4B00221A708D4A07F1340392E8C1
:1030900003001860043319808A4B1B78DBB2002BC5
:1030A00001D001F0B6B9874B01221A7007F1340341
:1030B00005221946844807F014F9052008F039F96B
:1030C000AEE77C4B1B78DBB2013B062B01F286811D
:1030D00001A252F823F000BFF5300008F5300008D7
:1030E000C3430008473D0008473D00085F40000813
:1030F0005F400008754BC7F8DC30744BC7F8D83018
:103100004FF00003C7F8D430714B1B685B6AA7F817
:10311000D230704B1B685B6AA7F8D0306E4B1B88AF
:103120009BB2B7F8D220D31A9BB21BB2C7F8CC30EF
:103130006A4B1B889BB2B7F8D020D31A9BB21BB244
:103140005B42C7F8C830D7F8CC20D7F8C830134452
:10315000DA0F13445B10C7F8C430002387F82F310F
:10316000534B1B68002B0ADB514B1B68D7F8C4205C
:103170009A42ACBF0123002387F82F3109E04C4B62
:103180001B68D7F8C4209A42D4BF0123002387F8D4
:103190002F31002387F82E31464B1B78DBB2012BF1
:1031A00040F024813A4B1B78DBB2002B00F01E81EB
:1031B000374B1B78DBB2013B062B00F2128101A2D8
:1031C00052F823F00933000893330008A7330008AE
:1031D000E3330008BB330008CF330008E1310008B7
:1031E0003F4B1B889BB21A463E4B1B689A422CBF32
:1031F0000123002387F82E313A4B1B68142B00F271
:10320000F280394B1B78DBB2002B00F0EC802D4BA9
:103210001B78DBB2002B15D1324B1B6807F1140071
:10322000324A20210AF03EF8C7F8C000254B01229F
:103230001A70D7F8C0309AB207F114031946224821
:1032400007F04FF82A4BD3E900232A49C1E90023AC
:10325000FEF77AF80E4B04221A70154B264A1A60B4
:10326000264B00221A60264B00221A60002387F8A2
:103270002E31244B01221A700E4B02221A70B2E03A
:10328000BC060020E405002074060020D4070020BE
:10329000420A0020440A0020480A00204C0A00206C
:1032A000500A0020550A0020560A0020DC080020A1
:1032B000E8090020D6070020240A0020280A002060
:1032C000B4010108E20900204C070020A69B443B02
:1032D000540500209C050020E4090020E609002098
:1032E0000A000020B00700200C0000209401010813
:1032F000F0090020000A002001000080780A002068
:103300007C0A0020540A00208E4B1B681A2B94BFA5
:103310000123002387F82E318A4B1B68142B64D8B5
:10332000894B1B78DBB2002B15D1864B1B6807F14C
:103330001400864A202109F0B5FFC7F8BC00824B73
:1033400001221A70D7F8BC309AB207F1140319465B
:103350007F4806F0C6FF7F4BD3E900237E49C1E9D1
:103360000023FDF7F1FF7D4B04221A707C4B7D4A50
:103370001A607D4B00221A607C4B00221A600023E9
:1033800087F82E317A4B01221A707A4B02221A707A
:103390002BE0794B1B78DBB2002B0CBF0123002301
:1033A00087F82E3122E0754B1B78DBB2002B0CBF67
:1033B0000123002387F82E3118E06F4B1B78DBB216
:1033C000012B0CBF0123002387F82E310EE06B4B3D
:1033D0001B78DBB2012B0CBF0123002387F82E31B1
:1033E00004E000BF02E000BF00E000BF614B1B78BB
:1033F000DBB2022B0CD1594B1B78DBB2042B07D16B
:10340000504B1B68132B8CBF0123002387F82E31F0
:1034100097F82E31002B3BD0504B1B78DBB2012BA1
:1034200004D04E4B1B78DBB2072B31D1544B1B68B9
:1034300007EE903AB8EEE77ADFED526AC7EE267AE9
:10344000514BC3ED007A404B1B78DBB2002B1FD1F0
:103450004D4B1B681846FDF787F802460B46394965
:10346000096807F114000291CDE90023474A2021A1
:1034700009F018FFC7F8B800334B01221A70D7F8CB
:10348000B8309AB207F114031946314806F029FF03
:1034900097F82E31002B38D0304B1B78DBB2022B43
:1034A00004D02E4B1B78DBB2032B2ED1384B1B687C
:1034B00007EE903AB8EEE77ADFED326AC7EE267A89
:1034C000344BC3ED007A204B1B78DBB2002B1CD1B0
:1034D000304B1B681846FDF747F802460B4607F1CC
:1034E0001400CDE900232C4A202109F0DBFEC7F8A7
:1034F000B400154B01221A70D7F8B4309AB207F114
:1035000014031946124806F0ECFE97F82F31002BF1
:1035100003D197F82E31002B42D0FDF79DFE0F4BC3
:1035200000221A70104B00221A60104B00221A6001
:10353000104B00221A7002F0D1F90346174A1360AB
:1035400000F062BFB0070020E209002094010108EA
:103550004C070020F0090020000A0020420A002049
:10356000E809002001000080780A00207C0A002081
:10357000540A0020D60700203D0A00203C0A002003
:10358000440A0020896D9342480A0020A0010108E6
:103590004C0A0020500A0020AC010108DC08002081
:1035A00002F09CF9C7F8B000C54B1B68002B0BD18B
:1035B000C34AD7F8B0301360C24AB7F8D23013808C
:1035C000C14AB7F8D0301380C04B1B78DBB2002B58
:1035D00014D0BC4AB7F8D2301380BB4AB7F8D03009
:1035E0001380B74AD7F8B0301360B84B00221A7076
:1035F000B74B00221A60B74B00221A60B14B1B88F0
:10360000B7F8D220D31A9BB2A7F8AE30AE4B1B88C6
:10361000B7F8D020D31A9BB2A7F8AC30B7F8AC30CB
:103620005B429BB2A7F8AC30AB4B1B78DBB2012BF3
:103630001AD1AA4B1B78DBB2012B04D0A74B1B7805
:10364000DBB2072B10D1B7F9AE20B7F9AC30134479
:10365000DA0F13445B10C7F8A830A14B1A68D7F8EB
:10366000A83013449E4A13609B4B1B78DBB2012B9E
:103670001AD19A4B1B78DBB2022B04D0974B1B78E4
:10368000DBB2032B10D1B7F9AE20B7F9AC3013443D
:10369000DA0F13445B10C7F8A430924B1A68D7F8BE
:1036A000A43013448F4A1360854B1B68D7F8B020B1
:1036B000D31AC7F82831D7F82831002B02D10123BB
:1036C000C7F82831B7F9AE304FF47A7203FB02F233
:1036D000D7F8283192FBF3F3C7F8A030B7F9AC3034
:1036E0004FF47A7203FB02F2D7F8283192FBF3F31E
:1036F000C7F89C30D7F8283107EE903AB8EE677AD1
:10370000DFED796AC7EE267AC7ED267AD7ED267AFD
:103710009FED767A37EE877AD7ED266AC6EE877AFE
:10372000C7ED257AD7F8A03007EE903AB8EEE77AE1
:103730006F4BD3ED007A37EE677AD7ED257A27EE17
:10374000277A6B4BD3ED007A77EE277A684BC3ED7F
:10375000007AD7F89C3007EE903AB8EEE77A654BDE
:10376000D3ED007A37EE677AD7ED257A27EE277A00
:10377000604BD3ED007A77EE277A5E4BC3ED007A8B
:10378000504AB7F8D23013804F4AB7F8D030138080
:103790004B4AD7F8B0301360554B93ED007A554B38
:1037A000D3ED007A77EE677AFDEEE77A17EE903A7E
:1037B000C7F89030504BD3E90001504BD3E90023B8
:1037C000FCF772FD02460B464D49C1E900234D4B03
:1037D000C7F88C30D7F88C00FCF7C6FE484BD3E90D
:1037E0000023FCF719FF02460B4610461946FDF769
:1037F000C3F90346C7F88830D7F89020D7F8883047
:103800001344C7F88430324B1A68D7F88430134415
:103810002F4A13602F4B1B68D7F88420D31AC7F8A0
:1038200080302C4AD7F884301360D7F8843007EE04
:10383000903AB8EEE77AD7ED377A27EE277A244B1D
:103840001B6807EE903AF8EEE76AD7ED367A66EE37
:10385000A77A37EE277AD7F8803007EE903AF8EE5D
:10386000E76AD7ED357A66EEA77A77EE277AC7ED65
:103870001F7AD7ED1F7AFDEEE77A17EE903ABB6715
:1038800040F6D8637B674FF07E533B674FF07E5323
:10389000FB66786FFCF756FE07A3D3E90023FCF71D
:1038A000BBFE02460B4610461946FDF765F9034676
:1038B000BB6629E0AFF30080713D0AD7A370ED3FEE
:1038C000800A0020840A0020860A0020540A002072
:1038D000780A00207C0A0020D6070020420A002037
:1038E000440A00204C0A002000007A44CDCC4C3D14
:1038F000880A00208C0A0020000A0020F809002015
:10390000080A0020000070417B6F7B66A94B1B7882
:10391000DBB2012B22D1BA6EBB6F134407EE903A93
:10392000B8EEE77AD7ED1C7A67EE277AFDEEE77AF4
:1039300017EE903AC7F824317A6EBB6FD31A07EEB0
:10394000903AB8EEE77AD7ED1B7A67EE277AFDEE6C
:10395000E77A17EE903AC7F8203121E0BA6EBB6FD4
:10396000D31A07EE903AB8EEE77AD7ED1C7A67EEF5
:10397000277AFDEEE77A17EE903AC7F824317A6E8F
:10398000BB6F134407EE903AB8EEE77AD7ED1B7A97
:1039900067EE277AFDEEE77A17EE903AC7F8203106
:1039A000854BD3E90001854BD3E90023FCF77CFC70
:1039B00002460B468249C1E900234FF07E533B6625
:1039C000386EFCF7D1FD7E4BD3E90023FCF724FED3
:1039D00002460B4610461946FDF7CEF80346FB6536
:1039E0009A23C7F81C31734B1B78DBB2012B1FD114
:1039F000734BD3E900014FF000024FF00003FDF7D5
:103A00009BF80346002B03D09A23C7F81C3133E000
:103A10006B4BD3E900014FF000024FF00003FDF7BC
:103A20006DF80346002B27D09A23C7F81C3123E0FA
:103A3000604B1B78DBB2022B1ED1614BD3E9000136
:103A40004FF000024FF00003FDF758F80346002B3B
:103A500003D09A23C7F81C310EE0594BD3E900017B
:103A60004FF000024FF00003FDF766F80346002B0D
:103A700002D09A23C7F81C314E4B1B78DBB2012BC6
:103A800006D1D7F81C21FB6DD31AC7F81C3105E00D
:103A9000D7F81C21FB6D1344C7F81C31D7F81C3133
:103AA0006A2B02DC6B23C7F81C31D7F81C31FA2BC8
:103AB00002DDFA23C7F81C31424B1B78DBB2002B26
:103AC00000F00381404B1B78DBB2012B4ED13D4B04
:103AD0001B78DBB2012B01D1F52200E064223B4BC5
:103AE0001B689A63374B1B78DBB2012B0CD141F278
:103AF00088333B6441F66413FB63386CFDF7CCFB01
:103B0000F86BFDF7DFFB0BE041F28833BB6441F655
:103B100064137B64B86CFDF7D5FB786CFDF7BCFBD8
:103B2000284B1B78DBB2012B0AD1244BD3E90001CF
:103B3000214BD3E90023FCF7EBFF0346002B11D107
:103B4000204B1B78DBB2022B40F0C3801B4BD3E928
:103B50000001194BD3E90023FCF7E4FF0346002BD7
:103B600000F0B780184B02221A70B2E0164B1B7897
:103B7000DBB2022B40F0A380124B1B78DBB2012B8F
:103B800001D1642200E0F522104B1B689A630D4BB3
:103B90001B78DBB2012B1BD141F288333B6541F628
:103BA0006413FB64386DFDF78DFBF86CFDF774FB57
:103BB0001AE000BFD6070020F0090020F809002015
:103BC000080A0020550A0020560A0020BC060020E2
:103BD00041F28833BB6541F664137B65B86DFDF730
:103BE0005BFB786DFDF76EFB854BD3E900238549C0
:103BF000C1E90023844B1B78DBB2012B13D1814B2D
:103C0000D3E900014FF00002804BFCF74DFB024668
:103C10000B46104619467E4BD3E90023FCF778FF8C
:103C20000346002B18D1784B1B78DBB2022B50D106
:103C3000744BD3E900014FF00002744BFCF736FBE4
:103C400002460B4610461946714BD3E90023FCF798
:103C500069FF0346002B3CD06B4B00221A706D4B62
:103C600000221A70664BD3E900236649C1E900239C
:103C7000694B1B68D7F81C219A63634B1B78DBB236
:103C8000012B01D1FDF7B4FB5F4B1B78DBB2022B9C
:103C900001D1FDF79FFBFDF7DFFA604B00221A70A0
:103CA0005F4B00221A605F4B00221A605E4B0022BD
:103CB0001A7001F013FE03465C4A136009E0564B8C
:103CC0001B68D7F81C219A6303E0534B1B689A22A8
:103CD0009A63554B1B78DBB2012B19D14A4B1B78E9
:103CE000DBB2002B14D1524B1B68D7F82421DA63C6
:103CF0004F4B1B6841F61F421A644E4B1B68D7F8A6
:103D000020215A634B4B1B6841F61F429A6378E3AC
:103D1000454B1B78DBB2022B40F07383444B1B688E
:103D200041F61F42DA63424B1B68D7F824211A641C
:103D3000404B1B6841F61F425A633E4B1B68D7F845
:103D400020219A635DE33C4B1B68002B09D001F0F6
:103D5000C5FD0246384B1B689A4202D2FDF77CFA39
:103D600052E3354B00221A60264BD3E90001284B61
:103D7000D3E90023FCF798FA02460B46C7E93C2337
:103D80004FF000024FF00003D7E93C01FCF7CAFEF8
:103D90000346002B02D0D7E93C4505E0D7F8F040B8
:103DA000D7F8F43083F00045C7E93A451E4B1B783D
:103DB000DBB2042B0AD1164BD3E90001114BD3E936
:103DC0000023FCF7A5FE0346002B0FD1164B1B78F2
:103DD000DBB2052B7CD10E4BD3E90001094BD3E9B3
:103DE0000023FCF79FFE0346002B71D0FDF734FA49
:103DF0000D4B1B78DBB2042B20D1FDF7F9FA1FE045
:103E0000580A0020F0090020550A00200000144044
:103E1000F8090020560A0020BC060020420A0020B3
:103E2000780A00207C0A0020D6070020DC08002049
:103E3000E405002074060020240A0020FDF7CAFAD9
:103E40004FF4967007F075FAB94B1B78DBB2002B74
:103E500035D0B84B1B78DBB2042B30D1B64B1B6886
:103E60005B6A9AB2B54B1A80B54B1B685B6A9AB213
:103E7000B44B1A80AE4B1B78DBB207EE903AF8EEEB
:103E8000E77A9FEDB17A67EE877AB6EE007A77EE41
:103E9000877AFDEEE77A17EE902AAC4B1A60AC4BAE
:103EA000D3E90023AB49C1E90023AB4B00221A70D0
:103EB000A04B01221A709E4B00221A70A4E29D4B67
:103EC00000221A7001F00AFD0346A44A13609BE227
:103ED000984B1B78DBB2042B60D14FF49653C7F894
:103EE00018314FF000029E4BD7E93A01FCF706FE6D
:103EF0000346002B03D04FF49653C7F818314FF008
:103F00000002984BD7E93A01FCF7F8FD0346002B75
:103F100003D04FF49653C7F81831D7F8183141F24F
:103F20007072934203DD41F27073C7F81831D7F80D
:103F30001801FCF707FB7CA3D3E90023FCF76CFB1B
:103F400002460B4610461946FCF716FE0346184675
:103F5000FDF7A2F9D7F8183107EE903AF8EEE77AB4
:103F60009FED817A67EE877AFDEEE77A17EE903A59
:103F7000C7F8E030D7F8E000FCF7E4FA4FF033324E
:103F80007A4BFCF749FB02460B4610461946FCF7F4
:103F9000F3FD03461846FDF795F935E24FF49653C5
:103FA000C7F814314FF000026D4BD7E93A01FCF726
:103FB000A5FD0346002B03D04FF49653C7F81431E8
:103FC0004FF00002674BD7E93A01FCF797FD034633
:103FD000002B03D04FF49653C7F81431D7F814319F
:103FE00041F27072934203DD41F27073C7F81431ED
:103FF000D7F81401FCF7A6FA4BA3D3E90023FCF78A
:104000000BFB02460B4610461946FCF7B5FD03466E
:104010001846FDF757F9D7F8143107EE903AF8EE45
:10402000E77A9FED517A67EE877AFDEEE77A17EE31
:10403000903AC7F8E430D7F8E400FCF783FA4FF081
:1040400033324A4BFCF7E8FA02460B461046194653
:10405000FCF792FD03461846FDF71EF9D4E1444BE8
:104060001B68002B09D001F039FC0246404B1B684D
:104070009A4202D2FDF7F0F8C6E13D4B00221A60E9
:104080003C4BD3E90001324BD3E90023FCF70CF998
:1040900002460B46C7E942234FF000024FF00003EF
:1040A000D7E94201FCF73EFD0346002B04D097ED13
:1040B000427B87ED007B07E0D7F808313B60D7F8FB
:1040C0000C3183F000437B6097ED007B87ED407BF4
:1040D000184B1B78DBB2062B0AD11D4BD3E900012C
:1040E000244BD3E90023FCF71DFD0346002B11D11F
:1040F000104B1B78DBB2072B40F0C680144BD3E982
:1041000000011C4BD3E90023FCF702FD0346002B02
:1041100000F0BA80FDF7A0F8064B1B78DBB2062B47
:104120002AD1FDF765F929E01F85EB51B81EF13F53
:10413000280A0020D607002054050020E4090020AA
:104140009C050020E6090020896D9342E8090020C3
:10415000F8090020000A0020420A0020DC080020A4
:104160000080464000003440CDCC8C3F3333F33FD9
:10417000240A0020F0090020FDF72CF94FF4967076
:1041800007F0D7F8A84B1B78DBB2002B36D0A74B33
:104190001B78DBB2062B31D1A54B1B685B6A9AB248
:1041A000A44B1A80A44B1B685B6A9AB2A34B1A807B
:1041B0009D4B1B78DBB207EE903AF8EEE77A9FED65
:1041C000A07A67EE877AB6EE007A77EE877AFDEE10
:1041D000E77A17EE903A5B429A4A13609A4BD3E91A
:1041E00000239A49C1E90023994B00221A708F4B92
:1041F00002221A708C4B00221A7044E08A4B1B7802
:10420000DBB2002B36D0894B1B78DBB2072B31D1C8
:10421000874B1B685B6A9AB2864B1A80864B1B6879
:104220005B6A9AB2854B1A807F4B1B78DBB207EE34
:10423000903AF8EEE77A9FED827A67EE877AB6EEEB
:10424000007A77EE877AFDEEE77A17EE903A5B42D6
:104250007C4A13607C4BD3E900237C49C1E90023ED
:104260007B4B00221A70714B02221A706E4B002297
:104270001A7008E06D4B00221A7001F02FFB034604
:10428000744A1360C0E0BFE04FF49653C7F8103192
:104290004FF00002704BD7E94001FCF72FFC0346BA
:1042A000002B03D04FF49653C7F810314FF00002A3
:1042B0006A4BD7E94001FCF721FC0346002B03D0F1
:1042C0004FF49653C7F81031D7F8103141F270729D
:1042D000934203DD41F27073C7F81031534B1B78E2
:1042E000DBB2062B36D1D7F81001FCF72BF94CA323
:1042F000D3E90023FCF790F902460B461046194615
:10430000FCF73AFC03461846FCF7F2FFD7F81031E9
:1043100007EE903AF8EEE77A9FED517A67EE877AEA
:10432000FDEEE77A17EE903AC7F8F830D7F8F800C4
:10433000FCF708F94FF033324A4BFCF76DF90246AF
:104340000B4610461946FCF717FC03461846FCF7C7
:10435000E5FF59E0D7F81001FCF7F4F830A3D3E9F2
:104360000023FCF759F902460B4610461946FCF7A4
:1043700003FC03461846FCF7D1FFD7F8103107EECF
:10438000903AF8EEE77A9FED367A67EE877AFDEE9F
:10439000E77A17EE903AC7F8FC30D7F8FC00FCF744
:1043A000D1F84FF033322F4BFCF736F902460B466B
:1043B00010461946FCF7E0FB03461846FCF798FF49
:1043C00022E0FCF749FF194B00221A7001F086FA2F
:1043D000034603F5AF731F4A136015E0FCF7A4FD15
:1043E0000346002B09D101F079FA0246194B1B68EC
:1043F0009A4208D3FDF706FA05E0164B00221A6030
:1044000001E000BF00E000BF052006F092FFFEF7CC
:1044100007BE07F59877BD46B0BD00BFAFF300807B
:104420001F85EB51B81EF13F280A0020D607002057
:1044300054050020E40900209C050020E609002026
:10444000896D9342E8090020F8090020000A002045
:10445000420A0020DC080020008046400000344072
:10446000CDCC8C3F3333F33F80B596B002AF78604C
:104470003C21394804F07AFD3C21384804F076FDAF
:10448000354B1B685B6AA7F84E30344B1B685B6A80
:10449000A7F84C3001F022FAB86401F01FFA024686
:1044A000BB6CD31A132B53D92B4B1B685B6AA7F831
:1044B0004630B7F84620B7F84E30D31A9BB21BB23D
:1044C0001A46274B1A60B7F84630A7F84E30234BF0
:1044D0001B685B6AA7F84430B7F84420B7F84C3043
:1044E000D31A9BB21BB21A461E4B1A601D4B1B6897
:1044F0005B421C4A1360B7F84430A7F84C30BB6CE1
:104500001433BB64164B1B6818B2164B1B6819B2E8
:10451000154B1B78DBB2002B01D0012300E00023F8
:104520001A4600F067FE0E4B1A680E4B1B6807F127
:104530000C00009313460D4A202108F0B3FE3864A6
:104540003B6C9AB207F10C010523094805F03EFEC9
:10455000012006F0EEFEA0E7540500209C05002097
:10456000CC070020D0070020D6070020BC0101089E
:104570004C070020000000002DE9B0438CB000AFD4
:104580007860FCF7D7FD0023BB8100237B830023E9
:10459000FB624FF000024FF00003C7E9082300233D
:1045A000FB6122E0142006F0C4FE07F10C0319465B
:1045B0003720FCF771FD3B7B1BB21B021AB27B7BE1
:1045C0001BB213437B83B7F91A301846FBF7BAFFC7
:1045D00002460B46D7E90801FBF768FE02460B4688
:1045E000C7E90823FB690133FB61FB69632BD9DD54
:1045F0004FF00002364BD7E90801FCF737F90246C5
:104600000B46C7E9082301F069F9F862142006F0A7
:1046100090FE07F10C0319463720FCF73DFD3B7B6C
:104620001BB21B021AB27B7B1BB213437B83B7F90D
:104630001A301846FBF786FFD7E90823FBF734FE4C
:1046400002460B46C7E904233C697B6923F0004519
:104650004FF000021F4B20462946FCF76DFA034637
:10466000002B2DD0B7F91A301846FBF76BFFD7E9AE
:104670000823FBF719FE02460B469046994601F0C7
:104680002DF90246FB6AD31A1846FBF74BFF0EA31F
:10469000D3E90023FCF7EAF802460B4640464946B8
:1046A000FBF7BAFF02460B46104619460A4BD3E900
:1046B0000023FBF7FBFD02460B460749C1E9002337
:1046C00001F00CF9F862A1E7000000000004D040FE
:1046D0000000594000002040F809002080B582B059
:1046E00000AF786004210C4804F072FAFEF764F918
:1046F0000A4B00221A7002E0012006F01AFE074B56
:104700001B78DBB283F00103DBB2002BF4D13C2039
:1047100006F00FFEEAE700BF2C060020B8070020D5
:1047200080B588B000AF78604A4B7B614FF00003E2
:10473000FB614FF00003BB61474B1B887B82464BFC
:104740005B883B827B8A07EE903AF8EE677A9FEDB2
:10475000437A27EE877ADFED426AC7EE267AC7ED05
:10476000037A3B8A07EE903AF8EE677A9FED3B7A40
:1047700027EE877ADFED3A6AC7EE267AC7ED027A2E
:10478000B7EE007AD7ED057A37EE677AD7ED077A7C
:1047900027EE277AD7ED056AD7ED037A66EEA77A7A
:1047A00077EE277AC7ED077AB7EE007AD7ED057A6C
:1047B00037EE677AD7ED067A27EE277AD7ED056AC6
:1047C000D7ED027A66EEA77A77EE277AC7ED067AFA
:1047D000244A7B8A1380244A3B8A1380234AFB693C
:1047E0001360234ABB69136097ED070AFDF74AFB84
:1047F000F0EE407A1F4BC3ED007A97ED060AFDF705
:1048000041FBF0EE407A1C4BC3ED007AD7ED077AFE
:104810009FED1A7AF4EEC77AF1EE10FAACBF0123DD
:104820000023DBB21A46164B1A70D7ED067A9FEDBD
:10483000137AF4EEC77AF1EE10FAACBF012300232D
:10484000DBB21A460F4B1A700A2006F072FD00BF49
:1048500072E700BFCDCC4C3E2C0A002033335340CE
:1048600000F07F45300A0020320A0020340A002080
:10487000380A00206C0A0020700A0020CDCC4C3F82
:104880003C0A00203D0A002080B400AF72B600BF91
:1048900000BFFDE780B582B000AF00237B60124B04
:1048A0005B6C114A43F4804353640F4B5B6C03F41D
:1048B00080437B607B6800233B600B4B1B6C0A4A88
:1048C00043F080531364084B1B6C03F080533B6030
:1048D0003B6800220F216FF0010001F016FD00BFC0
:1048E0000837BD4680BD00BF0038024080B58AB0A1
:1048F00000AF786007F1140300221A605A609A60D2
:10490000DA601A617B681B682F4A934257D10023F3
:104910003B612E4B5B6C2D4A43F4807353642B4BED
:104920005B6C03F480733B613B690023FB60274BA6
:104930001B6B264A43F004031363244B1B6B03F0E9
:104940000403FB60FB6803237B610323BB6100233B
:10495000FB6107F1140319461D4802F00FF91D4BC6
:104960001D4A1A601B4B00225A601A4B00229A60A3
:10497000184B0022DA60174B4FF480621A61154B16
:104980004FF400625A61134B4FF400529A61114B7D
:104990004FF48072DA610F4B00221A620D4B002235
:1049A0005A620C4801F0E8FC0346002B01D0FFF7E7
:1049B0006BFF7B68074A9A63064A7B68936300BF74
:1049C0002837BD4680BD00BF0020014000380240AE
:1049D00000080240A00400201064024080B58AB0A4
:1049E00000AF786007F1140300221A605A609A60E1
:1049F000DA601A617B681B68194A93422CD1002344
:104A00003B61184B1B6B174A43F002031363154BB2
:104A10001B6B03F002033B613B694FF440637B6116
:104A20001223BB610023FB6103233B6204237B62EF
:104A300007F1140319460C4802F0A0F80023FB60AC
:104A4000084B1B6C074A43F480031364054B1B6C33
:104A500003F48003FB60FB6800BF2837BD4680BDC0
:104A600000580040003802400004024080B58CB07D
:104A700000AF786007F11C0300221A605A609A6048
:104A8000DA601A617B681B68B3F1804F4BD1002359
:104A9000BB613F4B1B6C3E4A43F0010313643C4B2C
:104AA0001B6C03F00103BB61BB6900237B61384BC6
:104AB0001B6B374A43F001031363354B1B6B03F049
:104AC00001037B617B6900233B61314B1B6B304AE7
:104AD00043F0020313632E4B1B6B03F002033B6195
:104AE0003B694FF40043FB6102233B6200237B627E
:104AF0000023BB620123FB6207F11C031946254812
:104B000002F03CF80823FB6102233B6200237B6236
:104B10000023BB620123FB6207F11C0319461E48F8
:104B200002F02CF830E07B681B681C4A93422BD1C2
:104B30000023FB60164B1B6C154A43F00203136401
:104B4000134B1B6C03F00203FB60FB680023BB608C
:104B50000F4B1B6B0E4A43F0020313630C4B1B6B92
:104B600003F00203BB60BB683023FB6102233B629E
:104B700000237B620023BB620223FB6207F11C035C
:104B80001946054801F0FAFF00BF3037BD4680BD29
:104B900000380240000002400004024000040040CF
:104BA00080B58CB000AF786007F11C0300221A605A
:104BB0005A609A60DA601A617B681B683B4A9342CC
:104BC0000ED10023BB613A4B1B6C394A43F00403FE
:104BD0001364374B1B6C03F00403BB61BB6960E0DB
:104BE0007B681B68334A934234D100237B61304B8E
:104BF0005B6C2F4A43F0020353642D4B5B6C03F054
:104C000002037B617B6900233B61294B1B6B284AB4
:104C100043F004031363264B1B6B03F004033B6157
:104C20003B698023FB6102233B6200237B620023FC
:104C3000BB620323FB6207F11C0319461E4801F007
:104C40009DFF002205212E2001F05FFB2E2001F0A8
:104C500078FB26E07B681B68184A93420ED100233C
:104C6000FB60134B5B6C124A43F480335364104B6C
:104C70005B6C03F48033FB60FB6812E07B681B68AD
:104C80000F4A93420DD10023BB60094B1B6C084AAD
:104C900043F040031364064B1B6C03F04003BB60FE
:104CA000BB6800BF3037BD4680BD00BF0008004074
:104CB000003802400004014000080240004001406A
:104CC0000018004080B58AB000AF786007F1140387
:104CD00000221A605A609A60DA601A617B681B6869
:104CE000374A93421FD100233B61364B1B6B354A39
:104CF00043F002031363334B1B6B03F002033B616E
:104D00003B694FF440737B610223BB610023FB616D
:104D100000233B6202237B6207F1140319462A48F1
:104D200001F02CFF47E07B681B68284A93421ED1A4
:104D30000023FB60234B1B6B224A43F010031363D9
:104D4000204B1B6B03F01003FB60FB6860237B614F
:104D50000223BB610023FB6100233B6203237B62D0
:104D600007F1140319461A4801F008FF23E07B6895
:104D70001B68184A93421ED10023BB60114B1B6B6A
:104D8000104A43F0020313630E4B1B6B03F0020344
:104D9000BB60BB684FF400437B610223BB6100230F
:104DA000FB6100233B6209237B6207F11403194670
:104DB000054801F0E3FE00BF2837BD4680BD00BFB7
:104DC000000800400038024000040240004001405A
:104DD000001002400018004080B58CB000AF786031
:104DE00007F11C0300221A605A609A60DA601A61A7
:104DF0007B681B68364A93422CD10023BB61354B3C
:104E00001B6C344A43F400331364324B1B6C03F4C1
:104E10000033BB61BB6900237B612E4B1B6B2D4AAA
:104E200043F0010313632B4B1B6B03F001037B6106
:104E30007B690C23FB6102233B6200237B6203231B
:104E4000BB620723FB6207F11C031946224801F0ED
:104E500095FE39E07B681B68204A934234D10023D9
:104E60003B611C4B1B6C1B4A43F480231364194B9E
:104E70001B6C03F480233B613B690023FB60154BF3
:104E80001B6B144A43F008031363124B1B6B03F0B4
:104E90000803FB60FB684FF44073FB6102233B6235
:104EA00000237B620323BB620723FB6207F11C0321
:104EB00019460B4801F062FE00220521272001F06F
:104EC00024FA272001F03DFA00BF3037BD4680BDEF
:104ED000004400400038024000000240004800400A
:104EE000000C024080B400AF00BFFDE780B400AF0B
:104EF00000BFFDE780B400AF00BFFDE780B400AFA6
:104F000000BFFDE780B400AF00BFFDE780B400AF95
:104F100000BFBD465DF8047B704780B500AF00F070
:104F2000C9FC06F095FF0346012B01D007F0D4F928
:104F300000BF80BD80B500AF024805F02DFA00BF6C
:104F400080BD00BF4C07002080B500AF024804F0D0
:104F50009BF800BF80BD00BF2C06002080B500AFCD
:104F6000024801F0A1FB00BF80BD00BFA0040020EB
:104F700080B400AF01231846BD465DF8047B70473E
:104F800080B582B000AF7860396008F0D1FA03468E
:104F900016221A604FF0FF3318460837BD4680BD11
:104FA00080B582B000AF78604FF0FF317868FFF7CE
:104FB000E7FF00BFFDE780B586B000AFF860B960DD
:104FC0007A6000237B610AE0AFF300800146BB6892
:104FD0005A1CBA60CAB21A707B6901337B617A6964
:104FE0007B689A42F0DB7B6818461837BD4680BD67
:104FF00080B586B000AFF860B9607A6000237B614D
:1050000009E0BB685A1CBA601B781846AFF30080F1
:105010007B6901337B617A697B689A42F1DB7B684B
:1050200018461837BD4680BD80B483B000AF7860A5
:105030004FF0FF3318460C37BD465DF8047B7047D0
:1050400080B483B000AF786039603B684FF40052A1
:105050005A60002318460C37BD465DF8047B704744
:1050600080B483B000AF7860012318460C37BD468A
:105070005DF8047B704780B485B000AFF860B9601C
:105080007A60002318461437BD465DF8047B7047EC
:1050900080B586B000AF7860144A154BD31A7B6197
:1050A0007B693B61134B1B68002B02D1114B124AE9
:1050B0001A60104B1A687B6813443A699A4207D207
:1050C00008F036FA03460C221A604FF0FF3309E06D
:1050D000084B1B68FB60074B1A687B681344054A42
:1050E0001360FB6818461837BD4680BD00000220DB
:1050F00000040000900A0020604D002080B400AF42
:10510000064BD3F88830054A43F47003C2F8883060
:1051100000BFBD465DF8047B704700BF00ED00E0B6
:1051200080B483B000AF78600B4A7B6813600B4B90
:1051300000221A600A4B00221A700A4B00221A70D1
:10514000094B00221A60094B00221A6000BF0C377D
:10515000BD465DF8047B7047940A0020980A002041
:105160009C0A0020A00A0020B00A0020B40A0020F7
:1051700090B589B000AF786039607B68002B2BD088
:1051800007F108030F227968184608F00DF900238B
:10519000FB75EFF31083BB61BB69FB6172B600BFA7
:1051A0000F4B1B6801330E4A136000F097FB034658
:1051B0000C4A13600C4A3B6813600C4B1C4607F109
:1051C00008030FCB84E80F00094B01221A70FB691A
:1051D000002B02D162B600E000BF2437BD4690BD6F
:1051E000980A0020B40A0020B00A0020A00A00207B
:1051F0009C0A002090B5B5B004AF0346FB800B4677
:10520000BB801346FB70494B1B68002B00F08A8063
:10521000002387F8BF300023C7F8B8300023C7F851
:10522000B430EFF31083C7F89C30D7F89C30C7F840
:10523000AC3072B600BF3E4B1B68C7F8A8303D4B80
:105240001B78DBB2002B13D0012387F8BF303A4B19
:105250001B68C7F8B830394B1B68C7F8B430384BF7
:1052600007F18C040FCB84E80F00324B00221A7038
:10527000D7F8AC30002B01D162B600BF97F8BF3031
:10528000002B20D007F10C00D7F8B430029307F1BF
:105290008C030193D7F8B8300093D7F8A830294A87
:1052A000402107F0FFFFC7F8A400D7F8A430002B77
:1052B00009DD1E4B1868D7F8A4309AB207F10C012B
:1052C0000A2304F083FFFB78002B04D0D7F8A83022
:1052D000C7F8B03002E00023C7F8B03000F0FEFAA3
:1052E0000146B7F90630B7F9042007F14C000292E5
:1052F0000193D7F8B03000930B46134A402107F0D2
:10530000D1FFC7F8A000D7F8A030002B0BDD074B6A
:105310001868D7F8A0309AB207F14C010A2304F0BC
:1053200055FF00E000BFC437BD4690BD940A002081
:10533000980A00209C0A0020B40A0020B00A00202D
:10534000A00A0020C4010108D8010108DFF834D008
:10535000FFF7D4FE0C480D490D4A002302E0D45853
:10536000C4500433C4188C42F9D30A4A0A4C0023AF
:1053700001E013600432A242FBD308F0DFF8FCF72F
:10538000C9FD70470000022000000020E801002055
:1053900058100108E80100205C4D0020FEE70000E5
:1053A00080B582B000AF0023FB7126E0FB79503B53
:1053B000DBB20021184600F02BF80021002000F09D
:1053C00027F80021102000F023F80023BB710DE026
:1053D000BA79FB790D49D2000A4413441B780121A4
:1053E000184600F015F8BB790133BB7197F9063008
:1053F000002BEDDAFB790133FB71FB79072BD5D953
:1054000000BF00BF0837BD4680BD00BFB80A0020FE
:1054100080B584B000AF03460A46FB711346BB71EA
:10542000BB79002B06D001224FF400611E4801F029
:1054300059FD05E000224FF400611B4801F052FDC8
:105440000023FB7322E000224FF48041164801F054
:1054500049FD97F90730002B06DA01224FF400517D
:10546000114801F03FFD05E000224FF400510E48C5
:1054700001F038FD01224FF480410B4801F032FD6C
:10548000FB795B00FB71FB7B0133FB73FB7B072B21
:10549000D9D901224FF40061034801F023FD00BF78
:1054A0001037BD4680BD00BF000C024080B582B001
:1054B00000AF0023FB7114E00023BB710AE0BA794E
:1054C000FB790C49D2000A44134400221A70BB79BC
:1054D0000133BB7197F90630002BF0DAFB79013309
:1054E000FB71FB79072BE7D9FFF75AFF00BF08379D
:1054F000BD4680BDB80A002080B485B000AF034629
:10550000FB710B46BB7113467B710023FB7397F94C
:105510000730002B41DBBB793F2B3ED8BB79DB0842
:10552000DBB2C3F10703BB73BB7903F007037B73E3
:105530007B7BC3F10703012202FA03F3FB737B7940
:10554000002B12D0FA79BB7B1749D2000A441344CE
:105550001878FA79BB7BF97B0143C8B21249D200B3
:105560000A44134402461A7018E0FA79BB7B0E49CC
:10557000D2000A4413441B785AB297F90F30DB4328
:105580005BB2134059B2FA79BB7BC8B20649D2006C
:105590000A44134402461A7000E000BF1437BD46A7
:1055A0005DF8047B704700BFB80A002090B585B055
:1055B00000AF0446084611461A462346FB710346CF
:1055C000BB710B467B7113463B71BB793B737B7997
:1055D000203B7B710023BB734DE03B790C2B0BD13F
:1055E0007A79B97B284813465B0013449B00034437
:1055F0000B441B78FB7307E07A79BB7B23491201CC
:105600000A4413441B78FB7300237B732DE097F946
:105610000F30002B07DA97F82020B979FB7918466C
:10562000FFF76AFF0CE097F82030002B0CBF012336
:105630000023DBB21A46B979FB791846FFF75CFF05
:10564000FB7B5B00FB73BB790133BB71BA793B7B9E
:10565000D21A3B799A4205D13B7BBB71FB7901336E
:10566000FB7105E07B7B01337B737B7B072BCED902
:10567000BB7B0133BB73BA7B3B799A42ADD300BF8E
:1056800000BF1437BD4690BD100201088406010812
:1056900080B584B002AF03463A60FB710B46BB7124
:1056A0001FE0FB797A2B04D90023FB71BB791033FF
:1056B000BB71BB793A2B05D90023FB71FB79BB7118
:1056C000FFF7F4FE3B681A78B979F8790123009363
:1056D0000C23FFF76BFFFB790833FB713B68013349
:1056E0003B603B681B78002BDBD100BF00BF083755
:1056F000BD4680BD80B500AF02F022FC424B1B6F5F
:10570000414A23F0010313673F4B1B6F3E4A23F0CE
:105710000403136702F028FC00224FF480513B4839
:1057200001F0E0FB642000F0E5F801224FF4805125
:10573000364801F0D7FB0021AE20FFF769FE0021BB
:10574000D520FFF765FE00215020FFF761FE002104
:10575000A820FFF75DFE00213F20FFF759FE002142
:10576000D320FFF755FE00210020FFF751FE002156
:105770004020FFF74DFE00218D20FFF749FE00215C
:105780001420FFF745FE00212020FFF741FE0021F5
:105790000220FFF73DFE0021A120FFF739FE002186
:1057A000C020FFF735FE0021DA20FFF731FE00218F
:1057B0001220FFF72DFE00218120FFF729FE002196
:1057C000EF20FFF725FE0021D920FFF721FE002161
:1057D000F120FFF71DFE0021DB20FFF719FE00215D
:1057E0003020FFF715FE0021A420FFF711FE002155
:1057F000A620FFF70DFE0021AF20FFF709FEFFF7FF
:1058000055FE00BF80BD00BF00380240000C0240C2
:1058100080B500AF0E4B1B680D4A43F40073136054
:105820000B4B1B680A4A43F480631360084B1B68E8
:10583000074A43F480731360032000F05BFD0F20E0
:1058400000F008F8FFF726F80023184680BD00BFD7
:10585000003C024080B582B000AF7860124B1A68FD
:10586000124B1B7819464FF47A73B3FBF1F3B2FB7A
:10587000F3F3184600F073FD0346002B01D001231B
:105880000EE07B680F2B0AD8002279684FF0FF30BA
:1058900000F03BFD064A7B681360002300E0012313
:1058A00018460837BD4680BD1000002018000020B3
:1058B0001400002080B400AF064B1B781A46064B3C
:1058C0001B681344044A136000BFBD465DF8047BA7
:1058D000704700BF18000020B80E002080B400AF51
:1058E000034B1B681846BD465DF8047B704700BF3C
:1058F000B80E002080B584B000AF7860FFF7EEFFEF
:10590000B8607B68FB60FB68B3F1FF3F05D00A4BD2
:105910001B781A46FB681344FB6000BFFFF7DEFFED
:105920000246BB68D31AFA689A42F7D800BF00BF94
:105930001037BD4680BD00BF1800002080B584B080
:1059400000AF78600023FB737B68002B01D101233B
:1059500033E07B681B6C002B09D17868FEF7C6FF2B
:105960007B6800225A647B68002283F83C207B68B5
:105970001B6C03F01003002B18D17B681B6C23F405
:10598000885323F0020343F002027B681A647868AC
:1059900000F062FA7B6800225A647B681B6C23F07B
:1059A000030343F001027B681A6401E00123FB73E7
:1059B0007B68002283F83C20FB7B18461037BD46ED
:1059C00080BD000080B588B000AFF860B9607A6033
:1059D00000237B610023FB77FB6893F83C30012BAD
:1059E00001D10223EBE0FB68012283F83C20FB6835
:1059F0001B689B6803F00103012B18D0FB681B6830
:105A00009A68FB681B6842F001029A606E4B1B6843
:105A10006E4AA2FB03239A0C13465B0013447B617E
:105A200002E07B69013B7B617B69002BF9D1FB685C
:105A30001B689B6803F48073B3F5807F07D1FB6814
:105A40001B689A68FB681B6822F480729A60FB6886
:105A50001B689B6803F00103012B40F0A380FB68E7
:105A60001B6C23F4E06323F0010343F48072FB68B2
:105A70001A64FB681B685B6803F48063002B07D023
:105A8000FB681B6C23F4405343F48052FB681A6498
:105A9000FB681B6C03F48053B3F5805F06D1FB6891
:105AA0005B6C23F00602FB685A6402E0FB6800228C
:105AB0005A64FB68002283F83C20454BBB61FB68BD
:105AC0009B6B444ADA63FB689B6B434A1A64FB682E
:105AD0009B6B424ADA64FB681B686FF022021A6013
